{
  "_format": "hh-sol-artifact-1",
  "contractName": "BotAuction",
  "sourceName": "contracts/BotCore.sol",
  "abi": [
    {
      "constant": true,
      "inputs": [],
      "name": "cfoAddress",
      "outputs": [
        {
          "name": "",
          "type": "address"
        }
      ],
      "payable": false,
      "stateMutability": "view",
      "type": "function"
    },
    {
      "constant": true,
      "inputs": [],
      "name": "name",
      "outputs": [
        {
          "name": "",
          "type": "string"
        }
      ],
      "payable": false,
      "stateMutability": "view",
      "type": "function"
    },
    {
      "constant": false,
      "inputs": [
        {
          "name": "_to",
          "type": "address"
        },
        {
          "name": "_tokenId",
          "type": "uint256"
        }
      ],
      "name": "approve",
      "outputs": [],
      "payable": false,
      "stateMutability": "nonpayable",
      "type": "function"
    },
    {
      "constant": true,
      "inputs": [],
      "name": "ceoAddress",
      "outputs": [
        {
          "name": "",
          "type": "address"
        }
      ],
      "payable": false,
      "stateMutability": "view",
      "type": "function"
    },
    {
      "constant": false,
      "inputs": [
        {
          "name": "_address",
          "type": "address"
        }
      ],
      "name": "setSiringAuctionAddress",
      "outputs": [],
      "payable": false,
      "stateMutability": "nonpayable",
      "type": "function"
    },
    {
      "constant": false,
      "inputs": [
        {
          "name": "_contract",
          "type": "address"
        }
      ],
      "name": "addExtension",
      "outputs": [],
      "payable": false,
      "stateMutability": "nonpayable",
      "type": "function"
    },
    {
      "constant": true,
      "inputs": [],
      "name": "totalSupply",
      "outputs": [
        {
          "name": "",
          "type": "uint256"
        }
      ],
      "payable": false,
      "stateMutability": "view",
      "type": "function"
    },
    {
      "constant": true,
      "inputs": [
        {
          "name": "_botId",
          "type": "uint256"
        }
      ],
      "name": "isPregnant",
      "outputs": [
        {
          "name": "",
          "type": "bool"
        }
      ],
      "payable": false,
      "stateMutability": "view",
      "type": "function"
    },
    {
      "constant": true,
      "inputs": [],
      "name": "siringAuction",
      "outputs": [
        {
          "name": "",
          "type": "address"
        }
      ],
      "payable": false,
      "stateMutability": "view",
      "type": "function"
    },
    {
      "constant": false,
      "inputs": [
        {
          "name": "_contract",
          "type": "address"
        }
      ],
      "name": "removeExtension",
      "outputs": [],
      "payable": false,
      "stateMutability": "nonpayable",
      "type": "function"
    },
    {
      "constant": false,
      "inputs": [
        {
          "name": "_from",
          "type": "address"
        },
        {
          "name": "_to",
          "type": "address"
        },
        {
          "name": "_tokenId",
          "type": "uint256"
        }
      ],
      "name": "transferFrom",
      "outputs": [],
      "payable": false,
      "stateMutability": "nonpayable",
      "type": "function"
    },
    {
      "constant": false,
      "inputs": [
        {
          "name": "_address",
          "type": "address"
        }
      ],
      "name": "setGeneScienceAddress",
      "outputs": [],
      "payable": false,
      "stateMutability": "nonpayable",
      "type": "function"
    },
    {
      "constant": true,
      "inputs": [
        {
          "name": "",
          "type": "uint256"
        }
      ],
      "name": "botIndexToOwner",
      "outputs": [
        {
          "name": "",
          "type": "address"
        }
      ],
      "payable": false,
      "stateMutability": "view",
      "type": "function"
    },
    {
      "constant": false,
      "inputs": [
        {
          "name": "_newCEO",
          "type": "address"
        }
      ],
      "name": "setCEO",
      "outputs": [],
      "payable": false,
      "stateMutability": "nonpayable",
      "type": "function"
    },
    {
      "constant": false,
      "inputs": [
        {
          "name": "_newCOO",
          "type": "address"
        }
      ],
      "name": "setCOO",
      "outputs": [],
      "payable": false,
      "stateMutability": "nonpayable",
      "type": "function"
    },
    {
      "constant": false,
      "inputs": [
        {
          "name": "_botId",
          "type": "uint256"
        },
        {
          "name": "_mask",
          "type": "uint16"
        }
      ],
      "name": "extUnlockBot",
      "outputs": [
        {
          "name": "",
          "type": "uint16"
        }
      ],
      "payable": false,
      "stateMutability": "nonpayable",
      "type": "function"
    },
    {
      "constant": false,
      "inputs": [
        {
          "name": "_botId",
          "type": "uint256"
        },
        {
          "name": "_startingPrice",
          "type": "uint256"
        },
        {
          "name": "_endingPrice",
          "type": "uint256"
        },
        {
          "name": "_duration",
          "type": "uint256"
        }
      ],
      "name": "createSaleAuction",
      "outputs": [],
      "payable": false,
      "stateMutability": "nonpayable",
      "type": "function"
    },
    {
      "constant": false,
      "inputs": [],
      "name": "unpause",
      "outputs": [],
      "payable": false,
      "stateMutability": "nonpayable",
      "type": "function"
    },
    {
      "constant": true,
      "inputs": [
        {
          "name": "",
          "type": "uint256"
        }
      ],
      "name": "sireAllowedToAddress",
      "outputs": [
        {
          "name": "",
          "type": "address"
        }
      ],
      "payable": false,
      "stateMutability": "view",
      "type": "function"
    },
    {
      "constant": true,
      "inputs": [
        {
          "name": "_matronId",
          "type": "uint256"
        },
        {
          "name": "_sireId",
          "type": "uint256"
        }
      ],
      "name": "canBreedWith",
      "outputs": [
        {
          "name": "",
          "type": "bool"
        }
      ],
      "payable": false,
      "stateMutability": "view",
      "type": "function"
    },
    {
      "constant": false,
      "inputs": [
        {
          "name": "_botId",
          "type": "uint256"
        },
        {
          "name": "_startingPrice",
          "type": "uint256"
        },
        {
          "name": "_endingPrice",
          "type": "uint256"
        },
        {
          "name": "_duration",
          "type": "uint256"
        }
      ],
      "name": "createSiringAuction",
      "outputs": [],
      "payable": false,
      "stateMutability": "nonpayable",
      "type": "function"
    },
    {
      "constant": false,
      "inputs": [
        {
          "name": "val",
          "type": "uint256"
        }
      ],
      "name": "setAutoBirthFee",
      "outputs": [],
      "payable": false,
      "stateMutability": "nonpayable",
      "type": "function"
    },
    {
      "constant": false,
      "inputs": [
        {
          "name": "_addr",
          "type": "address"
        },
        {
          "name": "_sireId",
          "type": "uint256"
        }
      ],
      "name": "approveSiring",
      "outputs": [],
      "payable": false,
      "stateMutability": "nonpayable",
      "type": "function"
    },
    {
      "constant": false,
      "inputs": [
        {
          "name": "_newCFO",
          "type": "address"
        }
      ],
      "name": "setCFO",
      "outputs": [],
      "payable": false,
      "stateMutability": "nonpayable",
      "type": "function"
    },
    {
      "constant": true,
      "inputs": [],
      "name": "pregnantBots",
      "outputs": [
        {
          "name": "",
          "type": "uint256"
        }
      ],
      "payable": false,
      "stateMutability": "view",
      "type": "function"
    },
    {
      "constant": false,
      "inputs": [
        {
          "name": "secs",
          "type": "uint256"
        }
      ],
      "name": "setSecondsPerBlock",
      "outputs": [],
      "payable": false,
      "stateMutability": "nonpayable",
      "type": "function"
    },
    {
      "constant": true,
      "inputs": [],
      "name": "paused",
      "outputs": [
        {
          "name": "",
          "type": "bool"
        }
      ],
      "payable": false,
      "stateMutability": "view",
      "type": "function"
    },
    {
      "constant": true,
      "inputs": [],
      "name": "destroyedBots",
      "outputs": [
        {
          "name": "",
          "type": "uint32"
        }
      ],
      "payable": false,
      "stateMutability": "view",
      "type": "function"
    },
    {
      "constant": true,
      "inputs": [
        {
          "name": "_tokenId",
          "type": "uint256"
        }
      ],
      "name": "ownerOf",
      "outputs": [
        {
          "name": "owner",
          "type": "address"
        }
      ],
      "payable": false,
      "stateMutability": "view",
      "type": "function"
    },
    {
      "constant": false,
      "inputs": [
        {
          "name": "_address",
          "type": "address"
        }
      ],
      "name": "setSaleAuctionAddress",
      "outputs": [],
      "payable": false,
      "stateMutability": "nonpayable",
      "type": "function"
    },
    {
      "constant": true,
      "inputs": [
        {
          "name": "_owner",
          "type": "address"
        }
      ],
      "name": "balanceOf",
      "outputs": [
        {
          "name": "count",
          "type": "uint256"
        }
      ],
      "payable": false,
      "stateMutability": "view",
      "type": "function"
    },
    {
      "constant": true,
      "inputs": [],
      "name": "secondsPerBlock",
      "outputs": [
        {
          "name": "",
          "type": "uint256"
        }
      ],
      "payable": false,
      "stateMutability": "view",
      "type": "function"
    },
    {
      "constant": false,
      "inputs": [],
      "name": "pause",
      "outputs": [],
      "payable": false,
      "stateMutability": "nonpayable",
      "type": "function"
    },
    {
      "constant": true,
      "inputs": [
        {
          "name": "_owner",
          "type": "address"
        }
      ],
      "name": "tokensOfOwner",
      "outputs": [
        {
          "name": "ownerTokens",
          "type": "uint256[]"
        }
      ],
      "payable": false,
      "stateMutability": "view",
      "type": "function"
    },
    {
      "constant": false,
      "inputs": [
        {
          "name": "_matronId",
          "type": "uint256"
        }
      ],
      "name": "giveBirth",
      "outputs": [
        {
          "name": "",
          "type": "uint256"
        }
      ],
      "payable": false,
      "stateMutability": "nonpayable",
      "type": "function"
    },
    {
      "constant": true,
      "inputs": [
        {
          "name": "_botId",
          "type": "uint256"
        }
      ],
      "name": "extGetLock",
      "outputs": [
        {
          "name": "",
          "type": "uint16"
        }
      ],
      "payable": false,
      "stateMutability": "view",
      "type": "function"
    },
    {
      "constant": false,
      "inputs": [],
      "name": "withdrawAuctionBalances",
      "outputs": [],
      "payable": false,
      "stateMutability": "nonpayable",
      "type": "function"
    },
    {
      "constant": true,
      "inputs": [],
      "name": "symbol",
      "outputs": [
        {
          "name": "",
          "type": "string"
        }
      ],
      "payable": false,
      "stateMutability": "view",
      "type": "function"
    },
    {
      "constant": true,
      "inputs": [
        {
          "name": "",
          "type": "uint256"
        }
      ],
      "name": "cooldowns",
      "outputs": [
        {
          "name": "",
          "type": "uint32"
        }
      ],
      "payable": false,
      "stateMutability": "view",
      "type": "function"
    },
    {
      "constant": true,
      "inputs": [
        {
          "name": "",
          "type": "uint256"
        }
      ],
      "name": "botIndexToApproved",
      "outputs": [
        {
          "name": "",
          "type": "address"
        }
      ],
      "payable": false,
      "stateMutability": "view",
      "type": "function"
    },
    {
      "constant": false,
      "inputs": [
        {
          "name": "_to",
          "type": "address"
        },
        {
          "name": "_tokenId",
          "type": "uint256"
        }
      ],
      "name": "transfer",
      "outputs": [],
      "payable": false,
      "stateMutability": "nonpayable",
      "type": "function"
    },
    {
      "constant": true,
      "inputs": [],
      "name": "cooAddress",
      "outputs": [
        {
          "name": "",
          "type": "address"
        }
      ],
      "payable": false,
      "stateMutability": "view",
      "type": "function"
    },
    {
      "constant": true,
      "inputs": [],
      "name": "autoBirthFee",
      "outputs": [
        {
          "name": "",
          "type": "uint256"
        }
      ],
      "payable": false,
      "stateMutability": "view",
      "type": "function"
    },
    {
      "constant": false,
      "inputs": [
        {
          "name": "_botId",
          "type": "uint256"
        },
        {
          "name": "_mask",
          "type": "uint16"
        }
      ],
      "name": "extLockBot",
      "outputs": [],
      "payable": false,
      "stateMutability": "nonpayable",
      "type": "function"
    },
    {
      "constant": false,
      "inputs": [
        {
          "name": "_matronId",
          "type": "uint256"
        },
        {
          "name": "_sireId",
          "type": "uint256"
        },
        {
          "name": "_generation",
          "type": "uint256"
        },
        {
          "name": "_genes",
          "type": "uint256"
        },
        {
          "name": "_owner",
          "type": "address"
        }
      ],
      "name": "extCreateBot",
      "outputs": [
        {
          "name": "",
          "type": "uint256"
        }
      ],
      "payable": false,
      "stateMutability": "nonpayable",
      "type": "function"
    },
    {
      "constant": true,
      "inputs": [
        {
          "name": "_botId",
          "type": "uint256"
        }
      ],
      "name": "isReadyToBreed",
      "outputs": [
        {
          "name": "",
          "type": "bool"
        }
      ],
      "payable": false,
      "stateMutability": "view",
      "type": "function"
    },
    {
      "constant": true,
      "inputs": [],
      "name": "saleAuction",
      "outputs": [
        {
          "name": "",
          "type": "address"
        }
      ],
      "payable": false,
      "stateMutability": "view",
      "type": "function"
    },
    {
      "constant": false,
      "inputs": [
        {
          "name": "_botId",
          "type": "uint256"
        }
      ],
      "name": "extDestroyBot",
      "outputs": [],
      "payable": false,
      "stateMutability": "nonpayable",
      "type": "function"
    },
    {
      "constant": false,
      "inputs": [
        {
          "name": "_sireId",
          "type": "uint256"
        },
        {
          "name": "_matronId",
          "type": "uint256"
        }
      ],
      "name": "bidOnSiringAuction",
      "outputs": [],
      "payable": true,
      "stateMutability": "payable",
      "type": "function"
    },
    {
      "constant": true,
      "inputs": [],
      "name": "geneScience",
      "outputs": [
        {
          "name": "",
          "type": "address"
        }
      ],
      "payable": false,
      "stateMutability": "view",
      "type": "function"
    },
    {
      "constant": false,
      "inputs": [
        {
          "name": "_matronId",
          "type": "uint256"
        },
        {
          "name": "_sireId",
          "type": "uint256"
        }
      ],
      "name": "breedWithAuto",
      "outputs": [],
      "payable": true,
      "stateMutability": "payable",
      "type": "function"
    },
    {
      "anonymous": false,
      "inputs": [
        {
          "indexed": false,
          "name": "owner",
          "type": "address"
        },
        {
          "indexed": false,
          "name": "matronId",
          "type": "uint256"
        },
        {
          "indexed": false,
          "name": "sireId",
          "type": "uint256"
        },
        {
          "indexed": false,
          "name": "cooldownEndBlock",
          "type": "uint256"
        }
      ],
      "name": "Pregnant",
      "type": "event"
    },
    {
      "anonymous": false,
      "inputs": [
        {
          "indexed": false,
          "name": "from",
          "type": "address"
        },
        {
          "indexed": false,
          "name": "to",
          "type": "address"
        },
        {
          "indexed": false,
          "name": "tokenId",
          "type": "uint256"
        }
      ],
      "name": "Transfer",
      "type": "event"
    },
    {
      "anonymous": false,
      "inputs": [
        {
          "indexed": false,
          "name": "owner",
          "type": "address"
        },
        {
          "indexed": false,
          "name": "approved",
          "type": "address"
        },
        {
          "indexed": false,
          "name": "tokenId",
          "type": "uint256"
        }
      ],
      "name": "Approval",
      "type": "event"
    },
    {
      "anonymous": false,
      "inputs": [
        {
          "indexed": false,
          "name": "botId",
          "type": "uint256"
        },
        {
          "indexed": false,
          "name": "mask",
          "type": "uint16"
        }
      ],
      "name": "Lock",
      "type": "event"
    },
    {
      "anonymous": false,
      "inputs": [
        {
          "indexed": false,
          "name": "owner",
          "type": "address"
        },
        {
          "indexed": false,
          "name": "botId",
          "type": "uint256"
        },
        {
          "indexed": false,
          "name": "matronId",
          "type": "uint256"
        },
        {
          "indexed": false,
          "name": "sireId",
          "type": "uint256"
        },
        {
          "indexed": false,
          "name": "genes",
          "type": "uint256"
        },
        {
          "indexed": false,
          "name": "birthTime",
          "type": "uint256"
        }
      ],
      "name": "Birth",
      "type": "event"
    },
    {
      "anonymous": false,
      "inputs": [
        {
          "indexed": false,
          "name": "newContract",
          "type": "address"
        }
      ],
      "name": "ContractUpgrade",
      "type": "event"
    }
  ],
  "bytecode": "0x60806040526000600260146101000a81548160ff0219169083151502179055506101c060405190810160405280603c63ffffffff1663ffffffff168152602001607863ffffffff1663ffffffff16815260200161012c63ffffffff1663ffffffff16815260200161025863ffffffff1663ffffffff16815260200161070863ffffffff1663ffffffff168152602001610e1063ffffffff1663ffffffff168152602001611c2063ffffffff1663ffffffff16815260200161384063ffffffff1663ffffffff16815260200161708063ffffffff1663ffffffff16815260200161e10063ffffffff1663ffffffff1681526020016201518063ffffffff1663ffffffff1681526020016202a30063ffffffff1663ffffffff1681526020016205460063ffffffff1663ffffffff16815260200162093a8063ffffffff1663ffffffff16815250600390600e620001569291906200017b565b50600f60055566071afd498d0000600f553480156200017457600080fd5b506200025b565b82600e600701600890048101928215620002125791602002820160005b83821115620001de57835183826101000a81548163ffffffff021916908363ffffffff160217905550926020019260040160208160030104928301926001030262000198565b8015620002105782816101000a81549063ffffffff0219169055600401602081600301049283019260010302620001de565b505b50905062000221919062000225565b5090565b6200025891905b808211156200025457600081816101000a81549063ffffffff0219169055506001016200022c565b5090565b90565b61c94b806200026b6000396000f300608060405260043610610267576000357c0100000000000000000000000000000000000000000000000000000000900463ffffffff1680630519ce791461026c57806306fdde03146102c3578063095ea7b3146103535780630a0f8168146103a057806314001f4c146103f7578063170ff3e11461043a57806318160ddd1461047d5780631940a936146104a857806321717ebf146104ed57806321ee102b1461054457806323b872dd1461058757806324e7a38a146105f457806327ab9f201461063757806327d7874c146106a45780632ba73c15146106e75780633c4b07de1461072a5780633d7d3f5a146107815780633f4ba83a146107cc57806346116e6f146107e357806346d22c70146108505780634ad8c9381461089f5780634b85fd55146108ea5780634dfff04f146109175780634e0a3379146109645780634e4081ef146109a75780635663896e146109d25780635c975abb146109ff57806361b6683c14610a2e5780636352211e14610a655780636fbde40d14610ad257806370a0823114610b155780637a7d493714610b6c5780638456cb5914610b975780638462151c14610bae57806388c2a0bf14610c465780638a653c9314610c8757806391876e5714610cd057806395d89b4114610ce75780639d6fac6f14610d77578063a8f8884d14610dc4578063a9059cbb14610e31578063b047fb5014610e7e578063b0c35c0514610ed5578063bf4a548514610f00578063d1b12b4e14610f3b578063d3e6f49f14610fba578063e6cbe35114610fff578063e9b5822514611056578063ed60ade614611083578063f2b47d52146110ad578063f7d8c88314611104575b600080fd5b34801561027857600080fd5b5061028161112e565b604051808273ffffffffffffffffffffffffffffffffffffffff1673ffffffffffffffffffffffffffffffffffffffff16815260200191505060405180910390f35b3480156102cf57600080fd5b506102d8611154565b6040518080602001828103825283818151815260200191508051906020019080838360005b838110156103185780820151818401526020810190506102fd565b50505050905090810190601f1680156103455780820380516001836020036101000a031916815260200191505b509250505060405180910390f35b34801561035f57600080fd5b5061039e600480360381019080803573ffffffffffffffffffffffffffffffffffffffff1690602001909291908035906020019092919050505061118d565b005b3480156103ac57600080fd5b506103b56115e5565b604051808273ffffffffffffffffffffffffffffffffffffffff1673ffffffffffffffffffffffffffffffffffffffff16815260200191505060405180910390f35b34801561040357600080fd5b50610438600480360381019080803573ffffffffffffffffffffffffffffffffffffffff16906020019092919050505061160a565b005b34801561044657600080fd5b5061047b600480360381019080803573ffffffffffffffffffffffffffffffffffffffff1690602001909291905050506119ed565b005b34801561048957600080fd5b50610492611c2f565b6040518082815260200191505060405180910390f35b3480156104b457600080fd5b506104d360048036038101908080359060200190929190505050611cda565b604051808215151515815260200191505060405180910390f35b3480156104f957600080fd5b50610502611dae565b604051808273ffffffffffffffffffffffffffffffffffffffff1673ffffffffffffffffffffffffffffffffffffffff16815260200191505060405180910390f35b34801561055057600080fd5b50610585600480360381019080803573ffffffffffffffffffffffffffffffffffffffff169060200190929190505050611dd4565b005b34801561059357600080fd5b506105f2600480360381019080803573ffffffffffffffffffffffffffffffffffffffff169060200190929190803573ffffffffffffffffffffffffffffffffffffffff16906020019092919080359060200190929190505050611fe1565b005b34801561060057600080fd5b50610635600480360381019080803573ffffffffffffffffffffffffffffffffffffffff1690602001909291905050506125e0565b005b34801561064357600080fd5b50610662600480360381019080803590602001909291905050506129c3565b604051808273ffffffffffffffffffffffffffffffffffffffff1673ffffffffffffffffffffffffffffffffffffffff16815260200191505060405180910390f35b3480156106b057600080fd5b506106e5600480360381019080803573ffffffffffffffffffffffffffffffffffffffff1690602001909291905050506129f6565b005b3480156106f357600080fd5b50610728600480360381019080803573ffffffffffffffffffffffffffffffffffffffff169060200190929190505050612d0c565b005b34801561073657600080fd5b5061076360048036038101908080359060200190929190803561ffff169060200190929190505050613023565b604051808261ffff1661ffff16815260200191505060405180910390f35b34801561078d57600080fd5b506107ca60048036038101908080359060200190929190803590602001909291908035906020019092919080359060200190929190505050613220565b005b3480156107d857600080fd5b506107e16136d0565b005b3480156107ef57600080fd5b5061080e600480360381019080803590602001909291905050506139f7565b604051808273ffffffffffffffffffffffffffffffffffffffff1673ffffffffffffffffffffffffffffffffffffffff16815260200191505060405180910390f35b34801561085c57600080fd5b506108856004803603810190808035906020019092919080359060200190929190505050613a2a565b604051808215151515815260200191505060405180910390f35b3480156108ab57600080fd5b506108e860048036038101908080359060200190929190803590602001909291908035906020019092919080359060200190929190505050613d47565b005b3480156108f657600080fd5b50610915600480360381019080803590602001909291905050506141f6565b005b34801561092357600080fd5b50610962600480360381019080803573ffffffffffffffffffffffffffffffffffffffff169060200190929190803590602001909291905050506143e8565b005b34801561097057600080fd5b506109a5600480360381019080803573ffffffffffffffffffffffffffffffffffffffff1690602001909291905050506146aa565b005b3480156109b357600080fd5b506109bc6149c1565b6040518082815260200191505060405180910390f35b3480156109de57600080fd5b506109fd600480360381019080803590602001909291905050506149c7565b005b348015610a0b57600080fd5b50610a14614d57565b604051808215151515815260200191505060405180910390f35b348015610a3a57600080fd5b50610a43614d6a565b604051808263ffffffff1663ffffffff16815260200191505060405180910390f35b348015610a7157600080fd5b50610a9060048036038101908080359060200190929190505050614d80565b604051808273ffffffffffffffffffffffffffffffffffffffff1673ffffffffffffffffffffffffffffffffffffffff16815260200191505060405180910390f35b348015610ade57600080fd5b50610b13600480360381019080803573ffffffffffffffffffffffffffffffffffffffff169060200190929190505050614f2d565b005b348015610b2157600080fd5b50610b56600480360381019080803573ffffffffffffffffffffffffffffffffffffffff169060200190929190505050615310565b6040518082815260200191505060405180910390f35b348015610b7857600080fd5b50610b816153dd565b6040518082815260200191505060405180910390f35b348015610ba357600080fd5b50610bac6153e3565b005b348015610bba57600080fd5b50610bef600480360381019080803573ffffffffffffffffffffffffffffffffffffffff1690602001909291905050506157ba565b6040518080602001828103825283818151815260200191508051906020019060200280838360005b83811015610c32578082015181840152602081019050610c17565b505050509050019250505060405180910390f35b348015610c5257600080fd5b50610c7160048036038101908080359060200190929190505050615ddd565b6040518082815260200191505060405180910390f35b348015610c9357600080fd5b50610cb260048036038101908080359060200190929190505050616924565b604051808261ffff1661ffff16815260200191505060405180910390f35b348015610cdc57600080fd5b50610ce5616b3a565b005b348015610cf357600080fd5b50610cfc616f67565b6040518080602001828103825283818151815260200191508051906020019080838360005b83811015610d3c578082015181840152602081019050610d21565b50505050905090810190601f168015610d695780820380516001836020036101000a031916815260200191505b509250505060405180910390f35b348015610d8357600080fd5b50610da260048036038101908080359060200190929190505050616fa0565b604051808263ffffffff1663ffffffff16815260200191505060405180910390f35b348015610dd057600080fd5b50610def60048036038101908080359060200190929190505050616fcf565b604051808273ffffffffffffffffffffffffffffffffffffffff1673ffffffffffffffffffffffffffffffffffffffff16815260200191505060405180910390f35b348015610e3d57600080fd5b50610e7c600480360381019080803573ffffffffffffffffffffffffffffffffffffffff16906020019092919080359060200190929190505050617002565b005b348015610e8a57600080fd5b50610e93617755565b604051808273ffffffffffffffffffffffffffffffffffffffff1673ffffffffffffffffffffffffffffffffffffffff16815260200191505060405180910390f35b348015610ee157600080fd5b50610eea61777b565b6040518082815260200191505060405180910390f35b348015610f0c57600080fd5b50610f3960048036038101908080359060200190929190803561ffff169060200190929190505050617781565b005b348015610f4757600080fd5b50610fa460048036038101908080359060200190929190803590602001909291908035906020019092919080359060200190929190803573ffffffffffffffffffffffffffffffffffffffff16906020019092919050505061797a565b6040518082815260200191505060405180910390f35b348015610fc657600080fd5b50610fe560048036038101908080359060200190929190505050617b7f565b604051808215151515815260200191505060405180910390f35b34801561100b57600080fd5b50611014617dc8565b604051808273ffffffffffffffffffffffffffffffffffffffff1673ffffffffffffffffffffffffffffffffffffffff16815260200191505060405180910390f35b34801561106257600080fd5b5061108160048036038101908080359060200190929190505050617dee565b005b6110ab60048036038101908080359060200190929190803590602001909291905050506180c9565b005b3480156110b957600080fd5b506110c26187ca565b604051808273ffffffffffffffffffffffffffffffffffffffff1673ffffffffffffffffffffffffffffffffffffffff16815260200191505060405180910390f35b61112c60048036038101908080359060200190929190803590602001909291905050506187f0565b005b600160009054906101000a900473ffffffffffffffffffffffffffffffffffffffff1681565b6040805190810160405280600a81526020017f43727970746f426f74730000000000000000000000000000000000000000000081525081565b6111b97fcb2648b67b0de279cb753577ec77c6b2ea08d23aa34ef2f48c5aab3c2f7b331360010261918e565b6111e57f6f460441e04e9f2fab210055dfdc65babe4e31ac3fe89dcb41c84c7fb037599160010261918e565b6112117f3dde09caefb3a1f40ad03cded37744ff16ee712b622d5384bd28cad309760ae760010261918e565b61123d7f7808d25d5414a096b7d4484dd157a0f0c9b5f6c11dae49f7d70fd4cb3bbde23260010261918e565b600260149054906101000a900460ff1615151561125957600080fd5b6112857f8b5d68b72118d3191a023266c39777d9f072660abc89f2761d9e6c792bd310c360010261918e565b6112b07ead53c480053279c157a04c0652ee4064d1c599d726b53bdfe5e51538b4069160010261918e565b6112dc7f73f27d1582078ef0295938c7b7ab7f3be1e5cc6048e9cc9508a6feef04e1095d600102619191565b6113087ffb7d35519eb0ee941ca5a932582a5263ee71940aee636850cfa01b3b126f3067600102619191565b6113347fb434096f2e5ca8d06c454a21f04ad5f09942234d4e363c211c1420ed4a2e52be600102619191565b6113607fa9c8efc5ce4bc61f305ce46bfcc0de8acc8c44d59aa97d4b61c09d5a5a50ca50600102619191565b61136a3382619194565b151561137557600080fd5b6113a17fa8f7926d71a6472fe13f29db3af391c76d36edae2364b8e75c20daf48bfd9597600102619191565b6113cd7fcbf8814163e31ba4fd315f1dcca9acca540f3661836dc3d0675fdfb5044c54f7600102619191565b6113f97f6ca082da447e0fdca09edb60240a1bccddd75ea7cc421359bd97351bfd379b2e600102619191565b6114257faf97db88b3736215d415e6d475805ecaec705fcbd497b0079b25802be6d365c2600102619191565b60006002600e600084815260200190815260200160002060009054906101000a900461ffff161661ffff1614151561145c57600080fd5b6114887fabe0724bb66fdcb981b83ee011d3446861ecdd983e55c82bcfda252851c0d666600102619191565b6114b47f286f0709e1a3c00bd5c53e23b60ab9673abcd305f451e2e5380ca38fb8fffd1e600102619191565b6114e07f8af0e261a7afaa1f451dd3259edc0d69b42f3ca4312ba7255d55fd183399c103600102619191565b6114ea8183619284565b6115167fae6983cc8c7630a3ba8860ce83e961c7ef6142fbfc5a5dd39af1543d1465f94d600102619191565b6115427f06b1e8b3a5b6375b6be53631cc8b0bf9853c9cd1959449e6a545d233afdb3c19600102619191565b7f8c5be1e5ebec7d5bd14f71427d1e84f3dd0314c0f7b2291e5b200ac8c7c3b925338383604051808473ffffffffffffffffffffffffffffffffffffffff1673ffffffffffffffffffffffffffffffffffffffff1681526020018373ffffffffffffffffffffffffffffffffffffffff1673ffffffffffffffffffffffffffffffffffffffff168152602001828152602001935050505060405180910390a15050565b6000809054906101000a900473ffffffffffffffffffffffffffffffffffffffff1681565b60006116387fcb049ed2f483be6c0944c2c03cebba45371d8e0ef11e4518263bd2fbbda7f59360010261918e565b6116647f5dbffe83b36d40e7d651f2d3531e4a4824b9dc6ccb6586f84d10976bd60ae08d60010261918e565b6116907f31f8d3048db660f92f7d2b610b6a9c7cae1f6a13dda0027f8885b1f585ba628360010261918e565b6116bc7fa2a47da5016dac4687136caeff8e35d8d21ddaedc8808cd08f29ccfc21bfac7360010261918e565b6000809054906101000a900473ffffffffffffffffffffffffffffffffffffffff1673ffffffffffffffffffffffffffffffffffffffff163373ffffffffffffffffffffffffffffffffffffffff1614151561171757600080fd5b6117437f75897d7cfe76dbf024f81b5ad6072a4019a8f8439308212c47ad1e9256df43c060010261918e565b61176f7f3ffe5ec58b9e7787ceecb0adf9d00ef109fb30448b7229696966b751a6dac16160010261918e565b61179b7f324752660c17efb762de4dc4a4ac46af3bf845fc2ef21ea266f3aefaca3cc98060010261935e565b6117c77fcb5d3011ff5173e7db9bca2185850530a4e465e391e31457983db8caa05c729260010261935e565b6117f37f4dba8cef6ad001b7e4a5e36a8eabe7158a3a2e63afd2b1a675c5701346112de460010261935e565b8190506118227f22750c26745dd09d8e4ea8cec1e6e0fed051c81b70aa7348e7f5d68b370acc7460010261935e565b61184e7f63c2504063eced5e16881a9a5e5c444adeef5cd2f8e210f6ad7cf1222e48915160010261935e565b61187a7f65d5450ab468e008be7cd723ef13e5e5eae14d565346a24ec89fd6d67e6e9a3960010261935e565b8073ffffffffffffffffffffffffffffffffffffffff166376190f8f6040518163ffffffff167c0100000000000000000000000000000000000000000000000000000000028152600401602060405180830381600087803b1580156118de57600080fd5b505af11580156118f2573d6000803e3d6000fd5b505050506040513d602081101561190857600080fd5b8101908080519060200190929190505050151561192457600080fd5b6119507f5d9abdeb3394d4a11c5aec3e9642ce5ccc688cc2b1aa9b4c9056c7e33e13a60260010261935e565b61197c7fcda96f0b8ddd97e8d455c1df412bcc9c38f4594d217db2f0176262918e776f1360010261935e565b6119a87f0fa7178ada6ef6354d422424aa391b3e1e74ed98f97b9d85d83c43dabf3fab7160010261935e565b80600c60006101000a81548173ffffffffffffffffffffffffffffffffffffffff021916908373ffffffffffffffffffffffffffffffffffffffff1602179055505050565b611a197fcb049ed2f483be6c0944c2c03cebba45371d8e0ef11e4518263bd2fbbda7f59360010261918e565b611a457f5dbffe83b36d40e7d651f2d3531e4a4824b9dc6ccb6586f84d10976bd60ae08d60010261918e565b611a717f31f8d3048db660f92f7d2b610b6a9c7cae1f6a13dda0027f8885b1f585ba628360010261918e565b611a9d7fa2a47da5016dac4687136caeff8e35d8d21ddaedc8808cd08f29ccfc21bfac7360010261918e565b6000809054906101000a900473ffffffffffffffffffffffffffffffffffffffff1673ffffffffffffffffffffffffffffffffffffffff163373ffffffffffffffffffffffffffffffffffffffff16141515611af857600080fd5b611b247f75897d7cfe76dbf024f81b5ad6072a4019a8f8439308212c47ad1e9256df43c060010261918e565b611b507f3ffe5ec58b9e7787ceecb0adf9d00ef109fb30448b7229696966b751a6dac16160010261918e565b611b7c7fbf1d85ffe6355fc4f272b2f2d5adc3ad4608c432a5940832e2cc20d377b9a98b600102619361565b611ba87f3121b1f0cf694c7aebd4277132a51a0d946c87c20aa931ecdd3eb428bc2ad938600102619361565b611bd47f91b33501a02963141dbd64b5b5bd1c9bb12e2a9f2cd55094b23aecaaf0e998c1600102619361565b6001600d60008373ffffffffffffffffffffffffffffffffffffffff1673ffffffffffffffffffffffffffffffffffffffff16815260200190815260200160002060006101000a81548160ff02191690831515021790555050565b6000611c5d7f898aee6ef95aa656f8884189394d48e7887c876270b03a2eb9a38fd154f49a20600102619191565b611c897fdddbecff26dcf835d644d384922766599f4f95e54a624f935763c4c8686bc29b600102619191565b611cb57ffbf9e60a85a1e336d4656f46007e2199bddfa98f95617e504b3571289e6b0871600102619191565b600b60009054906101000a900463ffffffff1663ffffffff1660068054905003905090565b6000611d087fe7bf1379587a667dd3fb8ff72fc2ac579c208ce7775f03b659d973333fbc4738600102619364565b611d347f95e2a8b8f85612c67958456e06ffb7afa89e0249e1b703668d0c19608b051d53600102619364565b611d607ff2440aa14d4eb8747206cf4ee6e44f7470aecc82d1722f22c0fc8f16b50c2883600102619364565b600082118015611da757506000600683815481101515611d7c57fe5b906000526020600020906002020160010160189054906101000a900463ffffffff1663ffffffff1614155b9050919050565b600c60009054906101000a900473ffffffffffffffffffffffffffffffffffffffff1681565b611e007fcb049ed2f483be6c0944c2c03cebba45371d8e0ef11e4518263bd2fbbda7f59360010261918e565b611e2c7f5dbffe83b36d40e7d651f2d3531e4a4824b9dc6ccb6586f84d10976bd60ae08d60010261918e565b611e587f31f8d3048db660f92f7d2b610b6a9c7cae1f6a13dda0027f8885b1f585ba628360010261918e565b611e847fa2a47da5016dac4687136caeff8e35d8d21ddaedc8808cd08f29ccfc21bfac7360010261918e565b6000809054906101000a900473ffffffffffffffffffffffffffffffffffffffff1673ffffffffffffffffffffffffffffffffffffffff163373ffffffffffffffffffffffffffffffffffffffff16141515611edf57600080fd5b611f0b7f75897d7cfe76dbf024f81b5ad6072a4019a8f8439308212c47ad1e9256df43c060010261918e565b611f377f3ffe5ec58b9e7787ceecb0adf9d00ef109fb30448b7229696966b751a6dac16160010261918e565b611f637f8444ef6021167db0d922a2b1e8349b1a5f0b8edd982ba8f491199e31a55d5702600102619361565b611f8f7f2580da3be0f5c047837254c1276bcd16f8442e69e56de9ef1e73c37459f8dfcd600102619361565b600d60008273ffffffffffffffffffffffffffffffffffffffff1673ffffffffffffffffffffffffffffffffffffffff16815260200190815260200160002060006101000a81549060ff021916905550565b61200d7fcb2648b67b0de279cb753577ec77c6b2ea08d23aa34ef2f48c5aab3c2f7b331360010261918e565b6120397f6f460441e04e9f2fab210055dfdc65babe4e31ac3fe89dcb41c84c7fb037599160010261918e565b6120657f3dde09caefb3a1f40ad03cded37744ff16ee712b622d5384bd28cad309760ae760010261918e565b6120917f7808d25d5414a096b7d4484dd157a0f0c9b5f6c11dae49f7d70fd4cb3bbde23260010261918e565b600260149054906101000a900460ff161515156120ad57600080fd5b6120d97f8b5d68b72118d3191a023266c39777d9f072660abc89f2761d9e6c792bd310c360010261918e565b6121047ead53c480053279c157a04c0652ee4064d1c599d726b53bdfe5e51538b4069160010261918e565b6121307f0889fe94f74f44c65c35ba53712fbab194fa1bb61f615921226ec89ec79af0dc600102619191565b61215c7f72e97404a545a6ad14e994b3b72e117ca463f792d8462726bc8f8a75f0a867d5600102619191565b6121887f98a3efff4491bfdd31db19a4ea6524d91725fcdf8f467170ca66cbf502f4bcdc600102619191565b6121b47f5d10d8b8387754f7af183be69aa3cf6d6d24af896abedfabba930b71cd73c2d0600102619191565b600073ffffffffffffffffffffffffffffffffffffffff168273ffffffffffffffffffffffffffffffffffffffff16141515156121f057600080fd5b61221c7f33986ea5c636d69115fe35e35cc069b9971677771d2c4d5c0339839f187975a0600102619191565b6122487f30f54a806808c7e5a107cef8fda892b8a2fc206208a3c1f30ea18ef4b43858e8600102619191565b6122747f8f9ed3e3c37dca59b5e1954a87c197b23556f9c18aba8ecb475882740763c0c3600102619191565b6122a07f99ecce2e1df3700019fc1d0501dff4b21f73cadd019023d27f58bee55860b833600102619191565b3073ffffffffffffffffffffffffffffffffffffffff168273ffffffffffffffffffffffffffffffffffffffff16141515156122db57600080fd5b6123077f2de2ffb7058da8280839e5d6a8ddb58621ce4abb510b5fb2139831870d3f1869600102619191565b6123337fc8c4361c344a80898fd02a5ac01d2d7c40cef2895e6ec8a17e76a65488eeba60600102619191565b61235f7f5e442fcfa187959ed10b7c75d281059104822e17b99b0075e016c0146d7ec159600102619191565b61238b7f9ff1cba92654c5fa7243108ea24a0f3e448fb981a1e4731de57aefa2c9675cda600102619191565b6123953382619367565b15156123a057600080fd5b6123cc7fc012d300c3df2f91a3d2612b15ca61a1500962d8354da9819cf116a1192c81c7600102619191565b6123f87face457e11cfed63f5abda78b37b9706c0a6548ba4d271846614c8c59e5281a5d600102619191565b6124247f0fcbfed2c08977871396d7f42dc83de65eb46d744d38f84baec9ffe17d1ed430600102619191565b6124507f06b4769d16a6c1cd61b6ea0cd7badbefb2d6a54dfdffeeb943a1fc768cab9df4600102619191565b61245a8382619194565b151561246557600080fd5b6124917f173f51cd66e6b7124783f729ab4fa4d3fe6a286663aaf410ff269824de295352600102619191565b6124bd7f34bd79ec044af2b897b90b1166c070695aaff1c41b44392c88d751ec221b5206600102619191565b6124e97f4dc7bd8f4d2ffd4fa3d24905e728f4d790fcba5df163fde95f7bb23e198a8f20600102619191565b6125157f67c927596ccd3e5e5c5f1892c2e72f8c7743fef824ddeb68848ea28a461a75da600102619191565b60006002600e600084815260200190815260200160002060009054906101000a900461ffff161661ffff1614151561254c57600080fd5b6125787fb098cd7bef334ec0c432b74cf3b1065f29f7adb4e04707aa87ee877d25b4dbce600102619191565b6125a47ff2bbc773a3b17d847e7e427ee26864d6402378f5e24eef228b96502b8c46c376600102619191565b6125d07f2922453e9ea1635c3a5803ae8ccf221b3a46ece39c97592d4531bf583ea1d518600102619191565b6125db838383619457565b505050565b600061260e7fcb049ed2f483be6c0944c2c03cebba45371d8e0ef11e4518263bd2fbbda7f59360010261918e565b61263a7f5dbffe83b36d40e7d651f2d3531e4a4824b9dc6ccb6586f84d10976bd60ae08d60010261918e565b6126667f31f8d3048db660f92f7d2b610b6a9c7cae1f6a13dda0027f8885b1f585ba628360010261918e565b6126927fa2a47da5016dac4687136caeff8e35d8d21ddaedc8808cd08f29ccfc21bfac7360010261918e565b6000809054906101000a900473ffffffffffffffffffffffffffffffffffffffff1673ffffffffffffffffffffffffffffffffffffffff163373ffffffffffffffffffffffffffffffffffffffff161415156126ed57600080fd5b6127197f75897d7cfe76dbf024f81b5ad6072a4019a8f8439308212c47ad1e9256df43c060010261918e565b6127457f3ffe5ec58b9e7787ceecb0adf9d00ef109fb30448b7229696966b751a6dac16160010261918e565b6127717ffb5317fd1b5166c3774f920b6fb2db12fd47fc828b83f9a4773ee83582979567600102619364565b61279d7f977d71112e5188f9338ace708886714229e1cc60b10eefe58b44ad0c35d7de23600102619364565b6127c97fc3d5557feb1159ba466a1e9740f52c40f29ee7769cc7557ee2c3b34a0cfc1484600102619364565b8190506127f87f622643e69f558353da525ed55064184d5388f570975071d33a842612a70030cb600102619364565b6128247fdea2bc1c28ef5fe96e8dfca88f09ef8feb28f14e8b05083f7c46d01d6194b3be600102619364565b6128507fab234dfee6b4f8f1a0c6b0a12541efae9e82813600d5564a2c88c708615e89f0600102619364565b8073ffffffffffffffffffffffffffffffffffffffff166354c15b826040518163ffffffff167c0100000000000000000000000000000000000000000000000000000000028152600401602060405180830381600087803b1580156128b457600080fd5b505af11580156128c8573d6000803e3d6000fd5b505050506040513d60208110156128de57600080fd5b810190808051906020019092919050505015156128fa57600080fd5b6129267fc56bd864e5b50f205462a19844dfc4eb411b88e8bf6efbfd889473593e48b6a2600102619364565b6129527f03ed735a4a29523fc209118f2656357e9e128043069213343749a8e98966c83e600102619364565b61297e7fc95924bc85c89d7f616594e582a71dbec7ff4a3b48d493ee8135d05f6eb70829600102619364565b80601160006101000a81548173ffffffffffffffffffffffffffffffffffffffff021916908373ffffffffffffffffffffffffffffffffffffffff1602179055505050565b60076020528060005260406000206000915054906101000a900473ffffffffffffffffffffffffffffffffffffffff1681565b612a227fcb049ed2f483be6c0944c2c03cebba45371d8e0ef11e4518263bd2fbbda7f59360010261918e565b612a4e7f5dbffe83b36d40e7d651f2d3531e4a4824b9dc6ccb6586f84d10976bd60ae08d60010261918e565b612a7a7f31f8d3048db660f92f7d2b610b6a9c7cae1f6a13dda0027f8885b1f585ba628360010261918e565b612aa67fa2a47da5016dac4687136caeff8e35d8d21ddaedc8808cd08f29ccfc21bfac7360010261918e565b6000809054906101000a900473ffffffffffffffffffffffffffffffffffffffff1673ffffffffffffffffffffffffffffffffffffffff163373ffffffffffffffffffffffffffffffffffffffff16141515612b0157600080fd5b612b2d7f75897d7cfe76dbf024f81b5ad6072a4019a8f8439308212c47ad1e9256df43c060010261918e565b612b597f3ffe5ec58b9e7787ceecb0adf9d00ef109fb30448b7229696966b751a6dac16160010261918e565b612b857f5fc6eb43ffbf276b62f28fcbf60dc2c180db575c7e9e226e6c6c4ebc9d3cdca660010261918e565b612bb17f8600bb7718bfaf280bafb2953b4f5e2e5b7f43eb718f188ebbcea7100f3ec91f60010261918e565b612bdd7ff67d7d4f85ade4d4ae9d316f7b6198c820cf3fbdc10cd6c34dbbaa33e43e5b1860010261918e565b612c097fd970e416a7b05f894e16d02c52d34731c3fc2e0bf8267719089224ee103507ca60010261918e565b600073ffffffffffffffffffffffffffffffffffffffff168173ffffffffffffffffffffffffffffffffffffffff1614151515612c4557600080fd5b612c717f83b999badfe58cf9aa7350759d8fc576955adf6ab9762923d3e4195cc1fb053d60010261918e565b612c9d7fee8b0d121d8b68ba51424a21b862b2537b0180682b889c82daf52e6efd48137060010261918e565b612cc97f9023188c9cea07958449ac3498f26f8c50f0236650f38f89ba11bc880e682f3660010261918e565b806000806101000a81548173ffffffffffffffffffffffffffffffffffffffff021916908373ffffffffffffffffffffffffffffffffffffffff16021790555050565b612d387fcb049ed2f483be6c0944c2c03cebba45371d8e0ef11e4518263bd2fbbda7f59360010261918e565b612d647f5dbffe83b36d40e7d651f2d3531e4a4824b9dc6ccb6586f84d10976bd60ae08d60010261918e565b612d907f31f8d3048db660f92f7d2b610b6a9c7cae1f6a13dda0027f8885b1f585ba628360010261918e565b612dbc7fa2a47da5016dac4687136caeff8e35d8d21ddaedc8808cd08f29ccfc21bfac7360010261918e565b6000809054906101000a900473ffffffffffffffffffffffffffffffffffffffff1673ffffffffffffffffffffffffffffffffffffffff163373ffffffffffffffffffffffffffffffffffffffff16141515612e1757600080fd5b612e437f75897d7cfe76dbf024f81b5ad6072a4019a8f8439308212c47ad1e9256df43c060010261918e565b612e6f7f3ffe5ec58b9e7787ceecb0adf9d00ef109fb30448b7229696966b751a6dac16160010261918e565b612e9b7f88c886be51524dd73b922e35a02dca86d0c0b415cf3c56d62a1f13368b3d05e360010261918e565b612ec77f9f0996057a1a4719f75aa64801cbab8bb062056caa963266efdd3d64b675584e60010261918e565b612ef37f54156e362d900300deebcd999007c710ad9bb1a442a2d97a5bf53bc07079ce3d60010261918e565b612f1f7ffd23285df18ee46f15e8858285ad785009d6b2ae9b545be17c967db9f4bc953960010261918e565b600073ffffffffffffffffffffffffffffffffffffffff168173ffffffffffffffffffffffffffffffffffffffff1614151515612f5b57600080fd5b612f877fcc97a5c8c25fb6ff1ad805fecb7bc6de88c04a665024665354b9a7d6bb355b3d60010261918e565b612fb37fb755be836afd987e535ef2cf142d2fa3bc355b2d721ad31155fe8b917c9659e660010261918e565b612fdf7f171d8dd485a5f392b5cf3c25f90c4141d93dc94a5fdf9c612a3296f1700d389d60010261918e565b80600260006101000a81548173ffffffffffffffffffffffffffffffffffffffff021916908373ffffffffffffffffffffffffffffffffffffffff16021790555050565b60006130517f34ba93981658c3daa5f666bbb9fe4c2050f8795f520af64c257be31ef93f4a7e600102619361565b61307d7f6e13615425708a7761bd047818bc837ac9fb4bd1e59bf3fa4452e4cbd770a560600102619361565b6130a97f1dc2ce0d010e73d168ffe98a84a9bc524a16f273016615775624f5da12869a7e600102619361565b6130d57f7988d104597cafdb112f343393a63efde85108a1f51c7a8effe784254afa55de600102619361565b60011515600d60003373ffffffffffffffffffffffffffffffffffffffff1673ffffffffffffffffffffffffffffffffffffffff16815260200190815260200160002060009054906101000a900460ff16151514151561313457600080fd5b6131607f74c308184e27580c17a1d0b6ff599bb36cc06cea53ef2b0b67c3f3d831015915600102619361565b61318c7ff94d3c11b156185524dc880705acc4e207d4e6c8ac4a3c0d0c44c9bda5848526600102619361565b6131b87f60acf4788f65c7446cd28a54601e564fea9f45a1c5ee6ddbe0dfb88758899949600102619361565b6131e47f030a7770b1223429e810e10ba6717c794a45261bb291a8621ec4922617ce6357600102619361565b6132107f6d8ea07f2da76c222de40f7bea64be677077c0f7ad4a898eea5fd8ee80e2694a600102619361565b61321a8383619a1d565b92915050565b61324c7fcb2648b67b0de279cb753577ec77c6b2ea08d23aa34ef2f48c5aab3c2f7b331360010261918e565b6132787f6f460441e04e9f2fab210055dfdc65babe4e31ac3fe89dcb41c84c7fb037599160010261918e565b6132a47f3dde09caefb3a1f40ad03cded37744ff16ee712b622d5384bd28cad309760ae760010261918e565b6132d07f7808d25d5414a096b7d4484dd157a0f0c9b5f6c11dae49f7d70fd4cb3bbde23260010261918e565b600260149054906101000a900460ff161515156132ec57600080fd5b6133187f8b5d68b72118d3191a023266c39777d9f072660abc89f2761d9e6c792bd310c360010261918e565b6133437ead53c480053279c157a04c0652ee4064d1c599d726b53bdfe5e51538b4069160010261918e565b61336f7f2d28a9c2517c54a9d91da42420bef8e420cbd9e1f63245666a86e7dd60049cf160010261935e565b61339b7fd3f65a76b39da1394b17abd9f89c2d298845602ef2f401e5114ac4d3a050291d60010261935e565b6133c77fcdcdc37ae20c97ed365d854545af838f6e361fa2a46c8b84142dff84293d366860010261935e565b6133f37f6b379e6b378dda6242ee7d2e2463ca46c933b23d0e39d2bfd650d2fa367b826860010261935e565b6133fd3385619194565b151561340857600080fd5b6134347f084c6c249072a99a3c94eefe09915f0253e2fc9430c3e55a4307fe83983506a060010261935e565b6134607f94901083c25b889de8445aa937a202b4f6377ff58478a318a826b33ac5b8085b60010261935e565b61348c7fbc98f474ed5b6e5a1610fd543ebf898ab8e2bd9f44285e0138efa624847387a460010261935e565b6134b87ffe7d7ae545abed2d14156d9a59c84d762fd42a57346f18ba82f3d5c30a1b4bac60010261935e565b6134c184611cda565b1515156134cd57600080fd5b6134f97f4c7b29c2f5bcbe1471b82d997637206237c1e2482b0b61f9ecf0af2d9485f31a60010261935e565b6135257f282ee1edb0ad948da39e8b5e608c7e3fb5ad8bb1fcbed6e85c08ad42beb51c1a60010261935e565b6135517f92b5445da96bc6cd981b152e0015eeeea1ced0cedde4028fbb91d0b7f3002bc360010261935e565b61357d84600b60049054906101000a900473ffffffffffffffffffffffffffffffffffffffff16619284565b6135a97f98f66380dae9ce1e22e787e8b82762c339e2699a35492cc74b6f6e95696b731c60010261935e565b6135d57ff9f5a05bd26ef66d1177eb2da75c91285bd1fd9ff86e5928ff92a11280e318dd60010261935e565b600b60049054906101000a900473ffffffffffffffffffffffffffffffffffffffff1673ffffffffffffffffffffffffffffffffffffffff166327ebe40a85858585336040518663ffffffff167c0100000000000000000000000000000000000000000000000000000000028152600401808681526020018581526020018481526020018381526020018273ffffffffffffffffffffffffffffffffffffffff1673ffffffffffffffffffffffffffffffffffffffff16815260200195505050505050600060405180830381600087803b1580156136b257600080fd5b505af11580156136c6573d6000803e3d6000fd5b5050505050505050565b6136fc7fcb049ed2f483be6c0944c2c03cebba45371d8e0ef11e4518263bd2fbbda7f59360010261918e565b6137287f5dbffe83b36d40e7d651f2d3531e4a4824b9dc6ccb6586f84d10976bd60ae08d60010261918e565b6137547f31f8d3048db660f92f7d2b610b6a9c7cae1f6a13dda0027f8885b1f585ba628360010261918e565b6137807fa2a47da5016dac4687136caeff8e35d8d21ddaedc8808cd08f29ccfc21bfac7360010261918e565b6000809054906101000a900473ffffffffffffffffffffffffffffffffffffffff1673ffffffffffffffffffffffffffffffffffffffff163373ffffffffffffffffffffffffffffffffffffffff161415156137db57600080fd5b6138077f75897d7cfe76dbf024f81b5ad6072a4019a8f8439308212c47ad1e9256df43c060010261918e565b6138337f3ffe5ec58b9e7787ceecb0adf9d00ef109fb30448b7229696966b751a6dac16160010261918e565b61385f7fee02b3c60f7bfcd131c9c4bfd3f91b2a91a6ce97b6a6d430726632917760560160010261918e565b61388b7f43afdfb745d28db79002d8d11f06a461d1a6196edc9d887c659754e88a29b92260010261918e565b6138b77f8ec630ab56ff4ad877f695df339f06d409f6c7ddf449da0d8db84c833f37f76360010261918e565b6138e37f6f467694727c3dc109758fd72c4058843bacb5cdcee39f9ace95414345acf38a60010261918e565b600260149054906101000a900460ff1615156138fe57600080fd5b61392a7f39fe575960af02d10117b59a53d57d89b0bf68648612a8334474037b391b7fb360010261918e565b6139567ff23eb7d426163ac3eb04e8e07e1cb74434c2877a79d57f6cff7670864e0f184160010261918e565b6139827f9e488e65048831a2ec3bbe8010ee312b58023109c588537cf11da03689fc46a160010261918e565b6139ae7f19d1644c0ba78d7d9378f48abb0889dbb78b76b0f9b81111d08879bc90ea64ea60010261918e565b6139da7f069eeaf91fae0aa54459b92512201a5b8a2253bd9002e53f35a603e641338e2b60010261918e565b6000600260146101000a81548160ff021916908315150217905550565b600a6020528060005260406000206000915054906101000a900473ffffffffffffffffffffffffffffffffffffffff1681565b6000806000613a5b7f4179612f41b2e0f1792b808bb56cd1a61ed9398280cfc11594c5a01975ad10a7600102619364565b613a877fdd77b92d8f954dc4714524bcdb650aa0f49ddd843915e5136298a184394cca90600102619364565b613ab37fc81325cf3e9339705fbd1b178477e059c9c0d6cdf4d51165d9a24241f48c4493600102619364565b613adf7f6ff1cb4d0258a0f0d8c0410e91b754dfb795f1d9e7522261ab2dd04f0cafe3c4600102619364565b600085111515613aee57600080fd5b613b1a7f529cc57518cc5d71783bc08119cbc19bc132d92b5ebd454dcd83b52c656dc70c600102619364565b613b467ff1b5429c6afcfc1208ad5c2f1827ad2b9c0ef067369e9ba773dfb4e1df4e7830600102619364565b613b727f528720b1c580ecf4e5d54c69cac7fc3ef447100f309351f859585614509d86b1600102619364565b613b9e7f69a271ec661cd2f67b85d9cdf4d6fe081eef0536a5e5b4166d911f62a5ee87fd600102619364565b600084111515613bad57600080fd5b613bd97f3abf3715348b8af36a6c455cc3a0d4169afb9ebfbfad4691b891ed74c419a299600102619364565b613c057f7a5c0440daa8240d04dd2433b0a21957cedc931c9ae04a5c096b130fec1ecd2e600102619364565b613c317ff911531129571f1f39867ab5cc4d602f683f08c3b79eac47820850adbd1c5b50600102619364565b600685815481101515613c4057fe5b90600052602060002090600202019150613c7c7f1cd68f036a116198be71a81e10106609db37eb2730b990c5d41cc68d8dea72cd600102619364565b613ca87fa36d0b236fe7fe2583bf6abf884308a2ae664c9d012228337519e4c4ce20c18c600102619364565b600684815481101515613cb757fe5b90600052602060002090600202019050613cf37f3091342cf5bab203d368d1c1e6ce88fb4beffa512d7a19e9be98d4a111eef309600102619364565b613d1f7f4515048e2d415a46add845832efe4d0d65b8158da102522f6e10d3770c0ce289600102619364565b613d2b82868387619dd9565b8015613d3d5750613d3c848661a6a2565b5b9250505092915050565b613d737fcb2648b67b0de279cb753577ec77c6b2ea08d23aa34ef2f48c5aab3c2f7b331360010261918e565b613d9f7f6f460441e04e9f2fab210055dfdc65babe4e31ac3fe89dcb41c84c7fb037599160010261918e565b613dcb7f3dde09caefb3a1f40ad03cded37744ff16ee712b622d5384bd28cad309760ae760010261918e565b613df77f7808d25d5414a096b7d4484dd157a0f0c9b5f6c11dae49f7d70fd4cb3bbde23260010261918e565b600260149054906101000a900460ff16151515613e1357600080fd5b613e3f7f8b5d68b72118d3191a023266c39777d9f072660abc89f2761d9e6c792bd310c360010261918e565b613e6a7ead53c480053279c157a04c0652ee4064d1c599d726b53bdfe5e51538b4069160010261918e565b613e967f167c4a9dca918172174d4d67efbf045e94c2d9af9c92bf466de1d77bc452c69260010261935e565b613ec27f0f7a908899067bc3cc77071af5b0384e33cb38a51297a1f4936d1b32b18abd1160010261935e565b613eee7fd7c6b1a625e40db070d738741e1a3e3c08fd78a5800917a6cbaf4e90f06ad2bd60010261935e565b613f1a7f83f415dfe8b8a9c8cbc86562c3740a9d7fda84c8530a89fc07ca0c6368bf356160010261935e565b613f243385619194565b1515613f2f57600080fd5b613f5b7f5465c14ac38a73d50a98f3fb94733767bafd7fa202f06eb8a83edfcc79a3ded660010261935e565b613f877f013bda65055cb8ff65092d0cf532c46c92fdb222b47a069fee54f68190b7abdf60010261935e565b613fb37f1f5c52aa2348fce26b8626af89bd859aad8ecc5ed4db35c9bcb337ab584a57c360010261935e565b613fdf7f0de8329cea9a45191a6c63da89c5f327b8b11b9b79eae62cebed57c00d8f98c760010261935e565b613fe884617b7f565b1515613ff357600080fd5b61401f7fb118c39580b10dd5cb5b850c85c863660c51baa8474d08045471ebc26a8dd45c60010261935e565b61404b7fe052168970cede1d37c806626f93c16e2fbb2d0fea5191333c970f208fc813bb60010261935e565b6140777fde90a9b6bbe1f94fcade1d1ef7d5536dfbf5fc0982de3e7b8f632b744090bd2d60010261935e565b6140a384600c60009054906101000a900473ffffffffffffffffffffffffffffffffffffffff16619284565b6140cf7f7943c56678f0a54699c5c5c7d1fe7cb9bc9dacac645896d89cda9f41f0cff74760010261935e565b6140fb7f213f7d5933e338828981c66df0f81715b2deb49075b8de9558c65a779241e69e60010261935e565b600c60009054906101000a900473ffffffffffffffffffffffffffffffffffffffff1673ffffffffffffffffffffffffffffffffffffffff166327ebe40a85858585336040518663ffffffff167c0100000000000000000000000000000000000000000000000000000000028152600401808681526020018581526020018481526020018381526020018273ffffffffffffffffffffffffffffffffffffffff1673ffffffffffffffffffffffffffffffffffffffff16815260200195505050505050600060405180830381600087803b1580156141d857600080fd5b505af11580156141ec573d6000803e3d6000fd5b5050505050505050565b6142227f4b3f31363c06554026c3495535211789942e41625a57b086267e5064f5934af660010261918e565b61424e7f01fb50a86f8e94902dc9382992dbfa33e19a7eaa3e581679951cbdf2dd876a0a60010261918e565b61427a7f5090bdc7b81fb4fb806ffb8a324e9482ba5cf27db77d6fd8a28579d8a407f1e260010261918e565b6142a67f5a2a24182e30eaa462e023aeb84148b625327a032588bd13d612098c0762752960010261918e565b600260009054906101000a900473ffffffffffffffffffffffffffffffffffffffff1673ffffffffffffffffffffffffffffffffffffffff163373ffffffffffffffffffffffffffffffffffffffff1614151561430257600080fd5b61432e7f68e3652403790d00667b2e33f3cafbd6f6fa0dcc355662d23e6436c566afbc2b60010261918e565b61435a7f23b3e2c03a5d93b1565e0b8a6688e0afc1cb86813470da360be15ebc6130290360010261918e565b6143867f6cabde9270e087ba31cdb87267d21ffee9258da846232803912085ae672cea36600102619364565b6143b27f9309b5242db96fe906ffb234eea5071d6a918c252d2742e9d426452d22e3c9fd600102619364565b6143de7f8162e5d9b17df93fd48ab85847e0ad2e1940bb63a74cbf6ce4b13fd03ab0ae75600102619364565b80600f8190555050565b6144147fcb2648b67b0de279cb753577ec77c6b2ea08d23aa34ef2f48c5aab3c2f7b331360010261918e565b6144407f6f460441e04e9f2fab210055dfdc65babe4e31ac3fe89dcb41c84c7fb037599160010261918e565b61446c7f3dde09caefb3a1f40ad03cded37744ff16ee712b622d5384bd28cad309760ae760010261918e565b6144987f7808d25d5414a096b7d4484dd157a0f0c9b5f6c11dae49f7d70fd4cb3bbde23260010261918e565b600260149054906101000a900460ff161515156144b457600080fd5b6144e07f8b5d68b72118d3191a023266c39777d9f072660abc89f2761d9e6c792bd310c360010261918e565b61450b7ead53c480053279c157a04c0652ee4064d1c599d726b53bdfe5e51538b4069160010261918e565b6145377fad28e7924a665847b1d2fde4e4affe352c10b91b810321151508b77b48d5b90c600102619364565b6145637fc100db029034fc63b6d18bc837eef1a70983c4c95b8542ebaf8eae92265dfbf6600102619364565b61458f7faec6a708e6f442d6fdbf7cbed4e5cc60cf04feac290863c89c125f46c3cad80c600102619364565b6145bb7f2db59204b6f9592f003883010f2c3c71fdb586eab3187b72344e974e69e2c069600102619364565b6145c53382619194565b15156145d057600080fd5b6145fc7fb598de23cca3bb111165082fc2b97db1bc0a3642ca6474cf78817234a21319a1600102619364565b6146287f9140ea333c27a5190cb5dbfd238da4d450e482da96bf0451f5f8251771d62613600102619364565b6146547fbd6eb5d5dd21aadf9e993a43a9f98191935b4f386d18ce17801e57698471c0e8600102619364565b81600a600083815260200190815260200160002060006101000a81548173ffffffffffffffffffffffffffffffffffffffff021916908373ffffffffffffffffffffffffffffffffffffffff1602179055505050565b6146d67fcb049ed2f483be6c0944c2c03cebba45371d8e0ef11e4518263bd2fbbda7f59360010261918e565b6147027f5dbffe83b36d40e7d651f2d3531e4a4824b9dc6ccb6586f84d10976bd60ae08d60010261918e565b61472e7f31f8d3048db660f92f7d2b610b6a9c7cae1f6a13dda0027f8885b1f585ba628360010261918e565b61475a7fa2a47da5016dac4687136caeff8e35d8d21ddaedc8808cd08f29ccfc21bfac7360010261918e565b6000809054906101000a900473ffffffffffffffffffffffffffffffffffffffff1673ffffffffffffffffffffffffffffffffffffffff163373ffffffffffffffffffffffffffffffffffffffff161415156147b557600080fd5b6147e17f75897d7cfe76dbf024f81b5ad6072a4019a8f8439308212c47ad1e9256df43c060010261918e565b61480d7f3ffe5ec58b9e7787ceecb0adf9d00ef109fb30448b7229696966b751a6dac16160010261918e565b6148397ff1e72032e90a3e1a47208c42f7f34042a7e90b2f31193334e4b128d037b651c060010261918e565b6148657f78a7fa1c042e72da4ad8de55a20c66f852a96a40de26d4522e89bdf6e77d418660010261918e565b6148917f84296041346391b56842bae36df9b671b45eb524eaab184565542d7b914377a960010261918e565b6148bd7f60e69f9a5dd02a5938cafb1e9882e0b3408f195223129d88d76bf05cf0c9484f60010261918e565b600073ffffffffffffffffffffffffffffffffffffffff168173ffffffffffffffffffffffffffffffffffffffff16141515156148f957600080fd5b6149257feba6f866472b379aff7ab6f5ee6c37dde5f2de5f1389ef90ad259b8a37d3e30c60010261918e565b6149517ff08abe3269ba40116cd3b8d372e08d57d1ff0622934b37fd86afaf2895d00d0f60010261918e565b61497d7f768722a54a3015d9d677146738ff817be4474287bb29c98cba6b2250674b944960010261918e565b80600160006101000a81548173ffffffffffffffffffffffffffffffffffffffff021916908373ffffffffffffffffffffffffffffffffffffffff16021790555050565b60105481565b6149f37fb69f109befabd82f0425a91e79f5bd4e799a7cec12ca055bf58bdf7fe88ad79360010261918e565b614a1f7f4843d20f00be7ad37e3c9c8682a846faa4ca3c0ea1f9dc4c391997309853de2460010261918e565b614a4b7f20fc88088867130d183d94e5a9048dba311ceb5f1b9a4f5535adf564d8374b6d60010261918e565b614a777fbd896113fdf13ab83be8d5359d5f98252bcf796eea8f5545bf18b2e15a72912760010261918e565b600260009054906101000a900473ffffffffffffffffffffffffffffffffffffffff1673ffffffffffffffffffffffffffffffffffffffff163373ffffffffffffffffffffffffffffffffffffffff161480614b1f57506000809054906101000a900473ffffffffffffffffffffffffffffffffffffffff1673ffffffffffffffffffffffffffffffffffffffff163373ffffffffffffffffffffffffffffffffffffffff16145b80614b775750600160009054906101000a900473ffffffffffffffffffffffffffffffffffffffff1673ffffffffffffffffffffffffffffffffffffffff163373ffffffffffffffffffffffffffffffffffffffff16145b1515614b8257600080fd5b614bae7f60622880a82287035558e7b8916b20a1e316cee24d7ae16889a055eab3d5531660010261918e565b614bda7fd0b955e469a12ebbfb62ad1da478a6acecacfd1ebcf54bf0dad13514548cd97960010261918e565b614c067f88c7b7750111464c97655b2d1d9753b38c6f77aef0856ee80507f7099872697d60010261a8e9565b614c327febeefd441312018ec6deb6b0edaa454d5161fd9efa6ef40328812fadec8d0da360010261a8e9565b614c5e7f701900518f35ca476c958b90a5f2bede67febfc77eab1b093f6494b32b99cdf060010261a8e9565b614c8a7f5382d0930765c0f082dd7aa6eb2b76fcd9f11b30924e1a951fd617237a8b304c60010261a8e9565b60036000600e81101515614c9a57fe5b600891828204019190066004029054906101000a900463ffffffff1663ffffffff1681101515614cc957600080fd5b614cf57f1a848bfce7342e2d2242b8a58161fe912c6dbbca8a7ce0047cb4eeee320ffb2860010261a8e9565b614d217f4060d5ff5377de6c4483c6917cbed376e4288dc779d82b477cd35ea98d2e268960010261a8e9565b614d4d7f31535343482e20ce8423fef900115f5c7475e7adb6f6c1d4f3efba6af014bbc860010261a8e9565b8060058190555050565b600260149054906101000a900460ff1681565b600b60009054906101000a900463ffffffff1681565b6000614dae7f65f3e3971086e7113aafac0fe25d7b331cb31e081db98f3fdc3dab253dbbeb18600102619191565b614dda7f6d8593dae41f920f4e43eeb5bdb0ea4efaa08d36b7e3564ef0822d49b18caf08600102619191565b614e067f64721f51e1b2c3351da86d3509c4d78cfd6a6b384b6405fd5af920fada20c2e4600102619191565b6007600083815260200190815260200160002060009054906101000a900473ffffffffffffffffffffffffffffffffffffffff169050614e687f1aa33614ceb35d808f0e53d1f84c91e70a8e553d785151d1025e47a2240b402a600102619191565b614e947f10260275a33d6a3604b595864cc279d9fe371bfb6d8ff927477d8da7f1344bef600102619191565b614ec07f0e1f3e0b20d56ac5c4b367c90a9d102c41abde6902d7da7a0d993c5387bd5d4b600102619191565b600073ffffffffffffffffffffffffffffffffffffffff168173ffffffffffffffffffffffffffffffffffffffff1614151515614efc57600080fd5b614f287f1d8b0b6c3fd0db8847926baf6a65398d7c1cedb7305b0e9b79182ffdae9d0a49600102619191565b919050565b6000614f5b7fcb049ed2f483be6c0944c2c03cebba45371d8e0ef11e4518263bd2fbbda7f59360010261918e565b614f877f5dbffe83b36d40e7d651f2d3531e4a4824b9dc6ccb6586f84d10976bd60ae08d60010261918e565b614fb37f31f8d3048db660f92f7d2b610b6a9c7cae1f6a13dda0027f8885b1f585ba628360010261918e565b614fdf7fa2a47da5016dac4687136caeff8e35d8d21ddaedc8808cd08f29ccfc21bfac7360010261918e565b6000809054906101000a900473ffffffffffffffffffffffffffffffffffffffff1673ffffffffffffffffffffffffffffffffffffffff163373ffffffffffffffffffffffffffffffffffffffff1614151561503a57600080fd5b6150667f75897d7cfe76dbf024f81b5ad6072a4019a8f8439308212c47ad1e9256df43c060010261918e565b6150927f3ffe5ec58b9e7787ceecb0adf9d00ef109fb30448b7229696966b751a6dac16160010261918e565b6150be7f453cfd4397a1bcd64a09704dc64bff39070dfe8564bc10afde744f0a02bbb87760010261935e565b6150ea7fdcccc2fea408c2c07389d59068f90ce002d6987367789e38dbd53fd4b139432660010261935e565b6151167f6f6df50aceab86ace9ac41ef128b1f606abee387aa0ea4c73348fe144e606bfc60010261935e565b8190506151457f7744193221fae2537216a1e571bf761db4307ed4d8f3bc5bc40d3e971c2470b660010261935e565b6151717f2833e2a295b726b60b361e7f38b5b32c2bb82763f6508c8f874dadd94b6f42ac60010261935e565b61519d7fcc5740ee4df1b4a503ff4e009745de8f7b19fe255f90999464437276660af7b760010261935e565b8073ffffffffffffffffffffffffffffffffffffffff166385b861886040518163ffffffff167c0100000000000000000000000000000000000000000000000000000000028152600401602060405180830381600087803b15801561520157600080fd5b505af1158015615215573d6000803e3d6000fd5b505050506040513d602081101561522b57600080fd5b8101908080519060200190929190505050151561524757600080fd5b6152737f4e9d08666a50967aa261b260bd342f9755759fe9c21a440ff39fc595fa5ff60e60010261935e565b61529f7f3108178d8240c244a1f7632d0f802818f4fe6f73d87c3ada50801abec6275ad960010261935e565b6152cb7f8490b57e374459c8d931c0f390f87a58664b80f54283b9855236967b824ff4f660010261935e565b80600b60046101000a81548173ffffffffffffffffffffffffffffffffffffffff021916908373ffffffffffffffffffffffffffffffffffffffff1602179055505050565b600061533e7ffba4c8b234081f1dac643609a6c690fb7c2e0cd39e54e800fab602b4a7bea01a600102619191565b61536a7fc203d14bcaf4e0b570df4f0a21cea54fe09f230ce67f5f4ab62ef3e117a9802e600102619191565b6153967f70d90460a734cafa119b6859230d44d2cdb7d865ab9b38734cb14a5b6f4dc6c5600102619191565b600860008373ffffffffffffffffffffffffffffffffffffffff1673ffffffffffffffffffffffffffffffffffffffff168152602001908152602001600020549050919050565b60055481565b61540f7fb69f109befabd82f0425a91e79f5bd4e799a7cec12ca055bf58bdf7fe88ad79360010261918e565b61543b7f4843d20f00be7ad37e3c9c8682a846faa4ca3c0ea1f9dc4c391997309853de2460010261918e565b6154677f20fc88088867130d183d94e5a9048dba311ceb5f1b9a4f5535adf564d8374b6d60010261918e565b6154937fbd896113fdf13ab83be8d5359d5f98252bcf796eea8f5545bf18b2e15a72912760010261918e565b600260009054906101000a900473ffffffffffffffffffffffffffffffffffffffff1673ffffffffffffffffffffffffffffffffffffffff163373ffffffffffffffffffffffffffffffffffffffff16148061553b57506000809054906101000a900473ffffffffffffffffffffffffffffffffffffffff1673ffffffffffffffffffffffffffffffffffffffff163373ffffffffffffffffffffffffffffffffffffffff16145b806155935750600160009054906101000a900473ffffffffffffffffffffffffffffffffffffffff1673ffffffffffffffffffffffffffffffffffffffff163373ffffffffffffffffffffffffffffffffffffffff16145b151561559e57600080fd5b6155ca7f60622880a82287035558e7b8916b20a1e316cee24d7ae16889a055eab3d5531660010261918e565b6155f67fd0b955e469a12ebbfb62ad1da478a6acecacfd1ebcf54bf0dad13514548cd97960010261918e565b6156227fcb2648b67b0de279cb753577ec77c6b2ea08d23aa34ef2f48c5aab3c2f7b331360010261918e565b61564e7f6f460441e04e9f2fab210055dfdc65babe4e31ac3fe89dcb41c84c7fb037599160010261918e565b61567a7f3dde09caefb3a1f40ad03cded37744ff16ee712b622d5384bd28cad309760ae760010261918e565b6156a67f7808d25d5414a096b7d4484dd157a0f0c9b5f6c11dae49f7d70fd4cb3bbde23260010261918e565b600260149054906101000a900460ff161515156156c257600080fd5b6156ee7f8b5d68b72118d3191a023266c39777d9f072660abc89f2761d9e6c792bd310c360010261918e565b6157197ead53c480053279c157a04c0652ee4064d1c599d726b53bdfe5e51538b4069160010261918e565b6157457fa07ca5d175b133ae832f77419d6f3b779170753f00463e0943a8af7cc681008860010261918e565b6157717fc42a084f1bec46c22a34c451ca67a9000bb683163b10d858e18d49d6ce637f7360010261918e565b61579d7f0daab85665d9b4c8a0072fc446e1de6088d904d0dff31d5507110d249b2b78ec60010261918e565b6001600260146101000a81548160ff021916908315150217905550565b60606000606060008060006157f17f85403ca33e6ae1084125eea223e7714972c95c56d4bac8c9b783ed90a5823bab600102619191565b61581d7f995ad2f52e080a189e341d7f61a048021b2251ae7c55924ecb8862384ac6bcf4600102619191565b6158497f5ce17e7e421b1b1f9dc34dc9122228c7d2f46e07e3923454f87061ddae82935a600102619191565b61585287615310565b94506158807f4213deeeac2a27dc3a18f4704ab5cba0731cd62d3ed69e19db31bbef30533aea600102619191565b6158ac7fd8c0918d861d1061d371ac732c64742928072cd724247dafc9fa45571394d957600102619191565b6000851415615971576158e17fdcd440357ee92730a486a5aa4c98c4a4e06306f5a88030715cfbb68fb9ee2b89600102619191565b61590d7f7f9374adc619e0d3aec5b0807093becb689f1066056e62396ff056c6b81d3979600102619191565b6159397fc245da1c6040c31ef04938f540900d13140b53f87cc92d2b8e8bb87c07bc4b96600102619191565b60006040519080825280602002602001820160405280156159695781602001602082028038833980820191505090505b509550615dd3565b61599d7f89b7d1e509fcbfd9c032edf18b2aa75fe6dd2cbc86d3fc16271c602d7fea5f94600102619191565b6159c97ff1a1e47922e989a32a7b0e1905deafdc98a97b394bba5fe3323e1e37713dbafb600102619191565b6159f57f4b32ca9643e948e38283767dfc16a66e1fa4a7d52db244c3509fd08daa9be32d600102619191565b84604051908082528060200260200182016040528015615a245781602001602082028038833980820191505090505b509350615a537fae156cb462fbd12d2b4648237beab9d7fa57982aa2f204dcedb96072a3ad432c600102619191565b615a7f7f06186de1dab891c12214084e4f57e199cc7c3230a26cbea0d40086c259045cec600102619191565b6001600680549050039250615ab67f55b21a1324d0155a233f6eb28501ca103f1c34a4dfaf8d7cccca6dd934cad81a600102619191565b615ae27f3d668d82d4b06a0287652d6b06f98bbb6bbdbf5350eec5c4b99f47a686edb189600102619191565b60009150615b127ff80e87458dcc23a56ad58db43252b69b8f915a1cabf16b0bd7758b5e3a342450600102619191565b615b3e7f5f41767b691952995b64698feff988fe1244a65b39c33ca8a84e62d2db453cfb600102619191565b615b6a7fb5fb03ce95f314fbf5a90641c49aa33d302f3407e975d590cbbe4c1bccbce26d600102619191565b615b967fc3152ec1bf5cb32910a65195c40ea056dd970468b9927819592fa4eccb3d6dd7600102619191565b600090505b8281111515615d7757615bd07f06d82fbd005cdc9e712420380a8946347e5b0b026fb8a7f0875e37998d479ae2600102619191565b615bfc7f8fd97192a01a7d5eb812b4b3968b5926f4e5222cd08bd4053a94706b0e5da060600102619191565b8673ffffffffffffffffffffffffffffffffffffffff166007600083815260200190815260200160002060009054906101000a900473ffffffffffffffffffffffffffffffffffffffff1673ffffffffffffffffffffffffffffffffffffffff161415615d3d57615c8f7fd9c35dd820dcfe2a39fe9232675e2635c512d183a44875a4cb573dda78924836600102619191565b615cbb7f6d25656f80db914f40168aad8764e7e6256839231356332e50e338bba43c9b77600102619191565b615ce77fc45eeef7391c294f4c6187bc54526d144b1205709985c643b43b3c091361b80a600102619191565b808483815181101515615cf657fe5b9060200190602002018181525050615d307f0b81d12d1f89d58e00bf2f6685e5de09c3c10fd872185337f3bdbe1fd760c30e600102619191565b8180600101925050615d6a565b615d697fe66a41e9306ed9c735d6d7508f6e1fd1b1c7aa459a0ce1425d2d3498dd1ab5d4600102619191565b5b8080600101915050615b9b565b615da37f513f7c5030f70a1c6ba15a7bd6bbe607dd8435962af3328797f6112e05716746600102619191565b615dcf7fe9a6b14beba3e36146c653cfcac64063e23f711016ed3a38a03b64aa723d4833600102619191565b8395505b5050505050919050565b600080600080600080600080615e157fcb2648b67b0de279cb753577ec77c6b2ea08d23aa34ef2f48c5aab3c2f7b331360010261918e565b615e417f6f460441e04e9f2fab210055dfdc65babe4e31ac3fe89dcb41c84c7fb037599160010261918e565b615e6d7f3dde09caefb3a1f40ad03cded37744ff16ee712b622d5384bd28cad309760ae760010261918e565b615e997f7808d25d5414a096b7d4484dd157a0f0c9b5f6c11dae49f7d70fd4cb3bbde23260010261918e565b600260149054906101000a900460ff16151515615eb557600080fd5b615ee17f8b5d68b72118d3191a023266c39777d9f072660abc89f2761d9e6c792bd310c360010261918e565b615f0c7ead53c480053279c157a04c0652ee4064d1c599d726b53bdfe5e51538b4069160010261918e565b615f387fea9e3a7ec49099d83788c3bb13da6dbea9a4e8d866aca2b0f29c718085d62efd600102619364565b615f647f0cf6e682769bf3e465f64fe4cb94ebbe057583049490b8ecfa579ad9563ecf5f600102619364565b615f907faf4c822e1d535c7dba0ddc75abc0ad99c9ac583e532316b9b5553d148660476b600102619364565b600689815481101515615f9f57fe5b90600052602060002090600202019650615fdb7f89dcfce4e1552a57acbc4256787fbbf784b55062d0ac10446a166996fe22c5fd600102619364565b6160077f0fa1749dc05f769e57ab9bfb2a414d9dfe2e0111c78e3e18c6beef53184ff679600102619364565b6160337f909043c95a09faef1af355cd7880e9cafe0dd2a2d83be44b58fc62bd8404c7c7600102619364565b60008760010160009054906101000a900467ffffffffffffffff1667ffffffffffffffff161415151561606557600080fd5b6160917f982d65282ac6816dff3e789821857cde920a327d488f98744df2cb3595abfdaf600102619364565b6160bd7fca412ad918726b699deee2b4198efa237b67aa220c9e82ab51d972397e82a272600102619364565b6160e97f9183d605abefdea42e64a84316879f4bae7dbcf186a50f531c8fcd1f6624895d600102619364565b6161157fbc1ae63a2b231f755f8a97ede81550a9d2b2944807f28fb96e913b05fb738599600102619364565b61624b876101006040519081016040529081600082015481526020016001820160009054906101000a900467ffffffffffffffff1667ffffffffffffffff1667ffffffffffffffff1681526020016001820160089054906101000a900467ffffffffffffffff1667ffffffffffffffff1667ffffffffffffffff1681526020016001820160109054906101000a900463ffffffff1663ffffffff1663ffffffff1681526020016001820160149054906101000a900463ffffffff1663ffffffff1663ffffffff1681526020016001820160189054906101000a900463ffffffff1663ffffffff1663ffffffff16815260200160018201601c9054906101000a900461ffff1661ffff1661ffff16815260200160018201601e9054906101000a900461ffff1661ffff1661ffff168152505061a8ec565b151561625657600080fd5b6162827ffb4ac45f7c0d3fada199ce3727453419e019ed373019ed4386302f1d4c81eb32600102619364565b6162ae7f650d3f224fff25c8167ffad76671b17560d109d62bdc37108cceab370f808175600102619364565b6162da7f9bd1a7b990e8218bf0c605877072f942d2d880eb06bb7fd9d9a6f50ac315770c600102619364565b8660010160189054906101000a900463ffffffff1663ffffffff1695506163237ff6e0f31d945f2b2374c790df87c6176b53988498c86a73a4a40579f14be3a8c5600102619364565b61634f7f7b40f11b8ce027069a34f3edb051c7d4c93935c0d91382a468d269226817b16b600102619364565b60068681548110151561635e57fe5b9060005260206000209060020201945061639a7f0176e67b7172b9a03f7c4ed3c266aa3a06d950910ca0188781a9ae688ba50146600102619364565b6163c67f3bf9579eeafb6900aadbd0298e2cc351c05908b27cf3c52ad3e6b50131a815ce600102619364565b86600101601e9054906101000a900461ffff1693506164077f1b32e25d59cc8e909749da2a177a62312c825b492495d66bfd194db3eed06244600102619364565b6164337fdeb9743d1a016e809caa6f249c15996a8292e1ef08700f6de166e5b91648dad5600102619364565b86600101601e9054906101000a900461ffff1661ffff1685600101601e9054906101000a900461ffff1661ffff161115616505576164937fa3ff7e177ebb7845590852d70bce210406b027facd078c20642979e7f5ac312c600102619364565b6164bf7f61814a2127e7b3f353ca165a6aaef3e6e479c9d5c48cc662cd22d61da5521409600102619364565b6164eb7fc44940c0bff142da5c3937528047b7a3f4c0e1c23641458cd00067423edc3067600102619364565b84600101601e9054906101000a900461ffff169350616532565b6165317f1af77dd4fb60ea67be156e22f5787383f4a0d7b579d758400b5a7f2b14ce5388600102619364565b5b61655e7fb338ee5106efad800092c5a905ca48282700869244ef773ccf0f267328c0376f600102619364565b61658a7fe5b732ca94b6aec69fbc5b7869c8c09f50445df3ed80312830728f6f083de148600102619364565b601160009054906101000a900473ffffffffffffffffffffffffffffffffffffffff1673ffffffffffffffffffffffffffffffffffffffff16630d9f5aed8860000154876000015460018b60010160089054906101000a900467ffffffffffffffff16036040518463ffffffff167c0100000000000000000000000000000000000000000000000000000000028152600401808481526020018381526020018267ffffffffffffffff1681526020019350505050602060405180830381600087803b15801561665857600080fd5b505af115801561666c573d6000803e3d6000fd5b505050506040513d602081101561668257600080fd5b810190808051906020019092919050505092506166c17f78596b267df668052330e530fb5911838c6477a6c63e0450a11fe23025e30730600102619364565b6166ed7f39c72387352a8ad2946cbe6ba3059ae96bedd2c0f5bbf94cb33f2b6756d55424600102619364565b600760008a815260200190815260200160002060009054906101000a900473ffffffffffffffffffffffffffffffffffffffff16915061674f7f0a55d10b21c64ba1a66acc0e9e635a67e8aaf2e963aaa7c117d6298138fb6261600102619364565b61677b7f544ec09279dd1c1994ec8de4979dd6ffbfe90b45300d71399f5885615583990f600102619364565b6167a9898860010160189054906101000a900463ffffffff1663ffffffff166001870161ffff16868661a9ac565b90506167d77fa733f0928c8804eb8c03e2b3fe5384bbe5251ad76d73180771e880b8a242b05f600102619364565b8660010160186101000a81549063ffffffff021916905561681a7f30a9967d8fd7da19a81e62edfc1870b15756ac237ccfaaf2cc28035aec0bee8f600102619364565b601060008154809291906001900391905055506168597faf0ceb641320225a5b3a4a46ee9550d44c94cff021c39152996bd524869c23e3600102619364565b6168857f9de7eaa159cf71e9c4be13d8069868fe88b22b1dde725575c85e8cf9ef13848e600102619364565b3373ffffffffffffffffffffffffffffffffffffffff166108fc600f549081150290604051600060405180830381858888f19350505050506168e97f88028807a863f5d5735f64d31703eaf848adea15343d2d3e1234853739981fb9600102619364565b6169157fe280a15d3a4f5a3ca347382cc8ef5b13f5372d78f1a54c18b0d6b86e3ca52946600102619364565b80975050505050505050919050565b60006169527f34ba93981658c3daa5f666bbb9fe4c2050f8795f520af64c257be31ef93f4a7e600102619361565b61697e7f6e13615425708a7761bd047818bc837ac9fb4bd1e59bf3fa4452e4cbd770a560600102619361565b6169aa7f1dc2ce0d010e73d168ffe98a84a9bc524a16f273016615775624f5da12869a7e600102619361565b6169d67f7988d104597cafdb112f343393a63efde85108a1f51c7a8effe784254afa55de600102619361565b60011515600d60003373ffffffffffffffffffffffffffffffffffffffff1673ffffffffffffffffffffffffffffffffffffffff16815260200190815260200160002060009054906101000a900460ff161515141515616a3557600080fd5b616a617f74c308184e27580c17a1d0b6ff599bb36cc06cea53ef2b0b67c3f3d831015915600102619361565b616a8d7ff94d3c11b156185524dc880705acc4e207d4e6c8ac4a3c0d0c44c9bda5848526600102619361565b616ab97ff50e21c65a09e47887f3e66fc375b960d6cdee977357cd8f05b332b86389e0de600102619361565b616ae57f06fe3d109c5f8f7118a26976524468fc10948d9e12c159cbab4bdf5c54114168600102619361565b616b117ff2819c7e9c887c84687b31a37f976a82fefcc299c4d27256e4e80e14d00b383f600102619361565b600e600083815260200190815260200160002060009054906101000a900461ffff169050919050565b616b667fb69f109befabd82f0425a91e79f5bd4e799a7cec12ca055bf58bdf7fe88ad79360010261918e565b616b927f4843d20f00be7ad37e3c9c8682a846faa4ca3c0ea1f9dc4c391997309853de2460010261918e565b616bbe7f20fc88088867130d183d94e5a9048dba311ceb5f1b9a4f5535adf564d8374b6d60010261918e565b616bea7fbd896113fdf13ab83be8d5359d5f98252bcf796eea8f5545bf18b2e15a72912760010261918e565b600260009054906101000a900473ffffffffffffffffffffffffffffffffffffffff1673ffffffffffffffffffffffffffffffffffffffff163373ffffffffffffffffffffffffffffffffffffffff161480616c9257506000809054906101000a900473ffffffffffffffffffffffffffffffffffffffff1673ffffffffffffffffffffffffffffffffffffffff163373ffffffffffffffffffffffffffffffffffffffff16145b80616cea5750600160009054906101000a900473ffffffffffffffffffffffffffffffffffffffff1673ffffffffffffffffffffffffffffffffffffffff163373ffffffffffffffffffffffffffffffffffffffff16145b1515616cf557600080fd5b616d217f60622880a82287035558e7b8916b20a1e316cee24d7ae16889a055eab3d5531660010261918e565b616d4d7fd0b955e469a12ebbfb62ad1da478a6acecacfd1ebcf54bf0dad13514548cd97960010261918e565b616d797f261bd01936aaabd10d4ad44dcd4f1b3cc5dd0cc3f1ca94191799d58faf22c0ea60010261935e565b616da57f21ff1c89aabee88edd3509034a5cb6f0ac40c48df77f8097a70896b0bf286ecd60010261935e565b616dd17f01a049f1e09e465443d0d7f0a18a9cbcb5022e967302730e928fb1bbaffa4dde60010261935e565b600b60049054906101000a900473ffffffffffffffffffffffffffffffffffffffff1673ffffffffffffffffffffffffffffffffffffffff16635fd8c7106040518163ffffffff167c0100000000000000000000000000000000000000000000000000000000028152600401600060405180830381600087803b158015616e5757600080fd5b505af1158015616e6b573d6000803e3d6000fd5b50505050616e9b7f17a72e219d8d99aa347f037f24a8fa010ec4735434e635dd0df696046b25ebf560010261935e565b616ec77fe56e02945219776b23384c8f6785bab4b4e059405aabfad962077eaf3952d2ee60010261935e565b600c60009054906101000a900473ffffffffffffffffffffffffffffffffffffffff1673ffffffffffffffffffffffffffffffffffffffff16635fd8c7106040518163ffffffff167c0100000000000000000000000000000000000000000000000000000000028152600401600060405180830381600087803b158015616f4d57600080fd5b505af1158015616f61573d6000803e3d6000fd5b50505050565b6040805190810160405280600381526020017f434254000000000000000000000000000000000000000000000000000000000081525081565b600381600e81101515616faf57fe5b60089182820401919006600402915054906101000a900463ffffffff1681565b60096020528060005260406000206000915054906101000a900473ffffffffffffffffffffffffffffffffffffffff1681565b61702e7fcb2648b67b0de279cb753577ec77c6b2ea08d23aa34ef2f48c5aab3c2f7b331360010261918e565b61705a7f6f460441e04e9f2fab210055dfdc65babe4e31ac3fe89dcb41c84c7fb037599160010261918e565b6170867f3dde09caefb3a1f40ad03cded37744ff16ee712b622d5384bd28cad309760ae760010261918e565b6170b27f7808d25d5414a096b7d4484dd157a0f0c9b5f6c11dae49f7d70fd4cb3bbde23260010261918e565b600260149054906101000a900460ff161515156170ce57600080fd5b6170fa7f8b5d68b72118d3191a023266c39777d9f072660abc89f2761d9e6c792bd310c360010261918e565b6171257ead53c480053279c157a04c0652ee4064d1c599d726b53bdfe5e51538b4069160010261918e565b6171517fe0ecb0f864571a52b4bfa4f15de4c8c89a96e9a45ec9173265726fc21312d2c5600102619191565b61717d7ff1613e5f59292d1591ccbf842ef2773831dd1527e2499a0aed38b1b9e8dd933d600102619191565b6171a97fd646c7d8fced1c4fac1e5aef3b56415c585d036943ececb9665d6c6aefd4633f600102619191565b6171d57f17e4788fa77d4ad90be92b97619960271cc10dad4d6b3f2fceb243fd13955884600102619191565b600073ffffffffffffffffffffffffffffffffffffffff168273ffffffffffffffffffffffffffffffffffffffff161415151561721157600080fd5b61723d7faec032eddc8f10ea1fdfb305125ee98ba6c06ab1c36056e6abf9680163df3649600102619191565b6172697f42c3d5660da8680635c4dad6fbf08d3caa6df9b2ee62826a1a53bcd5ac0c3d66600102619191565b6172957ff617c651e9159cc4b7c4ed93b8784da3dec165d2552e70134f5c768daab0fbdb600102619191565b6172c17fe6db742eeb07738ad50d9d45566b09ca1c898b6c03b8c0a081dca8561370a01b600102619191565b3073ffffffffffffffffffffffffffffffffffffffff168273ffffffffffffffffffffffffffffffffffffffff16141515156172fc57600080fd5b6173287fa232811a342ce77a8ca225ac21837f76147e7743cac48a68b065b0fea27532e8600102619191565b6173547fa5182b16f8be05730260ae4bf0c89d7dd1beeb4b0e892042d7adf5065bb00335600102619191565b6173807f6dc57232c2bc288e9aea3b508bca7aaeecf80e34bd18cabb22e55c8c65bad47c600102619191565b6173ac7f979f118d5524a4a2e79d15ac12e5fe069689fe56e9c2b0b9fcff6c20e9007e76600102619191565b600b60049054906101000a900473ffffffffffffffffffffffffffffffffffffffff1673ffffffffffffffffffffffffffffffffffffffff168273ffffffffffffffffffffffffffffffffffffffff161415151561740957600080fd5b6174357f77486c92ff22ff62f123d153e71268f095968f760cd220cd3767f71ff80e1230600102619191565b6174617f475f9928f68ff9ef4bc9e289d65bc6da89758850a4ba8811dcaab8f0d462db50600102619191565b61748d7fb38b17e33c30b567bf73914ea0b91e409fddfb5f55c5c0ef85237941f7540ecd600102619191565b6174b97f15045976ff9f29bcdaf169c5694b56cd6d7f56628705001e149ae2dd16dc2e9b600102619191565b600c60009054906101000a900473ffffffffffffffffffffffffffffffffffffffff1673ffffffffffffffffffffffffffffffffffffffff168273ffffffffffffffffffffffffffffffffffffffff161415151561751657600080fd5b6175427fd7e06477747fea29f8a331b42f453088d490dda53e8ddd171ef630699cde12f5600102619191565b61756e7fed5d0ad680ed04c695201f0cd9b789a59258aec9015e67443f7e8051d1a770b1600102619191565b61759a7f198814bdf20706d6673c429ecb9c6f960ad511fe654f59555e681f500c2a61ba600102619191565b6175c67fa11784c508a35f6b44f0ddd608e7308f5f3e4e98bef5001152c7929de2867153600102619191565b6175d03382619194565b15156175db57600080fd5b6176077fe96c325dfc2b738afae8ce243f8c5407ad0716041672dd41f4b16295d426fd41600102619191565b6176337f912fc0d035716ae883c16f267365849cc0083f33c9f9fc50908c14f94389d7f0600102619191565b61765f7f325f1856d23d5f2ce56d044d7292926b2d2ea2d8c0dd2485b8aeb7e17e9a6cf7600102619191565b61768b7f35ae2f4622ff7ecee4eeed64791a0518562de358c27cf6e9b1b69ae8a3302db6600102619191565b60006002600e600084815260200190815260200160002060009054906101000a900461ffff161661ffff161415156176c257600080fd5b6176ee7fc01c3ebc17e799a2cf378e92091f013b0288249d227f37dbd9bf2deadecbe57e600102619191565b61771a7ff2928bb13810bf04b8e1bb88682335286c7ca67f4a62bfd570b352632c5d7c5c600102619191565b6177467f9e3829d0dbd48fac3be877d3d0c5a54c3a1471245d0832acc7fdc263b8d8700c600102619191565b617751338383619457565b5050565b600260009054906101000a900473ffffffffffffffffffffffffffffffffffffffff1681565b600f5481565b6177ad7f34ba93981658c3daa5f666bbb9fe4c2050f8795f520af64c257be31ef93f4a7e600102619361565b6177d97f6e13615425708a7761bd047818bc837ac9fb4bd1e59bf3fa4452e4cbd770a560600102619361565b6178057f1dc2ce0d010e73d168ffe98a84a9bc524a16f273016615775624f5da12869a7e600102619361565b6178317f7988d104597cafdb112f343393a63efde85108a1f51c7a8effe784254afa55de600102619361565b60011515600d60003373ffffffffffffffffffffffffffffffffffffffff1673ffffffffffffffffffffffffffffffffffffffff16815260200190815260200160002060009054906101000a900460ff16151514151561789057600080fd5b6178bc7f74c308184e27580c17a1d0b6ff599bb36cc06cea53ef2b0b67c3f3d831015915600102619361565b6178e87ff94d3c11b156185524dc880705acc4e207d4e6c8ac4a3c0d0c44c9bda5848526600102619361565b6179147f67cba99f09910c9c85ba4df093127c921a442884d0040f31f41bc6b40b380f21600102619361565b6179407fc68a105e427ae89d1f42312c81697992ee0b0a40aa78c683c0d958fa98d5d6db600102619361565b61796c7facea46e834496401e5b20be70253fbca1859b9ea103bfae51d46ffb1f70685a2600102619361565b617976828261b2c2565b5050565b60006179a87f34ba93981658c3daa5f666bbb9fe4c2050f8795f520af64c257be31ef93f4a7e600102619361565b6179d47f6e13615425708a7761bd047818bc837ac9fb4bd1e59bf3fa4452e4cbd770a560600102619361565b617a007f1dc2ce0d010e73d168ffe98a84a9bc524a16f273016615775624f5da12869a7e600102619361565b617a2c7f7988d104597cafdb112f343393a63efde85108a1f51c7a8effe784254afa55de600102619361565b60011515600d60003373ffffffffffffffffffffffffffffffffffffffff1673ffffffffffffffffffffffffffffffffffffffff16815260200190815260200160002060009054906101000a900460ff161515141515617a8b57600080fd5b617ab77f74c308184e27580c17a1d0b6ff599bb36cc06cea53ef2b0b67c3f3d831015915600102619361565b617ae37ff94d3c11b156185524dc880705acc4e207d4e6c8ac4a3c0d0c44c9bda5848526600102619361565b617b0f7f3656f412e650a736b30ee1b85a53658a3bd9bc4678c84f95fdecc8c72ae2fb3c600102619361565b617b3b7f0244e02df212c49d5e5083f6b9f775798a5b4f2c76ffbd89f8c203cbc5d2131d600102619361565b617b677f61275c1adf3df590bc0343e12b4cf45efe3858615c8b482b9cf319e8437165b0600102619361565b617b74868686868661a9ac565b905095945050505050565b600080617bae7f4176e0b73de34096ee1d7b39064213b10e4684651774dfc7a43775744897da1c600102619364565b617bda7fed3d01415addfc43e36b5697aa20733f362954a7000d744a8fec86e9dd663d7f600102619364565b617c067ffef12e0a4519fcdcf5a31cb3c1de5ee26427adfdfa163874aeea0fed948f9e08600102619364565b600683815481101515617c1557fe5b90600052602060002090600202019050617c517f95236b2204efe6fd7c98104da480625f7d6fee0a8b91eece48dc80008722d228600102619364565b617c7d7fb6880abbcda67ed1a936422f0c9eeb92bbbe3482d2c01bcfb9ccfcbe8980c88e600102619364565b600083118015617dc05750617dbf83826101006040519081016040529081600082015481526020016001820160009054906101000a900467ffffffffffffffff1667ffffffffffffffff1667ffffffffffffffff1681526020016001820160089054906101000a900467ffffffffffffffff1667ffffffffffffffff1667ffffffffffffffff1681526020016001820160109054906101000a900463ffffffff1663ffffffff1663ffffffff1681526020016001820160149054906101000a900463ffffffff1663ffffffff1663ffffffff1681526020016001820160189054906101000a900463ffffffff1663ffffffff1663ffffffff16815260200160018201601c9054906101000a900461ffff1661ffff1661ffff16815260200160018201601e9054906101000a900461ffff1661ffff1661ffff168152505061bc03565b5b915050919050565b600b60049054906101000a900473ffffffffffffffffffffffffffffffffffffffff1681565b617e1a7f34ba93981658c3daa5f666bbb9fe4c2050f8795f520af64c257be31ef93f4a7e600102619361565b617e467f6e13615425708a7761bd047818bc837ac9fb4bd1e59bf3fa4452e4cbd770a560600102619361565b617e727f1dc2ce0d010e73d168ffe98a84a9bc524a16f273016615775624f5da12869a7e600102619361565b617e9e7f7988d104597cafdb112f343393a63efde85108a1f51c7a8effe784254afa55de600102619361565b60011515600d60003373ffffffffffffffffffffffffffffffffffffffff1673ffffffffffffffffffffffffffffffffffffffff16815260200190815260200160002060009054906101000a900460ff161515141515617efd57600080fd5b617f297f74c308184e27580c17a1d0b6ff599bb36cc06cea53ef2b0b67c3f3d831015915600102619361565b617f557ff94d3c11b156185524dc880705acc4e207d4e6c8ac4a3c0d0c44c9bda5848526600102619361565b617f817f7fb78cee7876fe59378c92d71f0664000626f133d8bb0b1d4b78bd9087d3f121600102619361565b617fad7fe2b5c6114496aadc5d19b41e7b20676ec5a3b9c6b840bced39f01be4854c255d600102619361565b617fd97f48e29eabc4f5ead65887aabc5074676ef1ac52c07b1b60e89f0b4631ca0fb2b6600102619361565b6180057fd58cca48d34222c8aad5b20d74c4becb0914b674b3f7e54d6115e474a901cc38600102619361565b6000600e600083815260200190815260200160002060009054906101000a900461ffff1661ffff1614151561803957600080fd5b6180657ffd755bf1f4d210adf86e1976af870c2dde76ef249a2e04281723ec2d67834b49600102619361565b6180917fecb91de1a63b000aba28b86778eac2321e7269fe1df84c98cf8cc02b2beb4c2d600102619361565b6180bd7fc843093e22fdbe07b710d6cfb557f4adc198b468a9328fb3373a8878c49f0f78600102619361565b6180c68161bcf7565b50565b60006180f77fcb2648b67b0de279cb753577ec77c6b2ea08d23aa34ef2f48c5aab3c2f7b331360010261918e565b6181237f6f460441e04e9f2fab210055dfdc65babe4e31ac3fe89dcb41c84c7fb037599160010261918e565b61814f7f3dde09caefb3a1f40ad03cded37744ff16ee712b622d5384bd28cad309760ae760010261918e565b61817b7f7808d25d5414a096b7d4484dd157a0f0c9b5f6c11dae49f7d70fd4cb3bbde23260010261918e565b600260149054906101000a900460ff1615151561819757600080fd5b6181c37f8b5d68b72118d3191a023266c39777d9f072660abc89f2761d9e6c792bd310c360010261918e565b6181ee7ead53c480053279c157a04c0652ee4064d1c599d726b53bdfe5e51538b4069160010261918e565b61821a7f13ed5ce820bb9d21d46f1add071402903b524569ddd1762dd46ba91c0a768aaf60010261935e565b6182467fc4717a76c26489c9a330a122e7897c16698393d10424c2b8ad386824df395a0d60010261935e565b6182727f7bcf936f83065d2da22eff70a62329686af52ff756c7ea94d6e435cb6f2cf6b360010261935e565b61829e7f85d65b8b67b75bf36e539248142cad34200041e31065f44499149752b4cca21b60010261935e565b6182a83383619194565b15156182b357600080fd5b6182df7f9f6368cab392f19fdd9471176934c072dec5570a8461515269c13a37e43ab0bc60010261935e565b61830b7f400649a5a995b1cd5559bb0251b44844ef788d3a7669897b73c3cafa1d0dc46360010261935e565b6183377fe7484c5a9d88b75270fe2cd3103c37681667213cc1b887c2a0e8e99c0f3bd91d60010261935e565b6183637f84158d9c1c2e188ff7445a0d5cb099a9a09faa6989351e733cfe0a86537e4d1360010261935e565b61836c82617b7f565b151561837757600080fd5b6183a37fb2ce39ed90a2439b117a5b366c3372d72f2b7e15873831c0c40691edf481751460010261935e565b6183cf7f7545124149d524b60c5000a6288f1ff8dc08b3cc6312bf7eca4371537449ddfd60010261935e565b6183fb7f8f52e4528247d2e495ed677294d1d8ba96dd8e384347df5b8245f4624762a70d60010261935e565b6184277f6ee5ae8df0e1331e8ec822a2953caf1f91afa43e7232c3b7a9c03fe8502423a760010261935e565b618431828461c02d565b151561843c57600080fd5b6184687f49f29411f67c2f36c8f9f44684ce6399ee134328c7dc0d65e9ce82f9942a7c9660010261935e565b6184947fff58669182772fee9069e73e236ceb80db8330024ae66d29f7047820507189d260010261935e565b6184c07f2381441dbbb8fbe56b2625cd24e7417d502700cf16cb5a7572fd4395d04d076260010261935e565b600c60009054906101000a900473ffffffffffffffffffffffffffffffffffffffff1673ffffffffffffffffffffffffffffffffffffffff1663c55d0f56846040518263ffffffff167c010000000000000000000000000000000000000000000000000000000002815260040180828152602001915050602060405180830381600087803b15801561855157600080fd5b505af1158015618565573d6000803e3d6000fd5b505050506040513d602081101561857b57600080fd5b810190808051906020019092919050505090506185ba7f87315b0500e594823ef0b52c15a41be70f7c122f8832cba13a6a1086479b30c960010261935e565b6185e67f2929e722e53b810c328c91bb98f27b0b0cd4432dcf479f692f23a9602597f56760010261935e565b6186127f84a5372052f436f9242dc3bd0adb76572ea2ecc33741edd9db84aabb63bead4f60010261935e565b600f548101341015151561862557600080fd5b6186517fe8659fa9998bfa299bce2fe027885c903025e50383153d2250798da4988ddd8860010261935e565b61867d7f2f09cdaec416a2c3adcdee08bc2d442fbae7118eb50d7a998d11f779baa779ba60010261935e565b6186a97f7c7d7fb53af2c5ec6d0ee6b4d9b7912107cba3d5857c0fb2bc7ac7086ee60c0360010261935e565b600c60009054906101000a900473ffffffffffffffffffffffffffffffffffffffff1673ffffffffffffffffffffffffffffffffffffffff1663454a2ab3600f543403856040518363ffffffff167c0100000000000000000000000000000000000000000000000000000000028152600401808281526020019150506000604051808303818588803b15801561873e57600080fd5b505af1158015618752573d6000803e3d6000fd5b50505050506187837f20e21893fa5b77e3349b536a2bb98f4f2b9121b250760927ec305601078c814860010261935e565b6187af7f21768d72b3ba23945ae187615952d58705718717095526497252cd05a70720c760010261935e565b6187c58263ffffffff168463ffffffff1661c1ba565b505050565b601160009054906101000a900473ffffffffffffffffffffffffffffffffffffffff1681565b60008061881f7fcb2648b67b0de279cb753577ec77c6b2ea08d23aa34ef2f48c5aab3c2f7b331360010261918e565b61884b7f6f460441e04e9f2fab210055dfdc65babe4e31ac3fe89dcb41c84c7fb037599160010261918e565b6188777f3dde09caefb3a1f40ad03cded37744ff16ee712b622d5384bd28cad309760ae760010261918e565b6188a37f7808d25d5414a096b7d4484dd157a0f0c9b5f6c11dae49f7d70fd4cb3bbde23260010261918e565b600260149054906101000a900460ff161515156188bf57600080fd5b6188eb7f8b5d68b72118d3191a023266c39777d9f072660abc89f2761d9e6c792bd310c360010261918e565b6189167ead53c480053279c157a04c0652ee4064d1c599d726b53bdfe5e51538b4069160010261918e565b6189427f6a6f1570984f481a74a0a5d492d257e628029ae055657e12f33803e6aa5bfa1f600102619364565b61896e7f9862737876ff860c577068bde877673b22d33a60c7cc391fbf0a1aa7c1aa842c600102619364565b61899a7f05960928859483613b8961c79f9bc931e801c0de32177ea2d214abea31caf62d600102619364565b6189c67f3adb07a55b9768f86a0f4ea3a844a6dc97b9ce4fef648a0d4ad8fac22ae13880600102619364565b600f5434101515156189d757600080fd5b618a037fd302344c9c41bbfa776726434b6085a813d4c63d44b1f44c9165a82863e6533a600102619364565b618a2f7ffa50681d140d593c68bb6d62c3fdcace05628c6f820fea7d82d558847db13f95600102619364565b618a5b7f632dcc78f7bc8c532fc925920574d14b51b0646984b1d75914501e09e8a201f5600102619364565b618a877f1e327dcb4c209e3cde68366f08c292a2613eeec17456f5da9f1736d466fc427e600102619364565b618a913385619194565b1515618a9c57600080fd5b618ac87f4bf9821f39690d2c1b0efa749e519bfd9faaa7dc55c4e4bfab6c98671d288b8b600102619364565b618af47f89fa6712e8684eb98720367ca57d9d69a40d30fb330229eeebfb0a092d3f6b15600102619364565b618b207f026f8b9eb3fe73b9cc090c208c3c089b23048cec56febefb164f354d92e05151600102619364565b618b4c7fb40f5db6a093a64a9fae481ebf728d50f87efabb5e089088ca40553fd06cf954600102619364565b618b56838561a6a2565b1515618b6157600080fd5b618b8d7fa0b3593ade00b79d93e3a05f9d27a3ba0efaf34327fc63ba132766857ac58ea9600102619364565b618bb97fa9a338ca9d4f854d55b5c51f32ce8fb7cc42092325bbc7a85686e43573512bf8600102619364565b618be57fbade8354d10b8772fc4f55d60af55b4feadd17d21c3e13ea7bf8988984adb751600102619364565b600684815481101515618bf457fe5b90600052602060002090600202019150618c307fc32ef873167351c56e00a8932c6a727b820b8f2357170c52a97a2f5c86130523600102619364565b618c5c7f931fe26e0deae927fb1c6f121a3d982ce13202fc1e025fba01e50a8245ff7956600102619364565b618c887fd90c67ee0af803220d8ac0f2ba6c8126664b46984d3c6b63f283f2cc2b26899c600102619364565b618dbf84836101006040519081016040529081600082015481526020016001820160009054906101000a900467ffffffffffffffff1667ffffffffffffffff1667ffffffffffffffff1681526020016001820160089054906101000a900467ffffffffffffffff1667ffffffffffffffff1667ffffffffffffffff1681526020016001820160109054906101000a900463ffffffff1663ffffffff1663ffffffff1681526020016001820160149054906101000a900463ffffffff1663ffffffff1663ffffffff1681526020016001820160189054906101000a900463ffffffff1663ffffffff1663ffffffff16815260200160018201601c9054906101000a900461ffff1661ffff1661ffff16815260200160018201601e9054906101000a900461ffff1661ffff1661ffff168152505061bc03565b1515618dca57600080fd5b618df67fec0974adfedb05bc650207c07ba20bdf5663747d62cf12bf1dec598b4d1c7c35600102619364565b618e227fb207ef40ecd8bb1dc989fbb8296ae5c1a8038416835576a1c78d3a0a6cfe9bb9600102619364565b618e4e7f37432822c78fe15758a23366ebae1a98f5dedffcdd0c004698d1204d3fa2d1ce600102619364565b600683815481101515618e5d57fe5b90600052602060002090600202019050618e997fb81305ac3c02fe00a289b3a0813667e8ef0fcb87077f229b9755cee88187b76a600102619364565b618ec57f099f6d9cc0e543cfd8905fdcdc9e321c939466e85b22a5b9ee19657b15e92cbe600102619364565b618ef17f100bac891c7cda9c0fc635176c6bd6371f02cb0ab6d59bc607c6d4567ff08495600102619364565b61902883826101006040519081016040529081600082015481526020016001820160009054906101000a900467ffffffffffffffff1667ffffffffffffffff1667ffffffffffffffff1681526020016001820160089054906101000a900467ffffffffffffffff1667ffffffffffffffff1667ffffffffffffffff1681526020016001820160109054906101000a900463ffffffff1663ffffffff1663ffffffff1681526020016001820160149054906101000a900463ffffffff1663ffffffff1663ffffffff1681526020016001820160189054906101000a900463ffffffff1663ffffffff1663ffffffff16815260200160018201601c9054906101000a900461ffff1661ffff1661ffff16815260200160018201601e9054906101000a900461ffff1661ffff1661ffff168152505061bc03565b151561903357600080fd5b61905f7fcda9ea3ca75595e7ed7c9984d2952f48ee4246a9f12c7798fb9928722f4449bf600102619364565b61908b7f4a345083d72de97d98a4d2b43b26529b48ff3dca90789cefcd9c73ae8e737b10600102619364565b6190b77f271a9928ddc1beb9a1d073b056d07dc306c85bb46c5b358957faf84b8fd568e2600102619364565b6190e37febff20a5e9d486511d86ec6977ed42beaa6744beec1a2a667cd34c1e7419b169600102619364565b6190ef82858386619dd9565b15156190fa57600080fd5b6191267faa511ebb30d266ef5931b304f4ce76d6c8988b8e2dcf2081716d1b7882b8ff40600102619364565b6191527f17a4022e9254dcd099e1fe097874859281b3973f7b528fb0fc6af957b7506045600102619364565b61917e7fe58ca24c2e9c17be1d275f31423631b47abaf0a01e4b38653c6b9cd6aebe8501600102619364565b619188848461c1ba565b50505050565b50565b50565b60006191c27ff620c8e7d6f39c01885c2f71899579216cff732114cbb5eef54d7e5e9a26f7ec600102619191565b6191ee7f8aa379ba9d2f7b27c97830c6a8b3692f1f0b6c07b5dd2cf671da1ae2bed490a6600102619191565b61921a7f284f45a4377482355d6da17ab0c407f006dbb1030be26f0fe8c2ed396f12ae9b600102619191565b8273ffffffffffffffffffffffffffffffffffffffff166007600084815260200190815260200160002060009054906101000a900473ffffffffffffffffffffffffffffffffffffffff1673ffffffffffffffffffffffffffffffffffffffff1614905092915050565b6192b07fb41cd5f6201c7bf3f76d2b60228af44106d8421c721046002117e62c95cf9e16600102619191565b6192dc7fa4449cf38feca80eeb21c8422f360bb542f795915e091a010a5cc6a2ec8d2490600102619191565b6193087f766b16c6dd58fadf52362556f318d8f8db6c5a620f0bf45b88faaa8b542f311a600102619191565b806009600084815260200190815260200160002060006101000a81548173ffffffffffffffffffffffffffffffffffffffff021916908373ffffffffffffffffffffffffffffffffffffffff1602179055505050565b50565b50565b50565b60006193957f3ae97b2983935f6bc221b02c21265cb10a524cb974da3345c6e6bbc16e31fb5d600102619191565b6193c17fa8a5df3c83ef1fcc9a2e7879ee1b05af0f7f8c14cf1914d0b7b9573ce40e619c600102619191565b6193ed7f915c2b227dcc2832771b55a08b846cd2b47603142a46d6eec2b45047717dbd5b600102619191565b8273ffffffffffffffffffffffffffffffffffffffff166009600084815260200190815260200160002060009054906101000a900473ffffffffffffffffffffffffffffffffffffffff1673ffffffffffffffffffffffffffffffffffffffff1614905092915050565b6194837f66b696999af1a6a5a345bf3e9f29fedb18e5666a229a977c9f6af3cbc94738bb60010261a8e9565b6194af7f54f4b79b2d0d8747ddaa341ae0bfe7d5522db5383323e2fd81ebc48cd704e9fb60010261a8e9565b6194db7fb3d27e017d666ac9fbc5d11deb51ba46e2b263acea399b7bafbb13c3288af83860010261a8e9565b600073ffffffffffffffffffffffffffffffffffffffff168273ffffffffffffffffffffffffffffffffffffffff1614156195a35761953c7feddf6b000c535abae7d0b760c7c16929e51af1469b587db67a62afde7e19cf5a60010261a8e9565b6195687fa584a9b7faafe335bfebf096b8c371a4f295bf67342dbf5772750ffc39cc3a0260010261a8e9565b6007600082815260200190815260200160002060006101000a81549073ffffffffffffffffffffffffffffffffffffffff02191690556196f5565b6195cf7f93b059e4aac9bd4320e7a5f7d9980173294e9757131d11de2edc9599f324e3a060010261a8e9565b6195fb7fa6d303d9287b7834d673e33b530dd58e6170c196c236730b72622a4c376d71ff60010261a8e9565b600860008373ffffffffffffffffffffffffffffffffffffffff1673ffffffffffffffffffffffffffffffffffffffff168152602001908152602001600020600081548092919060010191905055506196767f44ef1e3b61a49bb5208bbbecb00c8bfe5dfc9be34c0480bfaa25ef90a5ecdc5d60010261a8e9565b6196a27f365ffe523aae4c9ffadf73544c18a5552ff1ff7b389c2cbe13c9d15b3326b9aa60010261a8e9565b816007600083815260200190815260200160002060006101000a81548173ffffffffffffffffffffffffffffffffffffffff021916908373ffffffffffffffffffffffffffffffffffffffff1602179055505b6197217f2226ce019e47537d8e454ddca5e112d4903790ace74d41dc9d363c43b3410cad60010261a8e9565b61974d7f47385f808687c27d5a59a7dc42f93e0fdeea737f727cc62e711669ff5c38f10860010261a8e9565b600073ffffffffffffffffffffffffffffffffffffffff168373ffffffffffffffffffffffffffffffffffffffff161415156198f4576197af7f4e6127e4a994fba5df78e71aa18f1f1d523362630cb30aead6876e9990c428c660010261a8e9565b6197db7fb235be59090e82c7bfa8a8b8023417fd999d3fd1bba568e191668a4e186e463f60010261a8e9565b600860008473ffffffffffffffffffffffffffffffffffffffff1673ffffffffffffffffffffffffffffffffffffffff16815260200190815260200160002060008154809291906001900391905055506198577f4ed115f965b9ea3e54650231154a5f18cc3a35f092b81ad39aacaa7e85475e2860010261a8e9565b600a600082815260200190815260200160002060006101000a81549073ffffffffffffffffffffffffffffffffffffffff02191690556198b97fae028673c4046d8259fe2c9a860fcb6a49bbbaa83d1dd3ca2ac0688d1ae4801f60010261a8e9565b6009600082815260200190815260200160002060006101000a81549073ffffffffffffffffffffffffffffffffffffffff0219169055619921565b6199207f31b6fa50e79ee1c74054d4e9d070882636304fdaf307c0f2eb7f23d44fa533fd60010261a8e9565b5b61994d7f0668f245b8ed5f50acf7a77b0b916c0b8f67b3800fb95d8d4d7bd9c893e68e2560010261a8e9565b6199797f4d5369baa40700f5ca0035a032d898cee0eeae70c91a454ee4172329d88f4be260010261a8e9565b7fddf252ad1be2c89b69c2b068fc378daa952ba7f163c4a11628f55a4df523b3ef838383604051808473ffffffffffffffffffffffffffffffffffffffff1673ffffffffffffffffffffffffffffffffffffffff1681526020018373ffffffffffffffffffffffffffffffffffffffff1673ffffffffffffffffffffffffffffffffffffffff168152602001828152602001935050505060405180910390a1505050565b6000619a4b7f4ac87dde4a4fbaca206364122e0df3a6f4184df6c76089275191a1a34ad9d3b5600102619361565b619a777f54cd04fb1ca2f4b806ac1fd822067d8213e04e80be4638862e29ac77e9b81ba1600102619361565b619aa37f145cf622b2babc155e6defba81267c326ef5e297fe33e809a972ee7f207dbaea600102619361565b619acf7f7afe5a0d7123df7eb4b516447a4b1f38456e55b80cdc5d51b0e89076e787f3ac600102619361565b60008261ffff16111515619ae257600080fd5b619b0e7f1d0857e361644fc529011044b538b4529871176050090b70cff8659acaccb4d3600102619361565b619b3a7fe44b9a926eb40ebe146f72fe8eb1f294bb0f38a6706d5d4f1dba7c251baec6b1600102619361565b619b667feee4bbc877551112a62887ca03948a0987c894b2b6194910b2f5dc2fd97b7760600102619361565b600e600084815260200190815260200160002060009054906101000a900461ffff169050619bb67f8cf086795e83053371bfd98d3f0c3dcd9d14bf9fb5aa9fe2eece2123f6fdd242600102619361565b619be27f01ce12e48fd9ff60619a8c1b06837766ea5450b349c6af278e6eb7a1ec03ffe2600102619361565b619c0e7ff0c1f85969b006723f322c591da0ed4e84fa6e4601d81473e570f9fd14d8f530600102619361565b8161ffff1682821661ffff16141515619c2657600080fd5b619c527f4d861962e20dbdb5080ce1b51f69537cc1a42ecf230a3189f84fce7c681221f5600102619361565b619c7e7fb94b1ad502b870dbe3e12366b95058558b90074bb995f8afdf882f83d16263b0600102619361565b619caa7f75e7611228a417365986770319c879df6fa4cd8f9bdfc4d4a52a84d82ad9f2b9600102619361565b8181189050619cdb7f96978da1a422b0e207baf3b657187fb19d3e499dec944e636702b68ea68a9133600102619361565b619d077f3938bb22cba27a8e5cc6b45e821b00e56065102b6c703457829aacd8cba95ab7600102619361565b80600e600085815260200190815260200160002060006101000a81548161ffff021916908361ffff160217905550619d617f6d57617351ba084e8df47de9c0daa6faa76c09247c21437800b7f4ccd12bda36600102619361565b619d8d7f848cad68c32655ac5b251517988645ef74f7ef99629035530f340e296d851ee3600102619361565b7f96b828b49c6eb235f60dde08b68959e6baef50b35a662b6db3cade02872d32308382604051808381526020018261ffff1661ffff1681526020019250505060405180910390a1505050565b6000619e077f2652f96c20139186852897ab0075422e870e3cbc827706314b978e6ccc959a6e600102619364565b619e337f5471a63818dad5c8fd1ad807102fee99c9dc31d49ad789a1b9eba4c5a109baf6600102619364565b619e5f7f7a91d49f83af5e845d136b3bd3f65bf8d105172aec1f74ff5bb1439983ba958e600102619364565b81841415619ef457619e937f097ce782f45e429acea2c0806b66e01335cb634901d376d2f67a57aec6a5c761600102619364565b619ebf7f0ba6eb3b8edf9a128cd6aa804f81ef088b8acf527f5bd99ba1473d727deed6ad600102619364565b619eeb7f6561a5a123878f0dc2a6f36333878c92ebb29132c83fd94cbc48f75d2faa5c1c600102619364565b6000905061a69a565b619f207f8f6b15014f83ea172ad55991b49ef14e7afb60cdecdcebcacb974a3680b81f68600102619364565b619f4c7f084c279267a7211ca2c83ae9ddbb04fb9a70ae8bf9d2823b355f82d1e2dc1081600102619364565b619f787f059e348281112c8121387d768b4f4bbd98bfb6c0824ec83092bb7a42ff7d3da8600102619364565b818560010160109054906101000a900463ffffffff1663ffffffff161480619fb95750818560010160149054906101000a900463ffffffff1663ffffffff16145b1561a04b57619fea7f3926957f804452c2722cd4b3ebb023dec2db32041c9334a0464fb941eae12121600102619364565b61a0167fbfdb2ce3b1fbb66fdf9d1e2a02dae93d9814d81fc3e4b44c8a4959a7d7814c04600102619364565b61a0427fbb08912addd494178dd1214a18e1934ab119d198df3ec6fe2ad41bb33b979789600102619364565b6000905061a69a565b61a0777f154f55f71919e0781bbdcd08daa299b109a00e9c816388709db14b29e1ca843d600102619364565b61a0a37fe63b4bb507ee0d913a708ff1ed55dc794eff0ecd55226c2e3dd248c190684e2b600102619364565b61a0cf7fb1be094b3f03681eed85b14ebef5a3b62b88e826f131e897531354286d58633c600102619364565b838360010160109054906101000a900463ffffffff1663ffffffff16148061a1105750838360010160149054906101000a900463ffffffff1663ffffffff16145b1561a1a25761a1417f26d771681171c199ec8e854be6cb568d473c62df7b04cff9596d838d05539c7a600102619364565b61a16d7fedc57b718ae2e5596768017df2a37fdf79959793621f01f7b37f46d1a7c54ba0600102619364565b61a1997f46b574245b24ba9460da2fc9b19719c4acc2bd7526dd3fd6962b1050ede3e7bc600102619364565b6000905061a69a565b61a1ce7f3f43a8d904d2b5a331a58b496d3bc567c03ede4b06c51347aec49c5a811d41f0600102619364565b61a1fa7fae1c5827f4a4e25a25cc18195145a12d2469d4310588975fa863254f72bca263600102619364565b61a2267feb3f1b3567e4290cebbe6595419ca83e16a8dfb39067761bcefbd1ed1205abc5600102619364565b60008360010160109054906101000a900463ffffffff1663ffffffff16148061a269575060008560010160109054906101000a900463ffffffff1663ffffffff16145b1561a2fb5761a29a7f5bdd158931799e4929ca9e192b59bf06de80974209e2169e187a4c29d87552f9600102619364565b61a2c67f35823a33473b02e6f6658373792dd844728b5cae2191a8b7ad9e7a1a389ce820600102619364565b61a2f27f21b83b98b69328d44a7db703adce8efa286c80ba36b55c05a699bf8dea5f3f4f600102619364565b6001905061a69a565b61a3277ffa7be26a5895b4e7265320f2b2587646f638084360536bf122743302bbb1bb38600102619364565b61a3537f4026dac0631272036909db3173aed0916f81e8ea2957e3ad1ce17350ac72b5e6600102619364565b61a37f7fe54e7bb93348017fa9890dbf6c049a36614e78ae438d0f5e59120f4e91b99809600102619364565b8460010160109054906101000a900463ffffffff1663ffffffff168360010160109054906101000a900463ffffffff1663ffffffff16148061a3f457508460010160149054906101000a900463ffffffff1663ffffffff168360010160109054906101000a900463ffffffff1663ffffffff16145b1561a4865761a4257f39e2fadf80b1b0dab4d9718e2aaae39db3d406c69f5dc37c20fb114498a7c863600102619364565b61a4517f2c57caa814c88c64eec59992f3785b90cff1d95ccd5b20b3862e7f95676e88d3600102619364565b61a47d7f4d6518a54750232d752d520e88c25a4abdf56025ccb85f1e1ba97781548d2f99600102619364565b6000905061a69a565b61a4b27f4edefcb3ec9e7d5e8dc5782cf4dde881c0d2483a3898e8d4e2946a13bf451c5d600102619364565b61a4de7f6490bc06189024d196d4f1d6af72a96957096b66301a747495064bd4908d34fb600102619364565b61a50a7f3ac2d133462e1536a0511d042d983ca2c98b3db48e7fe30fb01a0615300b42c3600102619364565b8460010160109054906101000a900463ffffffff1663ffffffff168360010160149054906101000a900463ffffffff1663ffffffff16148061a57f57508460010160149054906101000a900463ffffffff1663ffffffff168360010160149054906101000a900463ffffffff1663ffffffff16145b1561a6115761a5b07fc79d9839cb73fa78cdc9dc13c08b1a16da44abcf5b58211e76ceb3fa24eaa0c9600102619364565b61a5dc7fe0f677e402691d5f82229ca5291478da7202a5d583026e15716f539ece6c6f5a600102619364565b61a6087f11e233e8c256fbf47bf04a76d0f551d0942f618ff08164b2102a84c31b4ca517600102619364565b6000905061a69a565b61a63d7f119ebad30b6dfbf8f80edef955a9644e5d2ff842f7d5fd5db5ce49890bdb4066600102619364565b61a6697f21a19c216416a64a7b9083131d53a951cd76ee6149d7388921dd4beeb8cad575600102619364565b61a6957fbc6081cf1bab835ebe219af24aaf7bac4bb5dc1324ce2f4c5a280c8cefdf9176600102619364565b600190505b949350505050565b600080600061a6d37f6ccf932e04acbdcce047f227eb79aa79538d5a0fef8d0efb56534644c34a3029600102619364565b61a6ff7f9dc655809df2592bcff449e430de9858e95663a258f7065e87ac3c855307f021600102619364565b61a72b7f9fc048062d1af2e56c2e370dfc5cc7e12bcb89d70f47e3df908293b264732e27600102619364565b6007600085815260200190815260200160002060009054906101000a900473ffffffffffffffffffffffffffffffffffffffff16915061a78d7ff8b3062d0c6f2e2488255381e9638cd08ef3263f6a3ea1ce2eab447ee1092c18600102619364565b61a7b97fc85490541f1549fce21871f15e24e8710b84e837264eb471b218deb3933abed9600102619364565b6007600086815260200190815260200160002060009054906101000a900473ffffffffffffffffffffffffffffffffffffffff16905061a81b7f4afda7d323b184a93d8d37884bcb37712bdb638735d0e82e824c51452883325b600102619364565b61a8477fbcf7fd10edfeb04e4781d1cc26c6e5acf33ce5a7deed2e05796c0020afd66755600102619364565b8073ffffffffffffffffffffffffffffffffffffffff168273ffffffffffffffffffffffffffffffffffffffff16148061a8df57508173ffffffffffffffffffffffffffffffffffffffff16600a600087815260200190815260200160002060009054906101000a900473ffffffffffffffffffffffffffffffffffffffff1673ffffffffffffffffffffffffffffffffffffffff16145b9250505092915050565b50565b600061a91a7f2b00a65d31fcab165e8535358c8dc3623cbf5b78dea8c29b9e355578ad37b6cf600102619364565b61a9467f203e3a188969079db837ab33843ca7998ded78a08f1668545c9d5fdb7a30dc39600102619364565b61a9727fcf85fe10c5f7870dd0aef4ee40b3a2dd38542290b92b6fbdc069865577dfcfa5600102619364565b60008260a0015163ffffffff161415801561a9a557504367ffffffffffffffff16826040015167ffffffffffffffff1611155b9050919050565b60008061a9b761c8ab565b600061a9e57faf1a83229740af54757f0d9680e14509b125e1b547461ad1a02d170f0feb995460010261a8e9565b61aa117fc2f4059d2ec48df1e30397faa3121fd1a62bd2c11ec8466eff09dc64dafdeb6660010261a8e9565b61aa3d7fa2d877341c6464a2a0015a097de4cde74c11053a3b431b5ace80654b63ce988960010261a8e9565b61aa697fefe04f30b1a96537be450fc4421d0cbec5b077ec9f878225130d9900f7abd51b60010261a8e9565b8863ffffffff168914151561aa7d57600080fd5b61aaa97f891dc4c0acdaf920320fa7b61d1f628b110b269131943c41833c232d970e3c5760010261a8e9565b61aad57fb969f4128fee5278f6d097b0186d51b26a75663bed4bf7fca48c5b577f8c88fb60010261a8e9565b61ab017f4aaa246181b1583170f0a88df963d402d913310af01c0716634dd4d50df7f8ee60010261a8e9565b61ab2d7f110b25b6af71b509da1fc3ec6ee020ce7cedf6d094b894c12f059fec873290ff60010261a8e9565b8763ffffffff168814151561ab4157600080fd5b61ab6d7f25c061f5b20be6acc6aae8011390a9a9723977d31b4c5fc07ba733e4eb8f2e2960010261a8e9565b61ab997f413875cf3c2aceeaed0a027920ebf7d6f73722ce84f13878c08924190a56a3ac60010261a8e9565b61abc57fe83a31f46e02e074e46aa6c4896324efcda91e36b6da44dbed6db903044e648260010261a8e9565b61abf17f69a56fc4a42e9cbace96ed61624e0fab641e6810339c182b87dfe94319ad49c160010261a8e9565b8661ffff168714151561ac0357600080fd5b61ac2f7f2231e63dd34fd8fbbeea58fc7e3819749a26f10d60fa51be0b6608d445fa871460010261a8e9565b61ac5b7ff2fdf5413df0643bd28e8ce560e392f0d4c3b865f6e0464b95714a820ab48b5d60010261a8e9565b61ac877fdbb0207b721227a9eb66221af757237a13f4a0fd20f64a0ae156405aaac87ab460010261a8e9565b60028781151561ac9357fe5b04925061acc27f021c2e0632620e122d1505458a088a25d7af7a5526f010e7377d7532beaa5eb260010261a8e9565b61acee7f79e80ce4b5a8e42f8dc16cde6b4a99c55cfa8e4ca345ebd6de1b8da059c7021b60010261a8e9565b600d8361ffff16111561ad885761ad277fc1226ff867e997d9ca97670bdcf470a26bc65ddd45f29753ca04b78cfb0d718d60010261a8e9565b61ad537f11e54662bb48f480547b4ca0434c96163dc96a65d6296c7164e275536b8b359160010261a8e9565b61ad7f7fb1036d9d43d04c9f819b28e80a3ac795ed91d036fed33fcf541f4e7974298d1260010261a8e9565b600d925061adb5565b61adb47f035c74e7ae3e2a0098511017d92fa1c07ee808923fd78a2017363505bd568bba60010261a8e9565b5b61ade17f3fc07d5a94cbb4ccfd895cac66e52def11f2085d28185b33e4f6ebc460d4d1d060010261a8e9565b61ae0d7fc9caf35c6751d45e20d11393623ba020060d805c708e5d299058eb7a59c140bc60010261a8e9565b610100604051908101604052808781526020014267ffffffffffffffff168152602001600067ffffffffffffffff1681526020018a63ffffffff1681526020018963ffffffff168152602001600063ffffffff1681526020018461ffff1681526020018861ffff16815250915061aea67f708cf5f9ac8723faed74eef918a9665a9e3d38e093592c8bf219b8d56c7982a060010261a8e9565b61aed27f49479d98da59a94fd2ca59fce468c73941ab208c99cc278d358e01a63570510160010261a8e9565b6001600683908060018154018082558091505090600182039060005260206000209060020201600090919290919091506000820151816000015560208201518160010160006101000a81548167ffffffffffffffff021916908367ffffffffffffffff16021790555060408201518160010160086101000a81548167ffffffffffffffff021916908367ffffffffffffffff16021790555060608201518160010160106101000a81548163ffffffff021916908363ffffffff16021790555060808201518160010160146101000a81548163ffffffff021916908363ffffffff16021790555060a08201518160010160186101000a81548163ffffffff021916908363ffffffff16021790555060c082015181600101601c6101000a81548161ffff021916908361ffff16021790555060e082015181600101601e6101000a81548161ffff021916908361ffff160217905550505003905061b0567f9aa63b18dca78946b8584ddf38609392dae2f2a07d070e10850b0e23f4a9b40a60010261a8e9565b61b0827f15d1769b8687d4e8f6aa6d242cdcfa52a14c08c7ad5395161a8363a24f222d4660010261a8e9565b61b0ae7f70d704080f82b558d9d1e5668411e3a7f3393181e9cd6845a2f16a4ae23b1b5b60010261a8e9565b8063ffffffff168114151561b0c257600080fd5b61b0ee7fcd95a0a86cc7da87bbf27bdc45f85d1b6f886ee3e7ee1ef053e054615a6320ba60010261a8e9565b61b11a7ff34d4e69368e8b4ef5a6894d75dd89fce064964e799b7b1e76f1d9c15bdf1a7460010261a8e9565b61b1467fa466790e12551182e079b2122ea013e586efae27cddbc576f8402f054c3d0c2260010261a8e9565b7fa2950fd8c03e7518275ee57e05ca76c671969b5445b12b1aeea4b0b30195e5df8582846060015163ffffffff16856080015163ffffffff168660000151876020015167ffffffffffffffff16604051808773ffffffffffffffffffffffffffffffffffffffff1673ffffffffffffffffffffffffffffffffffffffff168152602001868152602001858152602001848152602001838152602001828152602001965050505050505060405180910390a161b2237fc700d1ebdeb35e368fd4546f2d66f21598f28f4f23edc64ea6a4d8b8dec0c1ea60010261a8e9565b61b24f7f28f02e64d602931cffbaeabaa94fb8fb5b2cf0e1e898ddb5634433d0cf3348b760010261a8e9565b61b25b60008683619457565b61b2877f66687bd90d7dda445e852caa3a4781bba05a310ac12c103b41b22faab0c6bfaa60010261a8e9565b61b2b37f0815989a39726999d063a887b0c35b1a0836d8477666d46665c81c042b62d57e60010261a8e9565b80935050505095945050505050565b600080600061b2f37f30b3c0c07f817dafdfffaee96129a64ed0252f6d4f88bdf6689d91ff88c28b98600102619361565b61b31f7fefb5a35eb8ad79ba48054c709e228dd7dbfdfc68c58580adb17f1715709dc7b9600102619361565b61b34b7f93897e5e4f0490c70ec66e3ab20babb0381539bbd7b462636741e647dad3b07d600102619361565b61b3777f3a0b0da1d2727e73151991689b1d22dfd55239844895e6ef4796b34b1dfb827a600102619361565b60008461ffff1611151561b38a57600080fd5b61b3b67fff6e6b515b5052191d21f38fe509f261f0c071be5aaea800df82640c8df8f791600102619361565b61b3e27fe7cd3c148583c2c234c5ac5ebb174b2f156289705f88211a2df38001e2de13ca600102619361565b61b40e7f23eb2b7e5de59567a952a5b82fd9849791ee10d27634e2dff1e1df0a1def7cc6600102619361565b600e600086815260200190815260200160002060009054906101000a900461ffff16925061b45e7f55037fb314b64c8f20560384d516302940ab9f974f0531f099c550d1050f5903600102619361565b61b48a7fb11cd56a03ed3baf4fccdaf582775e900a18967e82bdd6ce6b0468bae84b1050600102619361565b61b4b67fa2c2252e1fd0b00357ef6891633c811d43afc0e7d65634d16c7af39fcb8601c0600102619361565b600084841661ffff1614151561b4cb57600080fd5b61b4f77f6f7bf2380ace03fd483e980d236b3e4c7710c2b7244afe4472ba0f9898a3db24600102619361565b61b5237f6c10ea1b0236b8ee0ad35e5237d0b5db9408b0bc7067db8f342fe52009fc8373600102619361565b61b54f7f0d7fd561126f0f0bcf21c8bf4350f50f2a7d52cced44984eaff79aa54ec3e981600102619361565b60006001851661ffff16111561b6df5761b58b7f02a4f3925f497b7d2ee9996bddbea4dadca312842cdcf74979559814a7067fba600102619361565b61b5b77febc637a85560d6ffae62fb4c404b7d1b11e6f55c9c56a58b99caab9bee49097f600102619361565b61b5e37fbf07c53372620d01520a813ea28f410c76de0c5f7b1fea242a87aa97a53eaf83600102619361565b60068581548110151561b5f257fe5b9060005260206000209060020201915061b62e7fd9233b1840b187e0c75913678471c4c475d8532990e2bbc7832428d71c42e2a7600102619361565b61b6597e6a523462a1fbffb589cf4df51da84b90f1be151c6f1a2f6226adbc09a66e94600102619361565b61b6857f4a92f8a9bcfbafe20393bc702f456621de335a9d2ceb38b29cd712e15b63064e600102619361565b60008260010160189054906101000a900463ffffffff1663ffffffff1614151561b6ae57600080fd5b61b6da7f12c3f201f963fe0bc1618165943230b493c9dd69ae689e0b7889d5f4c6a16147600102619361565b61b70c565b61b70b7fc9cca3a192861a6022fd7a79c716c6c0f4147c2617d61e5e583f742235f3808c600102619361565b5b61b7387fbe622a7b80f398edac5b4cfdb9a5e9f7fcefdc258228f76192a044251cb099ed600102619361565b61b7647f0155e94e24413f19925d5d01f5c6a62446cb4960f4cbbf923f6019a812fdac75600102619361565b60006002851661ffff16111561ba4d5761b7a07fea0b39bb3401da2ba2193e82a828b647bb700c729c64bf035d13159d53df323b600102619361565b61b7cc7f647df0b364bd04b555878e67aa2eb317c398b0e6f5969c1d5cb7948f6fdd3379600102619361565b61b7f87fa987d65536459f7a177983ddeecd62293198b6418013d86210d45b205146cd5a600102619361565b6007600086815260200190815260200160002060009054906101000a900473ffffffffffffffffffffffffffffffffffffffff16905061b85a7f1b39c73a301f165d9a09749be212acae4448b3d3c619ecd8fd231db2b6e11d49600102619361565b61b8867f3cbf2b7ec09d0ffabd48dba55e37105ba06ce4220d4112c32ee7c8d0cc660f1b600102619361565b61b8b27faa6492b4f706069f0264a319f809768001735d2413328fca62f05274da94b426600102619361565b600b60049054906101000a900473ffffffffffffffffffffffffffffffffffffffff1673ffffffffffffffffffffffffffffffffffffffff168173ffffffffffffffffffffffffffffffffffffffff161415151561b90f57600080fd5b61b93b7fe059c8bdaf6adb1f8f8ae0edcedf4643d9870a363eba1e6c610b08261e829843600102619361565b61b9677fbf5a9dca3e48586353f9a8494a089d0311a4b228b486e7938de3c26983cecaf5600102619361565b61b9937ff206735294317e20417acabe2de93e8ef38b2977a6f93490b4b5c5e86100add7600102619361565b61b9bf7f0c3cabacefc33d2e4629aff68c39c4d965496a9394e502ec9e63e61e8ebad658600102619361565b600c60009054906101000a900473ffffffffffffffffffffffffffffffffffffffff1673ffffffffffffffffffffffffffffffffffffffff168173ffffffffffffffffffffffffffffffffffffffff161415151561ba1c57600080fd5b61ba487f49aa0a15b3f055caf6abbd5dc34799e2c21dd154b821fc2e2e44e790fb7c2165600102619361565b61ba7a565b61ba797fa9d3ff38c8537170570a1d803812ec42a67bfca83c6eb3ade16c6242090c6d21600102619361565b5b61baa67fe0234859e842db30f74650b52863c0729d2204554b633ae06b41f08a87ca9aca600102619361565b61bad27f4cbed3e28005a9191de8e613ac518dca60499640be2fb0652f544766b9090ec8600102619361565b838317925061bb037fe4f1d18a7b655aec221cded95fdd22d4e52dfc7750b2bc3622dc6f42abc950a4600102619361565b61bb2f7f1a19063a4298ae335d7abdf41711c297957d39c90203d020227456160d879523600102619361565b82600e600087815260200190815260200160002060006101000a81548161ffff021916908361ffff16021790555061bb897ff0f63dbbce3dca433afb8d169b07ba14e59f2960d44389b97f478e70d628f0de600102619361565b61bbb57fb6e784443591a7f35eec3c769cf9c6cc0bba5e367f5e666a2419931e907bdfc3600102619361565b7f96b828b49c6eb235f60dde08b68959e6baef50b35a662b6db3cade02872d32308584604051808381526020018261ffff1661ffff1681526020019250505060405180910390a15050505050565b600061bc317ff6632e130353b95df51682c36e761ac705c78423d1d8ac6fe9d3cfd6a2b7f845600102619364565b61bc5d7f3ed0de66f7ea44712ced26a07c2aa45fcc0a42ab258637daf02688f84198849c600102619364565b61bc897fc5d86c5e6aebc70d30324b73d3897f2217cb5a62e57d01261f2ae3cb7da4bd9f600102619364565b60008260a0015163ffffffff1614801561bcbb57504367ffffffffffffffff16826040015167ffffffffffffffff1611155b801561bcef575060006001600e600086815260200190815260200160002060009054906101000a900461ffff161661ffff16145b905092915050565b600061bd257f1d77822df049d83386355f59148204c605a5c33d6c9f15e3110018d9369fb32360010261a8e9565b61bd517f624b023533af9b442aa96ea7c1cfa9912ab0b1ede76ebbb6aacc5d342139798060010261a8e9565b61bd7d7f91c6a900d6265ed2db5032756e47efd5679dda866ab1a61d3d1a5fde247a12f360010261a8e9565b61bda97f22e39dd0a5ff2508b65930c6db3525c922a3d95abc4f2814c4bdc1c299d0c7da60010261a8e9565b60008211151561bdb857600080fd5b61bde47f05479ce377b2444c682c1a1737140eeb838a7b55f49ed8bd5f32283101f9a98b60010261a8e9565b61be107f67382d5223aed1ad0381fb46dbf6542b3c75f94cfc04e6c6dca54ef2820a361e60010261a8e9565b61be3c7fdd726886bf0eea761dcd18eab91595656744a9200e61ff548c6234748273f00060010261a8e9565b6007600083815260200190815260200160002060009054906101000a900473ffffffffffffffffffffffffffffffffffffffff16905061be9e7f9b54c4e2be41610caa54d986249bc5b48c678e20afe40d5104acf3e3a679c13960010261a8e9565b61beca7f8ac7b4b5faafe346ba2fc956069ef73443c7120a7ee41b4d674a32c3cc435e9560010261a8e9565b61bef67f8b8d425c4143ef81258c88ef6ecf6ef7a0623549d442ee0878ccc73c9992409f60010261a8e9565b600073ffffffffffffffffffffffffffffffffffffffff168173ffffffffffffffffffffffffffffffffffffffff161415151561bf3257600080fd5b61bf5e7f16e883088c4b0d00738d8472eb66de7f4ca28305d322e800e1037612f9c5030360010261a8e9565b61bf8a7f27c5745023592ad0dcf7b31c622e7518643aa8728f4dadc54af283f2bffde4b560010261a8e9565b600b600081819054906101000a900463ffffffff168092919060010191906101000a81548163ffffffff021916908363ffffffff1602179055505061bff17fe7edf42fae71d7245ae4958dc7a148eff4d915fb75466ffdf04f64e4526cbf8860010261a8e9565b61c01d7fe8db8fbf6f5968f1907074ad1ee0f91b87ee9b7e0b42c6e6ddb533e6c5beaf6260010261a8e9565b61c02981600084619457565b5050565b600080600061c05e7fa3dd48ce7b423b48d63bf469ab7240979214e47fe0ca10bd3a0eecac43536728600102619364565b61c08a7fa80980815f37affec1797f71d33b1d7652a1a341952678aa63ea4a05ae62f3ec600102619364565b61c0b67fa34e19621281e443e2bf2cc6b4e44bc35bb49f6095d0a69a521592f54010eb6f600102619364565b60068581548110151561c0c557fe5b9060005260206000209060020201915061c1017f03514ada7e928b5e006100681df857a186047fede4458d4af0856bb30bf5e16e600102619364565b61c12d7f06ee10d0bcdd2503722521b131dd130b6155338b90af1450a523bf84c3e51ea4600102619364565b60068481548110151561c13c57fe5b9060005260206000209060020201905061c1787ffaed1e3eb954cbba464757903d7dbe272952de62a3d9a4c261ed30472896f377600102619364565b61c1a47f6b95d3a482d2698e3e510b40aafafc54fc0dab3a2e98b74aa7fa92ed437a543c600102619364565b61c1b082868387619dd9565b9250505092915050565b60008061c1e97f622c4b99048f9a1db21307b892af92e702ede9eef257e614b6c81ceec0ddf5e0600102619364565b61c2157f4e839b10cb305d54f89290b6a4bf64db056be3f2f5fbb9562889a0fca9c7c2a3600102619364565b61c2417f9f3a6ba66eda1f5abc9c74fbcc7819f7bb689103f7a357d7811d764ac9d42a6a600102619364565b60068381548110151561c25057fe5b9060005260206000209060020201915061c28c7f7da5785ee5d0993b618cbd9dfe3d1e742dc0dd8435ee1b849fc6dd1679ba6e38600102619364565b61c2b87fb53b9b445d9c56c10b8c02401b3c269f341c82e850021031d4611c0b63596b29600102619364565b60068481548110151561c2c757fe5b9060005260206000209060020201905061c3037f2db583de487132a90cb96f1b320566b6af0b790b6fc44941f5033ea3295fcb5d600102619364565b61c32f7f586f39a25ee96cf91a243e0356ce633d0b6e116d1b42c4bb24005d0c9f10d4a9600102619364565b828160010160186101000a81548163ffffffff021916908363ffffffff16021790555061c37e7f9de694d711d7dee61fe3cc98584664e4aeab8f84a7b0a58b876e6969a6d375ab600102619364565b61c3aa7fd1705671d9b14eda2bd4d828dc669859330b6607020dded6e9fa832e7720c9bf600102619364565b61c3b38261c644565b61c3df7fbe260fef67811afe38d8859eb1d7704c5d2a9ab97e59736bf6a6c37123702b80600102619364565b61c40b7f143b7c2a8f6d67df1b9254adfe2d9154afcf2ec4bf95359d166f80eaf8b8af8d600102619364565b61c4148161c644565b61c4407f45df8ab7a7410d9b597fed01580bc9eeb70cbfca93c1decfb25fd9c1d8cb87f9600102619364565b600a600085815260200190815260200160002060006101000a81549073ffffffffffffffffffffffffffffffffffffffff021916905561c4a27f8c1a75a391b5d2b8f7f93a291a3b0549829a28cd8f5ffa8e36cb7ee671e15d88600102619364565b600a600084815260200190815260200160002060006101000a81549073ffffffffffffffffffffffffffffffffffffffff021916905561c5047f4665a9c48233799be943efe9dafa12e4265afb15dacdf7c5cdeb85a9396a46d1600102619364565b60106000815480929190600101919050555061c5427f71f515af926ff1399053c5a2dd922c2514d7a82f5364fe70b794722e6e80664d600102619364565b61c56e7fc2cbb1b7c74d1aed5d33e9f807a10d179ea195e0034de604356a42b84f53b5e9600102619364565b7f241ea03ca20251805084d27d4440371c34a0b85ff108f6bb5611248f73818b806007600086815260200190815260200160002060009054906101000a900473ffffffffffffffffffffffffffffffffffffffff1685858460010160089054906101000a900467ffffffffffffffff16604051808573ffffffffffffffffffffffffffffffffffffffff1673ffffffffffffffffffffffffffffffffffffffff1681526020018481526020018381526020018267ffffffffffffffff16815260200194505050505060405180910390a150505050565b61c6707fdfe29d04d80bc4b8b212c2acf84f0a43170482175082301b7f006c341b5774d4600102619364565b61c69c7f1887905a1bff995105060bc83483350398ce11df4ed973f8019b6750d81f293a600102619364565b61c6c87f7afa96d47ada90762dd020e23fa38eae542739303862290ef55846503e2f3017600102619364565b43600554600383600101601c9054906101000a900461ffff1661ffff16600e8110151561c6f157fe5b600891828204019190066004029054906101000a900463ffffffff1663ffffffff1681151561c71c57fe5b04018160010160086101000a81548167ffffffffffffffff021916908367ffffffffffffffff16021790555061c7747fd1c3df03e8e7a9f3b4887779b26aba6d0393c6d5953a0e246b0babea41296ba6600102619364565b61c7a07fca9883fc42aa6a45a5e5936df7f615198b62b57ae3c51637e41525fc8f32c96d600102619364565b600d81600101601c9054906101000a900461ffff1661ffff16101561c87b5761c7eb7f97b37817ff7d918b20b0ad89f9daaa75d6962cdf33e7b609da582660cb7e3d43600102619364565b61c8177f8821d1076f206d388045b85578ed064fccf9e4a1812505e5ad100f30050a664b600102619364565b61c8437f03ea38168c8998943c3634ae7b76fb72f7a8f1d5d9e6e7468d5df72be8e94b79600102619364565b600181600101601c8282829054906101000a900461ffff160192506101000a81548161ffff021916908361ffff16021790555061c8a8565b61c8a77f980383c2a5718c4af09b110ef8a239b78436a28c9198566959dc87b4468e5212600102619364565b5b50565b6101006040519081016040528060008152602001600067ffffffffffffffff168152602001600067ffffffffffffffff168152602001600063ffffffff168152602001600063ffffffff168152602001600063ffffffff168152602001600061ffff168152602001600061ffff16815250905600a165627a7a72305820159d143afbdedffce4b2397b25ed583264bf16a0fb681830dfc2f59c0ee7cc850029",
  "linkReferences": {},
  "deployedLinkReferences": {}
}