{
  "_format": "hh-sol-artifact-1",
  "contractName": "BotAccessControl",
  "sourceName": "contracts/BotCore.sol",
  "abi": [
    {
      "constant": true,
      "inputs": [],
      "name": "cfoAddress",
      "outputs": [
        {
          "name": "",
          "type": "address"
        }
      ],
      "payable": false,
      "stateMutability": "view",
      "type": "function"
    },
    {
      "constant": true,
      "inputs": [],
      "name": "ceoAddress",
      "outputs": [
        {
          "name": "",
          "type": "address"
        }
      ],
      "payable": false,
      "stateMutability": "view",
      "type": "function"
    },
    {
      "constant": false,
      "inputs": [
        {
          "name": "_newCEO",
          "type": "address"
        }
      ],
      "name": "setCEO",
      "outputs": [],
      "payable": false,
      "stateMutability": "nonpayable",
      "type": "function"
    },
    {
      "constant": false,
      "inputs": [
        {
          "name": "_newCOO",
          "type": "address"
        }
      ],
      "name": "setCOO",
      "outputs": [],
      "payable": false,
      "stateMutability": "nonpayable",
      "type": "function"
    },
    {
      "constant": false,
      "inputs": [],
      "name": "unpause",
      "outputs": [],
      "payable": false,
      "stateMutability": "nonpayable",
      "type": "function"
    },
    {
      "constant": false,
      "inputs": [
        {
          "name": "_newCFO",
          "type": "address"
        }
      ],
      "name": "setCFO",
      "outputs": [],
      "payable": false,
      "stateMutability": "nonpayable",
      "type": "function"
    },
    {
      "constant": true,
      "inputs": [],
      "name": "paused",
      "outputs": [
        {
          "name": "",
          "type": "bool"
        }
      ],
      "payable": false,
      "stateMutability": "view",
      "type": "function"
    },
    {
      "constant": false,
      "inputs": [],
      "name": "pause",
      "outputs": [],
      "payable": false,
      "stateMutability": "nonpayable",
      "type": "function"
    },
    {
      "constant": true,
      "inputs": [],
      "name": "cooAddress",
      "outputs": [
        {
          "name": "",
          "type": "address"
        }
      ],
      "payable": false,
      "stateMutability": "view",
      "type": "function"
    },
    {
      "anonymous": false,
      "inputs": [
        {
          "indexed": false,
          "name": "newContract",
          "type": "address"
        }
      ],
      "name": "ContractUpgrade",
      "type": "event"
    }
  ],
  "bytecode": "0x60806040526000600260146101000a81548160ff02191690831515021790555034801561002b57600080fd5b506113be8061003b6000396000f300608060405260043610610099576000357c0100000000000000000000000000000000000000000000000000000000900463ffffffff1680630519ce791461009e5780630a0f8168146100f557806327d7874c1461014c5780632ba73c151461018f5780633f4ba83a146101d25780634e0a3379146101e95780635c975abb1461022c5780638456cb591461025b578063b047fb5014610272575b600080fd5b3480156100aa57600080fd5b506100b36102c9565b604051808273ffffffffffffffffffffffffffffffffffffffff1673ffffffffffffffffffffffffffffffffffffffff16815260200191505060405180910390f35b34801561010157600080fd5b5061010a6102ef565b604051808273ffffffffffffffffffffffffffffffffffffffff1673ffffffffffffffffffffffffffffffffffffffff16815260200191505060405180910390f35b34801561015857600080fd5b5061018d600480360381019080803573ffffffffffffffffffffffffffffffffffffffff169060200190929190505050610314565b005b34801561019b57600080fd5b506101d0600480360381019080803573ffffffffffffffffffffffffffffffffffffffff16906020019092919050505061062a565b005b3480156101de57600080fd5b506101e7610941565b005b3480156101f557600080fd5b5061022a600480360381019080803573ffffffffffffffffffffffffffffffffffffffff169060200190929190505050610c68565b005b34801561023857600080fd5b50610241610f7f565b604051808215151515815260200191505060405180910390f35b34801561026757600080fd5b50610270610f92565b005b34801561027e57600080fd5b50610287611369565b604051808273ffffffffffffffffffffffffffffffffffffffff1673ffffffffffffffffffffffffffffffffffffffff16815260200191505060405180910390f35b600160009054906101000a900473ffffffffffffffffffffffffffffffffffffffff1681565b6000809054906101000a900473ffffffffffffffffffffffffffffffffffffffff1681565b6103407fcb049ed2f483be6c0944c2c03cebba45371d8e0ef11e4518263bd2fbbda7f59360010261138f565b61036c7f5dbffe83b36d40e7d651f2d3531e4a4824b9dc6ccb6586f84d10976bd60ae08d60010261138f565b6103987f31f8d3048db660f92f7d2b610b6a9c7cae1f6a13dda0027f8885b1f585ba628360010261138f565b6103c47fa2a47da5016dac4687136caeff8e35d8d21ddaedc8808cd08f29ccfc21bfac7360010261138f565b6000809054906101000a900473ffffffffffffffffffffffffffffffffffffffff1673ffffffffffffffffffffffffffffffffffffffff163373ffffffffffffffffffffffffffffffffffffffff1614151561041f57600080fd5b61044b7f75897d7cfe76dbf024f81b5ad6072a4019a8f8439308212c47ad1e9256df43c060010261138f565b6104777f3ffe5ec58b9e7787ceecb0adf9d00ef109fb30448b7229696966b751a6dac16160010261138f565b6104a37f5fc6eb43ffbf276b62f28fcbf60dc2c180db575c7e9e226e6c6c4ebc9d3cdca660010261138f565b6104cf7f8600bb7718bfaf280bafb2953b4f5e2e5b7f43eb718f188ebbcea7100f3ec91f60010261138f565b6104fb7ff67d7d4f85ade4d4ae9d316f7b6198c820cf3fbdc10cd6c34dbbaa33e43e5b1860010261138f565b6105277fd970e416a7b05f894e16d02c52d34731c3fc2e0bf8267719089224ee103507ca60010261138f565b600073ffffffffffffffffffffffffffffffffffffffff168173ffffffffffffffffffffffffffffffffffffffff161415151561056357600080fd5b61058f7f83b999badfe58cf9aa7350759d8fc576955adf6ab9762923d3e4195cc1fb053d60010261138f565b6105bb7fee8b0d121d8b68ba51424a21b862b2537b0180682b889c82daf52e6efd48137060010261138f565b6105e77f9023188c9cea07958449ac3498f26f8c50f0236650f38f89ba11bc880e682f3660010261138f565b806000806101000a81548173ffffffffffffffffffffffffffffffffffffffff021916908373ffffffffffffffffffffffffffffffffffffffff16021790555050565b6106567fcb049ed2f483be6c0944c2c03cebba45371d8e0ef11e4518263bd2fbbda7f59360010261138f565b6106827f5dbffe83b36d40e7d651f2d3531e4a4824b9dc6ccb6586f84d10976bd60ae08d60010261138f565b6106ae7f31f8d3048db660f92f7d2b610b6a9c7cae1f6a13dda0027f8885b1f585ba628360010261138f565b6106da7fa2a47da5016dac4687136caeff8e35d8d21ddaedc8808cd08f29ccfc21bfac7360010261138f565b6000809054906101000a900473ffffffffffffffffffffffffffffffffffffffff1673ffffffffffffffffffffffffffffffffffffffff163373ffffffffffffffffffffffffffffffffffffffff1614151561073557600080fd5b6107617f75897d7cfe76dbf024f81b5ad6072a4019a8f8439308212c47ad1e9256df43c060010261138f565b61078d7f3ffe5ec58b9e7787ceecb0adf9d00ef109fb30448b7229696966b751a6dac16160010261138f565b6107b97f88c886be51524dd73b922e35a02dca86d0c0b415cf3c56d62a1f13368b3d05e360010261138f565b6107e57f9f0996057a1a4719f75aa64801cbab8bb062056caa963266efdd3d64b675584e60010261138f565b6108117f54156e362d900300deebcd999007c710ad9bb1a442a2d97a5bf53bc07079ce3d60010261138f565b61083d7ffd23285df18ee46f15e8858285ad785009d6b2ae9b545be17c967db9f4bc953960010261138f565b600073ffffffffffffffffffffffffffffffffffffffff168173ffffffffffffffffffffffffffffffffffffffff161415151561087957600080fd5b6108a57fcc97a5c8c25fb6ff1ad805fecb7bc6de88c04a665024665354b9a7d6bb355b3d60010261138f565b6108d17fb755be836afd987e535ef2cf142d2fa3bc355b2d721ad31155fe8b917c9659e660010261138f565b6108fd7f171d8dd485a5f392b5cf3c25f90c4141d93dc94a5fdf9c612a3296f1700d389d60010261138f565b80600260006101000a81548173ffffffffffffffffffffffffffffffffffffffff021916908373ffffffffffffffffffffffffffffffffffffffff16021790555050565b61096d7fcb049ed2f483be6c0944c2c03cebba45371d8e0ef11e4518263bd2fbbda7f59360010261138f565b6109997f5dbffe83b36d40e7d651f2d3531e4a4824b9dc6ccb6586f84d10976bd60ae08d60010261138f565b6109c57f31f8d3048db660f92f7d2b610b6a9c7cae1f6a13dda0027f8885b1f585ba628360010261138f565b6109f17fa2a47da5016dac4687136caeff8e35d8d21ddaedc8808cd08f29ccfc21bfac7360010261138f565b6000809054906101000a900473ffffffffffffffffffffffffffffffffffffffff1673ffffffffffffffffffffffffffffffffffffffff163373ffffffffffffffffffffffffffffffffffffffff16141515610a4c57600080fd5b610a787f75897d7cfe76dbf024f81b5ad6072a4019a8f8439308212c47ad1e9256df43c060010261138f565b610aa47f3ffe5ec58b9e7787ceecb0adf9d00ef109fb30448b7229696966b751a6dac16160010261138f565b610ad07fee02b3c60f7bfcd131c9c4bfd3f91b2a91a6ce97b6a6d430726632917760560160010261138f565b610afc7f43afdfb745d28db79002d8d11f06a461d1a6196edc9d887c659754e88a29b92260010261138f565b610b287f8ec630ab56ff4ad877f695df339f06d409f6c7ddf449da0d8db84c833f37f76360010261138f565b610b547f6f467694727c3dc109758fd72c4058843bacb5cdcee39f9ace95414345acf38a60010261138f565b600260149054906101000a900460ff161515610b6f57600080fd5b610b9b7f39fe575960af02d10117b59a53d57d89b0bf68648612a8334474037b391b7fb360010261138f565b610bc77ff23eb7d426163ac3eb04e8e07e1cb74434c2877a79d57f6cff7670864e0f184160010261138f565b610bf37f9e488e65048831a2ec3bbe8010ee312b58023109c588537cf11da03689fc46a160010261138f565b610c1f7f19d1644c0ba78d7d9378f48abb0889dbb78b76b0f9b81111d08879bc90ea64ea60010261138f565b610c4b7f069eeaf91fae0aa54459b92512201a5b8a2253bd9002e53f35a603e641338e2b60010261138f565b6000600260146101000a81548160ff021916908315150217905550565b610c947fcb049ed2f483be6c0944c2c03cebba45371d8e0ef11e4518263bd2fbbda7f59360010261138f565b610cc07f5dbffe83b36d40e7d651f2d3531e4a4824b9dc6ccb6586f84d10976bd60ae08d60010261138f565b610cec7f31f8d3048db660f92f7d2b610b6a9c7cae1f6a13dda0027f8885b1f585ba628360010261138f565b610d187fa2a47da5016dac4687136caeff8e35d8d21ddaedc8808cd08f29ccfc21bfac7360010261138f565b6000809054906101000a900473ffffffffffffffffffffffffffffffffffffffff1673ffffffffffffffffffffffffffffffffffffffff163373ffffffffffffffffffffffffffffffffffffffff16141515610d7357600080fd5b610d9f7f75897d7cfe76dbf024f81b5ad6072a4019a8f8439308212c47ad1e9256df43c060010261138f565b610dcb7f3ffe5ec58b9e7787ceecb0adf9d00ef109fb30448b7229696966b751a6dac16160010261138f565b610df77ff1e72032e90a3e1a47208c42f7f34042a7e90b2f31193334e4b128d037b651c060010261138f565b610e237f78a7fa1c042e72da4ad8de55a20c66f852a96a40de26d4522e89bdf6e77d418660010261138f565b610e4f7f84296041346391b56842bae36df9b671b45eb524eaab184565542d7b914377a960010261138f565b610e7b7f60e69f9a5dd02a5938cafb1e9882e0b3408f195223129d88d76bf05cf0c9484f60010261138f565b600073ffffffffffffffffffffffffffffffffffffffff168173ffffffffffffffffffffffffffffffffffffffff1614151515610eb757600080fd5b610ee37feba6f866472b379aff7ab6f5ee6c37dde5f2de5f1389ef90ad259b8a37d3e30c60010261138f565b610f0f7ff08abe3269ba40116cd3b8d372e08d57d1ff0622934b37fd86afaf2895d00d0f60010261138f565b610f3b7f768722a54a3015d9d677146738ff817be4474287bb29c98cba6b2250674b944960010261138f565b80600160006101000a81548173ffffffffffffffffffffffffffffffffffffffff021916908373ffffffffffffffffffffffffffffffffffffffff16021790555050565b600260149054906101000a900460ff1681565b610fbe7fb69f109befabd82f0425a91e79f5bd4e799a7cec12ca055bf58bdf7fe88ad79360010261138f565b610fea7f4843d20f00be7ad37e3c9c8682a846faa4ca3c0ea1f9dc4c391997309853de2460010261138f565b6110167f20fc88088867130d183d94e5a9048dba311ceb5f1b9a4f5535adf564d8374b6d60010261138f565b6110427fbd896113fdf13ab83be8d5359d5f98252bcf796eea8f5545bf18b2e15a72912760010261138f565b600260009054906101000a900473ffffffffffffffffffffffffffffffffffffffff1673ffffffffffffffffffffffffffffffffffffffff163373ffffffffffffffffffffffffffffffffffffffff1614806110ea57506000809054906101000a900473ffffffffffffffffffffffffffffffffffffffff1673ffffffffffffffffffffffffffffffffffffffff163373ffffffffffffffffffffffffffffffffffffffff16145b806111425750600160009054906101000a900473ffffffffffffffffffffffffffffffffffffffff1673ffffffffffffffffffffffffffffffffffffffff163373ffffffffffffffffffffffffffffffffffffffff16145b151561114d57600080fd5b6111797f60622880a82287035558e7b8916b20a1e316cee24d7ae16889a055eab3d5531660010261138f565b6111a57fd0b955e469a12ebbfb62ad1da478a6acecacfd1ebcf54bf0dad13514548cd97960010261138f565b6111d17fcb2648b67b0de279cb753577ec77c6b2ea08d23aa34ef2f48c5aab3c2f7b331360010261138f565b6111fd7f6f460441e04e9f2fab210055dfdc65babe4e31ac3fe89dcb41c84c7fb037599160010261138f565b6112297f3dde09caefb3a1f40ad03cded37744ff16ee712b622d5384bd28cad309760ae760010261138f565b6112557f7808d25d5414a096b7d4484dd157a0f0c9b5f6c11dae49f7d70fd4cb3bbde23260010261138f565b600260149054906101000a900460ff1615151561127157600080fd5b61129d7f8b5d68b72118d3191a023266c39777d9f072660abc89f2761d9e6c792bd310c360010261138f565b6112c87ead53c480053279c157a04c0652ee4064d1c599d726b53bdfe5e51538b4069160010261138f565b6112f47fa07ca5d175b133ae832f77419d6f3b779170753f00463e0943a8af7cc681008860010261138f565b6113207fc42a084f1bec46c22a34c451ca67a9000bb683163b10d858e18d49d6ce637f7360010261138f565b61134c7f0daab85665d9b4c8a0072fc446e1de6088d904d0dff31d5507110d249b2b78ec60010261138f565b6001600260146101000a81548160ff021916908315150217905550565b600260009054906101000a900473ffffffffffffffffffffffffffffffffffffffff1681565b505600a165627a7a72305820e88bd077eb49575363bea7b473f0818563698d005ba1346548a115619c9337be0029",
  "linkReferences": {},
  "deployedLinkReferences": {}
}