{
  "_format": "hh-sol-artifact-1",
  "contractName": "BotBase",
  "sourceName": "contracts/BotCore.sol",
  "abi": [
    {
      "constant": true,
      "inputs": [],
      "name": "cfoAddress",
      "outputs": [
        {
          "name": "",
          "type": "address"
        }
      ],
      "payable": false,
      "stateMutability": "view",
      "type": "function"
    },
    {
      "constant": true,
      "inputs": [],
      "name": "ceoAddress",
      "outputs": [
        {
          "name": "",
          "type": "address"
        }
      ],
      "payable": false,
      "stateMutability": "view",
      "type": "function"
    },
    {
      "constant": true,
      "inputs": [],
      "name": "siringAuction",
      "outputs": [
        {
          "name": "",
          "type": "address"
        }
      ],
      "payable": false,
      "stateMutability": "view",
      "type": "function"
    },
    {
      "constant": true,
      "inputs": [
        {
          "name": "",
          "type": "uint256"
        }
      ],
      "name": "botIndexToOwner",
      "outputs": [
        {
          "name": "",
          "type": "address"
        }
      ],
      "payable": false,
      "stateMutability": "view",
      "type": "function"
    },
    {
      "constant": false,
      "inputs": [
        {
          "name": "_newCEO",
          "type": "address"
        }
      ],
      "name": "setCEO",
      "outputs": [],
      "payable": false,
      "stateMutability": "nonpayable",
      "type": "function"
    },
    {
      "constant": false,
      "inputs": [
        {
          "name": "_newCOO",
          "type": "address"
        }
      ],
      "name": "setCOO",
      "outputs": [],
      "payable": false,
      "stateMutability": "nonpayable",
      "type": "function"
    },
    {
      "constant": false,
      "inputs": [],
      "name": "unpause",
      "outputs": [],
      "payable": false,
      "stateMutability": "nonpayable",
      "type": "function"
    },
    {
      "constant": true,
      "inputs": [
        {
          "name": "",
          "type": "uint256"
        }
      ],
      "name": "sireAllowedToAddress",
      "outputs": [
        {
          "name": "",
          "type": "address"
        }
      ],
      "payable": false,
      "stateMutability": "view",
      "type": "function"
    },
    {
      "constant": false,
      "inputs": [
        {
          "name": "_newCFO",
          "type": "address"
        }
      ],
      "name": "setCFO",
      "outputs": [],
      "payable": false,
      "stateMutability": "nonpayable",
      "type": "function"
    },
    {
      "constant": false,
      "inputs": [
        {
          "name": "secs",
          "type": "uint256"
        }
      ],
      "name": "setSecondsPerBlock",
      "outputs": [],
      "payable": false,
      "stateMutability": "nonpayable",
      "type": "function"
    },
    {
      "constant": true,
      "inputs": [],
      "name": "paused",
      "outputs": [
        {
          "name": "",
          "type": "bool"
        }
      ],
      "payable": false,
      "stateMutability": "view",
      "type": "function"
    },
    {
      "constant": true,
      "inputs": [],
      "name": "destroyedBots",
      "outputs": [
        {
          "name": "",
          "type": "uint32"
        }
      ],
      "payable": false,
      "stateMutability": "view",
      "type": "function"
    },
    {
      "constant": true,
      "inputs": [],
      "name": "secondsPerBlock",
      "outputs": [
        {
          "name": "",
          "type": "uint256"
        }
      ],
      "payable": false,
      "stateMutability": "view",
      "type": "function"
    },
    {
      "constant": false,
      "inputs": [],
      "name": "pause",
      "outputs": [],
      "payable": false,
      "stateMutability": "nonpayable",
      "type": "function"
    },
    {
      "constant": true,
      "inputs": [
        {
          "name": "",
          "type": "uint256"
        }
      ],
      "name": "cooldowns",
      "outputs": [
        {
          "name": "",
          "type": "uint32"
        }
      ],
      "payable": false,
      "stateMutability": "view",
      "type": "function"
    },
    {
      "constant": true,
      "inputs": [
        {
          "name": "",
          "type": "uint256"
        }
      ],
      "name": "botIndexToApproved",
      "outputs": [
        {
          "name": "",
          "type": "address"
        }
      ],
      "payable": false,
      "stateMutability": "view",
      "type": "function"
    },
    {
      "constant": true,
      "inputs": [],
      "name": "cooAddress",
      "outputs": [
        {
          "name": "",
          "type": "address"
        }
      ],
      "payable": false,
      "stateMutability": "view",
      "type": "function"
    },
    {
      "constant": true,
      "inputs": [],
      "name": "saleAuction",
      "outputs": [
        {
          "name": "",
          "type": "address"
        }
      ],
      "payable": false,
      "stateMutability": "view",
      "type": "function"
    },
    {
      "anonymous": false,
      "inputs": [
        {
          "indexed": false,
          "name": "owner",
          "type": "address"
        },
        {
          "indexed": false,
          "name": "botId",
          "type": "uint256"
        },
        {
          "indexed": false,
          "name": "matronId",
          "type": "uint256"
        },
        {
          "indexed": false,
          "name": "sireId",
          "type": "uint256"
        },
        {
          "indexed": false,
          "name": "genes",
          "type": "uint256"
        },
        {
          "indexed": false,
          "name": "birthTime",
          "type": "uint256"
        }
      ],
      "name": "Birth",
      "type": "event"
    },
    {
      "anonymous": false,
      "inputs": [
        {
          "indexed": false,
          "name": "from",
          "type": "address"
        },
        {
          "indexed": false,
          "name": "to",
          "type": "address"
        },
        {
          "indexed": false,
          "name": "tokenId",
          "type": "uint256"
        }
      ],
      "name": "Transfer",
      "type": "event"
    },
    {
      "anonymous": false,
      "inputs": [
        {
          "indexed": false,
          "name": "newContract",
          "type": "address"
        }
      ],
      "name": "ContractUpgrade",
      "type": "event"
    }
  ],
  "bytecode": "0x60806040526000600260146101000a81548160ff0219169083151502179055506101c060405190810160405280603c63ffffffff1663ffffffff168152602001607863ffffffff1663ffffffff16815260200161012c63ffffffff1663ffffffff16815260200161025863ffffffff1663ffffffff16815260200161070863ffffffff1663ffffffff168152602001610e1063ffffffff1663ffffffff168152602001611c2063ffffffff1663ffffffff16815260200161384063ffffffff1663ffffffff16815260200161708063ffffffff1663ffffffff16815260200161e10063ffffffff1663ffffffff1681526020016201518063ffffffff1663ffffffff1681526020016202a30063ffffffff1663ffffffff1681526020016205460063ffffffff1663ffffffff16815260200162093a8063ffffffff1663ffffffff16815250600390600e6200015692919062000170565b50600f6005553480156200016957600080fd5b5062000250565b82600e600701600890048101928215620002075791602002820160005b83821115620001d357835183826101000a81548163ffffffff021916908363ffffffff16021790555092602001926004016020816003010492830192600103026200018d565b8015620002055782816101000a81549063ffffffff0219169055600401602081600301049283019260010302620001d3565b505b5090506200021691906200021a565b5090565b6200024d91905b808211156200024957600081816101000a81549063ffffffff02191690555060010162000221565b5090565b90565b611bb580620002606000396000f3006080604052600436106100fc576000357c0100000000000000000000000000000000000000000000000000000000900463ffffffff1680630519ce79146101015780630a0f81681461015857806321717ebf146101af57806327ab9f201461020657806327d7874c146102735780632ba73c15146102b65780633f4ba83a146102f957806346116e6f146103105780634e0a33791461037d5780635663896e146103c05780635c975abb146103ed57806361b6683c1461041c5780637a7d4937146104535780638456cb591461047e5780639d6fac6f14610495578063a8f8884d146104e2578063b047fb501461054f578063e6cbe351146105a6575b600080fd5b34801561010d57600080fd5b506101166105fd565b604051808273ffffffffffffffffffffffffffffffffffffffff1673ffffffffffffffffffffffffffffffffffffffff16815260200191505060405180910390f35b34801561016457600080fd5b5061016d610623565b604051808273ffffffffffffffffffffffffffffffffffffffff1673ffffffffffffffffffffffffffffffffffffffff16815260200191505060405180910390f35b3480156101bb57600080fd5b506101c4610648565b604051808273ffffffffffffffffffffffffffffffffffffffff1673ffffffffffffffffffffffffffffffffffffffff16815260200191505060405180910390f35b34801561021257600080fd5b506102316004803603810190808035906020019092919050505061066e565b604051808273ffffffffffffffffffffffffffffffffffffffff1673ffffffffffffffffffffffffffffffffffffffff16815260200191505060405180910390f35b34801561027f57600080fd5b506102b4600480360381019080803573ffffffffffffffffffffffffffffffffffffffff1690602001909291905050506106a1565b005b3480156102c257600080fd5b506102f7600480360381019080803573ffffffffffffffffffffffffffffffffffffffff1690602001909291905050506109b7565b005b34801561030557600080fd5b5061030e610cce565b005b34801561031c57600080fd5b5061033b60048036038101908080359060200190929190505050610ff5565b604051808273ffffffffffffffffffffffffffffffffffffffff1673ffffffffffffffffffffffffffffffffffffffff16815260200191505060405180910390f35b34801561038957600080fd5b506103be600480360381019080803573ffffffffffffffffffffffffffffffffffffffff169060200190929190505050611028565b005b3480156103cc57600080fd5b506103eb6004803603810190808035906020019092919050505061133f565b005b3480156103f957600080fd5b506104026116cf565b604051808215151515815260200191505060405180910390f35b34801561042857600080fd5b506104316116e2565b604051808263ffffffff1663ffffffff16815260200191505060405180910390f35b34801561045f57600080fd5b506104686116f8565b6040518082815260200191505060405180910390f35b34801561048a57600080fd5b506104936116fe565b005b3480156104a157600080fd5b506104c060048036038101908080359060200190929190505050611ad5565b604051808263ffffffff1663ffffffff16815260200191505060405180910390f35b3480156104ee57600080fd5b5061050d60048036038101908080359060200190929190505050611b04565b604051808273ffffffffffffffffffffffffffffffffffffffff1673ffffffffffffffffffffffffffffffffffffffff16815260200191505060405180910390f35b34801561055b57600080fd5b50610564611b37565b604051808273ffffffffffffffffffffffffffffffffffffffff1673ffffffffffffffffffffffffffffffffffffffff16815260200191505060405180910390f35b3480156105b257600080fd5b506105bb611b5d565b604051808273ffffffffffffffffffffffffffffffffffffffff1673ffffffffffffffffffffffffffffffffffffffff16815260200191505060405180910390f35b600160009054906101000a900473ffffffffffffffffffffffffffffffffffffffff1681565b6000809054906101000a900473ffffffffffffffffffffffffffffffffffffffff1681565b600c60009054906101000a900473ffffffffffffffffffffffffffffffffffffffff1681565b60076020528060005260406000206000915054906101000a900473ffffffffffffffffffffffffffffffffffffffff1681565b6106cd7fcb049ed2f483be6c0944c2c03cebba45371d8e0ef11e4518263bd2fbbda7f593600102611b83565b6106f97f5dbffe83b36d40e7d651f2d3531e4a4824b9dc6ccb6586f84d10976bd60ae08d600102611b83565b6107257f31f8d3048db660f92f7d2b610b6a9c7cae1f6a13dda0027f8885b1f585ba6283600102611b83565b6107517fa2a47da5016dac4687136caeff8e35d8d21ddaedc8808cd08f29ccfc21bfac73600102611b83565b6000809054906101000a900473ffffffffffffffffffffffffffffffffffffffff1673ffffffffffffffffffffffffffffffffffffffff163373ffffffffffffffffffffffffffffffffffffffff161415156107ac57600080fd5b6107d87f75897d7cfe76dbf024f81b5ad6072a4019a8f8439308212c47ad1e9256df43c0600102611b83565b6108047f3ffe5ec58b9e7787ceecb0adf9d00ef109fb30448b7229696966b751a6dac161600102611b83565b6108307f5fc6eb43ffbf276b62f28fcbf60dc2c180db575c7e9e226e6c6c4ebc9d3cdca6600102611b83565b61085c7f8600bb7718bfaf280bafb2953b4f5e2e5b7f43eb718f188ebbcea7100f3ec91f600102611b83565b6108887ff67d7d4f85ade4d4ae9d316f7b6198c820cf3fbdc10cd6c34dbbaa33e43e5b18600102611b83565b6108b47fd970e416a7b05f894e16d02c52d34731c3fc2e0bf8267719089224ee103507ca600102611b83565b600073ffffffffffffffffffffffffffffffffffffffff168173ffffffffffffffffffffffffffffffffffffffff16141515156108f057600080fd5b61091c7f83b999badfe58cf9aa7350759d8fc576955adf6ab9762923d3e4195cc1fb053d600102611b83565b6109487fee8b0d121d8b68ba51424a21b862b2537b0180682b889c82daf52e6efd481370600102611b83565b6109747f9023188c9cea07958449ac3498f26f8c50f0236650f38f89ba11bc880e682f36600102611b83565b806000806101000a81548173ffffffffffffffffffffffffffffffffffffffff021916908373ffffffffffffffffffffffffffffffffffffffff16021790555050565b6109e37fcb049ed2f483be6c0944c2c03cebba45371d8e0ef11e4518263bd2fbbda7f593600102611b83565b610a0f7f5dbffe83b36d40e7d651f2d3531e4a4824b9dc6ccb6586f84d10976bd60ae08d600102611b83565b610a3b7f31f8d3048db660f92f7d2b610b6a9c7cae1f6a13dda0027f8885b1f585ba6283600102611b83565b610a677fa2a47da5016dac4687136caeff8e35d8d21ddaedc8808cd08f29ccfc21bfac73600102611b83565b6000809054906101000a900473ffffffffffffffffffffffffffffffffffffffff1673ffffffffffffffffffffffffffffffffffffffff163373ffffffffffffffffffffffffffffffffffffffff16141515610ac257600080fd5b610aee7f75897d7cfe76dbf024f81b5ad6072a4019a8f8439308212c47ad1e9256df43c0600102611b83565b610b1a7f3ffe5ec58b9e7787ceecb0adf9d00ef109fb30448b7229696966b751a6dac161600102611b83565b610b467f88c886be51524dd73b922e35a02dca86d0c0b415cf3c56d62a1f13368b3d05e3600102611b83565b610b727f9f0996057a1a4719f75aa64801cbab8bb062056caa963266efdd3d64b675584e600102611b83565b610b9e7f54156e362d900300deebcd999007c710ad9bb1a442a2d97a5bf53bc07079ce3d600102611b83565b610bca7ffd23285df18ee46f15e8858285ad785009d6b2ae9b545be17c967db9f4bc9539600102611b83565b600073ffffffffffffffffffffffffffffffffffffffff168173ffffffffffffffffffffffffffffffffffffffff1614151515610c0657600080fd5b610c327fcc97a5c8c25fb6ff1ad805fecb7bc6de88c04a665024665354b9a7d6bb355b3d600102611b83565b610c5e7fb755be836afd987e535ef2cf142d2fa3bc355b2d721ad31155fe8b917c9659e6600102611b83565b610c8a7f171d8dd485a5f392b5cf3c25f90c4141d93dc94a5fdf9c612a3296f1700d389d600102611b83565b80600260006101000a81548173ffffffffffffffffffffffffffffffffffffffff021916908373ffffffffffffffffffffffffffffffffffffffff16021790555050565b610cfa7fcb049ed2f483be6c0944c2c03cebba45371d8e0ef11e4518263bd2fbbda7f593600102611b83565b610d267f5dbffe83b36d40e7d651f2d3531e4a4824b9dc6ccb6586f84d10976bd60ae08d600102611b83565b610d527f31f8d3048db660f92f7d2b610b6a9c7cae1f6a13dda0027f8885b1f585ba6283600102611b83565b610d7e7fa2a47da5016dac4687136caeff8e35d8d21ddaedc8808cd08f29ccfc21bfac73600102611b83565b6000809054906101000a900473ffffffffffffffffffffffffffffffffffffffff1673ffffffffffffffffffffffffffffffffffffffff163373ffffffffffffffffffffffffffffffffffffffff16141515610dd957600080fd5b610e057f75897d7cfe76dbf024f81b5ad6072a4019a8f8439308212c47ad1e9256df43c0600102611b83565b610e317f3ffe5ec58b9e7787ceecb0adf9d00ef109fb30448b7229696966b751a6dac161600102611b83565b610e5d7fee02b3c60f7bfcd131c9c4bfd3f91b2a91a6ce97b6a6d4307266329177605601600102611b83565b610e897f43afdfb745d28db79002d8d11f06a461d1a6196edc9d887c659754e88a29b922600102611b83565b610eb57f8ec630ab56ff4ad877f695df339f06d409f6c7ddf449da0d8db84c833f37f763600102611b83565b610ee17f6f467694727c3dc109758fd72c4058843bacb5cdcee39f9ace95414345acf38a600102611b83565b600260149054906101000a900460ff161515610efc57600080fd5b610f287f39fe575960af02d10117b59a53d57d89b0bf68648612a8334474037b391b7fb3600102611b83565b610f547ff23eb7d426163ac3eb04e8e07e1cb74434c2877a79d57f6cff7670864e0f1841600102611b83565b610f807f9e488e65048831a2ec3bbe8010ee312b58023109c588537cf11da03689fc46a1600102611b83565b610fac7f19d1644c0ba78d7d9378f48abb0889dbb78b76b0f9b81111d08879bc90ea64ea600102611b83565b610fd87f069eeaf91fae0aa54459b92512201a5b8a2253bd9002e53f35a603e641338e2b600102611b83565b6000600260146101000a81548160ff021916908315150217905550565b600a6020528060005260406000206000915054906101000a900473ffffffffffffffffffffffffffffffffffffffff1681565b6110547fcb049ed2f483be6c0944c2c03cebba45371d8e0ef11e4518263bd2fbbda7f593600102611b83565b6110807f5dbffe83b36d40e7d651f2d3531e4a4824b9dc6ccb6586f84d10976bd60ae08d600102611b83565b6110ac7f31f8d3048db660f92f7d2b610b6a9c7cae1f6a13dda0027f8885b1f585ba6283600102611b83565b6110d87fa2a47da5016dac4687136caeff8e35d8d21ddaedc8808cd08f29ccfc21bfac73600102611b83565b6000809054906101000a900473ffffffffffffffffffffffffffffffffffffffff1673ffffffffffffffffffffffffffffffffffffffff163373ffffffffffffffffffffffffffffffffffffffff1614151561113357600080fd5b61115f7f75897d7cfe76dbf024f81b5ad6072a4019a8f8439308212c47ad1e9256df43c0600102611b83565b61118b7f3ffe5ec58b9e7787ceecb0adf9d00ef109fb30448b7229696966b751a6dac161600102611b83565b6111b77ff1e72032e90a3e1a47208c42f7f34042a7e90b2f31193334e4b128d037b651c0600102611b83565b6111e37f78a7fa1c042e72da4ad8de55a20c66f852a96a40de26d4522e89bdf6e77d4186600102611b83565b61120f7f84296041346391b56842bae36df9b671b45eb524eaab184565542d7b914377a9600102611b83565b61123b7f60e69f9a5dd02a5938cafb1e9882e0b3408f195223129d88d76bf05cf0c9484f600102611b83565b600073ffffffffffffffffffffffffffffffffffffffff168173ffffffffffffffffffffffffffffffffffffffff161415151561127757600080fd5b6112a37feba6f866472b379aff7ab6f5ee6c37dde5f2de5f1389ef90ad259b8a37d3e30c600102611b83565b6112cf7ff08abe3269ba40116cd3b8d372e08d57d1ff0622934b37fd86afaf2895d00d0f600102611b83565b6112fb7f768722a54a3015d9d677146738ff817be4474287bb29c98cba6b2250674b9449600102611b83565b80600160006101000a81548173ffffffffffffffffffffffffffffffffffffffff021916908373ffffffffffffffffffffffffffffffffffffffff16021790555050565b61136b7fb69f109befabd82f0425a91e79f5bd4e799a7cec12ca055bf58bdf7fe88ad793600102611b83565b6113977f4843d20f00be7ad37e3c9c8682a846faa4ca3c0ea1f9dc4c391997309853de24600102611b83565b6113c37f20fc88088867130d183d94e5a9048dba311ceb5f1b9a4f5535adf564d8374b6d600102611b83565b6113ef7fbd896113fdf13ab83be8d5359d5f98252bcf796eea8f5545bf18b2e15a729127600102611b83565b600260009054906101000a900473ffffffffffffffffffffffffffffffffffffffff1673ffffffffffffffffffffffffffffffffffffffff163373ffffffffffffffffffffffffffffffffffffffff16148061149757506000809054906101000a900473ffffffffffffffffffffffffffffffffffffffff1673ffffffffffffffffffffffffffffffffffffffff163373ffffffffffffffffffffffffffffffffffffffff16145b806114ef5750600160009054906101000a900473ffffffffffffffffffffffffffffffffffffffff1673ffffffffffffffffffffffffffffffffffffffff163373ffffffffffffffffffffffffffffffffffffffff16145b15156114fa57600080fd5b6115267f60622880a82287035558e7b8916b20a1e316cee24d7ae16889a055eab3d55316600102611b83565b6115527fd0b955e469a12ebbfb62ad1da478a6acecacfd1ebcf54bf0dad13514548cd979600102611b83565b61157e7f88c7b7750111464c97655b2d1d9753b38c6f77aef0856ee80507f7099872697d600102611b86565b6115aa7febeefd441312018ec6deb6b0edaa454d5161fd9efa6ef40328812fadec8d0da3600102611b86565b6115d67f701900518f35ca476c958b90a5f2bede67febfc77eab1b093f6494b32b99cdf0600102611b86565b6116027f5382d0930765c0f082dd7aa6eb2b76fcd9f11b30924e1a951fd617237a8b304c600102611b86565b60036000600e8110151561161257fe5b600891828204019190066004029054906101000a900463ffffffff1663ffffffff168110151561164157600080fd5b61166d7f1a848bfce7342e2d2242b8a58161fe912c6dbbca8a7ce0047cb4eeee320ffb28600102611b86565b6116997f4060d5ff5377de6c4483c6917cbed376e4288dc779d82b477cd35ea98d2e2689600102611b86565b6116c57f31535343482e20ce8423fef900115f5c7475e7adb6f6c1d4f3efba6af014bbc8600102611b86565b8060058190555050565b600260149054906101000a900460ff1681565b600b60009054906101000a900463ffffffff1681565b60055481565b61172a7fb69f109befabd82f0425a91e79f5bd4e799a7cec12ca055bf58bdf7fe88ad793600102611b83565b6117567f4843d20f00be7ad37e3c9c8682a846faa4ca3c0ea1f9dc4c391997309853de24600102611b83565b6117827f20fc88088867130d183d94e5a9048dba311ceb5f1b9a4f5535adf564d8374b6d600102611b83565b6117ae7fbd896113fdf13ab83be8d5359d5f98252bcf796eea8f5545bf18b2e15a729127600102611b83565b600260009054906101000a900473ffffffffffffffffffffffffffffffffffffffff1673ffffffffffffffffffffffffffffffffffffffff163373ffffffffffffffffffffffffffffffffffffffff16148061185657506000809054906101000a900473ffffffffffffffffffffffffffffffffffffffff1673ffffffffffffffffffffffffffffffffffffffff163373ffffffffffffffffffffffffffffffffffffffff16145b806118ae5750600160009054906101000a900473ffffffffffffffffffffffffffffffffffffffff1673ffffffffffffffffffffffffffffffffffffffff163373ffffffffffffffffffffffffffffffffffffffff16145b15156118b957600080fd5b6118e57f60622880a82287035558e7b8916b20a1e316cee24d7ae16889a055eab3d55316600102611b83565b6119117fd0b955e469a12ebbfb62ad1da478a6acecacfd1ebcf54bf0dad13514548cd979600102611b83565b61193d7fcb2648b67b0de279cb753577ec77c6b2ea08d23aa34ef2f48c5aab3c2f7b3313600102611b83565b6119697f6f460441e04e9f2fab210055dfdc65babe4e31ac3fe89dcb41c84c7fb0375991600102611b83565b6119957f3dde09caefb3a1f40ad03cded37744ff16ee712b622d5384bd28cad309760ae7600102611b83565b6119c17f7808d25d5414a096b7d4484dd157a0f0c9b5f6c11dae49f7d70fd4cb3bbde232600102611b83565b600260149054906101000a900460ff161515156119dd57600080fd5b611a097f8b5d68b72118d3191a023266c39777d9f072660abc89f2761d9e6c792bd310c3600102611b83565b611a347ead53c480053279c157a04c0652ee4064d1c599d726b53bdfe5e51538b40691600102611b83565b611a607fa07ca5d175b133ae832f77419d6f3b779170753f00463e0943a8af7cc6810088600102611b83565b611a8c7fc42a084f1bec46c22a34c451ca67a9000bb683163b10d858e18d49d6ce637f73600102611b83565b611ab87f0daab85665d9b4c8a0072fc446e1de6088d904d0dff31d5507110d249b2b78ec600102611b83565b6001600260146101000a81548160ff021916908315150217905550565b600381600e81101515611ae457fe5b60089182820401919006600402915054906101000a900463ffffffff1681565b60096020528060005260406000206000915054906101000a900473ffffffffffffffffffffffffffffffffffffffff1681565b600260009054906101000a900473ffffffffffffffffffffffffffffffffffffffff1681565b600b60049054906101000a900473ffffffffffffffffffffffffffffffffffffffff1681565b50565b505600a165627a7a723058202a3eb290006682c4429fcc3d45328ff41ac6648222307f7b269969b366e1abfa0029",
  "linkReferences": {},
  "deployedLinkReferences": {}
}