{
  "_format": "hh-sol-artifact-1",
  "contractName": "BotBreeding",
  "sourceName": "contracts/BotCore.sol",
  "abi": [
    {
      "constant": true,
      "inputs": [],
      "name": "cfoAddress",
      "outputs": [
        {
          "name": "",
          "type": "address"
        }
      ],
      "payable": false,
      "stateMutability": "view",
      "type": "function"
    },
    {
      "constant": true,
      "inputs": [],
      "name": "name",
      "outputs": [
        {
          "name": "",
          "type": "string"
        }
      ],
      "payable": false,
      "stateMutability": "view",
      "type": "function"
    },
    {
      "constant": false,
      "inputs": [
        {
          "name": "_to",
          "type": "address"
        },
        {
          "name": "_tokenId",
          "type": "uint256"
        }
      ],
      "name": "approve",
      "outputs": [],
      "payable": false,
      "stateMutability": "nonpayable",
      "type": "function"
    },
    {
      "constant": true,
      "inputs": [],
      "name": "ceoAddress",
      "outputs": [
        {
          "name": "",
          "type": "address"
        }
      ],
      "payable": false,
      "stateMutability": "view",
      "type": "function"
    },
    {
      "constant": false,
      "inputs": [
        {
          "name": "_contract",
          "type": "address"
        }
      ],
      "name": "addExtension",
      "outputs": [],
      "payable": false,
      "stateMutability": "nonpayable",
      "type": "function"
    },
    {
      "constant": true,
      "inputs": [],
      "name": "totalSupply",
      "outputs": [
        {
          "name": "",
          "type": "uint256"
        }
      ],
      "payable": false,
      "stateMutability": "view",
      "type": "function"
    },
    {
      "constant": true,
      "inputs": [
        {
          "name": "_botId",
          "type": "uint256"
        }
      ],
      "name": "isPregnant",
      "outputs": [
        {
          "name": "",
          "type": "bool"
        }
      ],
      "payable": false,
      "stateMutability": "view",
      "type": "function"
    },
    {
      "constant": true,
      "inputs": [],
      "name": "siringAuction",
      "outputs": [
        {
          "name": "",
          "type": "address"
        }
      ],
      "payable": false,
      "stateMutability": "view",
      "type": "function"
    },
    {
      "constant": false,
      "inputs": [
        {
          "name": "_contract",
          "type": "address"
        }
      ],
      "name": "removeExtension",
      "outputs": [],
      "payable": false,
      "stateMutability": "nonpayable",
      "type": "function"
    },
    {
      "constant": false,
      "inputs": [
        {
          "name": "_from",
          "type": "address"
        },
        {
          "name": "_to",
          "type": "address"
        },
        {
          "name": "_tokenId",
          "type": "uint256"
        }
      ],
      "name": "transferFrom",
      "outputs": [],
      "payable": false,
      "stateMutability": "nonpayable",
      "type": "function"
    },
    {
      "constant": false,
      "inputs": [
        {
          "name": "_address",
          "type": "address"
        }
      ],
      "name": "setGeneScienceAddress",
      "outputs": [],
      "payable": false,
      "stateMutability": "nonpayable",
      "type": "function"
    },
    {
      "constant": true,
      "inputs": [
        {
          "name": "",
          "type": "uint256"
        }
      ],
      "name": "botIndexToOwner",
      "outputs": [
        {
          "name": "",
          "type": "address"
        }
      ],
      "payable": false,
      "stateMutability": "view",
      "type": "function"
    },
    {
      "constant": false,
      "inputs": [
        {
          "name": "_newCEO",
          "type": "address"
        }
      ],
      "name": "setCEO",
      "outputs": [],
      "payable": false,
      "stateMutability": "nonpayable",
      "type": "function"
    },
    {
      "constant": false,
      "inputs": [
        {
          "name": "_newCOO",
          "type": "address"
        }
      ],
      "name": "setCOO",
      "outputs": [],
      "payable": false,
      "stateMutability": "nonpayable",
      "type": "function"
    },
    {
      "constant": false,
      "inputs": [
        {
          "name": "_botId",
          "type": "uint256"
        },
        {
          "name": "_mask",
          "type": "uint16"
        }
      ],
      "name": "extUnlockBot",
      "outputs": [
        {
          "name": "",
          "type": "uint16"
        }
      ],
      "payable": false,
      "stateMutability": "nonpayable",
      "type": "function"
    },
    {
      "constant": false,
      "inputs": [],
      "name": "unpause",
      "outputs": [],
      "payable": false,
      "stateMutability": "nonpayable",
      "type": "function"
    },
    {
      "constant": true,
      "inputs": [
        {
          "name": "",
          "type": "uint256"
        }
      ],
      "name": "sireAllowedToAddress",
      "outputs": [
        {
          "name": "",
          "type": "address"
        }
      ],
      "payable": false,
      "stateMutability": "view",
      "type": "function"
    },
    {
      "constant": true,
      "inputs": [
        {
          "name": "_matronId",
          "type": "uint256"
        },
        {
          "name": "_sireId",
          "type": "uint256"
        }
      ],
      "name": "canBreedWith",
      "outputs": [
        {
          "name": "",
          "type": "bool"
        }
      ],
      "payable": false,
      "stateMutability": "view",
      "type": "function"
    },
    {
      "constant": false,
      "inputs": [
        {
          "name": "val",
          "type": "uint256"
        }
      ],
      "name": "setAutoBirthFee",
      "outputs": [],
      "payable": false,
      "stateMutability": "nonpayable",
      "type": "function"
    },
    {
      "constant": false,
      "inputs": [
        {
          "name": "_addr",
          "type": "address"
        },
        {
          "name": "_sireId",
          "type": "uint256"
        }
      ],
      "name": "approveSiring",
      "outputs": [],
      "payable": false,
      "stateMutability": "nonpayable",
      "type": "function"
    },
    {
      "constant": false,
      "inputs": [
        {
          "name": "_newCFO",
          "type": "address"
        }
      ],
      "name": "setCFO",
      "outputs": [],
      "payable": false,
      "stateMutability": "nonpayable",
      "type": "function"
    },
    {
      "constant": true,
      "inputs": [],
      "name": "pregnantBots",
      "outputs": [
        {
          "name": "",
          "type": "uint256"
        }
      ],
      "payable": false,
      "stateMutability": "view",
      "type": "function"
    },
    {
      "constant": false,
      "inputs": [
        {
          "name": "secs",
          "type": "uint256"
        }
      ],
      "name": "setSecondsPerBlock",
      "outputs": [],
      "payable": false,
      "stateMutability": "nonpayable",
      "type": "function"
    },
    {
      "constant": true,
      "inputs": [],
      "name": "paused",
      "outputs": [
        {
          "name": "",
          "type": "bool"
        }
      ],
      "payable": false,
      "stateMutability": "view",
      "type": "function"
    },
    {
      "constant": true,
      "inputs": [],
      "name": "destroyedBots",
      "outputs": [
        {
          "name": "",
          "type": "uint32"
        }
      ],
      "payable": false,
      "stateMutability": "view",
      "type": "function"
    },
    {
      "constant": true,
      "inputs": [
        {
          "name": "_tokenId",
          "type": "uint256"
        }
      ],
      "name": "ownerOf",
      "outputs": [
        {
          "name": "owner",
          "type": "address"
        }
      ],
      "payable": false,
      "stateMutability": "view",
      "type": "function"
    },
    {
      "constant": true,
      "inputs": [
        {
          "name": "_owner",
          "type": "address"
        }
      ],
      "name": "balanceOf",
      "outputs": [
        {
          "name": "count",
          "type": "uint256"
        }
      ],
      "payable": false,
      "stateMutability": "view",
      "type": "function"
    },
    {
      "constant": true,
      "inputs": [],
      "name": "secondsPerBlock",
      "outputs": [
        {
          "name": "",
          "type": "uint256"
        }
      ],
      "payable": false,
      "stateMutability": "view",
      "type": "function"
    },
    {
      "constant": false,
      "inputs": [],
      "name": "pause",
      "outputs": [],
      "payable": false,
      "stateMutability": "nonpayable",
      "type": "function"
    },
    {
      "constant": true,
      "inputs": [
        {
          "name": "_owner",
          "type": "address"
        }
      ],
      "name": "tokensOfOwner",
      "outputs": [
        {
          "name": "ownerTokens",
          "type": "uint256[]"
        }
      ],
      "payable": false,
      "stateMutability": "view",
      "type": "function"
    },
    {
      "constant": false,
      "inputs": [
        {
          "name": "_matronId",
          "type": "uint256"
        }
      ],
      "name": "giveBirth",
      "outputs": [
        {
          "name": "",
          "type": "uint256"
        }
      ],
      "payable": false,
      "stateMutability": "nonpayable",
      "type": "function"
    },
    {
      "constant": true,
      "inputs": [
        {
          "name": "_botId",
          "type": "uint256"
        }
      ],
      "name": "extGetLock",
      "outputs": [
        {
          "name": "",
          "type": "uint16"
        }
      ],
      "payable": false,
      "stateMutability": "view",
      "type": "function"
    },
    {
      "constant": true,
      "inputs": [],
      "name": "symbol",
      "outputs": [
        {
          "name": "",
          "type": "string"
        }
      ],
      "payable": false,
      "stateMutability": "view",
      "type": "function"
    },
    {
      "constant": true,
      "inputs": [
        {
          "name": "",
          "type": "uint256"
        }
      ],
      "name": "cooldowns",
      "outputs": [
        {
          "name": "",
          "type": "uint32"
        }
      ],
      "payable": false,
      "stateMutability": "view",
      "type": "function"
    },
    {
      "constant": true,
      "inputs": [
        {
          "name": "",
          "type": "uint256"
        }
      ],
      "name": "botIndexToApproved",
      "outputs": [
        {
          "name": "",
          "type": "address"
        }
      ],
      "payable": false,
      "stateMutability": "view",
      "type": "function"
    },
    {
      "constant": false,
      "inputs": [
        {
          "name": "_to",
          "type": "address"
        },
        {
          "name": "_tokenId",
          "type": "uint256"
        }
      ],
      "name": "transfer",
      "outputs": [],
      "payable": false,
      "stateMutability": "nonpayable",
      "type": "function"
    },
    {
      "constant": true,
      "inputs": [],
      "name": "cooAddress",
      "outputs": [
        {
          "name": "",
          "type": "address"
        }
      ],
      "payable": false,
      "stateMutability": "view",
      "type": "function"
    },
    {
      "constant": true,
      "inputs": [],
      "name": "autoBirthFee",
      "outputs": [
        {
          "name": "",
          "type": "uint256"
        }
      ],
      "payable": false,
      "stateMutability": "view",
      "type": "function"
    },
    {
      "constant": false,
      "inputs": [
        {
          "name": "_botId",
          "type": "uint256"
        },
        {
          "name": "_mask",
          "type": "uint16"
        }
      ],
      "name": "extLockBot",
      "outputs": [],
      "payable": false,
      "stateMutability": "nonpayable",
      "type": "function"
    },
    {
      "constant": false,
      "inputs": [
        {
          "name": "_matronId",
          "type": "uint256"
        },
        {
          "name": "_sireId",
          "type": "uint256"
        },
        {
          "name": "_generation",
          "type": "uint256"
        },
        {
          "name": "_genes",
          "type": "uint256"
        },
        {
          "name": "_owner",
          "type": "address"
        }
      ],
      "name": "extCreateBot",
      "outputs": [
        {
          "name": "",
          "type": "uint256"
        }
      ],
      "payable": false,
      "stateMutability": "nonpayable",
      "type": "function"
    },
    {
      "constant": true,
      "inputs": [
        {
          "name": "_botId",
          "type": "uint256"
        }
      ],
      "name": "isReadyToBreed",
      "outputs": [
        {
          "name": "",
          "type": "bool"
        }
      ],
      "payable": false,
      "stateMutability": "view",
      "type": "function"
    },
    {
      "constant": true,
      "inputs": [],
      "name": "saleAuction",
      "outputs": [
        {
          "name": "",
          "type": "address"
        }
      ],
      "payable": false,
      "stateMutability": "view",
      "type": "function"
    },
    {
      "constant": false,
      "inputs": [
        {
          "name": "_botId",
          "type": "uint256"
        }
      ],
      "name": "extDestroyBot",
      "outputs": [],
      "payable": false,
      "stateMutability": "nonpayable",
      "type": "function"
    },
    {
      "constant": true,
      "inputs": [],
      "name": "geneScience",
      "outputs": [
        {
          "name": "",
          "type": "address"
        }
      ],
      "payable": false,
      "stateMutability": "view",
      "type": "function"
    },
    {
      "constant": false,
      "inputs": [
        {
          "name": "_matronId",
          "type": "uint256"
        },
        {
          "name": "_sireId",
          "type": "uint256"
        }
      ],
      "name": "breedWithAuto",
      "outputs": [],
      "payable": true,
      "stateMutability": "payable",
      "type": "function"
    },
    {
      "anonymous": false,
      "inputs": [
        {
          "indexed": false,
          "name": "owner",
          "type": "address"
        },
        {
          "indexed": false,
          "name": "matronId",
          "type": "uint256"
        },
        {
          "indexed": false,
          "name": "sireId",
          "type": "uint256"
        },
        {
          "indexed": false,
          "name": "cooldownEndBlock",
          "type": "uint256"
        }
      ],
      "name": "Pregnant",
      "type": "event"
    },
    {
      "anonymous": false,
      "inputs": [
        {
          "indexed": false,
          "name": "from",
          "type": "address"
        },
        {
          "indexed": false,
          "name": "to",
          "type": "address"
        },
        {
          "indexed": false,
          "name": "tokenId",
          "type": "uint256"
        }
      ],
      "name": "Transfer",
      "type": "event"
    },
    {
      "anonymous": false,
      "inputs": [
        {
          "indexed": false,
          "name": "owner",
          "type": "address"
        },
        {
          "indexed": false,
          "name": "approved",
          "type": "address"
        },
        {
          "indexed": false,
          "name": "tokenId",
          "type": "uint256"
        }
      ],
      "name": "Approval",
      "type": "event"
    },
    {
      "anonymous": false,
      "inputs": [
        {
          "indexed": false,
          "name": "botId",
          "type": "uint256"
        },
        {
          "indexed": false,
          "name": "mask",
          "type": "uint16"
        }
      ],
      "name": "Lock",
      "type": "event"
    },
    {
      "anonymous": false,
      "inputs": [
        {
          "indexed": false,
          "name": "owner",
          "type": "address"
        },
        {
          "indexed": false,
          "name": "botId",
          "type": "uint256"
        },
        {
          "indexed": false,
          "name": "matronId",
          "type": "uint256"
        },
        {
          "indexed": false,
          "name": "sireId",
          "type": "uint256"
        },
        {
          "indexed": false,
          "name": "genes",
          "type": "uint256"
        },
        {
          "indexed": false,
          "name": "birthTime",
          "type": "uint256"
        }
      ],
      "name": "Birth",
      "type": "event"
    },
    {
      "anonymous": false,
      "inputs": [
        {
          "indexed": false,
          "name": "newContract",
          "type": "address"
        }
      ],
      "name": "ContractUpgrade",
      "type": "event"
    }
  ],
  "bytecode": "0x60806040526000600260146101000a81548160ff0219169083151502179055506101c060405190810160405280603c63ffffffff1663ffffffff168152602001607863ffffffff1663ffffffff16815260200161012c63ffffffff1663ffffffff16815260200161025863ffffffff1663ffffffff16815260200161070863ffffffff1663ffffffff168152602001610e1063ffffffff1663ffffffff168152602001611c2063ffffffff1663ffffffff16815260200161384063ffffffff1663ffffffff16815260200161708063ffffffff1663ffffffff16815260200161e10063ffffffff1663ffffffff1681526020016201518063ffffffff1663ffffffff1681526020016202a30063ffffffff1663ffffffff1681526020016205460063ffffffff1663ffffffff16815260200162093a8063ffffffff1663ffffffff16815250600390600e620001569291906200017b565b50600f60055566071afd498d0000600f553480156200017457600080fd5b506200025b565b82600e600701600890048101928215620002125791602002820160005b83821115620001de57835183826101000a81548163ffffffff021916908363ffffffff160217905550926020019260040160208160030104928301926001030262000198565b8015620002105782816101000a81549063ffffffff0219169055600401602081600301049283019260010302620001de565b505b50905062000221919062000225565b5090565b6200025891905b808211156200025457600081816101000a81549063ffffffff0219169055506001016200022c565b5090565b90565b61a9c9806200026b6000396000f300608060405260043610610225576000357c0100000000000000000000000000000000000000000000000000000000900463ffffffff1680630519ce791461022a57806306fdde0314610281578063095ea7b3146103115780630a0f81681461035e578063170ff3e1146103b557806318160ddd146103f85780631940a9361461042357806321717ebf1461046857806321ee102b146104bf57806323b872dd1461050257806324e7a38a1461056f57806327ab9f20146105b257806327d7874c1461061f5780632ba73c15146106625780633c4b07de146106a55780633f4ba83a146106fc57806346116e6f1461071357806346d22c70146107805780634b85fd55146107cf5780634dfff04f146107fc5780634e0a3379146108495780634e4081ef1461088c5780635663896e146108b75780635c975abb146108e457806361b6683c146109135780636352211e1461094a57806370a08231146109b75780637a7d493714610a0e5780638456cb5914610a395780638462151c14610a5057806388c2a0bf14610ae85780638a653c9314610b2957806395d89b4114610b725780639d6fac6f14610c02578063a8f8884d14610c4f578063a9059cbb14610cbc578063b047fb5014610d09578063b0c35c0514610d60578063bf4a548514610d8b578063d1b12b4e14610dc6578063d3e6f49f14610e45578063e6cbe35114610e8a578063e9b5822514610ee1578063f2b47d5214610f0e578063f7d8c88314610f65575b600080fd5b34801561023657600080fd5b5061023f610f8f565b604051808273ffffffffffffffffffffffffffffffffffffffff1673ffffffffffffffffffffffffffffffffffffffff16815260200191505060405180910390f35b34801561028d57600080fd5b50610296610fb5565b6040518080602001828103825283818151815260200191508051906020019080838360005b838110156102d65780820151818401526020810190506102bb565b50505050905090810190601f1680156103035780820380516001836020036101000a031916815260200191505b509250505060405180910390f35b34801561031d57600080fd5b5061035c600480360381019080803573ffffffffffffffffffffffffffffffffffffffff16906020019092919080359060200190929190505050610fee565b005b34801561036a57600080fd5b50610373611446565b604051808273ffffffffffffffffffffffffffffffffffffffff1673ffffffffffffffffffffffffffffffffffffffff16815260200191505060405180910390f35b3480156103c157600080fd5b506103f6600480360381019080803573ffffffffffffffffffffffffffffffffffffffff16906020019092919050505061146b565b005b34801561040457600080fd5b5061040d6116ad565b6040518082815260200191505060405180910390f35b34801561042f57600080fd5b5061044e60048036038101908080359060200190929190505050611758565b604051808215151515815260200191505060405180910390f35b34801561047457600080fd5b5061047d61182c565b604051808273ffffffffffffffffffffffffffffffffffffffff1673ffffffffffffffffffffffffffffffffffffffff16815260200191505060405180910390f35b3480156104cb57600080fd5b50610500600480360381019080803573ffffffffffffffffffffffffffffffffffffffff169060200190929190505050611852565b005b34801561050e57600080fd5b5061056d600480360381019080803573ffffffffffffffffffffffffffffffffffffffff169060200190929190803573ffffffffffffffffffffffffffffffffffffffff16906020019092919080359060200190929190505050611a5f565b005b34801561057b57600080fd5b506105b0600480360381019080803573ffffffffffffffffffffffffffffffffffffffff16906020019092919050505061205e565b005b3480156105be57600080fd5b506105dd60048036038101908080359060200190929190505050612441565b604051808273ffffffffffffffffffffffffffffffffffffffff1673ffffffffffffffffffffffffffffffffffffffff16815260200191505060405180910390f35b34801561062b57600080fd5b50610660600480360381019080803573ffffffffffffffffffffffffffffffffffffffff169060200190929190505050612474565b005b34801561066e57600080fd5b506106a3600480360381019080803573ffffffffffffffffffffffffffffffffffffffff16906020019092919050505061278a565b005b3480156106b157600080fd5b506106de60048036038101908080359060200190929190803561ffff169060200190929190505050612aa1565b604051808261ffff1661ffff16815260200191505060405180910390f35b34801561070857600080fd5b50610711612c9e565b005b34801561071f57600080fd5b5061073e60048036038101908080359060200190929190505050612fc5565b604051808273ffffffffffffffffffffffffffffffffffffffff1673ffffffffffffffffffffffffffffffffffffffff16815260200191505060405180910390f35b34801561078c57600080fd5b506107b56004803603810190808035906020019092919080359060200190929190505050612ff8565b604051808215151515815260200191505060405180910390f35b3480156107db57600080fd5b506107fa60048036038101908080359060200190929190505050613315565b005b34801561080857600080fd5b50610847600480360381019080803573ffffffffffffffffffffffffffffffffffffffff16906020019092919080359060200190929190505050613507565b005b34801561085557600080fd5b5061088a600480360381019080803573ffffffffffffffffffffffffffffffffffffffff1690602001909291905050506137c9565b005b34801561089857600080fd5b506108a1613ae0565b6040518082815260200191505060405180910390f35b3480156108c357600080fd5b506108e260048036038101908080359060200190929190505050613ae6565b005b3480156108f057600080fd5b506108f9613e76565b604051808215151515815260200191505060405180910390f35b34801561091f57600080fd5b50610928613e89565b604051808263ffffffff1663ffffffff16815260200191505060405180910390f35b34801561095657600080fd5b5061097560048036038101908080359060200190929190505050613e9f565b604051808273ffffffffffffffffffffffffffffffffffffffff1673ffffffffffffffffffffffffffffffffffffffff16815260200191505060405180910390f35b3480156109c357600080fd5b506109f8600480360381019080803573ffffffffffffffffffffffffffffffffffffffff16906020019092919050505061404c565b6040518082815260200191505060405180910390f35b348015610a1a57600080fd5b50610a23614119565b6040518082815260200191505060405180910390f35b348015610a4557600080fd5b50610a4e61411f565b005b348015610a5c57600080fd5b50610a91600480360381019080803573ffffffffffffffffffffffffffffffffffffffff1690602001909291905050506144f6565b6040518080602001828103825283818151815260200191508051906020019060200280838360005b83811015610ad4578082015181840152602081019050610ab9565b505050509050019250505060405180910390f35b348015610af457600080fd5b50610b1360048036038101908080359060200190929190505050614b19565b6040518082815260200191505060405180910390f35b348015610b3557600080fd5b50610b5460048036038101908080359060200190929190505050615660565b604051808261ffff1661ffff16815260200191505060405180910390f35b348015610b7e57600080fd5b50610b87615876565b6040518080602001828103825283818151815260200191508051906020019080838360005b83811015610bc7578082015181840152602081019050610bac565b50505050905090810190601f168015610bf45780820380516001836020036101000a031916815260200191505b509250505060405180910390f35b348015610c0e57600080fd5b50610c2d600480360381019080803590602001909291905050506158af565b604051808263ffffffff1663ffffffff16815260200191505060405180910390f35b348015610c5b57600080fd5b50610c7a600480360381019080803590602001909291905050506158de565b604051808273ffffffffffffffffffffffffffffffffffffffff1673ffffffffffffffffffffffffffffffffffffffff16815260200191505060405180910390f35b348015610cc857600080fd5b50610d07600480360381019080803573ffffffffffffffffffffffffffffffffffffffff16906020019092919080359060200190929190505050615911565b005b348015610d1557600080fd5b50610d1e616064565b604051808273ffffffffffffffffffffffffffffffffffffffff1673ffffffffffffffffffffffffffffffffffffffff16815260200191505060405180910390f35b348015610d6c57600080fd5b50610d7561608a565b6040518082815260200191505060405180910390f35b348015610d9757600080fd5b50610dc460048036038101908080359060200190929190803561ffff169060200190929190505050616090565b005b348015610dd257600080fd5b50610e2f60048036038101908080359060200190929190803590602001909291908035906020019092919080359060200190929190803573ffffffffffffffffffffffffffffffffffffffff169060200190929190505050616289565b6040518082815260200191505060405180910390f35b348015610e5157600080fd5b50610e706004803603810190808035906020019092919050505061648e565b604051808215151515815260200191505060405180910390f35b348015610e9657600080fd5b50610e9f6166d7565b604051808273ffffffffffffffffffffffffffffffffffffffff1673ffffffffffffffffffffffffffffffffffffffff16815260200191505060405180910390f35b348015610eed57600080fd5b50610f0c600480360381019080803590602001909291905050506166fd565b005b348015610f1a57600080fd5b50610f236169d8565b604051808273ffffffffffffffffffffffffffffffffffffffff1673ffffffffffffffffffffffffffffffffffffffff16815260200191505060405180910390f35b610f8d60048036038101908080359060200190929190803590602001909291905050506169fe565b005b600160009054906101000a900473ffffffffffffffffffffffffffffffffffffffff1681565b6040805190810160405280600a81526020017f43727970746f426f74730000000000000000000000000000000000000000000081525081565b61101a7fcb2648b67b0de279cb753577ec77c6b2ea08d23aa34ef2f48c5aab3c2f7b331360010261739c565b6110467f6f460441e04e9f2fab210055dfdc65babe4e31ac3fe89dcb41c84c7fb037599160010261739c565b6110727f3dde09caefb3a1f40ad03cded37744ff16ee712b622d5384bd28cad309760ae760010261739c565b61109e7f7808d25d5414a096b7d4484dd157a0f0c9b5f6c11dae49f7d70fd4cb3bbde23260010261739c565b600260149054906101000a900460ff161515156110ba57600080fd5b6110e67f8b5d68b72118d3191a023266c39777d9f072660abc89f2761d9e6c792bd310c360010261739c565b6111117ead53c480053279c157a04c0652ee4064d1c599d726b53bdfe5e51538b4069160010261739c565b61113d7f73f27d1582078ef0295938c7b7ab7f3be1e5cc6048e9cc9508a6feef04e1095d60010261739f565b6111697ffb7d35519eb0ee941ca5a932582a5263ee71940aee636850cfa01b3b126f306760010261739f565b6111957fb434096f2e5ca8d06c454a21f04ad5f09942234d4e363c211c1420ed4a2e52be60010261739f565b6111c17fa9c8efc5ce4bc61f305ce46bfcc0de8acc8c44d59aa97d4b61c09d5a5a50ca5060010261739f565b6111cb33826173a2565b15156111d657600080fd5b6112027fa8f7926d71a6472fe13f29db3af391c76d36edae2364b8e75c20daf48bfd959760010261739f565b61122e7fcbf8814163e31ba4fd315f1dcca9acca540f3661836dc3d0675fdfb5044c54f760010261739f565b61125a7f6ca082da447e0fdca09edb60240a1bccddd75ea7cc421359bd97351bfd379b2e60010261739f565b6112867faf97db88b3736215d415e6d475805ecaec705fcbd497b0079b25802be6d365c260010261739f565b60006002600e600084815260200190815260200160002060009054906101000a900461ffff161661ffff161415156112bd57600080fd5b6112e97fabe0724bb66fdcb981b83ee011d3446861ecdd983e55c82bcfda252851c0d66660010261739f565b6113157f286f0709e1a3c00bd5c53e23b60ab9673abcd305f451e2e5380ca38fb8fffd1e60010261739f565b6113417f8af0e261a7afaa1f451dd3259edc0d69b42f3ca4312ba7255d55fd183399c10360010261739f565b61134b8183617492565b6113777fae6983cc8c7630a3ba8860ce83e961c7ef6142fbfc5a5dd39af1543d1465f94d60010261739f565b6113a37f06b1e8b3a5b6375b6be53631cc8b0bf9853c9cd1959449e6a545d233afdb3c1960010261739f565b7f8c5be1e5ebec7d5bd14f71427d1e84f3dd0314c0f7b2291e5b200ac8c7c3b925338383604051808473ffffffffffffffffffffffffffffffffffffffff1673ffffffffffffffffffffffffffffffffffffffff1681526020018373ffffffffffffffffffffffffffffffffffffffff1673ffffffffffffffffffffffffffffffffffffffff168152602001828152602001935050505060405180910390a15050565b6000809054906101000a900473ffffffffffffffffffffffffffffffffffffffff1681565b6114977fcb049ed2f483be6c0944c2c03cebba45371d8e0ef11e4518263bd2fbbda7f59360010261739c565b6114c37f5dbffe83b36d40e7d651f2d3531e4a4824b9dc6ccb6586f84d10976bd60ae08d60010261739c565b6114ef7f31f8d3048db660f92f7d2b610b6a9c7cae1f6a13dda0027f8885b1f585ba628360010261739c565b61151b7fa2a47da5016dac4687136caeff8e35d8d21ddaedc8808cd08f29ccfc21bfac7360010261739c565b6000809054906101000a900473ffffffffffffffffffffffffffffffffffffffff1673ffffffffffffffffffffffffffffffffffffffff163373ffffffffffffffffffffffffffffffffffffffff1614151561157657600080fd5b6115a27f75897d7cfe76dbf024f81b5ad6072a4019a8f8439308212c47ad1e9256df43c060010261739c565b6115ce7f3ffe5ec58b9e7787ceecb0adf9d00ef109fb30448b7229696966b751a6dac16160010261739c565b6115fa7fbf1d85ffe6355fc4f272b2f2d5adc3ad4608c432a5940832e2cc20d377b9a98b60010261756c565b6116267f3121b1f0cf694c7aebd4277132a51a0d946c87c20aa931ecdd3eb428bc2ad93860010261756c565b6116527f91b33501a02963141dbd64b5b5bd1c9bb12e2a9f2cd55094b23aecaaf0e998c160010261756c565b6001600d60008373ffffffffffffffffffffffffffffffffffffffff1673ffffffffffffffffffffffffffffffffffffffff16815260200190815260200160002060006101000a81548160ff02191690831515021790555050565b60006116db7f898aee6ef95aa656f8884189394d48e7887c876270b03a2eb9a38fd154f49a2060010261739f565b6117077fdddbecff26dcf835d644d384922766599f4f95e54a624f935763c4c8686bc29b60010261739f565b6117337ffbf9e60a85a1e336d4656f46007e2199bddfa98f95617e504b3571289e6b087160010261739f565b600b60009054906101000a900463ffffffff1663ffffffff1660068054905003905090565b60006117867fe7bf1379587a667dd3fb8ff72fc2ac579c208ce7775f03b659d973333fbc473860010261756f565b6117b27f95e2a8b8f85612c67958456e06ffb7afa89e0249e1b703668d0c19608b051d5360010261756f565b6117de7ff2440aa14d4eb8747206cf4ee6e44f7470aecc82d1722f22c0fc8f16b50c288360010261756f565b600082118015611825575060006006838154811015156117fa57fe5b906000526020600020906002020160010160189054906101000a900463ffffffff1663ffffffff1614155b9050919050565b600c60009054906101000a900473ffffffffffffffffffffffffffffffffffffffff1681565b61187e7fcb049ed2f483be6c0944c2c03cebba45371d8e0ef11e4518263bd2fbbda7f59360010261739c565b6118aa7f5dbffe83b36d40e7d651f2d3531e4a4824b9dc6ccb6586f84d10976bd60ae08d60010261739c565b6118d67f31f8d3048db660f92f7d2b610b6a9c7cae1f6a13dda0027f8885b1f585ba628360010261739c565b6119027fa2a47da5016dac4687136caeff8e35d8d21ddaedc8808cd08f29ccfc21bfac7360010261739c565b6000809054906101000a900473ffffffffffffffffffffffffffffffffffffffff1673ffffffffffffffffffffffffffffffffffffffff163373ffffffffffffffffffffffffffffffffffffffff1614151561195d57600080fd5b6119897f75897d7cfe76dbf024f81b5ad6072a4019a8f8439308212c47ad1e9256df43c060010261739c565b6119b57f3ffe5ec58b9e7787ceecb0adf9d00ef109fb30448b7229696966b751a6dac16160010261739c565b6119e17f8444ef6021167db0d922a2b1e8349b1a5f0b8edd982ba8f491199e31a55d570260010261756c565b611a0d7f2580da3be0f5c047837254c1276bcd16f8442e69e56de9ef1e73c37459f8dfcd60010261756c565b600d60008273ffffffffffffffffffffffffffffffffffffffff1673ffffffffffffffffffffffffffffffffffffffff16815260200190815260200160002060006101000a81549060ff021916905550565b611a8b7fcb2648b67b0de279cb753577ec77c6b2ea08d23aa34ef2f48c5aab3c2f7b331360010261739c565b611ab77f6f460441e04e9f2fab210055dfdc65babe4e31ac3fe89dcb41c84c7fb037599160010261739c565b611ae37f3dde09caefb3a1f40ad03cded37744ff16ee712b622d5384bd28cad309760ae760010261739c565b611b0f7f7808d25d5414a096b7d4484dd157a0f0c9b5f6c11dae49f7d70fd4cb3bbde23260010261739c565b600260149054906101000a900460ff16151515611b2b57600080fd5b611b577f8b5d68b72118d3191a023266c39777d9f072660abc89f2761d9e6c792bd310c360010261739c565b611b827ead53c480053279c157a04c0652ee4064d1c599d726b53bdfe5e51538b4069160010261739c565b611bae7f0889fe94f74f44c65c35ba53712fbab194fa1bb61f615921226ec89ec79af0dc60010261739f565b611bda7f72e97404a545a6ad14e994b3b72e117ca463f792d8462726bc8f8a75f0a867d560010261739f565b611c067f98a3efff4491bfdd31db19a4ea6524d91725fcdf8f467170ca66cbf502f4bcdc60010261739f565b611c327f5d10d8b8387754f7af183be69aa3cf6d6d24af896abedfabba930b71cd73c2d060010261739f565b600073ffffffffffffffffffffffffffffffffffffffff168273ffffffffffffffffffffffffffffffffffffffff1614151515611c6e57600080fd5b611c9a7f33986ea5c636d69115fe35e35cc069b9971677771d2c4d5c0339839f187975a060010261739f565b611cc67f30f54a806808c7e5a107cef8fda892b8a2fc206208a3c1f30ea18ef4b43858e860010261739f565b611cf27f8f9ed3e3c37dca59b5e1954a87c197b23556f9c18aba8ecb475882740763c0c360010261739f565b611d1e7f99ecce2e1df3700019fc1d0501dff4b21f73cadd019023d27f58bee55860b83360010261739f565b3073ffffffffffffffffffffffffffffffffffffffff168273ffffffffffffffffffffffffffffffffffffffff1614151515611d5957600080fd5b611d857f2de2ffb7058da8280839e5d6a8ddb58621ce4abb510b5fb2139831870d3f186960010261739f565b611db17fc8c4361c344a80898fd02a5ac01d2d7c40cef2895e6ec8a17e76a65488eeba6060010261739f565b611ddd7f5e442fcfa187959ed10b7c75d281059104822e17b99b0075e016c0146d7ec15960010261739f565b611e097f9ff1cba92654c5fa7243108ea24a0f3e448fb981a1e4731de57aefa2c9675cda60010261739f565b611e133382617572565b1515611e1e57600080fd5b611e4a7fc012d300c3df2f91a3d2612b15ca61a1500962d8354da9819cf116a1192c81c760010261739f565b611e767face457e11cfed63f5abda78b37b9706c0a6548ba4d271846614c8c59e5281a5d60010261739f565b611ea27f0fcbfed2c08977871396d7f42dc83de65eb46d744d38f84baec9ffe17d1ed43060010261739f565b611ece7f06b4769d16a6c1cd61b6ea0cd7badbefb2d6a54dfdffeeb943a1fc768cab9df460010261739f565b611ed883826173a2565b1515611ee357600080fd5b611f0f7f173f51cd66e6b7124783f729ab4fa4d3fe6a286663aaf410ff269824de29535260010261739f565b611f3b7f34bd79ec044af2b897b90b1166c070695aaff1c41b44392c88d751ec221b520660010261739f565b611f677f4dc7bd8f4d2ffd4fa3d24905e728f4d790fcba5df163fde95f7bb23e198a8f2060010261739f565b611f937f67c927596ccd3e5e5c5f1892c2e72f8c7743fef824ddeb68848ea28a461a75da60010261739f565b60006002600e600084815260200190815260200160002060009054906101000a900461ffff161661ffff16141515611fca57600080fd5b611ff67fb098cd7bef334ec0c432b74cf3b1065f29f7adb4e04707aa87ee877d25b4dbce60010261739f565b6120227ff2bbc773a3b17d847e7e427ee26864d6402378f5e24eef228b96502b8c46c37660010261739f565b61204e7f2922453e9ea1635c3a5803ae8ccf221b3a46ece39c97592d4531bf583ea1d51860010261739f565b612059838383617662565b505050565b600061208c7fcb049ed2f483be6c0944c2c03cebba45371d8e0ef11e4518263bd2fbbda7f59360010261739c565b6120b87f5dbffe83b36d40e7d651f2d3531e4a4824b9dc6ccb6586f84d10976bd60ae08d60010261739c565b6120e47f31f8d3048db660f92f7d2b610b6a9c7cae1f6a13dda0027f8885b1f585ba628360010261739c565b6121107fa2a47da5016dac4687136caeff8e35d8d21ddaedc8808cd08f29ccfc21bfac7360010261739c565b6000809054906101000a900473ffffffffffffffffffffffffffffffffffffffff1673ffffffffffffffffffffffffffffffffffffffff163373ffffffffffffffffffffffffffffffffffffffff1614151561216b57600080fd5b6121977f75897d7cfe76dbf024f81b5ad6072a4019a8f8439308212c47ad1e9256df43c060010261739c565b6121c37f3ffe5ec58b9e7787ceecb0adf9d00ef109fb30448b7229696966b751a6dac16160010261739c565b6121ef7ffb5317fd1b5166c3774f920b6fb2db12fd47fc828b83f9a4773ee8358297956760010261756f565b61221b7f977d71112e5188f9338ace708886714229e1cc60b10eefe58b44ad0c35d7de2360010261756f565b6122477fc3d5557feb1159ba466a1e9740f52c40f29ee7769cc7557ee2c3b34a0cfc148460010261756f565b8190506122767f622643e69f558353da525ed55064184d5388f570975071d33a842612a70030cb60010261756f565b6122a27fdea2bc1c28ef5fe96e8dfca88f09ef8feb28f14e8b05083f7c46d01d6194b3be60010261756f565b6122ce7fab234dfee6b4f8f1a0c6b0a12541efae9e82813600d5564a2c88c708615e89f060010261756f565b8073ffffffffffffffffffffffffffffffffffffffff166354c15b826040518163ffffffff167c0100000000000000000000000000000000000000000000000000000000028152600401602060405180830381600087803b15801561233257600080fd5b505af1158015612346573d6000803e3d6000fd5b505050506040513d602081101561235c57600080fd5b8101908080519060200190929190505050151561237857600080fd5b6123a47fc56bd864e5b50f205462a19844dfc4eb411b88e8bf6efbfd889473593e48b6a260010261756f565b6123d07f03ed735a4a29523fc209118f2656357e9e128043069213343749a8e98966c83e60010261756f565b6123fc7fc95924bc85c89d7f616594e582a71dbec7ff4a3b48d493ee8135d05f6eb7082960010261756f565b80601160006101000a81548173ffffffffffffffffffffffffffffffffffffffff021916908373ffffffffffffffffffffffffffffffffffffffff1602179055505050565b60076020528060005260406000206000915054906101000a900473ffffffffffffffffffffffffffffffffffffffff1681565b6124a07fcb049ed2f483be6c0944c2c03cebba45371d8e0ef11e4518263bd2fbbda7f59360010261739c565b6124cc7f5dbffe83b36d40e7d651f2d3531e4a4824b9dc6ccb6586f84d10976bd60ae08d60010261739c565b6124f87f31f8d3048db660f92f7d2b610b6a9c7cae1f6a13dda0027f8885b1f585ba628360010261739c565b6125247fa2a47da5016dac4687136caeff8e35d8d21ddaedc8808cd08f29ccfc21bfac7360010261739c565b6000809054906101000a900473ffffffffffffffffffffffffffffffffffffffff1673ffffffffffffffffffffffffffffffffffffffff163373ffffffffffffffffffffffffffffffffffffffff1614151561257f57600080fd5b6125ab7f75897d7cfe76dbf024f81b5ad6072a4019a8f8439308212c47ad1e9256df43c060010261739c565b6125d77f3ffe5ec58b9e7787ceecb0adf9d00ef109fb30448b7229696966b751a6dac16160010261739c565b6126037f5fc6eb43ffbf276b62f28fcbf60dc2c180db575c7e9e226e6c6c4ebc9d3cdca660010261739c565b61262f7f8600bb7718bfaf280bafb2953b4f5e2e5b7f43eb718f188ebbcea7100f3ec91f60010261739c565b61265b7ff67d7d4f85ade4d4ae9d316f7b6198c820cf3fbdc10cd6c34dbbaa33e43e5b1860010261739c565b6126877fd970e416a7b05f894e16d02c52d34731c3fc2e0bf8267719089224ee103507ca60010261739c565b600073ffffffffffffffffffffffffffffffffffffffff168173ffffffffffffffffffffffffffffffffffffffff16141515156126c357600080fd5b6126ef7f83b999badfe58cf9aa7350759d8fc576955adf6ab9762923d3e4195cc1fb053d60010261739c565b61271b7fee8b0d121d8b68ba51424a21b862b2537b0180682b889c82daf52e6efd48137060010261739c565b6127477f9023188c9cea07958449ac3498f26f8c50f0236650f38f89ba11bc880e682f3660010261739c565b806000806101000a81548173ffffffffffffffffffffffffffffffffffffffff021916908373ffffffffffffffffffffffffffffffffffffffff16021790555050565b6127b67fcb049ed2f483be6c0944c2c03cebba45371d8e0ef11e4518263bd2fbbda7f59360010261739c565b6127e27f5dbffe83b36d40e7d651f2d3531e4a4824b9dc6ccb6586f84d10976bd60ae08d60010261739c565b61280e7f31f8d3048db660f92f7d2b610b6a9c7cae1f6a13dda0027f8885b1f585ba628360010261739c565b61283a7fa2a47da5016dac4687136caeff8e35d8d21ddaedc8808cd08f29ccfc21bfac7360010261739c565b6000809054906101000a900473ffffffffffffffffffffffffffffffffffffffff1673ffffffffffffffffffffffffffffffffffffffff163373ffffffffffffffffffffffffffffffffffffffff1614151561289557600080fd5b6128c17f75897d7cfe76dbf024f81b5ad6072a4019a8f8439308212c47ad1e9256df43c060010261739c565b6128ed7f3ffe5ec58b9e7787ceecb0adf9d00ef109fb30448b7229696966b751a6dac16160010261739c565b6129197f88c886be51524dd73b922e35a02dca86d0c0b415cf3c56d62a1f13368b3d05e360010261739c565b6129457f9f0996057a1a4719f75aa64801cbab8bb062056caa963266efdd3d64b675584e60010261739c565b6129717f54156e362d900300deebcd999007c710ad9bb1a442a2d97a5bf53bc07079ce3d60010261739c565b61299d7ffd23285df18ee46f15e8858285ad785009d6b2ae9b545be17c967db9f4bc953960010261739c565b600073ffffffffffffffffffffffffffffffffffffffff168173ffffffffffffffffffffffffffffffffffffffff16141515156129d957600080fd5b612a057fcc97a5c8c25fb6ff1ad805fecb7bc6de88c04a665024665354b9a7d6bb355b3d60010261739c565b612a317fb755be836afd987e535ef2cf142d2fa3bc355b2d721ad31155fe8b917c9659e660010261739c565b612a5d7f171d8dd485a5f392b5cf3c25f90c4141d93dc94a5fdf9c612a3296f1700d389d60010261739c565b80600260006101000a81548173ffffffffffffffffffffffffffffffffffffffff021916908373ffffffffffffffffffffffffffffffffffffffff16021790555050565b6000612acf7f34ba93981658c3daa5f666bbb9fe4c2050f8795f520af64c257be31ef93f4a7e60010261756c565b612afb7f6e13615425708a7761bd047818bc837ac9fb4bd1e59bf3fa4452e4cbd770a56060010261756c565b612b277f1dc2ce0d010e73d168ffe98a84a9bc524a16f273016615775624f5da12869a7e60010261756c565b612b537f7988d104597cafdb112f343393a63efde85108a1f51c7a8effe784254afa55de60010261756c565b60011515600d60003373ffffffffffffffffffffffffffffffffffffffff1673ffffffffffffffffffffffffffffffffffffffff16815260200190815260200160002060009054906101000a900460ff161515141515612bb257600080fd5b612bde7f74c308184e27580c17a1d0b6ff599bb36cc06cea53ef2b0b67c3f3d83101591560010261756c565b612c0a7ff94d3c11b156185524dc880705acc4e207d4e6c8ac4a3c0d0c44c9bda584852660010261756c565b612c367f60acf4788f65c7446cd28a54601e564fea9f45a1c5ee6ddbe0dfb8875889994960010261756c565b612c627f030a7770b1223429e810e10ba6717c794a45261bb291a8621ec4922617ce635760010261756c565b612c8e7f6d8ea07f2da76c222de40f7bea64be677077c0f7ad4a898eea5fd8ee80e2694a60010261756c565b612c988383617c28565b92915050565b612cca7fcb049ed2f483be6c0944c2c03cebba45371d8e0ef11e4518263bd2fbbda7f59360010261739c565b612cf67f5dbffe83b36d40e7d651f2d3531e4a4824b9dc6ccb6586f84d10976bd60ae08d60010261739c565b612d227f31f8d3048db660f92f7d2b610b6a9c7cae1f6a13dda0027f8885b1f585ba628360010261739c565b612d4e7fa2a47da5016dac4687136caeff8e35d8d21ddaedc8808cd08f29ccfc21bfac7360010261739c565b6000809054906101000a900473ffffffffffffffffffffffffffffffffffffffff1673ffffffffffffffffffffffffffffffffffffffff163373ffffffffffffffffffffffffffffffffffffffff16141515612da957600080fd5b612dd57f75897d7cfe76dbf024f81b5ad6072a4019a8f8439308212c47ad1e9256df43c060010261739c565b612e017f3ffe5ec58b9e7787ceecb0adf9d00ef109fb30448b7229696966b751a6dac16160010261739c565b612e2d7fee02b3c60f7bfcd131c9c4bfd3f91b2a91a6ce97b6a6d430726632917760560160010261739c565b612e597f43afdfb745d28db79002d8d11f06a461d1a6196edc9d887c659754e88a29b92260010261739c565b612e857f8ec630ab56ff4ad877f695df339f06d409f6c7ddf449da0d8db84c833f37f76360010261739c565b612eb17f6f467694727c3dc109758fd72c4058843bacb5cdcee39f9ace95414345acf38a60010261739c565b600260149054906101000a900460ff161515612ecc57600080fd5b612ef87f39fe575960af02d10117b59a53d57d89b0bf68648612a8334474037b391b7fb360010261739c565b612f247ff23eb7d426163ac3eb04e8e07e1cb74434c2877a79d57f6cff7670864e0f184160010261739c565b612f507f9e488e65048831a2ec3bbe8010ee312b58023109c588537cf11da03689fc46a160010261739c565b612f7c7f19d1644c0ba78d7d9378f48abb0889dbb78b76b0f9b81111d08879bc90ea64ea60010261739c565b612fa87f069eeaf91fae0aa54459b92512201a5b8a2253bd9002e53f35a603e641338e2b60010261739c565b6000600260146101000a81548160ff021916908315150217905550565b600a6020528060005260406000206000915054906101000a900473ffffffffffffffffffffffffffffffffffffffff1681565b60008060006130297f4179612f41b2e0f1792b808bb56cd1a61ed9398280cfc11594c5a01975ad10a760010261756f565b6130557fdd77b92d8f954dc4714524bcdb650aa0f49ddd843915e5136298a184394cca9060010261756f565b6130817fc81325cf3e9339705fbd1b178477e059c9c0d6cdf4d51165d9a24241f48c449360010261756f565b6130ad7f6ff1cb4d0258a0f0d8c0410e91b754dfb795f1d9e7522261ab2dd04f0cafe3c460010261756f565b6000851115156130bc57600080fd5b6130e87f529cc57518cc5d71783bc08119cbc19bc132d92b5ebd454dcd83b52c656dc70c60010261756f565b6131147ff1b5429c6afcfc1208ad5c2f1827ad2b9c0ef067369e9ba773dfb4e1df4e783060010261756f565b6131407f528720b1c580ecf4e5d54c69cac7fc3ef447100f309351f859585614509d86b160010261756f565b61316c7f69a271ec661cd2f67b85d9cdf4d6fe081eef0536a5e5b4166d911f62a5ee87fd60010261756f565b60008411151561317b57600080fd5b6131a77f3abf3715348b8af36a6c455cc3a0d4169afb9ebfbfad4691b891ed74c419a29960010261756f565b6131d37f7a5c0440daa8240d04dd2433b0a21957cedc931c9ae04a5c096b130fec1ecd2e60010261756f565b6131ff7ff911531129571f1f39867ab5cc4d602f683f08c3b79eac47820850adbd1c5b5060010261756f565b60068581548110151561320e57fe5b9060005260206000209060020201915061324a7f1cd68f036a116198be71a81e10106609db37eb2730b990c5d41cc68d8dea72cd60010261756f565b6132767fa36d0b236fe7fe2583bf6abf884308a2ae664c9d012228337519e4c4ce20c18c60010261756f565b60068481548110151561328557fe5b906000526020600020906002020190506132c17f3091342cf5bab203d368d1c1e6ce88fb4beffa512d7a19e9be98d4a111eef30960010261756f565b6132ed7f4515048e2d415a46add845832efe4d0d65b8158da102522f6e10d3770c0ce28960010261756f565b6132f982868387617fe4565b801561330b575061330a84866188ad565b5b9250505092915050565b6133417f4b3f31363c06554026c3495535211789942e41625a57b086267e5064f5934af660010261739c565b61336d7f01fb50a86f8e94902dc9382992dbfa33e19a7eaa3e581679951cbdf2dd876a0a60010261739c565b6133997f5090bdc7b81fb4fb806ffb8a324e9482ba5cf27db77d6fd8a28579d8a407f1e260010261739c565b6133c57f5a2a24182e30eaa462e023aeb84148b625327a032588bd13d612098c0762752960010261739c565b600260009054906101000a900473ffffffffffffffffffffffffffffffffffffffff1673ffffffffffffffffffffffffffffffffffffffff163373ffffffffffffffffffffffffffffffffffffffff1614151561342157600080fd5b61344d7f68e3652403790d00667b2e33f3cafbd6f6fa0dcc355662d23e6436c566afbc2b60010261739c565b6134797f23b3e2c03a5d93b1565e0b8a6688e0afc1cb86813470da360be15ebc6130290360010261739c565b6134a57f6cabde9270e087ba31cdb87267d21ffee9258da846232803912085ae672cea3660010261756f565b6134d17f9309b5242db96fe906ffb234eea5071d6a918c252d2742e9d426452d22e3c9fd60010261756f565b6134fd7f8162e5d9b17df93fd48ab85847e0ad2e1940bb63a74cbf6ce4b13fd03ab0ae7560010261756f565b80600f8190555050565b6135337fcb2648b67b0de279cb753577ec77c6b2ea08d23aa34ef2f48c5aab3c2f7b331360010261739c565b61355f7f6f460441e04e9f2fab210055dfdc65babe4e31ac3fe89dcb41c84c7fb037599160010261739c565b61358b7f3dde09caefb3a1f40ad03cded37744ff16ee712b622d5384bd28cad309760ae760010261739c565b6135b77f7808d25d5414a096b7d4484dd157a0f0c9b5f6c11dae49f7d70fd4cb3bbde23260010261739c565b600260149054906101000a900460ff161515156135d357600080fd5b6135ff7f8b5d68b72118d3191a023266c39777d9f072660abc89f2761d9e6c792bd310c360010261739c565b61362a7ead53c480053279c157a04c0652ee4064d1c599d726b53bdfe5e51538b4069160010261739c565b6136567fad28e7924a665847b1d2fde4e4affe352c10b91b810321151508b77b48d5b90c60010261756f565b6136827fc100db029034fc63b6d18bc837eef1a70983c4c95b8542ebaf8eae92265dfbf660010261756f565b6136ae7faec6a708e6f442d6fdbf7cbed4e5cc60cf04feac290863c89c125f46c3cad80c60010261756f565b6136da7f2db59204b6f9592f003883010f2c3c71fdb586eab3187b72344e974e69e2c06960010261756f565b6136e433826173a2565b15156136ef57600080fd5b61371b7fb598de23cca3bb111165082fc2b97db1bc0a3642ca6474cf78817234a21319a160010261756f565b6137477f9140ea333c27a5190cb5dbfd238da4d450e482da96bf0451f5f8251771d6261360010261756f565b6137737fbd6eb5d5dd21aadf9e993a43a9f98191935b4f386d18ce17801e57698471c0e860010261756f565b81600a600083815260200190815260200160002060006101000a81548173ffffffffffffffffffffffffffffffffffffffff021916908373ffffffffffffffffffffffffffffffffffffffff1602179055505050565b6137f57fcb049ed2f483be6c0944c2c03cebba45371d8e0ef11e4518263bd2fbbda7f59360010261739c565b6138217f5dbffe83b36d40e7d651f2d3531e4a4824b9dc6ccb6586f84d10976bd60ae08d60010261739c565b61384d7f31f8d3048db660f92f7d2b610b6a9c7cae1f6a13dda0027f8885b1f585ba628360010261739c565b6138797fa2a47da5016dac4687136caeff8e35d8d21ddaedc8808cd08f29ccfc21bfac7360010261739c565b6000809054906101000a900473ffffffffffffffffffffffffffffffffffffffff1673ffffffffffffffffffffffffffffffffffffffff163373ffffffffffffffffffffffffffffffffffffffff161415156138d457600080fd5b6139007f75897d7cfe76dbf024f81b5ad6072a4019a8f8439308212c47ad1e9256df43c060010261739c565b61392c7f3ffe5ec58b9e7787ceecb0adf9d00ef109fb30448b7229696966b751a6dac16160010261739c565b6139587ff1e72032e90a3e1a47208c42f7f34042a7e90b2f31193334e4b128d037b651c060010261739c565b6139847f78a7fa1c042e72da4ad8de55a20c66f852a96a40de26d4522e89bdf6e77d418660010261739c565b6139b07f84296041346391b56842bae36df9b671b45eb524eaab184565542d7b914377a960010261739c565b6139dc7f60e69f9a5dd02a5938cafb1e9882e0b3408f195223129d88d76bf05cf0c9484f60010261739c565b600073ffffffffffffffffffffffffffffffffffffffff168173ffffffffffffffffffffffffffffffffffffffff1614151515613a1857600080fd5b613a447feba6f866472b379aff7ab6f5ee6c37dde5f2de5f1389ef90ad259b8a37d3e30c60010261739c565b613a707ff08abe3269ba40116cd3b8d372e08d57d1ff0622934b37fd86afaf2895d00d0f60010261739c565b613a9c7f768722a54a3015d9d677146738ff817be4474287bb29c98cba6b2250674b944960010261739c565b80600160006101000a81548173ffffffffffffffffffffffffffffffffffffffff021916908373ffffffffffffffffffffffffffffffffffffffff16021790555050565b60105481565b613b127fb69f109befabd82f0425a91e79f5bd4e799a7cec12ca055bf58bdf7fe88ad79360010261739c565b613b3e7f4843d20f00be7ad37e3c9c8682a846faa4ca3c0ea1f9dc4c391997309853de2460010261739c565b613b6a7f20fc88088867130d183d94e5a9048dba311ceb5f1b9a4f5535adf564d8374b6d60010261739c565b613b967fbd896113fdf13ab83be8d5359d5f98252bcf796eea8f5545bf18b2e15a72912760010261739c565b600260009054906101000a900473ffffffffffffffffffffffffffffffffffffffff1673ffffffffffffffffffffffffffffffffffffffff163373ffffffffffffffffffffffffffffffffffffffff161480613c3e57506000809054906101000a900473ffffffffffffffffffffffffffffffffffffffff1673ffffffffffffffffffffffffffffffffffffffff163373ffffffffffffffffffffffffffffffffffffffff16145b80613c965750600160009054906101000a900473ffffffffffffffffffffffffffffffffffffffff1673ffffffffffffffffffffffffffffffffffffffff163373ffffffffffffffffffffffffffffffffffffffff16145b1515613ca157600080fd5b613ccd7f60622880a82287035558e7b8916b20a1e316cee24d7ae16889a055eab3d5531660010261739c565b613cf97fd0b955e469a12ebbfb62ad1da478a6acecacfd1ebcf54bf0dad13514548cd97960010261739c565b613d257f88c7b7750111464c97655b2d1d9753b38c6f77aef0856ee80507f7099872697d600102618af4565b613d517febeefd441312018ec6deb6b0edaa454d5161fd9efa6ef40328812fadec8d0da3600102618af4565b613d7d7f701900518f35ca476c958b90a5f2bede67febfc77eab1b093f6494b32b99cdf0600102618af4565b613da97f5382d0930765c0f082dd7aa6eb2b76fcd9f11b30924e1a951fd617237a8b304c600102618af4565b60036000600e81101515613db957fe5b600891828204019190066004029054906101000a900463ffffffff1663ffffffff1681101515613de857600080fd5b613e147f1a848bfce7342e2d2242b8a58161fe912c6dbbca8a7ce0047cb4eeee320ffb28600102618af4565b613e407f4060d5ff5377de6c4483c6917cbed376e4288dc779d82b477cd35ea98d2e2689600102618af4565b613e6c7f31535343482e20ce8423fef900115f5c7475e7adb6f6c1d4f3efba6af014bbc8600102618af4565b8060058190555050565b600260149054906101000a900460ff1681565b600b60009054906101000a900463ffffffff1681565b6000613ecd7f65f3e3971086e7113aafac0fe25d7b331cb31e081db98f3fdc3dab253dbbeb1860010261739f565b613ef97f6d8593dae41f920f4e43eeb5bdb0ea4efaa08d36b7e3564ef0822d49b18caf0860010261739f565b613f257f64721f51e1b2c3351da86d3509c4d78cfd6a6b384b6405fd5af920fada20c2e460010261739f565b6007600083815260200190815260200160002060009054906101000a900473ffffffffffffffffffffffffffffffffffffffff169050613f877f1aa33614ceb35d808f0e53d1f84c91e70a8e553d785151d1025e47a2240b402a60010261739f565b613fb37f10260275a33d6a3604b595864cc279d9fe371bfb6d8ff927477d8da7f1344bef60010261739f565b613fdf7f0e1f3e0b20d56ac5c4b367c90a9d102c41abde6902d7da7a0d993c5387bd5d4b60010261739f565b600073ffffffffffffffffffffffffffffffffffffffff168173ffffffffffffffffffffffffffffffffffffffff161415151561401b57600080fd5b6140477f1d8b0b6c3fd0db8847926baf6a65398d7c1cedb7305b0e9b79182ffdae9d0a4960010261739f565b919050565b600061407a7ffba4c8b234081f1dac643609a6c690fb7c2e0cd39e54e800fab602b4a7bea01a60010261739f565b6140a67fc203d14bcaf4e0b570df4f0a21cea54fe09f230ce67f5f4ab62ef3e117a9802e60010261739f565b6140d27f70d90460a734cafa119b6859230d44d2cdb7d865ab9b38734cb14a5b6f4dc6c560010261739f565b600860008373ffffffffffffffffffffffffffffffffffffffff1673ffffffffffffffffffffffffffffffffffffffff168152602001908152602001600020549050919050565b60055481565b61414b7fb69f109befabd82f0425a91e79f5bd4e799a7cec12ca055bf58bdf7fe88ad79360010261739c565b6141777f4843d20f00be7ad37e3c9c8682a846faa4ca3c0ea1f9dc4c391997309853de2460010261739c565b6141a37f20fc88088867130d183d94e5a9048dba311ceb5f1b9a4f5535adf564d8374b6d60010261739c565b6141cf7fbd896113fdf13ab83be8d5359d5f98252bcf796eea8f5545bf18b2e15a72912760010261739c565b600260009054906101000a900473ffffffffffffffffffffffffffffffffffffffff1673ffffffffffffffffffffffffffffffffffffffff163373ffffffffffffffffffffffffffffffffffffffff16148061427757506000809054906101000a900473ffffffffffffffffffffffffffffffffffffffff1673ffffffffffffffffffffffffffffffffffffffff163373ffffffffffffffffffffffffffffffffffffffff16145b806142cf5750600160009054906101000a900473ffffffffffffffffffffffffffffffffffffffff1673ffffffffffffffffffffffffffffffffffffffff163373ffffffffffffffffffffffffffffffffffffffff16145b15156142da57600080fd5b6143067f60622880a82287035558e7b8916b20a1e316cee24d7ae16889a055eab3d5531660010261739c565b6143327fd0b955e469a12ebbfb62ad1da478a6acecacfd1ebcf54bf0dad13514548cd97960010261739c565b61435e7fcb2648b67b0de279cb753577ec77c6b2ea08d23aa34ef2f48c5aab3c2f7b331360010261739c565b61438a7f6f460441e04e9f2fab210055dfdc65babe4e31ac3fe89dcb41c84c7fb037599160010261739c565b6143b67f3dde09caefb3a1f40ad03cded37744ff16ee712b622d5384bd28cad309760ae760010261739c565b6143e27f7808d25d5414a096b7d4484dd157a0f0c9b5f6c11dae49f7d70fd4cb3bbde23260010261739c565b600260149054906101000a900460ff161515156143fe57600080fd5b61442a7f8b5d68b72118d3191a023266c39777d9f072660abc89f2761d9e6c792bd310c360010261739c565b6144557ead53c480053279c157a04c0652ee4064d1c599d726b53bdfe5e51538b4069160010261739c565b6144817fa07ca5d175b133ae832f77419d6f3b779170753f00463e0943a8af7cc681008860010261739c565b6144ad7fc42a084f1bec46c22a34c451ca67a9000bb683163b10d858e18d49d6ce637f7360010261739c565b6144d97f0daab85665d9b4c8a0072fc446e1de6088d904d0dff31d5507110d249b2b78ec60010261739c565b6001600260146101000a81548160ff021916908315150217905550565b606060006060600080600061452d7f85403ca33e6ae1084125eea223e7714972c95c56d4bac8c9b783ed90a5823bab60010261739f565b6145597f995ad2f52e080a189e341d7f61a048021b2251ae7c55924ecb8862384ac6bcf460010261739f565b6145857f5ce17e7e421b1b1f9dc34dc9122228c7d2f46e07e3923454f87061ddae82935a60010261739f565b61458e8761404c565b94506145bc7f4213deeeac2a27dc3a18f4704ab5cba0731cd62d3ed69e19db31bbef30533aea60010261739f565b6145e87fd8c0918d861d1061d371ac732c64742928072cd724247dafc9fa45571394d95760010261739f565b60008514156146ad5761461d7fdcd440357ee92730a486a5aa4c98c4a4e06306f5a88030715cfbb68fb9ee2b8960010261739f565b6146497f7f9374adc619e0d3aec5b0807093becb689f1066056e62396ff056c6b81d397960010261739f565b6146757fc245da1c6040c31ef04938f540900d13140b53f87cc92d2b8e8bb87c07bc4b9660010261739f565b60006040519080825280602002602001820160405280156146a55781602001602082028038833980820191505090505b509550614b0f565b6146d97f89b7d1e509fcbfd9c032edf18b2aa75fe6dd2cbc86d3fc16271c602d7fea5f9460010261739f565b6147057ff1a1e47922e989a32a7b0e1905deafdc98a97b394bba5fe3323e1e37713dbafb60010261739f565b6147317f4b32ca9643e948e38283767dfc16a66e1fa4a7d52db244c3509fd08daa9be32d60010261739f565b846040519080825280602002602001820160405280156147605781602001602082028038833980820191505090505b50935061478f7fae156cb462fbd12d2b4648237beab9d7fa57982aa2f204dcedb96072a3ad432c60010261739f565b6147bb7f06186de1dab891c12214084e4f57e199cc7c3230a26cbea0d40086c259045cec60010261739f565b60016006805490500392506147f27f55b21a1324d0155a233f6eb28501ca103f1c34a4dfaf8d7cccca6dd934cad81a60010261739f565b61481e7f3d668d82d4b06a0287652d6b06f98bbb6bbdbf5350eec5c4b99f47a686edb18960010261739f565b6000915061484e7ff80e87458dcc23a56ad58db43252b69b8f915a1cabf16b0bd7758b5e3a34245060010261739f565b61487a7f5f41767b691952995b64698feff988fe1244a65b39c33ca8a84e62d2db453cfb60010261739f565b6148a67fb5fb03ce95f314fbf5a90641c49aa33d302f3407e975d590cbbe4c1bccbce26d60010261739f565b6148d27fc3152ec1bf5cb32910a65195c40ea056dd970468b9927819592fa4eccb3d6dd760010261739f565b600090505b8281111515614ab35761490c7f06d82fbd005cdc9e712420380a8946347e5b0b026fb8a7f0875e37998d479ae260010261739f565b6149387f8fd97192a01a7d5eb812b4b3968b5926f4e5222cd08bd4053a94706b0e5da06060010261739f565b8673ffffffffffffffffffffffffffffffffffffffff166007600083815260200190815260200160002060009054906101000a900473ffffffffffffffffffffffffffffffffffffffff1673ffffffffffffffffffffffffffffffffffffffff161415614a79576149cb7fd9c35dd820dcfe2a39fe9232675e2635c512d183a44875a4cb573dda7892483660010261739f565b6149f77f6d25656f80db914f40168aad8764e7e6256839231356332e50e338bba43c9b7760010261739f565b614a237fc45eeef7391c294f4c6187bc54526d144b1205709985c643b43b3c091361b80a60010261739f565b808483815181101515614a3257fe5b9060200190602002018181525050614a6c7f0b81d12d1f89d58e00bf2f6685e5de09c3c10fd872185337f3bdbe1fd760c30e60010261739f565b8180600101925050614aa6565b614aa57fe66a41e9306ed9c735d6d7508f6e1fd1b1c7aa459a0ce1425d2d3498dd1ab5d460010261739f565b5b80806001019150506148d7565b614adf7f513f7c5030f70a1c6ba15a7bd6bbe607dd8435962af3328797f6112e0571674660010261739f565b614b0b7fe9a6b14beba3e36146c653cfcac64063e23f711016ed3a38a03b64aa723d483360010261739f565b8395505b5050505050919050565b600080600080600080600080614b517fcb2648b67b0de279cb753577ec77c6b2ea08d23aa34ef2f48c5aab3c2f7b331360010261739c565b614b7d7f6f460441e04e9f2fab210055dfdc65babe4e31ac3fe89dcb41c84c7fb037599160010261739c565b614ba97f3dde09caefb3a1f40ad03cded37744ff16ee712b622d5384bd28cad309760ae760010261739c565b614bd57f7808d25d5414a096b7d4484dd157a0f0c9b5f6c11dae49f7d70fd4cb3bbde23260010261739c565b600260149054906101000a900460ff16151515614bf157600080fd5b614c1d7f8b5d68b72118d3191a023266c39777d9f072660abc89f2761d9e6c792bd310c360010261739c565b614c487ead53c480053279c157a04c0652ee4064d1c599d726b53bdfe5e51538b4069160010261739c565b614c747fea9e3a7ec49099d83788c3bb13da6dbea9a4e8d866aca2b0f29c718085d62efd60010261756f565b614ca07f0cf6e682769bf3e465f64fe4cb94ebbe057583049490b8ecfa579ad9563ecf5f60010261756f565b614ccc7faf4c822e1d535c7dba0ddc75abc0ad99c9ac583e532316b9b5553d148660476b60010261756f565b600689815481101515614cdb57fe5b90600052602060002090600202019650614d177f89dcfce4e1552a57acbc4256787fbbf784b55062d0ac10446a166996fe22c5fd60010261756f565b614d437f0fa1749dc05f769e57ab9bfb2a414d9dfe2e0111c78e3e18c6beef53184ff67960010261756f565b614d6f7f909043c95a09faef1af355cd7880e9cafe0dd2a2d83be44b58fc62bd8404c7c760010261756f565b60008760010160009054906101000a900467ffffffffffffffff1667ffffffffffffffff1614151515614da157600080fd5b614dcd7f982d65282ac6816dff3e789821857cde920a327d488f98744df2cb3595abfdaf60010261756f565b614df97fca412ad918726b699deee2b4198efa237b67aa220c9e82ab51d972397e82a27260010261756f565b614e257f9183d605abefdea42e64a84316879f4bae7dbcf186a50f531c8fcd1f6624895d60010261756f565b614e517fbc1ae63a2b231f755f8a97ede81550a9d2b2944807f28fb96e913b05fb73859960010261756f565b614f87876101006040519081016040529081600082015481526020016001820160009054906101000a900467ffffffffffffffff1667ffffffffffffffff1667ffffffffffffffff1681526020016001820160089054906101000a900467ffffffffffffffff1667ffffffffffffffff1667ffffffffffffffff1681526020016001820160109054906101000a900463ffffffff1663ffffffff1663ffffffff1681526020016001820160149054906101000a900463ffffffff1663ffffffff1663ffffffff1681526020016001820160189054906101000a900463ffffffff1663ffffffff1663ffffffff16815260200160018201601c9054906101000a900461ffff1661ffff1661ffff16815260200160018201601e9054906101000a900461ffff1661ffff1661ffff1681525050618af7565b1515614f9257600080fd5b614fbe7ffb4ac45f7c0d3fada199ce3727453419e019ed373019ed4386302f1d4c81eb3260010261756f565b614fea7f650d3f224fff25c8167ffad76671b17560d109d62bdc37108cceab370f80817560010261756f565b6150167f9bd1a7b990e8218bf0c605877072f942d2d880eb06bb7fd9d9a6f50ac315770c60010261756f565b8660010160189054906101000a900463ffffffff1663ffffffff16955061505f7ff6e0f31d945f2b2374c790df87c6176b53988498c86a73a4a40579f14be3a8c560010261756f565b61508b7f7b40f11b8ce027069a34f3edb051c7d4c93935c0d91382a468d269226817b16b60010261756f565b60068681548110151561509a57fe5b906000526020600020906002020194506150d67f0176e67b7172b9a03f7c4ed3c266aa3a06d950910ca0188781a9ae688ba5014660010261756f565b6151027f3bf9579eeafb6900aadbd0298e2cc351c05908b27cf3c52ad3e6b50131a815ce60010261756f565b86600101601e9054906101000a900461ffff1693506151437f1b32e25d59cc8e909749da2a177a62312c825b492495d66bfd194db3eed0624460010261756f565b61516f7fdeb9743d1a016e809caa6f249c15996a8292e1ef08700f6de166e5b91648dad560010261756f565b86600101601e9054906101000a900461ffff1661ffff1685600101601e9054906101000a900461ffff1661ffff161115615241576151cf7fa3ff7e177ebb7845590852d70bce210406b027facd078c20642979e7f5ac312c60010261756f565b6151fb7f61814a2127e7b3f353ca165a6aaef3e6e479c9d5c48cc662cd22d61da552140960010261756f565b6152277fc44940c0bff142da5c3937528047b7a3f4c0e1c23641458cd00067423edc306760010261756f565b84600101601e9054906101000a900461ffff16935061526e565b61526d7f1af77dd4fb60ea67be156e22f5787383f4a0d7b579d758400b5a7f2b14ce538860010261756f565b5b61529a7fb338ee5106efad800092c5a905ca48282700869244ef773ccf0f267328c0376f60010261756f565b6152c67fe5b732ca94b6aec69fbc5b7869c8c09f50445df3ed80312830728f6f083de14860010261756f565b601160009054906101000a900473ffffffffffffffffffffffffffffffffffffffff1673ffffffffffffffffffffffffffffffffffffffff16630d9f5aed8860000154876000015460018b60010160089054906101000a900467ffffffffffffffff16036040518463ffffffff167c0100000000000000000000000000000000000000000000000000000000028152600401808481526020018381526020018267ffffffffffffffff1681526020019350505050602060405180830381600087803b15801561539457600080fd5b505af11580156153a8573d6000803e3d6000fd5b505050506040513d60208110156153be57600080fd5b810190808051906020019092919050505092506153fd7f78596b267df668052330e530fb5911838c6477a6c63e0450a11fe23025e3073060010261756f565b6154297f39c72387352a8ad2946cbe6ba3059ae96bedd2c0f5bbf94cb33f2b6756d5542460010261756f565b600760008a815260200190815260200160002060009054906101000a900473ffffffffffffffffffffffffffffffffffffffff16915061548b7f0a55d10b21c64ba1a66acc0e9e635a67e8aaf2e963aaa7c117d6298138fb626160010261756f565b6154b77f544ec09279dd1c1994ec8de4979dd6ffbfe90b45300d71399f5885615583990f60010261756f565b6154e5898860010160189054906101000a900463ffffffff1663ffffffff166001870161ffff168686618bb7565b90506155137fa733f0928c8804eb8c03e2b3fe5384bbe5251ad76d73180771e880b8a242b05f60010261756f565b8660010160186101000a81549063ffffffff02191690556155567f30a9967d8fd7da19a81e62edfc1870b15756ac237ccfaaf2cc28035aec0bee8f60010261756f565b601060008154809291906001900391905055506155957faf0ceb641320225a5b3a4a46ee9550d44c94cff021c39152996bd524869c23e360010261756f565b6155c17f9de7eaa159cf71e9c4be13d8069868fe88b22b1dde725575c85e8cf9ef13848e60010261756f565b3373ffffffffffffffffffffffffffffffffffffffff166108fc600f549081150290604051600060405180830381858888f19350505050506156257f88028807a863f5d5735f64d31703eaf848adea15343d2d3e1234853739981fb960010261756f565b6156517fe280a15d3a4f5a3ca347382cc8ef5b13f5372d78f1a54c18b0d6b86e3ca5294660010261756f565b80975050505050505050919050565b600061568e7f34ba93981658c3daa5f666bbb9fe4c2050f8795f520af64c257be31ef93f4a7e60010261756c565b6156ba7f6e13615425708a7761bd047818bc837ac9fb4bd1e59bf3fa4452e4cbd770a56060010261756c565b6156e67f1dc2ce0d010e73d168ffe98a84a9bc524a16f273016615775624f5da12869a7e60010261756c565b6157127f7988d104597cafdb112f343393a63efde85108a1f51c7a8effe784254afa55de60010261756c565b60011515600d60003373ffffffffffffffffffffffffffffffffffffffff1673ffffffffffffffffffffffffffffffffffffffff16815260200190815260200160002060009054906101000a900460ff16151514151561577157600080fd5b61579d7f74c308184e27580c17a1d0b6ff599bb36cc06cea53ef2b0b67c3f3d83101591560010261756c565b6157c97ff94d3c11b156185524dc880705acc4e207d4e6c8ac4a3c0d0c44c9bda584852660010261756c565b6157f57ff50e21c65a09e47887f3e66fc375b960d6cdee977357cd8f05b332b86389e0de60010261756c565b6158217f06fe3d109c5f8f7118a26976524468fc10948d9e12c159cbab4bdf5c5411416860010261756c565b61584d7ff2819c7e9c887c84687b31a37f976a82fefcc299c4d27256e4e80e14d00b383f60010261756c565b600e600083815260200190815260200160002060009054906101000a900461ffff169050919050565b6040805190810160405280600381526020017f434254000000000000000000000000000000000000000000000000000000000081525081565b600381600e811015156158be57fe5b60089182820401919006600402915054906101000a900463ffffffff1681565b60096020528060005260406000206000915054906101000a900473ffffffffffffffffffffffffffffffffffffffff1681565b61593d7fcb2648b67b0de279cb753577ec77c6b2ea08d23aa34ef2f48c5aab3c2f7b331360010261739c565b6159697f6f460441e04e9f2fab210055dfdc65babe4e31ac3fe89dcb41c84c7fb037599160010261739c565b6159957f3dde09caefb3a1f40ad03cded37744ff16ee712b622d5384bd28cad309760ae760010261739c565b6159c17f7808d25d5414a096b7d4484dd157a0f0c9b5f6c11dae49f7d70fd4cb3bbde23260010261739c565b600260149054906101000a900460ff161515156159dd57600080fd5b615a097f8b5d68b72118d3191a023266c39777d9f072660abc89f2761d9e6c792bd310c360010261739c565b615a347ead53c480053279c157a04c0652ee4064d1c599d726b53bdfe5e51538b4069160010261739c565b615a607fe0ecb0f864571a52b4bfa4f15de4c8c89a96e9a45ec9173265726fc21312d2c560010261739f565b615a8c7ff1613e5f59292d1591ccbf842ef2773831dd1527e2499a0aed38b1b9e8dd933d60010261739f565b615ab87fd646c7d8fced1c4fac1e5aef3b56415c585d036943ececb9665d6c6aefd4633f60010261739f565b615ae47f17e4788fa77d4ad90be92b97619960271cc10dad4d6b3f2fceb243fd1395588460010261739f565b600073ffffffffffffffffffffffffffffffffffffffff168273ffffffffffffffffffffffffffffffffffffffff1614151515615b2057600080fd5b615b4c7faec032eddc8f10ea1fdfb305125ee98ba6c06ab1c36056e6abf9680163df364960010261739f565b615b787f42c3d5660da8680635c4dad6fbf08d3caa6df9b2ee62826a1a53bcd5ac0c3d6660010261739f565b615ba47ff617c651e9159cc4b7c4ed93b8784da3dec165d2552e70134f5c768daab0fbdb60010261739f565b615bd07fe6db742eeb07738ad50d9d45566b09ca1c898b6c03b8c0a081dca8561370a01b60010261739f565b3073ffffffffffffffffffffffffffffffffffffffff168273ffffffffffffffffffffffffffffffffffffffff1614151515615c0b57600080fd5b615c377fa232811a342ce77a8ca225ac21837f76147e7743cac48a68b065b0fea27532e860010261739f565b615c637fa5182b16f8be05730260ae4bf0c89d7dd1beeb4b0e892042d7adf5065bb0033560010261739f565b615c8f7f6dc57232c2bc288e9aea3b508bca7aaeecf80e34bd18cabb22e55c8c65bad47c60010261739f565b615cbb7f979f118d5524a4a2e79d15ac12e5fe069689fe56e9c2b0b9fcff6c20e9007e7660010261739f565b600b60049054906101000a900473ffffffffffffffffffffffffffffffffffffffff1673ffffffffffffffffffffffffffffffffffffffff168273ffffffffffffffffffffffffffffffffffffffff1614151515615d1857600080fd5b615d447f77486c92ff22ff62f123d153e71268f095968f760cd220cd3767f71ff80e123060010261739f565b615d707f475f9928f68ff9ef4bc9e289d65bc6da89758850a4ba8811dcaab8f0d462db5060010261739f565b615d9c7fb38b17e33c30b567bf73914ea0b91e409fddfb5f55c5c0ef85237941f7540ecd60010261739f565b615dc87f15045976ff9f29bcdaf169c5694b56cd6d7f56628705001e149ae2dd16dc2e9b60010261739f565b600c60009054906101000a900473ffffffffffffffffffffffffffffffffffffffff1673ffffffffffffffffffffffffffffffffffffffff168273ffffffffffffffffffffffffffffffffffffffff1614151515615e2557600080fd5b615e517fd7e06477747fea29f8a331b42f453088d490dda53e8ddd171ef630699cde12f560010261739f565b615e7d7fed5d0ad680ed04c695201f0cd9b789a59258aec9015e67443f7e8051d1a770b160010261739f565b615ea97f198814bdf20706d6673c429ecb9c6f960ad511fe654f59555e681f500c2a61ba60010261739f565b615ed57fa11784c508a35f6b44f0ddd608e7308f5f3e4e98bef5001152c7929de286715360010261739f565b615edf33826173a2565b1515615eea57600080fd5b615f167fe96c325dfc2b738afae8ce243f8c5407ad0716041672dd41f4b16295d426fd4160010261739f565b615f427f912fc0d035716ae883c16f267365849cc0083f33c9f9fc50908c14f94389d7f060010261739f565b615f6e7f325f1856d23d5f2ce56d044d7292926b2d2ea2d8c0dd2485b8aeb7e17e9a6cf760010261739f565b615f9a7f35ae2f4622ff7ecee4eeed64791a0518562de358c27cf6e9b1b69ae8a3302db660010261739f565b60006002600e600084815260200190815260200160002060009054906101000a900461ffff161661ffff16141515615fd157600080fd5b615ffd7fc01c3ebc17e799a2cf378e92091f013b0288249d227f37dbd9bf2deadecbe57e60010261739f565b6160297ff2928bb13810bf04b8e1bb88682335286c7ca67f4a62bfd570b352632c5d7c5c60010261739f565b6160557f9e3829d0dbd48fac3be877d3d0c5a54c3a1471245d0832acc7fdc263b8d8700c60010261739f565b616060338383617662565b5050565b600260009054906101000a900473ffffffffffffffffffffffffffffffffffffffff1681565b600f5481565b6160bc7f34ba93981658c3daa5f666bbb9fe4c2050f8795f520af64c257be31ef93f4a7e60010261756c565b6160e87f6e13615425708a7761bd047818bc837ac9fb4bd1e59bf3fa4452e4cbd770a56060010261756c565b6161147f1dc2ce0d010e73d168ffe98a84a9bc524a16f273016615775624f5da12869a7e60010261756c565b6161407f7988d104597cafdb112f343393a63efde85108a1f51c7a8effe784254afa55de60010261756c565b60011515600d60003373ffffffffffffffffffffffffffffffffffffffff1673ffffffffffffffffffffffffffffffffffffffff16815260200190815260200160002060009054906101000a900460ff16151514151561619f57600080fd5b6161cb7f74c308184e27580c17a1d0b6ff599bb36cc06cea53ef2b0b67c3f3d83101591560010261756c565b6161f77ff94d3c11b156185524dc880705acc4e207d4e6c8ac4a3c0d0c44c9bda584852660010261756c565b6162237f67cba99f09910c9c85ba4df093127c921a442884d0040f31f41bc6b40b380f2160010261756c565b61624f7fc68a105e427ae89d1f42312c81697992ee0b0a40aa78c683c0d958fa98d5d6db60010261756c565b61627b7facea46e834496401e5b20be70253fbca1859b9ea103bfae51d46ffb1f70685a260010261756c565b61628582826194cd565b5050565b60006162b77f34ba93981658c3daa5f666bbb9fe4c2050f8795f520af64c257be31ef93f4a7e60010261756c565b6162e37f6e13615425708a7761bd047818bc837ac9fb4bd1e59bf3fa4452e4cbd770a56060010261756c565b61630f7f1dc2ce0d010e73d168ffe98a84a9bc524a16f273016615775624f5da12869a7e60010261756c565b61633b7f7988d104597cafdb112f343393a63efde85108a1f51c7a8effe784254afa55de60010261756c565b60011515600d60003373ffffffffffffffffffffffffffffffffffffffff1673ffffffffffffffffffffffffffffffffffffffff16815260200190815260200160002060009054906101000a900460ff16151514151561639a57600080fd5b6163c67f74c308184e27580c17a1d0b6ff599bb36cc06cea53ef2b0b67c3f3d83101591560010261756c565b6163f27ff94d3c11b156185524dc880705acc4e207d4e6c8ac4a3c0d0c44c9bda584852660010261756c565b61641e7f3656f412e650a736b30ee1b85a53658a3bd9bc4678c84f95fdecc8c72ae2fb3c60010261756c565b61644a7f0244e02df212c49d5e5083f6b9f775798a5b4f2c76ffbd89f8c203cbc5d2131d60010261756c565b6164767f61275c1adf3df590bc0343e12b4cf45efe3858615c8b482b9cf319e8437165b060010261756c565b6164838686868686618bb7565b905095945050505050565b6000806164bd7f4176e0b73de34096ee1d7b39064213b10e4684651774dfc7a43775744897da1c60010261756f565b6164e97fed3d01415addfc43e36b5697aa20733f362954a7000d744a8fec86e9dd663d7f60010261756f565b6165157ffef12e0a4519fcdcf5a31cb3c1de5ee26427adfdfa163874aeea0fed948f9e0860010261756f565b60068381548110151561652457fe5b906000526020600020906002020190506165607f95236b2204efe6fd7c98104da480625f7d6fee0a8b91eece48dc80008722d22860010261756f565b61658c7fb6880abbcda67ed1a936422f0c9eeb92bbbe3482d2c01bcfb9ccfcbe8980c88e60010261756f565b6000831180156166cf57506166ce83826101006040519081016040529081600082015481526020016001820160009054906101000a900467ffffffffffffffff1667ffffffffffffffff1667ffffffffffffffff1681526020016001820160089054906101000a900467ffffffffffffffff1667ffffffffffffffff1667ffffffffffffffff1681526020016001820160109054906101000a900463ffffffff1663ffffffff1663ffffffff1681526020016001820160149054906101000a900463ffffffff1663ffffffff1663ffffffff1681526020016001820160189054906101000a900463ffffffff1663ffffffff1663ffffffff16815260200160018201601c9054906101000a900461ffff1661ffff1661ffff16815260200160018201601e9054906101000a900461ffff1661ffff1661ffff1681525050619e0e565b5b915050919050565b600b60049054906101000a900473ffffffffffffffffffffffffffffffffffffffff1681565b6167297f34ba93981658c3daa5f666bbb9fe4c2050f8795f520af64c257be31ef93f4a7e60010261756c565b6167557f6e13615425708a7761bd047818bc837ac9fb4bd1e59bf3fa4452e4cbd770a56060010261756c565b6167817f1dc2ce0d010e73d168ffe98a84a9bc524a16f273016615775624f5da12869a7e60010261756c565b6167ad7f7988d104597cafdb112f343393a63efde85108a1f51c7a8effe784254afa55de60010261756c565b60011515600d60003373ffffffffffffffffffffffffffffffffffffffff1673ffffffffffffffffffffffffffffffffffffffff16815260200190815260200160002060009054906101000a900460ff16151514151561680c57600080fd5b6168387f74c308184e27580c17a1d0b6ff599bb36cc06cea53ef2b0b67c3f3d83101591560010261756c565b6168647ff94d3c11b156185524dc880705acc4e207d4e6c8ac4a3c0d0c44c9bda584852660010261756c565b6168907f7fb78cee7876fe59378c92d71f0664000626f133d8bb0b1d4b78bd9087d3f12160010261756c565b6168bc7fe2b5c6114496aadc5d19b41e7b20676ec5a3b9c6b840bced39f01be4854c255d60010261756c565b6168e87f48e29eabc4f5ead65887aabc5074676ef1ac52c07b1b60e89f0b4631ca0fb2b660010261756c565b6169147fd58cca48d34222c8aad5b20d74c4becb0914b674b3f7e54d6115e474a901cc3860010261756c565b6000600e600083815260200190815260200160002060009054906101000a900461ffff1661ffff1614151561694857600080fd5b6169747ffd755bf1f4d210adf86e1976af870c2dde76ef249a2e04281723ec2d67834b4960010261756c565b6169a07fecb91de1a63b000aba28b86778eac2321e7269fe1df84c98cf8cc02b2beb4c2d60010261756c565b6169cc7fc843093e22fdbe07b710d6cfb557f4adc198b468a9328fb3373a8878c49f0f7860010261756c565b6169d581619f02565b50565b601160009054906101000a900473ffffffffffffffffffffffffffffffffffffffff1681565b600080616a2d7fcb2648b67b0de279cb753577ec77c6b2ea08d23aa34ef2f48c5aab3c2f7b331360010261739c565b616a597f6f460441e04e9f2fab210055dfdc65babe4e31ac3fe89dcb41c84c7fb037599160010261739c565b616a857f3dde09caefb3a1f40ad03cded37744ff16ee712b622d5384bd28cad309760ae760010261739c565b616ab17f7808d25d5414a096b7d4484dd157a0f0c9b5f6c11dae49f7d70fd4cb3bbde23260010261739c565b600260149054906101000a900460ff16151515616acd57600080fd5b616af97f8b5d68b72118d3191a023266c39777d9f072660abc89f2761d9e6c792bd310c360010261739c565b616b247ead53c480053279c157a04c0652ee4064d1c599d726b53bdfe5e51538b4069160010261739c565b616b507f6a6f1570984f481a74a0a5d492d257e628029ae055657e12f33803e6aa5bfa1f60010261756f565b616b7c7f9862737876ff860c577068bde877673b22d33a60c7cc391fbf0a1aa7c1aa842c60010261756f565b616ba87f05960928859483613b8961c79f9bc931e801c0de32177ea2d214abea31caf62d60010261756f565b616bd47f3adb07a55b9768f86a0f4ea3a844a6dc97b9ce4fef648a0d4ad8fac22ae1388060010261756f565b600f543410151515616be557600080fd5b616c117fd302344c9c41bbfa776726434b6085a813d4c63d44b1f44c9165a82863e6533a60010261756f565b616c3d7ffa50681d140d593c68bb6d62c3fdcace05628c6f820fea7d82d558847db13f9560010261756f565b616c697f632dcc78f7bc8c532fc925920574d14b51b0646984b1d75914501e09e8a201f560010261756f565b616c957f1e327dcb4c209e3cde68366f08c292a2613eeec17456f5da9f1736d466fc427e60010261756f565b616c9f33856173a2565b1515616caa57600080fd5b616cd67f4bf9821f39690d2c1b0efa749e519bfd9faaa7dc55c4e4bfab6c98671d288b8b60010261756f565b616d027f89fa6712e8684eb98720367ca57d9d69a40d30fb330229eeebfb0a092d3f6b1560010261756f565b616d2e7f026f8b9eb3fe73b9cc090c208c3c089b23048cec56febefb164f354d92e0515160010261756f565b616d5a7fb40f5db6a093a64a9fae481ebf728d50f87efabb5e089088ca40553fd06cf95460010261756f565b616d6483856188ad565b1515616d6f57600080fd5b616d9b7fa0b3593ade00b79d93e3a05f9d27a3ba0efaf34327fc63ba132766857ac58ea960010261756f565b616dc77fa9a338ca9d4f854d55b5c51f32ce8fb7cc42092325bbc7a85686e43573512bf860010261756f565b616df37fbade8354d10b8772fc4f55d60af55b4feadd17d21c3e13ea7bf8988984adb75160010261756f565b600684815481101515616e0257fe5b90600052602060002090600202019150616e3e7fc32ef873167351c56e00a8932c6a727b820b8f2357170c52a97a2f5c8613052360010261756f565b616e6a7f931fe26e0deae927fb1c6f121a3d982ce13202fc1e025fba01e50a8245ff795660010261756f565b616e967fd90c67ee0af803220d8ac0f2ba6c8126664b46984d3c6b63f283f2cc2b26899c60010261756f565b616fcd84836101006040519081016040529081600082015481526020016001820160009054906101000a900467ffffffffffffffff1667ffffffffffffffff1667ffffffffffffffff1681526020016001820160089054906101000a900467ffffffffffffffff1667ffffffffffffffff1667ffffffffffffffff1681526020016001820160109054906101000a900463ffffffff1663ffffffff1663ffffffff1681526020016001820160149054906101000a900463ffffffff1663ffffffff1663ffffffff1681526020016001820160189054906101000a900463ffffffff1663ffffffff1663ffffffff16815260200160018201601c9054906101000a900461ffff1661ffff1661ffff16815260200160018201601e9054906101000a900461ffff1661ffff1661ffff1681525050619e0e565b1515616fd857600080fd5b6170047fec0974adfedb05bc650207c07ba20bdf5663747d62cf12bf1dec598b4d1c7c3560010261756f565b6170307fb207ef40ecd8bb1dc989fbb8296ae5c1a8038416835576a1c78d3a0a6cfe9bb960010261756f565b61705c7f37432822c78fe15758a23366ebae1a98f5dedffcdd0c004698d1204d3fa2d1ce60010261756f565b60068381548110151561706b57fe5b906000526020600020906002020190506170a77fb81305ac3c02fe00a289b3a0813667e8ef0fcb87077f229b9755cee88187b76a60010261756f565b6170d37f099f6d9cc0e543cfd8905fdcdc9e321c939466e85b22a5b9ee19657b15e92cbe60010261756f565b6170ff7f100bac891c7cda9c0fc635176c6bd6371f02cb0ab6d59bc607c6d4567ff0849560010261756f565b61723683826101006040519081016040529081600082015481526020016001820160009054906101000a900467ffffffffffffffff1667ffffffffffffffff1667ffffffffffffffff1681526020016001820160089054906101000a900467ffffffffffffffff1667ffffffffffffffff1667ffffffffffffffff1681526020016001820160109054906101000a900463ffffffff1663ffffffff1663ffffffff1681526020016001820160149054906101000a900463ffffffff1663ffffffff1663ffffffff1681526020016001820160189054906101000a900463ffffffff1663ffffffff1663ffffffff16815260200160018201601c9054906101000a900461ffff1661ffff1661ffff16815260200160018201601e9054906101000a900461ffff1661ffff1661ffff1681525050619e0e565b151561724157600080fd5b61726d7fcda9ea3ca75595e7ed7c9984d2952f48ee4246a9f12c7798fb9928722f4449bf60010261756f565b6172997f4a345083d72de97d98a4d2b43b26529b48ff3dca90789cefcd9c73ae8e737b1060010261756f565b6172c57f271a9928ddc1beb9a1d073b056d07dc306c85bb46c5b358957faf84b8fd568e260010261756f565b6172f17febff20a5e9d486511d86ec6977ed42beaa6744beec1a2a667cd34c1e7419b16960010261756f565b6172fd82858386617fe4565b151561730857600080fd5b6173347faa511ebb30d266ef5931b304f4ce76d6c8988b8e2dcf2081716d1b7882b8ff4060010261756f565b6173607f17a4022e9254dcd099e1fe097874859281b3973f7b528fb0fc6af957b750604560010261756f565b61738c7fe58ca24c2e9c17be1d275f31423631b47abaf0a01e4b38653c6b9cd6aebe850160010261756f565b617396848461a238565b50505050565b50565b50565b60006173d07ff620c8e7d6f39c01885c2f71899579216cff732114cbb5eef54d7e5e9a26f7ec60010261739f565b6173fc7f8aa379ba9d2f7b27c97830c6a8b3692f1f0b6c07b5dd2cf671da1ae2bed490a660010261739f565b6174287f284f45a4377482355d6da17ab0c407f006dbb1030be26f0fe8c2ed396f12ae9b60010261739f565b8273ffffffffffffffffffffffffffffffffffffffff166007600084815260200190815260200160002060009054906101000a900473ffffffffffffffffffffffffffffffffffffffff1673ffffffffffffffffffffffffffffffffffffffff1614905092915050565b6174be7fb41cd5f6201c7bf3f76d2b60228af44106d8421c721046002117e62c95cf9e1660010261739f565b6174ea7fa4449cf38feca80eeb21c8422f360bb542f795915e091a010a5cc6a2ec8d249060010261739f565b6175167f766b16c6dd58fadf52362556f318d8f8db6c5a620f0bf45b88faaa8b542f311a60010261739f565b806009600084815260200190815260200160002060006101000a81548173ffffffffffffffffffffffffffffffffffffffff021916908373ffffffffffffffffffffffffffffffffffffffff1602179055505050565b50565b50565b60006175a07f3ae97b2983935f6bc221b02c21265cb10a524cb974da3345c6e6bbc16e31fb5d60010261739f565b6175cc7fa8a5df3c83ef1fcc9a2e7879ee1b05af0f7f8c14cf1914d0b7b9573ce40e619c60010261739f565b6175f87f915c2b227dcc2832771b55a08b846cd2b47603142a46d6eec2b45047717dbd5b60010261739f565b8273ffffffffffffffffffffffffffffffffffffffff166009600084815260200190815260200160002060009054906101000a900473ffffffffffffffffffffffffffffffffffffffff1673ffffffffffffffffffffffffffffffffffffffff1614905092915050565b61768e7f66b696999af1a6a5a345bf3e9f29fedb18e5666a229a977c9f6af3cbc94738bb600102618af4565b6176ba7f54f4b79b2d0d8747ddaa341ae0bfe7d5522db5383323e2fd81ebc48cd704e9fb600102618af4565b6176e67fb3d27e017d666ac9fbc5d11deb51ba46e2b263acea399b7bafbb13c3288af838600102618af4565b600073ffffffffffffffffffffffffffffffffffffffff168273ffffffffffffffffffffffffffffffffffffffff1614156177ae576177477feddf6b000c535abae7d0b760c7c16929e51af1469b587db67a62afde7e19cf5a600102618af4565b6177737fa584a9b7faafe335bfebf096b8c371a4f295bf67342dbf5772750ffc39cc3a02600102618af4565b6007600082815260200190815260200160002060006101000a81549073ffffffffffffffffffffffffffffffffffffffff0219169055617900565b6177da7f93b059e4aac9bd4320e7a5f7d9980173294e9757131d11de2edc9599f324e3a0600102618af4565b6178067fa6d303d9287b7834d673e33b530dd58e6170c196c236730b72622a4c376d71ff600102618af4565b600860008373ffffffffffffffffffffffffffffffffffffffff1673ffffffffffffffffffffffffffffffffffffffff168152602001908152602001600020600081548092919060010191905055506178817f44ef1e3b61a49bb5208bbbecb00c8bfe5dfc9be34c0480bfaa25ef90a5ecdc5d600102618af4565b6178ad7f365ffe523aae4c9ffadf73544c18a5552ff1ff7b389c2cbe13c9d15b3326b9aa600102618af4565b816007600083815260200190815260200160002060006101000a81548173ffffffffffffffffffffffffffffffffffffffff021916908373ffffffffffffffffffffffffffffffffffffffff1602179055505b61792c7f2226ce019e47537d8e454ddca5e112d4903790ace74d41dc9d363c43b3410cad600102618af4565b6179587f47385f808687c27d5a59a7dc42f93e0fdeea737f727cc62e711669ff5c38f108600102618af4565b600073ffffffffffffffffffffffffffffffffffffffff168373ffffffffffffffffffffffffffffffffffffffff16141515617aff576179ba7f4e6127e4a994fba5df78e71aa18f1f1d523362630cb30aead6876e9990c428c6600102618af4565b6179e67fb235be59090e82c7bfa8a8b8023417fd999d3fd1bba568e191668a4e186e463f600102618af4565b600860008473ffffffffffffffffffffffffffffffffffffffff1673ffffffffffffffffffffffffffffffffffffffff1681526020019081526020016000206000815480929190600190039190505550617a627f4ed115f965b9ea3e54650231154a5f18cc3a35f092b81ad39aacaa7e85475e28600102618af4565b600a600082815260200190815260200160002060006101000a81549073ffffffffffffffffffffffffffffffffffffffff0219169055617ac47fae028673c4046d8259fe2c9a860fcb6a49bbbaa83d1dd3ca2ac0688d1ae4801f600102618af4565b6009600082815260200190815260200160002060006101000a81549073ffffffffffffffffffffffffffffffffffffffff0219169055617b2c565b617b2b7f31b6fa50e79ee1c74054d4e9d070882636304fdaf307c0f2eb7f23d44fa533fd600102618af4565b5b617b587f0668f245b8ed5f50acf7a77b0b916c0b8f67b3800fb95d8d4d7bd9c893e68e25600102618af4565b617b847f4d5369baa40700f5ca0035a032d898cee0eeae70c91a454ee4172329d88f4be2600102618af4565b7fddf252ad1be2c89b69c2b068fc378daa952ba7f163c4a11628f55a4df523b3ef838383604051808473ffffffffffffffffffffffffffffffffffffffff1673ffffffffffffffffffffffffffffffffffffffff1681526020018373ffffffffffffffffffffffffffffffffffffffff1673ffffffffffffffffffffffffffffffffffffffff168152602001828152602001935050505060405180910390a1505050565b6000617c567f4ac87dde4a4fbaca206364122e0df3a6f4184df6c76089275191a1a34ad9d3b560010261756c565b617c827f54cd04fb1ca2f4b806ac1fd822067d8213e04e80be4638862e29ac77e9b81ba160010261756c565b617cae7f145cf622b2babc155e6defba81267c326ef5e297fe33e809a972ee7f207dbaea60010261756c565b617cda7f7afe5a0d7123df7eb4b516447a4b1f38456e55b80cdc5d51b0e89076e787f3ac60010261756c565b60008261ffff16111515617ced57600080fd5b617d197f1d0857e361644fc529011044b538b4529871176050090b70cff8659acaccb4d360010261756c565b617d457fe44b9a926eb40ebe146f72fe8eb1f294bb0f38a6706d5d4f1dba7c251baec6b160010261756c565b617d717feee4bbc877551112a62887ca03948a0987c894b2b6194910b2f5dc2fd97b776060010261756c565b600e600084815260200190815260200160002060009054906101000a900461ffff169050617dc17f8cf086795e83053371bfd98d3f0c3dcd9d14bf9fb5aa9fe2eece2123f6fdd24260010261756c565b617ded7f01ce12e48fd9ff60619a8c1b06837766ea5450b349c6af278e6eb7a1ec03ffe260010261756c565b617e197ff0c1f85969b006723f322c591da0ed4e84fa6e4601d81473e570f9fd14d8f53060010261756c565b8161ffff1682821661ffff16141515617e3157600080fd5b617e5d7f4d861962e20dbdb5080ce1b51f69537cc1a42ecf230a3189f84fce7c681221f560010261756c565b617e897fb94b1ad502b870dbe3e12366b95058558b90074bb995f8afdf882f83d16263b060010261756c565b617eb57f75e7611228a417365986770319c879df6fa4cd8f9bdfc4d4a52a84d82ad9f2b960010261756c565b8181189050617ee67f96978da1a422b0e207baf3b657187fb19d3e499dec944e636702b68ea68a913360010261756c565b617f127f3938bb22cba27a8e5cc6b45e821b00e56065102b6c703457829aacd8cba95ab760010261756c565b80600e600085815260200190815260200160002060006101000a81548161ffff021916908361ffff160217905550617f6c7f6d57617351ba084e8df47de9c0daa6faa76c09247c21437800b7f4ccd12bda3660010261756c565b617f987f848cad68c32655ac5b251517988645ef74f7ef99629035530f340e296d851ee360010261756c565b7f96b828b49c6eb235f60dde08b68959e6baef50b35a662b6db3cade02872d32308382604051808381526020018261ffff1661ffff1681526020019250505060405180910390a1505050565b60006180127f2652f96c20139186852897ab0075422e870e3cbc827706314b978e6ccc959a6e60010261756f565b61803e7f5471a63818dad5c8fd1ad807102fee99c9dc31d49ad789a1b9eba4c5a109baf660010261756f565b61806a7f7a91d49f83af5e845d136b3bd3f65bf8d105172aec1f74ff5bb1439983ba958e60010261756f565b818414156180ff5761809e7f097ce782f45e429acea2c0806b66e01335cb634901d376d2f67a57aec6a5c76160010261756f565b6180ca7f0ba6eb3b8edf9a128cd6aa804f81ef088b8acf527f5bd99ba1473d727deed6ad60010261756f565b6180f67f6561a5a123878f0dc2a6f36333878c92ebb29132c83fd94cbc48f75d2faa5c1c60010261756f565b600090506188a5565b61812b7f8f6b15014f83ea172ad55991b49ef14e7afb60cdecdcebcacb974a3680b81f6860010261756f565b6181577f084c279267a7211ca2c83ae9ddbb04fb9a70ae8bf9d2823b355f82d1e2dc108160010261756f565b6181837f059e348281112c8121387d768b4f4bbd98bfb6c0824ec83092bb7a42ff7d3da860010261756f565b818560010160109054906101000a900463ffffffff1663ffffffff1614806181c45750818560010160149054906101000a900463ffffffff1663ffffffff16145b15618256576181f57f3926957f804452c2722cd4b3ebb023dec2db32041c9334a0464fb941eae1212160010261756f565b6182217fbfdb2ce3b1fbb66fdf9d1e2a02dae93d9814d81fc3e4b44c8a4959a7d7814c0460010261756f565b61824d7fbb08912addd494178dd1214a18e1934ab119d198df3ec6fe2ad41bb33b97978960010261756f565b600090506188a5565b6182827f154f55f71919e0781bbdcd08daa299b109a00e9c816388709db14b29e1ca843d60010261756f565b6182ae7fe63b4bb507ee0d913a708ff1ed55dc794eff0ecd55226c2e3dd248c190684e2b60010261756f565b6182da7fb1be094b3f03681eed85b14ebef5a3b62b88e826f131e897531354286d58633c60010261756f565b838360010160109054906101000a900463ffffffff1663ffffffff16148061831b5750838360010160149054906101000a900463ffffffff1663ffffffff16145b156183ad5761834c7f26d771681171c199ec8e854be6cb568d473c62df7b04cff9596d838d05539c7a60010261756f565b6183787fedc57b718ae2e5596768017df2a37fdf79959793621f01f7b37f46d1a7c54ba060010261756f565b6183a47f46b574245b24ba9460da2fc9b19719c4acc2bd7526dd3fd6962b1050ede3e7bc60010261756f565b600090506188a5565b6183d97f3f43a8d904d2b5a331a58b496d3bc567c03ede4b06c51347aec49c5a811d41f060010261756f565b6184057fae1c5827f4a4e25a25cc18195145a12d2469d4310588975fa863254f72bca26360010261756f565b6184317feb3f1b3567e4290cebbe6595419ca83e16a8dfb39067761bcefbd1ed1205abc560010261756f565b60008360010160109054906101000a900463ffffffff1663ffffffff161480618474575060008560010160109054906101000a900463ffffffff1663ffffffff16145b15618506576184a57f5bdd158931799e4929ca9e192b59bf06de80974209e2169e187a4c29d87552f960010261756f565b6184d17f35823a33473b02e6f6658373792dd844728b5cae2191a8b7ad9e7a1a389ce82060010261756f565b6184fd7f21b83b98b69328d44a7db703adce8efa286c80ba36b55c05a699bf8dea5f3f4f60010261756f565b600190506188a5565b6185327ffa7be26a5895b4e7265320f2b2587646f638084360536bf122743302bbb1bb3860010261756f565b61855e7f4026dac0631272036909db3173aed0916f81e8ea2957e3ad1ce17350ac72b5e660010261756f565b61858a7fe54e7bb93348017fa9890dbf6c049a36614e78ae438d0f5e59120f4e91b9980960010261756f565b8460010160109054906101000a900463ffffffff1663ffffffff168360010160109054906101000a900463ffffffff1663ffffffff1614806185ff57508460010160149054906101000a900463ffffffff1663ffffffff168360010160109054906101000a900463ffffffff1663ffffffff16145b15618691576186307f39e2fadf80b1b0dab4d9718e2aaae39db3d406c69f5dc37c20fb114498a7c86360010261756f565b61865c7f2c57caa814c88c64eec59992f3785b90cff1d95ccd5b20b3862e7f95676e88d360010261756f565b6186887f4d6518a54750232d752d520e88c25a4abdf56025ccb85f1e1ba97781548d2f9960010261756f565b600090506188a5565b6186bd7f4edefcb3ec9e7d5e8dc5782cf4dde881c0d2483a3898e8d4e2946a13bf451c5d60010261756f565b6186e97f6490bc06189024d196d4f1d6af72a96957096b66301a747495064bd4908d34fb60010261756f565b6187157f3ac2d133462e1536a0511d042d983ca2c98b3db48e7fe30fb01a0615300b42c360010261756f565b8460010160109054906101000a900463ffffffff1663ffffffff168360010160149054906101000a900463ffffffff1663ffffffff16148061878a57508460010160149054906101000a900463ffffffff1663ffffffff168360010160149054906101000a900463ffffffff1663ffffffff16145b1561881c576187bb7fc79d9839cb73fa78cdc9dc13c08b1a16da44abcf5b58211e76ceb3fa24eaa0c960010261756f565b6187e77fe0f677e402691d5f82229ca5291478da7202a5d583026e15716f539ece6c6f5a60010261756f565b6188137f11e233e8c256fbf47bf04a76d0f551d0942f618ff08164b2102a84c31b4ca51760010261756f565b600090506188a5565b6188487f119ebad30b6dfbf8f80edef955a9644e5d2ff842f7d5fd5db5ce49890bdb406660010261756f565b6188747f21a19c216416a64a7b9083131d53a951cd76ee6149d7388921dd4beeb8cad57560010261756f565b6188a07fbc6081cf1bab835ebe219af24aaf7bac4bb5dc1324ce2f4c5a280c8cefdf917660010261756f565b600190505b949350505050565b60008060006188de7f6ccf932e04acbdcce047f227eb79aa79538d5a0fef8d0efb56534644c34a302960010261756f565b61890a7f9dc655809df2592bcff449e430de9858e95663a258f7065e87ac3c855307f02160010261756f565b6189367f9fc048062d1af2e56c2e370dfc5cc7e12bcb89d70f47e3df908293b264732e2760010261756f565b6007600085815260200190815260200160002060009054906101000a900473ffffffffffffffffffffffffffffffffffffffff1691506189987ff8b3062d0c6f2e2488255381e9638cd08ef3263f6a3ea1ce2eab447ee1092c1860010261756f565b6189c47fc85490541f1549fce21871f15e24e8710b84e837264eb471b218deb3933abed960010261756f565b6007600086815260200190815260200160002060009054906101000a900473ffffffffffffffffffffffffffffffffffffffff169050618a267f4afda7d323b184a93d8d37884bcb37712bdb638735d0e82e824c51452883325b60010261756f565b618a527fbcf7fd10edfeb04e4781d1cc26c6e5acf33ce5a7deed2e05796c0020afd6675560010261756f565b8073ffffffffffffffffffffffffffffffffffffffff168273ffffffffffffffffffffffffffffffffffffffff161480618aea57508173ffffffffffffffffffffffffffffffffffffffff16600a600087815260200190815260200160002060009054906101000a900473ffffffffffffffffffffffffffffffffffffffff1673ffffffffffffffffffffffffffffffffffffffff16145b9250505092915050565b50565b6000618b257f2b00a65d31fcab165e8535358c8dc3623cbf5b78dea8c29b9e355578ad37b6cf60010261756f565b618b517f203e3a188969079db837ab33843ca7998ded78a08f1668545c9d5fdb7a30dc3960010261756f565b618b7d7fcf85fe10c5f7870dd0aef4ee40b3a2dd38542290b92b6fbdc069865577dfcfa560010261756f565b60008260a0015163ffffffff1614158015618bb057504367ffffffffffffffff16826040015167ffffffffffffffff1611155b9050919050565b600080618bc261a929565b6000618bf07faf1a83229740af54757f0d9680e14509b125e1b547461ad1a02d170f0feb9954600102618af4565b618c1c7fc2f4059d2ec48df1e30397faa3121fd1a62bd2c11ec8466eff09dc64dafdeb66600102618af4565b618c487fa2d877341c6464a2a0015a097de4cde74c11053a3b431b5ace80654b63ce9889600102618af4565b618c747fefe04f30b1a96537be450fc4421d0cbec5b077ec9f878225130d9900f7abd51b600102618af4565b8863ffffffff1689141515618c8857600080fd5b618cb47f891dc4c0acdaf920320fa7b61d1f628b110b269131943c41833c232d970e3c57600102618af4565b618ce07fb969f4128fee5278f6d097b0186d51b26a75663bed4bf7fca48c5b577f8c88fb600102618af4565b618d0c7f4aaa246181b1583170f0a88df963d402d913310af01c0716634dd4d50df7f8ee600102618af4565b618d387f110b25b6af71b509da1fc3ec6ee020ce7cedf6d094b894c12f059fec873290ff600102618af4565b8763ffffffff1688141515618d4c57600080fd5b618d787f25c061f5b20be6acc6aae8011390a9a9723977d31b4c5fc07ba733e4eb8f2e29600102618af4565b618da47f413875cf3c2aceeaed0a027920ebf7d6f73722ce84f13878c08924190a56a3ac600102618af4565b618dd07fe83a31f46e02e074e46aa6c4896324efcda91e36b6da44dbed6db903044e6482600102618af4565b618dfc7f69a56fc4a42e9cbace96ed61624e0fab641e6810339c182b87dfe94319ad49c1600102618af4565b8661ffff1687141515618e0e57600080fd5b618e3a7f2231e63dd34fd8fbbeea58fc7e3819749a26f10d60fa51be0b6608d445fa8714600102618af4565b618e667ff2fdf5413df0643bd28e8ce560e392f0d4c3b865f6e0464b95714a820ab48b5d600102618af4565b618e927fdbb0207b721227a9eb66221af757237a13f4a0fd20f64a0ae156405aaac87ab4600102618af4565b600287811515618e9e57fe5b049250618ecd7f021c2e0632620e122d1505458a088a25d7af7a5526f010e7377d7532beaa5eb2600102618af4565b618ef97f79e80ce4b5a8e42f8dc16cde6b4a99c55cfa8e4ca345ebd6de1b8da059c7021b600102618af4565b600d8361ffff161115618f9357618f327fc1226ff867e997d9ca97670bdcf470a26bc65ddd45f29753ca04b78cfb0d718d600102618af4565b618f5e7f11e54662bb48f480547b4ca0434c96163dc96a65d6296c7164e275536b8b3591600102618af4565b618f8a7fb1036d9d43d04c9f819b28e80a3ac795ed91d036fed33fcf541f4e7974298d12600102618af4565b600d9250618fc0565b618fbf7f035c74e7ae3e2a0098511017d92fa1c07ee808923fd78a2017363505bd568bba600102618af4565b5b618fec7f3fc07d5a94cbb4ccfd895cac66e52def11f2085d28185b33e4f6ebc460d4d1d0600102618af4565b6190187fc9caf35c6751d45e20d11393623ba020060d805c708e5d299058eb7a59c140bc600102618af4565b610100604051908101604052808781526020014267ffffffffffffffff168152602001600067ffffffffffffffff1681526020018a63ffffffff1681526020018963ffffffff168152602001600063ffffffff1681526020018461ffff1681526020018861ffff1681525091506190b17f708cf5f9ac8723faed74eef918a9665a9e3d38e093592c8bf219b8d56c7982a0600102618af4565b6190dd7f49479d98da59a94fd2ca59fce468c73941ab208c99cc278d358e01a635705101600102618af4565b6001600683908060018154018082558091505090600182039060005260206000209060020201600090919290919091506000820151816000015560208201518160010160006101000a81548167ffffffffffffffff021916908367ffffffffffffffff16021790555060408201518160010160086101000a81548167ffffffffffffffff021916908367ffffffffffffffff16021790555060608201518160010160106101000a81548163ffffffff021916908363ffffffff16021790555060808201518160010160146101000a81548163ffffffff021916908363ffffffff16021790555060a08201518160010160186101000a81548163ffffffff021916908363ffffffff16021790555060c082015181600101601c6101000a81548161ffff021916908361ffff16021790555060e082015181600101601e6101000a81548161ffff021916908361ffff16021790555050500390506192617f9aa63b18dca78946b8584ddf38609392dae2f2a07d070e10850b0e23f4a9b40a600102618af4565b61928d7f15d1769b8687d4e8f6aa6d242cdcfa52a14c08c7ad5395161a8363a24f222d46600102618af4565b6192b97f70d704080f82b558d9d1e5668411e3a7f3393181e9cd6845a2f16a4ae23b1b5b600102618af4565b8063ffffffff16811415156192cd57600080fd5b6192f97fcd95a0a86cc7da87bbf27bdc45f85d1b6f886ee3e7ee1ef053e054615a6320ba600102618af4565b6193257ff34d4e69368e8b4ef5a6894d75dd89fce064964e799b7b1e76f1d9c15bdf1a74600102618af4565b6193517fa466790e12551182e079b2122ea013e586efae27cddbc576f8402f054c3d0c22600102618af4565b7fa2950fd8c03e7518275ee57e05ca76c671969b5445b12b1aeea4b0b30195e5df8582846060015163ffffffff16856080015163ffffffff168660000151876020015167ffffffffffffffff16604051808773ffffffffffffffffffffffffffffffffffffffff1673ffffffffffffffffffffffffffffffffffffffff168152602001868152602001858152602001848152602001838152602001828152602001965050505050505060405180910390a161942e7fc700d1ebdeb35e368fd4546f2d66f21598f28f4f23edc64ea6a4d8b8dec0c1ea600102618af4565b61945a7f28f02e64d602931cffbaeabaa94fb8fb5b2cf0e1e898ddb5634433d0cf3348b7600102618af4565b61946660008683617662565b6194927f66687bd90d7dda445e852caa3a4781bba05a310ac12c103b41b22faab0c6bfaa600102618af4565b6194be7f0815989a39726999d063a887b0c35b1a0836d8477666d46665c81c042b62d57e600102618af4565b80935050505095945050505050565b60008060006194fe7f30b3c0c07f817dafdfffaee96129a64ed0252f6d4f88bdf6689d91ff88c28b9860010261756c565b61952a7fefb5a35eb8ad79ba48054c709e228dd7dbfdfc68c58580adb17f1715709dc7b960010261756c565b6195567f93897e5e4f0490c70ec66e3ab20babb0381539bbd7b462636741e647dad3b07d60010261756c565b6195827f3a0b0da1d2727e73151991689b1d22dfd55239844895e6ef4796b34b1dfb827a60010261756c565b60008461ffff1611151561959557600080fd5b6195c17fff6e6b515b5052191d21f38fe509f261f0c071be5aaea800df82640c8df8f79160010261756c565b6195ed7fe7cd3c148583c2c234c5ac5ebb174b2f156289705f88211a2df38001e2de13ca60010261756c565b6196197f23eb2b7e5de59567a952a5b82fd9849791ee10d27634e2dff1e1df0a1def7cc660010261756c565b600e600086815260200190815260200160002060009054906101000a900461ffff1692506196697f55037fb314b64c8f20560384d516302940ab9f974f0531f099c550d1050f590360010261756c565b6196957fb11cd56a03ed3baf4fccdaf582775e900a18967e82bdd6ce6b0468bae84b105060010261756c565b6196c17fa2c2252e1fd0b00357ef6891633c811d43afc0e7d65634d16c7af39fcb8601c060010261756c565b600084841661ffff161415156196d657600080fd5b6197027f6f7bf2380ace03fd483e980d236b3e4c7710c2b7244afe4472ba0f9898a3db2460010261756c565b61972e7f6c10ea1b0236b8ee0ad35e5237d0b5db9408b0bc7067db8f342fe52009fc837360010261756c565b61975a7f0d7fd561126f0f0bcf21c8bf4350f50f2a7d52cced44984eaff79aa54ec3e98160010261756c565b60006001851661ffff1611156198ea576197967f02a4f3925f497b7d2ee9996bddbea4dadca312842cdcf74979559814a7067fba60010261756c565b6197c27febc637a85560d6ffae62fb4c404b7d1b11e6f55c9c56a58b99caab9bee49097f60010261756c565b6197ee7fbf07c53372620d01520a813ea28f410c76de0c5f7b1fea242a87aa97a53eaf8360010261756c565b6006858154811015156197fd57fe5b906000526020600020906002020191506198397fd9233b1840b187e0c75913678471c4c475d8532990e2bbc7832428d71c42e2a760010261756c565b6198647e6a523462a1fbffb589cf4df51da84b90f1be151c6f1a2f6226adbc09a66e9460010261756c565b6198907f4a92f8a9bcfbafe20393bc702f456621de335a9d2ceb38b29cd712e15b63064e60010261756c565b60008260010160189054906101000a900463ffffffff1663ffffffff161415156198b957600080fd5b6198e57f12c3f201f963fe0bc1618165943230b493c9dd69ae689e0b7889d5f4c6a1614760010261756c565b619917565b6199167fc9cca3a192861a6022fd7a79c716c6c0f4147c2617d61e5e583f742235f3808c60010261756c565b5b6199437fbe622a7b80f398edac5b4cfdb9a5e9f7fcefdc258228f76192a044251cb099ed60010261756c565b61996f7f0155e94e24413f19925d5d01f5c6a62446cb4960f4cbbf923f6019a812fdac7560010261756c565b60006002851661ffff161115619c58576199ab7fea0b39bb3401da2ba2193e82a828b647bb700c729c64bf035d13159d53df323b60010261756c565b6199d77f647df0b364bd04b555878e67aa2eb317c398b0e6f5969c1d5cb7948f6fdd337960010261756c565b619a037fa987d65536459f7a177983ddeecd62293198b6418013d86210d45b205146cd5a60010261756c565b6007600086815260200190815260200160002060009054906101000a900473ffffffffffffffffffffffffffffffffffffffff169050619a657f1b39c73a301f165d9a09749be212acae4448b3d3c619ecd8fd231db2b6e11d4960010261756c565b619a917f3cbf2b7ec09d0ffabd48dba55e37105ba06ce4220d4112c32ee7c8d0cc660f1b60010261756c565b619abd7faa6492b4f706069f0264a319f809768001735d2413328fca62f05274da94b42660010261756c565b600b60049054906101000a900473ffffffffffffffffffffffffffffffffffffffff1673ffffffffffffffffffffffffffffffffffffffff168173ffffffffffffffffffffffffffffffffffffffff1614151515619b1a57600080fd5b619b467fe059c8bdaf6adb1f8f8ae0edcedf4643d9870a363eba1e6c610b08261e82984360010261756c565b619b727fbf5a9dca3e48586353f9a8494a089d0311a4b228b486e7938de3c26983cecaf560010261756c565b619b9e7ff206735294317e20417acabe2de93e8ef38b2977a6f93490b4b5c5e86100add760010261756c565b619bca7f0c3cabacefc33d2e4629aff68c39c4d965496a9394e502ec9e63e61e8ebad65860010261756c565b600c60009054906101000a900473ffffffffffffffffffffffffffffffffffffffff1673ffffffffffffffffffffffffffffffffffffffff168173ffffffffffffffffffffffffffffffffffffffff1614151515619c2757600080fd5b619c537f49aa0a15b3f055caf6abbd5dc34799e2c21dd154b821fc2e2e44e790fb7c216560010261756c565b619c85565b619c847fa9d3ff38c8537170570a1d803812ec42a67bfca83c6eb3ade16c6242090c6d2160010261756c565b5b619cb17fe0234859e842db30f74650b52863c0729d2204554b633ae06b41f08a87ca9aca60010261756c565b619cdd7f4cbed3e28005a9191de8e613ac518dca60499640be2fb0652f544766b9090ec860010261756c565b8383179250619d0e7fe4f1d18a7b655aec221cded95fdd22d4e52dfc7750b2bc3622dc6f42abc950a460010261756c565b619d3a7f1a19063a4298ae335d7abdf41711c297957d39c90203d020227456160d87952360010261756c565b82600e600087815260200190815260200160002060006101000a81548161ffff021916908361ffff160217905550619d947ff0f63dbbce3dca433afb8d169b07ba14e59f2960d44389b97f478e70d628f0de60010261756c565b619dc07fb6e784443591a7f35eec3c769cf9c6cc0bba5e367f5e666a2419931e907bdfc360010261756c565b7f96b828b49c6eb235f60dde08b68959e6baef50b35a662b6db3cade02872d32308584604051808381526020018261ffff1661ffff1681526020019250505060405180910390a15050505050565b6000619e3c7ff6632e130353b95df51682c36e761ac705c78423d1d8ac6fe9d3cfd6a2b7f84560010261756f565b619e687f3ed0de66f7ea44712ced26a07c2aa45fcc0a42ab258637daf02688f84198849c60010261756f565b619e947fc5d86c5e6aebc70d30324b73d3897f2217cb5a62e57d01261f2ae3cb7da4bd9f60010261756f565b60008260a0015163ffffffff16148015619ec657504367ffffffffffffffff16826040015167ffffffffffffffff1611155b8015619efa575060006001600e600086815260200190815260200160002060009054906101000a900461ffff161661ffff16145b905092915050565b6000619f307f1d77822df049d83386355f59148204c605a5c33d6c9f15e3110018d9369fb323600102618af4565b619f5c7f624b023533af9b442aa96ea7c1cfa9912ab0b1ede76ebbb6aacc5d3421397980600102618af4565b619f887f91c6a900d6265ed2db5032756e47efd5679dda866ab1a61d3d1a5fde247a12f3600102618af4565b619fb47f22e39dd0a5ff2508b65930c6db3525c922a3d95abc4f2814c4bdc1c299d0c7da600102618af4565b600082111515619fc357600080fd5b619fef7f05479ce377b2444c682c1a1737140eeb838a7b55f49ed8bd5f32283101f9a98b600102618af4565b61a01b7f67382d5223aed1ad0381fb46dbf6542b3c75f94cfc04e6c6dca54ef2820a361e600102618af4565b61a0477fdd726886bf0eea761dcd18eab91595656744a9200e61ff548c6234748273f000600102618af4565b6007600083815260200190815260200160002060009054906101000a900473ffffffffffffffffffffffffffffffffffffffff16905061a0a97f9b54c4e2be41610caa54d986249bc5b48c678e20afe40d5104acf3e3a679c139600102618af4565b61a0d57f8ac7b4b5faafe346ba2fc956069ef73443c7120a7ee41b4d674a32c3cc435e95600102618af4565b61a1017f8b8d425c4143ef81258c88ef6ecf6ef7a0623549d442ee0878ccc73c9992409f600102618af4565b600073ffffffffffffffffffffffffffffffffffffffff168173ffffffffffffffffffffffffffffffffffffffff161415151561a13d57600080fd5b61a1697f16e883088c4b0d00738d8472eb66de7f4ca28305d322e800e1037612f9c50303600102618af4565b61a1957f27c5745023592ad0dcf7b31c622e7518643aa8728f4dadc54af283f2bffde4b5600102618af4565b600b600081819054906101000a900463ffffffff168092919060010191906101000a81548163ffffffff021916908363ffffffff1602179055505061a1fc7fe7edf42fae71d7245ae4958dc7a148eff4d915fb75466ffdf04f64e4526cbf88600102618af4565b61a2287fe8db8fbf6f5968f1907074ad1ee0f91b87ee9b7e0b42c6e6ddb533e6c5beaf62600102618af4565b61a23481600084617662565b5050565b60008061a2677f622c4b99048f9a1db21307b892af92e702ede9eef257e614b6c81ceec0ddf5e060010261756f565b61a2937f4e839b10cb305d54f89290b6a4bf64db056be3f2f5fbb9562889a0fca9c7c2a360010261756f565b61a2bf7f9f3a6ba66eda1f5abc9c74fbcc7819f7bb689103f7a357d7811d764ac9d42a6a60010261756f565b60068381548110151561a2ce57fe5b9060005260206000209060020201915061a30a7f7da5785ee5d0993b618cbd9dfe3d1e742dc0dd8435ee1b849fc6dd1679ba6e3860010261756f565b61a3367fb53b9b445d9c56c10b8c02401b3c269f341c82e850021031d4611c0b63596b2960010261756f565b60068481548110151561a34557fe5b9060005260206000209060020201905061a3817f2db583de487132a90cb96f1b320566b6af0b790b6fc44941f5033ea3295fcb5d60010261756f565b61a3ad7f586f39a25ee96cf91a243e0356ce633d0b6e116d1b42c4bb24005d0c9f10d4a960010261756f565b828160010160186101000a81548163ffffffff021916908363ffffffff16021790555061a3fc7f9de694d711d7dee61fe3cc98584664e4aeab8f84a7b0a58b876e6969a6d375ab60010261756f565b61a4287fd1705671d9b14eda2bd4d828dc669859330b6607020dded6e9fa832e7720c9bf60010261756f565b61a4318261a6c2565b61a45d7fbe260fef67811afe38d8859eb1d7704c5d2a9ab97e59736bf6a6c37123702b8060010261756f565b61a4897f143b7c2a8f6d67df1b9254adfe2d9154afcf2ec4bf95359d166f80eaf8b8af8d60010261756f565b61a4928161a6c2565b61a4be7f45df8ab7a7410d9b597fed01580bc9eeb70cbfca93c1decfb25fd9c1d8cb87f960010261756f565b600a600085815260200190815260200160002060006101000a81549073ffffffffffffffffffffffffffffffffffffffff021916905561a5207f8c1a75a391b5d2b8f7f93a291a3b0549829a28cd8f5ffa8e36cb7ee671e15d8860010261756f565b600a600084815260200190815260200160002060006101000a81549073ffffffffffffffffffffffffffffffffffffffff021916905561a5827f4665a9c48233799be943efe9dafa12e4265afb15dacdf7c5cdeb85a9396a46d160010261756f565b60106000815480929190600101919050555061a5c07f71f515af926ff1399053c5a2dd922c2514d7a82f5364fe70b794722e6e80664d60010261756f565b61a5ec7fc2cbb1b7c74d1aed5d33e9f807a10d179ea195e0034de604356a42b84f53b5e960010261756f565b7f241ea03ca20251805084d27d4440371c34a0b85ff108f6bb5611248f73818b806007600086815260200190815260200160002060009054906101000a900473ffffffffffffffffffffffffffffffffffffffff1685858460010160089054906101000a900467ffffffffffffffff16604051808573ffffffffffffffffffffffffffffffffffffffff1673ffffffffffffffffffffffffffffffffffffffff1681526020018481526020018381526020018267ffffffffffffffff16815260200194505050505060405180910390a150505050565b61a6ee7fdfe29d04d80bc4b8b212c2acf84f0a43170482175082301b7f006c341b5774d460010261756f565b61a71a7f1887905a1bff995105060bc83483350398ce11df4ed973f8019b6750d81f293a60010261756f565b61a7467f7afa96d47ada90762dd020e23fa38eae542739303862290ef55846503e2f301760010261756f565b43600554600383600101601c9054906101000a900461ffff1661ffff16600e8110151561a76f57fe5b600891828204019190066004029054906101000a900463ffffffff1663ffffffff1681151561a79a57fe5b04018160010160086101000a81548167ffffffffffffffff021916908367ffffffffffffffff16021790555061a7f27fd1c3df03e8e7a9f3b4887779b26aba6d0393c6d5953a0e246b0babea41296ba660010261756f565b61a81e7fca9883fc42aa6a45a5e5936df7f615198b62b57ae3c51637e41525fc8f32c96d60010261756f565b600d81600101601c9054906101000a900461ffff1661ffff16101561a8f95761a8697f97b37817ff7d918b20b0ad89f9daaa75d6962cdf33e7b609da582660cb7e3d4360010261756f565b61a8957f8821d1076f206d388045b85578ed064fccf9e4a1812505e5ad100f30050a664b60010261756f565b61a8c17f03ea38168c8998943c3634ae7b76fb72f7a8f1d5d9e6e7468d5df72be8e94b7960010261756f565b600181600101601c8282829054906101000a900461ffff160192506101000a81548161ffff021916908361ffff16021790555061a926565b61a9257f980383c2a5718c4af09b110ef8a239b78436a28c9198566959dc87b4468e521260010261756f565b5b50565b6101006040519081016040528060008152602001600067ffffffffffffffff168152602001600067ffffffffffffffff168152602001600063ffffffff168152602001600063ffffffff168152602001600063ffffffff168152602001600061ffff168152602001600061ffff16815250905600a165627a7a72305820e243f742f010c44acfce6ffbfc628aad78c518feaec67d72cab016f96004bc270029",
  "linkReferences": {},
  "deployedLinkReferences": {}
}