{
  "_format": "hh-sol-artifact-1",
  "contractName": "BotCore",
  "sourceName": "contracts/BotCore.sol",
  "abi": [
    {
      "constant": true,
      "inputs": [],
      "name": "cfoAddress",
      "outputs": [
        {
          "name": "",
          "type": "address"
        }
      ],
      "payable": false,
      "stateMutability": "view",
      "type": "function"
    },
    {
      "constant": true,
      "inputs": [],
      "name": "promoCreatedCount",
      "outputs": [
        {
          "name": "",
          "type": "uint256"
        }
      ],
      "payable": false,
      "stateMutability": "view",
      "type": "function"
    },
    {
      "constant": true,
      "inputs": [],
      "name": "name",
      "outputs": [
        {
          "name": "",
          "type": "string"
        }
      ],
      "payable": false,
      "stateMutability": "view",
      "type": "function"
    },
    {
      "constant": false,
      "inputs": [
        {
          "name": "_to",
          "type": "address"
        },
        {
          "name": "_tokenId",
          "type": "uint256"
        }
      ],
      "name": "approve",
      "outputs": [],
      "payable": false,
      "stateMutability": "nonpayable",
      "type": "function"
    },
    {
      "constant": false,
      "inputs": [
        {
          "name": "_botId",
          "type": "uint256"
        }
      ],
      "name": "destroyBot",
      "outputs": [],
      "payable": false,
      "stateMutability": "nonpayable",
      "type": "function"
    },
    {
      "constant": true,
      "inputs": [],
      "name": "ceoAddress",
      "outputs": [
        {
          "name": "",
          "type": "address"
        }
      ],
      "payable": false,
      "stateMutability": "view",
      "type": "function"
    },
    {
      "constant": true,
      "inputs": [],
      "name": "GEN0_STARTING_PRICE",
      "outputs": [
        {
          "name": "",
          "type": "uint256"
        }
      ],
      "payable": false,
      "stateMutability": "view",
      "type": "function"
    },
    {
      "constant": false,
      "inputs": [
        {
          "name": "_address",
          "type": "address"
        }
      ],
      "name": "setSiringAuctionAddress",
      "outputs": [],
      "payable": false,
      "stateMutability": "nonpayable",
      "type": "function"
    },
    {
      "constant": false,
      "inputs": [
        {
          "name": "_contract",
          "type": "address"
        }
      ],
      "name": "addExtension",
      "outputs": [],
      "payable": false,
      "stateMutability": "nonpayable",
      "type": "function"
    },
    {
      "constant": true,
      "inputs": [],
      "name": "totalSupply",
      "outputs": [
        {
          "name": "",
          "type": "uint256"
        }
      ],
      "payable": false,
      "stateMutability": "view",
      "type": "function"
    },
    {
      "constant": true,
      "inputs": [
        {
          "name": "_botId",
          "type": "uint256"
        }
      ],
      "name": "isPregnant",
      "outputs": [
        {
          "name": "",
          "type": "bool"
        }
      ],
      "payable": false,
      "stateMutability": "view",
      "type": "function"
    },
    {
      "constant": true,
      "inputs": [],
      "name": "GEN0_AUCTION_DURATION",
      "outputs": [
        {
          "name": "",
          "type": "uint256"
        }
      ],
      "payable": false,
      "stateMutability": "view",
      "type": "function"
    },
    {
      "constant": true,
      "inputs": [],
      "name": "siringAuction",
      "outputs": [
        {
          "name": "",
          "type": "address"
        }
      ],
      "payable": false,
      "stateMutability": "view",
      "type": "function"
    },
    {
      "constant": false,
      "inputs": [
        {
          "name": "_contract",
          "type": "address"
        }
      ],
      "name": "removeExtension",
      "outputs": [],
      "payable": false,
      "stateMutability": "nonpayable",
      "type": "function"
    },
    {
      "constant": false,
      "inputs": [
        {
          "name": "_from",
          "type": "address"
        },
        {
          "name": "_to",
          "type": "address"
        },
        {
          "name": "_tokenId",
          "type": "uint256"
        }
      ],
      "name": "transferFrom",
      "outputs": [],
      "payable": false,
      "stateMutability": "nonpayable",
      "type": "function"
    },
    {
      "constant": false,
      "inputs": [
        {
          "name": "_address",
          "type": "address"
        }
      ],
      "name": "setGeneScienceAddress",
      "outputs": [],
      "payable": false,
      "stateMutability": "nonpayable",
      "type": "function"
    },
    {
      "constant": true,
      "inputs": [
        {
          "name": "",
          "type": "uint256"
        }
      ],
      "name": "botIndexToOwner",
      "outputs": [
        {
          "name": "",
          "type": "address"
        }
      ],
      "payable": false,
      "stateMutability": "view",
      "type": "function"
    },
    {
      "constant": false,
      "inputs": [
        {
          "name": "_newCEO",
          "type": "address"
        }
      ],
      "name": "setCEO",
      "outputs": [],
      "payable": false,
      "stateMutability": "nonpayable",
      "type": "function"
    },
    {
      "constant": false,
      "inputs": [
        {
          "name": "_newCOO",
          "type": "address"
        }
      ],
      "name": "setCOO",
      "outputs": [],
      "payable": false,
      "stateMutability": "nonpayable",
      "type": "function"
    },
    {
      "constant": false,
      "inputs": [
        {
          "name": "_botId",
          "type": "uint256"
        },
        {
          "name": "_mask",
          "type": "uint16"
        }
      ],
      "name": "extUnlockBot",
      "outputs": [
        {
          "name": "",
          "type": "uint16"
        }
      ],
      "payable": false,
      "stateMutability": "nonpayable",
      "type": "function"
    },
    {
      "constant": false,
      "inputs": [
        {
          "name": "_botId",
          "type": "uint256"
        },
        {
          "name": "_startingPrice",
          "type": "uint256"
        },
        {
          "name": "_endingPrice",
          "type": "uint256"
        },
        {
          "name": "_duration",
          "type": "uint256"
        }
      ],
      "name": "createSaleAuction",
      "outputs": [],
      "payable": false,
      "stateMutability": "nonpayable",
      "type": "function"
    },
    {
      "constant": false,
      "inputs": [],
      "name": "unpause",
      "outputs": [],
      "payable": false,
      "stateMutability": "nonpayable",
      "type": "function"
    },
    {
      "constant": true,
      "inputs": [
        {
          "name": "",
          "type": "uint256"
        }
      ],
      "name": "sireAllowedToAddress",
      "outputs": [
        {
          "name": "",
          "type": "address"
        }
      ],
      "payable": false,
      "stateMutability": "view",
      "type": "function"
    },
    {
      "constant": true,
      "inputs": [
        {
          "name": "_matronId",
          "type": "uint256"
        },
        {
          "name": "_sireId",
          "type": "uint256"
        }
      ],
      "name": "canBreedWith",
      "outputs": [
        {
          "name": "",
          "type": "bool"
        }
      ],
      "payable": false,
      "stateMutability": "view",
      "type": "function"
    },
    {
      "constant": false,
      "inputs": [
        {
          "name": "_botId",
          "type": "uint256"
        },
        {
          "name": "_startingPrice",
          "type": "uint256"
        },
        {
          "name": "_endingPrice",
          "type": "uint256"
        },
        {
          "name": "_duration",
          "type": "uint256"
        }
      ],
      "name": "createSiringAuction",
      "outputs": [],
      "payable": false,
      "stateMutability": "nonpayable",
      "type": "function"
    },
    {
      "constant": false,
      "inputs": [
        {
          "name": "val",
          "type": "uint256"
        }
      ],
      "name": "setAutoBirthFee",
      "outputs": [],
      "payable": false,
      "stateMutability": "nonpayable",
      "type": "function"
    },
    {
      "constant": false,
      "inputs": [
        {
          "name": "_addr",
          "type": "address"
        },
        {
          "name": "_sireId",
          "type": "uint256"
        }
      ],
      "name": "approveSiring",
      "outputs": [],
      "payable": false,
      "stateMutability": "nonpayable",
      "type": "function"
    },
    {
      "constant": false,
      "inputs": [
        {
          "name": "_newCFO",
          "type": "address"
        }
      ],
      "name": "setCFO",
      "outputs": [],
      "payable": false,
      "stateMutability": "nonpayable",
      "type": "function"
    },
    {
      "constant": true,
      "inputs": [],
      "name": "pregnantBots",
      "outputs": [
        {
          "name": "",
          "type": "uint256"
        }
      ],
      "payable": false,
      "stateMutability": "view",
      "type": "function"
    },
    {
      "constant": false,
      "inputs": [
        {
          "name": "secs",
          "type": "uint256"
        }
      ],
      "name": "setSecondsPerBlock",
      "outputs": [],
      "payable": false,
      "stateMutability": "nonpayable",
      "type": "function"
    },
    {
      "constant": true,
      "inputs": [],
      "name": "paused",
      "outputs": [
        {
          "name": "",
          "type": "bool"
        }
      ],
      "payable": false,
      "stateMutability": "view",
      "type": "function"
    },
    {
      "constant": true,
      "inputs": [
        {
          "name": "_id",
          "type": "uint256"
        }
      ],
      "name": "getBot",
      "outputs": [
        {
          "name": "isGestating",
          "type": "bool"
        },
        {
          "name": "isReady",
          "type": "bool"
        },
        {
          "name": "cooldownIndex",
          "type": "uint256"
        },
        {
          "name": "nextActionAt",
          "type": "uint256"
        },
        {
          "name": "siringWithId",
          "type": "uint256"
        },
        {
          "name": "birthTime",
          "type": "uint256"
        },
        {
          "name": "matronId",
          "type": "uint256"
        },
        {
          "name": "sireId",
          "type": "uint256"
        },
        {
          "name": "generation",
          "type": "uint256"
        },
        {
          "name": "genes",
          "type": "uint256"
        }
      ],
      "payable": false,
      "stateMutability": "view",
      "type": "function"
    },
    {
      "constant": false,
      "inputs": [],
      "name": "withdrawBalance",
      "outputs": [],
      "payable": false,
      "stateMutability": "nonpayable",
      "type": "function"
    },
    {
      "constant": true,
      "inputs": [],
      "name": "destroyedBots",
      "outputs": [
        {
          "name": "",
          "type": "uint32"
        }
      ],
      "payable": false,
      "stateMutability": "view",
      "type": "function"
    },
    {
      "constant": true,
      "inputs": [
        {
          "name": "_tokenId",
          "type": "uint256"
        }
      ],
      "name": "ownerOf",
      "outputs": [
        {
          "name": "owner",
          "type": "address"
        }
      ],
      "payable": false,
      "stateMutability": "view",
      "type": "function"
    },
    {
      "constant": true,
      "inputs": [],
      "name": "GEN0_CREATION_LIMIT",
      "outputs": [
        {
          "name": "",
          "type": "uint256"
        }
      ],
      "payable": false,
      "stateMutability": "view",
      "type": "function"
    },
    {
      "constant": true,
      "inputs": [],
      "name": "newContractAddress",
      "outputs": [
        {
          "name": "",
          "type": "address"
        }
      ],
      "payable": false,
      "stateMutability": "view",
      "type": "function"
    },
    {
      "constant": false,
      "inputs": [
        {
          "name": "_address",
          "type": "address"
        }
      ],
      "name": "setSaleAuctionAddress",
      "outputs": [],
      "payable": false,
      "stateMutability": "nonpayable",
      "type": "function"
    },
    {
      "constant": true,
      "inputs": [
        {
          "name": "_owner",
          "type": "address"
        }
      ],
      "name": "balanceOf",
      "outputs": [
        {
          "name": "count",
          "type": "uint256"
        }
      ],
      "payable": false,
      "stateMutability": "view",
      "type": "function"
    },
    {
      "constant": false,
      "inputs": [
        {
          "name": "_v2Address",
          "type": "address"
        }
      ],
      "name": "setNewAddress",
      "outputs": [],
      "payable": false,
      "stateMutability": "nonpayable",
      "type": "function"
    },
    {
      "constant": true,
      "inputs": [],
      "name": "secondsPerBlock",
      "outputs": [
        {
          "name": "",
          "type": "uint256"
        }
      ],
      "payable": false,
      "stateMutability": "view",
      "type": "function"
    },
    {
      "constant": false,
      "inputs": [],
      "name": "pause",
      "outputs": [],
      "payable": false,
      "stateMutability": "nonpayable",
      "type": "function"
    },
    {
      "constant": true,
      "inputs": [
        {
          "name": "_owner",
          "type": "address"
        }
      ],
      "name": "tokensOfOwner",
      "outputs": [
        {
          "name": "ownerTokens",
          "type": "uint256[]"
        }
      ],
      "payable": false,
      "stateMutability": "view",
      "type": "function"
    },
    {
      "constant": false,
      "inputs": [
        {
          "name": "_matronId",
          "type": "uint256"
        }
      ],
      "name": "giveBirth",
      "outputs": [
        {
          "name": "",
          "type": "uint256"
        }
      ],
      "payable": false,
      "stateMutability": "nonpayable",
      "type": "function"
    },
    {
      "constant": true,
      "inputs": [
        {
          "name": "_botId",
          "type": "uint256"
        }
      ],
      "name": "extGetLock",
      "outputs": [
        {
          "name": "",
          "type": "uint16"
        }
      ],
      "payable": false,
      "stateMutability": "view",
      "type": "function"
    },
    {
      "constant": false,
      "inputs": [],
      "name": "withdrawAuctionBalances",
      "outputs": [],
      "payable": false,
      "stateMutability": "nonpayable",
      "type": "function"
    },
    {
      "constant": true,
      "inputs": [],
      "name": "symbol",
      "outputs": [
        {
          "name": "",
          "type": "string"
        }
      ],
      "payable": false,
      "stateMutability": "view",
      "type": "function"
    },
    {
      "constant": true,
      "inputs": [
        {
          "name": "",
          "type": "uint256"
        }
      ],
      "name": "cooldowns",
      "outputs": [
        {
          "name": "",
          "type": "uint32"
        }
      ],
      "payable": false,
      "stateMutability": "view",
      "type": "function"
    },
    {
      "constant": true,
      "inputs": [
        {
          "name": "",
          "type": "uint256"
        }
      ],
      "name": "botIndexToApproved",
      "outputs": [
        {
          "name": "",
          "type": "address"
        }
      ],
      "payable": false,
      "stateMutability": "view",
      "type": "function"
    },
    {
      "constant": false,
      "inputs": [
        {
          "name": "_to",
          "type": "address"
        },
        {
          "name": "_tokenId",
          "type": "uint256"
        }
      ],
      "name": "transfer",
      "outputs": [],
      "payable": false,
      "stateMutability": "nonpayable",
      "type": "function"
    },
    {
      "constant": true,
      "inputs": [],
      "name": "cooAddress",
      "outputs": [
        {
          "name": "",
          "type": "address"
        }
      ],
      "payable": false,
      "stateMutability": "view",
      "type": "function"
    },
    {
      "constant": true,
      "inputs": [],
      "name": "autoBirthFee",
      "outputs": [
        {
          "name": "",
          "type": "uint256"
        }
      ],
      "payable": false,
      "stateMutability": "view",
      "type": "function"
    },
    {
      "constant": false,
      "inputs": [
        {
          "name": "_botId",
          "type": "uint256"
        },
        {
          "name": "_mask",
          "type": "uint16"
        }
      ],
      "name": "extLockBot",
      "outputs": [],
      "payable": false,
      "stateMutability": "nonpayable",
      "type": "function"
    },
    {
      "constant": false,
      "inputs": [
        {
          "name": "_genes",
          "type": "uint256"
        },
        {
          "name": "_owner",
          "type": "address"
        }
      ],
      "name": "createPromoBot",
      "outputs": [],
      "payable": false,
      "stateMutability": "nonpayable",
      "type": "function"
    },
    {
      "constant": false,
      "inputs": [
        {
          "name": "_genes",
          "type": "uint256"
        }
      ],
      "name": "createGen0Auction",
      "outputs": [],
      "payable": false,
      "stateMutability": "nonpayable",
      "type": "function"
    },
    {
      "constant": false,
      "inputs": [
        {
          "name": "_matronId",
          "type": "uint256"
        },
        {
          "name": "_sireId",
          "type": "uint256"
        },
        {
          "name": "_generation",
          "type": "uint256"
        },
        {
          "name": "_genes",
          "type": "uint256"
        },
        {
          "name": "_owner",
          "type": "address"
        }
      ],
      "name": "extCreateBot",
      "outputs": [
        {
          "name": "",
          "type": "uint256"
        }
      ],
      "payable": false,
      "stateMutability": "nonpayable",
      "type": "function"
    },
    {
      "constant": true,
      "inputs": [
        {
          "name": "_botId",
          "type": "uint256"
        }
      ],
      "name": "isReadyToBreed",
      "outputs": [
        {
          "name": "",
          "type": "bool"
        }
      ],
      "payable": false,
      "stateMutability": "view",
      "type": "function"
    },
    {
      "constant": true,
      "inputs": [],
      "name": "PROMO_CREATION_LIMIT",
      "outputs": [
        {
          "name": "",
          "type": "uint256"
        }
      ],
      "payable": false,
      "stateMutability": "view",
      "type": "function"
    },
    {
      "constant": true,
      "inputs": [],
      "name": "saleAuction",
      "outputs": [
        {
          "name": "",
          "type": "address"
        }
      ],
      "payable": false,
      "stateMutability": "view",
      "type": "function"
    },
    {
      "constant": false,
      "inputs": [
        {
          "name": "_botId",
          "type": "uint256"
        }
      ],
      "name": "extDestroyBot",
      "outputs": [],
      "payable": false,
      "stateMutability": "nonpayable",
      "type": "function"
    },
    {
      "constant": false,
      "inputs": [
        {
          "name": "_sireId",
          "type": "uint256"
        },
        {
          "name": "_matronId",
          "type": "uint256"
        }
      ],
      "name": "bidOnSiringAuction",
      "outputs": [],
      "payable": true,
      "stateMutability": "payable",
      "type": "function"
    },
    {
      "constant": true,
      "inputs": [],
      "name": "gen0CreatedCount",
      "outputs": [
        {
          "name": "",
          "type": "uint256"
        }
      ],
      "payable": false,
      "stateMutability": "view",
      "type": "function"
    },
    {
      "constant": true,
      "inputs": [],
      "name": "geneScience",
      "outputs": [
        {
          "name": "",
          "type": "address"
        }
      ],
      "payable": false,
      "stateMutability": "view",
      "type": "function"
    },
    {
      "constant": false,
      "inputs": [
        {
          "name": "_matronId",
          "type": "uint256"
        },
        {
          "name": "_sireId",
          "type": "uint256"
        }
      ],
      "name": "breedWithAuto",
      "outputs": [],
      "payable": true,
      "stateMutability": "payable",
      "type": "function"
    },
    {
      "inputs": [],
      "payable": false,
      "stateMutability": "nonpayable",
      "type": "constructor"
    },
    {
      "payable": true,
      "stateMutability": "payable",
      "type": "fallback"
    },
    {
      "anonymous": false,
      "inputs": [
        {
          "indexed": false,
          "name": "owner",
          "type": "address"
        },
        {
          "indexed": false,
          "name": "matronId",
          "type": "uint256"
        },
        {
          "indexed": false,
          "name": "sireId",
          "type": "uint256"
        },
        {
          "indexed": false,
          "name": "cooldownEndBlock",
          "type": "uint256"
        }
      ],
      "name": "Pregnant",
      "type": "event"
    },
    {
      "anonymous": false,
      "inputs": [
        {
          "indexed": false,
          "name": "from",
          "type": "address"
        },
        {
          "indexed": false,
          "name": "to",
          "type": "address"
        },
        {
          "indexed": false,
          "name": "tokenId",
          "type": "uint256"
        }
      ],
      "name": "Transfer",
      "type": "event"
    },
    {
      "anonymous": false,
      "inputs": [
        {
          "indexed": false,
          "name": "owner",
          "type": "address"
        },
        {
          "indexed": false,
          "name": "approved",
          "type": "address"
        },
        {
          "indexed": false,
          "name": "tokenId",
          "type": "uint256"
        }
      ],
      "name": "Approval",
      "type": "event"
    },
    {
      "anonymous": false,
      "inputs": [
        {
          "indexed": false,
          "name": "botId",
          "type": "uint256"
        },
        {
          "indexed": false,
          "name": "mask",
          "type": "uint16"
        }
      ],
      "name": "Lock",
      "type": "event"
    },
    {
      "anonymous": false,
      "inputs": [
        {
          "indexed": false,
          "name": "owner",
          "type": "address"
        },
        {
          "indexed": false,
          "name": "botId",
          "type": "uint256"
        },
        {
          "indexed": false,
          "name": "matronId",
          "type": "uint256"
        },
        {
          "indexed": false,
          "name": "sireId",
          "type": "uint256"
        },
        {
          "indexed": false,
          "name": "genes",
          "type": "uint256"
        },
        {
          "indexed": false,
          "name": "birthTime",
          "type": "uint256"
        }
      ],
      "name": "Birth",
      "type": "event"
    },
    {
      "anonymous": false,
      "inputs": [
        {
          "indexed": false,
          "name": "newContract",
          "type": "address"
        }
      ],
      "name": "ContractUpgrade",
      "type": "event"
    }
  ],
  "bytecode": "0x60806040526000600260146101000a81548160ff0219169083151502179055506101c060405190810160405280603c63ffffffff1663ffffffff168152602001607863ffffffff1663ffffffff16815260200161012c63ffffffff1663ffffffff16815260200161025863ffffffff1663ffffffff16815260200161070863ffffffff1663ffffffff168152602001610e1063ffffffff1663ffffffff168152602001611c2063ffffffff1663ffffffff16815260200161384063ffffffff1663ffffffff16815260200161708063ffffffff1663ffffffff16815260200161e10063ffffffff1663ffffffff1681526020016201518063ffffffff1663ffffffff1681526020016202a30063ffffffff1663ffffffff1681526020016205460063ffffffff1663ffffffff16815260200162093a8063ffffffff1663ffffffff16815250600390600e6200015692919062001702565b50600f60055566071afd498d0000600f553480156200017457600080fd5b50620001b27f0f67082aaf0aa931114ebe73323394c1aeec07083edb4602be6373471271401c6001026200047d640100000000026401000000009004565b620001ef7f80d09e66a338301a7821ba37437e9d5b445b11dd911ad7721a2c64b9d0c8752b6001026200047d640100000000026401000000009004565b6200022c7fbe23435245795d0ebe79978a2ad1d158a814aadcdf7fad117e0a86e338d30ccf6001026200047d640100000000026401000000009004565b6001600260146101000a81548160ff021916908315150217905550620002847f02424f70d8dcaa3c7176637c297808f876db3be50339e0280af4a6718818f03b6001026200047d640100000000026401000000009004565b620002c17ff039f86caf04b8c3091e5fc327d0f0aa477dc763967c997c442b988e078e8bbe6001026200047d640100000000026401000000009004565b336000806101000a81548173ffffffffffffffffffffffffffffffffffffffff021916908373ffffffffffffffffffffffffffffffffffffffff1602179055506200033e7fa1c1f564df2c6538a3e81079c78406736b07ef01b1f6148fa9d5cce4d907f54a6001026200047d640100000000026401000000009004565b6200037b7fc371d0d3aeee5a24a7cfb2bc5c60a34e499ec29cad4622736e9563253f1fac6c6001026200047d640100000000026401000000009004565b33600260006101000a81548173ffffffffffffffffffffffffffffffffffffffff021916908373ffffffffffffffffffffffffffffffffffffffff160217905550620003f97f6571ace3b6c5e6453d7e2920dc43760a42eb6f6f4ec891c860eb0df4ebba8cf36001026200047d640100000000026401000000009004565b620004367f40d51c11a3a1d8e6615671c12f134949ecab30f2f02e2f0ce9942a46fdcdb1166001026200047d640100000000026401000000009004565b6200047660008060007fffffffffffffffffffffffffffffffffffffffffffffffffffffffffffffffff3362000480640100000000026401000000009004565b5062001856565b50565b6000806200048d620017ac565b6000620004cc7faf1a83229740af54757f0d9680e14509b125e1b547461ad1a02d170f0feb995460010262001003640100000000026401000000009004565b620005097fc2f4059d2ec48df1e30397faa3121fd1a62bd2c11ec8466eff09dc64dafdeb6660010262001003640100000000026401000000009004565b620005467fa2d877341c6464a2a0015a097de4cde74c11053a3b431b5ace80654b63ce988960010262001003640100000000026401000000009004565b620005837fefe04f30b1a96537be450fc4421d0cbec5b077ec9f878225130d9900f7abd51b60010262001003640100000000026401000000009004565b8863ffffffff16891415156200059857600080fd5b620005d57f891dc4c0acdaf920320fa7b61d1f628b110b269131943c41833c232d970e3c5760010262001003640100000000026401000000009004565b620006127fb969f4128fee5278f6d097b0186d51b26a75663bed4bf7fca48c5b577f8c88fb60010262001003640100000000026401000000009004565b6200064f7f4aaa246181b1583170f0a88df963d402d913310af01c0716634dd4d50df7f8ee60010262001003640100000000026401000000009004565b6200068c7f110b25b6af71b509da1fc3ec6ee020ce7cedf6d094b894c12f059fec873290ff60010262001003640100000000026401000000009004565b8763ffffffff1688141515620006a157600080fd5b620006de7f25c061f5b20be6acc6aae8011390a9a9723977d31b4c5fc07ba733e4eb8f2e2960010262001003640100000000026401000000009004565b6200071b7f413875cf3c2aceeaed0a027920ebf7d6f73722ce84f13878c08924190a56a3ac60010262001003640100000000026401000000009004565b620007587fe83a31f46e02e074e46aa6c4896324efcda91e36b6da44dbed6db903044e648260010262001003640100000000026401000000009004565b620007957f69a56fc4a42e9cbace96ed61624e0fab641e6810339c182b87dfe94319ad49c160010262001003640100000000026401000000009004565b8661ffff1687141515620007a857600080fd5b620007e57f2231e63dd34fd8fbbeea58fc7e3819749a26f10d60fa51be0b6608d445fa871460010262001003640100000000026401000000009004565b620008227ff2fdf5413df0643bd28e8ce560e392f0d4c3b865f6e0464b95714a820ab48b5d60010262001003640100000000026401000000009004565b6200085f7fdbb0207b721227a9eb66221af757237a13f4a0fd20f64a0ae156405aaac87ab460010262001003640100000000026401000000009004565b6002878115156200086c57fe5b049250620008ac7f021c2e0632620e122d1505458a088a25d7af7a5526f010e7377d7532beaa5eb260010262001003640100000000026401000000009004565b620008e97f79e80ce4b5a8e42f8dc16cde6b4a99c55cfa8e4ca345ebd6de1b8da059c7021b60010262001003640100000000026401000000009004565b600d8361ffff161115620009b857620009347fc1226ff867e997d9ca97670bdcf470a26bc65ddd45f29753ca04b78cfb0d718d60010262001003640100000000026401000000009004565b620009717f11e54662bb48f480547b4ca0434c96163dc96a65d6296c7164e275536b8b359160010262001003640100000000026401000000009004565b620009ae7fb1036d9d43d04c9f819b28e80a3ac795ed91d036fed33fcf541f4e7974298d1260010262001003640100000000026401000000009004565b600d9250620009f6565b620009f57f035c74e7ae3e2a0098511017d92fa1c07ee808923fd78a2017363505bd568bba60010262001003640100000000026401000000009004565b5b62000a337f3fc07d5a94cbb4ccfd895cac66e52def11f2085d28185b33e4f6ebc460d4d1d060010262001003640100000000026401000000009004565b62000a707fc9caf35c6751d45e20d11393623ba020060d805c708e5d299058eb7a59c140bc60010262001003640100000000026401000000009004565b610100604051908101604052808781526020014267ffffffffffffffff168152602001600067ffffffffffffffff1681526020018a63ffffffff1681526020018963ffffffff168152602001600063ffffffff1681526020018461ffff1681526020018861ffff16815250915062000b1a7f708cf5f9ac8723faed74eef918a9665a9e3d38e093592c8bf219b8d56c7982a060010262001003640100000000026401000000009004565b62000b577f49479d98da59a94fd2ca59fce468c73941ab208c99cc278d358e01a63570510160010262001003640100000000026401000000009004565b6001600683908060018154018082558091505090600182039060005260206000209060020201600090919290919091506000820151816000015560208201518160010160006101000a81548167ffffffffffffffff021916908367ffffffffffffffff16021790555060408201518160010160086101000a81548167ffffffffffffffff021916908367ffffffffffffffff16021790555060608201518160010160106101000a81548163ffffffff021916908363ffffffff16021790555060808201518160010160146101000a81548163ffffffff021916908363ffffffff16021790555060a08201518160010160186101000a81548163ffffffff021916908363ffffffff16021790555060c082015181600101601c6101000a81548161ffff021916908361ffff16021790555060e082015181600101601e6101000a81548161ffff021916908361ffff160217905550505003905062000cec7f9aa63b18dca78946b8584ddf38609392dae2f2a07d070e10850b0e23f4a9b40a60010262001003640100000000026401000000009004565b62000d297f15d1769b8687d4e8f6aa6d242cdcfa52a14c08c7ad5395161a8363a24f222d4660010262001003640100000000026401000000009004565b62000d667f70d704080f82b558d9d1e5668411e3a7f3393181e9cd6845a2f16a4ae23b1b5b60010262001003640100000000026401000000009004565b8063ffffffff168114151562000d7b57600080fd5b62000db87fcd95a0a86cc7da87bbf27bdc45f85d1b6f886ee3e7ee1ef053e054615a6320ba60010262001003640100000000026401000000009004565b62000df57ff34d4e69368e8b4ef5a6894d75dd89fce064964e799b7b1e76f1d9c15bdf1a7460010262001003640100000000026401000000009004565b62000e327fa466790e12551182e079b2122ea013e586efae27cddbc576f8402f054c3d0c2260010262001003640100000000026401000000009004565b7fa2950fd8c03e7518275ee57e05ca76c671969b5445b12b1aeea4b0b30195e5df8582846060015163ffffffff16856080015163ffffffff168660000151876020015167ffffffffffffffff16604051808773ffffffffffffffffffffffffffffffffffffffff1673ffffffffffffffffffffffffffffffffffffffff168152602001868152602001858152602001848152602001838152602001828152602001965050505050505060405180910390a162000f207fc700d1ebdeb35e368fd4546f2d66f21598f28f4f23edc64ea6a4d8b8dec0c1ea60010262001003640100000000026401000000009004565b62000f5d7f28f02e64d602931cffbaeabaa94fb8fb5b2cf0e1e898ddb5634433d0cf3348b760010262001003640100000000026401000000009004565b62000f7a6000868362001006640100000000026401000000009004565b62000fb77f66687bd90d7dda445e852caa3a4781bba05a310ac12c103b41b22faab0c6bfaa60010262001003640100000000026401000000009004565b62000ff47f0815989a39726999d063a887b0c35b1a0836d8477666d46665c81c042b62d57e60010262001003640100000000026401000000009004565b80935050505095945050505050565b50565b620010437f66b696999af1a6a5a345bf3e9f29fedb18e5666a229a977c9f6af3cbc94738bb60010262001003640100000000026401000000009004565b620010807f54f4b79b2d0d8747ddaa341ae0bfe7d5522db5383323e2fd81ebc48cd704e9fb60010262001003640100000000026401000000009004565b620010bd7fb3d27e017d666ac9fbc5d11deb51ba46e2b263acea399b7bafbb13c3288af83860010262001003640100000000026401000000009004565b600073ffffffffffffffffffffffffffffffffffffffff168273ffffffffffffffffffffffffffffffffffffffff161415620011a957620011307feddf6b000c535abae7d0b760c7c16929e51af1469b587db67a62afde7e19cf5a60010262001003640100000000026401000000009004565b6200116d7fa584a9b7faafe335bfebf096b8c371a4f295bf67342dbf5772750ffc39cc3a0260010262001003640100000000026401000000009004565b6007600082815260200190815260200160002060006101000a81549073ffffffffffffffffffffffffffffffffffffffff02191690556200133f565b620011e67f93b059e4aac9bd4320e7a5f7d9980173294e9757131d11de2edc9599f324e3a060010262001003640100000000026401000000009004565b620012237fa6d303d9287b7834d673e33b530dd58e6170c196c236730b72622a4c376d71ff60010262001003640100000000026401000000009004565b600860008373ffffffffffffffffffffffffffffffffffffffff1673ffffffffffffffffffffffffffffffffffffffff16815260200190815260200160002060008154809291906001019190505550620012af7f44ef1e3b61a49bb5208bbbecb00c8bfe5dfc9be34c0480bfaa25ef90a5ecdc5d60010262001003640100000000026401000000009004565b620012ec7f365ffe523aae4c9ffadf73544c18a5552ff1ff7b389c2cbe13c9d15b3326b9aa60010262001003640100000000026401000000009004565b816007600083815260200190815260200160002060006101000a81548173ffffffffffffffffffffffffffffffffffffffff021916908373ffffffffffffffffffffffffffffffffffffffff1602179055505b6200137c7f2226ce019e47537d8e454ddca5e112d4903790ace74d41dc9d363c43b3410cad60010262001003640100000000026401000000009004565b620013b97f47385f808687c27d5a59a7dc42f93e0fdeea737f727cc62e711669ff5c38f10860010262001003640100000000026401000000009004565b600073ffffffffffffffffffffffffffffffffffffffff168373ffffffffffffffffffffffffffffffffffffffff16141515620015a6576200142d7f4e6127e4a994fba5df78e71aa18f1f1d523362630cb30aead6876e9990c428c660010262001003640100000000026401000000009004565b6200146a7fb235be59090e82c7bfa8a8b8023417fd999d3fd1bba568e191668a4e186e463f60010262001003640100000000026401000000009004565b600860008473ffffffffffffffffffffffffffffffffffffffff1673ffffffffffffffffffffffffffffffffffffffff1681526020019081526020016000206000815480929190600190039190505550620014f77f4ed115f965b9ea3e54650231154a5f18cc3a35f092b81ad39aacaa7e85475e2860010262001003640100000000026401000000009004565b600a600082815260200190815260200160002060006101000a81549073ffffffffffffffffffffffffffffffffffffffff02191690556200156a7fae028673c4046d8259fe2c9a860fcb6a49bbbaa83d1dd3ca2ac0688d1ae4801f60010262001003640100000000026401000000009004565b6009600082815260200190815260200160002060006101000a81549073ffffffffffffffffffffffffffffffffffffffff0219169055620015e4565b620015e37f31b6fa50e79ee1c74054d4e9d070882636304fdaf307c0f2eb7f23d44fa533fd60010262001003640100000000026401000000009004565b5b620016217f0668f245b8ed5f50acf7a77b0b916c0b8f67b3800fb95d8d4d7bd9c893e68e2560010262001003640100000000026401000000009004565b6200165e7f4d5369baa40700f5ca0035a032d898cee0eeae70c91a454ee4172329d88f4be260010262001003640100000000026401000000009004565b7fddf252ad1be2c89b69c2b068fc378daa952ba7f163c4a11628f55a4df523b3ef838383604051808473ffffffffffffffffffffffffffffffffffffffff1673ffffffffffffffffffffffffffffffffffffffff1681526020018373ffffffffffffffffffffffffffffffffffffffff1673ffffffffffffffffffffffffffffffffffffffff168152602001828152602001935050505060405180910390a1505050565b82600e600701600890048101928215620017995791602002820160005b838211156200176557835183826101000a81548163ffffffff021916908363ffffffff16021790555092602001926004016020816003010492830192600103026200171f565b8015620017975782816101000a81549063ffffffff021916905560040160208160030104928301926001030262001765565b505b509050620017a8919062001820565b5090565b6101006040519081016040528060008152602001600067ffffffffffffffff168152602001600067ffffffffffffffff168152602001600063ffffffff168152602001600063ffffffff168152602001600063ffffffff168152602001600061ffff168152602001600061ffff1681525090565b6200185391905b808211156200184f57600081816101000a81549063ffffffff02191690555060010162001827565b5090565b90565b61f4c480620018666000396000f3006080604052600436106102f6576000357c0100000000000000000000000000000000000000000000000000000000900463ffffffff1680630519ce791461048857806305e45546146104df57806306fdde031461050a578063095ea7b31461059a57806309f6d5b4146105e75780630a0f8168146106145780630e583df01461066b57806314001f4c14610696578063170ff3e1146106d957806318160ddd1461071c5780631940a9361461074757806319c2f2011461078c57806321717ebf146107b757806321ee102b1461080e57806323b872dd1461085157806324e7a38a146108be57806327ab9f201461090157806327d7874c1461096e5780632ba73c15146109b15780633c4b07de146109f45780633d7d3f5a14610a4b5780633f4ba83a14610a9657806346116e6f14610aad57806346d22c7014610b1a5780634ad8c93814610b695780634b85fd5514610bb45780634dfff04f14610be15780634e0a337914610c2e5780634e4081ef14610c715780635663896e14610c9c5780635c975abb14610cc95780635f70d9ac14610cf85780635fd8c71014610d8057806361b6683c14610d975780636352211e14610dce578063680eba2714610e3b5780636af04a5714610e665780636fbde40d14610ebd57806370a0823114610f005780637158798814610f575780637a7d493714610f9a5780638456cb5914610fc55780638462151c14610fdc57806388c2a0bf146110745780638a653c93146110b557806391876e57146110fe57806395d89b41146111155780639d6fac6f146111a5578063a8f8884d146111f2578063a9059cbb1461125f578063b047fb50146112ac578063b0c35c0514611303578063bf4a54851461132e578063bf86e01314611369578063c3bea9af146113b6578063d1b12b4e146113e3578063d3e6f49f14611462578063defb9584146114a7578063e6cbe351146114d2578063e9b5822514611529578063ed60ade614611556578063f1ca941014611580578063f2b47d52146115ab578063f7d8c88314611602575b6103227f6df5b3e8d3803dc4360699fa8797d7c2b8cfaf296f31d0a1fc30180b937b600560010261162c565b61034e7fb72590cd2116fb343d6b1cd716fcc0874dd9e2486193bf9c6d04781cf1b46dfe60010261162c565b61037a7f1f3f5ac989fae7b1572ee2d778d0c7c716f0cf4d05df2cbaf82011f469b9aa4260010261162c565b6103a67f129e3cff670cbbc4351f4d7096f2fb9da06c1a86b3cabb7d248fd7360b82457660010261162c565b600b60049054906101000a900473ffffffffffffffffffffffffffffffffffffffff1673ffffffffffffffffffffffffffffffffffffffff163373ffffffffffffffffffffffffffffffffffffffff16148061044f5750600c60009054906101000a900473ffffffffffffffffffffffffffffffffffffffff1673ffffffffffffffffffffffffffffffffffffffff163373ffffffffffffffffffffffffffffffffffffffff16145b151561045a57600080fd5b6104867fe7d8d44f5e35734d787c2c30bab9e7ad92566a7d23ea270d98883c3a6bf041cc60010261162c565b005b34801561049457600080fd5b5061049d61162f565b604051808273ffffffffffffffffffffffffffffffffffffffff1673ffffffffffffffffffffffffffffffffffffffff16815260200191505060405180910390f35b3480156104eb57600080fd5b506104f4611655565b6040518082815260200191505060405180910390f35b34801561051657600080fd5b5061051f61165b565b6040518080602001828103825283818151815260200191508051906020019080838360005b8381101561055f578082015181840152602081019050610544565b50505050905090810190601f16801561058c5780820380516001836020036101000a031916815260200191505b509250505060405180910390f35b3480156105a657600080fd5b506105e5600480360381019080803573ffffffffffffffffffffffffffffffffffffffff16906020019092919080359060200190929190505050611694565b005b3480156105f357600080fd5b5061061260048036038101908080359060200190929190505050611aec565b005b34801561062057600080fd5b50610629611dc3565b604051808273ffffffffffffffffffffffffffffffffffffffff1673ffffffffffffffffffffffffffffffffffffffff16815260200191505060405180910390f35b34801561067757600080fd5b50610680611de8565b6040518082815260200191505060405180910390f35b3480156106a257600080fd5b506106d7600480360381019080803573ffffffffffffffffffffffffffffffffffffffff169060200190929190505050611df3565b005b3480156106e557600080fd5b5061071a600480360381019080803573ffffffffffffffffffffffffffffffffffffffff1690602001909291905050506121d6565b005b34801561072857600080fd5b50610731612418565b6040518082815260200191505060405180910390f35b34801561075357600080fd5b50610772600480360381019080803590602001909291905050506124c3565b604051808215151515815260200191505060405180910390f35b34801561079857600080fd5b506107a1612597565b6040518082815260200191505060405180910390f35b3480156107c357600080fd5b506107cc61259e565b604051808273ffffffffffffffffffffffffffffffffffffffff1673ffffffffffffffffffffffffffffffffffffffff16815260200191505060405180910390f35b34801561081a57600080fd5b5061084f600480360381019080803573ffffffffffffffffffffffffffffffffffffffff1690602001909291905050506125c4565b005b34801561085d57600080fd5b506108bc600480360381019080803573ffffffffffffffffffffffffffffffffffffffff169060200190929190803573ffffffffffffffffffffffffffffffffffffffff169060200190929190803590602001909291905050506127d1565b005b3480156108ca57600080fd5b506108ff600480360381019080803573ffffffffffffffffffffffffffffffffffffffff169060200190929190505050612dd0565b005b34801561090d57600080fd5b5061092c600480360381019080803590602001909291905050506131b3565b604051808273ffffffffffffffffffffffffffffffffffffffff1673ffffffffffffffffffffffffffffffffffffffff16815260200191505060405180910390f35b34801561097a57600080fd5b506109af600480360381019080803573ffffffffffffffffffffffffffffffffffffffff1690602001909291905050506131e6565b005b3480156109bd57600080fd5b506109f2600480360381019080803573ffffffffffffffffffffffffffffffffffffffff1690602001909291905050506134fc565b005b348015610a0057600080fd5b50610a2d60048036038101908080359060200190929190803561ffff169060200190929190505050613813565b604051808261ffff1661ffff16815260200191505060405180910390f35b348015610a5757600080fd5b50610a9460048036038101908080359060200190929190803590602001909291908035906020019092919080359060200190929190505050613a10565b005b348015610aa257600080fd5b50610aab613ec0565b005b348015610ab957600080fd5b50610ad86004803603810190808035906020019092919050505061460b565b604051808273ffffffffffffffffffffffffffffffffffffffff1673ffffffffffffffffffffffffffffffffffffffff16815260200191505060405180910390f35b348015610b2657600080fd5b50610b4f600480360381019080803590602001909291908035906020019092919050505061463e565b604051808215151515815260200191505060405180910390f35b348015610b7557600080fd5b50610bb26004803603810190808035906020019092919080359060200190929190803590602001909291908035906020019092919050505061495b565b005b348015610bc057600080fd5b50610bdf60048036038101908080359060200190929190505050614e0a565b005b348015610bed57600080fd5b50610c2c600480360381019080803573ffffffffffffffffffffffffffffffffffffffff16906020019092919080359060200190929190505050614ffc565b005b348015610c3a57600080fd5b50610c6f600480360381019080803573ffffffffffffffffffffffffffffffffffffffff1690602001909291905050506152be565b005b348015610c7d57600080fd5b50610c866155d5565b6040518082815260200191505060405180910390f35b348015610ca857600080fd5b50610cc7600480360381019080803590602001909291905050506155db565b005b348015610cd557600080fd5b50610cde61596b565b604051808215151515815260200191505060405180910390f35b348015610d0457600080fd5b50610d236004803603810190808035906020019092919050505061597e565b604051808b1515151581526020018a1515151581526020018981526020018881526020018781526020018681526020018581526020018481526020018381526020018281526020019a505050505050505050505060405180910390f35b348015610d8c57600080fd5b50610d95615ff2565b005b348015610da357600080fd5b50610dac6163cf565b604051808263ffffffff1663ffffffff16815260200191505060405180910390f35b348015610dda57600080fd5b50610df9600480360381019080803590602001909291905050506163e5565b604051808273ffffffffffffffffffffffffffffffffffffffff1673ffffffffffffffffffffffffffffffffffffffff16815260200191505060405180910390f35b348015610e4757600080fd5b50610e50616592565b6040518082815260200191505060405180910390f35b348015610e7257600080fd5b50610e7b616598565b604051808273ffffffffffffffffffffffffffffffffffffffff1673ffffffffffffffffffffffffffffffffffffffff16815260200191505060405180910390f35b348015610ec957600080fd5b50610efe600480360381019080803573ffffffffffffffffffffffffffffffffffffffff1690602001909291905050506165be565b005b348015610f0c57600080fd5b50610f41600480360381019080803573ffffffffffffffffffffffffffffffffffffffff1690602001909291905050506169a1565b6040518082815260200191505060405180910390f35b348015610f6357600080fd5b50610f98600480360381019080803573ffffffffffffffffffffffffffffffffffffffff169060200190929190505050616a6e565b005b348015610fa657600080fd5b50610faf616e77565b6040518082815260200191505060405180910390f35b348015610fd157600080fd5b50610fda616e7d565b005b348015610fe857600080fd5b5061101d600480360381019080803573ffffffffffffffffffffffffffffffffffffffff169060200190929190505050617254565b6040518080602001828103825283818151815260200191508051906020019060200280838360005b83811015611060578082015181840152602081019050611045565b505050509050019250505060405180910390f35b34801561108057600080fd5b5061109f60048036038101908080359060200190929190505050617877565b6040518082815260200191505060405180910390f35b3480156110c157600080fd5b506110e0600480360381019080803590602001909291905050506183be565b604051808261ffff1661ffff16815260200191505060405180910390f35b34801561110a57600080fd5b506111136185d4565b005b34801561112157600080fd5b5061112a618a01565b6040518080602001828103825283818151815260200191508051906020019080838360005b8381101561116a57808201518184015260208101905061114f565b50505050905090810190601f1680156111975780820380516001836020036101000a031916815260200191505b509250505060405180910390f35b3480156111b157600080fd5b506111d060048036038101908080359060200190929190505050618a3a565b604051808263ffffffff1663ffffffff16815260200191505060405180910390f35b3480156111fe57600080fd5b5061121d60048036038101908080359060200190929190505050618a69565b604051808273ffffffffffffffffffffffffffffffffffffffff1673ffffffffffffffffffffffffffffffffffffffff16815260200191505060405180910390f35b34801561126b57600080fd5b506112aa600480360381019080803573ffffffffffffffffffffffffffffffffffffffff16906020019092919080359060200190929190505050618a9c565b005b3480156112b857600080fd5b506112c16191ef565b604051808273ffffffffffffffffffffffffffffffffffffffff1673ffffffffffffffffffffffffffffffffffffffff16815260200191505060405180910390f35b34801561130f57600080fd5b50611318619215565b6040518082815260200191505060405180910390f35b34801561133a57600080fd5b5061136760048036038101908080359060200190929190803561ffff16906020019092919050505061921b565b005b34801561137557600080fd5b506113b460048036038101908080359060200190929190803573ffffffffffffffffffffffffffffffffffffffff169060200190929190505050619414565b005b3480156113c257600080fd5b506113e1600480360381019080803590602001909291905050506198d6565b005b3480156113ef57600080fd5b5061144c60048036038101908080359060200190929190803590602001909291908035906020019092919080359060200190929190803573ffffffffffffffffffffffffffffffffffffffff169060200190929190505050619db1565b6040518082815260200191505060405180910390f35b34801561146e57600080fd5b5061148d60048036038101908080359060200190929190505050619fb6565b604051808215151515815260200191505060405180910390f35b3480156114b357600080fd5b506114bc61a1ff565b6040518082815260200191505060405180910390f35b3480156114de57600080fd5b506114e761a205565b604051808273ffffffffffffffffffffffffffffffffffffffff1673ffffffffffffffffffffffffffffffffffffffff16815260200191505060405180910390f35b34801561153557600080fd5b506115546004803603810190808035906020019092919050505061a22b565b005b61157e600480360381019080803590602001909291908035906020019092919050505061a506565b005b34801561158c57600080fd5b5061159561ac07565b6040518082815260200191505060405180910390f35b3480156115b757600080fd5b506115c061ac0d565b604051808273ffffffffffffffffffffffffffffffffffffffff1673ffffffffffffffffffffffffffffffffffffffff16815260200191505060405180910390f35b61162a600480360381019080803590602001909291908035906020019092919050505061ac33565b005b50565b600160009054906101000a900473ffffffffffffffffffffffffffffffffffffffff1681565b60125481565b6040805190810160405280600a81526020017f43727970746f426f74730000000000000000000000000000000000000000000081525081565b6116c07fcb2648b67b0de279cb753577ec77c6b2ea08d23aa34ef2f48c5aab3c2f7b331360010261b5d1565b6116ec7f6f460441e04e9f2fab210055dfdc65babe4e31ac3fe89dcb41c84c7fb037599160010261b5d1565b6117187f3dde09caefb3a1f40ad03cded37744ff16ee712b622d5384bd28cad309760ae760010261b5d1565b6117447f7808d25d5414a096b7d4484dd157a0f0c9b5f6c11dae49f7d70fd4cb3bbde23260010261b5d1565b600260149054906101000a900460ff1615151561176057600080fd5b61178c7f8b5d68b72118d3191a023266c39777d9f072660abc89f2761d9e6c792bd310c360010261b5d1565b6117b77ead53c480053279c157a04c0652ee4064d1c599d726b53bdfe5e51538b4069160010261b5d1565b6117e37f73f27d1582078ef0295938c7b7ab7f3be1e5cc6048e9cc9508a6feef04e1095d60010261b5d4565b61180f7ffb7d35519eb0ee941ca5a932582a5263ee71940aee636850cfa01b3b126f306760010261b5d4565b61183b7fb434096f2e5ca8d06c454a21f04ad5f09942234d4e363c211c1420ed4a2e52be60010261b5d4565b6118677fa9c8efc5ce4bc61f305ce46bfcc0de8acc8c44d59aa97d4b61c09d5a5a50ca5060010261b5d4565b611871338261b5d7565b151561187c57600080fd5b6118a87fa8f7926d71a6472fe13f29db3af391c76d36edae2364b8e75c20daf48bfd959760010261b5d4565b6118d47fcbf8814163e31ba4fd315f1dcca9acca540f3661836dc3d0675fdfb5044c54f760010261b5d4565b6119007f6ca082da447e0fdca09edb60240a1bccddd75ea7cc421359bd97351bfd379b2e60010261b5d4565b61192c7faf97db88b3736215d415e6d475805ecaec705fcbd497b0079b25802be6d365c260010261b5d4565b60006002600e600084815260200190815260200160002060009054906101000a900461ffff161661ffff1614151561196357600080fd5b61198f7fabe0724bb66fdcb981b83ee011d3446861ecdd983e55c82bcfda252851c0d66660010261b5d4565b6119bb7f286f0709e1a3c00bd5c53e23b60ab9673abcd305f451e2e5380ca38fb8fffd1e60010261b5d4565b6119e77f8af0e261a7afaa1f451dd3259edc0d69b42f3ca4312ba7255d55fd183399c10360010261b5d4565b6119f1818361b6c7565b611a1d7fae6983cc8c7630a3ba8860ce83e961c7ef6142fbfc5a5dd39af1543d1465f94d60010261b5d4565b611a497f06b1e8b3a5b6375b6be53631cc8b0bf9853c9cd1959449e6a545d233afdb3c1960010261b5d4565b7f8c5be1e5ebec7d5bd14f71427d1e84f3dd0314c0f7b2291e5b200ac8c7c3b925338383604051808473ffffffffffffffffffffffffffffffffffffffff1673ffffffffffffffffffffffffffffffffffffffff1681526020018373ffffffffffffffffffffffffffffffffffffffff1673ffffffffffffffffffffffffffffffffffffffff168152602001828152602001935050505060405180910390a15050565b611b187fcb049ed2f483be6c0944c2c03cebba45371d8e0ef11e4518263bd2fbbda7f59360010261b5d1565b611b447f5dbffe83b36d40e7d651f2d3531e4a4824b9dc6ccb6586f84d10976bd60ae08d60010261b5d1565b611b707f31f8d3048db660f92f7d2b610b6a9c7cae1f6a13dda0027f8885b1f585ba628360010261b5d1565b611b9c7fa2a47da5016dac4687136caeff8e35d8d21ddaedc8808cd08f29ccfc21bfac7360010261b5d1565b6000809054906101000a900473ffffffffffffffffffffffffffffffffffffffff1673ffffffffffffffffffffffffffffffffffffffff163373ffffffffffffffffffffffffffffffffffffffff16141515611bf757600080fd5b611c237f75897d7cfe76dbf024f81b5ad6072a4019a8f8439308212c47ad1e9256df43c060010261b5d1565b611c4f7f3ffe5ec58b9e7787ceecb0adf9d00ef109fb30448b7229696966b751a6dac16160010261b5d1565b611c7b7f5ec0a8788933597779e186b8a9f8922735980bed361186449768c528d215b78260010261162c565b611ca77f12c43873514f1552ea392fbe004456da810478d1f0f0a3bed56ef7f24ea0283960010261162c565b611cd37fb98cf178babc4740a70cac83bebc02b5a774c7e96ac42f3989a56871fe9653d960010261162c565b611cff7f4a973740d5601c4f9489f9ad20045bff06408ab3052c1868964f40dd54c8c55060010261162c565b6000600e600083815260200190815260200160002060009054906101000a900461ffff1661ffff16141515611d3357600080fd5b611d5f7fa4baf84b871adc52b78493e1017369bb17ac7337dd69e2c150b54f0e0497bbf260010261162c565b611d8b7fbd9d8f7e944c05ca0f9fb669d957765a64d834685a8af41caac8e65ae056c1cd60010261162c565b611db77fe478f52d45a4bfb6fe3623352ae925ba82613de85a6a3b96711b5b76cae6c53360010261162c565b611dc08161b7a1565b50565b6000809054906101000a900473ffffffffffffffffffffffffffffffffffffffff1681565b662386f26fc1000081565b6000611e217fcb049ed2f483be6c0944c2c03cebba45371d8e0ef11e4518263bd2fbbda7f59360010261b5d1565b611e4d7f5dbffe83b36d40e7d651f2d3531e4a4824b9dc6ccb6586f84d10976bd60ae08d60010261b5d1565b611e797f31f8d3048db660f92f7d2b610b6a9c7cae1f6a13dda0027f8885b1f585ba628360010261b5d1565b611ea57fa2a47da5016dac4687136caeff8e35d8d21ddaedc8808cd08f29ccfc21bfac7360010261b5d1565b6000809054906101000a900473ffffffffffffffffffffffffffffffffffffffff1673ffffffffffffffffffffffffffffffffffffffff163373ffffffffffffffffffffffffffffffffffffffff16141515611f0057600080fd5b611f2c7f75897d7cfe76dbf024f81b5ad6072a4019a8f8439308212c47ad1e9256df43c060010261b5d1565b611f587f3ffe5ec58b9e7787ceecb0adf9d00ef109fb30448b7229696966b751a6dac16160010261b5d1565b611f847f324752660c17efb762de4dc4a4ac46af3bf845fc2ef21ea266f3aefaca3cc98060010261bad7565b611fb07fcb5d3011ff5173e7db9bca2185850530a4e465e391e31457983db8caa05c729260010261bad7565b611fdc7f4dba8cef6ad001b7e4a5e36a8eabe7158a3a2e63afd2b1a675c5701346112de460010261bad7565b81905061200b7f22750c26745dd09d8e4ea8cec1e6e0fed051c81b70aa7348e7f5d68b370acc7460010261bad7565b6120377f63c2504063eced5e16881a9a5e5c444adeef5cd2f8e210f6ad7cf1222e48915160010261bad7565b6120637f65d5450ab468e008be7cd723ef13e5e5eae14d565346a24ec89fd6d67e6e9a3960010261bad7565b8073ffffffffffffffffffffffffffffffffffffffff166376190f8f6040518163ffffffff167c0100000000000000000000000000000000000000000000000000000000028152600401602060405180830381600087803b1580156120c757600080fd5b505af11580156120db573d6000803e3d6000fd5b505050506040513d60208110156120f157600080fd5b8101908080519060200190929190505050151561210d57600080fd5b6121397f5d9abdeb3394d4a11c5aec3e9642ce5ccc688cc2b1aa9b4c9056c7e33e13a60260010261bad7565b6121657fcda96f0b8ddd97e8d455c1df412bcc9c38f4594d217db2f0176262918e776f1360010261bad7565b6121917f0fa7178ada6ef6354d422424aa391b3e1e74ed98f97b9d85d83c43dabf3fab7160010261bad7565b80600c60006101000a81548173ffffffffffffffffffffffffffffffffffffffff021916908373ffffffffffffffffffffffffffffffffffffffff1602179055505050565b6122027fcb049ed2f483be6c0944c2c03cebba45371d8e0ef11e4518263bd2fbbda7f59360010261b5d1565b61222e7f5dbffe83b36d40e7d651f2d3531e4a4824b9dc6ccb6586f84d10976bd60ae08d60010261b5d1565b61225a7f31f8d3048db660f92f7d2b610b6a9c7cae1f6a13dda0027f8885b1f585ba628360010261b5d1565b6122867fa2a47da5016dac4687136caeff8e35d8d21ddaedc8808cd08f29ccfc21bfac7360010261b5d1565b6000809054906101000a900473ffffffffffffffffffffffffffffffffffffffff1673ffffffffffffffffffffffffffffffffffffffff163373ffffffffffffffffffffffffffffffffffffffff161415156122e157600080fd5b61230d7f75897d7cfe76dbf024f81b5ad6072a4019a8f8439308212c47ad1e9256df43c060010261b5d1565b6123397f3ffe5ec58b9e7787ceecb0adf9d00ef109fb30448b7229696966b751a6dac16160010261b5d1565b6123657fbf1d85ffe6355fc4f272b2f2d5adc3ad4608c432a5940832e2cc20d377b9a98b60010261bada565b6123917f3121b1f0cf694c7aebd4277132a51a0d946c87c20aa931ecdd3eb428bc2ad93860010261bada565b6123bd7f91b33501a02963141dbd64b5b5bd1c9bb12e2a9f2cd55094b23aecaaf0e998c160010261bada565b6001600d60008373ffffffffffffffffffffffffffffffffffffffff1673ffffffffffffffffffffffffffffffffffffffff16815260200190815260200160002060006101000a81548160ff02191690831515021790555050565b60006124467f898aee6ef95aa656f8884189394d48e7887c876270b03a2eb9a38fd154f49a2060010261b5d4565b6124727fdddbecff26dcf835d644d384922766599f4f95e54a624f935763c4c8686bc29b60010261b5d4565b61249e7ffbf9e60a85a1e336d4656f46007e2199bddfa98f95617e504b3571289e6b087160010261b5d4565b600b60009054906101000a900463ffffffff1663ffffffff1660068054905003905090565b60006124f17fe7bf1379587a667dd3fb8ff72fc2ac579c208ce7775f03b659d973333fbc473860010261badd565b61251d7f95e2a8b8f85612c67958456e06ffb7afa89e0249e1b703668d0c19608b051d5360010261badd565b6125497ff2440aa14d4eb8747206cf4ee6e44f7470aecc82d1722f22c0fc8f16b50c288360010261badd565b6000821180156125905750600060068381548110151561256557fe5b906000526020600020906002020160010160189054906101000a900463ffffffff1663ffffffff1614155b9050919050565b6201518081565b600c60009054906101000a900473ffffffffffffffffffffffffffffffffffffffff1681565b6125f07fcb049ed2f483be6c0944c2c03cebba45371d8e0ef11e4518263bd2fbbda7f59360010261b5d1565b61261c7f5dbffe83b36d40e7d651f2d3531e4a4824b9dc6ccb6586f84d10976bd60ae08d60010261b5d1565b6126487f31f8d3048db660f92f7d2b610b6a9c7cae1f6a13dda0027f8885b1f585ba628360010261b5d1565b6126747fa2a47da5016dac4687136caeff8e35d8d21ddaedc8808cd08f29ccfc21bfac7360010261b5d1565b6000809054906101000a900473ffffffffffffffffffffffffffffffffffffffff1673ffffffffffffffffffffffffffffffffffffffff163373ffffffffffffffffffffffffffffffffffffffff161415156126cf57600080fd5b6126fb7f75897d7cfe76dbf024f81b5ad6072a4019a8f8439308212c47ad1e9256df43c060010261b5d1565b6127277f3ffe5ec58b9e7787ceecb0adf9d00ef109fb30448b7229696966b751a6dac16160010261b5d1565b6127537f8444ef6021167db0d922a2b1e8349b1a5f0b8edd982ba8f491199e31a55d570260010261bada565b61277f7f2580da3be0f5c047837254c1276bcd16f8442e69e56de9ef1e73c37459f8dfcd60010261bada565b600d60008273ffffffffffffffffffffffffffffffffffffffff1673ffffffffffffffffffffffffffffffffffffffff16815260200190815260200160002060006101000a81549060ff021916905550565b6127fd7fcb2648b67b0de279cb753577ec77c6b2ea08d23aa34ef2f48c5aab3c2f7b331360010261b5d1565b6128297f6f460441e04e9f2fab210055dfdc65babe4e31ac3fe89dcb41c84c7fb037599160010261b5d1565b6128557f3dde09caefb3a1f40ad03cded37744ff16ee712b622d5384bd28cad309760ae760010261b5d1565b6128817f7808d25d5414a096b7d4484dd157a0f0c9b5f6c11dae49f7d70fd4cb3bbde23260010261b5d1565b600260149054906101000a900460ff1615151561289d57600080fd5b6128c97f8b5d68b72118d3191a023266c39777d9f072660abc89f2761d9e6c792bd310c360010261b5d1565b6128f47ead53c480053279c157a04c0652ee4064d1c599d726b53bdfe5e51538b4069160010261b5d1565b6129207f0889fe94f74f44c65c35ba53712fbab194fa1bb61f615921226ec89ec79af0dc60010261b5d4565b61294c7f72e97404a545a6ad14e994b3b72e117ca463f792d8462726bc8f8a75f0a867d560010261b5d4565b6129787f98a3efff4491bfdd31db19a4ea6524d91725fcdf8f467170ca66cbf502f4bcdc60010261b5d4565b6129a47f5d10d8b8387754f7af183be69aa3cf6d6d24af896abedfabba930b71cd73c2d060010261b5d4565b600073ffffffffffffffffffffffffffffffffffffffff168273ffffffffffffffffffffffffffffffffffffffff16141515156129e057600080fd5b612a0c7f33986ea5c636d69115fe35e35cc069b9971677771d2c4d5c0339839f187975a060010261b5d4565b612a387f30f54a806808c7e5a107cef8fda892b8a2fc206208a3c1f30ea18ef4b43858e860010261b5d4565b612a647f8f9ed3e3c37dca59b5e1954a87c197b23556f9c18aba8ecb475882740763c0c360010261b5d4565b612a907f99ecce2e1df3700019fc1d0501dff4b21f73cadd019023d27f58bee55860b83360010261b5d4565b3073ffffffffffffffffffffffffffffffffffffffff168273ffffffffffffffffffffffffffffffffffffffff1614151515612acb57600080fd5b612af77f2de2ffb7058da8280839e5d6a8ddb58621ce4abb510b5fb2139831870d3f186960010261b5d4565b612b237fc8c4361c344a80898fd02a5ac01d2d7c40cef2895e6ec8a17e76a65488eeba6060010261b5d4565b612b4f7f5e442fcfa187959ed10b7c75d281059104822e17b99b0075e016c0146d7ec15960010261b5d4565b612b7b7f9ff1cba92654c5fa7243108ea24a0f3e448fb981a1e4731de57aefa2c9675cda60010261b5d4565b612b85338261bae0565b1515612b9057600080fd5b612bbc7fc012d300c3df2f91a3d2612b15ca61a1500962d8354da9819cf116a1192c81c760010261b5d4565b612be87face457e11cfed63f5abda78b37b9706c0a6548ba4d271846614c8c59e5281a5d60010261b5d4565b612c147f0fcbfed2c08977871396d7f42dc83de65eb46d744d38f84baec9ffe17d1ed43060010261b5d4565b612c407f06b4769d16a6c1cd61b6ea0cd7badbefb2d6a54dfdffeeb943a1fc768cab9df460010261b5d4565b612c4a838261b5d7565b1515612c5557600080fd5b612c817f173f51cd66e6b7124783f729ab4fa4d3fe6a286663aaf410ff269824de29535260010261b5d4565b612cad7f34bd79ec044af2b897b90b1166c070695aaff1c41b44392c88d751ec221b520660010261b5d4565b612cd97f4dc7bd8f4d2ffd4fa3d24905e728f4d790fcba5df163fde95f7bb23e198a8f2060010261b5d4565b612d057f67c927596ccd3e5e5c5f1892c2e72f8c7743fef824ddeb68848ea28a461a75da60010261b5d4565b60006002600e600084815260200190815260200160002060009054906101000a900461ffff161661ffff16141515612d3c57600080fd5b612d687fb098cd7bef334ec0c432b74cf3b1065f29f7adb4e04707aa87ee877d25b4dbce60010261b5d4565b612d947ff2bbc773a3b17d847e7e427ee26864d6402378f5e24eef228b96502b8c46c37660010261b5d4565b612dc07f2922453e9ea1635c3a5803ae8ccf221b3a46ece39c97592d4531bf583ea1d51860010261b5d4565b612dcb83838361bbd0565b505050565b6000612dfe7fcb049ed2f483be6c0944c2c03cebba45371d8e0ef11e4518263bd2fbbda7f59360010261b5d1565b612e2a7f5dbffe83b36d40e7d651f2d3531e4a4824b9dc6ccb6586f84d10976bd60ae08d60010261b5d1565b612e567f31f8d3048db660f92f7d2b610b6a9c7cae1f6a13dda0027f8885b1f585ba628360010261b5d1565b612e827fa2a47da5016dac4687136caeff8e35d8d21ddaedc8808cd08f29ccfc21bfac7360010261b5d1565b6000809054906101000a900473ffffffffffffffffffffffffffffffffffffffff1673ffffffffffffffffffffffffffffffffffffffff163373ffffffffffffffffffffffffffffffffffffffff16141515612edd57600080fd5b612f097f75897d7cfe76dbf024f81b5ad6072a4019a8f8439308212c47ad1e9256df43c060010261b5d1565b612f357f3ffe5ec58b9e7787ceecb0adf9d00ef109fb30448b7229696966b751a6dac16160010261b5d1565b612f617ffb5317fd1b5166c3774f920b6fb2db12fd47fc828b83f9a4773ee8358297956760010261badd565b612f8d7f977d71112e5188f9338ace708886714229e1cc60b10eefe58b44ad0c35d7de2360010261badd565b612fb97fc3d5557feb1159ba466a1e9740f52c40f29ee7769cc7557ee2c3b34a0cfc148460010261badd565b819050612fe87f622643e69f558353da525ed55064184d5388f570975071d33a842612a70030cb60010261badd565b6130147fdea2bc1c28ef5fe96e8dfca88f09ef8feb28f14e8b05083f7c46d01d6194b3be60010261badd565b6130407fab234dfee6b4f8f1a0c6b0a12541efae9e82813600d5564a2c88c708615e89f060010261badd565b8073ffffffffffffffffffffffffffffffffffffffff166354c15b826040518163ffffffff167c0100000000000000000000000000000000000000000000000000000000028152600401602060405180830381600087803b1580156130a457600080fd5b505af11580156130b8573d6000803e3d6000fd5b505050506040513d60208110156130ce57600080fd5b810190808051906020019092919050505015156130ea57600080fd5b6131167fc56bd864e5b50f205462a19844dfc4eb411b88e8bf6efbfd889473593e48b6a260010261badd565b6131427f03ed735a4a29523fc209118f2656357e9e128043069213343749a8e98966c83e60010261badd565b61316e7fc95924bc85c89d7f616594e582a71dbec7ff4a3b48d493ee8135d05f6eb7082960010261badd565b80601160006101000a81548173ffffffffffffffffffffffffffffffffffffffff021916908373ffffffffffffffffffffffffffffffffffffffff1602179055505050565b60076020528060005260406000206000915054906101000a900473ffffffffffffffffffffffffffffffffffffffff1681565b6132127fcb049ed2f483be6c0944c2c03cebba45371d8e0ef11e4518263bd2fbbda7f59360010261b5d1565b61323e7f5dbffe83b36d40e7d651f2d3531e4a4824b9dc6ccb6586f84d10976bd60ae08d60010261b5d1565b61326a7f31f8d3048db660f92f7d2b610b6a9c7cae1f6a13dda0027f8885b1f585ba628360010261b5d1565b6132967fa2a47da5016dac4687136caeff8e35d8d21ddaedc8808cd08f29ccfc21bfac7360010261b5d1565b6000809054906101000a900473ffffffffffffffffffffffffffffffffffffffff1673ffffffffffffffffffffffffffffffffffffffff163373ffffffffffffffffffffffffffffffffffffffff161415156132f157600080fd5b61331d7f75897d7cfe76dbf024f81b5ad6072a4019a8f8439308212c47ad1e9256df43c060010261b5d1565b6133497f3ffe5ec58b9e7787ceecb0adf9d00ef109fb30448b7229696966b751a6dac16160010261b5d1565b6133757f5fc6eb43ffbf276b62f28fcbf60dc2c180db575c7e9e226e6c6c4ebc9d3cdca660010261b5d1565b6133a17f8600bb7718bfaf280bafb2953b4f5e2e5b7f43eb718f188ebbcea7100f3ec91f60010261b5d1565b6133cd7ff67d7d4f85ade4d4ae9d316f7b6198c820cf3fbdc10cd6c34dbbaa33e43e5b1860010261b5d1565b6133f97fd970e416a7b05f894e16d02c52d34731c3fc2e0bf8267719089224ee103507ca60010261b5d1565b600073ffffffffffffffffffffffffffffffffffffffff168173ffffffffffffffffffffffffffffffffffffffff161415151561343557600080fd5b6134617f83b999badfe58cf9aa7350759d8fc576955adf6ab9762923d3e4195cc1fb053d60010261b5d1565b61348d7fee8b0d121d8b68ba51424a21b862b2537b0180682b889c82daf52e6efd48137060010261b5d1565b6134b97f9023188c9cea07958449ac3498f26f8c50f0236650f38f89ba11bc880e682f3660010261b5d1565b806000806101000a81548173ffffffffffffffffffffffffffffffffffffffff021916908373ffffffffffffffffffffffffffffffffffffffff16021790555050565b6135287fcb049ed2f483be6c0944c2c03cebba45371d8e0ef11e4518263bd2fbbda7f59360010261b5d1565b6135547f5dbffe83b36d40e7d651f2d3531e4a4824b9dc6ccb6586f84d10976bd60ae08d60010261b5d1565b6135807f31f8d3048db660f92f7d2b610b6a9c7cae1f6a13dda0027f8885b1f585ba628360010261b5d1565b6135ac7fa2a47da5016dac4687136caeff8e35d8d21ddaedc8808cd08f29ccfc21bfac7360010261b5d1565b6000809054906101000a900473ffffffffffffffffffffffffffffffffffffffff1673ffffffffffffffffffffffffffffffffffffffff163373ffffffffffffffffffffffffffffffffffffffff1614151561360757600080fd5b6136337f75897d7cfe76dbf024f81b5ad6072a4019a8f8439308212c47ad1e9256df43c060010261b5d1565b61365f7f3ffe5ec58b9e7787ceecb0adf9d00ef109fb30448b7229696966b751a6dac16160010261b5d1565b61368b7f88c886be51524dd73b922e35a02dca86d0c0b415cf3c56d62a1f13368b3d05e360010261b5d1565b6136b77f9f0996057a1a4719f75aa64801cbab8bb062056caa963266efdd3d64b675584e60010261b5d1565b6136e37f54156e362d900300deebcd999007c710ad9bb1a442a2d97a5bf53bc07079ce3d60010261b5d1565b61370f7ffd23285df18ee46f15e8858285ad785009d6b2ae9b545be17c967db9f4bc953960010261b5d1565b600073ffffffffffffffffffffffffffffffffffffffff168173ffffffffffffffffffffffffffffffffffffffff161415151561374b57600080fd5b6137777fcc97a5c8c25fb6ff1ad805fecb7bc6de88c04a665024665354b9a7d6bb355b3d60010261b5d1565b6137a37fb755be836afd987e535ef2cf142d2fa3bc355b2d721ad31155fe8b917c9659e660010261b5d1565b6137cf7f171d8dd485a5f392b5cf3c25f90c4141d93dc94a5fdf9c612a3296f1700d389d60010261b5d1565b80600260006101000a81548173ffffffffffffffffffffffffffffffffffffffff021916908373ffffffffffffffffffffffffffffffffffffffff16021790555050565b60006138417f34ba93981658c3daa5f666bbb9fe4c2050f8795f520af64c257be31ef93f4a7e60010261bada565b61386d7f6e13615425708a7761bd047818bc837ac9fb4bd1e59bf3fa4452e4cbd770a56060010261bada565b6138997f1dc2ce0d010e73d168ffe98a84a9bc524a16f273016615775624f5da12869a7e60010261bada565b6138c57f7988d104597cafdb112f343393a63efde85108a1f51c7a8effe784254afa55de60010261bada565b60011515600d60003373ffffffffffffffffffffffffffffffffffffffff1673ffffffffffffffffffffffffffffffffffffffff16815260200190815260200160002060009054906101000a900460ff16151514151561392457600080fd5b6139507f74c308184e27580c17a1d0b6ff599bb36cc06cea53ef2b0b67c3f3d83101591560010261bada565b61397c7ff94d3c11b156185524dc880705acc4e207d4e6c8ac4a3c0d0c44c9bda584852660010261bada565b6139a87f60acf4788f65c7446cd28a54601e564fea9f45a1c5ee6ddbe0dfb8875889994960010261bada565b6139d47f030a7770b1223429e810e10ba6717c794a45261bb291a8621ec4922617ce635760010261bada565b613a007f6d8ea07f2da76c222de40f7bea64be677077c0f7ad4a898eea5fd8ee80e2694a60010261bada565b613a0a838361c196565b92915050565b613a3c7fcb2648b67b0de279cb753577ec77c6b2ea08d23aa34ef2f48c5aab3c2f7b331360010261b5d1565b613a687f6f460441e04e9f2fab210055dfdc65babe4e31ac3fe89dcb41c84c7fb037599160010261b5d1565b613a947f3dde09caefb3a1f40ad03cded37744ff16ee712b622d5384bd28cad309760ae760010261b5d1565b613ac07f7808d25d5414a096b7d4484dd157a0f0c9b5f6c11dae49f7d70fd4cb3bbde23260010261b5d1565b600260149054906101000a900460ff16151515613adc57600080fd5b613b087f8b5d68b72118d3191a023266c39777d9f072660abc89f2761d9e6c792bd310c360010261b5d1565b613b337ead53c480053279c157a04c0652ee4064d1c599d726b53bdfe5e51538b4069160010261b5d1565b613b5f7f2d28a9c2517c54a9d91da42420bef8e420cbd9e1f63245666a86e7dd60049cf160010261bad7565b613b8b7fd3f65a76b39da1394b17abd9f89c2d298845602ef2f401e5114ac4d3a050291d60010261bad7565b613bb77fcdcdc37ae20c97ed365d854545af838f6e361fa2a46c8b84142dff84293d366860010261bad7565b613be37f6b379e6b378dda6242ee7d2e2463ca46c933b23d0e39d2bfd650d2fa367b826860010261bad7565b613bed338561b5d7565b1515613bf857600080fd5b613c247f084c6c249072a99a3c94eefe09915f0253e2fc9430c3e55a4307fe83983506a060010261bad7565b613c507f94901083c25b889de8445aa937a202b4f6377ff58478a318a826b33ac5b8085b60010261bad7565b613c7c7fbc98f474ed5b6e5a1610fd543ebf898ab8e2bd9f44285e0138efa624847387a460010261bad7565b613ca87ffe7d7ae545abed2d14156d9a59c84d762fd42a57346f18ba82f3d5c30a1b4bac60010261bad7565b613cb1846124c3565b151515613cbd57600080fd5b613ce97f4c7b29c2f5bcbe1471b82d997637206237c1e2482b0b61f9ecf0af2d9485f31a60010261bad7565b613d157f282ee1edb0ad948da39e8b5e608c7e3fb5ad8bb1fcbed6e85c08ad42beb51c1a60010261bad7565b613d417f92b5445da96bc6cd981b152e0015eeeea1ced0cedde4028fbb91d0b7f3002bc360010261bad7565b613d6d84600b60049054906101000a900473ffffffffffffffffffffffffffffffffffffffff1661b6c7565b613d997f98f66380dae9ce1e22e787e8b82762c339e2699a35492cc74b6f6e95696b731c60010261bad7565b613dc57ff9f5a05bd26ef66d1177eb2da75c91285bd1fd9ff86e5928ff92a11280e318dd60010261bad7565b600b60049054906101000a900473ffffffffffffffffffffffffffffffffffffffff1673ffffffffffffffffffffffffffffffffffffffff166327ebe40a85858585336040518663ffffffff167c0100000000000000000000000000000000000000000000000000000000028152600401808681526020018581526020018481526020018381526020018273ffffffffffffffffffffffffffffffffffffffff1673ffffffffffffffffffffffffffffffffffffffff16815260200195505050505050600060405180830381600087803b158015613ea257600080fd5b505af1158015613eb6573d6000803e3d6000fd5b5050505050505050565b613eec7fcb049ed2f483be6c0944c2c03cebba45371d8e0ef11e4518263bd2fbbda7f59360010261b5d1565b613f187f5dbffe83b36d40e7d651f2d3531e4a4824b9dc6ccb6586f84d10976bd60ae08d60010261b5d1565b613f447f31f8d3048db660f92f7d2b610b6a9c7cae1f6a13dda0027f8885b1f585ba628360010261b5d1565b613f707fa2a47da5016dac4687136caeff8e35d8d21ddaedc8808cd08f29ccfc21bfac7360010261b5d1565b6000809054906101000a900473ffffffffffffffffffffffffffffffffffffffff1673ffffffffffffffffffffffffffffffffffffffff163373ffffffffffffffffffffffffffffffffffffffff16141515613fcb57600080fd5b613ff77f75897d7cfe76dbf024f81b5ad6072a4019a8f8439308212c47ad1e9256df43c060010261b5d1565b6140237f3ffe5ec58b9e7787ceecb0adf9d00ef109fb30448b7229696966b751a6dac16160010261b5d1565b61404f7fee02b3c60f7bfcd131c9c4bfd3f91b2a91a6ce97b6a6d430726632917760560160010261b5d1565b61407b7f43afdfb745d28db79002d8d11f06a461d1a6196edc9d887c659754e88a29b92260010261b5d1565b6140a77f8ec630ab56ff4ad877f695df339f06d409f6c7ddf449da0d8db84c833f37f76360010261b5d1565b6140d37f6f467694727c3dc109758fd72c4058843bacb5cdcee39f9ace95414345acf38a60010261b5d1565b600260149054906101000a900460ff1615156140ee57600080fd5b61411a7f39fe575960af02d10117b59a53d57d89b0bf68648612a8334474037b391b7fb360010261b5d1565b6141467ff23eb7d426163ac3eb04e8e07e1cb74434c2877a79d57f6cff7670864e0f184160010261b5d1565b6141727f8ba12c90c7755a621b8a9f43204de67209c63c5a84d92c4aee4b4397f025c06160010261162c565b61419e7faf85974f14221cf06f22ae3b8ef020fd6fd55e02ae96b2c759248ccc1ee7e43c60010261162c565b6141ca7f9a447a3b9ecd52c144667b7761f7bd30854c792508ad67596866f1dd47e8353260010261162c565b6141f67f5db8ec1d25d6b34424b76ed60842e6e178bcd9c71d35cf7fec8c45616287950060010261162c565b600073ffffffffffffffffffffffffffffffffffffffff16600b60049054906101000a900473ffffffffffffffffffffffffffffffffffffffff1673ffffffffffffffffffffffffffffffffffffffff161415151561425457600080fd5b6142807f0b84a5018c261e6c80425f3cb01c9d7702013085471381b3a10cd4a89071d53460010261162c565b6142ac7f3bb0d9b320137dc01bea4b1981affa41bce813aac19ce3a816f61958525ac0c360010261162c565b6142d87f226ce0b7464fbb7e6dd3827d1d123964c2c83ab3a40483610c5f9f1d5522a23f60010261162c565b6143047fab0c9d775bca71dd72ae35e74bf78baa3919391bd6de71f210e40303a67869e360010261162c565b600073ffffffffffffffffffffffffffffffffffffffff16600c60009054906101000a900473ffffffffffffffffffffffffffffffffffffffff1673ffffffffffffffffffffffffffffffffffffffff161415151561436257600080fd5b61438e7fc8a69ed90387fe0f1f6ed84e4cc0734bca220aeb4806facf8a4891c02416f1cf60010261162c565b6143ba7f180e9ac4083d2f9731ac5a4b487b363d31db7ecc353276f7fd6ca185995fd6a060010261162c565b6143e67fbf14c355e2eadd757b3b50097c112c5fd5aa8072c2fae35bcf0fccbe36e18a5a60010261162c565b6144127f8686de59e064394ea3c26bc08e7b7ed69247f28683d61da0fe3c0e5a69c9405560010261162c565b600073ffffffffffffffffffffffffffffffffffffffff16601160009054906101000a900473ffffffffffffffffffffffffffffffffffffffff1673ffffffffffffffffffffffffffffffffffffffff161415151561447057600080fd5b61449c7f7dfde58ba0d866ec99074689934a848053418922001b26a63ebfcdcf3be8f46760010261162c565b6144c87f02f4add77926f2cc7cd1249439102fa375dbf8983012fe2e05d4132404a3fe1160010261162c565b6144f47f29fc15ccfb08be3d120dcdc2eb6469bac5dc4ad8fa67994609cd101cb95246ea60010261162c565b6145207f98ff765be6bf95e490027023c9157ff7ece70a2b51b5fbd04e4b4eb8131f5c3f60010261162c565b600073ffffffffffffffffffffffffffffffffffffffff16601460009054906101000a900473ffffffffffffffffffffffffffffffffffffffff1673ffffffffffffffffffffffffffffffffffffffff1614151561457d57600080fd5b6145a97fed69c7a1e68506d65cbf0b3e8cc24e9ced1257b43bd4e1ab7d1c60443e6b917860010261162c565b6145d57f0266761bb4d73637bd610ac998d9ba5c47eedd1bb03642fd9ea651681ad1f18660010261162c565b6146017f465b945f4b1de514a85d3dac786f68a57a03e608a7f186540afff234b119269260010261162c565b61460961c552565b565b600a6020528060005260406000206000915054906101000a900473ffffffffffffffffffffffffffffffffffffffff1681565b600080600061466f7f4179612f41b2e0f1792b808bb56cd1a61ed9398280cfc11594c5a01975ad10a760010261badd565b61469b7fdd77b92d8f954dc4714524bcdb650aa0f49ddd843915e5136298a184394cca9060010261badd565b6146c77fc81325cf3e9339705fbd1b178477e059c9c0d6cdf4d51165d9a24241f48c449360010261badd565b6146f37f6ff1cb4d0258a0f0d8c0410e91b754dfb795f1d9e7522261ab2dd04f0cafe3c460010261badd565b60008511151561470257600080fd5b61472e7f529cc57518cc5d71783bc08119cbc19bc132d92b5ebd454dcd83b52c656dc70c60010261badd565b61475a7ff1b5429c6afcfc1208ad5c2f1827ad2b9c0ef067369e9ba773dfb4e1df4e783060010261badd565b6147867f528720b1c580ecf4e5d54c69cac7fc3ef447100f309351f859585614509d86b160010261badd565b6147b27f69a271ec661cd2f67b85d9cdf4d6fe081eef0536a5e5b4166d911f62a5ee87fd60010261badd565b6000841115156147c157600080fd5b6147ed7f3abf3715348b8af36a6c455cc3a0d4169afb9ebfbfad4691b891ed74c419a29960010261badd565b6148197f7a5c0440daa8240d04dd2433b0a21957cedc931c9ae04a5c096b130fec1ecd2e60010261badd565b6148457ff911531129571f1f39867ab5cc4d602f683f08c3b79eac47820850adbd1c5b5060010261badd565b60068581548110151561485457fe5b906000526020600020906002020191506148907f1cd68f036a116198be71a81e10106609db37eb2730b990c5d41cc68d8dea72cd60010261badd565b6148bc7fa36d0b236fe7fe2583bf6abf884308a2ae664c9d012228337519e4c4ce20c18c60010261badd565b6006848154811015156148cb57fe5b906000526020600020906002020190506149077f3091342cf5bab203d368d1c1e6ce88fb4beffa512d7a19e9be98d4a111eef30960010261badd565b6149337f4515048e2d415a46add845832efe4d0d65b8158da102522f6e10d3770c0ce28960010261badd565b61493f8286838761c879565b80156149515750614950848661d142565b5b9250505092915050565b6149877fcb2648b67b0de279cb753577ec77c6b2ea08d23aa34ef2f48c5aab3c2f7b331360010261b5d1565b6149b37f6f460441e04e9f2fab210055dfdc65babe4e31ac3fe89dcb41c84c7fb037599160010261b5d1565b6149df7f3dde09caefb3a1f40ad03cded37744ff16ee712b622d5384bd28cad309760ae760010261b5d1565b614a0b7f7808d25d5414a096b7d4484dd157a0f0c9b5f6c11dae49f7d70fd4cb3bbde23260010261b5d1565b600260149054906101000a900460ff16151515614a2757600080fd5b614a537f8b5d68b72118d3191a023266c39777d9f072660abc89f2761d9e6c792bd310c360010261b5d1565b614a7e7ead53c480053279c157a04c0652ee4064d1c599d726b53bdfe5e51538b4069160010261b5d1565b614aaa7f167c4a9dca918172174d4d67efbf045e94c2d9af9c92bf466de1d77bc452c69260010261bad7565b614ad67f0f7a908899067bc3cc77071af5b0384e33cb38a51297a1f4936d1b32b18abd1160010261bad7565b614b027fd7c6b1a625e40db070d738741e1a3e3c08fd78a5800917a6cbaf4e90f06ad2bd60010261bad7565b614b2e7f83f415dfe8b8a9c8cbc86562c3740a9d7fda84c8530a89fc07ca0c6368bf356160010261bad7565b614b38338561b5d7565b1515614b4357600080fd5b614b6f7f5465c14ac38a73d50a98f3fb94733767bafd7fa202f06eb8a83edfcc79a3ded660010261bad7565b614b9b7f013bda65055cb8ff65092d0cf532c46c92fdb222b47a069fee54f68190b7abdf60010261bad7565b614bc77f1f5c52aa2348fce26b8626af89bd859aad8ecc5ed4db35c9bcb337ab584a57c360010261bad7565b614bf37f0de8329cea9a45191a6c63da89c5f327b8b11b9b79eae62cebed57c00d8f98c760010261bad7565b614bfc84619fb6565b1515614c0757600080fd5b614c337fb118c39580b10dd5cb5b850c85c863660c51baa8474d08045471ebc26a8dd45c60010261bad7565b614c5f7fe052168970cede1d37c806626f93c16e2fbb2d0fea5191333c970f208fc813bb60010261bad7565b614c8b7fde90a9b6bbe1f94fcade1d1ef7d5536dfbf5fc0982de3e7b8f632b744090bd2d60010261bad7565b614cb784600c60009054906101000a900473ffffffffffffffffffffffffffffffffffffffff1661b6c7565b614ce37f7943c56678f0a54699c5c5c7d1fe7cb9bc9dacac645896d89cda9f41f0cff74760010261bad7565b614d0f7f213f7d5933e338828981c66df0f81715b2deb49075b8de9558c65a779241e69e60010261bad7565b600c60009054906101000a900473ffffffffffffffffffffffffffffffffffffffff1673ffffffffffffffffffffffffffffffffffffffff166327ebe40a85858585336040518663ffffffff167c0100000000000000000000000000000000000000000000000000000000028152600401808681526020018581526020018481526020018381526020018273ffffffffffffffffffffffffffffffffffffffff1673ffffffffffffffffffffffffffffffffffffffff16815260200195505050505050600060405180830381600087803b158015614dec57600080fd5b505af1158015614e00573d6000803e3d6000fd5b5050505050505050565b614e367f4b3f31363c06554026c3495535211789942e41625a57b086267e5064f5934af660010261b5d1565b614e627f01fb50a86f8e94902dc9382992dbfa33e19a7eaa3e581679951cbdf2dd876a0a60010261b5d1565b614e8e7f5090bdc7b81fb4fb806ffb8a324e9482ba5cf27db77d6fd8a28579d8a407f1e260010261b5d1565b614eba7f5a2a24182e30eaa462e023aeb84148b625327a032588bd13d612098c0762752960010261b5d1565b600260009054906101000a900473ffffffffffffffffffffffffffffffffffffffff1673ffffffffffffffffffffffffffffffffffffffff163373ffffffffffffffffffffffffffffffffffffffff16141515614f1657600080fd5b614f427f68e3652403790d00667b2e33f3cafbd6f6fa0dcc355662d23e6436c566afbc2b60010261b5d1565b614f6e7f23b3e2c03a5d93b1565e0b8a6688e0afc1cb86813470da360be15ebc6130290360010261b5d1565b614f9a7f6cabde9270e087ba31cdb87267d21ffee9258da846232803912085ae672cea3660010261badd565b614fc67f9309b5242db96fe906ffb234eea5071d6a918c252d2742e9d426452d22e3c9fd60010261badd565b614ff27f8162e5d9b17df93fd48ab85847e0ad2e1940bb63a74cbf6ce4b13fd03ab0ae7560010261badd565b80600f8190555050565b6150287fcb2648b67b0de279cb753577ec77c6b2ea08d23aa34ef2f48c5aab3c2f7b331360010261b5d1565b6150547f6f460441e04e9f2fab210055dfdc65babe4e31ac3fe89dcb41c84c7fb037599160010261b5d1565b6150807f3dde09caefb3a1f40ad03cded37744ff16ee712b622d5384bd28cad309760ae760010261b5d1565b6150ac7f7808d25d5414a096b7d4484dd157a0f0c9b5f6c11dae49f7d70fd4cb3bbde23260010261b5d1565b600260149054906101000a900460ff161515156150c857600080fd5b6150f47f8b5d68b72118d3191a023266c39777d9f072660abc89f2761d9e6c792bd310c360010261b5d1565b61511f7ead53c480053279c157a04c0652ee4064d1c599d726b53bdfe5e51538b4069160010261b5d1565b61514b7fad28e7924a665847b1d2fde4e4affe352c10b91b810321151508b77b48d5b90c60010261badd565b6151777fc100db029034fc63b6d18bc837eef1a70983c4c95b8542ebaf8eae92265dfbf660010261badd565b6151a37faec6a708e6f442d6fdbf7cbed4e5cc60cf04feac290863c89c125f46c3cad80c60010261badd565b6151cf7f2db59204b6f9592f003883010f2c3c71fdb586eab3187b72344e974e69e2c06960010261badd565b6151d9338261b5d7565b15156151e457600080fd5b6152107fb598de23cca3bb111165082fc2b97db1bc0a3642ca6474cf78817234a21319a160010261badd565b61523c7f9140ea333c27a5190cb5dbfd238da4d450e482da96bf0451f5f8251771d6261360010261badd565b6152687fbd6eb5d5dd21aadf9e993a43a9f98191935b4f386d18ce17801e57698471c0e860010261badd565b81600a600083815260200190815260200160002060006101000a81548173ffffffffffffffffffffffffffffffffffffffff021916908373ffffffffffffffffffffffffffffffffffffffff1602179055505050565b6152ea7fcb049ed2f483be6c0944c2c03cebba45371d8e0ef11e4518263bd2fbbda7f59360010261b5d1565b6153167f5dbffe83b36d40e7d651f2d3531e4a4824b9dc6ccb6586f84d10976bd60ae08d60010261b5d1565b6153427f31f8d3048db660f92f7d2b610b6a9c7cae1f6a13dda0027f8885b1f585ba628360010261b5d1565b61536e7fa2a47da5016dac4687136caeff8e35d8d21ddaedc8808cd08f29ccfc21bfac7360010261b5d1565b6000809054906101000a900473ffffffffffffffffffffffffffffffffffffffff1673ffffffffffffffffffffffffffffffffffffffff163373ffffffffffffffffffffffffffffffffffffffff161415156153c957600080fd5b6153f57f75897d7cfe76dbf024f81b5ad6072a4019a8f8439308212c47ad1e9256df43c060010261b5d1565b6154217f3ffe5ec58b9e7787ceecb0adf9d00ef109fb30448b7229696966b751a6dac16160010261b5d1565b61544d7ff1e72032e90a3e1a47208c42f7f34042a7e90b2f31193334e4b128d037b651c060010261b5d1565b6154797f78a7fa1c042e72da4ad8de55a20c66f852a96a40de26d4522e89bdf6e77d418660010261b5d1565b6154a57f84296041346391b56842bae36df9b671b45eb524eaab184565542d7b914377a960010261b5d1565b6154d17f60e69f9a5dd02a5938cafb1e9882e0b3408f195223129d88d76bf05cf0c9484f60010261b5d1565b600073ffffffffffffffffffffffffffffffffffffffff168173ffffffffffffffffffffffffffffffffffffffff161415151561550d57600080fd5b6155397feba6f866472b379aff7ab6f5ee6c37dde5f2de5f1389ef90ad259b8a37d3e30c60010261b5d1565b6155657ff08abe3269ba40116cd3b8d372e08d57d1ff0622934b37fd86afaf2895d00d0f60010261b5d1565b6155917f768722a54a3015d9d677146738ff817be4474287bb29c98cba6b2250674b944960010261b5d1565b80600160006101000a81548173ffffffffffffffffffffffffffffffffffffffff021916908373ffffffffffffffffffffffffffffffffffffffff16021790555050565b60105481565b6156077fb69f109befabd82f0425a91e79f5bd4e799a7cec12ca055bf58bdf7fe88ad79360010261b5d1565b6156337f4843d20f00be7ad37e3c9c8682a846faa4ca3c0ea1f9dc4c391997309853de2460010261b5d1565b61565f7f20fc88088867130d183d94e5a9048dba311ceb5f1b9a4f5535adf564d8374b6d60010261b5d1565b61568b7fbd896113fdf13ab83be8d5359d5f98252bcf796eea8f5545bf18b2e15a72912760010261b5d1565b600260009054906101000a900473ffffffffffffffffffffffffffffffffffffffff1673ffffffffffffffffffffffffffffffffffffffff163373ffffffffffffffffffffffffffffffffffffffff16148061573357506000809054906101000a900473ffffffffffffffffffffffffffffffffffffffff1673ffffffffffffffffffffffffffffffffffffffff163373ffffffffffffffffffffffffffffffffffffffff16145b8061578b5750600160009054906101000a900473ffffffffffffffffffffffffffffffffffffffff1673ffffffffffffffffffffffffffffffffffffffff163373ffffffffffffffffffffffffffffffffffffffff16145b151561579657600080fd5b6157c27f60622880a82287035558e7b8916b20a1e316cee24d7ae16889a055eab3d5531660010261b5d1565b6157ee7fd0b955e469a12ebbfb62ad1da478a6acecacfd1ebcf54bf0dad13514548cd97960010261b5d1565b61581a7f88c7b7750111464c97655b2d1d9753b38c6f77aef0856ee80507f7099872697d60010261d389565b6158467febeefd441312018ec6deb6b0edaa454d5161fd9efa6ef40328812fadec8d0da360010261d389565b6158727f701900518f35ca476c958b90a5f2bede67febfc77eab1b093f6494b32b99cdf060010261d389565b61589e7f5382d0930765c0f082dd7aa6eb2b76fcd9f11b30924e1a951fd617237a8b304c60010261d389565b60036000600e811015156158ae57fe5b600891828204019190066004029054906101000a900463ffffffff1663ffffffff16811015156158dd57600080fd5b6159097f1a848bfce7342e2d2242b8a58161fe912c6dbbca8a7ce0047cb4eeee320ffb2860010261d389565b6159357f4060d5ff5377de6c4483c6917cbed376e4288dc779d82b477cd35ea98d2e268960010261d389565b6159617f31535343482e20ce8423fef900115f5c7475e7adb6f6c1d4f3efba6af014bbc860010261d389565b8060058190555050565b600260149054906101000a900460ff1681565b60008060008060008060008060008060006159bb7f8746cd79720eff492ac914bf3089ae97fafb72c2b4f9ff421f2ebf61326dd90660010261162c565b6159e77f09ba037a7f244a04a4c9fb19947ed9570be3a5af1ddfbbf510dc71a651b6948760010261162c565b615a137f0c18866bcb8e15b19d177a50ecc5bb48d13111d793c920ab3db0ba4004f60e4b60010261162c565b615a3f7f75fc3f2c85b694c6a90cd953ab8470dccb1755937a7123bfe328fab3c74b616460010261162c565b600073ffffffffffffffffffffffffffffffffffffffff16600760008e815260200190815260200160002060009054906101000a900473ffffffffffffffffffffffffffffffffffffffff1673ffffffffffffffffffffffffffffffffffffffff1614151515615aae57600080fd5b615ada7fc49e1a1dd2e77d871b0820108eb27e76dea3086296b80b0bd0fc928da5f9e84860010261162c565b615b067fe8b1b68cc0a651b19ab4ac053e8b3d3121c7ada41361c36eb21f9de88ff69b7b60010261162c565b615b327fda2dfa6dfa1f427673ad0d81105e940ee3fca79f5cff6a991d49d7222d9851bf60010261162c565b60068c815481101515615b4157fe5b90600052602060002090600202019050615b7d7f113401d6990d26b6408d1bf76e3aba25f47feb7ac6418357c166e21cccbb377b60010261162c565b615ba97f73a2cbed6b22123280987af0a74e6cbc8a549a3aa4f62587ae567e1a1778967a60010261162c565b60008160010160189054906101000a900463ffffffff1663ffffffff1614159a50615bf67fa4c0671c2b70fb131f549c50977997cf3f9f7121fe8f30a83c21b5757dd611cf60010261162c565b615c227f483dde5bf3084a0a37c271ca5b98be64a5ca1acc59392e0972b2ba2c5a58104e60010261162c565b438160010160089054906101000a900467ffffffffffffffff1667ffffffffffffffff1611159950615c767fa66cf0fd975e76423c0736bb8f2f962daff7b2a8aba28e8ccb7b67b5d279b53360010261162c565b615ca27fd3e58f98145437b536ba9fcbf9252d0fcddeec0c2fdb1662d42eeded5d26774960010261162c565b80600101601c9054906101000a900461ffff1661ffff169850615ce77f50000f730d8709d6581660010520730589192cef056773f90dbdc652ac2eece060010261162c565b615d137f18175ce1fb5bfbe6bfe1df2e07e66a56880db30324422c7e890b6197c6f89e8b60010261162c565b8060010160089054906101000a900467ffffffffffffffff1667ffffffffffffffff169750615d647f6fb38eeb93a05209b8d38ac799a3c57b6b9ee43ae66e78ecdcdb342f7babae6360010261162c565b615d907fa2764792cc44cfcd1b4569cbce363c258591f1c84ec98c555cd1774772df2a6760010261162c565b8060010160189054906101000a900463ffffffff1663ffffffff169650615dd97f1f7fe56770291eb7d6860d6064aae0689597baddc9860adccdeedb4871a1657f60010261162c565b615e057f6638073f85ad7772fcefaf2fe38ace6bcc68f193ed9cdf9f3cdc4fbf9c96d69060010261162c565b8060010160009054906101000a900467ffffffffffffffff1667ffffffffffffffff169550615e567f3f4f54e5eacd597c0bd217d312f2146b1a104f142fba2c5a78a711e5e332a46f60010261162c565b615e827f0f07edd11d1af87239efc81512541f0f7156cf474dcd0c520853a45e1acf979d60010261162c565b8060010160109054906101000a900463ffffffff1663ffffffff169450615ecb7fa14130310a33109d0f20dd733e4a88e4ea6aadd397e9b87a76e64cb2e93b7eb660010261162c565b615ef77f9979fd3e72ef0dcec3fb6d83848de0800c0bb8f669d0a4f295be425b2cc8e45760010261162c565b8060010160149054906101000a900463ffffffff1663ffffffff169350615f407ff88df1202cab5bb240667efbaa3764d50fcee0aa09037c6911498ceb4bf3907b60010261162c565b615f6c7f3bb66a6f0541759e4241e0fd2c78f88b75ab44b5cfa56fbdd74e7c9a35c4a4c760010261162c565b80600101601e9054906101000a900461ffff1661ffff169250615fb17f8b8a9a6e271f56a6443abb2382b49e2f793176ed04fe76c67672bbb925a36c6960010261162c565b615fdd7fd277c70bada7edfb03118a69ac8d929520988cf430497e8b06e5d0ec8cef377a60010261162c565b80600001549150509193959799509193959799565b6000806160217f8fd52fd78641e38122e8fc73f9e8e244fbf0946c60c224ebc36f4a6a1d78768e60010261b5d1565b61604d7fb7b8824a26ef773c4b46387538df963fa7355fa48a313d1c3e3ce6057a6b665c60010261b5d1565b6160797f3201b368a48c68b13f99af3bb4430bf684e22dcce5ef74c21252391b690c25bb60010261b5d1565b6160a57f4d0b4e9063f96c64a65f8be6e830577657e8e9afae8782cfcf0865c4c6cae08760010261b5d1565b600160009054906101000a900473ffffffffffffffffffffffffffffffffffffffff1673ffffffffffffffffffffffffffffffffffffffff163373ffffffffffffffffffffffffffffffffffffffff1614151561610157600080fd5b61612d7f794297c8aea444a1ddeae83bdd9831fb64fb8a1f35f6db92598c9c94e1acf34b60010261b5d1565b6161597f4093d4a5dafe2d707ff06c8e84099cd507d33621bb1fc860c0973225240d2f8260010261b5d1565b6161857f5593919c666c990d118a8f33a59d08c3724887c6c9c2ade60717f1cd9b193f9d60010261162c565b6161b17f3d3de9640cdc7c3fb89f61f0df20ccf092a6e56325126e4319ed886a421e611d60010261162c565b6161dd7f29c2817deeb2310090abc4b829cdc5bb123735b3e01f671db9d06329f7ad934160010261162c565b3073ffffffffffffffffffffffffffffffffffffffff163191506162237f8c3961089ab5c3c805b4eb684c1f2db4e9c01f04f6d532904559283d9a65938460010261162c565b61624f7f820691cbfa4d52ea790a41e809e36231c32f98108cd2593370c487df79396f2c60010261162c565b600f546001601054010290506162877f3c012f508137f8b8d29144997876a788025e629432d877e4df2f254ae9184e1960010261162c565b6162b37f65adb285423ae2fa41d7d7e0eeda2d84be8b4e4715d11e94356e07e62b5e525a60010261162c565b8082111561639e576162e77fc8b67c735ba8431a1a15ce520dfa03d6a0aa8c5de20e97fe38fda301347a439760010261162c565b6163137f2e6d06778936112a82069e7e0a4a5ad17aba10969c73c90b75ac57850e9d2e7960010261162c565b61633f7fa09f1c5046cc58fa0b0c61558306a729d91a995466ed66d47632e4c57adabdc760010261162c565b600160009054906101000a900473ffffffffffffffffffffffffffffffffffffffff1673ffffffffffffffffffffffffffffffffffffffff166108fc8284039081150290604051600060405180830381858888f19350505050506163cb565b6163ca7fd757012a6687b0cd26e9398607cfb405a0505ca89e0b8bb3667a3eaf7cb00b7460010261162c565b5b5050565b600b60009054906101000a900463ffffffff1681565b60006164137f65f3e3971086e7113aafac0fe25d7b331cb31e081db98f3fdc3dab253dbbeb1860010261b5d4565b61643f7f6d8593dae41f920f4e43eeb5bdb0ea4efaa08d36b7e3564ef0822d49b18caf0860010261b5d4565b61646b7f64721f51e1b2c3351da86d3509c4d78cfd6a6b384b6405fd5af920fada20c2e460010261b5d4565b6007600083815260200190815260200160002060009054906101000a900473ffffffffffffffffffffffffffffffffffffffff1690506164cd7f1aa33614ceb35d808f0e53d1f84c91e70a8e553d785151d1025e47a2240b402a60010261b5d4565b6164f97f10260275a33d6a3604b595864cc279d9fe371bfb6d8ff927477d8da7f1344bef60010261b5d4565b6165257f0e1f3e0b20d56ac5c4b367c90a9d102c41abde6902d7da7a0d993c5387bd5d4b60010261b5d4565b600073ffffffffffffffffffffffffffffffffffffffff168173ffffffffffffffffffffffffffffffffffffffff161415151561656157600080fd5b61658d7f1d8b0b6c3fd0db8847926baf6a65398d7c1cedb7305b0e9b79182ffdae9d0a4960010261b5d4565b919050565b61afc881565b601460009054906101000a900473ffffffffffffffffffffffffffffffffffffffff1681565b60006165ec7fcb049ed2f483be6c0944c2c03cebba45371d8e0ef11e4518263bd2fbbda7f59360010261b5d1565b6166187f5dbffe83b36d40e7d651f2d3531e4a4824b9dc6ccb6586f84d10976bd60ae08d60010261b5d1565b6166447f31f8d3048db660f92f7d2b610b6a9c7cae1f6a13dda0027f8885b1f585ba628360010261b5d1565b6166707fa2a47da5016dac4687136caeff8e35d8d21ddaedc8808cd08f29ccfc21bfac7360010261b5d1565b6000809054906101000a900473ffffffffffffffffffffffffffffffffffffffff1673ffffffffffffffffffffffffffffffffffffffff163373ffffffffffffffffffffffffffffffffffffffff161415156166cb57600080fd5b6166f77f75897d7cfe76dbf024f81b5ad6072a4019a8f8439308212c47ad1e9256df43c060010261b5d1565b6167237f3ffe5ec58b9e7787ceecb0adf9d00ef109fb30448b7229696966b751a6dac16160010261b5d1565b61674f7f453cfd4397a1bcd64a09704dc64bff39070dfe8564bc10afde744f0a02bbb87760010261bad7565b61677b7fdcccc2fea408c2c07389d59068f90ce002d6987367789e38dbd53fd4b139432660010261bad7565b6167a77f6f6df50aceab86ace9ac41ef128b1f606abee387aa0ea4c73348fe144e606bfc60010261bad7565b8190506167d67f7744193221fae2537216a1e571bf761db4307ed4d8f3bc5bc40d3e971c2470b660010261bad7565b6168027f2833e2a295b726b60b361e7f38b5b32c2bb82763f6508c8f874dadd94b6f42ac60010261bad7565b61682e7fcc5740ee4df1b4a503ff4e009745de8f7b19fe255f90999464437276660af7b760010261bad7565b8073ffffffffffffffffffffffffffffffffffffffff166385b861886040518163ffffffff167c0100000000000000000000000000000000000000000000000000000000028152600401602060405180830381600087803b15801561689257600080fd5b505af11580156168a6573d6000803e3d6000fd5b505050506040513d60208110156168bc57600080fd5b810190808051906020019092919050505015156168d857600080fd5b6169047f4e9d08666a50967aa261b260bd342f9755759fe9c21a440ff39fc595fa5ff60e60010261bad7565b6169307f3108178d8240c244a1f7632d0f802818f4fe6f73d87c3ada50801abec6275ad960010261bad7565b61695c7f8490b57e374459c8d931c0f390f87a58664b80f54283b9855236967b824ff4f660010261bad7565b80600b60046101000a81548173ffffffffffffffffffffffffffffffffffffffff021916908373ffffffffffffffffffffffffffffffffffffffff1602179055505050565b60006169cf7ffba4c8b234081f1dac643609a6c690fb7c2e0cd39e54e800fab602b4a7bea01a60010261b5d4565b6169fb7fc203d14bcaf4e0b570df4f0a21cea54fe09f230ce67f5f4ab62ef3e117a9802e60010261b5d4565b616a277f70d90460a734cafa119b6859230d44d2cdb7d865ab9b38734cb14a5b6f4dc6c560010261b5d4565b600860008373ffffffffffffffffffffffffffffffffffffffff1673ffffffffffffffffffffffffffffffffffffffff168152602001908152602001600020549050919050565b616a9a7fcb049ed2f483be6c0944c2c03cebba45371d8e0ef11e4518263bd2fbbda7f59360010261b5d1565b616ac67f5dbffe83b36d40e7d651f2d3531e4a4824b9dc6ccb6586f84d10976bd60ae08d60010261b5d1565b616af27f31f8d3048db660f92f7d2b610b6a9c7cae1f6a13dda0027f8885b1f585ba628360010261b5d1565b616b1e7fa2a47da5016dac4687136caeff8e35d8d21ddaedc8808cd08f29ccfc21bfac7360010261b5d1565b6000809054906101000a900473ffffffffffffffffffffffffffffffffffffffff1673ffffffffffffffffffffffffffffffffffffffff163373ffffffffffffffffffffffffffffffffffffffff16141515616b7957600080fd5b616ba57f75897d7cfe76dbf024f81b5ad6072a4019a8f8439308212c47ad1e9256df43c060010261b5d1565b616bd17f3ffe5ec58b9e7787ceecb0adf9d00ef109fb30448b7229696966b751a6dac16160010261b5d1565b616bfd7fee02b3c60f7bfcd131c9c4bfd3f91b2a91a6ce97b6a6d430726632917760560160010261b5d1565b616c297f43afdfb745d28db79002d8d11f06a461d1a6196edc9d887c659754e88a29b92260010261b5d1565b616c557f8ec630ab56ff4ad877f695df339f06d409f6c7ddf449da0d8db84c833f37f76360010261b5d1565b616c817f6f467694727c3dc109758fd72c4058843bacb5cdcee39f9ace95414345acf38a60010261b5d1565b600260149054906101000a900460ff161515616c9c57600080fd5b616cc87f39fe575960af02d10117b59a53d57d89b0bf68648612a8334474037b391b7fb360010261b5d1565b616cf47ff23eb7d426163ac3eb04e8e07e1cb74434c2877a79d57f6cff7670864e0f184160010261b5d1565b616d207fdc691e2b7c2e34e999da3c7acd8407c088af257db1459d41cd6a0621c51da37560010261162c565b616d4c7f7074daf97e2e2696a8ee20fa7857fa595a68e6cc353a93498b26660951c6a37160010261162c565b616d787f769eb555fdc9fac09d4f0d240b6170c0c4219f0a258c7ef2fd7dd042e792615660010261162c565b80601460006101000a81548173ffffffffffffffffffffffffffffffffffffffff021916908373ffffffffffffffffffffffffffffffffffffffff160217905550616de57f99b47e08ed7f636b1c7af1bd594c53df525c3d8427253e8822321cca1dae424260010261162c565b616e117f2a204946e35496ad129d148e0a1ac42776c354c15853d255bfc45b6e1a2019c760010261162c565b7f450db8da6efbe9c22f2347f7c2021231df1fc58d3ae9a2fa75d39fa44619930581604051808273ffffffffffffffffffffffffffffffffffffffff1673ffffffffffffffffffffffffffffffffffffffff16815260200191505060405180910390a150565b60055481565b616ea97fb69f109befabd82f0425a91e79f5bd4e799a7cec12ca055bf58bdf7fe88ad79360010261b5d1565b616ed57f4843d20f00be7ad37e3c9c8682a846faa4ca3c0ea1f9dc4c391997309853de2460010261b5d1565b616f017f20fc88088867130d183d94e5a9048dba311ceb5f1b9a4f5535adf564d8374b6d60010261b5d1565b616f2d7fbd896113fdf13ab83be8d5359d5f98252bcf796eea8f5545bf18b2e15a72912760010261b5d1565b600260009054906101000a900473ffffffffffffffffffffffffffffffffffffffff1673ffffffffffffffffffffffffffffffffffffffff163373ffffffffffffffffffffffffffffffffffffffff161480616fd557506000809054906101000a900473ffffffffffffffffffffffffffffffffffffffff1673ffffffffffffffffffffffffffffffffffffffff163373ffffffffffffffffffffffffffffffffffffffff16145b8061702d5750600160009054906101000a900473ffffffffffffffffffffffffffffffffffffffff1673ffffffffffffffffffffffffffffffffffffffff163373ffffffffffffffffffffffffffffffffffffffff16145b151561703857600080fd5b6170647f60622880a82287035558e7b8916b20a1e316cee24d7ae16889a055eab3d5531660010261b5d1565b6170907fd0b955e469a12ebbfb62ad1da478a6acecacfd1ebcf54bf0dad13514548cd97960010261b5d1565b6170bc7fcb2648b67b0de279cb753577ec77c6b2ea08d23aa34ef2f48c5aab3c2f7b331360010261b5d1565b6170e87f6f460441e04e9f2fab210055dfdc65babe4e31ac3fe89dcb41c84c7fb037599160010261b5d1565b6171147f3dde09caefb3a1f40ad03cded37744ff16ee712b622d5384bd28cad309760ae760010261b5d1565b6171407f7808d25d5414a096b7d4484dd157a0f0c9b5f6c11dae49f7d70fd4cb3bbde23260010261b5d1565b600260149054906101000a900460ff1615151561715c57600080fd5b6171887f8b5d68b72118d3191a023266c39777d9f072660abc89f2761d9e6c792bd310c360010261b5d1565b6171b37ead53c480053279c157a04c0652ee4064d1c599d726b53bdfe5e51538b4069160010261b5d1565b6171df7fa07ca5d175b133ae832f77419d6f3b779170753f00463e0943a8af7cc681008860010261b5d1565b61720b7fc42a084f1bec46c22a34c451ca67a9000bb683163b10d858e18d49d6ce637f7360010261b5d1565b6172377f0daab85665d9b4c8a0072fc446e1de6088d904d0dff31d5507110d249b2b78ec60010261b5d1565b6001600260146101000a81548160ff021916908315150217905550565b606060006060600080600061728b7f85403ca33e6ae1084125eea223e7714972c95c56d4bac8c9b783ed90a5823bab60010261b5d4565b6172b77f995ad2f52e080a189e341d7f61a048021b2251ae7c55924ecb8862384ac6bcf460010261b5d4565b6172e37f5ce17e7e421b1b1f9dc34dc9122228c7d2f46e07e3923454f87061ddae82935a60010261b5d4565b6172ec876169a1565b945061731a7f4213deeeac2a27dc3a18f4704ab5cba0731cd62d3ed69e19db31bbef30533aea60010261b5d4565b6173467fd8c0918d861d1061d371ac732c64742928072cd724247dafc9fa45571394d95760010261b5d4565b600085141561740b5761737b7fdcd440357ee92730a486a5aa4c98c4a4e06306f5a88030715cfbb68fb9ee2b8960010261b5d4565b6173a77f7f9374adc619e0d3aec5b0807093becb689f1066056e62396ff056c6b81d397960010261b5d4565b6173d37fc245da1c6040c31ef04938f540900d13140b53f87cc92d2b8e8bb87c07bc4b9660010261b5d4565b60006040519080825280602002602001820160405280156174035781602001602082028038833980820191505090505b50955061786d565b6174377f89b7d1e509fcbfd9c032edf18b2aa75fe6dd2cbc86d3fc16271c602d7fea5f9460010261b5d4565b6174637ff1a1e47922e989a32a7b0e1905deafdc98a97b394bba5fe3323e1e37713dbafb60010261b5d4565b61748f7f4b32ca9643e948e38283767dfc16a66e1fa4a7d52db244c3509fd08daa9be32d60010261b5d4565b846040519080825280602002602001820160405280156174be5781602001602082028038833980820191505090505b5093506174ed7fae156cb462fbd12d2b4648237beab9d7fa57982aa2f204dcedb96072a3ad432c60010261b5d4565b6175197f06186de1dab891c12214084e4f57e199cc7c3230a26cbea0d40086c259045cec60010261b5d4565b60016006805490500392506175507f55b21a1324d0155a233f6eb28501ca103f1c34a4dfaf8d7cccca6dd934cad81a60010261b5d4565b61757c7f3d668d82d4b06a0287652d6b06f98bbb6bbdbf5350eec5c4b99f47a686edb18960010261b5d4565b600091506175ac7ff80e87458dcc23a56ad58db43252b69b8f915a1cabf16b0bd7758b5e3a34245060010261b5d4565b6175d87f5f41767b691952995b64698feff988fe1244a65b39c33ca8a84e62d2db453cfb60010261b5d4565b6176047fb5fb03ce95f314fbf5a90641c49aa33d302f3407e975d590cbbe4c1bccbce26d60010261b5d4565b6176307fc3152ec1bf5cb32910a65195c40ea056dd970468b9927819592fa4eccb3d6dd760010261b5d4565b600090505b82811115156178115761766a7f06d82fbd005cdc9e712420380a8946347e5b0b026fb8a7f0875e37998d479ae260010261b5d4565b6176967f8fd97192a01a7d5eb812b4b3968b5926f4e5222cd08bd4053a94706b0e5da06060010261b5d4565b8673ffffffffffffffffffffffffffffffffffffffff166007600083815260200190815260200160002060009054906101000a900473ffffffffffffffffffffffffffffffffffffffff1673ffffffffffffffffffffffffffffffffffffffff1614156177d7576177297fd9c35dd820dcfe2a39fe9232675e2635c512d183a44875a4cb573dda7892483660010261b5d4565b6177557f6d25656f80db914f40168aad8764e7e6256839231356332e50e338bba43c9b7760010261b5d4565b6177817fc45eeef7391c294f4c6187bc54526d144b1205709985c643b43b3c091361b80a60010261b5d4565b80848381518110151561779057fe5b90602001906020020181815250506177ca7f0b81d12d1f89d58e00bf2f6685e5de09c3c10fd872185337f3bdbe1fd760c30e60010261b5d4565b8180600101925050617804565b6178037fe66a41e9306ed9c735d6d7508f6e1fd1b1c7aa459a0ce1425d2d3498dd1ab5d460010261b5d4565b5b8080600101915050617635565b61783d7f513f7c5030f70a1c6ba15a7bd6bbe607dd8435962af3328797f6112e0571674660010261b5d4565b6178697fe9a6b14beba3e36146c653cfcac64063e23f711016ed3a38a03b64aa723d483360010261b5d4565b8395505b5050505050919050565b6000806000806000806000806178af7fcb2648b67b0de279cb753577ec77c6b2ea08d23aa34ef2f48c5aab3c2f7b331360010261b5d1565b6178db7f6f460441e04e9f2fab210055dfdc65babe4e31ac3fe89dcb41c84c7fb037599160010261b5d1565b6179077f3dde09caefb3a1f40ad03cded37744ff16ee712b622d5384bd28cad309760ae760010261b5d1565b6179337f7808d25d5414a096b7d4484dd157a0f0c9b5f6c11dae49f7d70fd4cb3bbde23260010261b5d1565b600260149054906101000a900460ff1615151561794f57600080fd5b61797b7f8b5d68b72118d3191a023266c39777d9f072660abc89f2761d9e6c792bd310c360010261b5d1565b6179a67ead53c480053279c157a04c0652ee4064d1c599d726b53bdfe5e51538b4069160010261b5d1565b6179d27fea9e3a7ec49099d83788c3bb13da6dbea9a4e8d866aca2b0f29c718085d62efd60010261badd565b6179fe7f0cf6e682769bf3e465f64fe4cb94ebbe057583049490b8ecfa579ad9563ecf5f60010261badd565b617a2a7faf4c822e1d535c7dba0ddc75abc0ad99c9ac583e532316b9b5553d148660476b60010261badd565b600689815481101515617a3957fe5b90600052602060002090600202019650617a757f89dcfce4e1552a57acbc4256787fbbf784b55062d0ac10446a166996fe22c5fd60010261badd565b617aa17f0fa1749dc05f769e57ab9bfb2a414d9dfe2e0111c78e3e18c6beef53184ff67960010261badd565b617acd7f909043c95a09faef1af355cd7880e9cafe0dd2a2d83be44b58fc62bd8404c7c760010261badd565b60008760010160009054906101000a900467ffffffffffffffff1667ffffffffffffffff1614151515617aff57600080fd5b617b2b7f982d65282ac6816dff3e789821857cde920a327d488f98744df2cb3595abfdaf60010261badd565b617b577fca412ad918726b699deee2b4198efa237b67aa220c9e82ab51d972397e82a27260010261badd565b617b837f9183d605abefdea42e64a84316879f4bae7dbcf186a50f531c8fcd1f6624895d60010261badd565b617baf7fbc1ae63a2b231f755f8a97ede81550a9d2b2944807f28fb96e913b05fb73859960010261badd565b617ce5876101006040519081016040529081600082015481526020016001820160009054906101000a900467ffffffffffffffff1667ffffffffffffffff1667ffffffffffffffff1681526020016001820160089054906101000a900467ffffffffffffffff1667ffffffffffffffff1667ffffffffffffffff1681526020016001820160109054906101000a900463ffffffff1663ffffffff1663ffffffff1681526020016001820160149054906101000a900463ffffffff1663ffffffff1663ffffffff1681526020016001820160189054906101000a900463ffffffff1663ffffffff1663ffffffff16815260200160018201601c9054906101000a900461ffff1661ffff1661ffff16815260200160018201601e9054906101000a900461ffff1661ffff1661ffff168152505061d38c565b1515617cf057600080fd5b617d1c7ffb4ac45f7c0d3fada199ce3727453419e019ed373019ed4386302f1d4c81eb3260010261badd565b617d487f650d3f224fff25c8167ffad76671b17560d109d62bdc37108cceab370f80817560010261badd565b617d747f9bd1a7b990e8218bf0c605877072f942d2d880eb06bb7fd9d9a6f50ac315770c60010261badd565b8660010160189054906101000a900463ffffffff1663ffffffff169550617dbd7ff6e0f31d945f2b2374c790df87c6176b53988498c86a73a4a40579f14be3a8c560010261badd565b617de97f7b40f11b8ce027069a34f3edb051c7d4c93935c0d91382a468d269226817b16b60010261badd565b600686815481101515617df857fe5b90600052602060002090600202019450617e347f0176e67b7172b9a03f7c4ed3c266aa3a06d950910ca0188781a9ae688ba5014660010261badd565b617e607f3bf9579eeafb6900aadbd0298e2cc351c05908b27cf3c52ad3e6b50131a815ce60010261badd565b86600101601e9054906101000a900461ffff169350617ea17f1b32e25d59cc8e909749da2a177a62312c825b492495d66bfd194db3eed0624460010261badd565b617ecd7fdeb9743d1a016e809caa6f249c15996a8292e1ef08700f6de166e5b91648dad560010261badd565b86600101601e9054906101000a900461ffff1661ffff1685600101601e9054906101000a900461ffff1661ffff161115617f9f57617f2d7fa3ff7e177ebb7845590852d70bce210406b027facd078c20642979e7f5ac312c60010261badd565b617f597f61814a2127e7b3f353ca165a6aaef3e6e479c9d5c48cc662cd22d61da552140960010261badd565b617f857fc44940c0bff142da5c3937528047b7a3f4c0e1c23641458cd00067423edc306760010261badd565b84600101601e9054906101000a900461ffff169350617fcc565b617fcb7f1af77dd4fb60ea67be156e22f5787383f4a0d7b579d758400b5a7f2b14ce538860010261badd565b5b617ff87fb338ee5106efad800092c5a905ca48282700869244ef773ccf0f267328c0376f60010261badd565b6180247fe5b732ca94b6aec69fbc5b7869c8c09f50445df3ed80312830728f6f083de14860010261badd565b601160009054906101000a900473ffffffffffffffffffffffffffffffffffffffff1673ffffffffffffffffffffffffffffffffffffffff16630d9f5aed8860000154876000015460018b60010160089054906101000a900467ffffffffffffffff16036040518463ffffffff167c0100000000000000000000000000000000000000000000000000000000028152600401808481526020018381526020018267ffffffffffffffff1681526020019350505050602060405180830381600087803b1580156180f257600080fd5b505af1158015618106573d6000803e3d6000fd5b505050506040513d602081101561811c57600080fd5b8101908080519060200190929190505050925061815b7f78596b267df668052330e530fb5911838c6477a6c63e0450a11fe23025e3073060010261badd565b6181877f39c72387352a8ad2946cbe6ba3059ae96bedd2c0f5bbf94cb33f2b6756d5542460010261badd565b600760008a815260200190815260200160002060009054906101000a900473ffffffffffffffffffffffffffffffffffffffff1691506181e97f0a55d10b21c64ba1a66acc0e9e635a67e8aaf2e963aaa7c117d6298138fb626160010261badd565b6182157f544ec09279dd1c1994ec8de4979dd6ffbfe90b45300d71399f5885615583990f60010261badd565b618243898860010160189054906101000a900463ffffffff1663ffffffff166001870161ffff16868661d44c565b90506182717fa733f0928c8804eb8c03e2b3fe5384bbe5251ad76d73180771e880b8a242b05f60010261badd565b8660010160186101000a81549063ffffffff02191690556182b47f30a9967d8fd7da19a81e62edfc1870b15756ac237ccfaaf2cc28035aec0bee8f60010261badd565b601060008154809291906001900391905055506182f37faf0ceb641320225a5b3a4a46ee9550d44c94cff021c39152996bd524869c23e360010261badd565b61831f7f9de7eaa159cf71e9c4be13d8069868fe88b22b1dde725575c85e8cf9ef13848e60010261badd565b3373ffffffffffffffffffffffffffffffffffffffff166108fc600f549081150290604051600060405180830381858888f19350505050506183837f88028807a863f5d5735f64d31703eaf848adea15343d2d3e1234853739981fb960010261badd565b6183af7fe280a15d3a4f5a3ca347382cc8ef5b13f5372d78f1a54c18b0d6b86e3ca5294660010261badd565b80975050505050505050919050565b60006183ec7f34ba93981658c3daa5f666bbb9fe4c2050f8795f520af64c257be31ef93f4a7e60010261bada565b6184187f6e13615425708a7761bd047818bc837ac9fb4bd1e59bf3fa4452e4cbd770a56060010261bada565b6184447f1dc2ce0d010e73d168ffe98a84a9bc524a16f273016615775624f5da12869a7e60010261bada565b6184707f7988d104597cafdb112f343393a63efde85108a1f51c7a8effe784254afa55de60010261bada565b60011515600d60003373ffffffffffffffffffffffffffffffffffffffff1673ffffffffffffffffffffffffffffffffffffffff16815260200190815260200160002060009054906101000a900460ff1615151415156184cf57600080fd5b6184fb7f74c308184e27580c17a1d0b6ff599bb36cc06cea53ef2b0b67c3f3d83101591560010261bada565b6185277ff94d3c11b156185524dc880705acc4e207d4e6c8ac4a3c0d0c44c9bda584852660010261bada565b6185537ff50e21c65a09e47887f3e66fc375b960d6cdee977357cd8f05b332b86389e0de60010261bada565b61857f7f06fe3d109c5f8f7118a26976524468fc10948d9e12c159cbab4bdf5c5411416860010261bada565b6185ab7ff2819c7e9c887c84687b31a37f976a82fefcc299c4d27256e4e80e14d00b383f60010261bada565b600e600083815260200190815260200160002060009054906101000a900461ffff169050919050565b6186007fb69f109befabd82f0425a91e79f5bd4e799a7cec12ca055bf58bdf7fe88ad79360010261b5d1565b61862c7f4843d20f00be7ad37e3c9c8682a846faa4ca3c0ea1f9dc4c391997309853de2460010261b5d1565b6186587f20fc88088867130d183d94e5a9048dba311ceb5f1b9a4f5535adf564d8374b6d60010261b5d1565b6186847fbd896113fdf13ab83be8d5359d5f98252bcf796eea8f5545bf18b2e15a72912760010261b5d1565b600260009054906101000a900473ffffffffffffffffffffffffffffffffffffffff1673ffffffffffffffffffffffffffffffffffffffff163373ffffffffffffffffffffffffffffffffffffffff16148061872c57506000809054906101000a900473ffffffffffffffffffffffffffffffffffffffff1673ffffffffffffffffffffffffffffffffffffffff163373ffffffffffffffffffffffffffffffffffffffff16145b806187845750600160009054906101000a900473ffffffffffffffffffffffffffffffffffffffff1673ffffffffffffffffffffffffffffffffffffffff163373ffffffffffffffffffffffffffffffffffffffff16145b151561878f57600080fd5b6187bb7f60622880a82287035558e7b8916b20a1e316cee24d7ae16889a055eab3d5531660010261b5d1565b6187e77fd0b955e469a12ebbfb62ad1da478a6acecacfd1ebcf54bf0dad13514548cd97960010261b5d1565b6188137f261bd01936aaabd10d4ad44dcd4f1b3cc5dd0cc3f1ca94191799d58faf22c0ea60010261bad7565b61883f7f21ff1c89aabee88edd3509034a5cb6f0ac40c48df77f8097a70896b0bf286ecd60010261bad7565b61886b7f01a049f1e09e465443d0d7f0a18a9cbcb5022e967302730e928fb1bbaffa4dde60010261bad7565b600b60049054906101000a900473ffffffffffffffffffffffffffffffffffffffff1673ffffffffffffffffffffffffffffffffffffffff16635fd8c7106040518163ffffffff167c0100000000000000000000000000000000000000000000000000000000028152600401600060405180830381600087803b1580156188f157600080fd5b505af1158015618905573d6000803e3d6000fd5b505050506189357f17a72e219d8d99aa347f037f24a8fa010ec4735434e635dd0df696046b25ebf560010261bad7565b6189617fe56e02945219776b23384c8f6785bab4b4e059405aabfad962077eaf3952d2ee60010261bad7565b600c60009054906101000a900473ffffffffffffffffffffffffffffffffffffffff1673ffffffffffffffffffffffffffffffffffffffff16635fd8c7106040518163ffffffff167c0100000000000000000000000000000000000000000000000000000000028152600401600060405180830381600087803b1580156189e757600080fd5b505af11580156189fb573d6000803e3d6000fd5b50505050565b6040805190810160405280600381526020017f434254000000000000000000000000000000000000000000000000000000000081525081565b600381600e81101515618a4957fe5b60089182820401919006600402915054906101000a900463ffffffff1681565b60096020528060005260406000206000915054906101000a900473ffffffffffffffffffffffffffffffffffffffff1681565b618ac87fcb2648b67b0de279cb753577ec77c6b2ea08d23aa34ef2f48c5aab3c2f7b331360010261b5d1565b618af47f6f460441e04e9f2fab210055dfdc65babe4e31ac3fe89dcb41c84c7fb037599160010261b5d1565b618b207f3dde09caefb3a1f40ad03cded37744ff16ee712b622d5384bd28cad309760ae760010261b5d1565b618b4c7f7808d25d5414a096b7d4484dd157a0f0c9b5f6c11dae49f7d70fd4cb3bbde23260010261b5d1565b600260149054906101000a900460ff16151515618b6857600080fd5b618b947f8b5d68b72118d3191a023266c39777d9f072660abc89f2761d9e6c792bd310c360010261b5d1565b618bbf7ead53c480053279c157a04c0652ee4064d1c599d726b53bdfe5e51538b4069160010261b5d1565b618beb7fe0ecb0f864571a52b4bfa4f15de4c8c89a96e9a45ec9173265726fc21312d2c560010261b5d4565b618c177ff1613e5f59292d1591ccbf842ef2773831dd1527e2499a0aed38b1b9e8dd933d60010261b5d4565b618c437fd646c7d8fced1c4fac1e5aef3b56415c585d036943ececb9665d6c6aefd4633f60010261b5d4565b618c6f7f17e4788fa77d4ad90be92b97619960271cc10dad4d6b3f2fceb243fd1395588460010261b5d4565b600073ffffffffffffffffffffffffffffffffffffffff168273ffffffffffffffffffffffffffffffffffffffff1614151515618cab57600080fd5b618cd77faec032eddc8f10ea1fdfb305125ee98ba6c06ab1c36056e6abf9680163df364960010261b5d4565b618d037f42c3d5660da8680635c4dad6fbf08d3caa6df9b2ee62826a1a53bcd5ac0c3d6660010261b5d4565b618d2f7ff617c651e9159cc4b7c4ed93b8784da3dec165d2552e70134f5c768daab0fbdb60010261b5d4565b618d5b7fe6db742eeb07738ad50d9d45566b09ca1c898b6c03b8c0a081dca8561370a01b60010261b5d4565b3073ffffffffffffffffffffffffffffffffffffffff168273ffffffffffffffffffffffffffffffffffffffff1614151515618d9657600080fd5b618dc27fa232811a342ce77a8ca225ac21837f76147e7743cac48a68b065b0fea27532e860010261b5d4565b618dee7fa5182b16f8be05730260ae4bf0c89d7dd1beeb4b0e892042d7adf5065bb0033560010261b5d4565b618e1a7f6dc57232c2bc288e9aea3b508bca7aaeecf80e34bd18cabb22e55c8c65bad47c60010261b5d4565b618e467f979f118d5524a4a2e79d15ac12e5fe069689fe56e9c2b0b9fcff6c20e9007e7660010261b5d4565b600b60049054906101000a900473ffffffffffffffffffffffffffffffffffffffff1673ffffffffffffffffffffffffffffffffffffffff168273ffffffffffffffffffffffffffffffffffffffff1614151515618ea357600080fd5b618ecf7f77486c92ff22ff62f123d153e71268f095968f760cd220cd3767f71ff80e123060010261b5d4565b618efb7f475f9928f68ff9ef4bc9e289d65bc6da89758850a4ba8811dcaab8f0d462db5060010261b5d4565b618f277fb38b17e33c30b567bf73914ea0b91e409fddfb5f55c5c0ef85237941f7540ecd60010261b5d4565b618f537f15045976ff9f29bcdaf169c5694b56cd6d7f56628705001e149ae2dd16dc2e9b60010261b5d4565b600c60009054906101000a900473ffffffffffffffffffffffffffffffffffffffff1673ffffffffffffffffffffffffffffffffffffffff168273ffffffffffffffffffffffffffffffffffffffff1614151515618fb057600080fd5b618fdc7fd7e06477747fea29f8a331b42f453088d490dda53e8ddd171ef630699cde12f560010261b5d4565b6190087fed5d0ad680ed04c695201f0cd9b789a59258aec9015e67443f7e8051d1a770b160010261b5d4565b6190347f198814bdf20706d6673c429ecb9c6f960ad511fe654f59555e681f500c2a61ba60010261b5d4565b6190607fa11784c508a35f6b44f0ddd608e7308f5f3e4e98bef5001152c7929de286715360010261b5d4565b61906a338261b5d7565b151561907557600080fd5b6190a17fe96c325dfc2b738afae8ce243f8c5407ad0716041672dd41f4b16295d426fd4160010261b5d4565b6190cd7f912fc0d035716ae883c16f267365849cc0083f33c9f9fc50908c14f94389d7f060010261b5d4565b6190f97f325f1856d23d5f2ce56d044d7292926b2d2ea2d8c0dd2485b8aeb7e17e9a6cf760010261b5d4565b6191257f35ae2f4622ff7ecee4eeed64791a0518562de358c27cf6e9b1b69ae8a3302db660010261b5d4565b60006002600e600084815260200190815260200160002060009054906101000a900461ffff161661ffff1614151561915c57600080fd5b6191887fc01c3ebc17e799a2cf378e92091f013b0288249d227f37dbd9bf2deadecbe57e60010261b5d4565b6191b47ff2928bb13810bf04b8e1bb88682335286c7ca67f4a62bfd570b352632c5d7c5c60010261b5d4565b6191e07f9e3829d0dbd48fac3be877d3d0c5a54c3a1471245d0832acc7fdc263b8d8700c60010261b5d4565b6191eb33838361bbd0565b5050565b600260009054906101000a900473ffffffffffffffffffffffffffffffffffffffff1681565b600f5481565b6192477f34ba93981658c3daa5f666bbb9fe4c2050f8795f520af64c257be31ef93f4a7e60010261bada565b6192737f6e13615425708a7761bd047818bc837ac9fb4bd1e59bf3fa4452e4cbd770a56060010261bada565b61929f7f1dc2ce0d010e73d168ffe98a84a9bc524a16f273016615775624f5da12869a7e60010261bada565b6192cb7f7988d104597cafdb112f343393a63efde85108a1f51c7a8effe784254afa55de60010261bada565b60011515600d60003373ffffffffffffffffffffffffffffffffffffffff1673ffffffffffffffffffffffffffffffffffffffff16815260200190815260200160002060009054906101000a900460ff16151514151561932a57600080fd5b6193567f74c308184e27580c17a1d0b6ff599bb36cc06cea53ef2b0b67c3f3d83101591560010261bada565b6193827ff94d3c11b156185524dc880705acc4e207d4e6c8ac4a3c0d0c44c9bda584852660010261bada565b6193ae7f67cba99f09910c9c85ba4df093127c921a442884d0040f31f41bc6b40b380f2160010261bada565b6193da7fc68a105e427ae89d1f42312c81697992ee0b0a40aa78c683c0d958fa98d5d6db60010261bada565b6194067facea46e834496401e5b20be70253fbca1859b9ea103bfae51d46ffb1f70685a260010261bada565b619410828261dd62565b5050565b60006194427f4b3f31363c06554026c3495535211789942e41625a57b086267e5064f5934af660010261b5d1565b61946e7f01fb50a86f8e94902dc9382992dbfa33e19a7eaa3e581679951cbdf2dd876a0a60010261b5d1565b61949a7f5090bdc7b81fb4fb806ffb8a324e9482ba5cf27db77d6fd8a28579d8a407f1e260010261b5d1565b6194c67f5a2a24182e30eaa462e023aeb84148b625327a032588bd13d612098c0762752960010261b5d1565b600260009054906101000a900473ffffffffffffffffffffffffffffffffffffffff1673ffffffffffffffffffffffffffffffffffffffff163373ffffffffffffffffffffffffffffffffffffffff1614151561952257600080fd5b61954e7f68e3652403790d00667b2e33f3cafbd6f6fa0dcc355662d23e6436c566afbc2b60010261b5d1565b61957a7f23b3e2c03a5d93b1565e0b8a6688e0afc1cb86813470da360be15ebc6130290360010261b5d1565b6195a67f0416581aeec62802776aa843e8ea46196aa9c035af028faaa54701183b86a2a960010261e6a3565b6195d27fb30a2b2b8e5c051e3d0272f59a8fc5dd88e3399d0f0311db19b317cd06ec022860010261e6a3565b6195fe7f64a70e4e6928c3aa14269b0ad2813723ab9e4a5ab7f7eb6bfe76b708894467c060010261e6a3565b81905061962d7f887bf88cd2ac83967854eadc726bd3af27318143d36aa7087d823236881036fa60010261e6a3565b6196597f127836e1e2b36fc23ede03eea0376144ed7cbbaea8b91a3cfa45ef2f85f174fa60010261e6a3565b600073ffffffffffffffffffffffffffffffffffffffff168173ffffffffffffffffffffffffffffffffffffffff16141561973c576196ba7ff028096da1182cfa893bf0adb6ca297b5548d4f293a84fa41a7dd97478951e8760010261e6a3565b6196e67f962226f3cf585f3e680518629b822950db66aa681c7fce009a9503b53a5f547360010261e6a3565b6197127fdaf26c4a10b773d5d03f38aef783441eb8b2b1d3ca7b5ef3036f8da7e7df306a60010261e6a3565b600260009054906101000a900473ffffffffffffffffffffffffffffffffffffffff169050619769565b6197687f9648003ae117b21f2cd88a388e25fa39bae82ebceac753a53fb4b01a6e462f9460010261e6a3565b5b6197957f8c11df1903c8b75a16655825e81bcfdc6f1892cfc8b7c41a35e44438e2f72f5f60010261e6a3565b6197c17f992cd2a937be0e530ee86300997b6c261e85a8eb203b20d2c52f752bfe56a82c60010261e6a3565b6197ed7fc09c540e191adc3081a5f4f4dad259fd5178312069a44c8deeee2ddf98708b3260010261e6a3565b6113886012541015156197ff57600080fd5b61982b7f920297482793a575067a007aa4e01f345288a9a7ae293e36b5beac7be52de65b60010261e6a3565b6198577f5dcb88d23aeb6b8f56715b4669772d5acee46214abb0971b916c62ba2cefc93f60010261e6a3565b6012600081548092919060010191905055506198957f308f0469981fb353287e046cb0e8728cae8ffd6181b13ea39a009b8abac2d00b60010261e6a3565b6198c17fa116262a6b968ea15c0a6cf7934fd41d5631dc01d180e71a1f174809b58f166060010261e6a3565b6198d06000806000868561d44c565b50505050565b60006199047f4b3f31363c06554026c3495535211789942e41625a57b086267e5064f5934af660010261b5d1565b6199307f01fb50a86f8e94902dc9382992dbfa33e19a7eaa3e581679951cbdf2dd876a0a60010261b5d1565b61995c7f5090bdc7b81fb4fb806ffb8a324e9482ba5cf27db77d6fd8a28579d8a407f1e260010261b5d1565b6199887f5a2a24182e30eaa462e023aeb84148b625327a032588bd13d612098c0762752960010261b5d1565b600260009054906101000a900473ffffffffffffffffffffffffffffffffffffffff1673ffffffffffffffffffffffffffffffffffffffff163373ffffffffffffffffffffffffffffffffffffffff161415156199e457600080fd5b619a107f68e3652403790d00667b2e33f3cafbd6f6fa0dcc355662d23e6436c566afbc2b60010261b5d1565b619a3c7f23b3e2c03a5d93b1565e0b8a6688e0afc1cb86813470da360be15ebc6130290360010261b5d1565b619a687fef48c1eb06e79458d0ea08c405508f1093355b0dab82e741b1b74caffe62d2c860010261e6a3565b619a947fd3e093bc9608982ab6ff11abe462766cf543e09c03c0e660902b0eab952901f960010261e6a3565b619ac07f5c5a887a5724019204b7c1d8b1f0420f7adb5fa97493e92d14195b29338e384c60010261e6a3565b619aec7f5e09ecd15efb6b8ec20a68e05bc4ed55f70244e0663bd6a2e944e1133dcf05b660010261e6a3565b61afc8601354101515619afe57600080fd5b619b2a7fb2a49de4b5da963c7e0f92802d3e950fcd5bc4bde88160a28df10b41b930e57760010261e6a3565b619b567f5ed87591a0d13374f72116ab1507379747c5670762a3da06361c44f8b24d59de60010261e6a3565b619b827f97cdd60fa0fa460fffb44128a09c8f2f30df501bd0b85b81ff1700e778eef1f760010261e6a3565b619b916000806000853061d44c565b9050619bbf7fb8b194fda4f64ff6db9b1209b215d6fb62623b801a05f5510b2e707cc11a60d560010261e6a3565b619beb7fd9f74480aa3cef5a07178178ad8f5e725ae3216447d681b328b98b3418c938bd60010261e6a3565b619c1781600b60049054906101000a900473ffffffffffffffffffffffffffffffffffffffff1661b6c7565b619c437f239d40b9acedf77572f5f17e62c2511ccb69d19da3cae15321e8b89f37c4101260010261e6a3565b619c6f7f30214b4af0cd3f003708ec9e55b2caf2594077ee3d85dcda66fbd753ddb921b160010261e6a3565b600b60049054906101000a900473ffffffffffffffffffffffffffffffffffffffff1673ffffffffffffffffffffffffffffffffffffffff166327ebe40a82619cb661e6a6565b600062015180306040518663ffffffff167c0100000000000000000000000000000000000000000000000000000000028152600401808681526020018581526020018481526020018381526020018273ffffffffffffffffffffffffffffffffffffffff1673ffffffffffffffffffffffffffffffffffffffff16815260200195505050505050600060405180830381600087803b158015619d5757600080fd5b505af1158015619d6b573d6000803e3d6000fd5b50505050619d9b7f39e2cb481dc49730ccfa6beef7ab6dc2c1057328c11e41812c70bd7e0ffc8d0860010261e6a3565b6013600081548092919060010191905055505050565b6000619ddf7f34ba93981658c3daa5f666bbb9fe4c2050f8795f520af64c257be31ef93f4a7e60010261bada565b619e0b7f6e13615425708a7761bd047818bc837ac9fb4bd1e59bf3fa4452e4cbd770a56060010261bada565b619e377f1dc2ce0d010e73d168ffe98a84a9bc524a16f273016615775624f5da12869a7e60010261bada565b619e637f7988d104597cafdb112f343393a63efde85108a1f51c7a8effe784254afa55de60010261bada565b60011515600d60003373ffffffffffffffffffffffffffffffffffffffff1673ffffffffffffffffffffffffffffffffffffffff16815260200190815260200160002060009054906101000a900460ff161515141515619ec257600080fd5b619eee7f74c308184e27580c17a1d0b6ff599bb36cc06cea53ef2b0b67c3f3d83101591560010261bada565b619f1a7ff94d3c11b156185524dc880705acc4e207d4e6c8ac4a3c0d0c44c9bda584852660010261bada565b619f467f3656f412e650a736b30ee1b85a53658a3bd9bc4678c84f95fdecc8c72ae2fb3c60010261bada565b619f727f0244e02df212c49d5e5083f6b9f775798a5b4f2c76ffbd89f8c203cbc5d2131d60010261bada565b619f9e7f61275c1adf3df590bc0343e12b4cf45efe3858615c8b482b9cf319e8437165b060010261bada565b619fab868686868661d44c565b905095945050505050565b600080619fe57f4176e0b73de34096ee1d7b39064213b10e4684651774dfc7a43775744897da1c60010261badd565b61a0117fed3d01415addfc43e36b5697aa20733f362954a7000d744a8fec86e9dd663d7f60010261badd565b61a03d7ffef12e0a4519fcdcf5a31cb3c1de5ee26427adfdfa163874aeea0fed948f9e0860010261badd565b60068381548110151561a04c57fe5b9060005260206000209060020201905061a0887f95236b2204efe6fd7c98104da480625f7d6fee0a8b91eece48dc80008722d22860010261badd565b61a0b47fb6880abbcda67ed1a936422f0c9eeb92bbbe3482d2c01bcfb9ccfcbe8980c88e60010261badd565b60008311801561a1f7575061a1f683826101006040519081016040529081600082015481526020016001820160009054906101000a900467ffffffffffffffff1667ffffffffffffffff1667ffffffffffffffff1681526020016001820160089054906101000a900467ffffffffffffffff1667ffffffffffffffff1667ffffffffffffffff1681526020016001820160109054906101000a900463ffffffff1663ffffffff1663ffffffff1681526020016001820160149054906101000a900463ffffffff1663ffffffff1663ffffffff1681526020016001820160189054906101000a900463ffffffff1663ffffffff1663ffffffff16815260200160018201601c9054906101000a900461ffff1661ffff1661ffff16815260200160018201601e9054906101000a900461ffff1661ffff1661ffff168152505061eab2565b5b915050919050565b61138881565b600b60049054906101000a900473ffffffffffffffffffffffffffffffffffffffff1681565b61a2577f34ba93981658c3daa5f666bbb9fe4c2050f8795f520af64c257be31ef93f4a7e60010261bada565b61a2837f6e13615425708a7761bd047818bc837ac9fb4bd1e59bf3fa4452e4cbd770a56060010261bada565b61a2af7f1dc2ce0d010e73d168ffe98a84a9bc524a16f273016615775624f5da12869a7e60010261bada565b61a2db7f7988d104597cafdb112f343393a63efde85108a1f51c7a8effe784254afa55de60010261bada565b60011515600d60003373ffffffffffffffffffffffffffffffffffffffff1673ffffffffffffffffffffffffffffffffffffffff16815260200190815260200160002060009054906101000a900460ff16151514151561a33a57600080fd5b61a3667f74c308184e27580c17a1d0b6ff599bb36cc06cea53ef2b0b67c3f3d83101591560010261bada565b61a3927ff94d3c11b156185524dc880705acc4e207d4e6c8ac4a3c0d0c44c9bda584852660010261bada565b61a3be7f7fb78cee7876fe59378c92d71f0664000626f133d8bb0b1d4b78bd9087d3f12160010261bada565b61a3ea7fe2b5c6114496aadc5d19b41e7b20676ec5a3b9c6b840bced39f01be4854c255d60010261bada565b61a4167f48e29eabc4f5ead65887aabc5074676ef1ac52c07b1b60e89f0b4631ca0fb2b660010261bada565b61a4427fd58cca48d34222c8aad5b20d74c4becb0914b674b3f7e54d6115e474a901cc3860010261bada565b6000600e600083815260200190815260200160002060009054906101000a900461ffff1661ffff1614151561a47657600080fd5b61a4a27ffd755bf1f4d210adf86e1976af870c2dde76ef249a2e04281723ec2d67834b4960010261bada565b61a4ce7fecb91de1a63b000aba28b86778eac2321e7269fe1df84c98cf8cc02b2beb4c2d60010261bada565b61a4fa7fc843093e22fdbe07b710d6cfb557f4adc198b468a9328fb3373a8878c49f0f7860010261bada565b61a5038161b7a1565b50565b600061a5347fcb2648b67b0de279cb753577ec77c6b2ea08d23aa34ef2f48c5aab3c2f7b331360010261b5d1565b61a5607f6f460441e04e9f2fab210055dfdc65babe4e31ac3fe89dcb41c84c7fb037599160010261b5d1565b61a58c7f3dde09caefb3a1f40ad03cded37744ff16ee712b622d5384bd28cad309760ae760010261b5d1565b61a5b87f7808d25d5414a096b7d4484dd157a0f0c9b5f6c11dae49f7d70fd4cb3bbde23260010261b5d1565b600260149054906101000a900460ff1615151561a5d457600080fd5b61a6007f8b5d68b72118d3191a023266c39777d9f072660abc89f2761d9e6c792bd310c360010261b5d1565b61a62b7ead53c480053279c157a04c0652ee4064d1c599d726b53bdfe5e51538b4069160010261b5d1565b61a6577f13ed5ce820bb9d21d46f1add071402903b524569ddd1762dd46ba91c0a768aaf60010261bad7565b61a6837fc4717a76c26489c9a330a122e7897c16698393d10424c2b8ad386824df395a0d60010261bad7565b61a6af7f7bcf936f83065d2da22eff70a62329686af52ff756c7ea94d6e435cb6f2cf6b360010261bad7565b61a6db7f85d65b8b67b75bf36e539248142cad34200041e31065f44499149752b4cca21b60010261bad7565b61a6e5338361b5d7565b151561a6f057600080fd5b61a71c7f9f6368cab392f19fdd9471176934c072dec5570a8461515269c13a37e43ab0bc60010261bad7565b61a7487f400649a5a995b1cd5559bb0251b44844ef788d3a7669897b73c3cafa1d0dc46360010261bad7565b61a7747fe7484c5a9d88b75270fe2cd3103c37681667213cc1b887c2a0e8e99c0f3bd91d60010261bad7565b61a7a07f84158d9c1c2e188ff7445a0d5cb099a9a09faa6989351e733cfe0a86537e4d1360010261bad7565b61a7a982619fb6565b151561a7b457600080fd5b61a7e07fb2ce39ed90a2439b117a5b366c3372d72f2b7e15873831c0c40691edf481751460010261bad7565b61a80c7f7545124149d524b60c5000a6288f1ff8dc08b3cc6312bf7eca4371537449ddfd60010261bad7565b61a8387f8f52e4528247d2e495ed677294d1d8ba96dd8e384347df5b8245f4624762a70d60010261bad7565b61a8647f6ee5ae8df0e1331e8ec822a2953caf1f91afa43e7232c3b7a9c03fe8502423a760010261bad7565b61a86e828461eba6565b151561a87957600080fd5b61a8a57f49f29411f67c2f36c8f9f44684ce6399ee134328c7dc0d65e9ce82f9942a7c9660010261bad7565b61a8d17fff58669182772fee9069e73e236ceb80db8330024ae66d29f7047820507189d260010261bad7565b61a8fd7f2381441dbbb8fbe56b2625cd24e7417d502700cf16cb5a7572fd4395d04d076260010261bad7565b600c60009054906101000a900473ffffffffffffffffffffffffffffffffffffffff1673ffffffffffffffffffffffffffffffffffffffff1663c55d0f56846040518263ffffffff167c010000000000000000000000000000000000000000000000000000000002815260040180828152602001915050602060405180830381600087803b15801561a98e57600080fd5b505af115801561a9a2573d6000803e3d6000fd5b505050506040513d602081101561a9b857600080fd5b8101908080519060200190929190505050905061a9f77f87315b0500e594823ef0b52c15a41be70f7c122f8832cba13a6a1086479b30c960010261bad7565b61aa237f2929e722e53b810c328c91bb98f27b0b0cd4432dcf479f692f23a9602597f56760010261bad7565b61aa4f7f84a5372052f436f9242dc3bd0adb76572ea2ecc33741edd9db84aabb63bead4f60010261bad7565b600f548101341015151561aa6257600080fd5b61aa8e7fe8659fa9998bfa299bce2fe027885c903025e50383153d2250798da4988ddd8860010261bad7565b61aaba7f2f09cdaec416a2c3adcdee08bc2d442fbae7118eb50d7a998d11f779baa779ba60010261bad7565b61aae67f7c7d7fb53af2c5ec6d0ee6b4d9b7912107cba3d5857c0fb2bc7ac7086ee60c0360010261bad7565b600c60009054906101000a900473ffffffffffffffffffffffffffffffffffffffff1673ffffffffffffffffffffffffffffffffffffffff1663454a2ab3600f543403856040518363ffffffff167c0100000000000000000000000000000000000000000000000000000000028152600401808281526020019150506000604051808303818588803b15801561ab7b57600080fd5b505af115801561ab8f573d6000803e3d6000fd5b505050505061abc07f20e21893fa5b77e3349b536a2bb98f4f2b9121b250760927ec305601078c814860010261bad7565b61abec7f21768d72b3ba23945ae187615952d58705718717095526497252cd05a70720c760010261bad7565b61ac028263ffffffff168463ffffffff1661ed33565b505050565b60135481565b601160009054906101000a900473ffffffffffffffffffffffffffffffffffffffff1681565b60008061ac627fcb2648b67b0de279cb753577ec77c6b2ea08d23aa34ef2f48c5aab3c2f7b331360010261b5d1565b61ac8e7f6f460441e04e9f2fab210055dfdc65babe4e31ac3fe89dcb41c84c7fb037599160010261b5d1565b61acba7f3dde09caefb3a1f40ad03cded37744ff16ee712b622d5384bd28cad309760ae760010261b5d1565b61ace67f7808d25d5414a096b7d4484dd157a0f0c9b5f6c11dae49f7d70fd4cb3bbde23260010261b5d1565b600260149054906101000a900460ff1615151561ad0257600080fd5b61ad2e7f8b5d68b72118d3191a023266c39777d9f072660abc89f2761d9e6c792bd310c360010261b5d1565b61ad597ead53c480053279c157a04c0652ee4064d1c599d726b53bdfe5e51538b4069160010261b5d1565b61ad857f6a6f1570984f481a74a0a5d492d257e628029ae055657e12f33803e6aa5bfa1f60010261badd565b61adb17f9862737876ff860c577068bde877673b22d33a60c7cc391fbf0a1aa7c1aa842c60010261badd565b61addd7f05960928859483613b8961c79f9bc931e801c0de32177ea2d214abea31caf62d60010261badd565b61ae097f3adb07a55b9768f86a0f4ea3a844a6dc97b9ce4fef648a0d4ad8fac22ae1388060010261badd565b600f54341015151561ae1a57600080fd5b61ae467fd302344c9c41bbfa776726434b6085a813d4c63d44b1f44c9165a82863e6533a60010261badd565b61ae727ffa50681d140d593c68bb6d62c3fdcace05628c6f820fea7d82d558847db13f9560010261badd565b61ae9e7f632dcc78f7bc8c532fc925920574d14b51b0646984b1d75914501e09e8a201f560010261badd565b61aeca7f1e327dcb4c209e3cde68366f08c292a2613eeec17456f5da9f1736d466fc427e60010261badd565b61aed4338561b5d7565b151561aedf57600080fd5b61af0b7f4bf9821f39690d2c1b0efa749e519bfd9faaa7dc55c4e4bfab6c98671d288b8b60010261badd565b61af377f89fa6712e8684eb98720367ca57d9d69a40d30fb330229eeebfb0a092d3f6b1560010261badd565b61af637f026f8b9eb3fe73b9cc090c208c3c089b23048cec56febefb164f354d92e0515160010261badd565b61af8f7fb40f5db6a093a64a9fae481ebf728d50f87efabb5e089088ca40553fd06cf95460010261badd565b61af99838561d142565b151561afa457600080fd5b61afd07fa0b3593ade00b79d93e3a05f9d27a3ba0efaf34327fc63ba132766857ac58ea960010261badd565b61affc7fa9a338ca9d4f854d55b5c51f32ce8fb7cc42092325bbc7a85686e43573512bf860010261badd565b61b0287fbade8354d10b8772fc4f55d60af55b4feadd17d21c3e13ea7bf8988984adb75160010261badd565b60068481548110151561b03757fe5b9060005260206000209060020201915061b0737fc32ef873167351c56e00a8932c6a727b820b8f2357170c52a97a2f5c8613052360010261badd565b61b09f7f931fe26e0deae927fb1c6f121a3d982ce13202fc1e025fba01e50a8245ff795660010261badd565b61b0cb7fd90c67ee0af803220d8ac0f2ba6c8126664b46984d3c6b63f283f2cc2b26899c60010261badd565b61b20284836101006040519081016040529081600082015481526020016001820160009054906101000a900467ffffffffffffffff1667ffffffffffffffff1667ffffffffffffffff1681526020016001820160089054906101000a900467ffffffffffffffff1667ffffffffffffffff1667ffffffffffffffff1681526020016001820160109054906101000a900463ffffffff1663ffffffff1663ffffffff1681526020016001820160149054906101000a900463ffffffff1663ffffffff1663ffffffff1681526020016001820160189054906101000a900463ffffffff1663ffffffff1663ffffffff16815260200160018201601c9054906101000a900461ffff1661ffff1661ffff16815260200160018201601e9054906101000a900461ffff1661ffff1661ffff168152505061eab2565b151561b20d57600080fd5b61b2397fec0974adfedb05bc650207c07ba20bdf5663747d62cf12bf1dec598b4d1c7c3560010261badd565b61b2657fb207ef40ecd8bb1dc989fbb8296ae5c1a8038416835576a1c78d3a0a6cfe9bb960010261badd565b61b2917f37432822c78fe15758a23366ebae1a98f5dedffcdd0c004698d1204d3fa2d1ce60010261badd565b60068381548110151561b2a057fe5b9060005260206000209060020201905061b2dc7fb81305ac3c02fe00a289b3a0813667e8ef0fcb87077f229b9755cee88187b76a60010261badd565b61b3087f099f6d9cc0e543cfd8905fdcdc9e321c939466e85b22a5b9ee19657b15e92cbe60010261badd565b61b3347f100bac891c7cda9c0fc635176c6bd6371f02cb0ab6d59bc607c6d4567ff0849560010261badd565b61b46b83826101006040519081016040529081600082015481526020016001820160009054906101000a900467ffffffffffffffff1667ffffffffffffffff1667ffffffffffffffff1681526020016001820160089054906101000a900467ffffffffffffffff1667ffffffffffffffff1667ffffffffffffffff1681526020016001820160109054906101000a900463ffffffff1663ffffffff1663ffffffff1681526020016001820160149054906101000a900463ffffffff1663ffffffff1663ffffffff1681526020016001820160189054906101000a900463ffffffff1663ffffffff1663ffffffff16815260200160018201601c9054906101000a900461ffff1661ffff1661ffff16815260200160018201601e9054906101000a900461ffff1661ffff1661ffff168152505061eab2565b151561b47657600080fd5b61b4a27fcda9ea3ca75595e7ed7c9984d2952f48ee4246a9f12c7798fb9928722f4449bf60010261badd565b61b4ce7f4a345083d72de97d98a4d2b43b26529b48ff3dca90789cefcd9c73ae8e737b1060010261badd565b61b4fa7f271a9928ddc1beb9a1d073b056d07dc306c85bb46c5b358957faf84b8fd568e260010261badd565b61b5267febff20a5e9d486511d86ec6977ed42beaa6744beec1a2a667cd34c1e7419b16960010261badd565b61b5328285838661c879565b151561b53d57600080fd5b61b5697faa511ebb30d266ef5931b304f4ce76d6c8988b8e2dcf2081716d1b7882b8ff4060010261badd565b61b5957f17a4022e9254dcd099e1fe097874859281b3973f7b528fb0fc6af957b750604560010261badd565b61b5c17fe58ca24c2e9c17be1d275f31423631b47abaf0a01e4b38653c6b9cd6aebe850160010261badd565b61b5cb848461ed33565b50505050565b50565b50565b600061b6057ff620c8e7d6f39c01885c2f71899579216cff732114cbb5eef54d7e5e9a26f7ec60010261b5d4565b61b6317f8aa379ba9d2f7b27c97830c6a8b3692f1f0b6c07b5dd2cf671da1ae2bed490a660010261b5d4565b61b65d7f284f45a4377482355d6da17ab0c407f006dbb1030be26f0fe8c2ed396f12ae9b60010261b5d4565b8273ffffffffffffffffffffffffffffffffffffffff166007600084815260200190815260200160002060009054906101000a900473ffffffffffffffffffffffffffffffffffffffff1673ffffffffffffffffffffffffffffffffffffffff1614905092915050565b61b6f37fb41cd5f6201c7bf3f76d2b60228af44106d8421c721046002117e62c95cf9e1660010261b5d4565b61b71f7fa4449cf38feca80eeb21c8422f360bb542f795915e091a010a5cc6a2ec8d249060010261b5d4565b61b74b7f766b16c6dd58fadf52362556f318d8f8db6c5a620f0bf45b88faaa8b542f311a60010261b5d4565b806009600084815260200190815260200160002060006101000a81548173ffffffffffffffffffffffffffffffffffffffff021916908373ffffffffffffffffffffffffffffffffffffffff1602179055505050565b600061b7cf7f1d77822df049d83386355f59148204c605a5c33d6c9f15e3110018d9369fb32360010261d389565b61b7fb7f624b023533af9b442aa96ea7c1cfa9912ab0b1ede76ebbb6aacc5d342139798060010261d389565b61b8277f91c6a900d6265ed2db5032756e47efd5679dda866ab1a61d3d1a5fde247a12f360010261d389565b61b8537f22e39dd0a5ff2508b65930c6db3525c922a3d95abc4f2814c4bdc1c299d0c7da60010261d389565b60008211151561b86257600080fd5b61b88e7f05479ce377b2444c682c1a1737140eeb838a7b55f49ed8bd5f32283101f9a98b60010261d389565b61b8ba7f67382d5223aed1ad0381fb46dbf6542b3c75f94cfc04e6c6dca54ef2820a361e60010261d389565b61b8e67fdd726886bf0eea761dcd18eab91595656744a9200e61ff548c6234748273f00060010261d389565b6007600083815260200190815260200160002060009054906101000a900473ffffffffffffffffffffffffffffffffffffffff16905061b9487f9b54c4e2be41610caa54d986249bc5b48c678e20afe40d5104acf3e3a679c13960010261d389565b61b9747f8ac7b4b5faafe346ba2fc956069ef73443c7120a7ee41b4d674a32c3cc435e9560010261d389565b61b9a07f8b8d425c4143ef81258c88ef6ecf6ef7a0623549d442ee0878ccc73c9992409f60010261d389565b600073ffffffffffffffffffffffffffffffffffffffff168173ffffffffffffffffffffffffffffffffffffffff161415151561b9dc57600080fd5b61ba087f16e883088c4b0d00738d8472eb66de7f4ca28305d322e800e1037612f9c5030360010261d389565b61ba347f27c5745023592ad0dcf7b31c622e7518643aa8728f4dadc54af283f2bffde4b560010261d389565b600b600081819054906101000a900463ffffffff168092919060010191906101000a81548163ffffffff021916908363ffffffff1602179055505061ba9b7fe7edf42fae71d7245ae4958dc7a148eff4d915fb75466ffdf04f64e4526cbf8860010261d389565b61bac77fe8db8fbf6f5968f1907074ad1ee0f91b87ee9b7e0b42c6e6ddb533e6c5beaf6260010261d389565b61bad38160008461bbd0565b5050565b50565b50565b50565b600061bb0e7f3ae97b2983935f6bc221b02c21265cb10a524cb974da3345c6e6bbc16e31fb5d60010261b5d4565b61bb3a7fa8a5df3c83ef1fcc9a2e7879ee1b05af0f7f8c14cf1914d0b7b9573ce40e619c60010261b5d4565b61bb667f915c2b227dcc2832771b55a08b846cd2b47603142a46d6eec2b45047717dbd5b60010261b5d4565b8273ffffffffffffffffffffffffffffffffffffffff166009600084815260200190815260200160002060009054906101000a900473ffffffffffffffffffffffffffffffffffffffff1673ffffffffffffffffffffffffffffffffffffffff1614905092915050565b61bbfc7f66b696999af1a6a5a345bf3e9f29fedb18e5666a229a977c9f6af3cbc94738bb60010261d389565b61bc287f54f4b79b2d0d8747ddaa341ae0bfe7d5522db5383323e2fd81ebc48cd704e9fb60010261d389565b61bc547fb3d27e017d666ac9fbc5d11deb51ba46e2b263acea399b7bafbb13c3288af83860010261d389565b600073ffffffffffffffffffffffffffffffffffffffff168273ffffffffffffffffffffffffffffffffffffffff16141561bd1c5761bcb57feddf6b000c535abae7d0b760c7c16929e51af1469b587db67a62afde7e19cf5a60010261d389565b61bce17fa584a9b7faafe335bfebf096b8c371a4f295bf67342dbf5772750ffc39cc3a0260010261d389565b6007600082815260200190815260200160002060006101000a81549073ffffffffffffffffffffffffffffffffffffffff021916905561be6e565b61bd487f93b059e4aac9bd4320e7a5f7d9980173294e9757131d11de2edc9599f324e3a060010261d389565b61bd747fa6d303d9287b7834d673e33b530dd58e6170c196c236730b72622a4c376d71ff60010261d389565b600860008373ffffffffffffffffffffffffffffffffffffffff1673ffffffffffffffffffffffffffffffffffffffff1681526020019081526020016000206000815480929190600101919050555061bdef7f44ef1e3b61a49bb5208bbbecb00c8bfe5dfc9be34c0480bfaa25ef90a5ecdc5d60010261d389565b61be1b7f365ffe523aae4c9ffadf73544c18a5552ff1ff7b389c2cbe13c9d15b3326b9aa60010261d389565b816007600083815260200190815260200160002060006101000a81548173ffffffffffffffffffffffffffffffffffffffff021916908373ffffffffffffffffffffffffffffffffffffffff1602179055505b61be9a7f2226ce019e47537d8e454ddca5e112d4903790ace74d41dc9d363c43b3410cad60010261d389565b61bec67f47385f808687c27d5a59a7dc42f93e0fdeea737f727cc62e711669ff5c38f10860010261d389565b600073ffffffffffffffffffffffffffffffffffffffff168373ffffffffffffffffffffffffffffffffffffffff1614151561c06d5761bf287f4e6127e4a994fba5df78e71aa18f1f1d523362630cb30aead6876e9990c428c660010261d389565b61bf547fb235be59090e82c7bfa8a8b8023417fd999d3fd1bba568e191668a4e186e463f60010261d389565b600860008473ffffffffffffffffffffffffffffffffffffffff1673ffffffffffffffffffffffffffffffffffffffff168152602001908152602001600020600081548092919060019003919050555061bfd07f4ed115f965b9ea3e54650231154a5f18cc3a35f092b81ad39aacaa7e85475e2860010261d389565b600a600082815260200190815260200160002060006101000a81549073ffffffffffffffffffffffffffffffffffffffff021916905561c0327fae028673c4046d8259fe2c9a860fcb6a49bbbaa83d1dd3ca2ac0688d1ae4801f60010261d389565b6009600082815260200190815260200160002060006101000a81549073ffffffffffffffffffffffffffffffffffffffff021916905561c09a565b61c0997f31b6fa50e79ee1c74054d4e9d070882636304fdaf307c0f2eb7f23d44fa533fd60010261d389565b5b61c0c67f0668f245b8ed5f50acf7a77b0b916c0b8f67b3800fb95d8d4d7bd9c893e68e2560010261d389565b61c0f27f4d5369baa40700f5ca0035a032d898cee0eeae70c91a454ee4172329d88f4be260010261d389565b7fddf252ad1be2c89b69c2b068fc378daa952ba7f163c4a11628f55a4df523b3ef838383604051808473ffffffffffffffffffffffffffffffffffffffff1673ffffffffffffffffffffffffffffffffffffffff1681526020018373ffffffffffffffffffffffffffffffffffffffff1673ffffffffffffffffffffffffffffffffffffffff168152602001828152602001935050505060405180910390a1505050565b600061c1c47f4ac87dde4a4fbaca206364122e0df3a6f4184df6c76089275191a1a34ad9d3b560010261bada565b61c1f07f54cd04fb1ca2f4b806ac1fd822067d8213e04e80be4638862e29ac77e9b81ba160010261bada565b61c21c7f145cf622b2babc155e6defba81267c326ef5e297fe33e809a972ee7f207dbaea60010261bada565b61c2487f7afe5a0d7123df7eb4b516447a4b1f38456e55b80cdc5d51b0e89076e787f3ac60010261bada565b60008261ffff1611151561c25b57600080fd5b61c2877f1d0857e361644fc529011044b538b4529871176050090b70cff8659acaccb4d360010261bada565b61c2b37fe44b9a926eb40ebe146f72fe8eb1f294bb0f38a6706d5d4f1dba7c251baec6b160010261bada565b61c2df7feee4bbc877551112a62887ca03948a0987c894b2b6194910b2f5dc2fd97b776060010261bada565b600e600084815260200190815260200160002060009054906101000a900461ffff16905061c32f7f8cf086795e83053371bfd98d3f0c3dcd9d14bf9fb5aa9fe2eece2123f6fdd24260010261bada565b61c35b7f01ce12e48fd9ff60619a8c1b06837766ea5450b349c6af278e6eb7a1ec03ffe260010261bada565b61c3877ff0c1f85969b006723f322c591da0ed4e84fa6e4601d81473e570f9fd14d8f53060010261bada565b8161ffff1682821661ffff1614151561c39f57600080fd5b61c3cb7f4d861962e20dbdb5080ce1b51f69537cc1a42ecf230a3189f84fce7c681221f560010261bada565b61c3f77fb94b1ad502b870dbe3e12366b95058558b90074bb995f8afdf882f83d16263b060010261bada565b61c4237f75e7611228a417365986770319c879df6fa4cd8f9bdfc4d4a52a84d82ad9f2b960010261bada565b818118905061c4547f96978da1a422b0e207baf3b657187fb19d3e499dec944e636702b68ea68a913360010261bada565b61c4807f3938bb22cba27a8e5cc6b45e821b00e56065102b6c703457829aacd8cba95ab760010261bada565b80600e600085815260200190815260200160002060006101000a81548161ffff021916908361ffff16021790555061c4da7f6d57617351ba084e8df47de9c0daa6faa76c09247c21437800b7f4ccd12bda3660010261bada565b61c5067f848cad68c32655ac5b251517988645ef74f7ef99629035530f340e296d851ee360010261bada565b7f96b828b49c6eb235f60dde08b68959e6baef50b35a662b6db3cade02872d32308382604051808381526020018261ffff1661ffff1681526020019250505060405180910390a1505050565b61c57e7fcb049ed2f483be6c0944c2c03cebba45371d8e0ef11e4518263bd2fbbda7f59360010261b5d1565b61c5aa7f5dbffe83b36d40e7d651f2d3531e4a4824b9dc6ccb6586f84d10976bd60ae08d60010261b5d1565b61c5d67f31f8d3048db660f92f7d2b610b6a9c7cae1f6a13dda0027f8885b1f585ba628360010261b5d1565b61c6027fa2a47da5016dac4687136caeff8e35d8d21ddaedc8808cd08f29ccfc21bfac7360010261b5d1565b6000809054906101000a900473ffffffffffffffffffffffffffffffffffffffff1673ffffffffffffffffffffffffffffffffffffffff163373ffffffffffffffffffffffffffffffffffffffff1614151561c65d57600080fd5b61c6897f75897d7cfe76dbf024f81b5ad6072a4019a8f8439308212c47ad1e9256df43c060010261b5d1565b61c6b57f3ffe5ec58b9e7787ceecb0adf9d00ef109fb30448b7229696966b751a6dac16160010261b5d1565b61c6e17fee02b3c60f7bfcd131c9c4bfd3f91b2a91a6ce97b6a6d430726632917760560160010261b5d1565b61c70d7f43afdfb745d28db79002d8d11f06a461d1a6196edc9d887c659754e88a29b92260010261b5d1565b61c7397f8ec630ab56ff4ad877f695df339f06d409f6c7ddf449da0d8db84c833f37f76360010261b5d1565b61c7657f6f467694727c3dc109758fd72c4058843bacb5cdcee39f9ace95414345acf38a60010261b5d1565b600260149054906101000a900460ff16151561c78057600080fd5b61c7ac7f39fe575960af02d10117b59a53d57d89b0bf68648612a8334474037b391b7fb360010261b5d1565b61c7d87ff23eb7d426163ac3eb04e8e07e1cb74434c2877a79d57f6cff7670864e0f184160010261b5d1565b61c8047f9e488e65048831a2ec3bbe8010ee312b58023109c588537cf11da03689fc46a160010261b5d1565b61c8307f19d1644c0ba78d7d9378f48abb0889dbb78b76b0f9b81111d08879bc90ea64ea60010261b5d1565b61c85c7f069eeaf91fae0aa54459b92512201a5b8a2253bd9002e53f35a603e641338e2b60010261b5d1565b6000600260146101000a81548160ff021916908315150217905550565b600061c8a77f2652f96c20139186852897ab0075422e870e3cbc827706314b978e6ccc959a6e60010261badd565b61c8d37f5471a63818dad5c8fd1ad807102fee99c9dc31d49ad789a1b9eba4c5a109baf660010261badd565b61c8ff7f7a91d49f83af5e845d136b3bd3f65bf8d105172aec1f74ff5bb1439983ba958e60010261badd565b8184141561c9945761c9337f097ce782f45e429acea2c0806b66e01335cb634901d376d2f67a57aec6a5c76160010261badd565b61c95f7f0ba6eb3b8edf9a128cd6aa804f81ef088b8acf527f5bd99ba1473d727deed6ad60010261badd565b61c98b7f6561a5a123878f0dc2a6f36333878c92ebb29132c83fd94cbc48f75d2faa5c1c60010261badd565b6000905061d13a565b61c9c07f8f6b15014f83ea172ad55991b49ef14e7afb60cdecdcebcacb974a3680b81f6860010261badd565b61c9ec7f084c279267a7211ca2c83ae9ddbb04fb9a70ae8bf9d2823b355f82d1e2dc108160010261badd565b61ca187f059e348281112c8121387d768b4f4bbd98bfb6c0824ec83092bb7a42ff7d3da860010261badd565b818560010160109054906101000a900463ffffffff1663ffffffff16148061ca595750818560010160149054906101000a900463ffffffff1663ffffffff16145b1561caeb5761ca8a7f3926957f804452c2722cd4b3ebb023dec2db32041c9334a0464fb941eae1212160010261badd565b61cab67fbfdb2ce3b1fbb66fdf9d1e2a02dae93d9814d81fc3e4b44c8a4959a7d7814c0460010261badd565b61cae27fbb08912addd494178dd1214a18e1934ab119d198df3ec6fe2ad41bb33b97978960010261badd565b6000905061d13a565b61cb177f154f55f71919e0781bbdcd08daa299b109a00e9c816388709db14b29e1ca843d60010261badd565b61cb437fe63b4bb507ee0d913a708ff1ed55dc794eff0ecd55226c2e3dd248c190684e2b60010261badd565b61cb6f7fb1be094b3f03681eed85b14ebef5a3b62b88e826f131e897531354286d58633c60010261badd565b838360010160109054906101000a900463ffffffff1663ffffffff16148061cbb05750838360010160149054906101000a900463ffffffff1663ffffffff16145b1561cc425761cbe17f26d771681171c199ec8e854be6cb568d473c62df7b04cff9596d838d05539c7a60010261badd565b61cc0d7fedc57b718ae2e5596768017df2a37fdf79959793621f01f7b37f46d1a7c54ba060010261badd565b61cc397f46b574245b24ba9460da2fc9b19719c4acc2bd7526dd3fd6962b1050ede3e7bc60010261badd565b6000905061d13a565b61cc6e7f3f43a8d904d2b5a331a58b496d3bc567c03ede4b06c51347aec49c5a811d41f060010261badd565b61cc9a7fae1c5827f4a4e25a25cc18195145a12d2469d4310588975fa863254f72bca26360010261badd565b61ccc67feb3f1b3567e4290cebbe6595419ca83e16a8dfb39067761bcefbd1ed1205abc560010261badd565b60008360010160109054906101000a900463ffffffff1663ffffffff16148061cd09575060008560010160109054906101000a900463ffffffff1663ffffffff16145b1561cd9b5761cd3a7f5bdd158931799e4929ca9e192b59bf06de80974209e2169e187a4c29d87552f960010261badd565b61cd667f35823a33473b02e6f6658373792dd844728b5cae2191a8b7ad9e7a1a389ce82060010261badd565b61cd927f21b83b98b69328d44a7db703adce8efa286c80ba36b55c05a699bf8dea5f3f4f60010261badd565b6001905061d13a565b61cdc77ffa7be26a5895b4e7265320f2b2587646f638084360536bf122743302bbb1bb3860010261badd565b61cdf37f4026dac0631272036909db3173aed0916f81e8ea2957e3ad1ce17350ac72b5e660010261badd565b61ce1f7fe54e7bb93348017fa9890dbf6c049a36614e78ae438d0f5e59120f4e91b9980960010261badd565b8460010160109054906101000a900463ffffffff1663ffffffff168360010160109054906101000a900463ffffffff1663ffffffff16148061ce9457508460010160149054906101000a900463ffffffff1663ffffffff168360010160109054906101000a900463ffffffff1663ffffffff16145b1561cf265761cec57f39e2fadf80b1b0dab4d9718e2aaae39db3d406c69f5dc37c20fb114498a7c86360010261badd565b61cef17f2c57caa814c88c64eec59992f3785b90cff1d95ccd5b20b3862e7f95676e88d360010261badd565b61cf1d7f4d6518a54750232d752d520e88c25a4abdf56025ccb85f1e1ba97781548d2f9960010261badd565b6000905061d13a565b61cf527f4edefcb3ec9e7d5e8dc5782cf4dde881c0d2483a3898e8d4e2946a13bf451c5d60010261badd565b61cf7e7f6490bc06189024d196d4f1d6af72a96957096b66301a747495064bd4908d34fb60010261badd565b61cfaa7f3ac2d133462e1536a0511d042d983ca2c98b3db48e7fe30fb01a0615300b42c360010261badd565b8460010160109054906101000a900463ffffffff1663ffffffff168360010160149054906101000a900463ffffffff1663ffffffff16148061d01f57508460010160149054906101000a900463ffffffff1663ffffffff168360010160149054906101000a900463ffffffff1663ffffffff16145b1561d0b15761d0507fc79d9839cb73fa78cdc9dc13c08b1a16da44abcf5b58211e76ceb3fa24eaa0c960010261badd565b61d07c7fe0f677e402691d5f82229ca5291478da7202a5d583026e15716f539ece6c6f5a60010261badd565b61d0a87f11e233e8c256fbf47bf04a76d0f551d0942f618ff08164b2102a84c31b4ca51760010261badd565b6000905061d13a565b61d0dd7f119ebad30b6dfbf8f80edef955a9644e5d2ff842f7d5fd5db5ce49890bdb406660010261badd565b61d1097f21a19c216416a64a7b9083131d53a951cd76ee6149d7388921dd4beeb8cad57560010261badd565b61d1357fbc6081cf1bab835ebe219af24aaf7bac4bb5dc1324ce2f4c5a280c8cefdf917660010261badd565b600190505b949350505050565b600080600061d1737f6ccf932e04acbdcce047f227eb79aa79538d5a0fef8d0efb56534644c34a302960010261badd565b61d19f7f9dc655809df2592bcff449e430de9858e95663a258f7065e87ac3c855307f02160010261badd565b61d1cb7f9fc048062d1af2e56c2e370dfc5cc7e12bcb89d70f47e3df908293b264732e2760010261badd565b6007600085815260200190815260200160002060009054906101000a900473ffffffffffffffffffffffffffffffffffffffff16915061d22d7ff8b3062d0c6f2e2488255381e9638cd08ef3263f6a3ea1ce2eab447ee1092c1860010261badd565b61d2597fc85490541f1549fce21871f15e24e8710b84e837264eb471b218deb3933abed960010261badd565b6007600086815260200190815260200160002060009054906101000a900473ffffffffffffffffffffffffffffffffffffffff16905061d2bb7f4afda7d323b184a93d8d37884bcb37712bdb638735d0e82e824c51452883325b60010261badd565b61d2e77fbcf7fd10edfeb04e4781d1cc26c6e5acf33ce5a7deed2e05796c0020afd6675560010261badd565b8073ffffffffffffffffffffffffffffffffffffffff168273ffffffffffffffffffffffffffffffffffffffff16148061d37f57508173ffffffffffffffffffffffffffffffffffffffff16600a600087815260200190815260200160002060009054906101000a900473ffffffffffffffffffffffffffffffffffffffff1673ffffffffffffffffffffffffffffffffffffffff16145b9250505092915050565b50565b600061d3ba7f2b00a65d31fcab165e8535358c8dc3623cbf5b78dea8c29b9e355578ad37b6cf60010261badd565b61d3e67f203e3a188969079db837ab33843ca7998ded78a08f1668545c9d5fdb7a30dc3960010261badd565b61d4127fcf85fe10c5f7870dd0aef4ee40b3a2dd38542290b92b6fbdc069865577dfcfa560010261badd565b60008260a0015163ffffffff161415801561d44557504367ffffffffffffffff16826040015167ffffffffffffffff1611155b9050919050565b60008061d45761f424565b600061d4857faf1a83229740af54757f0d9680e14509b125e1b547461ad1a02d170f0feb995460010261d389565b61d4b17fc2f4059d2ec48df1e30397faa3121fd1a62bd2c11ec8466eff09dc64dafdeb6660010261d389565b61d4dd7fa2d877341c6464a2a0015a097de4cde74c11053a3b431b5ace80654b63ce988960010261d389565b61d5097fefe04f30b1a96537be450fc4421d0cbec5b077ec9f878225130d9900f7abd51b60010261d389565b8863ffffffff168914151561d51d57600080fd5b61d5497f891dc4c0acdaf920320fa7b61d1f628b110b269131943c41833c232d970e3c5760010261d389565b61d5757fb969f4128fee5278f6d097b0186d51b26a75663bed4bf7fca48c5b577f8c88fb60010261d389565b61d5a17f4aaa246181b1583170f0a88df963d402d913310af01c0716634dd4d50df7f8ee60010261d389565b61d5cd7f110b25b6af71b509da1fc3ec6ee020ce7cedf6d094b894c12f059fec873290ff60010261d389565b8763ffffffff168814151561d5e157600080fd5b61d60d7f25c061f5b20be6acc6aae8011390a9a9723977d31b4c5fc07ba733e4eb8f2e2960010261d389565b61d6397f413875cf3c2aceeaed0a027920ebf7d6f73722ce84f13878c08924190a56a3ac60010261d389565b61d6657fe83a31f46e02e074e46aa6c4896324efcda91e36b6da44dbed6db903044e648260010261d389565b61d6917f69a56fc4a42e9cbace96ed61624e0fab641e6810339c182b87dfe94319ad49c160010261d389565b8661ffff168714151561d6a357600080fd5b61d6cf7f2231e63dd34fd8fbbeea58fc7e3819749a26f10d60fa51be0b6608d445fa871460010261d389565b61d6fb7ff2fdf5413df0643bd28e8ce560e392f0d4c3b865f6e0464b95714a820ab48b5d60010261d389565b61d7277fdbb0207b721227a9eb66221af757237a13f4a0fd20f64a0ae156405aaac87ab460010261d389565b60028781151561d73357fe5b04925061d7627f021c2e0632620e122d1505458a088a25d7af7a5526f010e7377d7532beaa5eb260010261d389565b61d78e7f79e80ce4b5a8e42f8dc16cde6b4a99c55cfa8e4ca345ebd6de1b8da059c7021b60010261d389565b600d8361ffff16111561d8285761d7c77fc1226ff867e997d9ca97670bdcf470a26bc65ddd45f29753ca04b78cfb0d718d60010261d389565b61d7f37f11e54662bb48f480547b4ca0434c96163dc96a65d6296c7164e275536b8b359160010261d389565b61d81f7fb1036d9d43d04c9f819b28e80a3ac795ed91d036fed33fcf541f4e7974298d1260010261d389565b600d925061d855565b61d8547f035c74e7ae3e2a0098511017d92fa1c07ee808923fd78a2017363505bd568bba60010261d389565b5b61d8817f3fc07d5a94cbb4ccfd895cac66e52def11f2085d28185b33e4f6ebc460d4d1d060010261d389565b61d8ad7fc9caf35c6751d45e20d11393623ba020060d805c708e5d299058eb7a59c140bc60010261d389565b610100604051908101604052808781526020014267ffffffffffffffff168152602001600067ffffffffffffffff1681526020018a63ffffffff1681526020018963ffffffff168152602001600063ffffffff1681526020018461ffff1681526020018861ffff16815250915061d9467f708cf5f9ac8723faed74eef918a9665a9e3d38e093592c8bf219b8d56c7982a060010261d389565b61d9727f49479d98da59a94fd2ca59fce468c73941ab208c99cc278d358e01a63570510160010261d389565b6001600683908060018154018082558091505090600182039060005260206000209060020201600090919290919091506000820151816000015560208201518160010160006101000a81548167ffffffffffffffff021916908367ffffffffffffffff16021790555060408201518160010160086101000a81548167ffffffffffffffff021916908367ffffffffffffffff16021790555060608201518160010160106101000a81548163ffffffff021916908363ffffffff16021790555060808201518160010160146101000a81548163ffffffff021916908363ffffffff16021790555060a08201518160010160186101000a81548163ffffffff021916908363ffffffff16021790555060c082015181600101601c6101000a81548161ffff021916908361ffff16021790555060e082015181600101601e6101000a81548161ffff021916908361ffff160217905550505003905061daf67f9aa63b18dca78946b8584ddf38609392dae2f2a07d070e10850b0e23f4a9b40a60010261d389565b61db227f15d1769b8687d4e8f6aa6d242cdcfa52a14c08c7ad5395161a8363a24f222d4660010261d389565b61db4e7f70d704080f82b558d9d1e5668411e3a7f3393181e9cd6845a2f16a4ae23b1b5b60010261d389565b8063ffffffff168114151561db6257600080fd5b61db8e7fcd95a0a86cc7da87bbf27bdc45f85d1b6f886ee3e7ee1ef053e054615a6320ba60010261d389565b61dbba7ff34d4e69368e8b4ef5a6894d75dd89fce064964e799b7b1e76f1d9c15bdf1a7460010261d389565b61dbe67fa466790e12551182e079b2122ea013e586efae27cddbc576f8402f054c3d0c2260010261d389565b7fa2950fd8c03e7518275ee57e05ca76c671969b5445b12b1aeea4b0b30195e5df8582846060015163ffffffff16856080015163ffffffff168660000151876020015167ffffffffffffffff16604051808773ffffffffffffffffffffffffffffffffffffffff1673ffffffffffffffffffffffffffffffffffffffff168152602001868152602001858152602001848152602001838152602001828152602001965050505050505060405180910390a161dcc37fc700d1ebdeb35e368fd4546f2d66f21598f28f4f23edc64ea6a4d8b8dec0c1ea60010261d389565b61dcef7f28f02e64d602931cffbaeabaa94fb8fb5b2cf0e1e898ddb5634433d0cf3348b760010261d389565b61dcfb6000868361bbd0565b61dd277f66687bd90d7dda445e852caa3a4781bba05a310ac12c103b41b22faab0c6bfaa60010261d389565b61dd537f0815989a39726999d063a887b0c35b1a0836d8477666d46665c81c042b62d57e60010261d389565b80935050505095945050505050565b600080600061dd937f30b3c0c07f817dafdfffaee96129a64ed0252f6d4f88bdf6689d91ff88c28b9860010261bada565b61ddbf7fefb5a35eb8ad79ba48054c709e228dd7dbfdfc68c58580adb17f1715709dc7b960010261bada565b61ddeb7f93897e5e4f0490c70ec66e3ab20babb0381539bbd7b462636741e647dad3b07d60010261bada565b61de177f3a0b0da1d2727e73151991689b1d22dfd55239844895e6ef4796b34b1dfb827a60010261bada565b60008461ffff1611151561de2a57600080fd5b61de567fff6e6b515b5052191d21f38fe509f261f0c071be5aaea800df82640c8df8f79160010261bada565b61de827fe7cd3c148583c2c234c5ac5ebb174b2f156289705f88211a2df38001e2de13ca60010261bada565b61deae7f23eb2b7e5de59567a952a5b82fd9849791ee10d27634e2dff1e1df0a1def7cc660010261bada565b600e600086815260200190815260200160002060009054906101000a900461ffff16925061defe7f55037fb314b64c8f20560384d516302940ab9f974f0531f099c550d1050f590360010261bada565b61df2a7fb11cd56a03ed3baf4fccdaf582775e900a18967e82bdd6ce6b0468bae84b105060010261bada565b61df567fa2c2252e1fd0b00357ef6891633c811d43afc0e7d65634d16c7af39fcb8601c060010261bada565b600084841661ffff1614151561df6b57600080fd5b61df977f6f7bf2380ace03fd483e980d236b3e4c7710c2b7244afe4472ba0f9898a3db2460010261bada565b61dfc37f6c10ea1b0236b8ee0ad35e5237d0b5db9408b0bc7067db8f342fe52009fc837360010261bada565b61dfef7f0d7fd561126f0f0bcf21c8bf4350f50f2a7d52cced44984eaff79aa54ec3e98160010261bada565b60006001851661ffff16111561e17f5761e02b7f02a4f3925f497b7d2ee9996bddbea4dadca312842cdcf74979559814a7067fba60010261bada565b61e0577febc637a85560d6ffae62fb4c404b7d1b11e6f55c9c56a58b99caab9bee49097f60010261bada565b61e0837fbf07c53372620d01520a813ea28f410c76de0c5f7b1fea242a87aa97a53eaf8360010261bada565b60068581548110151561e09257fe5b9060005260206000209060020201915061e0ce7fd9233b1840b187e0c75913678471c4c475d8532990e2bbc7832428d71c42e2a760010261bada565b61e0f97e6a523462a1fbffb589cf4df51da84b90f1be151c6f1a2f6226adbc09a66e9460010261bada565b61e1257f4a92f8a9bcfbafe20393bc702f456621de335a9d2ceb38b29cd712e15b63064e60010261bada565b60008260010160189054906101000a900463ffffffff1663ffffffff1614151561e14e57600080fd5b61e17a7f12c3f201f963fe0bc1618165943230b493c9dd69ae689e0b7889d5f4c6a1614760010261bada565b61e1ac565b61e1ab7fc9cca3a192861a6022fd7a79c716c6c0f4147c2617d61e5e583f742235f3808c60010261bada565b5b61e1d87fbe622a7b80f398edac5b4cfdb9a5e9f7fcefdc258228f76192a044251cb099ed60010261bada565b61e2047f0155e94e24413f19925d5d01f5c6a62446cb4960f4cbbf923f6019a812fdac7560010261bada565b60006002851661ffff16111561e4ed5761e2407fea0b39bb3401da2ba2193e82a828b647bb700c729c64bf035d13159d53df323b60010261bada565b61e26c7f647df0b364bd04b555878e67aa2eb317c398b0e6f5969c1d5cb7948f6fdd337960010261bada565b61e2987fa987d65536459f7a177983ddeecd62293198b6418013d86210d45b205146cd5a60010261bada565b6007600086815260200190815260200160002060009054906101000a900473ffffffffffffffffffffffffffffffffffffffff16905061e2fa7f1b39c73a301f165d9a09749be212acae4448b3d3c619ecd8fd231db2b6e11d4960010261bada565b61e3267f3cbf2b7ec09d0ffabd48dba55e37105ba06ce4220d4112c32ee7c8d0cc660f1b60010261bada565b61e3527faa6492b4f706069f0264a319f809768001735d2413328fca62f05274da94b42660010261bada565b600b60049054906101000a900473ffffffffffffffffffffffffffffffffffffffff1673ffffffffffffffffffffffffffffffffffffffff168173ffffffffffffffffffffffffffffffffffffffff161415151561e3af57600080fd5b61e3db7fe059c8bdaf6adb1f8f8ae0edcedf4643d9870a363eba1e6c610b08261e82984360010261bada565b61e4077fbf5a9dca3e48586353f9a8494a089d0311a4b228b486e7938de3c26983cecaf560010261bada565b61e4337ff206735294317e20417acabe2de93e8ef38b2977a6f93490b4b5c5e86100add760010261bada565b61e45f7f0c3cabacefc33d2e4629aff68c39c4d965496a9394e502ec9e63e61e8ebad65860010261bada565b600c60009054906101000a900473ffffffffffffffffffffffffffffffffffffffff1673ffffffffffffffffffffffffffffffffffffffff168173ffffffffffffffffffffffffffffffffffffffff161415151561e4bc57600080fd5b61e4e87f49aa0a15b3f055caf6abbd5dc34799e2c21dd154b821fc2e2e44e790fb7c216560010261bada565b61e51a565b61e5197fa9d3ff38c8537170570a1d803812ec42a67bfca83c6eb3ade16c6242090c6d2160010261bada565b5b61e5467fe0234859e842db30f74650b52863c0729d2204554b633ae06b41f08a87ca9aca60010261bada565b61e5727f4cbed3e28005a9191de8e613ac518dca60499640be2fb0652f544766b9090ec860010261bada565b838317925061e5a37fe4f1d18a7b655aec221cded95fdd22d4e52dfc7750b2bc3622dc6f42abc950a460010261bada565b61e5cf7f1a19063a4298ae335d7abdf41711c297957d39c90203d020227456160d87952360010261bada565b82600e600087815260200190815260200160002060006101000a81548161ffff021916908361ffff16021790555061e6297ff0f63dbbce3dca433afb8d169b07ba14e59f2960d44389b97f478e70d628f0de60010261bada565b61e6557fb6e784443591a7f35eec3c769cf9c6cc0bba5e367f5e666a2419931e907bdfc360010261bada565b7f96b828b49c6eb235f60dde08b68959e6baef50b35a662b6db3cade02872d32308584604051808381526020018261ffff1661ffff1681526020019250505060405180910390a15050505050565b50565b600080600061e6d77f91adf3a9196e319156dafb707542a13488fcb6210ede1da9c9effdb60a606e4960010261e6a3565b61e7037f565eb6c92ad8cfbc11cf996e434c5b2607c9dbcab152742a785450c277ff843e60010261e6a3565b61e72f7fd018bb264c9a6520e022388c00ee508d3e6efc57850d293c816d7c0f5ebe6e5b60010261e6a3565b600b60049054906101000a900473ffffffffffffffffffffffffffffffffffffffff1673ffffffffffffffffffffffffffffffffffffffff1663eac9d94c6040518163ffffffff167c0100000000000000000000000000000000000000000000000000000000028152600401602060405180830381600087803b15801561e7b557600080fd5b505af115801561e7c9573d6000803e3d6000fd5b505050506040513d602081101561e7df57600080fd5b8101908080519060200190929190505050915061e81e7f0cb1dd7e6bb79af26b5eb0603bc8804fc737191929c9e5c68bab10c1a00d7f6e60010261e6a3565b61e84a7f31809d09da93c6cd4ad69577d5e5ee33a62805513b2e839a4fa714ed94ed87ff60010261e6a3565b61e8767f828ef1e8616f21f941367647a343357d5636d4b0dd214d2628bf8552bb10265a60010261e6a3565b816fffffffffffffffffffffffffffffffff168214151561e89657600080fd5b61e8c27f0fd943acc383d5d756a427ce52055911a762be4b954535a768c2fc91ff2e511260010261e6a3565b61e8ee7f8c49518e4770385527265536076690ec4f8c436587a4cb2c111a94b89d8b8ef260010261e6a3565b61e91a7fb0cf276ed72a960ed6cd6360f48dea4fdea0973e6f74e79e8c6355dae8091dea60010261e6a3565b60028281151561e92657fe5b048201905061e9577f5af90cbdc730fb9a27b0199a1fd45f44fc6709e7c8b44820410b8878aeafabb360010261e6a3565b61e9837f451e27cf8654224f8f92002f67133835ff9e17f7b7e8578bfff6364cc98486eb60010261e6a3565b662386f26fc1000081101561ea255761e9be7f872dd7b71d066ce3840c9fbf6661eb848241f0e4e7e9e39448d9ddb43600c55560010261e6a3565b61e9ea7f11001e8509f6bc7ec7cde4c092c3532761746c51ee71f07dba9d9b8e5991442060010261e6a3565b61ea167fbacc845b7bd6238153e5dd8910604b0d64059d30aacd03e3dc4c090e8ca8282e60010261e6a3565b662386f26fc10000905061ea52565b61ea517fd2c772ba80f84306d3e159c5616d1e1ce863ced1e4b8daac8986703b1595803460010261e6a3565b5b61ea7e7fb9bf690b5945264b3783a82f52742423cd1bc3308ddc3bc87ac3eaee37f0936360010261e6a3565b61eaaa7faed02c6f4018ac87ec560a516d27d2fcffdb849d7bbca934dfe5aa5f0bad44c560010261e6a3565b809250505090565b600061eae07ff6632e130353b95df51682c36e761ac705c78423d1d8ac6fe9d3cfd6a2b7f84560010261badd565b61eb0c7f3ed0de66f7ea44712ced26a07c2aa45fcc0a42ab258637daf02688f84198849c60010261badd565b61eb387fc5d86c5e6aebc70d30324b73d3897f2217cb5a62e57d01261f2ae3cb7da4bd9f60010261badd565b60008260a0015163ffffffff1614801561eb6a57504367ffffffffffffffff16826040015167ffffffffffffffff1611155b801561eb9e575060006001600e600086815260200190815260200160002060009054906101000a900461ffff161661ffff16145b905092915050565b600080600061ebd77fa3dd48ce7b423b48d63bf469ab7240979214e47fe0ca10bd3a0eecac4353672860010261badd565b61ec037fa80980815f37affec1797f71d33b1d7652a1a341952678aa63ea4a05ae62f3ec60010261badd565b61ec2f7fa34e19621281e443e2bf2cc6b4e44bc35bb49f6095d0a69a521592f54010eb6f60010261badd565b60068581548110151561ec3e57fe5b9060005260206000209060020201915061ec7a7f03514ada7e928b5e006100681df857a186047fede4458d4af0856bb30bf5e16e60010261badd565b61eca67f06ee10d0bcdd2503722521b131dd130b6155338b90af1450a523bf84c3e51ea460010261badd565b60068481548110151561ecb557fe5b9060005260206000209060020201905061ecf17ffaed1e3eb954cbba464757903d7dbe272952de62a3d9a4c261ed30472896f37760010261badd565b61ed1d7f6b95d3a482d2698e3e510b40aafafc54fc0dab3a2e98b74aa7fa92ed437a543c60010261badd565b61ed298286838761c879565b9250505092915050565b60008061ed627f622c4b99048f9a1db21307b892af92e702ede9eef257e614b6c81ceec0ddf5e060010261badd565b61ed8e7f4e839b10cb305d54f89290b6a4bf64db056be3f2f5fbb9562889a0fca9c7c2a360010261badd565b61edba7f9f3a6ba66eda1f5abc9c74fbcc7819f7bb689103f7a357d7811d764ac9d42a6a60010261badd565b60068381548110151561edc957fe5b9060005260206000209060020201915061ee057f7da5785ee5d0993b618cbd9dfe3d1e742dc0dd8435ee1b849fc6dd1679ba6e3860010261badd565b61ee317fb53b9b445d9c56c10b8c02401b3c269f341c82e850021031d4611c0b63596b2960010261badd565b60068481548110151561ee4057fe5b9060005260206000209060020201905061ee7c7f2db583de487132a90cb96f1b320566b6af0b790b6fc44941f5033ea3295fcb5d60010261badd565b61eea87f586f39a25ee96cf91a243e0356ce633d0b6e116d1b42c4bb24005d0c9f10d4a960010261badd565b828160010160186101000a81548163ffffffff021916908363ffffffff16021790555061eef77f9de694d711d7dee61fe3cc98584664e4aeab8f84a7b0a58b876e6969a6d375ab60010261badd565b61ef237fd1705671d9b14eda2bd4d828dc669859330b6607020dded6e9fa832e7720c9bf60010261badd565b61ef2c8261f1bd565b61ef587fbe260fef67811afe38d8859eb1d7704c5d2a9ab97e59736bf6a6c37123702b8060010261badd565b61ef847f143b7c2a8f6d67df1b9254adfe2d9154afcf2ec4bf95359d166f80eaf8b8af8d60010261badd565b61ef8d8161f1bd565b61efb97f45df8ab7a7410d9b597fed01580bc9eeb70cbfca93c1decfb25fd9c1d8cb87f960010261badd565b600a600085815260200190815260200160002060006101000a81549073ffffffffffffffffffffffffffffffffffffffff021916905561f01b7f8c1a75a391b5d2b8f7f93a291a3b0549829a28cd8f5ffa8e36cb7ee671e15d8860010261badd565b600a600084815260200190815260200160002060006101000a81549073ffffffffffffffffffffffffffffffffffffffff021916905561f07d7f4665a9c48233799be943efe9dafa12e4265afb15dacdf7c5cdeb85a9396a46d160010261badd565b60106000815480929190600101919050555061f0bb7f71f515af926ff1399053c5a2dd922c2514d7a82f5364fe70b794722e6e80664d60010261badd565b61f0e77fc2cbb1b7c74d1aed5d33e9f807a10d179ea195e0034de604356a42b84f53b5e960010261badd565b7f241ea03ca20251805084d27d4440371c34a0b85ff108f6bb5611248f73818b806007600086815260200190815260200160002060009054906101000a900473ffffffffffffffffffffffffffffffffffffffff1685858460010160089054906101000a900467ffffffffffffffff16604051808573ffffffffffffffffffffffffffffffffffffffff1673ffffffffffffffffffffffffffffffffffffffff1681526020018481526020018381526020018267ffffffffffffffff16815260200194505050505060405180910390a150505050565b61f1e97fdfe29d04d80bc4b8b212c2acf84f0a43170482175082301b7f006c341b5774d460010261badd565b61f2157f1887905a1bff995105060bc83483350398ce11df4ed973f8019b6750d81f293a60010261badd565b61f2417f7afa96d47ada90762dd020e23fa38eae542739303862290ef55846503e2f301760010261badd565b43600554600383600101601c9054906101000a900461ffff1661ffff16600e8110151561f26a57fe5b600891828204019190066004029054906101000a900463ffffffff1663ffffffff1681151561f29557fe5b04018160010160086101000a81548167ffffffffffffffff021916908367ffffffffffffffff16021790555061f2ed7fd1c3df03e8e7a9f3b4887779b26aba6d0393c6d5953a0e246b0babea41296ba660010261badd565b61f3197fca9883fc42aa6a45a5e5936df7f615198b62b57ae3c51637e41525fc8f32c96d60010261badd565b600d81600101601c9054906101000a900461ffff1661ffff16101561f3f45761f3647f97b37817ff7d918b20b0ad89f9daaa75d6962cdf33e7b609da582660cb7e3d4360010261badd565b61f3907f8821d1076f206d388045b85578ed064fccf9e4a1812505e5ad100f30050a664b60010261badd565b61f3bc7f03ea38168c8998943c3634ae7b76fb72f7a8f1d5d9e6e7468d5df72be8e94b7960010261badd565b600181600101601c8282829054906101000a900461ffff160192506101000a81548161ffff021916908361ffff16021790555061f421565b61f4207f980383c2a5718c4af09b110ef8a239b78436a28c9198566959dc87b4468e521260010261badd565b5b50565b6101006040519081016040528060008152602001600067ffffffffffffffff168152602001600067ffffffffffffffff168152602001600063ffffffff168152602001600063ffffffff168152602001600063ffffffff168152602001600061ffff168152602001600061ffff16815250905600a165627a7a72305820c9fdbb0d9df0de3ed2c5ffc18bf4e5ec6415e44fda409ace5e7f7e07d02fa5a70029",
  "linkReferences": {},
  "deployedLinkReferences": {}
}