{
  "_format": "hh-sol-artifact-1",
  "contractName": "BotExtension",
  "sourceName": "contracts/BotCore.sol",
  "abi": [
    {
      "constant": true,
      "inputs": [],
      "name": "cfoAddress",
      "outputs": [
        {
          "name": "",
          "type": "address"
        }
      ],
      "payable": false,
      "stateMutability": "view",
      "type": "function"
    },
    {
      "constant": true,
      "inputs": [],
      "name": "ceoAddress",
      "outputs": [
        {
          "name": "",
          "type": "address"
        }
      ],
      "payable": false,
      "stateMutability": "view",
      "type": "function"
    },
    {
      "constant": false,
      "inputs": [
        {
          "name": "_contract",
          "type": "address"
        }
      ],
      "name": "addExtension",
      "outputs": [],
      "payable": false,
      "stateMutability": "nonpayable",
      "type": "function"
    },
    {
      "constant": true,
      "inputs": [],
      "name": "siringAuction",
      "outputs": [
        {
          "name": "",
          "type": "address"
        }
      ],
      "payable": false,
      "stateMutability": "view",
      "type": "function"
    },
    {
      "constant": false,
      "inputs": [
        {
          "name": "_contract",
          "type": "address"
        }
      ],
      "name": "removeExtension",
      "outputs": [],
      "payable": false,
      "stateMutability": "nonpayable",
      "type": "function"
    },
    {
      "constant": true,
      "inputs": [
        {
          "name": "",
          "type": "uint256"
        }
      ],
      "name": "botIndexToOwner",
      "outputs": [
        {
          "name": "",
          "type": "address"
        }
      ],
      "payable": false,
      "stateMutability": "view",
      "type": "function"
    },
    {
      "constant": false,
      "inputs": [
        {
          "name": "_newCEO",
          "type": "address"
        }
      ],
      "name": "setCEO",
      "outputs": [],
      "payable": false,
      "stateMutability": "nonpayable",
      "type": "function"
    },
    {
      "constant": false,
      "inputs": [
        {
          "name": "_newCOO",
          "type": "address"
        }
      ],
      "name": "setCOO",
      "outputs": [],
      "payable": false,
      "stateMutability": "nonpayable",
      "type": "function"
    },
    {
      "constant": false,
      "inputs": [
        {
          "name": "_botId",
          "type": "uint256"
        },
        {
          "name": "_mask",
          "type": "uint16"
        }
      ],
      "name": "extUnlockBot",
      "outputs": [
        {
          "name": "",
          "type": "uint16"
        }
      ],
      "payable": false,
      "stateMutability": "nonpayable",
      "type": "function"
    },
    {
      "constant": false,
      "inputs": [],
      "name": "unpause",
      "outputs": [],
      "payable": false,
      "stateMutability": "nonpayable",
      "type": "function"
    },
    {
      "constant": true,
      "inputs": [
        {
          "name": "",
          "type": "uint256"
        }
      ],
      "name": "sireAllowedToAddress",
      "outputs": [
        {
          "name": "",
          "type": "address"
        }
      ],
      "payable": false,
      "stateMutability": "view",
      "type": "function"
    },
    {
      "constant": false,
      "inputs": [
        {
          "name": "_newCFO",
          "type": "address"
        }
      ],
      "name": "setCFO",
      "outputs": [],
      "payable": false,
      "stateMutability": "nonpayable",
      "type": "function"
    },
    {
      "constant": false,
      "inputs": [
        {
          "name": "secs",
          "type": "uint256"
        }
      ],
      "name": "setSecondsPerBlock",
      "outputs": [],
      "payable": false,
      "stateMutability": "nonpayable",
      "type": "function"
    },
    {
      "constant": true,
      "inputs": [],
      "name": "paused",
      "outputs": [
        {
          "name": "",
          "type": "bool"
        }
      ],
      "payable": false,
      "stateMutability": "view",
      "type": "function"
    },
    {
      "constant": true,
      "inputs": [],
      "name": "destroyedBots",
      "outputs": [
        {
          "name": "",
          "type": "uint32"
        }
      ],
      "payable": false,
      "stateMutability": "view",
      "type": "function"
    },
    {
      "constant": true,
      "inputs": [],
      "name": "secondsPerBlock",
      "outputs": [
        {
          "name": "",
          "type": "uint256"
        }
      ],
      "payable": false,
      "stateMutability": "view",
      "type": "function"
    },
    {
      "constant": false,
      "inputs": [],
      "name": "pause",
      "outputs": [],
      "payable": false,
      "stateMutability": "nonpayable",
      "type": "function"
    },
    {
      "constant": true,
      "inputs": [
        {
          "name": "_botId",
          "type": "uint256"
        }
      ],
      "name": "extGetLock",
      "outputs": [
        {
          "name": "",
          "type": "uint16"
        }
      ],
      "payable": false,
      "stateMutability": "view",
      "type": "function"
    },
    {
      "constant": true,
      "inputs": [
        {
          "name": "",
          "type": "uint256"
        }
      ],
      "name": "cooldowns",
      "outputs": [
        {
          "name": "",
          "type": "uint32"
        }
      ],
      "payable": false,
      "stateMutability": "view",
      "type": "function"
    },
    {
      "constant": true,
      "inputs": [
        {
          "name": "",
          "type": "uint256"
        }
      ],
      "name": "botIndexToApproved",
      "outputs": [
        {
          "name": "",
          "type": "address"
        }
      ],
      "payable": false,
      "stateMutability": "view",
      "type": "function"
    },
    {
      "constant": true,
      "inputs": [],
      "name": "cooAddress",
      "outputs": [
        {
          "name": "",
          "type": "address"
        }
      ],
      "payable": false,
      "stateMutability": "view",
      "type": "function"
    },
    {
      "constant": false,
      "inputs": [
        {
          "name": "_botId",
          "type": "uint256"
        },
        {
          "name": "_mask",
          "type": "uint16"
        }
      ],
      "name": "extLockBot",
      "outputs": [],
      "payable": false,
      "stateMutability": "nonpayable",
      "type": "function"
    },
    {
      "constant": false,
      "inputs": [
        {
          "name": "_matronId",
          "type": "uint256"
        },
        {
          "name": "_sireId",
          "type": "uint256"
        },
        {
          "name": "_generation",
          "type": "uint256"
        },
        {
          "name": "_genes",
          "type": "uint256"
        },
        {
          "name": "_owner",
          "type": "address"
        }
      ],
      "name": "extCreateBot",
      "outputs": [
        {
          "name": "",
          "type": "uint256"
        }
      ],
      "payable": false,
      "stateMutability": "nonpayable",
      "type": "function"
    },
    {
      "constant": true,
      "inputs": [],
      "name": "saleAuction",
      "outputs": [
        {
          "name": "",
          "type": "address"
        }
      ],
      "payable": false,
      "stateMutability": "view",
      "type": "function"
    },
    {
      "constant": false,
      "inputs": [
        {
          "name": "_botId",
          "type": "uint256"
        }
      ],
      "name": "extDestroyBot",
      "outputs": [],
      "payable": false,
      "stateMutability": "nonpayable",
      "type": "function"
    },
    {
      "anonymous": false,
      "inputs": [
        {
          "indexed": false,
          "name": "botId",
          "type": "uint256"
        },
        {
          "indexed": false,
          "name": "mask",
          "type": "uint16"
        }
      ],
      "name": "Lock",
      "type": "event"
    },
    {
      "anonymous": false,
      "inputs": [
        {
          "indexed": false,
          "name": "owner",
          "type": "address"
        },
        {
          "indexed": false,
          "name": "botId",
          "type": "uint256"
        },
        {
          "indexed": false,
          "name": "matronId",
          "type": "uint256"
        },
        {
          "indexed": false,
          "name": "sireId",
          "type": "uint256"
        },
        {
          "indexed": false,
          "name": "genes",
          "type": "uint256"
        },
        {
          "indexed": false,
          "name": "birthTime",
          "type": "uint256"
        }
      ],
      "name": "Birth",
      "type": "event"
    },
    {
      "anonymous": false,
      "inputs": [
        {
          "indexed": false,
          "name": "from",
          "type": "address"
        },
        {
          "indexed": false,
          "name": "to",
          "type": "address"
        },
        {
          "indexed": false,
          "name": "tokenId",
          "type": "uint256"
        }
      ],
      "name": "Transfer",
      "type": "event"
    },
    {
      "anonymous": false,
      "inputs": [
        {
          "indexed": false,
          "name": "newContract",
          "type": "address"
        }
      ],
      "name": "ContractUpgrade",
      "type": "event"
    }
  ],
  "bytecode": "0x60806040526000600260146101000a81548160ff0219169083151502179055506101c060405190810160405280603c63ffffffff1663ffffffff168152602001607863ffffffff1663ffffffff16815260200161012c63ffffffff1663ffffffff16815260200161025863ffffffff1663ffffffff16815260200161070863ffffffff1663ffffffff168152602001610e1063ffffffff1663ffffffff168152602001611c2063ffffffff1663ffffffff16815260200161384063ffffffff1663ffffffff16815260200161708063ffffffff1663ffffffff16815260200161e10063ffffffff1663ffffffff1681526020016201518063ffffffff1663ffffffff1681526020016202a30063ffffffff1663ffffffff1681526020016205460063ffffffff1663ffffffff16815260200162093a8063ffffffff1663ffffffff16815250600390600e6200015692919062000170565b50600f6005553480156200016957600080fd5b5062000250565b82600e600701600890048101928215620002075791602002820160005b83821115620001d357835183826101000a81548163ffffffff021916908363ffffffff16021790555092602001926004016020816003010492830192600103026200018d565b8015620002055782816101000a81549063ffffffff0219169055600401602081600301049283019260010302620001d3565b505b5090506200021691906200021a565b5090565b6200024d91905b808211156200024957600081816101000a81549063ffffffff02191690555060010162000221565b5090565b90565b614cd080620002606000396000f300608060405260043610610149576000357c0100000000000000000000000000000000000000000000000000000000900463ffffffff1680630519ce791461014e5780630a0f8168146101a5578063170ff3e1146101fc57806321717ebf1461023f57806321ee102b1461029657806327ab9f20146102d957806327d7874c146103465780632ba73c15146103895780633c4b07de146103cc5780633f4ba83a1461042357806346116e6f1461043a5780634e0a3379146104a75780635663896e146104ea5780635c975abb1461051757806361b6683c146105465780637a7d49371461057d5780638456cb59146105a85780638a653c93146105bf5780639d6fac6f14610608578063a8f8884d14610655578063b047fb50146106c2578063bf4a548514610719578063d1b12b4e14610754578063e6cbe351146107d3578063e9b582251461082a575b600080fd5b34801561015a57600080fd5b50610163610857565b604051808273ffffffffffffffffffffffffffffffffffffffff1673ffffffffffffffffffffffffffffffffffffffff16815260200191505060405180910390f35b3480156101b157600080fd5b506101ba61087d565b604051808273ffffffffffffffffffffffffffffffffffffffff1673ffffffffffffffffffffffffffffffffffffffff16815260200191505060405180910390f35b34801561020857600080fd5b5061023d600480360381019080803573ffffffffffffffffffffffffffffffffffffffff1690602001909291905050506108a2565b005b34801561024b57600080fd5b50610254610ae4565b604051808273ffffffffffffffffffffffffffffffffffffffff1673ffffffffffffffffffffffffffffffffffffffff16815260200191505060405180910390f35b3480156102a257600080fd5b506102d7600480360381019080803573ffffffffffffffffffffffffffffffffffffffff169060200190929190505050610b0a565b005b3480156102e557600080fd5b5061030460048036038101908080359060200190929190505050610d17565b604051808273ffffffffffffffffffffffffffffffffffffffff1673ffffffffffffffffffffffffffffffffffffffff16815260200191505060405180910390f35b34801561035257600080fd5b50610387600480360381019080803573ffffffffffffffffffffffffffffffffffffffff169060200190929190505050610d4a565b005b34801561039557600080fd5b506103ca600480360381019080803573ffffffffffffffffffffffffffffffffffffffff169060200190929190505050611060565b005b3480156103d857600080fd5b5061040560048036038101908080359060200190929190803561ffff169060200190929190505050611377565b604051808261ffff1661ffff16815260200191505060405180910390f35b34801561042f57600080fd5b50610438611574565b005b34801561044657600080fd5b506104656004803603810190808035906020019092919050505061189b565b604051808273ffffffffffffffffffffffffffffffffffffffff1673ffffffffffffffffffffffffffffffffffffffff16815260200191505060405180910390f35b3480156104b357600080fd5b506104e8600480360381019080803573ffffffffffffffffffffffffffffffffffffffff1690602001909291905050506118ce565b005b3480156104f657600080fd5b5061051560048036038101908080359060200190929190505050611be5565b005b34801561052357600080fd5b5061052c611f75565b604051808215151515815260200191505060405180910390f35b34801561055257600080fd5b5061055b611f88565b604051808263ffffffff1663ffffffff16815260200191505060405180910390f35b34801561058957600080fd5b50610592611f9e565b6040518082815260200191505060405180910390f35b3480156105b457600080fd5b506105bd611fa4565b005b3480156105cb57600080fd5b506105ea6004803603810190808035906020019092919050505061237b565b604051808261ffff1661ffff16815260200191505060405180910390f35b34801561061457600080fd5b5061063360048036038101908080359060200190929190505050612591565b604051808263ffffffff1663ffffffff16815260200191505060405180910390f35b34801561066157600080fd5b50610680600480360381019080803590602001909291905050506125c0565b604051808273ffffffffffffffffffffffffffffffffffffffff1673ffffffffffffffffffffffffffffffffffffffff16815260200191505060405180910390f35b3480156106ce57600080fd5b506106d76125f3565b604051808273ffffffffffffffffffffffffffffffffffffffff1673ffffffffffffffffffffffffffffffffffffffff16815260200191505060405180910390f35b34801561072557600080fd5b5061075260048036038101908080359060200190929190803561ffff169060200190929190505050612619565b005b34801561076057600080fd5b506107bd60048036038101908080359060200190929190803590602001909291908035906020019092919080359060200190929190803573ffffffffffffffffffffffffffffffffffffffff169060200190929190505050612812565b6040518082815260200191505060405180910390f35b3480156107df57600080fd5b506107e8612a17565b604051808273ffffffffffffffffffffffffffffffffffffffff1673ffffffffffffffffffffffffffffffffffffffff16815260200191505060405180910390f35b34801561083657600080fd5b5061085560048036038101908080359060200190929190505050612a3d565b005b600160009054906101000a900473ffffffffffffffffffffffffffffffffffffffff1681565b6000809054906101000a900473ffffffffffffffffffffffffffffffffffffffff1681565b6108ce7fcb049ed2f483be6c0944c2c03cebba45371d8e0ef11e4518263bd2fbbda7f593600102612d18565b6108fa7f5dbffe83b36d40e7d651f2d3531e4a4824b9dc6ccb6586f84d10976bd60ae08d600102612d18565b6109267f31f8d3048db660f92f7d2b610b6a9c7cae1f6a13dda0027f8885b1f585ba6283600102612d18565b6109527fa2a47da5016dac4687136caeff8e35d8d21ddaedc8808cd08f29ccfc21bfac73600102612d18565b6000809054906101000a900473ffffffffffffffffffffffffffffffffffffffff1673ffffffffffffffffffffffffffffffffffffffff163373ffffffffffffffffffffffffffffffffffffffff161415156109ad57600080fd5b6109d97f75897d7cfe76dbf024f81b5ad6072a4019a8f8439308212c47ad1e9256df43c0600102612d18565b610a057f3ffe5ec58b9e7787ceecb0adf9d00ef109fb30448b7229696966b751a6dac161600102612d18565b610a317fbf1d85ffe6355fc4f272b2f2d5adc3ad4608c432a5940832e2cc20d377b9a98b600102612d1b565b610a5d7f3121b1f0cf694c7aebd4277132a51a0d946c87c20aa931ecdd3eb428bc2ad938600102612d1b565b610a897f91b33501a02963141dbd64b5b5bd1c9bb12e2a9f2cd55094b23aecaaf0e998c1600102612d1b565b6001600d60008373ffffffffffffffffffffffffffffffffffffffff1673ffffffffffffffffffffffffffffffffffffffff16815260200190815260200160002060006101000a81548160ff02191690831515021790555050565b600c60009054906101000a900473ffffffffffffffffffffffffffffffffffffffff1681565b610b367fcb049ed2f483be6c0944c2c03cebba45371d8e0ef11e4518263bd2fbbda7f593600102612d18565b610b627f5dbffe83b36d40e7d651f2d3531e4a4824b9dc6ccb6586f84d10976bd60ae08d600102612d18565b610b8e7f31f8d3048db660f92f7d2b610b6a9c7cae1f6a13dda0027f8885b1f585ba6283600102612d18565b610bba7fa2a47da5016dac4687136caeff8e35d8d21ddaedc8808cd08f29ccfc21bfac73600102612d18565b6000809054906101000a900473ffffffffffffffffffffffffffffffffffffffff1673ffffffffffffffffffffffffffffffffffffffff163373ffffffffffffffffffffffffffffffffffffffff16141515610c1557600080fd5b610c417f75897d7cfe76dbf024f81b5ad6072a4019a8f8439308212c47ad1e9256df43c0600102612d18565b610c6d7f3ffe5ec58b9e7787ceecb0adf9d00ef109fb30448b7229696966b751a6dac161600102612d18565b610c997f8444ef6021167db0d922a2b1e8349b1a5f0b8edd982ba8f491199e31a55d5702600102612d1b565b610cc57f2580da3be0f5c047837254c1276bcd16f8442e69e56de9ef1e73c37459f8dfcd600102612d1b565b600d60008273ffffffffffffffffffffffffffffffffffffffff1673ffffffffffffffffffffffffffffffffffffffff16815260200190815260200160002060006101000a81549060ff021916905550565b60076020528060005260406000206000915054906101000a900473ffffffffffffffffffffffffffffffffffffffff1681565b610d767fcb049ed2f483be6c0944c2c03cebba45371d8e0ef11e4518263bd2fbbda7f593600102612d18565b610da27f5dbffe83b36d40e7d651f2d3531e4a4824b9dc6ccb6586f84d10976bd60ae08d600102612d18565b610dce7f31f8d3048db660f92f7d2b610b6a9c7cae1f6a13dda0027f8885b1f585ba6283600102612d18565b610dfa7fa2a47da5016dac4687136caeff8e35d8d21ddaedc8808cd08f29ccfc21bfac73600102612d18565b6000809054906101000a900473ffffffffffffffffffffffffffffffffffffffff1673ffffffffffffffffffffffffffffffffffffffff163373ffffffffffffffffffffffffffffffffffffffff16141515610e5557600080fd5b610e817f75897d7cfe76dbf024f81b5ad6072a4019a8f8439308212c47ad1e9256df43c0600102612d18565b610ead7f3ffe5ec58b9e7787ceecb0adf9d00ef109fb30448b7229696966b751a6dac161600102612d18565b610ed97f5fc6eb43ffbf276b62f28fcbf60dc2c180db575c7e9e226e6c6c4ebc9d3cdca6600102612d18565b610f057f8600bb7718bfaf280bafb2953b4f5e2e5b7f43eb718f188ebbcea7100f3ec91f600102612d18565b610f317ff67d7d4f85ade4d4ae9d316f7b6198c820cf3fbdc10cd6c34dbbaa33e43e5b18600102612d18565b610f5d7fd970e416a7b05f894e16d02c52d34731c3fc2e0bf8267719089224ee103507ca600102612d18565b600073ffffffffffffffffffffffffffffffffffffffff168173ffffffffffffffffffffffffffffffffffffffff1614151515610f9957600080fd5b610fc57f83b999badfe58cf9aa7350759d8fc576955adf6ab9762923d3e4195cc1fb053d600102612d18565b610ff17fee8b0d121d8b68ba51424a21b862b2537b0180682b889c82daf52e6efd481370600102612d18565b61101d7f9023188c9cea07958449ac3498f26f8c50f0236650f38f89ba11bc880e682f36600102612d18565b806000806101000a81548173ffffffffffffffffffffffffffffffffffffffff021916908373ffffffffffffffffffffffffffffffffffffffff16021790555050565b61108c7fcb049ed2f483be6c0944c2c03cebba45371d8e0ef11e4518263bd2fbbda7f593600102612d18565b6110b87f5dbffe83b36d40e7d651f2d3531e4a4824b9dc6ccb6586f84d10976bd60ae08d600102612d18565b6110e47f31f8d3048db660f92f7d2b610b6a9c7cae1f6a13dda0027f8885b1f585ba6283600102612d18565b6111107fa2a47da5016dac4687136caeff8e35d8d21ddaedc8808cd08f29ccfc21bfac73600102612d18565b6000809054906101000a900473ffffffffffffffffffffffffffffffffffffffff1673ffffffffffffffffffffffffffffffffffffffff163373ffffffffffffffffffffffffffffffffffffffff1614151561116b57600080fd5b6111977f75897d7cfe76dbf024f81b5ad6072a4019a8f8439308212c47ad1e9256df43c0600102612d18565b6111c37f3ffe5ec58b9e7787ceecb0adf9d00ef109fb30448b7229696966b751a6dac161600102612d18565b6111ef7f88c886be51524dd73b922e35a02dca86d0c0b415cf3c56d62a1f13368b3d05e3600102612d18565b61121b7f9f0996057a1a4719f75aa64801cbab8bb062056caa963266efdd3d64b675584e600102612d18565b6112477f54156e362d900300deebcd999007c710ad9bb1a442a2d97a5bf53bc07079ce3d600102612d18565b6112737ffd23285df18ee46f15e8858285ad785009d6b2ae9b545be17c967db9f4bc9539600102612d18565b600073ffffffffffffffffffffffffffffffffffffffff168173ffffffffffffffffffffffffffffffffffffffff16141515156112af57600080fd5b6112db7fcc97a5c8c25fb6ff1ad805fecb7bc6de88c04a665024665354b9a7d6bb355b3d600102612d18565b6113077fb755be836afd987e535ef2cf142d2fa3bc355b2d721ad31155fe8b917c9659e6600102612d18565b6113337f171d8dd485a5f392b5cf3c25f90c4141d93dc94a5fdf9c612a3296f1700d389d600102612d18565b80600260006101000a81548173ffffffffffffffffffffffffffffffffffffffff021916908373ffffffffffffffffffffffffffffffffffffffff16021790555050565b60006113a57f34ba93981658c3daa5f666bbb9fe4c2050f8795f520af64c257be31ef93f4a7e600102612d1b565b6113d17f6e13615425708a7761bd047818bc837ac9fb4bd1e59bf3fa4452e4cbd770a560600102612d1b565b6113fd7f1dc2ce0d010e73d168ffe98a84a9bc524a16f273016615775624f5da12869a7e600102612d1b565b6114297f7988d104597cafdb112f343393a63efde85108a1f51c7a8effe784254afa55de600102612d1b565b60011515600d60003373ffffffffffffffffffffffffffffffffffffffff1673ffffffffffffffffffffffffffffffffffffffff16815260200190815260200160002060009054906101000a900460ff16151514151561148857600080fd5b6114b47f74c308184e27580c17a1d0b6ff599bb36cc06cea53ef2b0b67c3f3d831015915600102612d1b565b6114e07ff94d3c11b156185524dc880705acc4e207d4e6c8ac4a3c0d0c44c9bda5848526600102612d1b565b61150c7f60acf4788f65c7446cd28a54601e564fea9f45a1c5ee6ddbe0dfb88758899949600102612d1b565b6115387f030a7770b1223429e810e10ba6717c794a45261bb291a8621ec4922617ce6357600102612d1b565b6115647f6d8ea07f2da76c222de40f7bea64be677077c0f7ad4a898eea5fd8ee80e2694a600102612d1b565b61156e8383612d1e565b92915050565b6115a07fcb049ed2f483be6c0944c2c03cebba45371d8e0ef11e4518263bd2fbbda7f593600102612d18565b6115cc7f5dbffe83b36d40e7d651f2d3531e4a4824b9dc6ccb6586f84d10976bd60ae08d600102612d18565b6115f87f31f8d3048db660f92f7d2b610b6a9c7cae1f6a13dda0027f8885b1f585ba6283600102612d18565b6116247fa2a47da5016dac4687136caeff8e35d8d21ddaedc8808cd08f29ccfc21bfac73600102612d18565b6000809054906101000a900473ffffffffffffffffffffffffffffffffffffffff1673ffffffffffffffffffffffffffffffffffffffff163373ffffffffffffffffffffffffffffffffffffffff1614151561167f57600080fd5b6116ab7f75897d7cfe76dbf024f81b5ad6072a4019a8f8439308212c47ad1e9256df43c0600102612d18565b6116d77f3ffe5ec58b9e7787ceecb0adf9d00ef109fb30448b7229696966b751a6dac161600102612d18565b6117037fee02b3c60f7bfcd131c9c4bfd3f91b2a91a6ce97b6a6d4307266329177605601600102612d18565b61172f7f43afdfb745d28db79002d8d11f06a461d1a6196edc9d887c659754e88a29b922600102612d18565b61175b7f8ec630ab56ff4ad877f695df339f06d409f6c7ddf449da0d8db84c833f37f763600102612d18565b6117877f6f467694727c3dc109758fd72c4058843bacb5cdcee39f9ace95414345acf38a600102612d18565b600260149054906101000a900460ff1615156117a257600080fd5b6117ce7f39fe575960af02d10117b59a53d57d89b0bf68648612a8334474037b391b7fb3600102612d18565b6117fa7ff23eb7d426163ac3eb04e8e07e1cb74434c2877a79d57f6cff7670864e0f1841600102612d18565b6118267f9e488e65048831a2ec3bbe8010ee312b58023109c588537cf11da03689fc46a1600102612d18565b6118527f19d1644c0ba78d7d9378f48abb0889dbb78b76b0f9b81111d08879bc90ea64ea600102612d18565b61187e7f069eeaf91fae0aa54459b92512201a5b8a2253bd9002e53f35a603e641338e2b600102612d18565b6000600260146101000a81548160ff021916908315150217905550565b600a6020528060005260406000206000915054906101000a900473ffffffffffffffffffffffffffffffffffffffff1681565b6118fa7fcb049ed2f483be6c0944c2c03cebba45371d8e0ef11e4518263bd2fbbda7f593600102612d18565b6119267f5dbffe83b36d40e7d651f2d3531e4a4824b9dc6ccb6586f84d10976bd60ae08d600102612d18565b6119527f31f8d3048db660f92f7d2b610b6a9c7cae1f6a13dda0027f8885b1f585ba6283600102612d18565b61197e7fa2a47da5016dac4687136caeff8e35d8d21ddaedc8808cd08f29ccfc21bfac73600102612d18565b6000809054906101000a900473ffffffffffffffffffffffffffffffffffffffff1673ffffffffffffffffffffffffffffffffffffffff163373ffffffffffffffffffffffffffffffffffffffff161415156119d957600080fd5b611a057f75897d7cfe76dbf024f81b5ad6072a4019a8f8439308212c47ad1e9256df43c0600102612d18565b611a317f3ffe5ec58b9e7787ceecb0adf9d00ef109fb30448b7229696966b751a6dac161600102612d18565b611a5d7ff1e72032e90a3e1a47208c42f7f34042a7e90b2f31193334e4b128d037b651c0600102612d18565b611a897f78a7fa1c042e72da4ad8de55a20c66f852a96a40de26d4522e89bdf6e77d4186600102612d18565b611ab57f84296041346391b56842bae36df9b671b45eb524eaab184565542d7b914377a9600102612d18565b611ae17f60e69f9a5dd02a5938cafb1e9882e0b3408f195223129d88d76bf05cf0c9484f600102612d18565b600073ffffffffffffffffffffffffffffffffffffffff168173ffffffffffffffffffffffffffffffffffffffff1614151515611b1d57600080fd5b611b497feba6f866472b379aff7ab6f5ee6c37dde5f2de5f1389ef90ad259b8a37d3e30c600102612d18565b611b757ff08abe3269ba40116cd3b8d372e08d57d1ff0622934b37fd86afaf2895d00d0f600102612d18565b611ba17f768722a54a3015d9d677146738ff817be4474287bb29c98cba6b2250674b9449600102612d18565b80600160006101000a81548173ffffffffffffffffffffffffffffffffffffffff021916908373ffffffffffffffffffffffffffffffffffffffff16021790555050565b611c117fb69f109befabd82f0425a91e79f5bd4e799a7cec12ca055bf58bdf7fe88ad793600102612d18565b611c3d7f4843d20f00be7ad37e3c9c8682a846faa4ca3c0ea1f9dc4c391997309853de24600102612d18565b611c697f20fc88088867130d183d94e5a9048dba311ceb5f1b9a4f5535adf564d8374b6d600102612d18565b611c957fbd896113fdf13ab83be8d5359d5f98252bcf796eea8f5545bf18b2e15a729127600102612d18565b600260009054906101000a900473ffffffffffffffffffffffffffffffffffffffff1673ffffffffffffffffffffffffffffffffffffffff163373ffffffffffffffffffffffffffffffffffffffff161480611d3d57506000809054906101000a900473ffffffffffffffffffffffffffffffffffffffff1673ffffffffffffffffffffffffffffffffffffffff163373ffffffffffffffffffffffffffffffffffffffff16145b80611d955750600160009054906101000a900473ffffffffffffffffffffffffffffffffffffffff1673ffffffffffffffffffffffffffffffffffffffff163373ffffffffffffffffffffffffffffffffffffffff16145b1515611da057600080fd5b611dcc7f60622880a82287035558e7b8916b20a1e316cee24d7ae16889a055eab3d55316600102612d18565b611df87fd0b955e469a12ebbfb62ad1da478a6acecacfd1ebcf54bf0dad13514548cd979600102612d18565b611e247f88c7b7750111464c97655b2d1d9753b38c6f77aef0856ee80507f7099872697d6001026130da565b611e507febeefd441312018ec6deb6b0edaa454d5161fd9efa6ef40328812fadec8d0da36001026130da565b611e7c7f701900518f35ca476c958b90a5f2bede67febfc77eab1b093f6494b32b99cdf06001026130da565b611ea87f5382d0930765c0f082dd7aa6eb2b76fcd9f11b30924e1a951fd617237a8b304c6001026130da565b60036000600e81101515611eb857fe5b600891828204019190066004029054906101000a900463ffffffff1663ffffffff1681101515611ee757600080fd5b611f137f1a848bfce7342e2d2242b8a58161fe912c6dbbca8a7ce0047cb4eeee320ffb286001026130da565b611f3f7f4060d5ff5377de6c4483c6917cbed376e4288dc779d82b477cd35ea98d2e26896001026130da565b611f6b7f31535343482e20ce8423fef900115f5c7475e7adb6f6c1d4f3efba6af014bbc86001026130da565b8060058190555050565b600260149054906101000a900460ff1681565b600b60009054906101000a900463ffffffff1681565b60055481565b611fd07fb69f109befabd82f0425a91e79f5bd4e799a7cec12ca055bf58bdf7fe88ad793600102612d18565b611ffc7f4843d20f00be7ad37e3c9c8682a846faa4ca3c0ea1f9dc4c391997309853de24600102612d18565b6120287f20fc88088867130d183d94e5a9048dba311ceb5f1b9a4f5535adf564d8374b6d600102612d18565b6120547fbd896113fdf13ab83be8d5359d5f98252bcf796eea8f5545bf18b2e15a729127600102612d18565b600260009054906101000a900473ffffffffffffffffffffffffffffffffffffffff1673ffffffffffffffffffffffffffffffffffffffff163373ffffffffffffffffffffffffffffffffffffffff1614806120fc57506000809054906101000a900473ffffffffffffffffffffffffffffffffffffffff1673ffffffffffffffffffffffffffffffffffffffff163373ffffffffffffffffffffffffffffffffffffffff16145b806121545750600160009054906101000a900473ffffffffffffffffffffffffffffffffffffffff1673ffffffffffffffffffffffffffffffffffffffff163373ffffffffffffffffffffffffffffffffffffffff16145b151561215f57600080fd5b61218b7f60622880a82287035558e7b8916b20a1e316cee24d7ae16889a055eab3d55316600102612d18565b6121b77fd0b955e469a12ebbfb62ad1da478a6acecacfd1ebcf54bf0dad13514548cd979600102612d18565b6121e37fcb2648b67b0de279cb753577ec77c6b2ea08d23aa34ef2f48c5aab3c2f7b3313600102612d18565b61220f7f6f460441e04e9f2fab210055dfdc65babe4e31ac3fe89dcb41c84c7fb0375991600102612d18565b61223b7f3dde09caefb3a1f40ad03cded37744ff16ee712b622d5384bd28cad309760ae7600102612d18565b6122677f7808d25d5414a096b7d4484dd157a0f0c9b5f6c11dae49f7d70fd4cb3bbde232600102612d18565b600260149054906101000a900460ff1615151561228357600080fd5b6122af7f8b5d68b72118d3191a023266c39777d9f072660abc89f2761d9e6c792bd310c3600102612d18565b6122da7ead53c480053279c157a04c0652ee4064d1c599d726b53bdfe5e51538b40691600102612d18565b6123067fa07ca5d175b133ae832f77419d6f3b779170753f00463e0943a8af7cc6810088600102612d18565b6123327fc42a084f1bec46c22a34c451ca67a9000bb683163b10d858e18d49d6ce637f73600102612d18565b61235e7f0daab85665d9b4c8a0072fc446e1de6088d904d0dff31d5507110d249b2b78ec600102612d18565b6001600260146101000a81548160ff021916908315150217905550565b60006123a97f34ba93981658c3daa5f666bbb9fe4c2050f8795f520af64c257be31ef93f4a7e600102612d1b565b6123d57f6e13615425708a7761bd047818bc837ac9fb4bd1e59bf3fa4452e4cbd770a560600102612d1b565b6124017f1dc2ce0d010e73d168ffe98a84a9bc524a16f273016615775624f5da12869a7e600102612d1b565b61242d7f7988d104597cafdb112f343393a63efde85108a1f51c7a8effe784254afa55de600102612d1b565b60011515600d60003373ffffffffffffffffffffffffffffffffffffffff1673ffffffffffffffffffffffffffffffffffffffff16815260200190815260200160002060009054906101000a900460ff16151514151561248c57600080fd5b6124b87f74c308184e27580c17a1d0b6ff599bb36cc06cea53ef2b0b67c3f3d831015915600102612d1b565b6124e47ff94d3c11b156185524dc880705acc4e207d4e6c8ac4a3c0d0c44c9bda5848526600102612d1b565b6125107ff50e21c65a09e47887f3e66fc375b960d6cdee977357cd8f05b332b86389e0de600102612d1b565b61253c7f06fe3d109c5f8f7118a26976524468fc10948d9e12c159cbab4bdf5c54114168600102612d1b565b6125687ff2819c7e9c887c84687b31a37f976a82fefcc299c4d27256e4e80e14d00b383f600102612d1b565b600e600083815260200190815260200160002060009054906101000a900461ffff169050919050565b600381600e811015156125a057fe5b60089182820401919006600402915054906101000a900463ffffffff1681565b60096020528060005260406000206000915054906101000a900473ffffffffffffffffffffffffffffffffffffffff1681565b600260009054906101000a900473ffffffffffffffffffffffffffffffffffffffff1681565b6126457f34ba93981658c3daa5f666bbb9fe4c2050f8795f520af64c257be31ef93f4a7e600102612d1b565b6126717f6e13615425708a7761bd047818bc837ac9fb4bd1e59bf3fa4452e4cbd770a560600102612d1b565b61269d7f1dc2ce0d010e73d168ffe98a84a9bc524a16f273016615775624f5da12869a7e600102612d1b565b6126c97f7988d104597cafdb112f343393a63efde85108a1f51c7a8effe784254afa55de600102612d1b565b60011515600d60003373ffffffffffffffffffffffffffffffffffffffff1673ffffffffffffffffffffffffffffffffffffffff16815260200190815260200160002060009054906101000a900460ff16151514151561272857600080fd5b6127547f74c308184e27580c17a1d0b6ff599bb36cc06cea53ef2b0b67c3f3d831015915600102612d1b565b6127807ff94d3c11b156185524dc880705acc4e207d4e6c8ac4a3c0d0c44c9bda5848526600102612d1b565b6127ac7f67cba99f09910c9c85ba4df093127c921a442884d0040f31f41bc6b40b380f21600102612d1b565b6127d87fc68a105e427ae89d1f42312c81697992ee0b0a40aa78c683c0d958fa98d5d6db600102612d1b565b6128047facea46e834496401e5b20be70253fbca1859b9ea103bfae51d46ffb1f70685a2600102612d1b565b61280e82826130dd565b5050565b60006128407f34ba93981658c3daa5f666bbb9fe4c2050f8795f520af64c257be31ef93f4a7e600102612d1b565b61286c7f6e13615425708a7761bd047818bc837ac9fb4bd1e59bf3fa4452e4cbd770a560600102612d1b565b6128987f1dc2ce0d010e73d168ffe98a84a9bc524a16f273016615775624f5da12869a7e600102612d1b565b6128c47f7988d104597cafdb112f343393a63efde85108a1f51c7a8effe784254afa55de600102612d1b565b60011515600d60003373ffffffffffffffffffffffffffffffffffffffff1673ffffffffffffffffffffffffffffffffffffffff16815260200190815260200160002060009054906101000a900460ff16151514151561292357600080fd5b61294f7f74c308184e27580c17a1d0b6ff599bb36cc06cea53ef2b0b67c3f3d831015915600102612d1b565b61297b7ff94d3c11b156185524dc880705acc4e207d4e6c8ac4a3c0d0c44c9bda5848526600102612d1b565b6129a77f3656f412e650a736b30ee1b85a53658a3bd9bc4678c84f95fdecc8c72ae2fb3c600102612d1b565b6129d37f0244e02df212c49d5e5083f6b9f775798a5b4f2c76ffbd89f8c203cbc5d2131d600102612d1b565b6129ff7f61275c1adf3df590bc0343e12b4cf45efe3858615c8b482b9cf319e8437165b0600102612d1b565b612a0c8686868686613a1e565b905095945050505050565b600b60049054906101000a900473ffffffffffffffffffffffffffffffffffffffff1681565b612a697f34ba93981658c3daa5f666bbb9fe4c2050f8795f520af64c257be31ef93f4a7e600102612d1b565b612a957f6e13615425708a7761bd047818bc837ac9fb4bd1e59bf3fa4452e4cbd770a560600102612d1b565b612ac17f1dc2ce0d010e73d168ffe98a84a9bc524a16f273016615775624f5da12869a7e600102612d1b565b612aed7f7988d104597cafdb112f343393a63efde85108a1f51c7a8effe784254afa55de600102612d1b565b60011515600d60003373ffffffffffffffffffffffffffffffffffffffff1673ffffffffffffffffffffffffffffffffffffffff16815260200190815260200160002060009054906101000a900460ff161515141515612b4c57600080fd5b612b787f74c308184e27580c17a1d0b6ff599bb36cc06cea53ef2b0b67c3f3d831015915600102612d1b565b612ba47ff94d3c11b156185524dc880705acc4e207d4e6c8ac4a3c0d0c44c9bda5848526600102612d1b565b612bd07f7fb78cee7876fe59378c92d71f0664000626f133d8bb0b1d4b78bd9087d3f121600102612d1b565b612bfc7fe2b5c6114496aadc5d19b41e7b20676ec5a3b9c6b840bced39f01be4854c255d600102612d1b565b612c287f48e29eabc4f5ead65887aabc5074676ef1ac52c07b1b60e89f0b4631ca0fb2b6600102612d1b565b612c547fd58cca48d34222c8aad5b20d74c4becb0914b674b3f7e54d6115e474a901cc38600102612d1b565b6000600e600083815260200190815260200160002060009054906101000a900461ffff1661ffff16141515612c8857600080fd5b612cb47ffd755bf1f4d210adf86e1976af870c2dde76ef249a2e04281723ec2d67834b49600102612d1b565b612ce07fecb91de1a63b000aba28b86778eac2321e7269fe1df84c98cf8cc02b2beb4c2d600102612d1b565b612d0c7fc843093e22fdbe07b710d6cfb557f4adc198b468a9328fb3373a8878c49f0f78600102612d1b565b612d1581614334565b50565b50565b50565b6000612d4c7f4ac87dde4a4fbaca206364122e0df3a6f4184df6c76089275191a1a34ad9d3b5600102612d1b565b612d787f54cd04fb1ca2f4b806ac1fd822067d8213e04e80be4638862e29ac77e9b81ba1600102612d1b565b612da47f145cf622b2babc155e6defba81267c326ef5e297fe33e809a972ee7f207dbaea600102612d1b565b612dd07f7afe5a0d7123df7eb4b516447a4b1f38456e55b80cdc5d51b0e89076e787f3ac600102612d1b565b60008261ffff16111515612de357600080fd5b612e0f7f1d0857e361644fc529011044b538b4529871176050090b70cff8659acaccb4d3600102612d1b565b612e3b7fe44b9a926eb40ebe146f72fe8eb1f294bb0f38a6706d5d4f1dba7c251baec6b1600102612d1b565b612e677feee4bbc877551112a62887ca03948a0987c894b2b6194910b2f5dc2fd97b7760600102612d1b565b600e600084815260200190815260200160002060009054906101000a900461ffff169050612eb77f8cf086795e83053371bfd98d3f0c3dcd9d14bf9fb5aa9fe2eece2123f6fdd242600102612d1b565b612ee37f01ce12e48fd9ff60619a8c1b06837766ea5450b349c6af278e6eb7a1ec03ffe2600102612d1b565b612f0f7ff0c1f85969b006723f322c591da0ed4e84fa6e4601d81473e570f9fd14d8f530600102612d1b565b8161ffff1682821661ffff16141515612f2757600080fd5b612f537f4d861962e20dbdb5080ce1b51f69537cc1a42ecf230a3189f84fce7c681221f5600102612d1b565b612f7f7fb94b1ad502b870dbe3e12366b95058558b90074bb995f8afdf882f83d16263b0600102612d1b565b612fab7f75e7611228a417365986770319c879df6fa4cd8f9bdfc4d4a52a84d82ad9f2b9600102612d1b565b8181189050612fdc7f96978da1a422b0e207baf3b657187fb19d3e499dec944e636702b68ea68a9133600102612d1b565b6130087f3938bb22cba27a8e5cc6b45e821b00e56065102b6c703457829aacd8cba95ab7600102612d1b565b80600e600085815260200190815260200160002060006101000a81548161ffff021916908361ffff1602179055506130627f6d57617351ba084e8df47de9c0daa6faa76c09247c21437800b7f4ccd12bda36600102612d1b565b61308e7f848cad68c32655ac5b251517988645ef74f7ef99629035530f340e296d851ee3600102612d1b565b7f96b828b49c6eb235f60dde08b68959e6baef50b35a662b6db3cade02872d32308382604051808381526020018261ffff1661ffff1681526020019250505060405180910390a1505050565b50565b600080600061310e7f30b3c0c07f817dafdfffaee96129a64ed0252f6d4f88bdf6689d91ff88c28b98600102612d1b565b61313a7fefb5a35eb8ad79ba48054c709e228dd7dbfdfc68c58580adb17f1715709dc7b9600102612d1b565b6131667f93897e5e4f0490c70ec66e3ab20babb0381539bbd7b462636741e647dad3b07d600102612d1b565b6131927f3a0b0da1d2727e73151991689b1d22dfd55239844895e6ef4796b34b1dfb827a600102612d1b565b60008461ffff161115156131a557600080fd5b6131d17fff6e6b515b5052191d21f38fe509f261f0c071be5aaea800df82640c8df8f791600102612d1b565b6131fd7fe7cd3c148583c2c234c5ac5ebb174b2f156289705f88211a2df38001e2de13ca600102612d1b565b6132297f23eb2b7e5de59567a952a5b82fd9849791ee10d27634e2dff1e1df0a1def7cc6600102612d1b565b600e600086815260200190815260200160002060009054906101000a900461ffff1692506132797f55037fb314b64c8f20560384d516302940ab9f974f0531f099c550d1050f5903600102612d1b565b6132a57fb11cd56a03ed3baf4fccdaf582775e900a18967e82bdd6ce6b0468bae84b1050600102612d1b565b6132d17fa2c2252e1fd0b00357ef6891633c811d43afc0e7d65634d16c7af39fcb8601c0600102612d1b565b600084841661ffff161415156132e657600080fd5b6133127f6f7bf2380ace03fd483e980d236b3e4c7710c2b7244afe4472ba0f9898a3db24600102612d1b565b61333e7f6c10ea1b0236b8ee0ad35e5237d0b5db9408b0bc7067db8f342fe52009fc8373600102612d1b565b61336a7f0d7fd561126f0f0bcf21c8bf4350f50f2a7d52cced44984eaff79aa54ec3e981600102612d1b565b60006001851661ffff1611156134fa576133a67f02a4f3925f497b7d2ee9996bddbea4dadca312842cdcf74979559814a7067fba600102612d1b565b6133d27febc637a85560d6ffae62fb4c404b7d1b11e6f55c9c56a58b99caab9bee49097f600102612d1b565b6133fe7fbf07c53372620d01520a813ea28f410c76de0c5f7b1fea242a87aa97a53eaf83600102612d1b565b60068581548110151561340d57fe5b906000526020600020906002020191506134497fd9233b1840b187e0c75913678471c4c475d8532990e2bbc7832428d71c42e2a7600102612d1b565b6134747e6a523462a1fbffb589cf4df51da84b90f1be151c6f1a2f6226adbc09a66e94600102612d1b565b6134a07f4a92f8a9bcfbafe20393bc702f456621de335a9d2ceb38b29cd712e15b63064e600102612d1b565b60008260010160189054906101000a900463ffffffff1663ffffffff161415156134c957600080fd5b6134f57f12c3f201f963fe0bc1618165943230b493c9dd69ae689e0b7889d5f4c6a16147600102612d1b565b613527565b6135267fc9cca3a192861a6022fd7a79c716c6c0f4147c2617d61e5e583f742235f3808c600102612d1b565b5b6135537fbe622a7b80f398edac5b4cfdb9a5e9f7fcefdc258228f76192a044251cb099ed600102612d1b565b61357f7f0155e94e24413f19925d5d01f5c6a62446cb4960f4cbbf923f6019a812fdac75600102612d1b565b60006002851661ffff161115613868576135bb7fea0b39bb3401da2ba2193e82a828b647bb700c729c64bf035d13159d53df323b600102612d1b565b6135e77f647df0b364bd04b555878e67aa2eb317c398b0e6f5969c1d5cb7948f6fdd3379600102612d1b565b6136137fa987d65536459f7a177983ddeecd62293198b6418013d86210d45b205146cd5a600102612d1b565b6007600086815260200190815260200160002060009054906101000a900473ffffffffffffffffffffffffffffffffffffffff1690506136757f1b39c73a301f165d9a09749be212acae4448b3d3c619ecd8fd231db2b6e11d49600102612d1b565b6136a17f3cbf2b7ec09d0ffabd48dba55e37105ba06ce4220d4112c32ee7c8d0cc660f1b600102612d1b565b6136cd7faa6492b4f706069f0264a319f809768001735d2413328fca62f05274da94b426600102612d1b565b600b60049054906101000a900473ffffffffffffffffffffffffffffffffffffffff1673ffffffffffffffffffffffffffffffffffffffff168173ffffffffffffffffffffffffffffffffffffffff161415151561372a57600080fd5b6137567fe059c8bdaf6adb1f8f8ae0edcedf4643d9870a363eba1e6c610b08261e829843600102612d1b565b6137827fbf5a9dca3e48586353f9a8494a089d0311a4b228b486e7938de3c26983cecaf5600102612d1b565b6137ae7ff206735294317e20417acabe2de93e8ef38b2977a6f93490b4b5c5e86100add7600102612d1b565b6137da7f0c3cabacefc33d2e4629aff68c39c4d965496a9394e502ec9e63e61e8ebad658600102612d1b565b600c60009054906101000a900473ffffffffffffffffffffffffffffffffffffffff1673ffffffffffffffffffffffffffffffffffffffff168173ffffffffffffffffffffffffffffffffffffffff161415151561383757600080fd5b6138637f49aa0a15b3f055caf6abbd5dc34799e2c21dd154b821fc2e2e44e790fb7c2165600102612d1b565b613895565b6138947fa9d3ff38c8537170570a1d803812ec42a67bfca83c6eb3ade16c6242090c6d21600102612d1b565b5b6138c17fe0234859e842db30f74650b52863c0729d2204554b633ae06b41f08a87ca9aca600102612d1b565b6138ed7f4cbed3e28005a9191de8e613ac518dca60499640be2fb0652f544766b9090ec8600102612d1b565b838317925061391e7fe4f1d18a7b655aec221cded95fdd22d4e52dfc7750b2bc3622dc6f42abc950a4600102612d1b565b61394a7f1a19063a4298ae335d7abdf41711c297957d39c90203d020227456160d879523600102612d1b565b82600e600087815260200190815260200160002060006101000a81548161ffff021916908361ffff1602179055506139a47ff0f63dbbce3dca433afb8d169b07ba14e59f2960d44389b97f478e70d628f0de600102612d1b565b6139d07fb6e784443591a7f35eec3c769cf9c6cc0bba5e367f5e666a2419931e907bdfc3600102612d1b565b7f96b828b49c6eb235f60dde08b68959e6baef50b35a662b6db3cade02872d32308584604051808381526020018261ffff1661ffff1681526020019250505060405180910390a15050505050565b600080613a29614c30565b6000613a577faf1a83229740af54757f0d9680e14509b125e1b547461ad1a02d170f0feb99546001026130da565b613a837fc2f4059d2ec48df1e30397faa3121fd1a62bd2c11ec8466eff09dc64dafdeb666001026130da565b613aaf7fa2d877341c6464a2a0015a097de4cde74c11053a3b431b5ace80654b63ce98896001026130da565b613adb7fefe04f30b1a96537be450fc4421d0cbec5b077ec9f878225130d9900f7abd51b6001026130da565b8863ffffffff1689141515613aef57600080fd5b613b1b7f891dc4c0acdaf920320fa7b61d1f628b110b269131943c41833c232d970e3c576001026130da565b613b477fb969f4128fee5278f6d097b0186d51b26a75663bed4bf7fca48c5b577f8c88fb6001026130da565b613b737f4aaa246181b1583170f0a88df963d402d913310af01c0716634dd4d50df7f8ee6001026130da565b613b9f7f110b25b6af71b509da1fc3ec6ee020ce7cedf6d094b894c12f059fec873290ff6001026130da565b8763ffffffff1688141515613bb357600080fd5b613bdf7f25c061f5b20be6acc6aae8011390a9a9723977d31b4c5fc07ba733e4eb8f2e296001026130da565b613c0b7f413875cf3c2aceeaed0a027920ebf7d6f73722ce84f13878c08924190a56a3ac6001026130da565b613c377fe83a31f46e02e074e46aa6c4896324efcda91e36b6da44dbed6db903044e64826001026130da565b613c637f69a56fc4a42e9cbace96ed61624e0fab641e6810339c182b87dfe94319ad49c16001026130da565b8661ffff1687141515613c7557600080fd5b613ca17f2231e63dd34fd8fbbeea58fc7e3819749a26f10d60fa51be0b6608d445fa87146001026130da565b613ccd7ff2fdf5413df0643bd28e8ce560e392f0d4c3b865f6e0464b95714a820ab48b5d6001026130da565b613cf97fdbb0207b721227a9eb66221af757237a13f4a0fd20f64a0ae156405aaac87ab46001026130da565b600287811515613d0557fe5b049250613d347f021c2e0632620e122d1505458a088a25d7af7a5526f010e7377d7532beaa5eb26001026130da565b613d607f79e80ce4b5a8e42f8dc16cde6b4a99c55cfa8e4ca345ebd6de1b8da059c7021b6001026130da565b600d8361ffff161115613dfa57613d997fc1226ff867e997d9ca97670bdcf470a26bc65ddd45f29753ca04b78cfb0d718d6001026130da565b613dc57f11e54662bb48f480547b4ca0434c96163dc96a65d6296c7164e275536b8b35916001026130da565b613df17fb1036d9d43d04c9f819b28e80a3ac795ed91d036fed33fcf541f4e7974298d126001026130da565b600d9250613e27565b613e267f035c74e7ae3e2a0098511017d92fa1c07ee808923fd78a2017363505bd568bba6001026130da565b5b613e537f3fc07d5a94cbb4ccfd895cac66e52def11f2085d28185b33e4f6ebc460d4d1d06001026130da565b613e7f7fc9caf35c6751d45e20d11393623ba020060d805c708e5d299058eb7a59c140bc6001026130da565b610100604051908101604052808781526020014267ffffffffffffffff168152602001600067ffffffffffffffff1681526020018a63ffffffff1681526020018963ffffffff168152602001600063ffffffff1681526020018461ffff1681526020018861ffff168152509150613f187f708cf5f9ac8723faed74eef918a9665a9e3d38e093592c8bf219b8d56c7982a06001026130da565b613f447f49479d98da59a94fd2ca59fce468c73941ab208c99cc278d358e01a6357051016001026130da565b6001600683908060018154018082558091505090600182039060005260206000209060020201600090919290919091506000820151816000015560208201518160010160006101000a81548167ffffffffffffffff021916908367ffffffffffffffff16021790555060408201518160010160086101000a81548167ffffffffffffffff021916908367ffffffffffffffff16021790555060608201518160010160106101000a81548163ffffffff021916908363ffffffff16021790555060808201518160010160146101000a81548163ffffffff021916908363ffffffff16021790555060a08201518160010160186101000a81548163ffffffff021916908363ffffffff16021790555060c082015181600101601c6101000a81548161ffff021916908361ffff16021790555060e082015181600101601e6101000a81548161ffff021916908361ffff16021790555050500390506140c87f9aa63b18dca78946b8584ddf38609392dae2f2a07d070e10850b0e23f4a9b40a6001026130da565b6140f47f15d1769b8687d4e8f6aa6d242cdcfa52a14c08c7ad5395161a8363a24f222d466001026130da565b6141207f70d704080f82b558d9d1e5668411e3a7f3393181e9cd6845a2f16a4ae23b1b5b6001026130da565b8063ffffffff168114151561413457600080fd5b6141607fcd95a0a86cc7da87bbf27bdc45f85d1b6f886ee3e7ee1ef053e054615a6320ba6001026130da565b61418c7ff34d4e69368e8b4ef5a6894d75dd89fce064964e799b7b1e76f1d9c15bdf1a746001026130da565b6141b87fa466790e12551182e079b2122ea013e586efae27cddbc576f8402f054c3d0c226001026130da565b7fa2950fd8c03e7518275ee57e05ca76c671969b5445b12b1aeea4b0b30195e5df8582846060015163ffffffff16856080015163ffffffff168660000151876020015167ffffffffffffffff16604051808773ffffffffffffffffffffffffffffffffffffffff1673ffffffffffffffffffffffffffffffffffffffff168152602001868152602001858152602001848152602001838152602001828152602001965050505050505060405180910390a16142957fc700d1ebdeb35e368fd4546f2d66f21598f28f4f23edc64ea6a4d8b8dec0c1ea6001026130da565b6142c17f28f02e64d602931cffbaeabaa94fb8fb5b2cf0e1e898ddb5634433d0cf3348b76001026130da565b6142cd6000868361466a565b6142f97f66687bd90d7dda445e852caa3a4781bba05a310ac12c103b41b22faab0c6bfaa6001026130da565b6143257f0815989a39726999d063a887b0c35b1a0836d8477666d46665c81c042b62d57e6001026130da565b80935050505095945050505050565b60006143627f1d77822df049d83386355f59148204c605a5c33d6c9f15e3110018d9369fb3236001026130da565b61438e7f624b023533af9b442aa96ea7c1cfa9912ab0b1ede76ebbb6aacc5d34213979806001026130da565b6143ba7f91c6a900d6265ed2db5032756e47efd5679dda866ab1a61d3d1a5fde247a12f36001026130da565b6143e67f22e39dd0a5ff2508b65930c6db3525c922a3d95abc4f2814c4bdc1c299d0c7da6001026130da565b6000821115156143f557600080fd5b6144217f05479ce377b2444c682c1a1737140eeb838a7b55f49ed8bd5f32283101f9a98b6001026130da565b61444d7f67382d5223aed1ad0381fb46dbf6542b3c75f94cfc04e6c6dca54ef2820a361e6001026130da565b6144797fdd726886bf0eea761dcd18eab91595656744a9200e61ff548c6234748273f0006001026130da565b6007600083815260200190815260200160002060009054906101000a900473ffffffffffffffffffffffffffffffffffffffff1690506144db7f9b54c4e2be41610caa54d986249bc5b48c678e20afe40d5104acf3e3a679c1396001026130da565b6145077f8ac7b4b5faafe346ba2fc956069ef73443c7120a7ee41b4d674a32c3cc435e956001026130da565b6145337f8b8d425c4143ef81258c88ef6ecf6ef7a0623549d442ee0878ccc73c9992409f6001026130da565b600073ffffffffffffffffffffffffffffffffffffffff168173ffffffffffffffffffffffffffffffffffffffff161415151561456f57600080fd5b61459b7f16e883088c4b0d00738d8472eb66de7f4ca28305d322e800e1037612f9c503036001026130da565b6145c77f27c5745023592ad0dcf7b31c622e7518643aa8728f4dadc54af283f2bffde4b56001026130da565b600b600081819054906101000a900463ffffffff168092919060010191906101000a81548163ffffffff021916908363ffffffff1602179055505061462e7fe7edf42fae71d7245ae4958dc7a148eff4d915fb75466ffdf04f64e4526cbf886001026130da565b61465a7fe8db8fbf6f5968f1907074ad1ee0f91b87ee9b7e0b42c6e6ddb533e6c5beaf626001026130da565b6146668160008461466a565b5050565b6146967f66b696999af1a6a5a345bf3e9f29fedb18e5666a229a977c9f6af3cbc94738bb6001026130da565b6146c27f54f4b79b2d0d8747ddaa341ae0bfe7d5522db5383323e2fd81ebc48cd704e9fb6001026130da565b6146ee7fb3d27e017d666ac9fbc5d11deb51ba46e2b263acea399b7bafbb13c3288af8386001026130da565b600073ffffffffffffffffffffffffffffffffffffffff168273ffffffffffffffffffffffffffffffffffffffff1614156147b65761474f7feddf6b000c535abae7d0b760c7c16929e51af1469b587db67a62afde7e19cf5a6001026130da565b61477b7fa584a9b7faafe335bfebf096b8c371a4f295bf67342dbf5772750ffc39cc3a026001026130da565b6007600082815260200190815260200160002060006101000a81549073ffffffffffffffffffffffffffffffffffffffff0219169055614908565b6147e27f93b059e4aac9bd4320e7a5f7d9980173294e9757131d11de2edc9599f324e3a06001026130da565b61480e7fa6d303d9287b7834d673e33b530dd58e6170c196c236730b72622a4c376d71ff6001026130da565b600860008373ffffffffffffffffffffffffffffffffffffffff1673ffffffffffffffffffffffffffffffffffffffff168152602001908152602001600020600081548092919060010191905055506148897f44ef1e3b61a49bb5208bbbecb00c8bfe5dfc9be34c0480bfaa25ef90a5ecdc5d6001026130da565b6148b57f365ffe523aae4c9ffadf73544c18a5552ff1ff7b389c2cbe13c9d15b3326b9aa6001026130da565b816007600083815260200190815260200160002060006101000a81548173ffffffffffffffffffffffffffffffffffffffff021916908373ffffffffffffffffffffffffffffffffffffffff1602179055505b6149347f2226ce019e47537d8e454ddca5e112d4903790ace74d41dc9d363c43b3410cad6001026130da565b6149607f47385f808687c27d5a59a7dc42f93e0fdeea737f727cc62e711669ff5c38f1086001026130da565b600073ffffffffffffffffffffffffffffffffffffffff168373ffffffffffffffffffffffffffffffffffffffff16141515614b07576149c27f4e6127e4a994fba5df78e71aa18f1f1d523362630cb30aead6876e9990c428c66001026130da565b6149ee7fb235be59090e82c7bfa8a8b8023417fd999d3fd1bba568e191668a4e186e463f6001026130da565b600860008473ffffffffffffffffffffffffffffffffffffffff1673ffffffffffffffffffffffffffffffffffffffff1681526020019081526020016000206000815480929190600190039190505550614a6a7f4ed115f965b9ea3e54650231154a5f18cc3a35f092b81ad39aacaa7e85475e286001026130da565b600a600082815260200190815260200160002060006101000a81549073ffffffffffffffffffffffffffffffffffffffff0219169055614acc7fae028673c4046d8259fe2c9a860fcb6a49bbbaa83d1dd3ca2ac0688d1ae4801f6001026130da565b6009600082815260200190815260200160002060006101000a81549073ffffffffffffffffffffffffffffffffffffffff0219169055614b34565b614b337f31b6fa50e79ee1c74054d4e9d070882636304fdaf307c0f2eb7f23d44fa533fd6001026130da565b5b614b607f0668f245b8ed5f50acf7a77b0b916c0b8f67b3800fb95d8d4d7bd9c893e68e256001026130da565b614b8c7f4d5369baa40700f5ca0035a032d898cee0eeae70c91a454ee4172329d88f4be26001026130da565b7fddf252ad1be2c89b69c2b068fc378daa952ba7f163c4a11628f55a4df523b3ef838383604051808473ffffffffffffffffffffffffffffffffffffffff1673ffffffffffffffffffffffffffffffffffffffff1681526020018373ffffffffffffffffffffffffffffffffffffffff1673ffffffffffffffffffffffffffffffffffffffff168152602001828152602001935050505060405180910390a1505050565b6101006040519081016040528060008152602001600067ffffffffffffffff168152602001600067ffffffffffffffff168152602001600063ffffffff168152602001600063ffffffff168152602001600063ffffffff168152602001600061ffff168152602001600061ffff16815250905600a165627a7a723058209274585b78844f13df8cb9fea67ffa7c4dec570b724852ebb77c04a5149e9e1c0029",
  "linkReferences": {},
  "deployedLinkReferences": {}
}