{
  "_format": "hh-sol-artifact-1",
  "contractName": "BotMinting",
  "sourceName": "contracts/BotCore.sol",
  "abi": [
    {
      "constant": true,
      "inputs": [],
      "name": "cfoAddress",
      "outputs": [
        {
          "name": "",
          "type": "address"
        }
      ],
      "payable": false,
      "stateMutability": "view",
      "type": "function"
    },
    {
      "constant": true,
      "inputs": [],
      "name": "promoCreatedCount",
      "outputs": [
        {
          "name": "",
          "type": "uint256"
        }
      ],
      "payable": false,
      "stateMutability": "view",
      "type": "function"
    },
    {
      "constant": true,
      "inputs": [],
      "name": "name",
      "outputs": [
        {
          "name": "",
          "type": "string"
        }
      ],
      "payable": false,
      "stateMutability": "view",
      "type": "function"
    },
    {
      "constant": false,
      "inputs": [
        {
          "name": "_to",
          "type": "address"
        },
        {
          "name": "_tokenId",
          "type": "uint256"
        }
      ],
      "name": "approve",
      "outputs": [],
      "payable": false,
      "stateMutability": "nonpayable",
      "type": "function"
    },
    {
      "constant": true,
      "inputs": [],
      "name": "ceoAddress",
      "outputs": [
        {
          "name": "",
          "type": "address"
        }
      ],
      "payable": false,
      "stateMutability": "view",
      "type": "function"
    },
    {
      "constant": true,
      "inputs": [],
      "name": "GEN0_STARTING_PRICE",
      "outputs": [
        {
          "name": "",
          "type": "uint256"
        }
      ],
      "payable": false,
      "stateMutability": "view",
      "type": "function"
    },
    {
      "constant": false,
      "inputs": [
        {
          "name": "_address",
          "type": "address"
        }
      ],
      "name": "setSiringAuctionAddress",
      "outputs": [],
      "payable": false,
      "stateMutability": "nonpayable",
      "type": "function"
    },
    {
      "constant": false,
      "inputs": [
        {
          "name": "_contract",
          "type": "address"
        }
      ],
      "name": "addExtension",
      "outputs": [],
      "payable": false,
      "stateMutability": "nonpayable",
      "type": "function"
    },
    {
      "constant": true,
      "inputs": [],
      "name": "totalSupply",
      "outputs": [
        {
          "name": "",
          "type": "uint256"
        }
      ],
      "payable": false,
      "stateMutability": "view",
      "type": "function"
    },
    {
      "constant": true,
      "inputs": [
        {
          "name": "_botId",
          "type": "uint256"
        }
      ],
      "name": "isPregnant",
      "outputs": [
        {
          "name": "",
          "type": "bool"
        }
      ],
      "payable": false,
      "stateMutability": "view",
      "type": "function"
    },
    {
      "constant": true,
      "inputs": [],
      "name": "GEN0_AUCTION_DURATION",
      "outputs": [
        {
          "name": "",
          "type": "uint256"
        }
      ],
      "payable": false,
      "stateMutability": "view",
      "type": "function"
    },
    {
      "constant": true,
      "inputs": [],
      "name": "siringAuction",
      "outputs": [
        {
          "name": "",
          "type": "address"
        }
      ],
      "payable": false,
      "stateMutability": "view",
      "type": "function"
    },
    {
      "constant": false,
      "inputs": [
        {
          "name": "_contract",
          "type": "address"
        }
      ],
      "name": "removeExtension",
      "outputs": [],
      "payable": false,
      "stateMutability": "nonpayable",
      "type": "function"
    },
    {
      "constant": false,
      "inputs": [
        {
          "name": "_from",
          "type": "address"
        },
        {
          "name": "_to",
          "type": "address"
        },
        {
          "name": "_tokenId",
          "type": "uint256"
        }
      ],
      "name": "transferFrom",
      "outputs": [],
      "payable": false,
      "stateMutability": "nonpayable",
      "type": "function"
    },
    {
      "constant": false,
      "inputs": [
        {
          "name": "_address",
          "type": "address"
        }
      ],
      "name": "setGeneScienceAddress",
      "outputs": [],
      "payable": false,
      "stateMutability": "nonpayable",
      "type": "function"
    },
    {
      "constant": true,
      "inputs": [
        {
          "name": "",
          "type": "uint256"
        }
      ],
      "name": "botIndexToOwner",
      "outputs": [
        {
          "name": "",
          "type": "address"
        }
      ],
      "payable": false,
      "stateMutability": "view",
      "type": "function"
    },
    {
      "constant": false,
      "inputs": [
        {
          "name": "_newCEO",
          "type": "address"
        }
      ],
      "name": "setCEO",
      "outputs": [],
      "payable": false,
      "stateMutability": "nonpayable",
      "type": "function"
    },
    {
      "constant": false,
      "inputs": [
        {
          "name": "_newCOO",
          "type": "address"
        }
      ],
      "name": "setCOO",
      "outputs": [],
      "payable": false,
      "stateMutability": "nonpayable",
      "type": "function"
    },
    {
      "constant": false,
      "inputs": [
        {
          "name": "_botId",
          "type": "uint256"
        },
        {
          "name": "_mask",
          "type": "uint16"
        }
      ],
      "name": "extUnlockBot",
      "outputs": [
        {
          "name": "",
          "type": "uint16"
        }
      ],
      "payable": false,
      "stateMutability": "nonpayable",
      "type": "function"
    },
    {
      "constant": false,
      "inputs": [
        {
          "name": "_botId",
          "type": "uint256"
        },
        {
          "name": "_startingPrice",
          "type": "uint256"
        },
        {
          "name": "_endingPrice",
          "type": "uint256"
        },
        {
          "name": "_duration",
          "type": "uint256"
        }
      ],
      "name": "createSaleAuction",
      "outputs": [],
      "payable": false,
      "stateMutability": "nonpayable",
      "type": "function"
    },
    {
      "constant": false,
      "inputs": [],
      "name": "unpause",
      "outputs": [],
      "payable": false,
      "stateMutability": "nonpayable",
      "type": "function"
    },
    {
      "constant": true,
      "inputs": [
        {
          "name": "",
          "type": "uint256"
        }
      ],
      "name": "sireAllowedToAddress",
      "outputs": [
        {
          "name": "",
          "type": "address"
        }
      ],
      "payable": false,
      "stateMutability": "view",
      "type": "function"
    },
    {
      "constant": true,
      "inputs": [
        {
          "name": "_matronId",
          "type": "uint256"
        },
        {
          "name": "_sireId",
          "type": "uint256"
        }
      ],
      "name": "canBreedWith",
      "outputs": [
        {
          "name": "",
          "type": "bool"
        }
      ],
      "payable": false,
      "stateMutability": "view",
      "type": "function"
    },
    {
      "constant": false,
      "inputs": [
        {
          "name": "_botId",
          "type": "uint256"
        },
        {
          "name": "_startingPrice",
          "type": "uint256"
        },
        {
          "name": "_endingPrice",
          "type": "uint256"
        },
        {
          "name": "_duration",
          "type": "uint256"
        }
      ],
      "name": "createSiringAuction",
      "outputs": [],
      "payable": false,
      "stateMutability": "nonpayable",
      "type": "function"
    },
    {
      "constant": false,
      "inputs": [
        {
          "name": "val",
          "type": "uint256"
        }
      ],
      "name": "setAutoBirthFee",
      "outputs": [],
      "payable": false,
      "stateMutability": "nonpayable",
      "type": "function"
    },
    {
      "constant": false,
      "inputs": [
        {
          "name": "_addr",
          "type": "address"
        },
        {
          "name": "_sireId",
          "type": "uint256"
        }
      ],
      "name": "approveSiring",
      "outputs": [],
      "payable": false,
      "stateMutability": "nonpayable",
      "type": "function"
    },
    {
      "constant": false,
      "inputs": [
        {
          "name": "_newCFO",
          "type": "address"
        }
      ],
      "name": "setCFO",
      "outputs": [],
      "payable": false,
      "stateMutability": "nonpayable",
      "type": "function"
    },
    {
      "constant": true,
      "inputs": [],
      "name": "pregnantBots",
      "outputs": [
        {
          "name": "",
          "type": "uint256"
        }
      ],
      "payable": false,
      "stateMutability": "view",
      "type": "function"
    },
    {
      "constant": false,
      "inputs": [
        {
          "name": "secs",
          "type": "uint256"
        }
      ],
      "name": "setSecondsPerBlock",
      "outputs": [],
      "payable": false,
      "stateMutability": "nonpayable",
      "type": "function"
    },
    {
      "constant": true,
      "inputs": [],
      "name": "paused",
      "outputs": [
        {
          "name": "",
          "type": "bool"
        }
      ],
      "payable": false,
      "stateMutability": "view",
      "type": "function"
    },
    {
      "constant": true,
      "inputs": [],
      "name": "destroyedBots",
      "outputs": [
        {
          "name": "",
          "type": "uint32"
        }
      ],
      "payable": false,
      "stateMutability": "view",
      "type": "function"
    },
    {
      "constant": true,
      "inputs": [
        {
          "name": "_tokenId",
          "type": "uint256"
        }
      ],
      "name": "ownerOf",
      "outputs": [
        {
          "name": "owner",
          "type": "address"
        }
      ],
      "payable": false,
      "stateMutability": "view",
      "type": "function"
    },
    {
      "constant": true,
      "inputs": [],
      "name": "GEN0_CREATION_LIMIT",
      "outputs": [
        {
          "name": "",
          "type": "uint256"
        }
      ],
      "payable": false,
      "stateMutability": "view",
      "type": "function"
    },
    {
      "constant": false,
      "inputs": [
        {
          "name": "_address",
          "type": "address"
        }
      ],
      "name": "setSaleAuctionAddress",
      "outputs": [],
      "payable": false,
      "stateMutability": "nonpayable",
      "type": "function"
    },
    {
      "constant": true,
      "inputs": [
        {
          "name": "_owner",
          "type": "address"
        }
      ],
      "name": "balanceOf",
      "outputs": [
        {
          "name": "count",
          "type": "uint256"
        }
      ],
      "payable": false,
      "stateMutability": "view",
      "type": "function"
    },
    {
      "constant": true,
      "inputs": [],
      "name": "secondsPerBlock",
      "outputs": [
        {
          "name": "",
          "type": "uint256"
        }
      ],
      "payable": false,
      "stateMutability": "view",
      "type": "function"
    },
    {
      "constant": false,
      "inputs": [],
      "name": "pause",
      "outputs": [],
      "payable": false,
      "stateMutability": "nonpayable",
      "type": "function"
    },
    {
      "constant": true,
      "inputs": [
        {
          "name": "_owner",
          "type": "address"
        }
      ],
      "name": "tokensOfOwner",
      "outputs": [
        {
          "name": "ownerTokens",
          "type": "uint256[]"
        }
      ],
      "payable": false,
      "stateMutability": "view",
      "type": "function"
    },
    {
      "constant": false,
      "inputs": [
        {
          "name": "_matronId",
          "type": "uint256"
        }
      ],
      "name": "giveBirth",
      "outputs": [
        {
          "name": "",
          "type": "uint256"
        }
      ],
      "payable": false,
      "stateMutability": "nonpayable",
      "type": "function"
    },
    {
      "constant": true,
      "inputs": [
        {
          "name": "_botId",
          "type": "uint256"
        }
      ],
      "name": "extGetLock",
      "outputs": [
        {
          "name": "",
          "type": "uint16"
        }
      ],
      "payable": false,
      "stateMutability": "view",
      "type": "function"
    },
    {
      "constant": false,
      "inputs": [],
      "name": "withdrawAuctionBalances",
      "outputs": [],
      "payable": false,
      "stateMutability": "nonpayable",
      "type": "function"
    },
    {
      "constant": true,
      "inputs": [],
      "name": "symbol",
      "outputs": [
        {
          "name": "",
          "type": "string"
        }
      ],
      "payable": false,
      "stateMutability": "view",
      "type": "function"
    },
    {
      "constant": true,
      "inputs": [
        {
          "name": "",
          "type": "uint256"
        }
      ],
      "name": "cooldowns",
      "outputs": [
        {
          "name": "",
          "type": "uint32"
        }
      ],
      "payable": false,
      "stateMutability": "view",
      "type": "function"
    },
    {
      "constant": true,
      "inputs": [
        {
          "name": "",
          "type": "uint256"
        }
      ],
      "name": "botIndexToApproved",
      "outputs": [
        {
          "name": "",
          "type": "address"
        }
      ],
      "payable": false,
      "stateMutability": "view",
      "type": "function"
    },
    {
      "constant": false,
      "inputs": [
        {
          "name": "_to",
          "type": "address"
        },
        {
          "name": "_tokenId",
          "type": "uint256"
        }
      ],
      "name": "transfer",
      "outputs": [],
      "payable": false,
      "stateMutability": "nonpayable",
      "type": "function"
    },
    {
      "constant": true,
      "inputs": [],
      "name": "cooAddress",
      "outputs": [
        {
          "name": "",
          "type": "address"
        }
      ],
      "payable": false,
      "stateMutability": "view",
      "type": "function"
    },
    {
      "constant": true,
      "inputs": [],
      "name": "autoBirthFee",
      "outputs": [
        {
          "name": "",
          "type": "uint256"
        }
      ],
      "payable": false,
      "stateMutability": "view",
      "type": "function"
    },
    {
      "constant": false,
      "inputs": [
        {
          "name": "_botId",
          "type": "uint256"
        },
        {
          "name": "_mask",
          "type": "uint16"
        }
      ],
      "name": "extLockBot",
      "outputs": [],
      "payable": false,
      "stateMutability": "nonpayable",
      "type": "function"
    },
    {
      "constant": false,
      "inputs": [
        {
          "name": "_genes",
          "type": "uint256"
        },
        {
          "name": "_owner",
          "type": "address"
        }
      ],
      "name": "createPromoBot",
      "outputs": [],
      "payable": false,
      "stateMutability": "nonpayable",
      "type": "function"
    },
    {
      "constant": false,
      "inputs": [
        {
          "name": "_genes",
          "type": "uint256"
        }
      ],
      "name": "createGen0Auction",
      "outputs": [],
      "payable": false,
      "stateMutability": "nonpayable",
      "type": "function"
    },
    {
      "constant": false,
      "inputs": [
        {
          "name": "_matronId",
          "type": "uint256"
        },
        {
          "name": "_sireId",
          "type": "uint256"
        },
        {
          "name": "_generation",
          "type": "uint256"
        },
        {
          "name": "_genes",
          "type": "uint256"
        },
        {
          "name": "_owner",
          "type": "address"
        }
      ],
      "name": "extCreateBot",
      "outputs": [
        {
          "name": "",
          "type": "uint256"
        }
      ],
      "payable": false,
      "stateMutability": "nonpayable",
      "type": "function"
    },
    {
      "constant": true,
      "inputs": [
        {
          "name": "_botId",
          "type": "uint256"
        }
      ],
      "name": "isReadyToBreed",
      "outputs": [
        {
          "name": "",
          "type": "bool"
        }
      ],
      "payable": false,
      "stateMutability": "view",
      "type": "function"
    },
    {
      "constant": true,
      "inputs": [],
      "name": "PROMO_CREATION_LIMIT",
      "outputs": [
        {
          "name": "",
          "type": "uint256"
        }
      ],
      "payable": false,
      "stateMutability": "view",
      "type": "function"
    },
    {
      "constant": true,
      "inputs": [],
      "name": "saleAuction",
      "outputs": [
        {
          "name": "",
          "type": "address"
        }
      ],
      "payable": false,
      "stateMutability": "view",
      "type": "function"
    },
    {
      "constant": false,
      "inputs": [
        {
          "name": "_botId",
          "type": "uint256"
        }
      ],
      "name": "extDestroyBot",
      "outputs": [],
      "payable": false,
      "stateMutability": "nonpayable",
      "type": "function"
    },
    {
      "constant": false,
      "inputs": [
        {
          "name": "_sireId",
          "type": "uint256"
        },
        {
          "name": "_matronId",
          "type": "uint256"
        }
      ],
      "name": "bidOnSiringAuction",
      "outputs": [],
      "payable": true,
      "stateMutability": "payable",
      "type": "function"
    },
    {
      "constant": true,
      "inputs": [],
      "name": "gen0CreatedCount",
      "outputs": [
        {
          "name": "",
          "type": "uint256"
        }
      ],
      "payable": false,
      "stateMutability": "view",
      "type": "function"
    },
    {
      "constant": true,
      "inputs": [],
      "name": "geneScience",
      "outputs": [
        {
          "name": "",
          "type": "address"
        }
      ],
      "payable": false,
      "stateMutability": "view",
      "type": "function"
    },
    {
      "constant": false,
      "inputs": [
        {
          "name": "_matronId",
          "type": "uint256"
        },
        {
          "name": "_sireId",
          "type": "uint256"
        }
      ],
      "name": "breedWithAuto",
      "outputs": [],
      "payable": true,
      "stateMutability": "payable",
      "type": "function"
    },
    {
      "anonymous": false,
      "inputs": [
        {
          "indexed": false,
          "name": "owner",
          "type": "address"
        },
        {
          "indexed": false,
          "name": "matronId",
          "type": "uint256"
        },
        {
          "indexed": false,
          "name": "sireId",
          "type": "uint256"
        },
        {
          "indexed": false,
          "name": "cooldownEndBlock",
          "type": "uint256"
        }
      ],
      "name": "Pregnant",
      "type": "event"
    },
    {
      "anonymous": false,
      "inputs": [
        {
          "indexed": false,
          "name": "from",
          "type": "address"
        },
        {
          "indexed": false,
          "name": "to",
          "type": "address"
        },
        {
          "indexed": false,
          "name": "tokenId",
          "type": "uint256"
        }
      ],
      "name": "Transfer",
      "type": "event"
    },
    {
      "anonymous": false,
      "inputs": [
        {
          "indexed": false,
          "name": "owner",
          "type": "address"
        },
        {
          "indexed": false,
          "name": "approved",
          "type": "address"
        },
        {
          "indexed": false,
          "name": "tokenId",
          "type": "uint256"
        }
      ],
      "name": "Approval",
      "type": "event"
    },
    {
      "anonymous": false,
      "inputs": [
        {
          "indexed": false,
          "name": "botId",
          "type": "uint256"
        },
        {
          "indexed": false,
          "name": "mask",
          "type": "uint16"
        }
      ],
      "name": "Lock",
      "type": "event"
    },
    {
      "anonymous": false,
      "inputs": [
        {
          "indexed": false,
          "name": "owner",
          "type": "address"
        },
        {
          "indexed": false,
          "name": "botId",
          "type": "uint256"
        },
        {
          "indexed": false,
          "name": "matronId",
          "type": "uint256"
        },
        {
          "indexed": false,
          "name": "sireId",
          "type": "uint256"
        },
        {
          "indexed": false,
          "name": "genes",
          "type": "uint256"
        },
        {
          "indexed": false,
          "name": "birthTime",
          "type": "uint256"
        }
      ],
      "name": "Birth",
      "type": "event"
    },
    {
      "anonymous": false,
      "inputs": [
        {
          "indexed": false,
          "name": "newContract",
          "type": "address"
        }
      ],
      "name": "ContractUpgrade",
      "type": "event"
    }
  ],
  "bytecode": "0x60806040526000600260146101000a81548160ff0219169083151502179055506101c060405190810160405280603c63ffffffff1663ffffffff168152602001607863ffffffff1663ffffffff16815260200161012c63ffffffff1663ffffffff16815260200161025863ffffffff1663ffffffff16815260200161070863ffffffff1663ffffffff168152602001610e1063ffffffff1663ffffffff168152602001611c2063ffffffff1663ffffffff16815260200161384063ffffffff1663ffffffff16815260200161708063ffffffff1663ffffffff16815260200161e10063ffffffff1663ffffffff1681526020016201518063ffffffff1663ffffffff1681526020016202a30063ffffffff1663ffffffff1681526020016205460063ffffffff1663ffffffff16815260200162093a8063ffffffff1663ffffffff16815250600390600e620001569291906200017b565b50600f60055566071afd498d0000600f553480156200017457600080fd5b506200025b565b82600e600701600890048101928215620002125791602002820160005b83821115620001de57835183826101000a81548163ffffffff021916908363ffffffff160217905550926020019260040160208160030104928301926001030262000198565b8015620002105782816101000a81549063ffffffff0219169055600401602081600301049283019260010302620001de565b505b50905062000221919062000225565b5090565b6200025891905b808211156200025457600081816101000a81549063ffffffff0219169055506001016200022c565b5090565b90565b61d8f5806200026b6000396000f3006080604052600436106102bf576000357c0100000000000000000000000000000000000000000000000000000000900463ffffffff1680630519ce79146102c457806305e455461461031b57806306fdde0314610346578063095ea7b3146103d65780630a0f8168146104235780630e583df01461047a57806314001f4c146104a5578063170ff3e1146104e857806318160ddd1461052b5780631940a9361461055657806319c2f2011461059b57806321717ebf146105c657806321ee102b1461061d57806323b872dd1461066057806324e7a38a146106cd57806327ab9f201461071057806327d7874c1461077d5780632ba73c15146107c05780633c4b07de146108035780633d7d3f5a1461085a5780633f4ba83a146108a557806346116e6f146108bc57806346d22c70146109295780634ad8c938146109785780634b85fd55146109c35780634dfff04f146109f05780634e0a337914610a3d5780634e4081ef14610a805780635663896e14610aab5780635c975abb14610ad857806361b6683c14610b075780636352211e14610b3e578063680eba2714610bab5780636fbde40d14610bd657806370a0823114610c195780637a7d493714610c705780638456cb5914610c9b5780638462151c14610cb257806388c2a0bf14610d4a5780638a653c9314610d8b57806391876e5714610dd457806395d89b4114610deb5780639d6fac6f14610e7b578063a8f8884d14610ec8578063a9059cbb14610f35578063b047fb5014610f82578063b0c35c0514610fd9578063bf4a548514611004578063bf86e0131461103f578063c3bea9af1461108c578063d1b12b4e146110b9578063d3e6f49f14611138578063defb95841461117d578063e6cbe351146111a8578063e9b58225146111ff578063ed60ade61461122c578063f1ca941014611256578063f2b47d5214611281578063f7d8c883146112d8575b600080fd5b3480156102d057600080fd5b506102d9611302565b604051808273ffffffffffffffffffffffffffffffffffffffff1673ffffffffffffffffffffffffffffffffffffffff16815260200191505060405180910390f35b34801561032757600080fd5b50610330611328565b6040518082815260200191505060405180910390f35b34801561035257600080fd5b5061035b61132e565b6040518080602001828103825283818151815260200191508051906020019080838360005b8381101561039b578082015181840152602081019050610380565b50505050905090810190601f1680156103c85780820380516001836020036101000a031916815260200191505b509250505060405180910390f35b3480156103e257600080fd5b50610421600480360381019080803573ffffffffffffffffffffffffffffffffffffffff16906020019092919080359060200190929190505050611367565b005b34801561042f57600080fd5b506104386117bf565b604051808273ffffffffffffffffffffffffffffffffffffffff1673ffffffffffffffffffffffffffffffffffffffff16815260200191505060405180910390f35b34801561048657600080fd5b5061048f6117e4565b6040518082815260200191505060405180910390f35b3480156104b157600080fd5b506104e6600480360381019080803573ffffffffffffffffffffffffffffffffffffffff1690602001909291905050506117ef565b005b3480156104f457600080fd5b50610529600480360381019080803573ffffffffffffffffffffffffffffffffffffffff169060200190929190505050611bd2565b005b34801561053757600080fd5b50610540611e14565b6040518082815260200191505060405180910390f35b34801561056257600080fd5b5061058160048036038101908080359060200190929190505050611ebf565b604051808215151515815260200191505060405180910390f35b3480156105a757600080fd5b506105b0611f93565b6040518082815260200191505060405180910390f35b3480156105d257600080fd5b506105db611f9a565b604051808273ffffffffffffffffffffffffffffffffffffffff1673ffffffffffffffffffffffffffffffffffffffff16815260200191505060405180910390f35b34801561062957600080fd5b5061065e600480360381019080803573ffffffffffffffffffffffffffffffffffffffff169060200190929190505050611fc0565b005b34801561066c57600080fd5b506106cb600480360381019080803573ffffffffffffffffffffffffffffffffffffffff169060200190929190803573ffffffffffffffffffffffffffffffffffffffff169060200190929190803590602001909291905050506121cd565b005b3480156106d957600080fd5b5061070e600480360381019080803573ffffffffffffffffffffffffffffffffffffffff1690602001909291905050506127cc565b005b34801561071c57600080fd5b5061073b60048036038101908080359060200190929190505050612baf565b604051808273ffffffffffffffffffffffffffffffffffffffff1673ffffffffffffffffffffffffffffffffffffffff16815260200191505060405180910390f35b34801561078957600080fd5b506107be600480360381019080803573ffffffffffffffffffffffffffffffffffffffff169060200190929190505050612be2565b005b3480156107cc57600080fd5b50610801600480360381019080803573ffffffffffffffffffffffffffffffffffffffff169060200190929190505050612ef8565b005b34801561080f57600080fd5b5061083c60048036038101908080359060200190929190803561ffff16906020019092919050505061320f565b604051808261ffff1661ffff16815260200191505060405180910390f35b34801561086657600080fd5b506108a36004803603810190808035906020019092919080359060200190929190803590602001909291908035906020019092919050505061340c565b005b3480156108b157600080fd5b506108ba6138bc565b005b3480156108c857600080fd5b506108e760048036038101908080359060200190929190505050613be3565b604051808273ffffffffffffffffffffffffffffffffffffffff1673ffffffffffffffffffffffffffffffffffffffff16815260200191505060405180910390f35b34801561093557600080fd5b5061095e6004803603810190808035906020019092919080359060200190929190505050613c16565b604051808215151515815260200191505060405180910390f35b34801561098457600080fd5b506109c160048036038101908080359060200190929190803590602001909291908035906020019092919080359060200190929190505050613f33565b005b3480156109cf57600080fd5b506109ee600480360381019080803590602001909291905050506143e2565b005b3480156109fc57600080fd5b50610a3b600480360381019080803573ffffffffffffffffffffffffffffffffffffffff169060200190929190803590602001909291905050506145d4565b005b348015610a4957600080fd5b50610a7e600480360381019080803573ffffffffffffffffffffffffffffffffffffffff169060200190929190505050614896565b005b348015610a8c57600080fd5b50610a95614bad565b6040518082815260200191505060405180910390f35b348015610ab757600080fd5b50610ad660048036038101908080359060200190929190505050614bb3565b005b348015610ae457600080fd5b50610aed614f43565b604051808215151515815260200191505060405180910390f35b348015610b1357600080fd5b50610b1c614f56565b604051808263ffffffff1663ffffffff16815260200191505060405180910390f35b348015610b4a57600080fd5b50610b6960048036038101908080359060200190929190505050614f6c565b604051808273ffffffffffffffffffffffffffffffffffffffff1673ffffffffffffffffffffffffffffffffffffffff16815260200191505060405180910390f35b348015610bb757600080fd5b50610bc0615119565b6040518082815260200191505060405180910390f35b348015610be257600080fd5b50610c17600480360381019080803573ffffffffffffffffffffffffffffffffffffffff16906020019092919050505061511f565b005b348015610c2557600080fd5b50610c5a600480360381019080803573ffffffffffffffffffffffffffffffffffffffff169060200190929190505050615502565b6040518082815260200191505060405180910390f35b348015610c7c57600080fd5b50610c856155cf565b6040518082815260200191505060405180910390f35b348015610ca757600080fd5b50610cb06155d5565b005b348015610cbe57600080fd5b50610cf3600480360381019080803573ffffffffffffffffffffffffffffffffffffffff1690602001909291905050506159ac565b6040518080602001828103825283818151815260200191508051906020019060200280838360005b83811015610d36578082015181840152602081019050610d1b565b505050509050019250505060405180910390f35b348015610d5657600080fd5b50610d7560048036038101908080359060200190929190505050615fcf565b6040518082815260200191505060405180910390f35b348015610d9757600080fd5b50610db660048036038101908080359060200190929190505050616b16565b604051808261ffff1661ffff16815260200191505060405180910390f35b348015610de057600080fd5b50610de9616d2c565b005b348015610df757600080fd5b50610e00617159565b6040518080602001828103825283818151815260200191508051906020019080838360005b83811015610e40578082015181840152602081019050610e25565b50505050905090810190601f168015610e6d5780820380516001836020036101000a031916815260200191505b509250505060405180910390f35b348015610e8757600080fd5b50610ea660048036038101908080359060200190929190505050617192565b604051808263ffffffff1663ffffffff16815260200191505060405180910390f35b348015610ed457600080fd5b50610ef3600480360381019080803590602001909291905050506171c1565b604051808273ffffffffffffffffffffffffffffffffffffffff1673ffffffffffffffffffffffffffffffffffffffff16815260200191505060405180910390f35b348015610f4157600080fd5b50610f80600480360381019080803573ffffffffffffffffffffffffffffffffffffffff169060200190929190803590602001909291905050506171f4565b005b348015610f8e57600080fd5b50610f97617947565b604051808273ffffffffffffffffffffffffffffffffffffffff1673ffffffffffffffffffffffffffffffffffffffff16815260200191505060405180910390f35b348015610fe557600080fd5b50610fee61796d565b6040518082815260200191505060405180910390f35b34801561101057600080fd5b5061103d60048036038101908080359060200190929190803561ffff169060200190929190505050617973565b005b34801561104b57600080fd5b5061108a60048036038101908080359060200190929190803573ffffffffffffffffffffffffffffffffffffffff169060200190929190505050617b6c565b005b34801561109857600080fd5b506110b76004803603810190808035906020019092919050505061802e565b005b3480156110c557600080fd5b5061112260048036038101908080359060200190929190803590602001909291908035906020019092919080359060200190929190803573ffffffffffffffffffffffffffffffffffffffff169060200190929190505050618509565b6040518082815260200191505060405180910390f35b34801561114457600080fd5b506111636004803603810190808035906020019092919050505061870e565b604051808215151515815260200191505060405180910390f35b34801561118957600080fd5b50611192618957565b6040518082815260200191505060405180910390f35b3480156111b457600080fd5b506111bd61895d565b604051808273ffffffffffffffffffffffffffffffffffffffff1673ffffffffffffffffffffffffffffffffffffffff16815260200191505060405180910390f35b34801561120b57600080fd5b5061122a60048036038101908080359060200190929190505050618983565b005b6112546004803603810190808035906020019092919080359060200190929190505050618c5e565b005b34801561126257600080fd5b5061126b61935f565b6040518082815260200191505060405180910390f35b34801561128d57600080fd5b50611296619365565b604051808273ffffffffffffffffffffffffffffffffffffffff1673ffffffffffffffffffffffffffffffffffffffff16815260200191505060405180910390f35b611300600480360381019080803590602001909291908035906020019092919050505061938b565b005b600160009054906101000a900473ffffffffffffffffffffffffffffffffffffffff1681565b60125481565b6040805190810160405280600a81526020017f43727970746f426f74730000000000000000000000000000000000000000000081525081565b6113937fcb2648b67b0de279cb753577ec77c6b2ea08d23aa34ef2f48c5aab3c2f7b3313600102619d29565b6113bf7f6f460441e04e9f2fab210055dfdc65babe4e31ac3fe89dcb41c84c7fb0375991600102619d29565b6113eb7f3dde09caefb3a1f40ad03cded37744ff16ee712b622d5384bd28cad309760ae7600102619d29565b6114177f7808d25d5414a096b7d4484dd157a0f0c9b5f6c11dae49f7d70fd4cb3bbde232600102619d29565b600260149054906101000a900460ff1615151561143357600080fd5b61145f7f8b5d68b72118d3191a023266c39777d9f072660abc89f2761d9e6c792bd310c3600102619d29565b61148a7ead53c480053279c157a04c0652ee4064d1c599d726b53bdfe5e51538b40691600102619d29565b6114b67f73f27d1582078ef0295938c7b7ab7f3be1e5cc6048e9cc9508a6feef04e1095d600102619d2c565b6114e27ffb7d35519eb0ee941ca5a932582a5263ee71940aee636850cfa01b3b126f3067600102619d2c565b61150e7fb434096f2e5ca8d06c454a21f04ad5f09942234d4e363c211c1420ed4a2e52be600102619d2c565b61153a7fa9c8efc5ce4bc61f305ce46bfcc0de8acc8c44d59aa97d4b61c09d5a5a50ca50600102619d2c565b6115443382619d2f565b151561154f57600080fd5b61157b7fa8f7926d71a6472fe13f29db3af391c76d36edae2364b8e75c20daf48bfd9597600102619d2c565b6115a77fcbf8814163e31ba4fd315f1dcca9acca540f3661836dc3d0675fdfb5044c54f7600102619d2c565b6115d37f6ca082da447e0fdca09edb60240a1bccddd75ea7cc421359bd97351bfd379b2e600102619d2c565b6115ff7faf97db88b3736215d415e6d475805ecaec705fcbd497b0079b25802be6d365c2600102619d2c565b60006002600e600084815260200190815260200160002060009054906101000a900461ffff161661ffff1614151561163657600080fd5b6116627fabe0724bb66fdcb981b83ee011d3446861ecdd983e55c82bcfda252851c0d666600102619d2c565b61168e7f286f0709e1a3c00bd5c53e23b60ab9673abcd305f451e2e5380ca38fb8fffd1e600102619d2c565b6116ba7f8af0e261a7afaa1f451dd3259edc0d69b42f3ca4312ba7255d55fd183399c103600102619d2c565b6116c48183619e1f565b6116f07fae6983cc8c7630a3ba8860ce83e961c7ef6142fbfc5a5dd39af1543d1465f94d600102619d2c565b61171c7f06b1e8b3a5b6375b6be53631cc8b0bf9853c9cd1959449e6a545d233afdb3c19600102619d2c565b7f8c5be1e5ebec7d5bd14f71427d1e84f3dd0314c0f7b2291e5b200ac8c7c3b925338383604051808473ffffffffffffffffffffffffffffffffffffffff1673ffffffffffffffffffffffffffffffffffffffff1681526020018373ffffffffffffffffffffffffffffffffffffffff1673ffffffffffffffffffffffffffffffffffffffff168152602001828152602001935050505060405180910390a15050565b6000809054906101000a900473ffffffffffffffffffffffffffffffffffffffff1681565b662386f26fc1000081565b600061181d7fcb049ed2f483be6c0944c2c03cebba45371d8e0ef11e4518263bd2fbbda7f593600102619d29565b6118497f5dbffe83b36d40e7d651f2d3531e4a4824b9dc6ccb6586f84d10976bd60ae08d600102619d29565b6118757f31f8d3048db660f92f7d2b610b6a9c7cae1f6a13dda0027f8885b1f585ba6283600102619d29565b6118a17fa2a47da5016dac4687136caeff8e35d8d21ddaedc8808cd08f29ccfc21bfac73600102619d29565b6000809054906101000a900473ffffffffffffffffffffffffffffffffffffffff1673ffffffffffffffffffffffffffffffffffffffff163373ffffffffffffffffffffffffffffffffffffffff161415156118fc57600080fd5b6119287f75897d7cfe76dbf024f81b5ad6072a4019a8f8439308212c47ad1e9256df43c0600102619d29565b6119547f3ffe5ec58b9e7787ceecb0adf9d00ef109fb30448b7229696966b751a6dac161600102619d29565b6119807f324752660c17efb762de4dc4a4ac46af3bf845fc2ef21ea266f3aefaca3cc980600102619ef9565b6119ac7fcb5d3011ff5173e7db9bca2185850530a4e465e391e31457983db8caa05c7292600102619ef9565b6119d87f4dba8cef6ad001b7e4a5e36a8eabe7158a3a2e63afd2b1a675c5701346112de4600102619ef9565b819050611a077f22750c26745dd09d8e4ea8cec1e6e0fed051c81b70aa7348e7f5d68b370acc74600102619ef9565b611a337f63c2504063eced5e16881a9a5e5c444adeef5cd2f8e210f6ad7cf1222e489151600102619ef9565b611a5f7f65d5450ab468e008be7cd723ef13e5e5eae14d565346a24ec89fd6d67e6e9a39600102619ef9565b8073ffffffffffffffffffffffffffffffffffffffff166376190f8f6040518163ffffffff167c0100000000000000000000000000000000000000000000000000000000028152600401602060405180830381600087803b158015611ac357600080fd5b505af1158015611ad7573d6000803e3d6000fd5b505050506040513d6020811015611aed57600080fd5b81019080805190602001909291905050501515611b0957600080fd5b611b357f5d9abdeb3394d4a11c5aec3e9642ce5ccc688cc2b1aa9b4c9056c7e33e13a602600102619ef9565b611b617fcda96f0b8ddd97e8d455c1df412bcc9c38f4594d217db2f0176262918e776f13600102619ef9565b611b8d7f0fa7178ada6ef6354d422424aa391b3e1e74ed98f97b9d85d83c43dabf3fab71600102619ef9565b80600c60006101000a81548173ffffffffffffffffffffffffffffffffffffffff021916908373ffffffffffffffffffffffffffffffffffffffff1602179055505050565b611bfe7fcb049ed2f483be6c0944c2c03cebba45371d8e0ef11e4518263bd2fbbda7f593600102619d29565b611c2a7f5dbffe83b36d40e7d651f2d3531e4a4824b9dc6ccb6586f84d10976bd60ae08d600102619d29565b611c567f31f8d3048db660f92f7d2b610b6a9c7cae1f6a13dda0027f8885b1f585ba6283600102619d29565b611c827fa2a47da5016dac4687136caeff8e35d8d21ddaedc8808cd08f29ccfc21bfac73600102619d29565b6000809054906101000a900473ffffffffffffffffffffffffffffffffffffffff1673ffffffffffffffffffffffffffffffffffffffff163373ffffffffffffffffffffffffffffffffffffffff16141515611cdd57600080fd5b611d097f75897d7cfe76dbf024f81b5ad6072a4019a8f8439308212c47ad1e9256df43c0600102619d29565b611d357f3ffe5ec58b9e7787ceecb0adf9d00ef109fb30448b7229696966b751a6dac161600102619d29565b611d617fbf1d85ffe6355fc4f272b2f2d5adc3ad4608c432a5940832e2cc20d377b9a98b600102619efc565b611d8d7f3121b1f0cf694c7aebd4277132a51a0d946c87c20aa931ecdd3eb428bc2ad938600102619efc565b611db97f91b33501a02963141dbd64b5b5bd1c9bb12e2a9f2cd55094b23aecaaf0e998c1600102619efc565b6001600d60008373ffffffffffffffffffffffffffffffffffffffff1673ffffffffffffffffffffffffffffffffffffffff16815260200190815260200160002060006101000a81548160ff02191690831515021790555050565b6000611e427f898aee6ef95aa656f8884189394d48e7887c876270b03a2eb9a38fd154f49a20600102619d2c565b611e6e7fdddbecff26dcf835d644d384922766599f4f95e54a624f935763c4c8686bc29b600102619d2c565b611e9a7ffbf9e60a85a1e336d4656f46007e2199bddfa98f95617e504b3571289e6b0871600102619d2c565b600b60009054906101000a900463ffffffff1663ffffffff1660068054905003905090565b6000611eed7fe7bf1379587a667dd3fb8ff72fc2ac579c208ce7775f03b659d973333fbc4738600102619eff565b611f197f95e2a8b8f85612c67958456e06ffb7afa89e0249e1b703668d0c19608b051d53600102619eff565b611f457ff2440aa14d4eb8747206cf4ee6e44f7470aecc82d1722f22c0fc8f16b50c2883600102619eff565b600082118015611f8c57506000600683815481101515611f6157fe5b906000526020600020906002020160010160189054906101000a900463ffffffff1663ffffffff1614155b9050919050565b6201518081565b600c60009054906101000a900473ffffffffffffffffffffffffffffffffffffffff1681565b611fec7fcb049ed2f483be6c0944c2c03cebba45371d8e0ef11e4518263bd2fbbda7f593600102619d29565b6120187f5dbffe83b36d40e7d651f2d3531e4a4824b9dc6ccb6586f84d10976bd60ae08d600102619d29565b6120447f31f8d3048db660f92f7d2b610b6a9c7cae1f6a13dda0027f8885b1f585ba6283600102619d29565b6120707fa2a47da5016dac4687136caeff8e35d8d21ddaedc8808cd08f29ccfc21bfac73600102619d29565b6000809054906101000a900473ffffffffffffffffffffffffffffffffffffffff1673ffffffffffffffffffffffffffffffffffffffff163373ffffffffffffffffffffffffffffffffffffffff161415156120cb57600080fd5b6120f77f75897d7cfe76dbf024f81b5ad6072a4019a8f8439308212c47ad1e9256df43c0600102619d29565b6121237f3ffe5ec58b9e7787ceecb0adf9d00ef109fb30448b7229696966b751a6dac161600102619d29565b61214f7f8444ef6021167db0d922a2b1e8349b1a5f0b8edd982ba8f491199e31a55d5702600102619efc565b61217b7f2580da3be0f5c047837254c1276bcd16f8442e69e56de9ef1e73c37459f8dfcd600102619efc565b600d60008273ffffffffffffffffffffffffffffffffffffffff1673ffffffffffffffffffffffffffffffffffffffff16815260200190815260200160002060006101000a81549060ff021916905550565b6121f97fcb2648b67b0de279cb753577ec77c6b2ea08d23aa34ef2f48c5aab3c2f7b3313600102619d29565b6122257f6f460441e04e9f2fab210055dfdc65babe4e31ac3fe89dcb41c84c7fb0375991600102619d29565b6122517f3dde09caefb3a1f40ad03cded37744ff16ee712b622d5384bd28cad309760ae7600102619d29565b61227d7f7808d25d5414a096b7d4484dd157a0f0c9b5f6c11dae49f7d70fd4cb3bbde232600102619d29565b600260149054906101000a900460ff1615151561229957600080fd5b6122c57f8b5d68b72118d3191a023266c39777d9f072660abc89f2761d9e6c792bd310c3600102619d29565b6122f07ead53c480053279c157a04c0652ee4064d1c599d726b53bdfe5e51538b40691600102619d29565b61231c7f0889fe94f74f44c65c35ba53712fbab194fa1bb61f615921226ec89ec79af0dc600102619d2c565b6123487f72e97404a545a6ad14e994b3b72e117ca463f792d8462726bc8f8a75f0a867d5600102619d2c565b6123747f98a3efff4491bfdd31db19a4ea6524d91725fcdf8f467170ca66cbf502f4bcdc600102619d2c565b6123a07f5d10d8b8387754f7af183be69aa3cf6d6d24af896abedfabba930b71cd73c2d0600102619d2c565b600073ffffffffffffffffffffffffffffffffffffffff168273ffffffffffffffffffffffffffffffffffffffff16141515156123dc57600080fd5b6124087f33986ea5c636d69115fe35e35cc069b9971677771d2c4d5c0339839f187975a0600102619d2c565b6124347f30f54a806808c7e5a107cef8fda892b8a2fc206208a3c1f30ea18ef4b43858e8600102619d2c565b6124607f8f9ed3e3c37dca59b5e1954a87c197b23556f9c18aba8ecb475882740763c0c3600102619d2c565b61248c7f99ecce2e1df3700019fc1d0501dff4b21f73cadd019023d27f58bee55860b833600102619d2c565b3073ffffffffffffffffffffffffffffffffffffffff168273ffffffffffffffffffffffffffffffffffffffff16141515156124c757600080fd5b6124f37f2de2ffb7058da8280839e5d6a8ddb58621ce4abb510b5fb2139831870d3f1869600102619d2c565b61251f7fc8c4361c344a80898fd02a5ac01d2d7c40cef2895e6ec8a17e76a65488eeba60600102619d2c565b61254b7f5e442fcfa187959ed10b7c75d281059104822e17b99b0075e016c0146d7ec159600102619d2c565b6125777f9ff1cba92654c5fa7243108ea24a0f3e448fb981a1e4731de57aefa2c9675cda600102619d2c565b6125813382619f02565b151561258c57600080fd5b6125b87fc012d300c3df2f91a3d2612b15ca61a1500962d8354da9819cf116a1192c81c7600102619d2c565b6125e47face457e11cfed63f5abda78b37b9706c0a6548ba4d271846614c8c59e5281a5d600102619d2c565b6126107f0fcbfed2c08977871396d7f42dc83de65eb46d744d38f84baec9ffe17d1ed430600102619d2c565b61263c7f06b4769d16a6c1cd61b6ea0cd7badbefb2d6a54dfdffeeb943a1fc768cab9df4600102619d2c565b6126468382619d2f565b151561265157600080fd5b61267d7f173f51cd66e6b7124783f729ab4fa4d3fe6a286663aaf410ff269824de295352600102619d2c565b6126a97f34bd79ec044af2b897b90b1166c070695aaff1c41b44392c88d751ec221b5206600102619d2c565b6126d57f4dc7bd8f4d2ffd4fa3d24905e728f4d790fcba5df163fde95f7bb23e198a8f20600102619d2c565b6127017f67c927596ccd3e5e5c5f1892c2e72f8c7743fef824ddeb68848ea28a461a75da600102619d2c565b60006002600e600084815260200190815260200160002060009054906101000a900461ffff161661ffff1614151561273857600080fd5b6127647fb098cd7bef334ec0c432b74cf3b1065f29f7adb4e04707aa87ee877d25b4dbce600102619d2c565b6127907ff2bbc773a3b17d847e7e427ee26864d6402378f5e24eef228b96502b8c46c376600102619d2c565b6127bc7f2922453e9ea1635c3a5803ae8ccf221b3a46ece39c97592d4531bf583ea1d518600102619d2c565b6127c7838383619ff2565b505050565b60006127fa7fcb049ed2f483be6c0944c2c03cebba45371d8e0ef11e4518263bd2fbbda7f593600102619d29565b6128267f5dbffe83b36d40e7d651f2d3531e4a4824b9dc6ccb6586f84d10976bd60ae08d600102619d29565b6128527f31f8d3048db660f92f7d2b610b6a9c7cae1f6a13dda0027f8885b1f585ba6283600102619d29565b61287e7fa2a47da5016dac4687136caeff8e35d8d21ddaedc8808cd08f29ccfc21bfac73600102619d29565b6000809054906101000a900473ffffffffffffffffffffffffffffffffffffffff1673ffffffffffffffffffffffffffffffffffffffff163373ffffffffffffffffffffffffffffffffffffffff161415156128d957600080fd5b6129057f75897d7cfe76dbf024f81b5ad6072a4019a8f8439308212c47ad1e9256df43c0600102619d29565b6129317f3ffe5ec58b9e7787ceecb0adf9d00ef109fb30448b7229696966b751a6dac161600102619d29565b61295d7ffb5317fd1b5166c3774f920b6fb2db12fd47fc828b83f9a4773ee83582979567600102619eff565b6129897f977d71112e5188f9338ace708886714229e1cc60b10eefe58b44ad0c35d7de23600102619eff565b6129b57fc3d5557feb1159ba466a1e9740f52c40f29ee7769cc7557ee2c3b34a0cfc1484600102619eff565b8190506129e47f622643e69f558353da525ed55064184d5388f570975071d33a842612a70030cb600102619eff565b612a107fdea2bc1c28ef5fe96e8dfca88f09ef8feb28f14e8b05083f7c46d01d6194b3be600102619eff565b612a3c7fab234dfee6b4f8f1a0c6b0a12541efae9e82813600d5564a2c88c708615e89f0600102619eff565b8073ffffffffffffffffffffffffffffffffffffffff166354c15b826040518163ffffffff167c0100000000000000000000000000000000000000000000000000000000028152600401602060405180830381600087803b158015612aa057600080fd5b505af1158015612ab4573d6000803e3d6000fd5b505050506040513d6020811015612aca57600080fd5b81019080805190602001909291905050501515612ae657600080fd5b612b127fc56bd864e5b50f205462a19844dfc4eb411b88e8bf6efbfd889473593e48b6a2600102619eff565b612b3e7f03ed735a4a29523fc209118f2656357e9e128043069213343749a8e98966c83e600102619eff565b612b6a7fc95924bc85c89d7f616594e582a71dbec7ff4a3b48d493ee8135d05f6eb70829600102619eff565b80601160006101000a81548173ffffffffffffffffffffffffffffffffffffffff021916908373ffffffffffffffffffffffffffffffffffffffff1602179055505050565b60076020528060005260406000206000915054906101000a900473ffffffffffffffffffffffffffffffffffffffff1681565b612c0e7fcb049ed2f483be6c0944c2c03cebba45371d8e0ef11e4518263bd2fbbda7f593600102619d29565b612c3a7f5dbffe83b36d40e7d651f2d3531e4a4824b9dc6ccb6586f84d10976bd60ae08d600102619d29565b612c667f31f8d3048db660f92f7d2b610b6a9c7cae1f6a13dda0027f8885b1f585ba6283600102619d29565b612c927fa2a47da5016dac4687136caeff8e35d8d21ddaedc8808cd08f29ccfc21bfac73600102619d29565b6000809054906101000a900473ffffffffffffffffffffffffffffffffffffffff1673ffffffffffffffffffffffffffffffffffffffff163373ffffffffffffffffffffffffffffffffffffffff16141515612ced57600080fd5b612d197f75897d7cfe76dbf024f81b5ad6072a4019a8f8439308212c47ad1e9256df43c0600102619d29565b612d457f3ffe5ec58b9e7787ceecb0adf9d00ef109fb30448b7229696966b751a6dac161600102619d29565b612d717f5fc6eb43ffbf276b62f28fcbf60dc2c180db575c7e9e226e6c6c4ebc9d3cdca6600102619d29565b612d9d7f8600bb7718bfaf280bafb2953b4f5e2e5b7f43eb718f188ebbcea7100f3ec91f600102619d29565b612dc97ff67d7d4f85ade4d4ae9d316f7b6198c820cf3fbdc10cd6c34dbbaa33e43e5b18600102619d29565b612df57fd970e416a7b05f894e16d02c52d34731c3fc2e0bf8267719089224ee103507ca600102619d29565b600073ffffffffffffffffffffffffffffffffffffffff168173ffffffffffffffffffffffffffffffffffffffff1614151515612e3157600080fd5b612e5d7f83b999badfe58cf9aa7350759d8fc576955adf6ab9762923d3e4195cc1fb053d600102619d29565b612e897fee8b0d121d8b68ba51424a21b862b2537b0180682b889c82daf52e6efd481370600102619d29565b612eb57f9023188c9cea07958449ac3498f26f8c50f0236650f38f89ba11bc880e682f36600102619d29565b806000806101000a81548173ffffffffffffffffffffffffffffffffffffffff021916908373ffffffffffffffffffffffffffffffffffffffff16021790555050565b612f247fcb049ed2f483be6c0944c2c03cebba45371d8e0ef11e4518263bd2fbbda7f593600102619d29565b612f507f5dbffe83b36d40e7d651f2d3531e4a4824b9dc6ccb6586f84d10976bd60ae08d600102619d29565b612f7c7f31f8d3048db660f92f7d2b610b6a9c7cae1f6a13dda0027f8885b1f585ba6283600102619d29565b612fa87fa2a47da5016dac4687136caeff8e35d8d21ddaedc8808cd08f29ccfc21bfac73600102619d29565b6000809054906101000a900473ffffffffffffffffffffffffffffffffffffffff1673ffffffffffffffffffffffffffffffffffffffff163373ffffffffffffffffffffffffffffffffffffffff1614151561300357600080fd5b61302f7f75897d7cfe76dbf024f81b5ad6072a4019a8f8439308212c47ad1e9256df43c0600102619d29565b61305b7f3ffe5ec58b9e7787ceecb0adf9d00ef109fb30448b7229696966b751a6dac161600102619d29565b6130877f88c886be51524dd73b922e35a02dca86d0c0b415cf3c56d62a1f13368b3d05e3600102619d29565b6130b37f9f0996057a1a4719f75aa64801cbab8bb062056caa963266efdd3d64b675584e600102619d29565b6130df7f54156e362d900300deebcd999007c710ad9bb1a442a2d97a5bf53bc07079ce3d600102619d29565b61310b7ffd23285df18ee46f15e8858285ad785009d6b2ae9b545be17c967db9f4bc9539600102619d29565b600073ffffffffffffffffffffffffffffffffffffffff168173ffffffffffffffffffffffffffffffffffffffff161415151561314757600080fd5b6131737fcc97a5c8c25fb6ff1ad805fecb7bc6de88c04a665024665354b9a7d6bb355b3d600102619d29565b61319f7fb755be836afd987e535ef2cf142d2fa3bc355b2d721ad31155fe8b917c9659e6600102619d29565b6131cb7f171d8dd485a5f392b5cf3c25f90c4141d93dc94a5fdf9c612a3296f1700d389d600102619d29565b80600260006101000a81548173ffffffffffffffffffffffffffffffffffffffff021916908373ffffffffffffffffffffffffffffffffffffffff16021790555050565b600061323d7f34ba93981658c3daa5f666bbb9fe4c2050f8795f520af64c257be31ef93f4a7e600102619efc565b6132697f6e13615425708a7761bd047818bc837ac9fb4bd1e59bf3fa4452e4cbd770a560600102619efc565b6132957f1dc2ce0d010e73d168ffe98a84a9bc524a16f273016615775624f5da12869a7e600102619efc565b6132c17f7988d104597cafdb112f343393a63efde85108a1f51c7a8effe784254afa55de600102619efc565b60011515600d60003373ffffffffffffffffffffffffffffffffffffffff1673ffffffffffffffffffffffffffffffffffffffff16815260200190815260200160002060009054906101000a900460ff16151514151561332057600080fd5b61334c7f74c308184e27580c17a1d0b6ff599bb36cc06cea53ef2b0b67c3f3d831015915600102619efc565b6133787ff94d3c11b156185524dc880705acc4e207d4e6c8ac4a3c0d0c44c9bda5848526600102619efc565b6133a47f60acf4788f65c7446cd28a54601e564fea9f45a1c5ee6ddbe0dfb88758899949600102619efc565b6133d07f030a7770b1223429e810e10ba6717c794a45261bb291a8621ec4922617ce6357600102619efc565b6133fc7f6d8ea07f2da76c222de40f7bea64be677077c0f7ad4a898eea5fd8ee80e2694a600102619efc565b613406838361a5b8565b92915050565b6134387fcb2648b67b0de279cb753577ec77c6b2ea08d23aa34ef2f48c5aab3c2f7b3313600102619d29565b6134647f6f460441e04e9f2fab210055dfdc65babe4e31ac3fe89dcb41c84c7fb0375991600102619d29565b6134907f3dde09caefb3a1f40ad03cded37744ff16ee712b622d5384bd28cad309760ae7600102619d29565b6134bc7f7808d25d5414a096b7d4484dd157a0f0c9b5f6c11dae49f7d70fd4cb3bbde232600102619d29565b600260149054906101000a900460ff161515156134d857600080fd5b6135047f8b5d68b72118d3191a023266c39777d9f072660abc89f2761d9e6c792bd310c3600102619d29565b61352f7ead53c480053279c157a04c0652ee4064d1c599d726b53bdfe5e51538b40691600102619d29565b61355b7f2d28a9c2517c54a9d91da42420bef8e420cbd9e1f63245666a86e7dd60049cf1600102619ef9565b6135877fd3f65a76b39da1394b17abd9f89c2d298845602ef2f401e5114ac4d3a050291d600102619ef9565b6135b37fcdcdc37ae20c97ed365d854545af838f6e361fa2a46c8b84142dff84293d3668600102619ef9565b6135df7f6b379e6b378dda6242ee7d2e2463ca46c933b23d0e39d2bfd650d2fa367b8268600102619ef9565b6135e93385619d2f565b15156135f457600080fd5b6136207f084c6c249072a99a3c94eefe09915f0253e2fc9430c3e55a4307fe83983506a0600102619ef9565b61364c7f94901083c25b889de8445aa937a202b4f6377ff58478a318a826b33ac5b8085b600102619ef9565b6136787fbc98f474ed5b6e5a1610fd543ebf898ab8e2bd9f44285e0138efa624847387a4600102619ef9565b6136a47ffe7d7ae545abed2d14156d9a59c84d762fd42a57346f18ba82f3d5c30a1b4bac600102619ef9565b6136ad84611ebf565b1515156136b957600080fd5b6136e57f4c7b29c2f5bcbe1471b82d997637206237c1e2482b0b61f9ecf0af2d9485f31a600102619ef9565b6137117f282ee1edb0ad948da39e8b5e608c7e3fb5ad8bb1fcbed6e85c08ad42beb51c1a600102619ef9565b61373d7f92b5445da96bc6cd981b152e0015eeeea1ced0cedde4028fbb91d0b7f3002bc3600102619ef9565b61376984600b60049054906101000a900473ffffffffffffffffffffffffffffffffffffffff16619e1f565b6137957f98f66380dae9ce1e22e787e8b82762c339e2699a35492cc74b6f6e95696b731c600102619ef9565b6137c17ff9f5a05bd26ef66d1177eb2da75c91285bd1fd9ff86e5928ff92a11280e318dd600102619ef9565b600b60049054906101000a900473ffffffffffffffffffffffffffffffffffffffff1673ffffffffffffffffffffffffffffffffffffffff166327ebe40a85858585336040518663ffffffff167c0100000000000000000000000000000000000000000000000000000000028152600401808681526020018581526020018481526020018381526020018273ffffffffffffffffffffffffffffffffffffffff1673ffffffffffffffffffffffffffffffffffffffff16815260200195505050505050600060405180830381600087803b15801561389e57600080fd5b505af11580156138b2573d6000803e3d6000fd5b5050505050505050565b6138e87fcb049ed2f483be6c0944c2c03cebba45371d8e0ef11e4518263bd2fbbda7f593600102619d29565b6139147f5dbffe83b36d40e7d651f2d3531e4a4824b9dc6ccb6586f84d10976bd60ae08d600102619d29565b6139407f31f8d3048db660f92f7d2b610b6a9c7cae1f6a13dda0027f8885b1f585ba6283600102619d29565b61396c7fa2a47da5016dac4687136caeff8e35d8d21ddaedc8808cd08f29ccfc21bfac73600102619d29565b6000809054906101000a900473ffffffffffffffffffffffffffffffffffffffff1673ffffffffffffffffffffffffffffffffffffffff163373ffffffffffffffffffffffffffffffffffffffff161415156139c757600080fd5b6139f37f75897d7cfe76dbf024f81b5ad6072a4019a8f8439308212c47ad1e9256df43c0600102619d29565b613a1f7f3ffe5ec58b9e7787ceecb0adf9d00ef109fb30448b7229696966b751a6dac161600102619d29565b613a4b7fee02b3c60f7bfcd131c9c4bfd3f91b2a91a6ce97b6a6d4307266329177605601600102619d29565b613a777f43afdfb745d28db79002d8d11f06a461d1a6196edc9d887c659754e88a29b922600102619d29565b613aa37f8ec630ab56ff4ad877f695df339f06d409f6c7ddf449da0d8db84c833f37f763600102619d29565b613acf7f6f467694727c3dc109758fd72c4058843bacb5cdcee39f9ace95414345acf38a600102619d29565b600260149054906101000a900460ff161515613aea57600080fd5b613b167f39fe575960af02d10117b59a53d57d89b0bf68648612a8334474037b391b7fb3600102619d29565b613b427ff23eb7d426163ac3eb04e8e07e1cb74434c2877a79d57f6cff7670864e0f1841600102619d29565b613b6e7f9e488e65048831a2ec3bbe8010ee312b58023109c588537cf11da03689fc46a1600102619d29565b613b9a7f19d1644c0ba78d7d9378f48abb0889dbb78b76b0f9b81111d08879bc90ea64ea600102619d29565b613bc67f069eeaf91fae0aa54459b92512201a5b8a2253bd9002e53f35a603e641338e2b600102619d29565b6000600260146101000a81548160ff021916908315150217905550565b600a6020528060005260406000206000915054906101000a900473ffffffffffffffffffffffffffffffffffffffff1681565b6000806000613c477f4179612f41b2e0f1792b808bb56cd1a61ed9398280cfc11594c5a01975ad10a7600102619eff565b613c737fdd77b92d8f954dc4714524bcdb650aa0f49ddd843915e5136298a184394cca90600102619eff565b613c9f7fc81325cf3e9339705fbd1b178477e059c9c0d6cdf4d51165d9a24241f48c4493600102619eff565b613ccb7f6ff1cb4d0258a0f0d8c0410e91b754dfb795f1d9e7522261ab2dd04f0cafe3c4600102619eff565b600085111515613cda57600080fd5b613d067f529cc57518cc5d71783bc08119cbc19bc132d92b5ebd454dcd83b52c656dc70c600102619eff565b613d327ff1b5429c6afcfc1208ad5c2f1827ad2b9c0ef067369e9ba773dfb4e1df4e7830600102619eff565b613d5e7f528720b1c580ecf4e5d54c69cac7fc3ef447100f309351f859585614509d86b1600102619eff565b613d8a7f69a271ec661cd2f67b85d9cdf4d6fe081eef0536a5e5b4166d911f62a5ee87fd600102619eff565b600084111515613d9957600080fd5b613dc57f3abf3715348b8af36a6c455cc3a0d4169afb9ebfbfad4691b891ed74c419a299600102619eff565b613df17f7a5c0440daa8240d04dd2433b0a21957cedc931c9ae04a5c096b130fec1ecd2e600102619eff565b613e1d7ff911531129571f1f39867ab5cc4d602f683f08c3b79eac47820850adbd1c5b50600102619eff565b600685815481101515613e2c57fe5b90600052602060002090600202019150613e687f1cd68f036a116198be71a81e10106609db37eb2730b990c5d41cc68d8dea72cd600102619eff565b613e947fa36d0b236fe7fe2583bf6abf884308a2ae664c9d012228337519e4c4ce20c18c600102619eff565b600684815481101515613ea357fe5b90600052602060002090600202019050613edf7f3091342cf5bab203d368d1c1e6ce88fb4beffa512d7a19e9be98d4a111eef309600102619eff565b613f0b7f4515048e2d415a46add845832efe4d0d65b8158da102522f6e10d3770c0ce289600102619eff565b613f178286838761a974565b8015613f295750613f28848661b23d565b5b9250505092915050565b613f5f7fcb2648b67b0de279cb753577ec77c6b2ea08d23aa34ef2f48c5aab3c2f7b3313600102619d29565b613f8b7f6f460441e04e9f2fab210055dfdc65babe4e31ac3fe89dcb41c84c7fb0375991600102619d29565b613fb77f3dde09caefb3a1f40ad03cded37744ff16ee712b622d5384bd28cad309760ae7600102619d29565b613fe37f7808d25d5414a096b7d4484dd157a0f0c9b5f6c11dae49f7d70fd4cb3bbde232600102619d29565b600260149054906101000a900460ff16151515613fff57600080fd5b61402b7f8b5d68b72118d3191a023266c39777d9f072660abc89f2761d9e6c792bd310c3600102619d29565b6140567ead53c480053279c157a04c0652ee4064d1c599d726b53bdfe5e51538b40691600102619d29565b6140827f167c4a9dca918172174d4d67efbf045e94c2d9af9c92bf466de1d77bc452c692600102619ef9565b6140ae7f0f7a908899067bc3cc77071af5b0384e33cb38a51297a1f4936d1b32b18abd11600102619ef9565b6140da7fd7c6b1a625e40db070d738741e1a3e3c08fd78a5800917a6cbaf4e90f06ad2bd600102619ef9565b6141067f83f415dfe8b8a9c8cbc86562c3740a9d7fda84c8530a89fc07ca0c6368bf3561600102619ef9565b6141103385619d2f565b151561411b57600080fd5b6141477f5465c14ac38a73d50a98f3fb94733767bafd7fa202f06eb8a83edfcc79a3ded6600102619ef9565b6141737f013bda65055cb8ff65092d0cf532c46c92fdb222b47a069fee54f68190b7abdf600102619ef9565b61419f7f1f5c52aa2348fce26b8626af89bd859aad8ecc5ed4db35c9bcb337ab584a57c3600102619ef9565b6141cb7f0de8329cea9a45191a6c63da89c5f327b8b11b9b79eae62cebed57c00d8f98c7600102619ef9565b6141d48461870e565b15156141df57600080fd5b61420b7fb118c39580b10dd5cb5b850c85c863660c51baa8474d08045471ebc26a8dd45c600102619ef9565b6142377fe052168970cede1d37c806626f93c16e2fbb2d0fea5191333c970f208fc813bb600102619ef9565b6142637fde90a9b6bbe1f94fcade1d1ef7d5536dfbf5fc0982de3e7b8f632b744090bd2d600102619ef9565b61428f84600c60009054906101000a900473ffffffffffffffffffffffffffffffffffffffff16619e1f565b6142bb7f7943c56678f0a54699c5c5c7d1fe7cb9bc9dacac645896d89cda9f41f0cff747600102619ef9565b6142e77f213f7d5933e338828981c66df0f81715b2deb49075b8de9558c65a779241e69e600102619ef9565b600c60009054906101000a900473ffffffffffffffffffffffffffffffffffffffff1673ffffffffffffffffffffffffffffffffffffffff166327ebe40a85858585336040518663ffffffff167c0100000000000000000000000000000000000000000000000000000000028152600401808681526020018581526020018481526020018381526020018273ffffffffffffffffffffffffffffffffffffffff1673ffffffffffffffffffffffffffffffffffffffff16815260200195505050505050600060405180830381600087803b1580156143c457600080fd5b505af11580156143d8573d6000803e3d6000fd5b5050505050505050565b61440e7f4b3f31363c06554026c3495535211789942e41625a57b086267e5064f5934af6600102619d29565b61443a7f01fb50a86f8e94902dc9382992dbfa33e19a7eaa3e581679951cbdf2dd876a0a600102619d29565b6144667f5090bdc7b81fb4fb806ffb8a324e9482ba5cf27db77d6fd8a28579d8a407f1e2600102619d29565b6144927f5a2a24182e30eaa462e023aeb84148b625327a032588bd13d612098c07627529600102619d29565b600260009054906101000a900473ffffffffffffffffffffffffffffffffffffffff1673ffffffffffffffffffffffffffffffffffffffff163373ffffffffffffffffffffffffffffffffffffffff161415156144ee57600080fd5b61451a7f68e3652403790d00667b2e33f3cafbd6f6fa0dcc355662d23e6436c566afbc2b600102619d29565b6145467f23b3e2c03a5d93b1565e0b8a6688e0afc1cb86813470da360be15ebc61302903600102619d29565b6145727f6cabde9270e087ba31cdb87267d21ffee9258da846232803912085ae672cea36600102619eff565b61459e7f9309b5242db96fe906ffb234eea5071d6a918c252d2742e9d426452d22e3c9fd600102619eff565b6145ca7f8162e5d9b17df93fd48ab85847e0ad2e1940bb63a74cbf6ce4b13fd03ab0ae75600102619eff565b80600f8190555050565b6146007fcb2648b67b0de279cb753577ec77c6b2ea08d23aa34ef2f48c5aab3c2f7b3313600102619d29565b61462c7f6f460441e04e9f2fab210055dfdc65babe4e31ac3fe89dcb41c84c7fb0375991600102619d29565b6146587f3dde09caefb3a1f40ad03cded37744ff16ee712b622d5384bd28cad309760ae7600102619d29565b6146847f7808d25d5414a096b7d4484dd157a0f0c9b5f6c11dae49f7d70fd4cb3bbde232600102619d29565b600260149054906101000a900460ff161515156146a057600080fd5b6146cc7f8b5d68b72118d3191a023266c39777d9f072660abc89f2761d9e6c792bd310c3600102619d29565b6146f77ead53c480053279c157a04c0652ee4064d1c599d726b53bdfe5e51538b40691600102619d29565b6147237fad28e7924a665847b1d2fde4e4affe352c10b91b810321151508b77b48d5b90c600102619eff565b61474f7fc100db029034fc63b6d18bc837eef1a70983c4c95b8542ebaf8eae92265dfbf6600102619eff565b61477b7faec6a708e6f442d6fdbf7cbed4e5cc60cf04feac290863c89c125f46c3cad80c600102619eff565b6147a77f2db59204b6f9592f003883010f2c3c71fdb586eab3187b72344e974e69e2c069600102619eff565b6147b13382619d2f565b15156147bc57600080fd5b6147e87fb598de23cca3bb111165082fc2b97db1bc0a3642ca6474cf78817234a21319a1600102619eff565b6148147f9140ea333c27a5190cb5dbfd238da4d450e482da96bf0451f5f8251771d62613600102619eff565b6148407fbd6eb5d5dd21aadf9e993a43a9f98191935b4f386d18ce17801e57698471c0e8600102619eff565b81600a600083815260200190815260200160002060006101000a81548173ffffffffffffffffffffffffffffffffffffffff021916908373ffffffffffffffffffffffffffffffffffffffff1602179055505050565b6148c27fcb049ed2f483be6c0944c2c03cebba45371d8e0ef11e4518263bd2fbbda7f593600102619d29565b6148ee7f5dbffe83b36d40e7d651f2d3531e4a4824b9dc6ccb6586f84d10976bd60ae08d600102619d29565b61491a7f31f8d3048db660f92f7d2b610b6a9c7cae1f6a13dda0027f8885b1f585ba6283600102619d29565b6149467fa2a47da5016dac4687136caeff8e35d8d21ddaedc8808cd08f29ccfc21bfac73600102619d29565b6000809054906101000a900473ffffffffffffffffffffffffffffffffffffffff1673ffffffffffffffffffffffffffffffffffffffff163373ffffffffffffffffffffffffffffffffffffffff161415156149a157600080fd5b6149cd7f75897d7cfe76dbf024f81b5ad6072a4019a8f8439308212c47ad1e9256df43c0600102619d29565b6149f97f3ffe5ec58b9e7787ceecb0adf9d00ef109fb30448b7229696966b751a6dac161600102619d29565b614a257ff1e72032e90a3e1a47208c42f7f34042a7e90b2f31193334e4b128d037b651c0600102619d29565b614a517f78a7fa1c042e72da4ad8de55a20c66f852a96a40de26d4522e89bdf6e77d4186600102619d29565b614a7d7f84296041346391b56842bae36df9b671b45eb524eaab184565542d7b914377a9600102619d29565b614aa97f60e69f9a5dd02a5938cafb1e9882e0b3408f195223129d88d76bf05cf0c9484f600102619d29565b600073ffffffffffffffffffffffffffffffffffffffff168173ffffffffffffffffffffffffffffffffffffffff1614151515614ae557600080fd5b614b117feba6f866472b379aff7ab6f5ee6c37dde5f2de5f1389ef90ad259b8a37d3e30c600102619d29565b614b3d7ff08abe3269ba40116cd3b8d372e08d57d1ff0622934b37fd86afaf2895d00d0f600102619d29565b614b697f768722a54a3015d9d677146738ff817be4474287bb29c98cba6b2250674b9449600102619d29565b80600160006101000a81548173ffffffffffffffffffffffffffffffffffffffff021916908373ffffffffffffffffffffffffffffffffffffffff16021790555050565b60105481565b614bdf7fb69f109befabd82f0425a91e79f5bd4e799a7cec12ca055bf58bdf7fe88ad793600102619d29565b614c0b7f4843d20f00be7ad37e3c9c8682a846faa4ca3c0ea1f9dc4c391997309853de24600102619d29565b614c377f20fc88088867130d183d94e5a9048dba311ceb5f1b9a4f5535adf564d8374b6d600102619d29565b614c637fbd896113fdf13ab83be8d5359d5f98252bcf796eea8f5545bf18b2e15a729127600102619d29565b600260009054906101000a900473ffffffffffffffffffffffffffffffffffffffff1673ffffffffffffffffffffffffffffffffffffffff163373ffffffffffffffffffffffffffffffffffffffff161480614d0b57506000809054906101000a900473ffffffffffffffffffffffffffffffffffffffff1673ffffffffffffffffffffffffffffffffffffffff163373ffffffffffffffffffffffffffffffffffffffff16145b80614d635750600160009054906101000a900473ffffffffffffffffffffffffffffffffffffffff1673ffffffffffffffffffffffffffffffffffffffff163373ffffffffffffffffffffffffffffffffffffffff16145b1515614d6e57600080fd5b614d9a7f60622880a82287035558e7b8916b20a1e316cee24d7ae16889a055eab3d55316600102619d29565b614dc67fd0b955e469a12ebbfb62ad1da478a6acecacfd1ebcf54bf0dad13514548cd979600102619d29565b614df27f88c7b7750111464c97655b2d1d9753b38c6f77aef0856ee80507f7099872697d60010261b484565b614e1e7febeefd441312018ec6deb6b0edaa454d5161fd9efa6ef40328812fadec8d0da360010261b484565b614e4a7f701900518f35ca476c958b90a5f2bede67febfc77eab1b093f6494b32b99cdf060010261b484565b614e767f5382d0930765c0f082dd7aa6eb2b76fcd9f11b30924e1a951fd617237a8b304c60010261b484565b60036000600e81101515614e8657fe5b600891828204019190066004029054906101000a900463ffffffff1663ffffffff1681101515614eb557600080fd5b614ee17f1a848bfce7342e2d2242b8a58161fe912c6dbbca8a7ce0047cb4eeee320ffb2860010261b484565b614f0d7f4060d5ff5377de6c4483c6917cbed376e4288dc779d82b477cd35ea98d2e268960010261b484565b614f397f31535343482e20ce8423fef900115f5c7475e7adb6f6c1d4f3efba6af014bbc860010261b484565b8060058190555050565b600260149054906101000a900460ff1681565b600b60009054906101000a900463ffffffff1681565b6000614f9a7f65f3e3971086e7113aafac0fe25d7b331cb31e081db98f3fdc3dab253dbbeb18600102619d2c565b614fc67f6d8593dae41f920f4e43eeb5bdb0ea4efaa08d36b7e3564ef0822d49b18caf08600102619d2c565b614ff27f64721f51e1b2c3351da86d3509c4d78cfd6a6b384b6405fd5af920fada20c2e4600102619d2c565b6007600083815260200190815260200160002060009054906101000a900473ffffffffffffffffffffffffffffffffffffffff1690506150547f1aa33614ceb35d808f0e53d1f84c91e70a8e553d785151d1025e47a2240b402a600102619d2c565b6150807f10260275a33d6a3604b595864cc279d9fe371bfb6d8ff927477d8da7f1344bef600102619d2c565b6150ac7f0e1f3e0b20d56ac5c4b367c90a9d102c41abde6902d7da7a0d993c5387bd5d4b600102619d2c565b600073ffffffffffffffffffffffffffffffffffffffff168173ffffffffffffffffffffffffffffffffffffffff16141515156150e857600080fd5b6151147f1d8b0b6c3fd0db8847926baf6a65398d7c1cedb7305b0e9b79182ffdae9d0a49600102619d2c565b919050565b61afc881565b600061514d7fcb049ed2f483be6c0944c2c03cebba45371d8e0ef11e4518263bd2fbbda7f593600102619d29565b6151797f5dbffe83b36d40e7d651f2d3531e4a4824b9dc6ccb6586f84d10976bd60ae08d600102619d29565b6151a57f31f8d3048db660f92f7d2b610b6a9c7cae1f6a13dda0027f8885b1f585ba6283600102619d29565b6151d17fa2a47da5016dac4687136caeff8e35d8d21ddaedc8808cd08f29ccfc21bfac73600102619d29565b6000809054906101000a900473ffffffffffffffffffffffffffffffffffffffff1673ffffffffffffffffffffffffffffffffffffffff163373ffffffffffffffffffffffffffffffffffffffff1614151561522c57600080fd5b6152587f75897d7cfe76dbf024f81b5ad6072a4019a8f8439308212c47ad1e9256df43c0600102619d29565b6152847f3ffe5ec58b9e7787ceecb0adf9d00ef109fb30448b7229696966b751a6dac161600102619d29565b6152b07f453cfd4397a1bcd64a09704dc64bff39070dfe8564bc10afde744f0a02bbb877600102619ef9565b6152dc7fdcccc2fea408c2c07389d59068f90ce002d6987367789e38dbd53fd4b1394326600102619ef9565b6153087f6f6df50aceab86ace9ac41ef128b1f606abee387aa0ea4c73348fe144e606bfc600102619ef9565b8190506153377f7744193221fae2537216a1e571bf761db4307ed4d8f3bc5bc40d3e971c2470b6600102619ef9565b6153637f2833e2a295b726b60b361e7f38b5b32c2bb82763f6508c8f874dadd94b6f42ac600102619ef9565b61538f7fcc5740ee4df1b4a503ff4e009745de8f7b19fe255f90999464437276660af7b7600102619ef9565b8073ffffffffffffffffffffffffffffffffffffffff166385b861886040518163ffffffff167c0100000000000000000000000000000000000000000000000000000000028152600401602060405180830381600087803b1580156153f357600080fd5b505af1158015615407573d6000803e3d6000fd5b505050506040513d602081101561541d57600080fd5b8101908080519060200190929190505050151561543957600080fd5b6154657f4e9d08666a50967aa261b260bd342f9755759fe9c21a440ff39fc595fa5ff60e600102619ef9565b6154917f3108178d8240c244a1f7632d0f802818f4fe6f73d87c3ada50801abec6275ad9600102619ef9565b6154bd7f8490b57e374459c8d931c0f390f87a58664b80f54283b9855236967b824ff4f6600102619ef9565b80600b60046101000a81548173ffffffffffffffffffffffffffffffffffffffff021916908373ffffffffffffffffffffffffffffffffffffffff1602179055505050565b60006155307ffba4c8b234081f1dac643609a6c690fb7c2e0cd39e54e800fab602b4a7bea01a600102619d2c565b61555c7fc203d14bcaf4e0b570df4f0a21cea54fe09f230ce67f5f4ab62ef3e117a9802e600102619d2c565b6155887f70d90460a734cafa119b6859230d44d2cdb7d865ab9b38734cb14a5b6f4dc6c5600102619d2c565b600860008373ffffffffffffffffffffffffffffffffffffffff1673ffffffffffffffffffffffffffffffffffffffff168152602001908152602001600020549050919050565b60055481565b6156017fb69f109befabd82f0425a91e79f5bd4e799a7cec12ca055bf58bdf7fe88ad793600102619d29565b61562d7f4843d20f00be7ad37e3c9c8682a846faa4ca3c0ea1f9dc4c391997309853de24600102619d29565b6156597f20fc88088867130d183d94e5a9048dba311ceb5f1b9a4f5535adf564d8374b6d600102619d29565b6156857fbd896113fdf13ab83be8d5359d5f98252bcf796eea8f5545bf18b2e15a729127600102619d29565b600260009054906101000a900473ffffffffffffffffffffffffffffffffffffffff1673ffffffffffffffffffffffffffffffffffffffff163373ffffffffffffffffffffffffffffffffffffffff16148061572d57506000809054906101000a900473ffffffffffffffffffffffffffffffffffffffff1673ffffffffffffffffffffffffffffffffffffffff163373ffffffffffffffffffffffffffffffffffffffff16145b806157855750600160009054906101000a900473ffffffffffffffffffffffffffffffffffffffff1673ffffffffffffffffffffffffffffffffffffffff163373ffffffffffffffffffffffffffffffffffffffff16145b151561579057600080fd5b6157bc7f60622880a82287035558e7b8916b20a1e316cee24d7ae16889a055eab3d55316600102619d29565b6157e87fd0b955e469a12ebbfb62ad1da478a6acecacfd1ebcf54bf0dad13514548cd979600102619d29565b6158147fcb2648b67b0de279cb753577ec77c6b2ea08d23aa34ef2f48c5aab3c2f7b3313600102619d29565b6158407f6f460441e04e9f2fab210055dfdc65babe4e31ac3fe89dcb41c84c7fb0375991600102619d29565b61586c7f3dde09caefb3a1f40ad03cded37744ff16ee712b622d5384bd28cad309760ae7600102619d29565b6158987f7808d25d5414a096b7d4484dd157a0f0c9b5f6c11dae49f7d70fd4cb3bbde232600102619d29565b600260149054906101000a900460ff161515156158b457600080fd5b6158e07f8b5d68b72118d3191a023266c39777d9f072660abc89f2761d9e6c792bd310c3600102619d29565b61590b7ead53c480053279c157a04c0652ee4064d1c599d726b53bdfe5e51538b40691600102619d29565b6159377fa07ca5d175b133ae832f77419d6f3b779170753f00463e0943a8af7cc6810088600102619d29565b6159637fc42a084f1bec46c22a34c451ca67a9000bb683163b10d858e18d49d6ce637f73600102619d29565b61598f7f0daab85665d9b4c8a0072fc446e1de6088d904d0dff31d5507110d249b2b78ec600102619d29565b6001600260146101000a81548160ff021916908315150217905550565b60606000606060008060006159e37f85403ca33e6ae1084125eea223e7714972c95c56d4bac8c9b783ed90a5823bab600102619d2c565b615a0f7f995ad2f52e080a189e341d7f61a048021b2251ae7c55924ecb8862384ac6bcf4600102619d2c565b615a3b7f5ce17e7e421b1b1f9dc34dc9122228c7d2f46e07e3923454f87061ddae82935a600102619d2c565b615a4487615502565b9450615a727f4213deeeac2a27dc3a18f4704ab5cba0731cd62d3ed69e19db31bbef30533aea600102619d2c565b615a9e7fd8c0918d861d1061d371ac732c64742928072cd724247dafc9fa45571394d957600102619d2c565b6000851415615b6357615ad37fdcd440357ee92730a486a5aa4c98c4a4e06306f5a88030715cfbb68fb9ee2b89600102619d2c565b615aff7f7f9374adc619e0d3aec5b0807093becb689f1066056e62396ff056c6b81d3979600102619d2c565b615b2b7fc245da1c6040c31ef04938f540900d13140b53f87cc92d2b8e8bb87c07bc4b96600102619d2c565b6000604051908082528060200260200182016040528015615b5b5781602001602082028038833980820191505090505b509550615fc5565b615b8f7f89b7d1e509fcbfd9c032edf18b2aa75fe6dd2cbc86d3fc16271c602d7fea5f94600102619d2c565b615bbb7ff1a1e47922e989a32a7b0e1905deafdc98a97b394bba5fe3323e1e37713dbafb600102619d2c565b615be77f4b32ca9643e948e38283767dfc16a66e1fa4a7d52db244c3509fd08daa9be32d600102619d2c565b84604051908082528060200260200182016040528015615c165781602001602082028038833980820191505090505b509350615c457fae156cb462fbd12d2b4648237beab9d7fa57982aa2f204dcedb96072a3ad432c600102619d2c565b615c717f06186de1dab891c12214084e4f57e199cc7c3230a26cbea0d40086c259045cec600102619d2c565b6001600680549050039250615ca87f55b21a1324d0155a233f6eb28501ca103f1c34a4dfaf8d7cccca6dd934cad81a600102619d2c565b615cd47f3d668d82d4b06a0287652d6b06f98bbb6bbdbf5350eec5c4b99f47a686edb189600102619d2c565b60009150615d047ff80e87458dcc23a56ad58db43252b69b8f915a1cabf16b0bd7758b5e3a342450600102619d2c565b615d307f5f41767b691952995b64698feff988fe1244a65b39c33ca8a84e62d2db453cfb600102619d2c565b615d5c7fb5fb03ce95f314fbf5a90641c49aa33d302f3407e975d590cbbe4c1bccbce26d600102619d2c565b615d887fc3152ec1bf5cb32910a65195c40ea056dd970468b9927819592fa4eccb3d6dd7600102619d2c565b600090505b8281111515615f6957615dc27f06d82fbd005cdc9e712420380a8946347e5b0b026fb8a7f0875e37998d479ae2600102619d2c565b615dee7f8fd97192a01a7d5eb812b4b3968b5926f4e5222cd08bd4053a94706b0e5da060600102619d2c565b8673ffffffffffffffffffffffffffffffffffffffff166007600083815260200190815260200160002060009054906101000a900473ffffffffffffffffffffffffffffffffffffffff1673ffffffffffffffffffffffffffffffffffffffff161415615f2f57615e817fd9c35dd820dcfe2a39fe9232675e2635c512d183a44875a4cb573dda78924836600102619d2c565b615ead7f6d25656f80db914f40168aad8764e7e6256839231356332e50e338bba43c9b77600102619d2c565b615ed97fc45eeef7391c294f4c6187bc54526d144b1205709985c643b43b3c091361b80a600102619d2c565b808483815181101515615ee857fe5b9060200190602002018181525050615f227f0b81d12d1f89d58e00bf2f6685e5de09c3c10fd872185337f3bdbe1fd760c30e600102619d2c565b8180600101925050615f5c565b615f5b7fe66a41e9306ed9c735d6d7508f6e1fd1b1c7aa459a0ce1425d2d3498dd1ab5d4600102619d2c565b5b8080600101915050615d8d565b615f957f513f7c5030f70a1c6ba15a7bd6bbe607dd8435962af3328797f6112e05716746600102619d2c565b615fc17fe9a6b14beba3e36146c653cfcac64063e23f711016ed3a38a03b64aa723d4833600102619d2c565b8395505b5050505050919050565b6000806000806000806000806160077fcb2648b67b0de279cb753577ec77c6b2ea08d23aa34ef2f48c5aab3c2f7b3313600102619d29565b6160337f6f460441e04e9f2fab210055dfdc65babe4e31ac3fe89dcb41c84c7fb0375991600102619d29565b61605f7f3dde09caefb3a1f40ad03cded37744ff16ee712b622d5384bd28cad309760ae7600102619d29565b61608b7f7808d25d5414a096b7d4484dd157a0f0c9b5f6c11dae49f7d70fd4cb3bbde232600102619d29565b600260149054906101000a900460ff161515156160a757600080fd5b6160d37f8b5d68b72118d3191a023266c39777d9f072660abc89f2761d9e6c792bd310c3600102619d29565b6160fe7ead53c480053279c157a04c0652ee4064d1c599d726b53bdfe5e51538b40691600102619d29565b61612a7fea9e3a7ec49099d83788c3bb13da6dbea9a4e8d866aca2b0f29c718085d62efd600102619eff565b6161567f0cf6e682769bf3e465f64fe4cb94ebbe057583049490b8ecfa579ad9563ecf5f600102619eff565b6161827faf4c822e1d535c7dba0ddc75abc0ad99c9ac583e532316b9b5553d148660476b600102619eff565b60068981548110151561619157fe5b906000526020600020906002020196506161cd7f89dcfce4e1552a57acbc4256787fbbf784b55062d0ac10446a166996fe22c5fd600102619eff565b6161f97f0fa1749dc05f769e57ab9bfb2a414d9dfe2e0111c78e3e18c6beef53184ff679600102619eff565b6162257f909043c95a09faef1af355cd7880e9cafe0dd2a2d83be44b58fc62bd8404c7c7600102619eff565b60008760010160009054906101000a900467ffffffffffffffff1667ffffffffffffffff161415151561625757600080fd5b6162837f982d65282ac6816dff3e789821857cde920a327d488f98744df2cb3595abfdaf600102619eff565b6162af7fca412ad918726b699deee2b4198efa237b67aa220c9e82ab51d972397e82a272600102619eff565b6162db7f9183d605abefdea42e64a84316879f4bae7dbcf186a50f531c8fcd1f6624895d600102619eff565b6163077fbc1ae63a2b231f755f8a97ede81550a9d2b2944807f28fb96e913b05fb738599600102619eff565b61643d876101006040519081016040529081600082015481526020016001820160009054906101000a900467ffffffffffffffff1667ffffffffffffffff1667ffffffffffffffff1681526020016001820160089054906101000a900467ffffffffffffffff1667ffffffffffffffff1667ffffffffffffffff1681526020016001820160109054906101000a900463ffffffff1663ffffffff1663ffffffff1681526020016001820160149054906101000a900463ffffffff1663ffffffff1663ffffffff1681526020016001820160189054906101000a900463ffffffff1663ffffffff1663ffffffff16815260200160018201601c9054906101000a900461ffff1661ffff1661ffff16815260200160018201601e9054906101000a900461ffff1661ffff1661ffff168152505061b487565b151561644857600080fd5b6164747ffb4ac45f7c0d3fada199ce3727453419e019ed373019ed4386302f1d4c81eb32600102619eff565b6164a07f650d3f224fff25c8167ffad76671b17560d109d62bdc37108cceab370f808175600102619eff565b6164cc7f9bd1a7b990e8218bf0c605877072f942d2d880eb06bb7fd9d9a6f50ac315770c600102619eff565b8660010160189054906101000a900463ffffffff1663ffffffff1695506165157ff6e0f31d945f2b2374c790df87c6176b53988498c86a73a4a40579f14be3a8c5600102619eff565b6165417f7b40f11b8ce027069a34f3edb051c7d4c93935c0d91382a468d269226817b16b600102619eff565b60068681548110151561655057fe5b9060005260206000209060020201945061658c7f0176e67b7172b9a03f7c4ed3c266aa3a06d950910ca0188781a9ae688ba50146600102619eff565b6165b87f3bf9579eeafb6900aadbd0298e2cc351c05908b27cf3c52ad3e6b50131a815ce600102619eff565b86600101601e9054906101000a900461ffff1693506165f97f1b32e25d59cc8e909749da2a177a62312c825b492495d66bfd194db3eed06244600102619eff565b6166257fdeb9743d1a016e809caa6f249c15996a8292e1ef08700f6de166e5b91648dad5600102619eff565b86600101601e9054906101000a900461ffff1661ffff1685600101601e9054906101000a900461ffff1661ffff1611156166f7576166857fa3ff7e177ebb7845590852d70bce210406b027facd078c20642979e7f5ac312c600102619eff565b6166b17f61814a2127e7b3f353ca165a6aaef3e6e479c9d5c48cc662cd22d61da5521409600102619eff565b6166dd7fc44940c0bff142da5c3937528047b7a3f4c0e1c23641458cd00067423edc3067600102619eff565b84600101601e9054906101000a900461ffff169350616724565b6167237f1af77dd4fb60ea67be156e22f5787383f4a0d7b579d758400b5a7f2b14ce5388600102619eff565b5b6167507fb338ee5106efad800092c5a905ca48282700869244ef773ccf0f267328c0376f600102619eff565b61677c7fe5b732ca94b6aec69fbc5b7869c8c09f50445df3ed80312830728f6f083de148600102619eff565b601160009054906101000a900473ffffffffffffffffffffffffffffffffffffffff1673ffffffffffffffffffffffffffffffffffffffff16630d9f5aed8860000154876000015460018b60010160089054906101000a900467ffffffffffffffff16036040518463ffffffff167c0100000000000000000000000000000000000000000000000000000000028152600401808481526020018381526020018267ffffffffffffffff1681526020019350505050602060405180830381600087803b15801561684a57600080fd5b505af115801561685e573d6000803e3d6000fd5b505050506040513d602081101561687457600080fd5b810190808051906020019092919050505092506168b37f78596b267df668052330e530fb5911838c6477a6c63e0450a11fe23025e30730600102619eff565b6168df7f39c72387352a8ad2946cbe6ba3059ae96bedd2c0f5bbf94cb33f2b6756d55424600102619eff565b600760008a815260200190815260200160002060009054906101000a900473ffffffffffffffffffffffffffffffffffffffff1691506169417f0a55d10b21c64ba1a66acc0e9e635a67e8aaf2e963aaa7c117d6298138fb6261600102619eff565b61696d7f544ec09279dd1c1994ec8de4979dd6ffbfe90b45300d71399f5885615583990f600102619eff565b61699b898860010160189054906101000a900463ffffffff1663ffffffff166001870161ffff16868661b547565b90506169c97fa733f0928c8804eb8c03e2b3fe5384bbe5251ad76d73180771e880b8a242b05f600102619eff565b8660010160186101000a81549063ffffffff0219169055616a0c7f30a9967d8fd7da19a81e62edfc1870b15756ac237ccfaaf2cc28035aec0bee8f600102619eff565b60106000815480929190600190039190505550616a4b7faf0ceb641320225a5b3a4a46ee9550d44c94cff021c39152996bd524869c23e3600102619eff565b616a777f9de7eaa159cf71e9c4be13d8069868fe88b22b1dde725575c85e8cf9ef13848e600102619eff565b3373ffffffffffffffffffffffffffffffffffffffff166108fc600f549081150290604051600060405180830381858888f1935050505050616adb7f88028807a863f5d5735f64d31703eaf848adea15343d2d3e1234853739981fb9600102619eff565b616b077fe280a15d3a4f5a3ca347382cc8ef5b13f5372d78f1a54c18b0d6b86e3ca52946600102619eff565b80975050505050505050919050565b6000616b447f34ba93981658c3daa5f666bbb9fe4c2050f8795f520af64c257be31ef93f4a7e600102619efc565b616b707f6e13615425708a7761bd047818bc837ac9fb4bd1e59bf3fa4452e4cbd770a560600102619efc565b616b9c7f1dc2ce0d010e73d168ffe98a84a9bc524a16f273016615775624f5da12869a7e600102619efc565b616bc87f7988d104597cafdb112f343393a63efde85108a1f51c7a8effe784254afa55de600102619efc565b60011515600d60003373ffffffffffffffffffffffffffffffffffffffff1673ffffffffffffffffffffffffffffffffffffffff16815260200190815260200160002060009054906101000a900460ff161515141515616c2757600080fd5b616c537f74c308184e27580c17a1d0b6ff599bb36cc06cea53ef2b0b67c3f3d831015915600102619efc565b616c7f7ff94d3c11b156185524dc880705acc4e207d4e6c8ac4a3c0d0c44c9bda5848526600102619efc565b616cab7ff50e21c65a09e47887f3e66fc375b960d6cdee977357cd8f05b332b86389e0de600102619efc565b616cd77f06fe3d109c5f8f7118a26976524468fc10948d9e12c159cbab4bdf5c54114168600102619efc565b616d037ff2819c7e9c887c84687b31a37f976a82fefcc299c4d27256e4e80e14d00b383f600102619efc565b600e600083815260200190815260200160002060009054906101000a900461ffff169050919050565b616d587fb69f109befabd82f0425a91e79f5bd4e799a7cec12ca055bf58bdf7fe88ad793600102619d29565b616d847f4843d20f00be7ad37e3c9c8682a846faa4ca3c0ea1f9dc4c391997309853de24600102619d29565b616db07f20fc88088867130d183d94e5a9048dba311ceb5f1b9a4f5535adf564d8374b6d600102619d29565b616ddc7fbd896113fdf13ab83be8d5359d5f98252bcf796eea8f5545bf18b2e15a729127600102619d29565b600260009054906101000a900473ffffffffffffffffffffffffffffffffffffffff1673ffffffffffffffffffffffffffffffffffffffff163373ffffffffffffffffffffffffffffffffffffffff161480616e8457506000809054906101000a900473ffffffffffffffffffffffffffffffffffffffff1673ffffffffffffffffffffffffffffffffffffffff163373ffffffffffffffffffffffffffffffffffffffff16145b80616edc5750600160009054906101000a900473ffffffffffffffffffffffffffffffffffffffff1673ffffffffffffffffffffffffffffffffffffffff163373ffffffffffffffffffffffffffffffffffffffff16145b1515616ee757600080fd5b616f137f60622880a82287035558e7b8916b20a1e316cee24d7ae16889a055eab3d55316600102619d29565b616f3f7fd0b955e469a12ebbfb62ad1da478a6acecacfd1ebcf54bf0dad13514548cd979600102619d29565b616f6b7f261bd01936aaabd10d4ad44dcd4f1b3cc5dd0cc3f1ca94191799d58faf22c0ea600102619ef9565b616f977f21ff1c89aabee88edd3509034a5cb6f0ac40c48df77f8097a70896b0bf286ecd600102619ef9565b616fc37f01a049f1e09e465443d0d7f0a18a9cbcb5022e967302730e928fb1bbaffa4dde600102619ef9565b600b60049054906101000a900473ffffffffffffffffffffffffffffffffffffffff1673ffffffffffffffffffffffffffffffffffffffff16635fd8c7106040518163ffffffff167c0100000000000000000000000000000000000000000000000000000000028152600401600060405180830381600087803b15801561704957600080fd5b505af115801561705d573d6000803e3d6000fd5b5050505061708d7f17a72e219d8d99aa347f037f24a8fa010ec4735434e635dd0df696046b25ebf5600102619ef9565b6170b97fe56e02945219776b23384c8f6785bab4b4e059405aabfad962077eaf3952d2ee600102619ef9565b600c60009054906101000a900473ffffffffffffffffffffffffffffffffffffffff1673ffffffffffffffffffffffffffffffffffffffff16635fd8c7106040518163ffffffff167c0100000000000000000000000000000000000000000000000000000000028152600401600060405180830381600087803b15801561713f57600080fd5b505af1158015617153573d6000803e3d6000fd5b50505050565b6040805190810160405280600381526020017f434254000000000000000000000000000000000000000000000000000000000081525081565b600381600e811015156171a157fe5b60089182820401919006600402915054906101000a900463ffffffff1681565b60096020528060005260406000206000915054906101000a900473ffffffffffffffffffffffffffffffffffffffff1681565b6172207fcb2648b67b0de279cb753577ec77c6b2ea08d23aa34ef2f48c5aab3c2f7b3313600102619d29565b61724c7f6f460441e04e9f2fab210055dfdc65babe4e31ac3fe89dcb41c84c7fb0375991600102619d29565b6172787f3dde09caefb3a1f40ad03cded37744ff16ee712b622d5384bd28cad309760ae7600102619d29565b6172a47f7808d25d5414a096b7d4484dd157a0f0c9b5f6c11dae49f7d70fd4cb3bbde232600102619d29565b600260149054906101000a900460ff161515156172c057600080fd5b6172ec7f8b5d68b72118d3191a023266c39777d9f072660abc89f2761d9e6c792bd310c3600102619d29565b6173177ead53c480053279c157a04c0652ee4064d1c599d726b53bdfe5e51538b40691600102619d29565b6173437fe0ecb0f864571a52b4bfa4f15de4c8c89a96e9a45ec9173265726fc21312d2c5600102619d2c565b61736f7ff1613e5f59292d1591ccbf842ef2773831dd1527e2499a0aed38b1b9e8dd933d600102619d2c565b61739b7fd646c7d8fced1c4fac1e5aef3b56415c585d036943ececb9665d6c6aefd4633f600102619d2c565b6173c77f17e4788fa77d4ad90be92b97619960271cc10dad4d6b3f2fceb243fd13955884600102619d2c565b600073ffffffffffffffffffffffffffffffffffffffff168273ffffffffffffffffffffffffffffffffffffffff161415151561740357600080fd5b61742f7faec032eddc8f10ea1fdfb305125ee98ba6c06ab1c36056e6abf9680163df3649600102619d2c565b61745b7f42c3d5660da8680635c4dad6fbf08d3caa6df9b2ee62826a1a53bcd5ac0c3d66600102619d2c565b6174877ff617c651e9159cc4b7c4ed93b8784da3dec165d2552e70134f5c768daab0fbdb600102619d2c565b6174b37fe6db742eeb07738ad50d9d45566b09ca1c898b6c03b8c0a081dca8561370a01b600102619d2c565b3073ffffffffffffffffffffffffffffffffffffffff168273ffffffffffffffffffffffffffffffffffffffff16141515156174ee57600080fd5b61751a7fa232811a342ce77a8ca225ac21837f76147e7743cac48a68b065b0fea27532e8600102619d2c565b6175467fa5182b16f8be05730260ae4bf0c89d7dd1beeb4b0e892042d7adf5065bb00335600102619d2c565b6175727f6dc57232c2bc288e9aea3b508bca7aaeecf80e34bd18cabb22e55c8c65bad47c600102619d2c565b61759e7f979f118d5524a4a2e79d15ac12e5fe069689fe56e9c2b0b9fcff6c20e9007e76600102619d2c565b600b60049054906101000a900473ffffffffffffffffffffffffffffffffffffffff1673ffffffffffffffffffffffffffffffffffffffff168273ffffffffffffffffffffffffffffffffffffffff16141515156175fb57600080fd5b6176277f77486c92ff22ff62f123d153e71268f095968f760cd220cd3767f71ff80e1230600102619d2c565b6176537f475f9928f68ff9ef4bc9e289d65bc6da89758850a4ba8811dcaab8f0d462db50600102619d2c565b61767f7fb38b17e33c30b567bf73914ea0b91e409fddfb5f55c5c0ef85237941f7540ecd600102619d2c565b6176ab7f15045976ff9f29bcdaf169c5694b56cd6d7f56628705001e149ae2dd16dc2e9b600102619d2c565b600c60009054906101000a900473ffffffffffffffffffffffffffffffffffffffff1673ffffffffffffffffffffffffffffffffffffffff168273ffffffffffffffffffffffffffffffffffffffff161415151561770857600080fd5b6177347fd7e06477747fea29f8a331b42f453088d490dda53e8ddd171ef630699cde12f5600102619d2c565b6177607fed5d0ad680ed04c695201f0cd9b789a59258aec9015e67443f7e8051d1a770b1600102619d2c565b61778c7f198814bdf20706d6673c429ecb9c6f960ad511fe654f59555e681f500c2a61ba600102619d2c565b6177b87fa11784c508a35f6b44f0ddd608e7308f5f3e4e98bef5001152c7929de2867153600102619d2c565b6177c23382619d2f565b15156177cd57600080fd5b6177f97fe96c325dfc2b738afae8ce243f8c5407ad0716041672dd41f4b16295d426fd41600102619d2c565b6178257f912fc0d035716ae883c16f267365849cc0083f33c9f9fc50908c14f94389d7f0600102619d2c565b6178517f325f1856d23d5f2ce56d044d7292926b2d2ea2d8c0dd2485b8aeb7e17e9a6cf7600102619d2c565b61787d7f35ae2f4622ff7ecee4eeed64791a0518562de358c27cf6e9b1b69ae8a3302db6600102619d2c565b60006002600e600084815260200190815260200160002060009054906101000a900461ffff161661ffff161415156178b457600080fd5b6178e07fc01c3ebc17e799a2cf378e92091f013b0288249d227f37dbd9bf2deadecbe57e600102619d2c565b61790c7ff2928bb13810bf04b8e1bb88682335286c7ca67f4a62bfd570b352632c5d7c5c600102619d2c565b6179387f9e3829d0dbd48fac3be877d3d0c5a54c3a1471245d0832acc7fdc263b8d8700c600102619d2c565b617943338383619ff2565b5050565b600260009054906101000a900473ffffffffffffffffffffffffffffffffffffffff1681565b600f5481565b61799f7f34ba93981658c3daa5f666bbb9fe4c2050f8795f520af64c257be31ef93f4a7e600102619efc565b6179cb7f6e13615425708a7761bd047818bc837ac9fb4bd1e59bf3fa4452e4cbd770a560600102619efc565b6179f77f1dc2ce0d010e73d168ffe98a84a9bc524a16f273016615775624f5da12869a7e600102619efc565b617a237f7988d104597cafdb112f343393a63efde85108a1f51c7a8effe784254afa55de600102619efc565b60011515600d60003373ffffffffffffffffffffffffffffffffffffffff1673ffffffffffffffffffffffffffffffffffffffff16815260200190815260200160002060009054906101000a900460ff161515141515617a8257600080fd5b617aae7f74c308184e27580c17a1d0b6ff599bb36cc06cea53ef2b0b67c3f3d831015915600102619efc565b617ada7ff94d3c11b156185524dc880705acc4e207d4e6c8ac4a3c0d0c44c9bda5848526600102619efc565b617b067f67cba99f09910c9c85ba4df093127c921a442884d0040f31f41bc6b40b380f21600102619efc565b617b327fc68a105e427ae89d1f42312c81697992ee0b0a40aa78c683c0d958fa98d5d6db600102619efc565b617b5e7facea46e834496401e5b20be70253fbca1859b9ea103bfae51d46ffb1f70685a2600102619efc565b617b68828261be5d565b5050565b6000617b9a7f4b3f31363c06554026c3495535211789942e41625a57b086267e5064f5934af6600102619d29565b617bc67f01fb50a86f8e94902dc9382992dbfa33e19a7eaa3e581679951cbdf2dd876a0a600102619d29565b617bf27f5090bdc7b81fb4fb806ffb8a324e9482ba5cf27db77d6fd8a28579d8a407f1e2600102619d29565b617c1e7f5a2a24182e30eaa462e023aeb84148b625327a032588bd13d612098c07627529600102619d29565b600260009054906101000a900473ffffffffffffffffffffffffffffffffffffffff1673ffffffffffffffffffffffffffffffffffffffff163373ffffffffffffffffffffffffffffffffffffffff16141515617c7a57600080fd5b617ca67f68e3652403790d00667b2e33f3cafbd6f6fa0dcc355662d23e6436c566afbc2b600102619d29565b617cd27f23b3e2c03a5d93b1565e0b8a6688e0afc1cb86813470da360be15ebc61302903600102619d29565b617cfe7f0416581aeec62802776aa843e8ea46196aa9c035af028faaa54701183b86a2a960010261c79e565b617d2a7fb30a2b2b8e5c051e3d0272f59a8fc5dd88e3399d0f0311db19b317cd06ec022860010261c79e565b617d567f64a70e4e6928c3aa14269b0ad2813723ab9e4a5ab7f7eb6bfe76b708894467c060010261c79e565b819050617d857f887bf88cd2ac83967854eadc726bd3af27318143d36aa7087d823236881036fa60010261c79e565b617db17f127836e1e2b36fc23ede03eea0376144ed7cbbaea8b91a3cfa45ef2f85f174fa60010261c79e565b600073ffffffffffffffffffffffffffffffffffffffff168173ffffffffffffffffffffffffffffffffffffffff161415617e9457617e127ff028096da1182cfa893bf0adb6ca297b5548d4f293a84fa41a7dd97478951e8760010261c79e565b617e3e7f962226f3cf585f3e680518629b822950db66aa681c7fce009a9503b53a5f547360010261c79e565b617e6a7fdaf26c4a10b773d5d03f38aef783441eb8b2b1d3ca7b5ef3036f8da7e7df306a60010261c79e565b600260009054906101000a900473ffffffffffffffffffffffffffffffffffffffff169050617ec1565b617ec07f9648003ae117b21f2cd88a388e25fa39bae82ebceac753a53fb4b01a6e462f9460010261c79e565b5b617eed7f8c11df1903c8b75a16655825e81bcfdc6f1892cfc8b7c41a35e44438e2f72f5f60010261c79e565b617f197f992cd2a937be0e530ee86300997b6c261e85a8eb203b20d2c52f752bfe56a82c60010261c79e565b617f457fc09c540e191adc3081a5f4f4dad259fd5178312069a44c8deeee2ddf98708b3260010261c79e565b611388601254101515617f5757600080fd5b617f837f920297482793a575067a007aa4e01f345288a9a7ae293e36b5beac7be52de65b60010261c79e565b617faf7f5dcb88d23aeb6b8f56715b4669772d5acee46214abb0971b916c62ba2cefc93f60010261c79e565b601260008154809291906001019190505550617fed7f308f0469981fb353287e046cb0e8728cae8ffd6181b13ea39a009b8abac2d00b60010261c79e565b6180197fa116262a6b968ea15c0a6cf7934fd41d5631dc01d180e71a1f174809b58f166060010261c79e565b6180286000806000868561b547565b50505050565b600061805c7f4b3f31363c06554026c3495535211789942e41625a57b086267e5064f5934af6600102619d29565b6180887f01fb50a86f8e94902dc9382992dbfa33e19a7eaa3e581679951cbdf2dd876a0a600102619d29565b6180b47f5090bdc7b81fb4fb806ffb8a324e9482ba5cf27db77d6fd8a28579d8a407f1e2600102619d29565b6180e07f5a2a24182e30eaa462e023aeb84148b625327a032588bd13d612098c07627529600102619d29565b600260009054906101000a900473ffffffffffffffffffffffffffffffffffffffff1673ffffffffffffffffffffffffffffffffffffffff163373ffffffffffffffffffffffffffffffffffffffff1614151561813c57600080fd5b6181687f68e3652403790d00667b2e33f3cafbd6f6fa0dcc355662d23e6436c566afbc2b600102619d29565b6181947f23b3e2c03a5d93b1565e0b8a6688e0afc1cb86813470da360be15ebc61302903600102619d29565b6181c07fef48c1eb06e79458d0ea08c405508f1093355b0dab82e741b1b74caffe62d2c860010261c79e565b6181ec7fd3e093bc9608982ab6ff11abe462766cf543e09c03c0e660902b0eab952901f960010261c79e565b6182187f5c5a887a5724019204b7c1d8b1f0420f7adb5fa97493e92d14195b29338e384c60010261c79e565b6182447f5e09ecd15efb6b8ec20a68e05bc4ed55f70244e0663bd6a2e944e1133dcf05b660010261c79e565b61afc860135410151561825657600080fd5b6182827fb2a49de4b5da963c7e0f92802d3e950fcd5bc4bde88160a28df10b41b930e57760010261c79e565b6182ae7f5ed87591a0d13374f72116ab1507379747c5670762a3da06361c44f8b24d59de60010261c79e565b6182da7f97cdd60fa0fa460fffb44128a09c8f2f30df501bd0b85b81ff1700e778eef1f760010261c79e565b6182e96000806000853061b547565b90506183177fb8b194fda4f64ff6db9b1209b215d6fb62623b801a05f5510b2e707cc11a60d560010261c79e565b6183437fd9f74480aa3cef5a07178178ad8f5e725ae3216447d681b328b98b3418c938bd60010261c79e565b61836f81600b60049054906101000a900473ffffffffffffffffffffffffffffffffffffffff16619e1f565b61839b7f239d40b9acedf77572f5f17e62c2511ccb69d19da3cae15321e8b89f37c4101260010261c79e565b6183c77f30214b4af0cd3f003708ec9e55b2caf2594077ee3d85dcda66fbd753ddb921b160010261c79e565b600b60049054906101000a900473ffffffffffffffffffffffffffffffffffffffff1673ffffffffffffffffffffffffffffffffffffffff166327ebe40a8261840e61c7a1565b600062015180306040518663ffffffff167c0100000000000000000000000000000000000000000000000000000000028152600401808681526020018581526020018481526020018381526020018273ffffffffffffffffffffffffffffffffffffffff1673ffffffffffffffffffffffffffffffffffffffff16815260200195505050505050600060405180830381600087803b1580156184af57600080fd5b505af11580156184c3573d6000803e3d6000fd5b505050506184f37f39e2cb481dc49730ccfa6beef7ab6dc2c1057328c11e41812c70bd7e0ffc8d0860010261c79e565b6013600081548092919060010191905055505050565b60006185377f34ba93981658c3daa5f666bbb9fe4c2050f8795f520af64c257be31ef93f4a7e600102619efc565b6185637f6e13615425708a7761bd047818bc837ac9fb4bd1e59bf3fa4452e4cbd770a560600102619efc565b61858f7f1dc2ce0d010e73d168ffe98a84a9bc524a16f273016615775624f5da12869a7e600102619efc565b6185bb7f7988d104597cafdb112f343393a63efde85108a1f51c7a8effe784254afa55de600102619efc565b60011515600d60003373ffffffffffffffffffffffffffffffffffffffff1673ffffffffffffffffffffffffffffffffffffffff16815260200190815260200160002060009054906101000a900460ff16151514151561861a57600080fd5b6186467f74c308184e27580c17a1d0b6ff599bb36cc06cea53ef2b0b67c3f3d831015915600102619efc565b6186727ff94d3c11b156185524dc880705acc4e207d4e6c8ac4a3c0d0c44c9bda5848526600102619efc565b61869e7f3656f412e650a736b30ee1b85a53658a3bd9bc4678c84f95fdecc8c72ae2fb3c600102619efc565b6186ca7f0244e02df212c49d5e5083f6b9f775798a5b4f2c76ffbd89f8c203cbc5d2131d600102619efc565b6186f67f61275c1adf3df590bc0343e12b4cf45efe3858615c8b482b9cf319e8437165b0600102619efc565b618703868686868661b547565b905095945050505050565b60008061873d7f4176e0b73de34096ee1d7b39064213b10e4684651774dfc7a43775744897da1c600102619eff565b6187697fed3d01415addfc43e36b5697aa20733f362954a7000d744a8fec86e9dd663d7f600102619eff565b6187957ffef12e0a4519fcdcf5a31cb3c1de5ee26427adfdfa163874aeea0fed948f9e08600102619eff565b6006838154811015156187a457fe5b906000526020600020906002020190506187e07f95236b2204efe6fd7c98104da480625f7d6fee0a8b91eece48dc80008722d228600102619eff565b61880c7fb6880abbcda67ed1a936422f0c9eeb92bbbe3482d2c01bcfb9ccfcbe8980c88e600102619eff565b60008311801561894f575061894e83826101006040519081016040529081600082015481526020016001820160009054906101000a900467ffffffffffffffff1667ffffffffffffffff1667ffffffffffffffff1681526020016001820160089054906101000a900467ffffffffffffffff1667ffffffffffffffff1667ffffffffffffffff1681526020016001820160109054906101000a900463ffffffff1663ffffffff1663ffffffff1681526020016001820160149054906101000a900463ffffffff1663ffffffff1663ffffffff1681526020016001820160189054906101000a900463ffffffff1663ffffffff1663ffffffff16815260200160018201601c9054906101000a900461ffff1661ffff1661ffff16815260200160018201601e9054906101000a900461ffff1661ffff1661ffff168152505061cbad565b5b915050919050565b61138881565b600b60049054906101000a900473ffffffffffffffffffffffffffffffffffffffff1681565b6189af7f34ba93981658c3daa5f666bbb9fe4c2050f8795f520af64c257be31ef93f4a7e600102619efc565b6189db7f6e13615425708a7761bd047818bc837ac9fb4bd1e59bf3fa4452e4cbd770a560600102619efc565b618a077f1dc2ce0d010e73d168ffe98a84a9bc524a16f273016615775624f5da12869a7e600102619efc565b618a337f7988d104597cafdb112f343393a63efde85108a1f51c7a8effe784254afa55de600102619efc565b60011515600d60003373ffffffffffffffffffffffffffffffffffffffff1673ffffffffffffffffffffffffffffffffffffffff16815260200190815260200160002060009054906101000a900460ff161515141515618a9257600080fd5b618abe7f74c308184e27580c17a1d0b6ff599bb36cc06cea53ef2b0b67c3f3d831015915600102619efc565b618aea7ff94d3c11b156185524dc880705acc4e207d4e6c8ac4a3c0d0c44c9bda5848526600102619efc565b618b167f7fb78cee7876fe59378c92d71f0664000626f133d8bb0b1d4b78bd9087d3f121600102619efc565b618b427fe2b5c6114496aadc5d19b41e7b20676ec5a3b9c6b840bced39f01be4854c255d600102619efc565b618b6e7f48e29eabc4f5ead65887aabc5074676ef1ac52c07b1b60e89f0b4631ca0fb2b6600102619efc565b618b9a7fd58cca48d34222c8aad5b20d74c4becb0914b674b3f7e54d6115e474a901cc38600102619efc565b6000600e600083815260200190815260200160002060009054906101000a900461ffff1661ffff16141515618bce57600080fd5b618bfa7ffd755bf1f4d210adf86e1976af870c2dde76ef249a2e04281723ec2d67834b49600102619efc565b618c267fecb91de1a63b000aba28b86778eac2321e7269fe1df84c98cf8cc02b2beb4c2d600102619efc565b618c527fc843093e22fdbe07b710d6cfb557f4adc198b468a9328fb3373a8878c49f0f78600102619efc565b618c5b8161cca1565b50565b6000618c8c7fcb2648b67b0de279cb753577ec77c6b2ea08d23aa34ef2f48c5aab3c2f7b3313600102619d29565b618cb87f6f460441e04e9f2fab210055dfdc65babe4e31ac3fe89dcb41c84c7fb0375991600102619d29565b618ce47f3dde09caefb3a1f40ad03cded37744ff16ee712b622d5384bd28cad309760ae7600102619d29565b618d107f7808d25d5414a096b7d4484dd157a0f0c9b5f6c11dae49f7d70fd4cb3bbde232600102619d29565b600260149054906101000a900460ff16151515618d2c57600080fd5b618d587f8b5d68b72118d3191a023266c39777d9f072660abc89f2761d9e6c792bd310c3600102619d29565b618d837ead53c480053279c157a04c0652ee4064d1c599d726b53bdfe5e51538b40691600102619d29565b618daf7f13ed5ce820bb9d21d46f1add071402903b524569ddd1762dd46ba91c0a768aaf600102619ef9565b618ddb7fc4717a76c26489c9a330a122e7897c16698393d10424c2b8ad386824df395a0d600102619ef9565b618e077f7bcf936f83065d2da22eff70a62329686af52ff756c7ea94d6e435cb6f2cf6b3600102619ef9565b618e337f85d65b8b67b75bf36e539248142cad34200041e31065f44499149752b4cca21b600102619ef9565b618e3d3383619d2f565b1515618e4857600080fd5b618e747f9f6368cab392f19fdd9471176934c072dec5570a8461515269c13a37e43ab0bc600102619ef9565b618ea07f400649a5a995b1cd5559bb0251b44844ef788d3a7669897b73c3cafa1d0dc463600102619ef9565b618ecc7fe7484c5a9d88b75270fe2cd3103c37681667213cc1b887c2a0e8e99c0f3bd91d600102619ef9565b618ef87f84158d9c1c2e188ff7445a0d5cb099a9a09faa6989351e733cfe0a86537e4d13600102619ef9565b618f018261870e565b1515618f0c57600080fd5b618f387fb2ce39ed90a2439b117a5b366c3372d72f2b7e15873831c0c40691edf4817514600102619ef9565b618f647f7545124149d524b60c5000a6288f1ff8dc08b3cc6312bf7eca4371537449ddfd600102619ef9565b618f907f8f52e4528247d2e495ed677294d1d8ba96dd8e384347df5b8245f4624762a70d600102619ef9565b618fbc7f6ee5ae8df0e1331e8ec822a2953caf1f91afa43e7232c3b7a9c03fe8502423a7600102619ef9565b618fc6828461cfd7565b1515618fd157600080fd5b618ffd7f49f29411f67c2f36c8f9f44684ce6399ee134328c7dc0d65e9ce82f9942a7c96600102619ef9565b6190297fff58669182772fee9069e73e236ceb80db8330024ae66d29f7047820507189d2600102619ef9565b6190557f2381441dbbb8fbe56b2625cd24e7417d502700cf16cb5a7572fd4395d04d0762600102619ef9565b600c60009054906101000a900473ffffffffffffffffffffffffffffffffffffffff1673ffffffffffffffffffffffffffffffffffffffff1663c55d0f56846040518263ffffffff167c010000000000000000000000000000000000000000000000000000000002815260040180828152602001915050602060405180830381600087803b1580156190e657600080fd5b505af11580156190fa573d6000803e3d6000fd5b505050506040513d602081101561911057600080fd5b8101908080519060200190929190505050905061914f7f87315b0500e594823ef0b52c15a41be70f7c122f8832cba13a6a1086479b30c9600102619ef9565b61917b7f2929e722e53b810c328c91bb98f27b0b0cd4432dcf479f692f23a9602597f567600102619ef9565b6191a77f84a5372052f436f9242dc3bd0adb76572ea2ecc33741edd9db84aabb63bead4f600102619ef9565b600f54810134101515156191ba57600080fd5b6191e67fe8659fa9998bfa299bce2fe027885c903025e50383153d2250798da4988ddd88600102619ef9565b6192127f2f09cdaec416a2c3adcdee08bc2d442fbae7118eb50d7a998d11f779baa779ba600102619ef9565b61923e7f7c7d7fb53af2c5ec6d0ee6b4d9b7912107cba3d5857c0fb2bc7ac7086ee60c03600102619ef9565b600c60009054906101000a900473ffffffffffffffffffffffffffffffffffffffff1673ffffffffffffffffffffffffffffffffffffffff1663454a2ab3600f543403856040518363ffffffff167c0100000000000000000000000000000000000000000000000000000000028152600401808281526020019150506000604051808303818588803b1580156192d357600080fd5b505af11580156192e7573d6000803e3d6000fd5b50505050506193187f20e21893fa5b77e3349b536a2bb98f4f2b9121b250760927ec305601078c8148600102619ef9565b6193447f21768d72b3ba23945ae187615952d58705718717095526497252cd05a70720c7600102619ef9565b61935a8263ffffffff168463ffffffff1661d164565b505050565b60135481565b601160009054906101000a900473ffffffffffffffffffffffffffffffffffffffff1681565b6000806193ba7fcb2648b67b0de279cb753577ec77c6b2ea08d23aa34ef2f48c5aab3c2f7b3313600102619d29565b6193e67f6f460441e04e9f2fab210055dfdc65babe4e31ac3fe89dcb41c84c7fb0375991600102619d29565b6194127f3dde09caefb3a1f40ad03cded37744ff16ee712b622d5384bd28cad309760ae7600102619d29565b61943e7f7808d25d5414a096b7d4484dd157a0f0c9b5f6c11dae49f7d70fd4cb3bbde232600102619d29565b600260149054906101000a900460ff1615151561945a57600080fd5b6194867f8b5d68b72118d3191a023266c39777d9f072660abc89f2761d9e6c792bd310c3600102619d29565b6194b17ead53c480053279c157a04c0652ee4064d1c599d726b53bdfe5e51538b40691600102619d29565b6194dd7f6a6f1570984f481a74a0a5d492d257e628029ae055657e12f33803e6aa5bfa1f600102619eff565b6195097f9862737876ff860c577068bde877673b22d33a60c7cc391fbf0a1aa7c1aa842c600102619eff565b6195357f05960928859483613b8961c79f9bc931e801c0de32177ea2d214abea31caf62d600102619eff565b6195617f3adb07a55b9768f86a0f4ea3a844a6dc97b9ce4fef648a0d4ad8fac22ae13880600102619eff565b600f54341015151561957257600080fd5b61959e7fd302344c9c41bbfa776726434b6085a813d4c63d44b1f44c9165a82863e6533a600102619eff565b6195ca7ffa50681d140d593c68bb6d62c3fdcace05628c6f820fea7d82d558847db13f95600102619eff565b6195f67f632dcc78f7bc8c532fc925920574d14b51b0646984b1d75914501e09e8a201f5600102619eff565b6196227f1e327dcb4c209e3cde68366f08c292a2613eeec17456f5da9f1736d466fc427e600102619eff565b61962c3385619d2f565b151561963757600080fd5b6196637f4bf9821f39690d2c1b0efa749e519bfd9faaa7dc55c4e4bfab6c98671d288b8b600102619eff565b61968f7f89fa6712e8684eb98720367ca57d9d69a40d30fb330229eeebfb0a092d3f6b15600102619eff565b6196bb7f026f8b9eb3fe73b9cc090c208c3c089b23048cec56febefb164f354d92e05151600102619eff565b6196e77fb40f5db6a093a64a9fae481ebf728d50f87efabb5e089088ca40553fd06cf954600102619eff565b6196f1838561b23d565b15156196fc57600080fd5b6197287fa0b3593ade00b79d93e3a05f9d27a3ba0efaf34327fc63ba132766857ac58ea9600102619eff565b6197547fa9a338ca9d4f854d55b5c51f32ce8fb7cc42092325bbc7a85686e43573512bf8600102619eff565b6197807fbade8354d10b8772fc4f55d60af55b4feadd17d21c3e13ea7bf8988984adb751600102619eff565b60068481548110151561978f57fe5b906000526020600020906002020191506197cb7fc32ef873167351c56e00a8932c6a727b820b8f2357170c52a97a2f5c86130523600102619eff565b6197f77f931fe26e0deae927fb1c6f121a3d982ce13202fc1e025fba01e50a8245ff7956600102619eff565b6198237fd90c67ee0af803220d8ac0f2ba6c8126664b46984d3c6b63f283f2cc2b26899c600102619eff565b61995a84836101006040519081016040529081600082015481526020016001820160009054906101000a900467ffffffffffffffff1667ffffffffffffffff1667ffffffffffffffff1681526020016001820160089054906101000a900467ffffffffffffffff1667ffffffffffffffff1667ffffffffffffffff1681526020016001820160109054906101000a900463ffffffff1663ffffffff1663ffffffff1681526020016001820160149054906101000a900463ffffffff1663ffffffff1663ffffffff1681526020016001820160189054906101000a900463ffffffff1663ffffffff1663ffffffff16815260200160018201601c9054906101000a900461ffff1661ffff1661ffff16815260200160018201601e9054906101000a900461ffff1661ffff1661ffff168152505061cbad565b151561996557600080fd5b6199917fec0974adfedb05bc650207c07ba20bdf5663747d62cf12bf1dec598b4d1c7c35600102619eff565b6199bd7fb207ef40ecd8bb1dc989fbb8296ae5c1a8038416835576a1c78d3a0a6cfe9bb9600102619eff565b6199e97f37432822c78fe15758a23366ebae1a98f5dedffcdd0c004698d1204d3fa2d1ce600102619eff565b6006838154811015156199f857fe5b90600052602060002090600202019050619a347fb81305ac3c02fe00a289b3a0813667e8ef0fcb87077f229b9755cee88187b76a600102619eff565b619a607f099f6d9cc0e543cfd8905fdcdc9e321c939466e85b22a5b9ee19657b15e92cbe600102619eff565b619a8c7f100bac891c7cda9c0fc635176c6bd6371f02cb0ab6d59bc607c6d4567ff08495600102619eff565b619bc383826101006040519081016040529081600082015481526020016001820160009054906101000a900467ffffffffffffffff1667ffffffffffffffff1667ffffffffffffffff1681526020016001820160089054906101000a900467ffffffffffffffff1667ffffffffffffffff1667ffffffffffffffff1681526020016001820160109054906101000a900463ffffffff1663ffffffff1663ffffffff1681526020016001820160149054906101000a900463ffffffff1663ffffffff1663ffffffff1681526020016001820160189054906101000a900463ffffffff1663ffffffff1663ffffffff16815260200160018201601c9054906101000a900461ffff1661ffff1661ffff16815260200160018201601e9054906101000a900461ffff1661ffff1661ffff168152505061cbad565b1515619bce57600080fd5b619bfa7fcda9ea3ca75595e7ed7c9984d2952f48ee4246a9f12c7798fb9928722f4449bf600102619eff565b619c267f4a345083d72de97d98a4d2b43b26529b48ff3dca90789cefcd9c73ae8e737b10600102619eff565b619c527f271a9928ddc1beb9a1d073b056d07dc306c85bb46c5b358957faf84b8fd568e2600102619eff565b619c7e7febff20a5e9d486511d86ec6977ed42beaa6744beec1a2a667cd34c1e7419b169600102619eff565b619c8a8285838661a974565b1515619c9557600080fd5b619cc17faa511ebb30d266ef5931b304f4ce76d6c8988b8e2dcf2081716d1b7882b8ff40600102619eff565b619ced7f17a4022e9254dcd099e1fe097874859281b3973f7b528fb0fc6af957b7506045600102619eff565b619d197fe58ca24c2e9c17be1d275f31423631b47abaf0a01e4b38653c6b9cd6aebe8501600102619eff565b619d23848461d164565b50505050565b50565b50565b6000619d5d7ff620c8e7d6f39c01885c2f71899579216cff732114cbb5eef54d7e5e9a26f7ec600102619d2c565b619d897f8aa379ba9d2f7b27c97830c6a8b3692f1f0b6c07b5dd2cf671da1ae2bed490a6600102619d2c565b619db57f284f45a4377482355d6da17ab0c407f006dbb1030be26f0fe8c2ed396f12ae9b600102619d2c565b8273ffffffffffffffffffffffffffffffffffffffff166007600084815260200190815260200160002060009054906101000a900473ffffffffffffffffffffffffffffffffffffffff1673ffffffffffffffffffffffffffffffffffffffff1614905092915050565b619e4b7fb41cd5f6201c7bf3f76d2b60228af44106d8421c721046002117e62c95cf9e16600102619d2c565b619e777fa4449cf38feca80eeb21c8422f360bb542f795915e091a010a5cc6a2ec8d2490600102619d2c565b619ea37f766b16c6dd58fadf52362556f318d8f8db6c5a620f0bf45b88faaa8b542f311a600102619d2c565b806009600084815260200190815260200160002060006101000a81548173ffffffffffffffffffffffffffffffffffffffff021916908373ffffffffffffffffffffffffffffffffffffffff1602179055505050565b50565b50565b50565b6000619f307f3ae97b2983935f6bc221b02c21265cb10a524cb974da3345c6e6bbc16e31fb5d600102619d2c565b619f5c7fa8a5df3c83ef1fcc9a2e7879ee1b05af0f7f8c14cf1914d0b7b9573ce40e619c600102619d2c565b619f887f915c2b227dcc2832771b55a08b846cd2b47603142a46d6eec2b45047717dbd5b600102619d2c565b8273ffffffffffffffffffffffffffffffffffffffff166009600084815260200190815260200160002060009054906101000a900473ffffffffffffffffffffffffffffffffffffffff1673ffffffffffffffffffffffffffffffffffffffff1614905092915050565b61a01e7f66b696999af1a6a5a345bf3e9f29fedb18e5666a229a977c9f6af3cbc94738bb60010261b484565b61a04a7f54f4b79b2d0d8747ddaa341ae0bfe7d5522db5383323e2fd81ebc48cd704e9fb60010261b484565b61a0767fb3d27e017d666ac9fbc5d11deb51ba46e2b263acea399b7bafbb13c3288af83860010261b484565b600073ffffffffffffffffffffffffffffffffffffffff168273ffffffffffffffffffffffffffffffffffffffff16141561a13e5761a0d77feddf6b000c535abae7d0b760c7c16929e51af1469b587db67a62afde7e19cf5a60010261b484565b61a1037fa584a9b7faafe335bfebf096b8c371a4f295bf67342dbf5772750ffc39cc3a0260010261b484565b6007600082815260200190815260200160002060006101000a81549073ffffffffffffffffffffffffffffffffffffffff021916905561a290565b61a16a7f93b059e4aac9bd4320e7a5f7d9980173294e9757131d11de2edc9599f324e3a060010261b484565b61a1967fa6d303d9287b7834d673e33b530dd58e6170c196c236730b72622a4c376d71ff60010261b484565b600860008373ffffffffffffffffffffffffffffffffffffffff1673ffffffffffffffffffffffffffffffffffffffff1681526020019081526020016000206000815480929190600101919050555061a2117f44ef1e3b61a49bb5208bbbecb00c8bfe5dfc9be34c0480bfaa25ef90a5ecdc5d60010261b484565b61a23d7f365ffe523aae4c9ffadf73544c18a5552ff1ff7b389c2cbe13c9d15b3326b9aa60010261b484565b816007600083815260200190815260200160002060006101000a81548173ffffffffffffffffffffffffffffffffffffffff021916908373ffffffffffffffffffffffffffffffffffffffff1602179055505b61a2bc7f2226ce019e47537d8e454ddca5e112d4903790ace74d41dc9d363c43b3410cad60010261b484565b61a2e87f47385f808687c27d5a59a7dc42f93e0fdeea737f727cc62e711669ff5c38f10860010261b484565b600073ffffffffffffffffffffffffffffffffffffffff168373ffffffffffffffffffffffffffffffffffffffff1614151561a48f5761a34a7f4e6127e4a994fba5df78e71aa18f1f1d523362630cb30aead6876e9990c428c660010261b484565b61a3767fb235be59090e82c7bfa8a8b8023417fd999d3fd1bba568e191668a4e186e463f60010261b484565b600860008473ffffffffffffffffffffffffffffffffffffffff1673ffffffffffffffffffffffffffffffffffffffff168152602001908152602001600020600081548092919060019003919050555061a3f27f4ed115f965b9ea3e54650231154a5f18cc3a35f092b81ad39aacaa7e85475e2860010261b484565b600a600082815260200190815260200160002060006101000a81549073ffffffffffffffffffffffffffffffffffffffff021916905561a4547fae028673c4046d8259fe2c9a860fcb6a49bbbaa83d1dd3ca2ac0688d1ae4801f60010261b484565b6009600082815260200190815260200160002060006101000a81549073ffffffffffffffffffffffffffffffffffffffff021916905561a4bc565b61a4bb7f31b6fa50e79ee1c74054d4e9d070882636304fdaf307c0f2eb7f23d44fa533fd60010261b484565b5b61a4e87f0668f245b8ed5f50acf7a77b0b916c0b8f67b3800fb95d8d4d7bd9c893e68e2560010261b484565b61a5147f4d5369baa40700f5ca0035a032d898cee0eeae70c91a454ee4172329d88f4be260010261b484565b7fddf252ad1be2c89b69c2b068fc378daa952ba7f163c4a11628f55a4df523b3ef838383604051808473ffffffffffffffffffffffffffffffffffffffff1673ffffffffffffffffffffffffffffffffffffffff1681526020018373ffffffffffffffffffffffffffffffffffffffff1673ffffffffffffffffffffffffffffffffffffffff168152602001828152602001935050505060405180910390a1505050565b600061a5e67f4ac87dde4a4fbaca206364122e0df3a6f4184df6c76089275191a1a34ad9d3b5600102619efc565b61a6127f54cd04fb1ca2f4b806ac1fd822067d8213e04e80be4638862e29ac77e9b81ba1600102619efc565b61a63e7f145cf622b2babc155e6defba81267c326ef5e297fe33e809a972ee7f207dbaea600102619efc565b61a66a7f7afe5a0d7123df7eb4b516447a4b1f38456e55b80cdc5d51b0e89076e787f3ac600102619efc565b60008261ffff1611151561a67d57600080fd5b61a6a97f1d0857e361644fc529011044b538b4529871176050090b70cff8659acaccb4d3600102619efc565b61a6d57fe44b9a926eb40ebe146f72fe8eb1f294bb0f38a6706d5d4f1dba7c251baec6b1600102619efc565b61a7017feee4bbc877551112a62887ca03948a0987c894b2b6194910b2f5dc2fd97b7760600102619efc565b600e600084815260200190815260200160002060009054906101000a900461ffff16905061a7517f8cf086795e83053371bfd98d3f0c3dcd9d14bf9fb5aa9fe2eece2123f6fdd242600102619efc565b61a77d7f01ce12e48fd9ff60619a8c1b06837766ea5450b349c6af278e6eb7a1ec03ffe2600102619efc565b61a7a97ff0c1f85969b006723f322c591da0ed4e84fa6e4601d81473e570f9fd14d8f530600102619efc565b8161ffff1682821661ffff1614151561a7c157600080fd5b61a7ed7f4d861962e20dbdb5080ce1b51f69537cc1a42ecf230a3189f84fce7c681221f5600102619efc565b61a8197fb94b1ad502b870dbe3e12366b95058558b90074bb995f8afdf882f83d16263b0600102619efc565b61a8457f75e7611228a417365986770319c879df6fa4cd8f9bdfc4d4a52a84d82ad9f2b9600102619efc565b818118905061a8767f96978da1a422b0e207baf3b657187fb19d3e499dec944e636702b68ea68a9133600102619efc565b61a8a27f3938bb22cba27a8e5cc6b45e821b00e56065102b6c703457829aacd8cba95ab7600102619efc565b80600e600085815260200190815260200160002060006101000a81548161ffff021916908361ffff16021790555061a8fc7f6d57617351ba084e8df47de9c0daa6faa76c09247c21437800b7f4ccd12bda36600102619efc565b61a9287f848cad68c32655ac5b251517988645ef74f7ef99629035530f340e296d851ee3600102619efc565b7f96b828b49c6eb235f60dde08b68959e6baef50b35a662b6db3cade02872d32308382604051808381526020018261ffff1661ffff1681526020019250505060405180910390a1505050565b600061a9a27f2652f96c20139186852897ab0075422e870e3cbc827706314b978e6ccc959a6e600102619eff565b61a9ce7f5471a63818dad5c8fd1ad807102fee99c9dc31d49ad789a1b9eba4c5a109baf6600102619eff565b61a9fa7f7a91d49f83af5e845d136b3bd3f65bf8d105172aec1f74ff5bb1439983ba958e600102619eff565b8184141561aa8f5761aa2e7f097ce782f45e429acea2c0806b66e01335cb634901d376d2f67a57aec6a5c761600102619eff565b61aa5a7f0ba6eb3b8edf9a128cd6aa804f81ef088b8acf527f5bd99ba1473d727deed6ad600102619eff565b61aa867f6561a5a123878f0dc2a6f36333878c92ebb29132c83fd94cbc48f75d2faa5c1c600102619eff565b6000905061b235565b61aabb7f8f6b15014f83ea172ad55991b49ef14e7afb60cdecdcebcacb974a3680b81f68600102619eff565b61aae77f084c279267a7211ca2c83ae9ddbb04fb9a70ae8bf9d2823b355f82d1e2dc1081600102619eff565b61ab137f059e348281112c8121387d768b4f4bbd98bfb6c0824ec83092bb7a42ff7d3da8600102619eff565b818560010160109054906101000a900463ffffffff1663ffffffff16148061ab545750818560010160149054906101000a900463ffffffff1663ffffffff16145b1561abe65761ab857f3926957f804452c2722cd4b3ebb023dec2db32041c9334a0464fb941eae12121600102619eff565b61abb17fbfdb2ce3b1fbb66fdf9d1e2a02dae93d9814d81fc3e4b44c8a4959a7d7814c04600102619eff565b61abdd7fbb08912addd494178dd1214a18e1934ab119d198df3ec6fe2ad41bb33b979789600102619eff565b6000905061b235565b61ac127f154f55f71919e0781bbdcd08daa299b109a00e9c816388709db14b29e1ca843d600102619eff565b61ac3e7fe63b4bb507ee0d913a708ff1ed55dc794eff0ecd55226c2e3dd248c190684e2b600102619eff565b61ac6a7fb1be094b3f03681eed85b14ebef5a3b62b88e826f131e897531354286d58633c600102619eff565b838360010160109054906101000a900463ffffffff1663ffffffff16148061acab5750838360010160149054906101000a900463ffffffff1663ffffffff16145b1561ad3d5761acdc7f26d771681171c199ec8e854be6cb568d473c62df7b04cff9596d838d05539c7a600102619eff565b61ad087fedc57b718ae2e5596768017df2a37fdf79959793621f01f7b37f46d1a7c54ba0600102619eff565b61ad347f46b574245b24ba9460da2fc9b19719c4acc2bd7526dd3fd6962b1050ede3e7bc600102619eff565b6000905061b235565b61ad697f3f43a8d904d2b5a331a58b496d3bc567c03ede4b06c51347aec49c5a811d41f0600102619eff565b61ad957fae1c5827f4a4e25a25cc18195145a12d2469d4310588975fa863254f72bca263600102619eff565b61adc17feb3f1b3567e4290cebbe6595419ca83e16a8dfb39067761bcefbd1ed1205abc5600102619eff565b60008360010160109054906101000a900463ffffffff1663ffffffff16148061ae04575060008560010160109054906101000a900463ffffffff1663ffffffff16145b1561ae965761ae357f5bdd158931799e4929ca9e192b59bf06de80974209e2169e187a4c29d87552f9600102619eff565b61ae617f35823a33473b02e6f6658373792dd844728b5cae2191a8b7ad9e7a1a389ce820600102619eff565b61ae8d7f21b83b98b69328d44a7db703adce8efa286c80ba36b55c05a699bf8dea5f3f4f600102619eff565b6001905061b235565b61aec27ffa7be26a5895b4e7265320f2b2587646f638084360536bf122743302bbb1bb38600102619eff565b61aeee7f4026dac0631272036909db3173aed0916f81e8ea2957e3ad1ce17350ac72b5e6600102619eff565b61af1a7fe54e7bb93348017fa9890dbf6c049a36614e78ae438d0f5e59120f4e91b99809600102619eff565b8460010160109054906101000a900463ffffffff1663ffffffff168360010160109054906101000a900463ffffffff1663ffffffff16148061af8f57508460010160149054906101000a900463ffffffff1663ffffffff168360010160109054906101000a900463ffffffff1663ffffffff16145b1561b0215761afc07f39e2fadf80b1b0dab4d9718e2aaae39db3d406c69f5dc37c20fb114498a7c863600102619eff565b61afec7f2c57caa814c88c64eec59992f3785b90cff1d95ccd5b20b3862e7f95676e88d3600102619eff565b61b0187f4d6518a54750232d752d520e88c25a4abdf56025ccb85f1e1ba97781548d2f99600102619eff565b6000905061b235565b61b04d7f4edefcb3ec9e7d5e8dc5782cf4dde881c0d2483a3898e8d4e2946a13bf451c5d600102619eff565b61b0797f6490bc06189024d196d4f1d6af72a96957096b66301a747495064bd4908d34fb600102619eff565b61b0a57f3ac2d133462e1536a0511d042d983ca2c98b3db48e7fe30fb01a0615300b42c3600102619eff565b8460010160109054906101000a900463ffffffff1663ffffffff168360010160149054906101000a900463ffffffff1663ffffffff16148061b11a57508460010160149054906101000a900463ffffffff1663ffffffff168360010160149054906101000a900463ffffffff1663ffffffff16145b1561b1ac5761b14b7fc79d9839cb73fa78cdc9dc13c08b1a16da44abcf5b58211e76ceb3fa24eaa0c9600102619eff565b61b1777fe0f677e402691d5f82229ca5291478da7202a5d583026e15716f539ece6c6f5a600102619eff565b61b1a37f11e233e8c256fbf47bf04a76d0f551d0942f618ff08164b2102a84c31b4ca517600102619eff565b6000905061b235565b61b1d87f119ebad30b6dfbf8f80edef955a9644e5d2ff842f7d5fd5db5ce49890bdb4066600102619eff565b61b2047f21a19c216416a64a7b9083131d53a951cd76ee6149d7388921dd4beeb8cad575600102619eff565b61b2307fbc6081cf1bab835ebe219af24aaf7bac4bb5dc1324ce2f4c5a280c8cefdf9176600102619eff565b600190505b949350505050565b600080600061b26e7f6ccf932e04acbdcce047f227eb79aa79538d5a0fef8d0efb56534644c34a3029600102619eff565b61b29a7f9dc655809df2592bcff449e430de9858e95663a258f7065e87ac3c855307f021600102619eff565b61b2c67f9fc048062d1af2e56c2e370dfc5cc7e12bcb89d70f47e3df908293b264732e27600102619eff565b6007600085815260200190815260200160002060009054906101000a900473ffffffffffffffffffffffffffffffffffffffff16915061b3287ff8b3062d0c6f2e2488255381e9638cd08ef3263f6a3ea1ce2eab447ee1092c18600102619eff565b61b3547fc85490541f1549fce21871f15e24e8710b84e837264eb471b218deb3933abed9600102619eff565b6007600086815260200190815260200160002060009054906101000a900473ffffffffffffffffffffffffffffffffffffffff16905061b3b67f4afda7d323b184a93d8d37884bcb37712bdb638735d0e82e824c51452883325b600102619eff565b61b3e27fbcf7fd10edfeb04e4781d1cc26c6e5acf33ce5a7deed2e05796c0020afd66755600102619eff565b8073ffffffffffffffffffffffffffffffffffffffff168273ffffffffffffffffffffffffffffffffffffffff16148061b47a57508173ffffffffffffffffffffffffffffffffffffffff16600a600087815260200190815260200160002060009054906101000a900473ffffffffffffffffffffffffffffffffffffffff1673ffffffffffffffffffffffffffffffffffffffff16145b9250505092915050565b50565b600061b4b57f2b00a65d31fcab165e8535358c8dc3623cbf5b78dea8c29b9e355578ad37b6cf600102619eff565b61b4e17f203e3a188969079db837ab33843ca7998ded78a08f1668545c9d5fdb7a30dc39600102619eff565b61b50d7fcf85fe10c5f7870dd0aef4ee40b3a2dd38542290b92b6fbdc069865577dfcfa5600102619eff565b60008260a0015163ffffffff161415801561b54057504367ffffffffffffffff16826040015167ffffffffffffffff1611155b9050919050565b60008061b55261d855565b600061b5807faf1a83229740af54757f0d9680e14509b125e1b547461ad1a02d170f0feb995460010261b484565b61b5ac7fc2f4059d2ec48df1e30397faa3121fd1a62bd2c11ec8466eff09dc64dafdeb6660010261b484565b61b5d87fa2d877341c6464a2a0015a097de4cde74c11053a3b431b5ace80654b63ce988960010261b484565b61b6047fefe04f30b1a96537be450fc4421d0cbec5b077ec9f878225130d9900f7abd51b60010261b484565b8863ffffffff168914151561b61857600080fd5b61b6447f891dc4c0acdaf920320fa7b61d1f628b110b269131943c41833c232d970e3c5760010261b484565b61b6707fb969f4128fee5278f6d097b0186d51b26a75663bed4bf7fca48c5b577f8c88fb60010261b484565b61b69c7f4aaa246181b1583170f0a88df963d402d913310af01c0716634dd4d50df7f8ee60010261b484565b61b6c87f110b25b6af71b509da1fc3ec6ee020ce7cedf6d094b894c12f059fec873290ff60010261b484565b8763ffffffff168814151561b6dc57600080fd5b61b7087f25c061f5b20be6acc6aae8011390a9a9723977d31b4c5fc07ba733e4eb8f2e2960010261b484565b61b7347f413875cf3c2aceeaed0a027920ebf7d6f73722ce84f13878c08924190a56a3ac60010261b484565b61b7607fe83a31f46e02e074e46aa6c4896324efcda91e36b6da44dbed6db903044e648260010261b484565b61b78c7f69a56fc4a42e9cbace96ed61624e0fab641e6810339c182b87dfe94319ad49c160010261b484565b8661ffff168714151561b79e57600080fd5b61b7ca7f2231e63dd34fd8fbbeea58fc7e3819749a26f10d60fa51be0b6608d445fa871460010261b484565b61b7f67ff2fdf5413df0643bd28e8ce560e392f0d4c3b865f6e0464b95714a820ab48b5d60010261b484565b61b8227fdbb0207b721227a9eb66221af757237a13f4a0fd20f64a0ae156405aaac87ab460010261b484565b60028781151561b82e57fe5b04925061b85d7f021c2e0632620e122d1505458a088a25d7af7a5526f010e7377d7532beaa5eb260010261b484565b61b8897f79e80ce4b5a8e42f8dc16cde6b4a99c55cfa8e4ca345ebd6de1b8da059c7021b60010261b484565b600d8361ffff16111561b9235761b8c27fc1226ff867e997d9ca97670bdcf470a26bc65ddd45f29753ca04b78cfb0d718d60010261b484565b61b8ee7f11e54662bb48f480547b4ca0434c96163dc96a65d6296c7164e275536b8b359160010261b484565b61b91a7fb1036d9d43d04c9f819b28e80a3ac795ed91d036fed33fcf541f4e7974298d1260010261b484565b600d925061b950565b61b94f7f035c74e7ae3e2a0098511017d92fa1c07ee808923fd78a2017363505bd568bba60010261b484565b5b61b97c7f3fc07d5a94cbb4ccfd895cac66e52def11f2085d28185b33e4f6ebc460d4d1d060010261b484565b61b9a87fc9caf35c6751d45e20d11393623ba020060d805c708e5d299058eb7a59c140bc60010261b484565b610100604051908101604052808781526020014267ffffffffffffffff168152602001600067ffffffffffffffff1681526020018a63ffffffff1681526020018963ffffffff168152602001600063ffffffff1681526020018461ffff1681526020018861ffff16815250915061ba417f708cf5f9ac8723faed74eef918a9665a9e3d38e093592c8bf219b8d56c7982a060010261b484565b61ba6d7f49479d98da59a94fd2ca59fce468c73941ab208c99cc278d358e01a63570510160010261b484565b6001600683908060018154018082558091505090600182039060005260206000209060020201600090919290919091506000820151816000015560208201518160010160006101000a81548167ffffffffffffffff021916908367ffffffffffffffff16021790555060408201518160010160086101000a81548167ffffffffffffffff021916908367ffffffffffffffff16021790555060608201518160010160106101000a81548163ffffffff021916908363ffffffff16021790555060808201518160010160146101000a81548163ffffffff021916908363ffffffff16021790555060a08201518160010160186101000a81548163ffffffff021916908363ffffffff16021790555060c082015181600101601c6101000a81548161ffff021916908361ffff16021790555060e082015181600101601e6101000a81548161ffff021916908361ffff160217905550505003905061bbf17f9aa63b18dca78946b8584ddf38609392dae2f2a07d070e10850b0e23f4a9b40a60010261b484565b61bc1d7f15d1769b8687d4e8f6aa6d242cdcfa52a14c08c7ad5395161a8363a24f222d4660010261b484565b61bc497f70d704080f82b558d9d1e5668411e3a7f3393181e9cd6845a2f16a4ae23b1b5b60010261b484565b8063ffffffff168114151561bc5d57600080fd5b61bc897fcd95a0a86cc7da87bbf27bdc45f85d1b6f886ee3e7ee1ef053e054615a6320ba60010261b484565b61bcb57ff34d4e69368e8b4ef5a6894d75dd89fce064964e799b7b1e76f1d9c15bdf1a7460010261b484565b61bce17fa466790e12551182e079b2122ea013e586efae27cddbc576f8402f054c3d0c2260010261b484565b7fa2950fd8c03e7518275ee57e05ca76c671969b5445b12b1aeea4b0b30195e5df8582846060015163ffffffff16856080015163ffffffff168660000151876020015167ffffffffffffffff16604051808773ffffffffffffffffffffffffffffffffffffffff1673ffffffffffffffffffffffffffffffffffffffff168152602001868152602001858152602001848152602001838152602001828152602001965050505050505060405180910390a161bdbe7fc700d1ebdeb35e368fd4546f2d66f21598f28f4f23edc64ea6a4d8b8dec0c1ea60010261b484565b61bdea7f28f02e64d602931cffbaeabaa94fb8fb5b2cf0e1e898ddb5634433d0cf3348b760010261b484565b61bdf660008683619ff2565b61be227f66687bd90d7dda445e852caa3a4781bba05a310ac12c103b41b22faab0c6bfaa60010261b484565b61be4e7f0815989a39726999d063a887b0c35b1a0836d8477666d46665c81c042b62d57e60010261b484565b80935050505095945050505050565b600080600061be8e7f30b3c0c07f817dafdfffaee96129a64ed0252f6d4f88bdf6689d91ff88c28b98600102619efc565b61beba7fefb5a35eb8ad79ba48054c709e228dd7dbfdfc68c58580adb17f1715709dc7b9600102619efc565b61bee67f93897e5e4f0490c70ec66e3ab20babb0381539bbd7b462636741e647dad3b07d600102619efc565b61bf127f3a0b0da1d2727e73151991689b1d22dfd55239844895e6ef4796b34b1dfb827a600102619efc565b60008461ffff1611151561bf2557600080fd5b61bf517fff6e6b515b5052191d21f38fe509f261f0c071be5aaea800df82640c8df8f791600102619efc565b61bf7d7fe7cd3c148583c2c234c5ac5ebb174b2f156289705f88211a2df38001e2de13ca600102619efc565b61bfa97f23eb2b7e5de59567a952a5b82fd9849791ee10d27634e2dff1e1df0a1def7cc6600102619efc565b600e600086815260200190815260200160002060009054906101000a900461ffff16925061bff97f55037fb314b64c8f20560384d516302940ab9f974f0531f099c550d1050f5903600102619efc565b61c0257fb11cd56a03ed3baf4fccdaf582775e900a18967e82bdd6ce6b0468bae84b1050600102619efc565b61c0517fa2c2252e1fd0b00357ef6891633c811d43afc0e7d65634d16c7af39fcb8601c0600102619efc565b600084841661ffff1614151561c06657600080fd5b61c0927f6f7bf2380ace03fd483e980d236b3e4c7710c2b7244afe4472ba0f9898a3db24600102619efc565b61c0be7f6c10ea1b0236b8ee0ad35e5237d0b5db9408b0bc7067db8f342fe52009fc8373600102619efc565b61c0ea7f0d7fd561126f0f0bcf21c8bf4350f50f2a7d52cced44984eaff79aa54ec3e981600102619efc565b60006001851661ffff16111561c27a5761c1267f02a4f3925f497b7d2ee9996bddbea4dadca312842cdcf74979559814a7067fba600102619efc565b61c1527febc637a85560d6ffae62fb4c404b7d1b11e6f55c9c56a58b99caab9bee49097f600102619efc565b61c17e7fbf07c53372620d01520a813ea28f410c76de0c5f7b1fea242a87aa97a53eaf83600102619efc565b60068581548110151561c18d57fe5b9060005260206000209060020201915061c1c97fd9233b1840b187e0c75913678471c4c475d8532990e2bbc7832428d71c42e2a7600102619efc565b61c1f47e6a523462a1fbffb589cf4df51da84b90f1be151c6f1a2f6226adbc09a66e94600102619efc565b61c2207f4a92f8a9bcfbafe20393bc702f456621de335a9d2ceb38b29cd712e15b63064e600102619efc565b60008260010160189054906101000a900463ffffffff1663ffffffff1614151561c24957600080fd5b61c2757f12c3f201f963fe0bc1618165943230b493c9dd69ae689e0b7889d5f4c6a16147600102619efc565b61c2a7565b61c2a67fc9cca3a192861a6022fd7a79c716c6c0f4147c2617d61e5e583f742235f3808c600102619efc565b5b61c2d37fbe622a7b80f398edac5b4cfdb9a5e9f7fcefdc258228f76192a044251cb099ed600102619efc565b61c2ff7f0155e94e24413f19925d5d01f5c6a62446cb4960f4cbbf923f6019a812fdac75600102619efc565b60006002851661ffff16111561c5e85761c33b7fea0b39bb3401da2ba2193e82a828b647bb700c729c64bf035d13159d53df323b600102619efc565b61c3677f647df0b364bd04b555878e67aa2eb317c398b0e6f5969c1d5cb7948f6fdd3379600102619efc565b61c3937fa987d65536459f7a177983ddeecd62293198b6418013d86210d45b205146cd5a600102619efc565b6007600086815260200190815260200160002060009054906101000a900473ffffffffffffffffffffffffffffffffffffffff16905061c3f57f1b39c73a301f165d9a09749be212acae4448b3d3c619ecd8fd231db2b6e11d49600102619efc565b61c4217f3cbf2b7ec09d0ffabd48dba55e37105ba06ce4220d4112c32ee7c8d0cc660f1b600102619efc565b61c44d7faa6492b4f706069f0264a319f809768001735d2413328fca62f05274da94b426600102619efc565b600b60049054906101000a900473ffffffffffffffffffffffffffffffffffffffff1673ffffffffffffffffffffffffffffffffffffffff168173ffffffffffffffffffffffffffffffffffffffff161415151561c4aa57600080fd5b61c4d67fe059c8bdaf6adb1f8f8ae0edcedf4643d9870a363eba1e6c610b08261e829843600102619efc565b61c5027fbf5a9dca3e48586353f9a8494a089d0311a4b228b486e7938de3c26983cecaf5600102619efc565b61c52e7ff206735294317e20417acabe2de93e8ef38b2977a6f93490b4b5c5e86100add7600102619efc565b61c55a7f0c3cabacefc33d2e4629aff68c39c4d965496a9394e502ec9e63e61e8ebad658600102619efc565b600c60009054906101000a900473ffffffffffffffffffffffffffffffffffffffff1673ffffffffffffffffffffffffffffffffffffffff168173ffffffffffffffffffffffffffffffffffffffff161415151561c5b757600080fd5b61c5e37f49aa0a15b3f055caf6abbd5dc34799e2c21dd154b821fc2e2e44e790fb7c2165600102619efc565b61c615565b61c6147fa9d3ff38c8537170570a1d803812ec42a67bfca83c6eb3ade16c6242090c6d21600102619efc565b5b61c6417fe0234859e842db30f74650b52863c0729d2204554b633ae06b41f08a87ca9aca600102619efc565b61c66d7f4cbed3e28005a9191de8e613ac518dca60499640be2fb0652f544766b9090ec8600102619efc565b838317925061c69e7fe4f1d18a7b655aec221cded95fdd22d4e52dfc7750b2bc3622dc6f42abc950a4600102619efc565b61c6ca7f1a19063a4298ae335d7abdf41711c297957d39c90203d020227456160d879523600102619efc565b82600e600087815260200190815260200160002060006101000a81548161ffff021916908361ffff16021790555061c7247ff0f63dbbce3dca433afb8d169b07ba14e59f2960d44389b97f478e70d628f0de600102619efc565b61c7507fb6e784443591a7f35eec3c769cf9c6cc0bba5e367f5e666a2419931e907bdfc3600102619efc565b7f96b828b49c6eb235f60dde08b68959e6baef50b35a662b6db3cade02872d32308584604051808381526020018261ffff1661ffff1681526020019250505060405180910390a15050505050565b50565b600080600061c7d27f91adf3a9196e319156dafb707542a13488fcb6210ede1da9c9effdb60a606e4960010261c79e565b61c7fe7f565eb6c92ad8cfbc11cf996e434c5b2607c9dbcab152742a785450c277ff843e60010261c79e565b61c82a7fd018bb264c9a6520e022388c00ee508d3e6efc57850d293c816d7c0f5ebe6e5b60010261c79e565b600b60049054906101000a900473ffffffffffffffffffffffffffffffffffffffff1673ffffffffffffffffffffffffffffffffffffffff1663eac9d94c6040518163ffffffff167c0100000000000000000000000000000000000000000000000000000000028152600401602060405180830381600087803b15801561c8b057600080fd5b505af115801561c8c4573d6000803e3d6000fd5b505050506040513d602081101561c8da57600080fd5b8101908080519060200190929190505050915061c9197f0cb1dd7e6bb79af26b5eb0603bc8804fc737191929c9e5c68bab10c1a00d7f6e60010261c79e565b61c9457f31809d09da93c6cd4ad69577d5e5ee33a62805513b2e839a4fa714ed94ed87ff60010261c79e565b61c9717f828ef1e8616f21f941367647a343357d5636d4b0dd214d2628bf8552bb10265a60010261c79e565b816fffffffffffffffffffffffffffffffff168214151561c99157600080fd5b61c9bd7f0fd943acc383d5d756a427ce52055911a762be4b954535a768c2fc91ff2e511260010261c79e565b61c9e97f8c49518e4770385527265536076690ec4f8c436587a4cb2c111a94b89d8b8ef260010261c79e565b61ca157fb0cf276ed72a960ed6cd6360f48dea4fdea0973e6f74e79e8c6355dae8091dea60010261c79e565b60028281151561ca2157fe5b048201905061ca527f5af90cbdc730fb9a27b0199a1fd45f44fc6709e7c8b44820410b8878aeafabb360010261c79e565b61ca7e7f451e27cf8654224f8f92002f67133835ff9e17f7b7e8578bfff6364cc98486eb60010261c79e565b662386f26fc1000081101561cb205761cab97f872dd7b71d066ce3840c9fbf6661eb848241f0e4e7e9e39448d9ddb43600c55560010261c79e565b61cae57f11001e8509f6bc7ec7cde4c092c3532761746c51ee71f07dba9d9b8e5991442060010261c79e565b61cb117fbacc845b7bd6238153e5dd8910604b0d64059d30aacd03e3dc4c090e8ca8282e60010261c79e565b662386f26fc10000905061cb4d565b61cb4c7fd2c772ba80f84306d3e159c5616d1e1ce863ced1e4b8daac8986703b1595803460010261c79e565b5b61cb797fb9bf690b5945264b3783a82f52742423cd1bc3308ddc3bc87ac3eaee37f0936360010261c79e565b61cba57faed02c6f4018ac87ec560a516d27d2fcffdb849d7bbca934dfe5aa5f0bad44c560010261c79e565b809250505090565b600061cbdb7ff6632e130353b95df51682c36e761ac705c78423d1d8ac6fe9d3cfd6a2b7f845600102619eff565b61cc077f3ed0de66f7ea44712ced26a07c2aa45fcc0a42ab258637daf02688f84198849c600102619eff565b61cc337fc5d86c5e6aebc70d30324b73d3897f2217cb5a62e57d01261f2ae3cb7da4bd9f600102619eff565b60008260a0015163ffffffff1614801561cc6557504367ffffffffffffffff16826040015167ffffffffffffffff1611155b801561cc99575060006001600e600086815260200190815260200160002060009054906101000a900461ffff161661ffff16145b905092915050565b600061cccf7f1d77822df049d83386355f59148204c605a5c33d6c9f15e3110018d9369fb32360010261b484565b61ccfb7f624b023533af9b442aa96ea7c1cfa9912ab0b1ede76ebbb6aacc5d342139798060010261b484565b61cd277f91c6a900d6265ed2db5032756e47efd5679dda866ab1a61d3d1a5fde247a12f360010261b484565b61cd537f22e39dd0a5ff2508b65930c6db3525c922a3d95abc4f2814c4bdc1c299d0c7da60010261b484565b60008211151561cd6257600080fd5b61cd8e7f05479ce377b2444c682c1a1737140eeb838a7b55f49ed8bd5f32283101f9a98b60010261b484565b61cdba7f67382d5223aed1ad0381fb46dbf6542b3c75f94cfc04e6c6dca54ef2820a361e60010261b484565b61cde67fdd726886bf0eea761dcd18eab91595656744a9200e61ff548c6234748273f00060010261b484565b6007600083815260200190815260200160002060009054906101000a900473ffffffffffffffffffffffffffffffffffffffff16905061ce487f9b54c4e2be41610caa54d986249bc5b48c678e20afe40d5104acf3e3a679c13960010261b484565b61ce747f8ac7b4b5faafe346ba2fc956069ef73443c7120a7ee41b4d674a32c3cc435e9560010261b484565b61cea07f8b8d425c4143ef81258c88ef6ecf6ef7a0623549d442ee0878ccc73c9992409f60010261b484565b600073ffffffffffffffffffffffffffffffffffffffff168173ffffffffffffffffffffffffffffffffffffffff161415151561cedc57600080fd5b61cf087f16e883088c4b0d00738d8472eb66de7f4ca28305d322e800e1037612f9c5030360010261b484565b61cf347f27c5745023592ad0dcf7b31c622e7518643aa8728f4dadc54af283f2bffde4b560010261b484565b600b600081819054906101000a900463ffffffff168092919060010191906101000a81548163ffffffff021916908363ffffffff1602179055505061cf9b7fe7edf42fae71d7245ae4958dc7a148eff4d915fb75466ffdf04f64e4526cbf8860010261b484565b61cfc77fe8db8fbf6f5968f1907074ad1ee0f91b87ee9b7e0b42c6e6ddb533e6c5beaf6260010261b484565b61cfd381600084619ff2565b5050565b600080600061d0087fa3dd48ce7b423b48d63bf469ab7240979214e47fe0ca10bd3a0eecac43536728600102619eff565b61d0347fa80980815f37affec1797f71d33b1d7652a1a341952678aa63ea4a05ae62f3ec600102619eff565b61d0607fa34e19621281e443e2bf2cc6b4e44bc35bb49f6095d0a69a521592f54010eb6f600102619eff565b60068581548110151561d06f57fe5b9060005260206000209060020201915061d0ab7f03514ada7e928b5e006100681df857a186047fede4458d4af0856bb30bf5e16e600102619eff565b61d0d77f06ee10d0bcdd2503722521b131dd130b6155338b90af1450a523bf84c3e51ea4600102619eff565b60068481548110151561d0e657fe5b9060005260206000209060020201905061d1227ffaed1e3eb954cbba464757903d7dbe272952de62a3d9a4c261ed30472896f377600102619eff565b61d14e7f6b95d3a482d2698e3e510b40aafafc54fc0dab3a2e98b74aa7fa92ed437a543c600102619eff565b61d15a8286838761a974565b9250505092915050565b60008061d1937f622c4b99048f9a1db21307b892af92e702ede9eef257e614b6c81ceec0ddf5e0600102619eff565b61d1bf7f4e839b10cb305d54f89290b6a4bf64db056be3f2f5fbb9562889a0fca9c7c2a3600102619eff565b61d1eb7f9f3a6ba66eda1f5abc9c74fbcc7819f7bb689103f7a357d7811d764ac9d42a6a600102619eff565b60068381548110151561d1fa57fe5b9060005260206000209060020201915061d2367f7da5785ee5d0993b618cbd9dfe3d1e742dc0dd8435ee1b849fc6dd1679ba6e38600102619eff565b61d2627fb53b9b445d9c56c10b8c02401b3c269f341c82e850021031d4611c0b63596b29600102619eff565b60068481548110151561d27157fe5b9060005260206000209060020201905061d2ad7f2db583de487132a90cb96f1b320566b6af0b790b6fc44941f5033ea3295fcb5d600102619eff565b61d2d97f586f39a25ee96cf91a243e0356ce633d0b6e116d1b42c4bb24005d0c9f10d4a9600102619eff565b828160010160186101000a81548163ffffffff021916908363ffffffff16021790555061d3287f9de694d711d7dee61fe3cc98584664e4aeab8f84a7b0a58b876e6969a6d375ab600102619eff565b61d3547fd1705671d9b14eda2bd4d828dc669859330b6607020dded6e9fa832e7720c9bf600102619eff565b61d35d8261d5ee565b61d3897fbe260fef67811afe38d8859eb1d7704c5d2a9ab97e59736bf6a6c37123702b80600102619eff565b61d3b57f143b7c2a8f6d67df1b9254adfe2d9154afcf2ec4bf95359d166f80eaf8b8af8d600102619eff565b61d3be8161d5ee565b61d3ea7f45df8ab7a7410d9b597fed01580bc9eeb70cbfca93c1decfb25fd9c1d8cb87f9600102619eff565b600a600085815260200190815260200160002060006101000a81549073ffffffffffffffffffffffffffffffffffffffff021916905561d44c7f8c1a75a391b5d2b8f7f93a291a3b0549829a28cd8f5ffa8e36cb7ee671e15d88600102619eff565b600a600084815260200190815260200160002060006101000a81549073ffffffffffffffffffffffffffffffffffffffff021916905561d4ae7f4665a9c48233799be943efe9dafa12e4265afb15dacdf7c5cdeb85a9396a46d1600102619eff565b60106000815480929190600101919050555061d4ec7f71f515af926ff1399053c5a2dd922c2514d7a82f5364fe70b794722e6e80664d600102619eff565b61d5187fc2cbb1b7c74d1aed5d33e9f807a10d179ea195e0034de604356a42b84f53b5e9600102619eff565b7f241ea03ca20251805084d27d4440371c34a0b85ff108f6bb5611248f73818b806007600086815260200190815260200160002060009054906101000a900473ffffffffffffffffffffffffffffffffffffffff1685858460010160089054906101000a900467ffffffffffffffff16604051808573ffffffffffffffffffffffffffffffffffffffff1673ffffffffffffffffffffffffffffffffffffffff1681526020018481526020018381526020018267ffffffffffffffff16815260200194505050505060405180910390a150505050565b61d61a7fdfe29d04d80bc4b8b212c2acf84f0a43170482175082301b7f006c341b5774d4600102619eff565b61d6467f1887905a1bff995105060bc83483350398ce11df4ed973f8019b6750d81f293a600102619eff565b61d6727f7afa96d47ada90762dd020e23fa38eae542739303862290ef55846503e2f3017600102619eff565b43600554600383600101601c9054906101000a900461ffff1661ffff16600e8110151561d69b57fe5b600891828204019190066004029054906101000a900463ffffffff1663ffffffff1681151561d6c657fe5b04018160010160086101000a81548167ffffffffffffffff021916908367ffffffffffffffff16021790555061d71e7fd1c3df03e8e7a9f3b4887779b26aba6d0393c6d5953a0e246b0babea41296ba6600102619eff565b61d74a7fca9883fc42aa6a45a5e5936df7f615198b62b57ae3c51637e41525fc8f32c96d600102619eff565b600d81600101601c9054906101000a900461ffff1661ffff16101561d8255761d7957f97b37817ff7d918b20b0ad89f9daaa75d6962cdf33e7b609da582660cb7e3d43600102619eff565b61d7c17f8821d1076f206d388045b85578ed064fccf9e4a1812505e5ad100f30050a664b600102619eff565b61d7ed7f03ea38168c8998943c3634ae7b76fb72f7a8f1d5d9e6e7468d5df72be8e94b79600102619eff565b600181600101601c8282829054906101000a900461ffff160192506101000a81548161ffff021916908361ffff16021790555061d852565b61d8517f980383c2a5718c4af09b110ef8a239b78436a28c9198566959dc87b4468e5212600102619eff565b5b50565b6101006040519081016040528060008152602001600067ffffffffffffffff168152602001600067ffffffffffffffff168152602001600063ffffffff168152602001600063ffffffff168152602001600063ffffffff168152602001600061ffff168152602001600061ffff16815250905600a165627a7a72305820f45724b0846e4d7b49c84c7cf8733455c96447e1f82e066298a9fbc013db85ff0029",
  "linkReferences": {},
  "deployedLinkReferences": {}
}