{
  "_format": "hh-sol-artifact-1",
  "contractName": "BotOwnership",
  "sourceName": "contracts/BotCore.sol",
  "abi": [
    {
      "constant": true,
      "inputs": [],
      "name": "cfoAddress",
      "outputs": [
        {
          "name": "",
          "type": "address"
        }
      ],
      "payable": false,
      "stateMutability": "view",
      "type": "function"
    },
    {
      "constant": true,
      "inputs": [],
      "name": "name",
      "outputs": [
        {
          "name": "",
          "type": "string"
        }
      ],
      "payable": false,
      "stateMutability": "view",
      "type": "function"
    },
    {
      "constant": false,
      "inputs": [
        {
          "name": "_to",
          "type": "address"
        },
        {
          "name": "_tokenId",
          "type": "uint256"
        }
      ],
      "name": "approve",
      "outputs": [],
      "payable": false,
      "stateMutability": "nonpayable",
      "type": "function"
    },
    {
      "constant": true,
      "inputs": [],
      "name": "ceoAddress",
      "outputs": [
        {
          "name": "",
          "type": "address"
        }
      ],
      "payable": false,
      "stateMutability": "view",
      "type": "function"
    },
    {
      "constant": false,
      "inputs": [
        {
          "name": "_contract",
          "type": "address"
        }
      ],
      "name": "addExtension",
      "outputs": [],
      "payable": false,
      "stateMutability": "nonpayable",
      "type": "function"
    },
    {
      "constant": true,
      "inputs": [],
      "name": "totalSupply",
      "outputs": [
        {
          "name": "",
          "type": "uint256"
        }
      ],
      "payable": false,
      "stateMutability": "view",
      "type": "function"
    },
    {
      "constant": true,
      "inputs": [],
      "name": "siringAuction",
      "outputs": [
        {
          "name": "",
          "type": "address"
        }
      ],
      "payable": false,
      "stateMutability": "view",
      "type": "function"
    },
    {
      "constant": false,
      "inputs": [
        {
          "name": "_contract",
          "type": "address"
        }
      ],
      "name": "removeExtension",
      "outputs": [],
      "payable": false,
      "stateMutability": "nonpayable",
      "type": "function"
    },
    {
      "constant": false,
      "inputs": [
        {
          "name": "_from",
          "type": "address"
        },
        {
          "name": "_to",
          "type": "address"
        },
        {
          "name": "_tokenId",
          "type": "uint256"
        }
      ],
      "name": "transferFrom",
      "outputs": [],
      "payable": false,
      "stateMutability": "nonpayable",
      "type": "function"
    },
    {
      "constant": true,
      "inputs": [
        {
          "name": "",
          "type": "uint256"
        }
      ],
      "name": "botIndexToOwner",
      "outputs": [
        {
          "name": "",
          "type": "address"
        }
      ],
      "payable": false,
      "stateMutability": "view",
      "type": "function"
    },
    {
      "constant": false,
      "inputs": [
        {
          "name": "_newCEO",
          "type": "address"
        }
      ],
      "name": "setCEO",
      "outputs": [],
      "payable": false,
      "stateMutability": "nonpayable",
      "type": "function"
    },
    {
      "constant": false,
      "inputs": [
        {
          "name": "_newCOO",
          "type": "address"
        }
      ],
      "name": "setCOO",
      "outputs": [],
      "payable": false,
      "stateMutability": "nonpayable",
      "type": "function"
    },
    {
      "constant": false,
      "inputs": [
        {
          "name": "_botId",
          "type": "uint256"
        },
        {
          "name": "_mask",
          "type": "uint16"
        }
      ],
      "name": "extUnlockBot",
      "outputs": [
        {
          "name": "",
          "type": "uint16"
        }
      ],
      "payable": false,
      "stateMutability": "nonpayable",
      "type": "function"
    },
    {
      "constant": false,
      "inputs": [],
      "name": "unpause",
      "outputs": [],
      "payable": false,
      "stateMutability": "nonpayable",
      "type": "function"
    },
    {
      "constant": true,
      "inputs": [
        {
          "name": "",
          "type": "uint256"
        }
      ],
      "name": "sireAllowedToAddress",
      "outputs": [
        {
          "name": "",
          "type": "address"
        }
      ],
      "payable": false,
      "stateMutability": "view",
      "type": "function"
    },
    {
      "constant": false,
      "inputs": [
        {
          "name": "_newCFO",
          "type": "address"
        }
      ],
      "name": "setCFO",
      "outputs": [],
      "payable": false,
      "stateMutability": "nonpayable",
      "type": "function"
    },
    {
      "constant": false,
      "inputs": [
        {
          "name": "secs",
          "type": "uint256"
        }
      ],
      "name": "setSecondsPerBlock",
      "outputs": [],
      "payable": false,
      "stateMutability": "nonpayable",
      "type": "function"
    },
    {
      "constant": true,
      "inputs": [],
      "name": "paused",
      "outputs": [
        {
          "name": "",
          "type": "bool"
        }
      ],
      "payable": false,
      "stateMutability": "view",
      "type": "function"
    },
    {
      "constant": true,
      "inputs": [],
      "name": "destroyedBots",
      "outputs": [
        {
          "name": "",
          "type": "uint32"
        }
      ],
      "payable": false,
      "stateMutability": "view",
      "type": "function"
    },
    {
      "constant": true,
      "inputs": [
        {
          "name": "_tokenId",
          "type": "uint256"
        }
      ],
      "name": "ownerOf",
      "outputs": [
        {
          "name": "owner",
          "type": "address"
        }
      ],
      "payable": false,
      "stateMutability": "view",
      "type": "function"
    },
    {
      "constant": true,
      "inputs": [
        {
          "name": "_owner",
          "type": "address"
        }
      ],
      "name": "balanceOf",
      "outputs": [
        {
          "name": "count",
          "type": "uint256"
        }
      ],
      "payable": false,
      "stateMutability": "view",
      "type": "function"
    },
    {
      "constant": true,
      "inputs": [],
      "name": "secondsPerBlock",
      "outputs": [
        {
          "name": "",
          "type": "uint256"
        }
      ],
      "payable": false,
      "stateMutability": "view",
      "type": "function"
    },
    {
      "constant": false,
      "inputs": [],
      "name": "pause",
      "outputs": [],
      "payable": false,
      "stateMutability": "nonpayable",
      "type": "function"
    },
    {
      "constant": true,
      "inputs": [
        {
          "name": "_owner",
          "type": "address"
        }
      ],
      "name": "tokensOfOwner",
      "outputs": [
        {
          "name": "ownerTokens",
          "type": "uint256[]"
        }
      ],
      "payable": false,
      "stateMutability": "view",
      "type": "function"
    },
    {
      "constant": true,
      "inputs": [
        {
          "name": "_botId",
          "type": "uint256"
        }
      ],
      "name": "extGetLock",
      "outputs": [
        {
          "name": "",
          "type": "uint16"
        }
      ],
      "payable": false,
      "stateMutability": "view",
      "type": "function"
    },
    {
      "constant": true,
      "inputs": [],
      "name": "symbol",
      "outputs": [
        {
          "name": "",
          "type": "string"
        }
      ],
      "payable": false,
      "stateMutability": "view",
      "type": "function"
    },
    {
      "constant": true,
      "inputs": [
        {
          "name": "",
          "type": "uint256"
        }
      ],
      "name": "cooldowns",
      "outputs": [
        {
          "name": "",
          "type": "uint32"
        }
      ],
      "payable": false,
      "stateMutability": "view",
      "type": "function"
    },
    {
      "constant": true,
      "inputs": [
        {
          "name": "",
          "type": "uint256"
        }
      ],
      "name": "botIndexToApproved",
      "outputs": [
        {
          "name": "",
          "type": "address"
        }
      ],
      "payable": false,
      "stateMutability": "view",
      "type": "function"
    },
    {
      "constant": false,
      "inputs": [
        {
          "name": "_to",
          "type": "address"
        },
        {
          "name": "_tokenId",
          "type": "uint256"
        }
      ],
      "name": "transfer",
      "outputs": [],
      "payable": false,
      "stateMutability": "nonpayable",
      "type": "function"
    },
    {
      "constant": true,
      "inputs": [],
      "name": "cooAddress",
      "outputs": [
        {
          "name": "",
          "type": "address"
        }
      ],
      "payable": false,
      "stateMutability": "view",
      "type": "function"
    },
    {
      "constant": false,
      "inputs": [
        {
          "name": "_botId",
          "type": "uint256"
        },
        {
          "name": "_mask",
          "type": "uint16"
        }
      ],
      "name": "extLockBot",
      "outputs": [],
      "payable": false,
      "stateMutability": "nonpayable",
      "type": "function"
    },
    {
      "constant": false,
      "inputs": [
        {
          "name": "_matronId",
          "type": "uint256"
        },
        {
          "name": "_sireId",
          "type": "uint256"
        },
        {
          "name": "_generation",
          "type": "uint256"
        },
        {
          "name": "_genes",
          "type": "uint256"
        },
        {
          "name": "_owner",
          "type": "address"
        }
      ],
      "name": "extCreateBot",
      "outputs": [
        {
          "name": "",
          "type": "uint256"
        }
      ],
      "payable": false,
      "stateMutability": "nonpayable",
      "type": "function"
    },
    {
      "constant": true,
      "inputs": [],
      "name": "saleAuction",
      "outputs": [
        {
          "name": "",
          "type": "address"
        }
      ],
      "payable": false,
      "stateMutability": "view",
      "type": "function"
    },
    {
      "constant": false,
      "inputs": [
        {
          "name": "_botId",
          "type": "uint256"
        }
      ],
      "name": "extDestroyBot",
      "outputs": [],
      "payable": false,
      "stateMutability": "nonpayable",
      "type": "function"
    },
    {
      "anonymous": false,
      "inputs": [
        {
          "indexed": false,
          "name": "from",
          "type": "address"
        },
        {
          "indexed": false,
          "name": "to",
          "type": "address"
        },
        {
          "indexed": false,
          "name": "tokenId",
          "type": "uint256"
        }
      ],
      "name": "Transfer",
      "type": "event"
    },
    {
      "anonymous": false,
      "inputs": [
        {
          "indexed": false,
          "name": "owner",
          "type": "address"
        },
        {
          "indexed": false,
          "name": "approved",
          "type": "address"
        },
        {
          "indexed": false,
          "name": "tokenId",
          "type": "uint256"
        }
      ],
      "name": "Approval",
      "type": "event"
    },
    {
      "anonymous": false,
      "inputs": [
        {
          "indexed": false,
          "name": "botId",
          "type": "uint256"
        },
        {
          "indexed": false,
          "name": "mask",
          "type": "uint16"
        }
      ],
      "name": "Lock",
      "type": "event"
    },
    {
      "anonymous": false,
      "inputs": [
        {
          "indexed": false,
          "name": "owner",
          "type": "address"
        },
        {
          "indexed": false,
          "name": "botId",
          "type": "uint256"
        },
        {
          "indexed": false,
          "name": "matronId",
          "type": "uint256"
        },
        {
          "indexed": false,
          "name": "sireId",
          "type": "uint256"
        },
        {
          "indexed": false,
          "name": "genes",
          "type": "uint256"
        },
        {
          "indexed": false,
          "name": "birthTime",
          "type": "uint256"
        }
      ],
      "name": "Birth",
      "type": "event"
    },
    {
      "anonymous": false,
      "inputs": [
        {
          "indexed": false,
          "name": "newContract",
          "type": "address"
        }
      ],
      "name": "ContractUpgrade",
      "type": "event"
    }
  ],
  "bytecode": "0x60806040526000600260146101000a81548160ff0219169083151502179055506101c060405190810160405280603c63ffffffff1663ffffffff168152602001607863ffffffff1663ffffffff16815260200161012c63ffffffff1663ffffffff16815260200161025863ffffffff1663ffffffff16815260200161070863ffffffff1663ffffffff168152602001610e1063ffffffff1663ffffffff168152602001611c2063ffffffff1663ffffffff16815260200161384063ffffffff1663ffffffff16815260200161708063ffffffff1663ffffffff16815260200161e10063ffffffff1663ffffffff1681526020016201518063ffffffff1663ffffffff1681526020016202a30063ffffffff1663ffffffff1681526020016205460063ffffffff1663ffffffff16815260200162093a8063ffffffff1663ffffffff16815250600390600e6200015692919062000170565b50600f6005553480156200016957600080fd5b5062000250565b82600e600701600890048101928215620002075791602002820160005b83821115620001d357835183826101000a81548163ffffffff021916908363ffffffff16021790555092602001926004016020816003010492830192600103026200018d565b8015620002055782816101000a81549063ffffffff0219169055600401602081600301049283019260010302620001d3565b505b5090506200021691906200021a565b5090565b6200024d91905b808211156200024957600081816101000a81549063ffffffff02191690555060010162000221565b5090565b90565b616f0280620002606000396000f3006080604052600436106101ac576000357c0100000000000000000000000000000000000000000000000000000000900463ffffffff1680630519ce79146101b157806306fdde0314610208578063095ea7b3146102985780630a0f8168146102e5578063170ff3e11461033c57806318160ddd1461037f57806321717ebf146103aa57806321ee102b1461040157806323b872dd1461044457806327ab9f20146104b157806327d7874c1461051e5780632ba73c15146105615780633c4b07de146105a45780633f4ba83a146105fb57806346116e6f146106125780634e0a33791461067f5780635663896e146106c25780635c975abb146106ef57806361b6683c1461071e5780636352211e1461075557806370a08231146107c25780637a7d4937146108195780638456cb59146108445780638462151c1461085b5780638a653c93146108f357806395d89b411461093c5780639d6fac6f146109cc578063a8f8884d14610a19578063a9059cbb14610a86578063b047fb5014610ad3578063bf4a548514610b2a578063d1b12b4e14610b65578063e6cbe35114610be4578063e9b5822514610c3b575b600080fd5b3480156101bd57600080fd5b506101c6610c68565b604051808273ffffffffffffffffffffffffffffffffffffffff1673ffffffffffffffffffffffffffffffffffffffff16815260200191505060405180910390f35b34801561021457600080fd5b5061021d610c8e565b6040518080602001828103825283818151815260200191508051906020019080838360005b8381101561025d578082015181840152602081019050610242565b50505050905090810190601f16801561028a5780820380516001836020036101000a031916815260200191505b509250505060405180910390f35b3480156102a457600080fd5b506102e3600480360381019080803573ffffffffffffffffffffffffffffffffffffffff16906020019092919080359060200190929190505050610cc7565b005b3480156102f157600080fd5b506102fa61111f565b604051808273ffffffffffffffffffffffffffffffffffffffff1673ffffffffffffffffffffffffffffffffffffffff16815260200191505060405180910390f35b34801561034857600080fd5b5061037d600480360381019080803573ffffffffffffffffffffffffffffffffffffffff169060200190929190505050611144565b005b34801561038b57600080fd5b50610394611386565b6040518082815260200191505060405180910390f35b3480156103b657600080fd5b506103bf611431565b604051808273ffffffffffffffffffffffffffffffffffffffff1673ffffffffffffffffffffffffffffffffffffffff16815260200191505060405180910390f35b34801561040d57600080fd5b50610442600480360381019080803573ffffffffffffffffffffffffffffffffffffffff169060200190929190505050611457565b005b34801561045057600080fd5b506104af600480360381019080803573ffffffffffffffffffffffffffffffffffffffff169060200190929190803573ffffffffffffffffffffffffffffffffffffffff16906020019092919080359060200190929190505050611664565b005b3480156104bd57600080fd5b506104dc60048036038101908080359060200190929190505050611c63565b604051808273ffffffffffffffffffffffffffffffffffffffff1673ffffffffffffffffffffffffffffffffffffffff16815260200191505060405180910390f35b34801561052a57600080fd5b5061055f600480360381019080803573ffffffffffffffffffffffffffffffffffffffff169060200190929190505050611c96565b005b34801561056d57600080fd5b506105a2600480360381019080803573ffffffffffffffffffffffffffffffffffffffff169060200190929190505050611fac565b005b3480156105b057600080fd5b506105dd60048036038101908080359060200190929190803561ffff1690602001909291905050506122c3565b604051808261ffff1661ffff16815260200191505060405180910390f35b34801561060757600080fd5b506106106124c0565b005b34801561061e57600080fd5b5061063d600480360381019080803590602001909291905050506127e7565b604051808273ffffffffffffffffffffffffffffffffffffffff1673ffffffffffffffffffffffffffffffffffffffff16815260200191505060405180910390f35b34801561068b57600080fd5b506106c0600480360381019080803573ffffffffffffffffffffffffffffffffffffffff16906020019092919050505061281a565b005b3480156106ce57600080fd5b506106ed60048036038101908080359060200190929190505050612b31565b005b3480156106fb57600080fd5b50610704612ec1565b604051808215151515815260200191505060405180910390f35b34801561072a57600080fd5b50610733612ed4565b604051808263ffffffff1663ffffffff16815260200191505060405180910390f35b34801561076157600080fd5b5061078060048036038101908080359060200190929190505050612eea565b604051808273ffffffffffffffffffffffffffffffffffffffff1673ffffffffffffffffffffffffffffffffffffffff16815260200191505060405180910390f35b3480156107ce57600080fd5b50610803600480360381019080803573ffffffffffffffffffffffffffffffffffffffff169060200190929190505050613097565b6040518082815260200191505060405180910390f35b34801561082557600080fd5b5061082e613164565b6040518082815260200191505060405180910390f35b34801561085057600080fd5b5061085961316a565b005b34801561086757600080fd5b5061089c600480360381019080803573ffffffffffffffffffffffffffffffffffffffff169060200190929190505050613541565b6040518080602001828103825283818151815260200191508051906020019060200280838360005b838110156108df5780820151818401526020810190506108c4565b505050509050019250505060405180910390f35b3480156108ff57600080fd5b5061091e60048036038101908080359060200190929190505050613b64565b604051808261ffff1661ffff16815260200191505060405180910390f35b34801561094857600080fd5b50610951613d7a565b6040518080602001828103825283818151815260200191508051906020019080838360005b83811015610991578082015181840152602081019050610976565b50505050905090810190601f1680156109be5780820380516001836020036101000a031916815260200191505b509250505060405180910390f35b3480156109d857600080fd5b506109f760048036038101908080359060200190929190505050613db3565b604051808263ffffffff1663ffffffff16815260200191505060405180910390f35b348015610a2557600080fd5b50610a4460048036038101908080359060200190929190505050613de2565b604051808273ffffffffffffffffffffffffffffffffffffffff1673ffffffffffffffffffffffffffffffffffffffff16815260200191505060405180910390f35b348015610a9257600080fd5b50610ad1600480360381019080803573ffffffffffffffffffffffffffffffffffffffff16906020019092919080359060200190929190505050613e15565b005b348015610adf57600080fd5b50610ae8614568565b604051808273ffffffffffffffffffffffffffffffffffffffff1673ffffffffffffffffffffffffffffffffffffffff16815260200191505060405180910390f35b348015610b3657600080fd5b50610b6360048036038101908080359060200190929190803561ffff16906020019092919050505061458e565b005b348015610b7157600080fd5b50610bce60048036038101908080359060200190929190803590602001909291908035906020019092919080359060200190929190803573ffffffffffffffffffffffffffffffffffffffff169060200190929190505050614787565b6040518082815260200191505060405180910390f35b348015610bf057600080fd5b50610bf961498c565b604051808273ffffffffffffffffffffffffffffffffffffffff1673ffffffffffffffffffffffffffffffffffffffff16815260200191505060405180910390f35b348015610c4757600080fd5b50610c66600480360381019080803590602001909291905050506149b2565b005b600160009054906101000a900473ffffffffffffffffffffffffffffffffffffffff1681565b6040805190810160405280600a81526020017f43727970746f426f74730000000000000000000000000000000000000000000081525081565b610cf37fcb2648b67b0de279cb753577ec77c6b2ea08d23aa34ef2f48c5aab3c2f7b3313600102614c8d565b610d1f7f6f460441e04e9f2fab210055dfdc65babe4e31ac3fe89dcb41c84c7fb0375991600102614c8d565b610d4b7f3dde09caefb3a1f40ad03cded37744ff16ee712b622d5384bd28cad309760ae7600102614c8d565b610d777f7808d25d5414a096b7d4484dd157a0f0c9b5f6c11dae49f7d70fd4cb3bbde232600102614c8d565b600260149054906101000a900460ff16151515610d9357600080fd5b610dbf7f8b5d68b72118d3191a023266c39777d9f072660abc89f2761d9e6c792bd310c3600102614c8d565b610dea7ead53c480053279c157a04c0652ee4064d1c599d726b53bdfe5e51538b40691600102614c8d565b610e167f73f27d1582078ef0295938c7b7ab7f3be1e5cc6048e9cc9508a6feef04e1095d600102614c90565b610e427ffb7d35519eb0ee941ca5a932582a5263ee71940aee636850cfa01b3b126f3067600102614c90565b610e6e7fb434096f2e5ca8d06c454a21f04ad5f09942234d4e363c211c1420ed4a2e52be600102614c90565b610e9a7fa9c8efc5ce4bc61f305ce46bfcc0de8acc8c44d59aa97d4b61c09d5a5a50ca50600102614c90565b610ea43382614c93565b1515610eaf57600080fd5b610edb7fa8f7926d71a6472fe13f29db3af391c76d36edae2364b8e75c20daf48bfd9597600102614c90565b610f077fcbf8814163e31ba4fd315f1dcca9acca540f3661836dc3d0675fdfb5044c54f7600102614c90565b610f337f6ca082da447e0fdca09edb60240a1bccddd75ea7cc421359bd97351bfd379b2e600102614c90565b610f5f7faf97db88b3736215d415e6d475805ecaec705fcbd497b0079b25802be6d365c2600102614c90565b60006002600e600084815260200190815260200160002060009054906101000a900461ffff161661ffff16141515610f9657600080fd5b610fc27fabe0724bb66fdcb981b83ee011d3446861ecdd983e55c82bcfda252851c0d666600102614c90565b610fee7f286f0709e1a3c00bd5c53e23b60ab9673abcd305f451e2e5380ca38fb8fffd1e600102614c90565b61101a7f8af0e261a7afaa1f451dd3259edc0d69b42f3ca4312ba7255d55fd183399c103600102614c90565b6110248183614d83565b6110507fae6983cc8c7630a3ba8860ce83e961c7ef6142fbfc5a5dd39af1543d1465f94d600102614c90565b61107c7f06b1e8b3a5b6375b6be53631cc8b0bf9853c9cd1959449e6a545d233afdb3c19600102614c90565b7f8c5be1e5ebec7d5bd14f71427d1e84f3dd0314c0f7b2291e5b200ac8c7c3b925338383604051808473ffffffffffffffffffffffffffffffffffffffff1673ffffffffffffffffffffffffffffffffffffffff1681526020018373ffffffffffffffffffffffffffffffffffffffff1673ffffffffffffffffffffffffffffffffffffffff168152602001828152602001935050505060405180910390a15050565b6000809054906101000a900473ffffffffffffffffffffffffffffffffffffffff1681565b6111707fcb049ed2f483be6c0944c2c03cebba45371d8e0ef11e4518263bd2fbbda7f593600102614c8d565b61119c7f5dbffe83b36d40e7d651f2d3531e4a4824b9dc6ccb6586f84d10976bd60ae08d600102614c8d565b6111c87f31f8d3048db660f92f7d2b610b6a9c7cae1f6a13dda0027f8885b1f585ba6283600102614c8d565b6111f47fa2a47da5016dac4687136caeff8e35d8d21ddaedc8808cd08f29ccfc21bfac73600102614c8d565b6000809054906101000a900473ffffffffffffffffffffffffffffffffffffffff1673ffffffffffffffffffffffffffffffffffffffff163373ffffffffffffffffffffffffffffffffffffffff1614151561124f57600080fd5b61127b7f75897d7cfe76dbf024f81b5ad6072a4019a8f8439308212c47ad1e9256df43c0600102614c8d565b6112a77f3ffe5ec58b9e7787ceecb0adf9d00ef109fb30448b7229696966b751a6dac161600102614c8d565b6112d37fbf1d85ffe6355fc4f272b2f2d5adc3ad4608c432a5940832e2cc20d377b9a98b600102614e5d565b6112ff7f3121b1f0cf694c7aebd4277132a51a0d946c87c20aa931ecdd3eb428bc2ad938600102614e5d565b61132b7f91b33501a02963141dbd64b5b5bd1c9bb12e2a9f2cd55094b23aecaaf0e998c1600102614e5d565b6001600d60008373ffffffffffffffffffffffffffffffffffffffff1673ffffffffffffffffffffffffffffffffffffffff16815260200190815260200160002060006101000a81548160ff02191690831515021790555050565b60006113b47f898aee6ef95aa656f8884189394d48e7887c876270b03a2eb9a38fd154f49a20600102614c90565b6113e07fdddbecff26dcf835d644d384922766599f4f95e54a624f935763c4c8686bc29b600102614c90565b61140c7ffbf9e60a85a1e336d4656f46007e2199bddfa98f95617e504b3571289e6b0871600102614c90565b600b60009054906101000a900463ffffffff1663ffffffff1660068054905003905090565b600c60009054906101000a900473ffffffffffffffffffffffffffffffffffffffff1681565b6114837fcb049ed2f483be6c0944c2c03cebba45371d8e0ef11e4518263bd2fbbda7f593600102614c8d565b6114af7f5dbffe83b36d40e7d651f2d3531e4a4824b9dc6ccb6586f84d10976bd60ae08d600102614c8d565b6114db7f31f8d3048db660f92f7d2b610b6a9c7cae1f6a13dda0027f8885b1f585ba6283600102614c8d565b6115077fa2a47da5016dac4687136caeff8e35d8d21ddaedc8808cd08f29ccfc21bfac73600102614c8d565b6000809054906101000a900473ffffffffffffffffffffffffffffffffffffffff1673ffffffffffffffffffffffffffffffffffffffff163373ffffffffffffffffffffffffffffffffffffffff1614151561156257600080fd5b61158e7f75897d7cfe76dbf024f81b5ad6072a4019a8f8439308212c47ad1e9256df43c0600102614c8d565b6115ba7f3ffe5ec58b9e7787ceecb0adf9d00ef109fb30448b7229696966b751a6dac161600102614c8d565b6115e67f8444ef6021167db0d922a2b1e8349b1a5f0b8edd982ba8f491199e31a55d5702600102614e5d565b6116127f2580da3be0f5c047837254c1276bcd16f8442e69e56de9ef1e73c37459f8dfcd600102614e5d565b600d60008273ffffffffffffffffffffffffffffffffffffffff1673ffffffffffffffffffffffffffffffffffffffff16815260200190815260200160002060006101000a81549060ff021916905550565b6116907fcb2648b67b0de279cb753577ec77c6b2ea08d23aa34ef2f48c5aab3c2f7b3313600102614c8d565b6116bc7f6f460441e04e9f2fab210055dfdc65babe4e31ac3fe89dcb41c84c7fb0375991600102614c8d565b6116e87f3dde09caefb3a1f40ad03cded37744ff16ee712b622d5384bd28cad309760ae7600102614c8d565b6117147f7808d25d5414a096b7d4484dd157a0f0c9b5f6c11dae49f7d70fd4cb3bbde232600102614c8d565b600260149054906101000a900460ff1615151561173057600080fd5b61175c7f8b5d68b72118d3191a023266c39777d9f072660abc89f2761d9e6c792bd310c3600102614c8d565b6117877ead53c480053279c157a04c0652ee4064d1c599d726b53bdfe5e51538b40691600102614c8d565b6117b37f0889fe94f74f44c65c35ba53712fbab194fa1bb61f615921226ec89ec79af0dc600102614c90565b6117df7f72e97404a545a6ad14e994b3b72e117ca463f792d8462726bc8f8a75f0a867d5600102614c90565b61180b7f98a3efff4491bfdd31db19a4ea6524d91725fcdf8f467170ca66cbf502f4bcdc600102614c90565b6118377f5d10d8b8387754f7af183be69aa3cf6d6d24af896abedfabba930b71cd73c2d0600102614c90565b600073ffffffffffffffffffffffffffffffffffffffff168273ffffffffffffffffffffffffffffffffffffffff161415151561187357600080fd5b61189f7f33986ea5c636d69115fe35e35cc069b9971677771d2c4d5c0339839f187975a0600102614c90565b6118cb7f30f54a806808c7e5a107cef8fda892b8a2fc206208a3c1f30ea18ef4b43858e8600102614c90565b6118f77f8f9ed3e3c37dca59b5e1954a87c197b23556f9c18aba8ecb475882740763c0c3600102614c90565b6119237f99ecce2e1df3700019fc1d0501dff4b21f73cadd019023d27f58bee55860b833600102614c90565b3073ffffffffffffffffffffffffffffffffffffffff168273ffffffffffffffffffffffffffffffffffffffff161415151561195e57600080fd5b61198a7f2de2ffb7058da8280839e5d6a8ddb58621ce4abb510b5fb2139831870d3f1869600102614c90565b6119b67fc8c4361c344a80898fd02a5ac01d2d7c40cef2895e6ec8a17e76a65488eeba60600102614c90565b6119e27f5e442fcfa187959ed10b7c75d281059104822e17b99b0075e016c0146d7ec159600102614c90565b611a0e7f9ff1cba92654c5fa7243108ea24a0f3e448fb981a1e4731de57aefa2c9675cda600102614c90565b611a183382614e60565b1515611a2357600080fd5b611a4f7fc012d300c3df2f91a3d2612b15ca61a1500962d8354da9819cf116a1192c81c7600102614c90565b611a7b7face457e11cfed63f5abda78b37b9706c0a6548ba4d271846614c8c59e5281a5d600102614c90565b611aa77f0fcbfed2c08977871396d7f42dc83de65eb46d744d38f84baec9ffe17d1ed430600102614c90565b611ad37f06b4769d16a6c1cd61b6ea0cd7badbefb2d6a54dfdffeeb943a1fc768cab9df4600102614c90565b611add8382614c93565b1515611ae857600080fd5b611b147f173f51cd66e6b7124783f729ab4fa4d3fe6a286663aaf410ff269824de295352600102614c90565b611b407f34bd79ec044af2b897b90b1166c070695aaff1c41b44392c88d751ec221b5206600102614c90565b611b6c7f4dc7bd8f4d2ffd4fa3d24905e728f4d790fcba5df163fde95f7bb23e198a8f20600102614c90565b611b987f67c927596ccd3e5e5c5f1892c2e72f8c7743fef824ddeb68848ea28a461a75da600102614c90565b60006002600e600084815260200190815260200160002060009054906101000a900461ffff161661ffff16141515611bcf57600080fd5b611bfb7fb098cd7bef334ec0c432b74cf3b1065f29f7adb4e04707aa87ee877d25b4dbce600102614c90565b611c277ff2bbc773a3b17d847e7e427ee26864d6402378f5e24eef228b96502b8c46c376600102614c90565b611c537f2922453e9ea1635c3a5803ae8ccf221b3a46ece39c97592d4531bf583ea1d518600102614c90565b611c5e838383614f50565b505050565b60076020528060005260406000206000915054906101000a900473ffffffffffffffffffffffffffffffffffffffff1681565b611cc27fcb049ed2f483be6c0944c2c03cebba45371d8e0ef11e4518263bd2fbbda7f593600102614c8d565b611cee7f5dbffe83b36d40e7d651f2d3531e4a4824b9dc6ccb6586f84d10976bd60ae08d600102614c8d565b611d1a7f31f8d3048db660f92f7d2b610b6a9c7cae1f6a13dda0027f8885b1f585ba6283600102614c8d565b611d467fa2a47da5016dac4687136caeff8e35d8d21ddaedc8808cd08f29ccfc21bfac73600102614c8d565b6000809054906101000a900473ffffffffffffffffffffffffffffffffffffffff1673ffffffffffffffffffffffffffffffffffffffff163373ffffffffffffffffffffffffffffffffffffffff16141515611da157600080fd5b611dcd7f75897d7cfe76dbf024f81b5ad6072a4019a8f8439308212c47ad1e9256df43c0600102614c8d565b611df97f3ffe5ec58b9e7787ceecb0adf9d00ef109fb30448b7229696966b751a6dac161600102614c8d565b611e257f5fc6eb43ffbf276b62f28fcbf60dc2c180db575c7e9e226e6c6c4ebc9d3cdca6600102614c8d565b611e517f8600bb7718bfaf280bafb2953b4f5e2e5b7f43eb718f188ebbcea7100f3ec91f600102614c8d565b611e7d7ff67d7d4f85ade4d4ae9d316f7b6198c820cf3fbdc10cd6c34dbbaa33e43e5b18600102614c8d565b611ea97fd970e416a7b05f894e16d02c52d34731c3fc2e0bf8267719089224ee103507ca600102614c8d565b600073ffffffffffffffffffffffffffffffffffffffff168173ffffffffffffffffffffffffffffffffffffffff1614151515611ee557600080fd5b611f117f83b999badfe58cf9aa7350759d8fc576955adf6ab9762923d3e4195cc1fb053d600102614c8d565b611f3d7fee8b0d121d8b68ba51424a21b862b2537b0180682b889c82daf52e6efd481370600102614c8d565b611f697f9023188c9cea07958449ac3498f26f8c50f0236650f38f89ba11bc880e682f36600102614c8d565b806000806101000a81548173ffffffffffffffffffffffffffffffffffffffff021916908373ffffffffffffffffffffffffffffffffffffffff16021790555050565b611fd87fcb049ed2f483be6c0944c2c03cebba45371d8e0ef11e4518263bd2fbbda7f593600102614c8d565b6120047f5dbffe83b36d40e7d651f2d3531e4a4824b9dc6ccb6586f84d10976bd60ae08d600102614c8d565b6120307f31f8d3048db660f92f7d2b610b6a9c7cae1f6a13dda0027f8885b1f585ba6283600102614c8d565b61205c7fa2a47da5016dac4687136caeff8e35d8d21ddaedc8808cd08f29ccfc21bfac73600102614c8d565b6000809054906101000a900473ffffffffffffffffffffffffffffffffffffffff1673ffffffffffffffffffffffffffffffffffffffff163373ffffffffffffffffffffffffffffffffffffffff161415156120b757600080fd5b6120e37f75897d7cfe76dbf024f81b5ad6072a4019a8f8439308212c47ad1e9256df43c0600102614c8d565b61210f7f3ffe5ec58b9e7787ceecb0adf9d00ef109fb30448b7229696966b751a6dac161600102614c8d565b61213b7f88c886be51524dd73b922e35a02dca86d0c0b415cf3c56d62a1f13368b3d05e3600102614c8d565b6121677f9f0996057a1a4719f75aa64801cbab8bb062056caa963266efdd3d64b675584e600102614c8d565b6121937f54156e362d900300deebcd999007c710ad9bb1a442a2d97a5bf53bc07079ce3d600102614c8d565b6121bf7ffd23285df18ee46f15e8858285ad785009d6b2ae9b545be17c967db9f4bc9539600102614c8d565b600073ffffffffffffffffffffffffffffffffffffffff168173ffffffffffffffffffffffffffffffffffffffff16141515156121fb57600080fd5b6122277fcc97a5c8c25fb6ff1ad805fecb7bc6de88c04a665024665354b9a7d6bb355b3d600102614c8d565b6122537fb755be836afd987e535ef2cf142d2fa3bc355b2d721ad31155fe8b917c9659e6600102614c8d565b61227f7f171d8dd485a5f392b5cf3c25f90c4141d93dc94a5fdf9c612a3296f1700d389d600102614c8d565b80600260006101000a81548173ffffffffffffffffffffffffffffffffffffffff021916908373ffffffffffffffffffffffffffffffffffffffff16021790555050565b60006122f17f34ba93981658c3daa5f666bbb9fe4c2050f8795f520af64c257be31ef93f4a7e600102614e5d565b61231d7f6e13615425708a7761bd047818bc837ac9fb4bd1e59bf3fa4452e4cbd770a560600102614e5d565b6123497f1dc2ce0d010e73d168ffe98a84a9bc524a16f273016615775624f5da12869a7e600102614e5d565b6123757f7988d104597cafdb112f343393a63efde85108a1f51c7a8effe784254afa55de600102614e5d565b60011515600d60003373ffffffffffffffffffffffffffffffffffffffff1673ffffffffffffffffffffffffffffffffffffffff16815260200190815260200160002060009054906101000a900460ff1615151415156123d457600080fd5b6124007f74c308184e27580c17a1d0b6ff599bb36cc06cea53ef2b0b67c3f3d831015915600102614e5d565b61242c7ff94d3c11b156185524dc880705acc4e207d4e6c8ac4a3c0d0c44c9bda5848526600102614e5d565b6124587f60acf4788f65c7446cd28a54601e564fea9f45a1c5ee6ddbe0dfb88758899949600102614e5d565b6124847f030a7770b1223429e810e10ba6717c794a45261bb291a8621ec4922617ce6357600102614e5d565b6124b07f6d8ea07f2da76c222de40f7bea64be677077c0f7ad4a898eea5fd8ee80e2694a600102614e5d565b6124ba8383615516565b92915050565b6124ec7fcb049ed2f483be6c0944c2c03cebba45371d8e0ef11e4518263bd2fbbda7f593600102614c8d565b6125187f5dbffe83b36d40e7d651f2d3531e4a4824b9dc6ccb6586f84d10976bd60ae08d600102614c8d565b6125447f31f8d3048db660f92f7d2b610b6a9c7cae1f6a13dda0027f8885b1f585ba6283600102614c8d565b6125707fa2a47da5016dac4687136caeff8e35d8d21ddaedc8808cd08f29ccfc21bfac73600102614c8d565b6000809054906101000a900473ffffffffffffffffffffffffffffffffffffffff1673ffffffffffffffffffffffffffffffffffffffff163373ffffffffffffffffffffffffffffffffffffffff161415156125cb57600080fd5b6125f77f75897d7cfe76dbf024f81b5ad6072a4019a8f8439308212c47ad1e9256df43c0600102614c8d565b6126237f3ffe5ec58b9e7787ceecb0adf9d00ef109fb30448b7229696966b751a6dac161600102614c8d565b61264f7fee02b3c60f7bfcd131c9c4bfd3f91b2a91a6ce97b6a6d4307266329177605601600102614c8d565b61267b7f43afdfb745d28db79002d8d11f06a461d1a6196edc9d887c659754e88a29b922600102614c8d565b6126a77f8ec630ab56ff4ad877f695df339f06d409f6c7ddf449da0d8db84c833f37f763600102614c8d565b6126d37f6f467694727c3dc109758fd72c4058843bacb5cdcee39f9ace95414345acf38a600102614c8d565b600260149054906101000a900460ff1615156126ee57600080fd5b61271a7f39fe575960af02d10117b59a53d57d89b0bf68648612a8334474037b391b7fb3600102614c8d565b6127467ff23eb7d426163ac3eb04e8e07e1cb74434c2877a79d57f6cff7670864e0f1841600102614c8d565b6127727f9e488e65048831a2ec3bbe8010ee312b58023109c588537cf11da03689fc46a1600102614c8d565b61279e7f19d1644c0ba78d7d9378f48abb0889dbb78b76b0f9b81111d08879bc90ea64ea600102614c8d565b6127ca7f069eeaf91fae0aa54459b92512201a5b8a2253bd9002e53f35a603e641338e2b600102614c8d565b6000600260146101000a81548160ff021916908315150217905550565b600a6020528060005260406000206000915054906101000a900473ffffffffffffffffffffffffffffffffffffffff1681565b6128467fcb049ed2f483be6c0944c2c03cebba45371d8e0ef11e4518263bd2fbbda7f593600102614c8d565b6128727f5dbffe83b36d40e7d651f2d3531e4a4824b9dc6ccb6586f84d10976bd60ae08d600102614c8d565b61289e7f31f8d3048db660f92f7d2b610b6a9c7cae1f6a13dda0027f8885b1f585ba6283600102614c8d565b6128ca7fa2a47da5016dac4687136caeff8e35d8d21ddaedc8808cd08f29ccfc21bfac73600102614c8d565b6000809054906101000a900473ffffffffffffffffffffffffffffffffffffffff1673ffffffffffffffffffffffffffffffffffffffff163373ffffffffffffffffffffffffffffffffffffffff1614151561292557600080fd5b6129517f75897d7cfe76dbf024f81b5ad6072a4019a8f8439308212c47ad1e9256df43c0600102614c8d565b61297d7f3ffe5ec58b9e7787ceecb0adf9d00ef109fb30448b7229696966b751a6dac161600102614c8d565b6129a97ff1e72032e90a3e1a47208c42f7f34042a7e90b2f31193334e4b128d037b651c0600102614c8d565b6129d57f78a7fa1c042e72da4ad8de55a20c66f852a96a40de26d4522e89bdf6e77d4186600102614c8d565b612a017f84296041346391b56842bae36df9b671b45eb524eaab184565542d7b914377a9600102614c8d565b612a2d7f60e69f9a5dd02a5938cafb1e9882e0b3408f195223129d88d76bf05cf0c9484f600102614c8d565b600073ffffffffffffffffffffffffffffffffffffffff168173ffffffffffffffffffffffffffffffffffffffff1614151515612a6957600080fd5b612a957feba6f866472b379aff7ab6f5ee6c37dde5f2de5f1389ef90ad259b8a37d3e30c600102614c8d565b612ac17ff08abe3269ba40116cd3b8d372e08d57d1ff0622934b37fd86afaf2895d00d0f600102614c8d565b612aed7f768722a54a3015d9d677146738ff817be4474287bb29c98cba6b2250674b9449600102614c8d565b80600160006101000a81548173ffffffffffffffffffffffffffffffffffffffff021916908373ffffffffffffffffffffffffffffffffffffffff16021790555050565b612b5d7fb69f109befabd82f0425a91e79f5bd4e799a7cec12ca055bf58bdf7fe88ad793600102614c8d565b612b897f4843d20f00be7ad37e3c9c8682a846faa4ca3c0ea1f9dc4c391997309853de24600102614c8d565b612bb57f20fc88088867130d183d94e5a9048dba311ceb5f1b9a4f5535adf564d8374b6d600102614c8d565b612be17fbd896113fdf13ab83be8d5359d5f98252bcf796eea8f5545bf18b2e15a729127600102614c8d565b600260009054906101000a900473ffffffffffffffffffffffffffffffffffffffff1673ffffffffffffffffffffffffffffffffffffffff163373ffffffffffffffffffffffffffffffffffffffff161480612c8957506000809054906101000a900473ffffffffffffffffffffffffffffffffffffffff1673ffffffffffffffffffffffffffffffffffffffff163373ffffffffffffffffffffffffffffffffffffffff16145b80612ce15750600160009054906101000a900473ffffffffffffffffffffffffffffffffffffffff1673ffffffffffffffffffffffffffffffffffffffff163373ffffffffffffffffffffffffffffffffffffffff16145b1515612cec57600080fd5b612d187f60622880a82287035558e7b8916b20a1e316cee24d7ae16889a055eab3d55316600102614c8d565b612d447fd0b955e469a12ebbfb62ad1da478a6acecacfd1ebcf54bf0dad13514548cd979600102614c8d565b612d707f88c7b7750111464c97655b2d1d9753b38c6f77aef0856ee80507f7099872697d6001026158d2565b612d9c7febeefd441312018ec6deb6b0edaa454d5161fd9efa6ef40328812fadec8d0da36001026158d2565b612dc87f701900518f35ca476c958b90a5f2bede67febfc77eab1b093f6494b32b99cdf06001026158d2565b612df47f5382d0930765c0f082dd7aa6eb2b76fcd9f11b30924e1a951fd617237a8b304c6001026158d2565b60036000600e81101515612e0457fe5b600891828204019190066004029054906101000a900463ffffffff1663ffffffff1681101515612e3357600080fd5b612e5f7f1a848bfce7342e2d2242b8a58161fe912c6dbbca8a7ce0047cb4eeee320ffb286001026158d2565b612e8b7f4060d5ff5377de6c4483c6917cbed376e4288dc779d82b477cd35ea98d2e26896001026158d2565b612eb77f31535343482e20ce8423fef900115f5c7475e7adb6f6c1d4f3efba6af014bbc86001026158d2565b8060058190555050565b600260149054906101000a900460ff1681565b600b60009054906101000a900463ffffffff1681565b6000612f187f65f3e3971086e7113aafac0fe25d7b331cb31e081db98f3fdc3dab253dbbeb18600102614c90565b612f447f6d8593dae41f920f4e43eeb5bdb0ea4efaa08d36b7e3564ef0822d49b18caf08600102614c90565b612f707f64721f51e1b2c3351da86d3509c4d78cfd6a6b384b6405fd5af920fada20c2e4600102614c90565b6007600083815260200190815260200160002060009054906101000a900473ffffffffffffffffffffffffffffffffffffffff169050612fd27f1aa33614ceb35d808f0e53d1f84c91e70a8e553d785151d1025e47a2240b402a600102614c90565b612ffe7f10260275a33d6a3604b595864cc279d9fe371bfb6d8ff927477d8da7f1344bef600102614c90565b61302a7f0e1f3e0b20d56ac5c4b367c90a9d102c41abde6902d7da7a0d993c5387bd5d4b600102614c90565b600073ffffffffffffffffffffffffffffffffffffffff168173ffffffffffffffffffffffffffffffffffffffff161415151561306657600080fd5b6130927f1d8b0b6c3fd0db8847926baf6a65398d7c1cedb7305b0e9b79182ffdae9d0a49600102614c90565b919050565b60006130c57ffba4c8b234081f1dac643609a6c690fb7c2e0cd39e54e800fab602b4a7bea01a600102614c90565b6130f17fc203d14bcaf4e0b570df4f0a21cea54fe09f230ce67f5f4ab62ef3e117a9802e600102614c90565b61311d7f70d90460a734cafa119b6859230d44d2cdb7d865ab9b38734cb14a5b6f4dc6c5600102614c90565b600860008373ffffffffffffffffffffffffffffffffffffffff1673ffffffffffffffffffffffffffffffffffffffff168152602001908152602001600020549050919050565b60055481565b6131967fb69f109befabd82f0425a91e79f5bd4e799a7cec12ca055bf58bdf7fe88ad793600102614c8d565b6131c27f4843d20f00be7ad37e3c9c8682a846faa4ca3c0ea1f9dc4c391997309853de24600102614c8d565b6131ee7f20fc88088867130d183d94e5a9048dba311ceb5f1b9a4f5535adf564d8374b6d600102614c8d565b61321a7fbd896113fdf13ab83be8d5359d5f98252bcf796eea8f5545bf18b2e15a729127600102614c8d565b600260009054906101000a900473ffffffffffffffffffffffffffffffffffffffff1673ffffffffffffffffffffffffffffffffffffffff163373ffffffffffffffffffffffffffffffffffffffff1614806132c257506000809054906101000a900473ffffffffffffffffffffffffffffffffffffffff1673ffffffffffffffffffffffffffffffffffffffff163373ffffffffffffffffffffffffffffffffffffffff16145b8061331a5750600160009054906101000a900473ffffffffffffffffffffffffffffffffffffffff1673ffffffffffffffffffffffffffffffffffffffff163373ffffffffffffffffffffffffffffffffffffffff16145b151561332557600080fd5b6133517f60622880a82287035558e7b8916b20a1e316cee24d7ae16889a055eab3d55316600102614c8d565b61337d7fd0b955e469a12ebbfb62ad1da478a6acecacfd1ebcf54bf0dad13514548cd979600102614c8d565b6133a97fcb2648b67b0de279cb753577ec77c6b2ea08d23aa34ef2f48c5aab3c2f7b3313600102614c8d565b6133d57f6f460441e04e9f2fab210055dfdc65babe4e31ac3fe89dcb41c84c7fb0375991600102614c8d565b6134017f3dde09caefb3a1f40ad03cded37744ff16ee712b622d5384bd28cad309760ae7600102614c8d565b61342d7f7808d25d5414a096b7d4484dd157a0f0c9b5f6c11dae49f7d70fd4cb3bbde232600102614c8d565b600260149054906101000a900460ff1615151561344957600080fd5b6134757f8b5d68b72118d3191a023266c39777d9f072660abc89f2761d9e6c792bd310c3600102614c8d565b6134a07ead53c480053279c157a04c0652ee4064d1c599d726b53bdfe5e51538b40691600102614c8d565b6134cc7fa07ca5d175b133ae832f77419d6f3b779170753f00463e0943a8af7cc6810088600102614c8d565b6134f87fc42a084f1bec46c22a34c451ca67a9000bb683163b10d858e18d49d6ce637f73600102614c8d565b6135247f0daab85665d9b4c8a0072fc446e1de6088d904d0dff31d5507110d249b2b78ec600102614c8d565b6001600260146101000a81548160ff021916908315150217905550565b60606000606060008060006135787f85403ca33e6ae1084125eea223e7714972c95c56d4bac8c9b783ed90a5823bab600102614c90565b6135a47f995ad2f52e080a189e341d7f61a048021b2251ae7c55924ecb8862384ac6bcf4600102614c90565b6135d07f5ce17e7e421b1b1f9dc34dc9122228c7d2f46e07e3923454f87061ddae82935a600102614c90565b6135d987613097565b94506136077f4213deeeac2a27dc3a18f4704ab5cba0731cd62d3ed69e19db31bbef30533aea600102614c90565b6136337fd8c0918d861d1061d371ac732c64742928072cd724247dafc9fa45571394d957600102614c90565b60008514156136f8576136687fdcd440357ee92730a486a5aa4c98c4a4e06306f5a88030715cfbb68fb9ee2b89600102614c90565b6136947f7f9374adc619e0d3aec5b0807093becb689f1066056e62396ff056c6b81d3979600102614c90565b6136c07fc245da1c6040c31ef04938f540900d13140b53f87cc92d2b8e8bb87c07bc4b96600102614c90565b60006040519080825280602002602001820160405280156136f05781602001602082028038833980820191505090505b509550613b5a565b6137247f89b7d1e509fcbfd9c032edf18b2aa75fe6dd2cbc86d3fc16271c602d7fea5f94600102614c90565b6137507ff1a1e47922e989a32a7b0e1905deafdc98a97b394bba5fe3323e1e37713dbafb600102614c90565b61377c7f4b32ca9643e948e38283767dfc16a66e1fa4a7d52db244c3509fd08daa9be32d600102614c90565b846040519080825280602002602001820160405280156137ab5781602001602082028038833980820191505090505b5093506137da7fae156cb462fbd12d2b4648237beab9d7fa57982aa2f204dcedb96072a3ad432c600102614c90565b6138067f06186de1dab891c12214084e4f57e199cc7c3230a26cbea0d40086c259045cec600102614c90565b600160068054905003925061383d7f55b21a1324d0155a233f6eb28501ca103f1c34a4dfaf8d7cccca6dd934cad81a600102614c90565b6138697f3d668d82d4b06a0287652d6b06f98bbb6bbdbf5350eec5c4b99f47a686edb189600102614c90565b600091506138997ff80e87458dcc23a56ad58db43252b69b8f915a1cabf16b0bd7758b5e3a342450600102614c90565b6138c57f5f41767b691952995b64698feff988fe1244a65b39c33ca8a84e62d2db453cfb600102614c90565b6138f17fb5fb03ce95f314fbf5a90641c49aa33d302f3407e975d590cbbe4c1bccbce26d600102614c90565b61391d7fc3152ec1bf5cb32910a65195c40ea056dd970468b9927819592fa4eccb3d6dd7600102614c90565b600090505b8281111515613afe576139577f06d82fbd005cdc9e712420380a8946347e5b0b026fb8a7f0875e37998d479ae2600102614c90565b6139837f8fd97192a01a7d5eb812b4b3968b5926f4e5222cd08bd4053a94706b0e5da060600102614c90565b8673ffffffffffffffffffffffffffffffffffffffff166007600083815260200190815260200160002060009054906101000a900473ffffffffffffffffffffffffffffffffffffffff1673ffffffffffffffffffffffffffffffffffffffff161415613ac457613a167fd9c35dd820dcfe2a39fe9232675e2635c512d183a44875a4cb573dda78924836600102614c90565b613a427f6d25656f80db914f40168aad8764e7e6256839231356332e50e338bba43c9b77600102614c90565b613a6e7fc45eeef7391c294f4c6187bc54526d144b1205709985c643b43b3c091361b80a600102614c90565b808483815181101515613a7d57fe5b9060200190602002018181525050613ab77f0b81d12d1f89d58e00bf2f6685e5de09c3c10fd872185337f3bdbe1fd760c30e600102614c90565b8180600101925050613af1565b613af07fe66a41e9306ed9c735d6d7508f6e1fd1b1c7aa459a0ce1425d2d3498dd1ab5d4600102614c90565b5b8080600101915050613922565b613b2a7f513f7c5030f70a1c6ba15a7bd6bbe607dd8435962af3328797f6112e05716746600102614c90565b613b567fe9a6b14beba3e36146c653cfcac64063e23f711016ed3a38a03b64aa723d4833600102614c90565b8395505b5050505050919050565b6000613b927f34ba93981658c3daa5f666bbb9fe4c2050f8795f520af64c257be31ef93f4a7e600102614e5d565b613bbe7f6e13615425708a7761bd047818bc837ac9fb4bd1e59bf3fa4452e4cbd770a560600102614e5d565b613bea7f1dc2ce0d010e73d168ffe98a84a9bc524a16f273016615775624f5da12869a7e600102614e5d565b613c167f7988d104597cafdb112f343393a63efde85108a1f51c7a8effe784254afa55de600102614e5d565b60011515600d60003373ffffffffffffffffffffffffffffffffffffffff1673ffffffffffffffffffffffffffffffffffffffff16815260200190815260200160002060009054906101000a900460ff161515141515613c7557600080fd5b613ca17f74c308184e27580c17a1d0b6ff599bb36cc06cea53ef2b0b67c3f3d831015915600102614e5d565b613ccd7ff94d3c11b156185524dc880705acc4e207d4e6c8ac4a3c0d0c44c9bda5848526600102614e5d565b613cf97ff50e21c65a09e47887f3e66fc375b960d6cdee977357cd8f05b332b86389e0de600102614e5d565b613d257f06fe3d109c5f8f7118a26976524468fc10948d9e12c159cbab4bdf5c54114168600102614e5d565b613d517ff2819c7e9c887c84687b31a37f976a82fefcc299c4d27256e4e80e14d00b383f600102614e5d565b600e600083815260200190815260200160002060009054906101000a900461ffff169050919050565b6040805190810160405280600381526020017f434254000000000000000000000000000000000000000000000000000000000081525081565b600381600e81101515613dc257fe5b60089182820401919006600402915054906101000a900463ffffffff1681565b60096020528060005260406000206000915054906101000a900473ffffffffffffffffffffffffffffffffffffffff1681565b613e417fcb2648b67b0de279cb753577ec77c6b2ea08d23aa34ef2f48c5aab3c2f7b3313600102614c8d565b613e6d7f6f460441e04e9f2fab210055dfdc65babe4e31ac3fe89dcb41c84c7fb0375991600102614c8d565b613e997f3dde09caefb3a1f40ad03cded37744ff16ee712b622d5384bd28cad309760ae7600102614c8d565b613ec57f7808d25d5414a096b7d4484dd157a0f0c9b5f6c11dae49f7d70fd4cb3bbde232600102614c8d565b600260149054906101000a900460ff16151515613ee157600080fd5b613f0d7f8b5d68b72118d3191a023266c39777d9f072660abc89f2761d9e6c792bd310c3600102614c8d565b613f387ead53c480053279c157a04c0652ee4064d1c599d726b53bdfe5e51538b40691600102614c8d565b613f647fe0ecb0f864571a52b4bfa4f15de4c8c89a96e9a45ec9173265726fc21312d2c5600102614c90565b613f907ff1613e5f59292d1591ccbf842ef2773831dd1527e2499a0aed38b1b9e8dd933d600102614c90565b613fbc7fd646c7d8fced1c4fac1e5aef3b56415c585d036943ececb9665d6c6aefd4633f600102614c90565b613fe87f17e4788fa77d4ad90be92b97619960271cc10dad4d6b3f2fceb243fd13955884600102614c90565b600073ffffffffffffffffffffffffffffffffffffffff168273ffffffffffffffffffffffffffffffffffffffff161415151561402457600080fd5b6140507faec032eddc8f10ea1fdfb305125ee98ba6c06ab1c36056e6abf9680163df3649600102614c90565b61407c7f42c3d5660da8680635c4dad6fbf08d3caa6df9b2ee62826a1a53bcd5ac0c3d66600102614c90565b6140a87ff617c651e9159cc4b7c4ed93b8784da3dec165d2552e70134f5c768daab0fbdb600102614c90565b6140d47fe6db742eeb07738ad50d9d45566b09ca1c898b6c03b8c0a081dca8561370a01b600102614c90565b3073ffffffffffffffffffffffffffffffffffffffff168273ffffffffffffffffffffffffffffffffffffffff161415151561410f57600080fd5b61413b7fa232811a342ce77a8ca225ac21837f76147e7743cac48a68b065b0fea27532e8600102614c90565b6141677fa5182b16f8be05730260ae4bf0c89d7dd1beeb4b0e892042d7adf5065bb00335600102614c90565b6141937f6dc57232c2bc288e9aea3b508bca7aaeecf80e34bd18cabb22e55c8c65bad47c600102614c90565b6141bf7f979f118d5524a4a2e79d15ac12e5fe069689fe56e9c2b0b9fcff6c20e9007e76600102614c90565b600b60049054906101000a900473ffffffffffffffffffffffffffffffffffffffff1673ffffffffffffffffffffffffffffffffffffffff168273ffffffffffffffffffffffffffffffffffffffff161415151561421c57600080fd5b6142487f77486c92ff22ff62f123d153e71268f095968f760cd220cd3767f71ff80e1230600102614c90565b6142747f475f9928f68ff9ef4bc9e289d65bc6da89758850a4ba8811dcaab8f0d462db50600102614c90565b6142a07fb38b17e33c30b567bf73914ea0b91e409fddfb5f55c5c0ef85237941f7540ecd600102614c90565b6142cc7f15045976ff9f29bcdaf169c5694b56cd6d7f56628705001e149ae2dd16dc2e9b600102614c90565b600c60009054906101000a900473ffffffffffffffffffffffffffffffffffffffff1673ffffffffffffffffffffffffffffffffffffffff168273ffffffffffffffffffffffffffffffffffffffff161415151561432957600080fd5b6143557fd7e06477747fea29f8a331b42f453088d490dda53e8ddd171ef630699cde12f5600102614c90565b6143817fed5d0ad680ed04c695201f0cd9b789a59258aec9015e67443f7e8051d1a770b1600102614c90565b6143ad7f198814bdf20706d6673c429ecb9c6f960ad511fe654f59555e681f500c2a61ba600102614c90565b6143d97fa11784c508a35f6b44f0ddd608e7308f5f3e4e98bef5001152c7929de2867153600102614c90565b6143e33382614c93565b15156143ee57600080fd5b61441a7fe96c325dfc2b738afae8ce243f8c5407ad0716041672dd41f4b16295d426fd41600102614c90565b6144467f912fc0d035716ae883c16f267365849cc0083f33c9f9fc50908c14f94389d7f0600102614c90565b6144727f325f1856d23d5f2ce56d044d7292926b2d2ea2d8c0dd2485b8aeb7e17e9a6cf7600102614c90565b61449e7f35ae2f4622ff7ecee4eeed64791a0518562de358c27cf6e9b1b69ae8a3302db6600102614c90565b60006002600e600084815260200190815260200160002060009054906101000a900461ffff161661ffff161415156144d557600080fd5b6145017fc01c3ebc17e799a2cf378e92091f013b0288249d227f37dbd9bf2deadecbe57e600102614c90565b61452d7ff2928bb13810bf04b8e1bb88682335286c7ca67f4a62bfd570b352632c5d7c5c600102614c90565b6145597f9e3829d0dbd48fac3be877d3d0c5a54c3a1471245d0832acc7fdc263b8d8700c600102614c90565b614564338383614f50565b5050565b600260009054906101000a900473ffffffffffffffffffffffffffffffffffffffff1681565b6145ba7f34ba93981658c3daa5f666bbb9fe4c2050f8795f520af64c257be31ef93f4a7e600102614e5d565b6145e67f6e13615425708a7761bd047818bc837ac9fb4bd1e59bf3fa4452e4cbd770a560600102614e5d565b6146127f1dc2ce0d010e73d168ffe98a84a9bc524a16f273016615775624f5da12869a7e600102614e5d565b61463e7f7988d104597cafdb112f343393a63efde85108a1f51c7a8effe784254afa55de600102614e5d565b60011515600d60003373ffffffffffffffffffffffffffffffffffffffff1673ffffffffffffffffffffffffffffffffffffffff16815260200190815260200160002060009054906101000a900460ff16151514151561469d57600080fd5b6146c97f74c308184e27580c17a1d0b6ff599bb36cc06cea53ef2b0b67c3f3d831015915600102614e5d565b6146f57ff94d3c11b156185524dc880705acc4e207d4e6c8ac4a3c0d0c44c9bda5848526600102614e5d565b6147217f67cba99f09910c9c85ba4df093127c921a442884d0040f31f41bc6b40b380f21600102614e5d565b61474d7fc68a105e427ae89d1f42312c81697992ee0b0a40aa78c683c0d958fa98d5d6db600102614e5d565b6147797facea46e834496401e5b20be70253fbca1859b9ea103bfae51d46ffb1f70685a2600102614e5d565b61478382826158d5565b5050565b60006147b57f34ba93981658c3daa5f666bbb9fe4c2050f8795f520af64c257be31ef93f4a7e600102614e5d565b6147e17f6e13615425708a7761bd047818bc837ac9fb4bd1e59bf3fa4452e4cbd770a560600102614e5d565b61480d7f1dc2ce0d010e73d168ffe98a84a9bc524a16f273016615775624f5da12869a7e600102614e5d565b6148397f7988d104597cafdb112f343393a63efde85108a1f51c7a8effe784254afa55de600102614e5d565b60011515600d60003373ffffffffffffffffffffffffffffffffffffffff1673ffffffffffffffffffffffffffffffffffffffff16815260200190815260200160002060009054906101000a900460ff16151514151561489857600080fd5b6148c47f74c308184e27580c17a1d0b6ff599bb36cc06cea53ef2b0b67c3f3d831015915600102614e5d565b6148f07ff94d3c11b156185524dc880705acc4e207d4e6c8ac4a3c0d0c44c9bda5848526600102614e5d565b61491c7f3656f412e650a736b30ee1b85a53658a3bd9bc4678c84f95fdecc8c72ae2fb3c600102614e5d565b6149487f0244e02df212c49d5e5083f6b9f775798a5b4f2c76ffbd89f8c203cbc5d2131d600102614e5d565b6149747f61275c1adf3df590bc0343e12b4cf45efe3858615c8b482b9cf319e8437165b0600102614e5d565b6149818686868686616216565b905095945050505050565b600b60049054906101000a900473ffffffffffffffffffffffffffffffffffffffff1681565b6149de7f34ba93981658c3daa5f666bbb9fe4c2050f8795f520af64c257be31ef93f4a7e600102614e5d565b614a0a7f6e13615425708a7761bd047818bc837ac9fb4bd1e59bf3fa4452e4cbd770a560600102614e5d565b614a367f1dc2ce0d010e73d168ffe98a84a9bc524a16f273016615775624f5da12869a7e600102614e5d565b614a627f7988d104597cafdb112f343393a63efde85108a1f51c7a8effe784254afa55de600102614e5d565b60011515600d60003373ffffffffffffffffffffffffffffffffffffffff1673ffffffffffffffffffffffffffffffffffffffff16815260200190815260200160002060009054906101000a900460ff161515141515614ac157600080fd5b614aed7f74c308184e27580c17a1d0b6ff599bb36cc06cea53ef2b0b67c3f3d831015915600102614e5d565b614b197ff94d3c11b156185524dc880705acc4e207d4e6c8ac4a3c0d0c44c9bda5848526600102614e5d565b614b457f7fb78cee7876fe59378c92d71f0664000626f133d8bb0b1d4b78bd9087d3f121600102614e5d565b614b717fe2b5c6114496aadc5d19b41e7b20676ec5a3b9c6b840bced39f01be4854c255d600102614e5d565b614b9d7f48e29eabc4f5ead65887aabc5074676ef1ac52c07b1b60e89f0b4631ca0fb2b6600102614e5d565b614bc97fd58cca48d34222c8aad5b20d74c4becb0914b674b3f7e54d6115e474a901cc38600102614e5d565b6000600e600083815260200190815260200160002060009054906101000a900461ffff1661ffff16141515614bfd57600080fd5b614c297ffd755bf1f4d210adf86e1976af870c2dde76ef249a2e04281723ec2d67834b49600102614e5d565b614c557fecb91de1a63b000aba28b86778eac2321e7269fe1df84c98cf8cc02b2beb4c2d600102614e5d565b614c817fc843093e22fdbe07b710d6cfb557f4adc198b468a9328fb3373a8878c49f0f78600102614e5d565b614c8a81616b2c565b50565b50565b50565b6000614cc17ff620c8e7d6f39c01885c2f71899579216cff732114cbb5eef54d7e5e9a26f7ec600102614c90565b614ced7f8aa379ba9d2f7b27c97830c6a8b3692f1f0b6c07b5dd2cf671da1ae2bed490a6600102614c90565b614d197f284f45a4377482355d6da17ab0c407f006dbb1030be26f0fe8c2ed396f12ae9b600102614c90565b8273ffffffffffffffffffffffffffffffffffffffff166007600084815260200190815260200160002060009054906101000a900473ffffffffffffffffffffffffffffffffffffffff1673ffffffffffffffffffffffffffffffffffffffff1614905092915050565b614daf7fb41cd5f6201c7bf3f76d2b60228af44106d8421c721046002117e62c95cf9e16600102614c90565b614ddb7fa4449cf38feca80eeb21c8422f360bb542f795915e091a010a5cc6a2ec8d2490600102614c90565b614e077f766b16c6dd58fadf52362556f318d8f8db6c5a620f0bf45b88faaa8b542f311a600102614c90565b806009600084815260200190815260200160002060006101000a81548173ffffffffffffffffffffffffffffffffffffffff021916908373ffffffffffffffffffffffffffffffffffffffff1602179055505050565b50565b6000614e8e7f3ae97b2983935f6bc221b02c21265cb10a524cb974da3345c6e6bbc16e31fb5d600102614c90565b614eba7fa8a5df3c83ef1fcc9a2e7879ee1b05af0f7f8c14cf1914d0b7b9573ce40e619c600102614c90565b614ee67f915c2b227dcc2832771b55a08b846cd2b47603142a46d6eec2b45047717dbd5b600102614c90565b8273ffffffffffffffffffffffffffffffffffffffff166009600084815260200190815260200160002060009054906101000a900473ffffffffffffffffffffffffffffffffffffffff1673ffffffffffffffffffffffffffffffffffffffff1614905092915050565b614f7c7f66b696999af1a6a5a345bf3e9f29fedb18e5666a229a977c9f6af3cbc94738bb6001026158d2565b614fa87f54f4b79b2d0d8747ddaa341ae0bfe7d5522db5383323e2fd81ebc48cd704e9fb6001026158d2565b614fd47fb3d27e017d666ac9fbc5d11deb51ba46e2b263acea399b7bafbb13c3288af8386001026158d2565b600073ffffffffffffffffffffffffffffffffffffffff168273ffffffffffffffffffffffffffffffffffffffff16141561509c576150357feddf6b000c535abae7d0b760c7c16929e51af1469b587db67a62afde7e19cf5a6001026158d2565b6150617fa584a9b7faafe335bfebf096b8c371a4f295bf67342dbf5772750ffc39cc3a026001026158d2565b6007600082815260200190815260200160002060006101000a81549073ffffffffffffffffffffffffffffffffffffffff02191690556151ee565b6150c87f93b059e4aac9bd4320e7a5f7d9980173294e9757131d11de2edc9599f324e3a06001026158d2565b6150f47fa6d303d9287b7834d673e33b530dd58e6170c196c236730b72622a4c376d71ff6001026158d2565b600860008373ffffffffffffffffffffffffffffffffffffffff1673ffffffffffffffffffffffffffffffffffffffff1681526020019081526020016000206000815480929190600101919050555061516f7f44ef1e3b61a49bb5208bbbecb00c8bfe5dfc9be34c0480bfaa25ef90a5ecdc5d6001026158d2565b61519b7f365ffe523aae4c9ffadf73544c18a5552ff1ff7b389c2cbe13c9d15b3326b9aa6001026158d2565b816007600083815260200190815260200160002060006101000a81548173ffffffffffffffffffffffffffffffffffffffff021916908373ffffffffffffffffffffffffffffffffffffffff1602179055505b61521a7f2226ce019e47537d8e454ddca5e112d4903790ace74d41dc9d363c43b3410cad6001026158d2565b6152467f47385f808687c27d5a59a7dc42f93e0fdeea737f727cc62e711669ff5c38f1086001026158d2565b600073ffffffffffffffffffffffffffffffffffffffff168373ffffffffffffffffffffffffffffffffffffffff161415156153ed576152a87f4e6127e4a994fba5df78e71aa18f1f1d523362630cb30aead6876e9990c428c66001026158d2565b6152d47fb235be59090e82c7bfa8a8b8023417fd999d3fd1bba568e191668a4e186e463f6001026158d2565b600860008473ffffffffffffffffffffffffffffffffffffffff1673ffffffffffffffffffffffffffffffffffffffff16815260200190815260200160002060008154809291906001900391905055506153507f4ed115f965b9ea3e54650231154a5f18cc3a35f092b81ad39aacaa7e85475e286001026158d2565b600a600082815260200190815260200160002060006101000a81549073ffffffffffffffffffffffffffffffffffffffff02191690556153b27fae028673c4046d8259fe2c9a860fcb6a49bbbaa83d1dd3ca2ac0688d1ae4801f6001026158d2565b6009600082815260200190815260200160002060006101000a81549073ffffffffffffffffffffffffffffffffffffffff021916905561541a565b6154197f31b6fa50e79ee1c74054d4e9d070882636304fdaf307c0f2eb7f23d44fa533fd6001026158d2565b5b6154467f0668f245b8ed5f50acf7a77b0b916c0b8f67b3800fb95d8d4d7bd9c893e68e256001026158d2565b6154727f4d5369baa40700f5ca0035a032d898cee0eeae70c91a454ee4172329d88f4be26001026158d2565b7fddf252ad1be2c89b69c2b068fc378daa952ba7f163c4a11628f55a4df523b3ef838383604051808473ffffffffffffffffffffffffffffffffffffffff1673ffffffffffffffffffffffffffffffffffffffff1681526020018373ffffffffffffffffffffffffffffffffffffffff1673ffffffffffffffffffffffffffffffffffffffff168152602001828152602001935050505060405180910390a1505050565b60006155447f4ac87dde4a4fbaca206364122e0df3a6f4184df6c76089275191a1a34ad9d3b5600102614e5d565b6155707f54cd04fb1ca2f4b806ac1fd822067d8213e04e80be4638862e29ac77e9b81ba1600102614e5d565b61559c7f145cf622b2babc155e6defba81267c326ef5e297fe33e809a972ee7f207dbaea600102614e5d565b6155c87f7afe5a0d7123df7eb4b516447a4b1f38456e55b80cdc5d51b0e89076e787f3ac600102614e5d565b60008261ffff161115156155db57600080fd5b6156077f1d0857e361644fc529011044b538b4529871176050090b70cff8659acaccb4d3600102614e5d565b6156337fe44b9a926eb40ebe146f72fe8eb1f294bb0f38a6706d5d4f1dba7c251baec6b1600102614e5d565b61565f7feee4bbc877551112a62887ca03948a0987c894b2b6194910b2f5dc2fd97b7760600102614e5d565b600e600084815260200190815260200160002060009054906101000a900461ffff1690506156af7f8cf086795e83053371bfd98d3f0c3dcd9d14bf9fb5aa9fe2eece2123f6fdd242600102614e5d565b6156db7f01ce12e48fd9ff60619a8c1b06837766ea5450b349c6af278e6eb7a1ec03ffe2600102614e5d565b6157077ff0c1f85969b006723f322c591da0ed4e84fa6e4601d81473e570f9fd14d8f530600102614e5d565b8161ffff1682821661ffff1614151561571f57600080fd5b61574b7f4d861962e20dbdb5080ce1b51f69537cc1a42ecf230a3189f84fce7c681221f5600102614e5d565b6157777fb94b1ad502b870dbe3e12366b95058558b90074bb995f8afdf882f83d16263b0600102614e5d565b6157a37f75e7611228a417365986770319c879df6fa4cd8f9bdfc4d4a52a84d82ad9f2b9600102614e5d565b81811890506157d47f96978da1a422b0e207baf3b657187fb19d3e499dec944e636702b68ea68a9133600102614e5d565b6158007f3938bb22cba27a8e5cc6b45e821b00e56065102b6c703457829aacd8cba95ab7600102614e5d565b80600e600085815260200190815260200160002060006101000a81548161ffff021916908361ffff16021790555061585a7f6d57617351ba084e8df47de9c0daa6faa76c09247c21437800b7f4ccd12bda36600102614e5d565b6158867f848cad68c32655ac5b251517988645ef74f7ef99629035530f340e296d851ee3600102614e5d565b7f96b828b49c6eb235f60dde08b68959e6baef50b35a662b6db3cade02872d32308382604051808381526020018261ffff1661ffff1681526020019250505060405180910390a1505050565b50565b60008060006159067f30b3c0c07f817dafdfffaee96129a64ed0252f6d4f88bdf6689d91ff88c28b98600102614e5d565b6159327fefb5a35eb8ad79ba48054c709e228dd7dbfdfc68c58580adb17f1715709dc7b9600102614e5d565b61595e7f93897e5e4f0490c70ec66e3ab20babb0381539bbd7b462636741e647dad3b07d600102614e5d565b61598a7f3a0b0da1d2727e73151991689b1d22dfd55239844895e6ef4796b34b1dfb827a600102614e5d565b60008461ffff1611151561599d57600080fd5b6159c97fff6e6b515b5052191d21f38fe509f261f0c071be5aaea800df82640c8df8f791600102614e5d565b6159f57fe7cd3c148583c2c234c5ac5ebb174b2f156289705f88211a2df38001e2de13ca600102614e5d565b615a217f23eb2b7e5de59567a952a5b82fd9849791ee10d27634e2dff1e1df0a1def7cc6600102614e5d565b600e600086815260200190815260200160002060009054906101000a900461ffff169250615a717f55037fb314b64c8f20560384d516302940ab9f974f0531f099c550d1050f5903600102614e5d565b615a9d7fb11cd56a03ed3baf4fccdaf582775e900a18967e82bdd6ce6b0468bae84b1050600102614e5d565b615ac97fa2c2252e1fd0b00357ef6891633c811d43afc0e7d65634d16c7af39fcb8601c0600102614e5d565b600084841661ffff16141515615ade57600080fd5b615b0a7f6f7bf2380ace03fd483e980d236b3e4c7710c2b7244afe4472ba0f9898a3db24600102614e5d565b615b367f6c10ea1b0236b8ee0ad35e5237d0b5db9408b0bc7067db8f342fe52009fc8373600102614e5d565b615b627f0d7fd561126f0f0bcf21c8bf4350f50f2a7d52cced44984eaff79aa54ec3e981600102614e5d565b60006001851661ffff161115615cf257615b9e7f02a4f3925f497b7d2ee9996bddbea4dadca312842cdcf74979559814a7067fba600102614e5d565b615bca7febc637a85560d6ffae62fb4c404b7d1b11e6f55c9c56a58b99caab9bee49097f600102614e5d565b615bf67fbf07c53372620d01520a813ea28f410c76de0c5f7b1fea242a87aa97a53eaf83600102614e5d565b600685815481101515615c0557fe5b90600052602060002090600202019150615c417fd9233b1840b187e0c75913678471c4c475d8532990e2bbc7832428d71c42e2a7600102614e5d565b615c6c7e6a523462a1fbffb589cf4df51da84b90f1be151c6f1a2f6226adbc09a66e94600102614e5d565b615c987f4a92f8a9bcfbafe20393bc702f456621de335a9d2ceb38b29cd712e15b63064e600102614e5d565b60008260010160189054906101000a900463ffffffff1663ffffffff16141515615cc157600080fd5b615ced7f12c3f201f963fe0bc1618165943230b493c9dd69ae689e0b7889d5f4c6a16147600102614e5d565b615d1f565b615d1e7fc9cca3a192861a6022fd7a79c716c6c0f4147c2617d61e5e583f742235f3808c600102614e5d565b5b615d4b7fbe622a7b80f398edac5b4cfdb9a5e9f7fcefdc258228f76192a044251cb099ed600102614e5d565b615d777f0155e94e24413f19925d5d01f5c6a62446cb4960f4cbbf923f6019a812fdac75600102614e5d565b60006002851661ffff16111561606057615db37fea0b39bb3401da2ba2193e82a828b647bb700c729c64bf035d13159d53df323b600102614e5d565b615ddf7f647df0b364bd04b555878e67aa2eb317c398b0e6f5969c1d5cb7948f6fdd3379600102614e5d565b615e0b7fa987d65536459f7a177983ddeecd62293198b6418013d86210d45b205146cd5a600102614e5d565b6007600086815260200190815260200160002060009054906101000a900473ffffffffffffffffffffffffffffffffffffffff169050615e6d7f1b39c73a301f165d9a09749be212acae4448b3d3c619ecd8fd231db2b6e11d49600102614e5d565b615e997f3cbf2b7ec09d0ffabd48dba55e37105ba06ce4220d4112c32ee7c8d0cc660f1b600102614e5d565b615ec57faa6492b4f706069f0264a319f809768001735d2413328fca62f05274da94b426600102614e5d565b600b60049054906101000a900473ffffffffffffffffffffffffffffffffffffffff1673ffffffffffffffffffffffffffffffffffffffff168173ffffffffffffffffffffffffffffffffffffffff1614151515615f2257600080fd5b615f4e7fe059c8bdaf6adb1f8f8ae0edcedf4643d9870a363eba1e6c610b08261e829843600102614e5d565b615f7a7fbf5a9dca3e48586353f9a8494a089d0311a4b228b486e7938de3c26983cecaf5600102614e5d565b615fa67ff206735294317e20417acabe2de93e8ef38b2977a6f93490b4b5c5e86100add7600102614e5d565b615fd27f0c3cabacefc33d2e4629aff68c39c4d965496a9394e502ec9e63e61e8ebad658600102614e5d565b600c60009054906101000a900473ffffffffffffffffffffffffffffffffffffffff1673ffffffffffffffffffffffffffffffffffffffff168173ffffffffffffffffffffffffffffffffffffffff161415151561602f57600080fd5b61605b7f49aa0a15b3f055caf6abbd5dc34799e2c21dd154b821fc2e2e44e790fb7c2165600102614e5d565b61608d565b61608c7fa9d3ff38c8537170570a1d803812ec42a67bfca83c6eb3ade16c6242090c6d21600102614e5d565b5b6160b97fe0234859e842db30f74650b52863c0729d2204554b633ae06b41f08a87ca9aca600102614e5d565b6160e57f4cbed3e28005a9191de8e613ac518dca60499640be2fb0652f544766b9090ec8600102614e5d565b83831792506161167fe4f1d18a7b655aec221cded95fdd22d4e52dfc7750b2bc3622dc6f42abc950a4600102614e5d565b6161427f1a19063a4298ae335d7abdf41711c297957d39c90203d020227456160d879523600102614e5d565b82600e600087815260200190815260200160002060006101000a81548161ffff021916908361ffff16021790555061619c7ff0f63dbbce3dca433afb8d169b07ba14e59f2960d44389b97f478e70d628f0de600102614e5d565b6161c87fb6e784443591a7f35eec3c769cf9c6cc0bba5e367f5e666a2419931e907bdfc3600102614e5d565b7f96b828b49c6eb235f60dde08b68959e6baef50b35a662b6db3cade02872d32308584604051808381526020018261ffff1661ffff1681526020019250505060405180910390a15050505050565b600080616221616e62565b600061624f7faf1a83229740af54757f0d9680e14509b125e1b547461ad1a02d170f0feb99546001026158d2565b61627b7fc2f4059d2ec48df1e30397faa3121fd1a62bd2c11ec8466eff09dc64dafdeb666001026158d2565b6162a77fa2d877341c6464a2a0015a097de4cde74c11053a3b431b5ace80654b63ce98896001026158d2565b6162d37fefe04f30b1a96537be450fc4421d0cbec5b077ec9f878225130d9900f7abd51b6001026158d2565b8863ffffffff16891415156162e757600080fd5b6163137f891dc4c0acdaf920320fa7b61d1f628b110b269131943c41833c232d970e3c576001026158d2565b61633f7fb969f4128fee5278f6d097b0186d51b26a75663bed4bf7fca48c5b577f8c88fb6001026158d2565b61636b7f4aaa246181b1583170f0a88df963d402d913310af01c0716634dd4d50df7f8ee6001026158d2565b6163977f110b25b6af71b509da1fc3ec6ee020ce7cedf6d094b894c12f059fec873290ff6001026158d2565b8763ffffffff16881415156163ab57600080fd5b6163d77f25c061f5b20be6acc6aae8011390a9a9723977d31b4c5fc07ba733e4eb8f2e296001026158d2565b6164037f413875cf3c2aceeaed0a027920ebf7d6f73722ce84f13878c08924190a56a3ac6001026158d2565b61642f7fe83a31f46e02e074e46aa6c4896324efcda91e36b6da44dbed6db903044e64826001026158d2565b61645b7f69a56fc4a42e9cbace96ed61624e0fab641e6810339c182b87dfe94319ad49c16001026158d2565b8661ffff168714151561646d57600080fd5b6164997f2231e63dd34fd8fbbeea58fc7e3819749a26f10d60fa51be0b6608d445fa87146001026158d2565b6164c57ff2fdf5413df0643bd28e8ce560e392f0d4c3b865f6e0464b95714a820ab48b5d6001026158d2565b6164f17fdbb0207b721227a9eb66221af757237a13f4a0fd20f64a0ae156405aaac87ab46001026158d2565b6002878115156164fd57fe5b04925061652c7f021c2e0632620e122d1505458a088a25d7af7a5526f010e7377d7532beaa5eb26001026158d2565b6165587f79e80ce4b5a8e42f8dc16cde6b4a99c55cfa8e4ca345ebd6de1b8da059c7021b6001026158d2565b600d8361ffff1611156165f2576165917fc1226ff867e997d9ca97670bdcf470a26bc65ddd45f29753ca04b78cfb0d718d6001026158d2565b6165bd7f11e54662bb48f480547b4ca0434c96163dc96a65d6296c7164e275536b8b35916001026158d2565b6165e97fb1036d9d43d04c9f819b28e80a3ac795ed91d036fed33fcf541f4e7974298d126001026158d2565b600d925061661f565b61661e7f035c74e7ae3e2a0098511017d92fa1c07ee808923fd78a2017363505bd568bba6001026158d2565b5b61664b7f3fc07d5a94cbb4ccfd895cac66e52def11f2085d28185b33e4f6ebc460d4d1d06001026158d2565b6166777fc9caf35c6751d45e20d11393623ba020060d805c708e5d299058eb7a59c140bc6001026158d2565b610100604051908101604052808781526020014267ffffffffffffffff168152602001600067ffffffffffffffff1681526020018a63ffffffff1681526020018963ffffffff168152602001600063ffffffff1681526020018461ffff1681526020018861ffff1681525091506167107f708cf5f9ac8723faed74eef918a9665a9e3d38e093592c8bf219b8d56c7982a06001026158d2565b61673c7f49479d98da59a94fd2ca59fce468c73941ab208c99cc278d358e01a6357051016001026158d2565b6001600683908060018154018082558091505090600182039060005260206000209060020201600090919290919091506000820151816000015560208201518160010160006101000a81548167ffffffffffffffff021916908367ffffffffffffffff16021790555060408201518160010160086101000a81548167ffffffffffffffff021916908367ffffffffffffffff16021790555060608201518160010160106101000a81548163ffffffff021916908363ffffffff16021790555060808201518160010160146101000a81548163ffffffff021916908363ffffffff16021790555060a08201518160010160186101000a81548163ffffffff021916908363ffffffff16021790555060c082015181600101601c6101000a81548161ffff021916908361ffff16021790555060e082015181600101601e6101000a81548161ffff021916908361ffff16021790555050500390506168c07f9aa63b18dca78946b8584ddf38609392dae2f2a07d070e10850b0e23f4a9b40a6001026158d2565b6168ec7f15d1769b8687d4e8f6aa6d242cdcfa52a14c08c7ad5395161a8363a24f222d466001026158d2565b6169187f70d704080f82b558d9d1e5668411e3a7f3393181e9cd6845a2f16a4ae23b1b5b6001026158d2565b8063ffffffff168114151561692c57600080fd5b6169587fcd95a0a86cc7da87bbf27bdc45f85d1b6f886ee3e7ee1ef053e054615a6320ba6001026158d2565b6169847ff34d4e69368e8b4ef5a6894d75dd89fce064964e799b7b1e76f1d9c15bdf1a746001026158d2565b6169b07fa466790e12551182e079b2122ea013e586efae27cddbc576f8402f054c3d0c226001026158d2565b7fa2950fd8c03e7518275ee57e05ca76c671969b5445b12b1aeea4b0b30195e5df8582846060015163ffffffff16856080015163ffffffff168660000151876020015167ffffffffffffffff16604051808773ffffffffffffffffffffffffffffffffffffffff1673ffffffffffffffffffffffffffffffffffffffff168152602001868152602001858152602001848152602001838152602001828152602001965050505050505060405180910390a1616a8d7fc700d1ebdeb35e368fd4546f2d66f21598f28f4f23edc64ea6a4d8b8dec0c1ea6001026158d2565b616ab97f28f02e64d602931cffbaeabaa94fb8fb5b2cf0e1e898ddb5634433d0cf3348b76001026158d2565b616ac560008683614f50565b616af17f66687bd90d7dda445e852caa3a4781bba05a310ac12c103b41b22faab0c6bfaa6001026158d2565b616b1d7f0815989a39726999d063a887b0c35b1a0836d8477666d46665c81c042b62d57e6001026158d2565b80935050505095945050505050565b6000616b5a7f1d77822df049d83386355f59148204c605a5c33d6c9f15e3110018d9369fb3236001026158d2565b616b867f624b023533af9b442aa96ea7c1cfa9912ab0b1ede76ebbb6aacc5d34213979806001026158d2565b616bb27f91c6a900d6265ed2db5032756e47efd5679dda866ab1a61d3d1a5fde247a12f36001026158d2565b616bde7f22e39dd0a5ff2508b65930c6db3525c922a3d95abc4f2814c4bdc1c299d0c7da6001026158d2565b600082111515616bed57600080fd5b616c197f05479ce377b2444c682c1a1737140eeb838a7b55f49ed8bd5f32283101f9a98b6001026158d2565b616c457f67382d5223aed1ad0381fb46dbf6542b3c75f94cfc04e6c6dca54ef2820a361e6001026158d2565b616c717fdd726886bf0eea761dcd18eab91595656744a9200e61ff548c6234748273f0006001026158d2565b6007600083815260200190815260200160002060009054906101000a900473ffffffffffffffffffffffffffffffffffffffff169050616cd37f9b54c4e2be41610caa54d986249bc5b48c678e20afe40d5104acf3e3a679c1396001026158d2565b616cff7f8ac7b4b5faafe346ba2fc956069ef73443c7120a7ee41b4d674a32c3cc435e956001026158d2565b616d2b7f8b8d425c4143ef81258c88ef6ecf6ef7a0623549d442ee0878ccc73c9992409f6001026158d2565b600073ffffffffffffffffffffffffffffffffffffffff168173ffffffffffffffffffffffffffffffffffffffff1614151515616d6757600080fd5b616d937f16e883088c4b0d00738d8472eb66de7f4ca28305d322e800e1037612f9c503036001026158d2565b616dbf7f27c5745023592ad0dcf7b31c622e7518643aa8728f4dadc54af283f2bffde4b56001026158d2565b600b600081819054906101000a900463ffffffff168092919060010191906101000a81548163ffffffff021916908363ffffffff16021790555050616e267fe7edf42fae71d7245ae4958dc7a148eff4d915fb75466ffdf04f64e4526cbf886001026158d2565b616e527fe8db8fbf6f5968f1907074ad1ee0f91b87ee9b7e0b42c6e6ddb533e6c5beaf626001026158d2565b616e5e81600084614f50565b5050565b6101006040519081016040528060008152602001600067ffffffffffffffff168152602001600067ffffffffffffffff168152602001600063ffffffff168152602001600063ffffffff168152602001600063ffffffff168152602001600061ffff168152602001600061ffff16815250905600a165627a7a72305820f28298453a549421ae070607a20118361a00209c3ee465916131e8247f222ee00029",
  "linkReferences": {},
  "deployedLinkReferences": {}
}