{
  "_format": "hh-sol-artifact-1",
  "contractName": "ClockAuction",
  "sourceName": "contracts/BotCore.sol",
  "abi": [
    {
      "constant": false,
      "inputs": [
        {
          "name": "_tokenId",
          "type": "uint256"
        },
        {
          "name": "_startingPrice",
          "type": "uint256"
        },
        {
          "name": "_endingPrice",
          "type": "uint256"
        },
        {
          "name": "_duration",
          "type": "uint256"
        },
        {
          "name": "_seller",
          "type": "address"
        }
      ],
      "name": "createAuction",
      "outputs": [],
      "payable": false,
      "stateMutability": "nonpayable",
      "type": "function"
    },
    {
      "constant": false,
      "inputs": [],
      "name": "unpause",
      "outputs": [
        {
          "name": "",
          "type": "bool"
        }
      ],
      "payable": false,
      "stateMutability": "nonpayable",
      "type": "function"
    },
    {
      "constant": false,
      "inputs": [
        {
          "name": "_tokenId",
          "type": "uint256"
        }
      ],
      "name": "bid",
      "outputs": [],
      "payable": true,
      "stateMutability": "payable",
      "type": "function"
    },
    {
      "constant": true,
      "inputs": [],
      "name": "paused",
      "outputs": [
        {
          "name": "",
          "type": "bool"
        }
      ],
      "payable": false,
      "stateMutability": "view",
      "type": "function"
    },
    {
      "constant": false,
      "inputs": [],
      "name": "withdrawBalance",
      "outputs": [],
      "payable": false,
      "stateMutability": "nonpayable",
      "type": "function"
    },
    {
      "constant": true,
      "inputs": [
        {
          "name": "_tokenId",
          "type": "uint256"
        }
      ],
      "name": "getAuction",
      "outputs": [
        {
          "name": "seller",
          "type": "address"
        },
        {
          "name": "startingPrice",
          "type": "uint256"
        },
        {
          "name": "endingPrice",
          "type": "uint256"
        },
        {
          "name": "duration",
          "type": "uint256"
        },
        {
          "name": "startedAt",
          "type": "uint256"
        }
      ],
      "payable": false,
      "stateMutability": "view",
      "type": "function"
    },
    {
      "constant": true,
      "inputs": [],
      "name": "ownerCut",
      "outputs": [
        {
          "name": "",
          "type": "uint256"
        }
      ],
      "payable": false,
      "stateMutability": "view",
      "type": "function"
    },
    {
      "constant": false,
      "inputs": [],
      "name": "pause",
      "outputs": [
        {
          "name": "",
          "type": "bool"
        }
      ],
      "payable": false,
      "stateMutability": "nonpayable",
      "type": "function"
    },
    {
      "constant": false,
      "inputs": [
        {
          "name": "_tokenId",
          "type": "uint256"
        }
      ],
      "name": "cancelAuctionWhenPaused",
      "outputs": [],
      "payable": false,
      "stateMutability": "nonpayable",
      "type": "function"
    },
    {
      "constant": true,
      "inputs": [],
      "name": "owner",
      "outputs": [
        {
          "name": "",
          "type": "address"
        }
      ],
      "payable": false,
      "stateMutability": "view",
      "type": "function"
    },
    {
      "constant": false,
      "inputs": [
        {
          "name": "_tokenId",
          "type": "uint256"
        }
      ],
      "name": "cancelAuction",
      "outputs": [],
      "payable": false,
      "stateMutability": "nonpayable",
      "type": "function"
    },
    {
      "constant": true,
      "inputs": [
        {
          "name": "_tokenId",
          "type": "uint256"
        }
      ],
      "name": "getCurrentPrice",
      "outputs": [
        {
          "name": "",
          "type": "uint256"
        }
      ],
      "payable": false,
      "stateMutability": "view",
      "type": "function"
    },
    {
      "constant": true,
      "inputs": [],
      "name": "nonFungibleContract",
      "outputs": [
        {
          "name": "",
          "type": "address"
        }
      ],
      "payable": false,
      "stateMutability": "view",
      "type": "function"
    },
    {
      "constant": false,
      "inputs": [
        {
          "name": "newOwner",
          "type": "address"
        }
      ],
      "name": "transferOwnership",
      "outputs": [],
      "payable": false,
      "stateMutability": "nonpayable",
      "type": "function"
    },
    {
      "inputs": [
        {
          "name": "_nftAddress",
          "type": "address"
        },
        {
          "name": "_cut",
          "type": "uint256"
        }
      ],
      "payable": false,
      "stateMutability": "nonpayable",
      "type": "constructor"
    },
    {
      "anonymous": false,
      "inputs": [
        {
          "indexed": false,
          "name": "seller",
          "type": "address"
        },
        {
          "indexed": false,
          "name": "tokenId",
          "type": "uint256"
        },
        {
          "indexed": false,
          "name": "startingPrice",
          "type": "uint256"
        },
        {
          "indexed": false,
          "name": "endingPrice",
          "type": "uint256"
        },
        {
          "indexed": false,
          "name": "creationTime",
          "type": "uint256"
        },
        {
          "indexed": false,
          "name": "duration",
          "type": "uint256"
        }
      ],
      "name": "AuctionCreated",
      "type": "event"
    },
    {
      "anonymous": false,
      "inputs": [
        {
          "indexed": false,
          "name": "tokenId",
          "type": "uint256"
        },
        {
          "indexed": false,
          "name": "totalPrice",
          "type": "uint256"
        },
        {
          "indexed": false,
          "name": "seller",
          "type": "address"
        },
        {
          "indexed": false,
          "name": "winner",
          "type": "address"
        },
        {
          "indexed": false,
          "name": "time",
          "type": "uint256"
        }
      ],
      "name": "AuctionSuccessful",
      "type": "event"
    },
    {
      "anonymous": false,
      "inputs": [
        {
          "indexed": false,
          "name": "tokenId",
          "type": "uint256"
        },
        {
          "indexed": false,
          "name": "seller",
          "type": "address"
        },
        {
          "indexed": false,
          "name": "time",
          "type": "uint256"
        }
      ],
      "name": "AuctionCancelled",
      "type": "event"
    },
    {
      "anonymous": false,
      "inputs": [],
      "name": "Pause",
      "type": "event"
    },
    {
      "anonymous": false,
      "inputs": [],
      "name": "Unpause",
      "type": "event"
    }
  ],
  "bytecode": "0x608060405260008060146101000a81548160ff0219169083151502179055503480156200002b57600080fd5b50604051604080620045e683398101806040528101908080519060200190929190805190602001909291905050506000620000987f1c7c81618d485a82a0eb836daf1d7932e252ea257d6abf0727169125ec0685d560010262000457640100000000026401000000009004565b620000d57f310da8f2d16de3dca4307cb51d39c6f82419dc11c783d45ee9e0c07979b207f960010262000457640100000000026401000000009004565b620001127f317f2b584da14ed23829134c3bac9977fd09a004ef066188bd9a44a50f9253cb60010262000457640100000000026401000000009004565b336000806101000a81548173ffffffffffffffffffffffffffffffffffffffff021916908373ffffffffffffffffffffffffffffffffffffffff1602179055506200018f7fb52068bfec1f5e5678a9c9b73e3387ebabb35f5efd338cdc13e966c745646d666001026200045a640100000000026401000000009004565b620001cc7fc11ade2fa01c2cde45c89f3656f76144ced3b7c796462340e2a62f9cc9239ad46001026200045a640100000000026401000000009004565b620002097f12c4a9606d9299c98f4f3757d0ad62443f3f4c88860a337df7a6601fdeb59de46001026200045a640100000000026401000000009004565b620002467f146141a554d41c32539cdddb0fad4b3afc8bda9ff735fdd999e9eda5dc50c4606001026200045a640100000000026401000000009004565b61271082111515156200025857600080fd5b620002957f47aa7164b9bbe2f57458ee0113b5b563553b6f257026cf10218cd3f477b933126001026200045a640100000000026401000000009004565b620002d27fd9e6739eb215613f3de6151c279488d03871e1f9e0b0d194419ad2507588d84e6001026200045a640100000000026401000000009004565b6200030f7fe45f174a6db6752a741a82127a625bb405716905e29c0c1713c47bb505165f496001026200045a640100000000026401000000009004565b81600281905550620003537faf8cefa9d2d433877d7dd777aca3360feeb8a0411dd73bcaad51c067c5d06d926001026200045a640100000000026401000000009004565b620003907fd1bb9073ecb6bc43f4d3ce822b28f22b751db36e6594ce552360fef31996ee196001026200045a640100000000026401000000009004565b829050620003d07f510667022e2a6b7bff6cd0049d5c2aea55fe468487da8bd475d8c00237419acf6001026200045a640100000000026401000000009004565b6200040d7f48409cfb6ef7822c1168e235cec8c03de12358084af1da9ccc1c35ca0dcd44046001026200045a640100000000026401000000009004565b80600160006101000a81548173ffffffffffffffffffffffffffffffffffffffff021916908373ffffffffffffffffffffffffffffffffffffffff1602179055505050506200045d565b50565b50565b614179806200046d6000396000f3006080604052600436106100d0576000357c0100000000000000000000000000000000000000000000000000000000900463ffffffff16806327ebe40a146100d55780633f4ba83a14610140578063454a2ab31461016f5780635c975abb1461018f5780635fd8c710146101be57806378bd7935146101d557806383b5ff8b1461025e5780638456cb5914610289578063878eb368146102b85780638da5cb5b146102e557806396b5a7551461033c578063c55d0f5614610369578063dd1b7a0f146103aa578063f2fde38b14610401575b600080fd5b3480156100e157600080fd5b5061013e60048036038101908080359060200190929190803590602001909291908035906020019092919080359060200190929190803573ffffffffffffffffffffffffffffffffffffffff169060200190929190505050610444565b005b34801561014c57600080fd5b50610155610a64565b604051808215151515815260200191505060405180910390f35b61018d60048036038101908080359060200190929190505050610e6d565b005b34801561019b57600080fd5b506101a4611085565b604051808215151515815260200191505060405180910390f35b3480156101ca57600080fd5b506101d3611098565b005b3480156101e157600080fd5b506102006004803603810190808035906020019092919050505061132f565b604051808673ffffffffffffffffffffffffffffffffffffffff1673ffffffffffffffffffffffffffffffffffffffff1681526020018581526020018481526020018381526020018281526020019550505050505060405180910390f35b34801561026a57600080fd5b506102736115de565b6040518082815260200191505060405180910390f35b34801561029557600080fd5b5061029e6115e4565b604051808215151515815260200191505060405180910390f35b3480156102c457600080fd5b506102e3600480360381019080803590602001909291905050506119ef565b005b3480156102f157600080fd5b506102fa611e5e565b604051808273ffffffffffffffffffffffffffffffffffffffff1673ffffffffffffffffffffffffffffffffffffffff16815260200191505060405180910390f35b34801561034857600080fd5b5061036760048036038101908080359060200190929190505050611e83565b005b34801561037557600080fd5b50610394600480360381019080803590602001909291905050506121b3565b6040518082815260200191505060405180910390f35b3480156103b657600080fd5b506103bf61237c565b604051808273ffffffffffffffffffffffffffffffffffffffff1673ffffffffffffffffffffffffffffffffffffffff16815260200191505060405180910390f35b34801561040d57600080fd5b50610442600480360381019080803573ffffffffffffffffffffffffffffffffffffffff1690602001909291905050506123a2565b005b61044c6140cf565b6104787fbe58eebb92eb883773e29b7762ec4934b6ea7a02e32781ce65b2618dd7cc15a36001026126b8565b6104a47f2d19d859830746fe55b6b40ed45709585922e9464b96259cd1792cb99bce49c96001026126b8565b6104d07fc55d784e4ee7927ddddd424ac23ba7d722e078290cf70ba66cf978c9d9c9ccae6001026126b8565b6104fc7fd4ceb1e409ca88a3c9c3e455853ddc5156589bbd45c3cf64700915b67a2e91566001026126b8565b600060149054906101000a900460ff1615151561051857600080fd5b6105447f56096fba84bb591301d35380713828d102bd55f1e32b801fbfc60adffa98eeea6001026126b8565b6105707f9860ccde9c00f67c72d4cd658a3e86188d504fbb1ee2946961eca701acfb98c26001026126b8565b61059b7e1e5968de813dad2a0ef1b4509d7781b0aaf87c1e94509b93e9f9191b298bcf6001026126bb565b6105c77fecddab9495a630eb066b3393318a224c2ced956a624cae5a47fafcaf5864edd06001026126bb565b6105f37f7d147821e21f85effc478718b7682a1fa0a396272230ae20aa3777c95163ad1d6001026126bb565b61061f7f170b6c0d6599a5a6ec5dcd3406aaa85819c141c7caa0819033ded672a3f2cd5e6001026126bb565b846fffffffffffffffffffffffffffffffff168514151561063f57600080fd5b61066b7f91ecf61d45bf630ba876a327a7853da146230a381c145ae6939d4b5bb6d38ec76001026126bb565b6106977fcff7ea60d05b14e82cb10b68d5452df8e4b1b31107a7484a11a3da40ee8f0bb26001026126bb565b6106c37fa451872432059d100b00ab3ffc35bf1b1b0e6c0618249a69f61304d6d373cfa06001026126bb565b6106ef7f4de2be97ad01747d81df309e6aafa4ef691893742d591b14eadeac0127c0e7b46001026126bb565b836fffffffffffffffffffffffffffffffff168414151561070f57600080fd5b61073b7fcc413fa0686e28f54eb5da19b60dc3504e671aad645419e961b8829726fd3f886001026126bb565b6107677fbeb81cbbf791836e512c9978eb2a18fcf8bfe2117d8400c05c9e0d94e96e16be6001026126bb565b6107937fdd2e35781d920607a0e41e9d6421def1a5cc28a568fe1460b926a8a3df2a15746001026126bb565b6107bf7feaf0a5c68b59b0e42918a3341565f7ea9c5b86a53f9958d51d2b120d6905b4b56001026126bb565b8267ffffffffffffffff16831415156107d757600080fd5b6108037f4956273d44fa58ae6ce8dddcedab4ea632b74244ec3bd8e860c8794042a7fa166001026126bb565b61082f7f83f3fea501bb5d9de4e443acf309e69b0c4547bce4353db705aca055fa50ce276001026126bb565b61085b7fbf0d5f341c0e11222442c8d30dacd1a6a1e761a711e52ee98e77d7feed2e5d126001026126bb565b6108877f0869df5cbdc7a1638dd65c5c3f33f57c8c071724f1fab3e673a6b5db7b40458a6001026126bb565b61089133876126be565b151561089c57600080fd5b6108c87fb3de136c428201d181867c59f82b1ca7824ecd05415d23443fcefb12f8c32d886001026126bb565b6108f47fa533e65bcfc8b2f14f69e4d6fba4f098b95816d57c3a821ca0305d1c0ece437d6001026126bb565b6109207fab0ba56214f0ebb4213ac80e5d37435f0f26bf914f9bccb6b6db5e9e34de0ce56001026126bb565b61092a3387612846565b6109567f9999085b8e3082093458485e75aae111705d91d7e94fefa4550441433934eb926001026126bb565b6109827f89ee70345053b313a30db320524481d5ccb1d40dcb1dc9e212e0efd31ddcb13b6001026126bb565b60a0604051908101604052808373ffffffffffffffffffffffffffffffffffffffff168152602001866fffffffffffffffffffffffffffffffff168152602001856fffffffffffffffffffffffffffffffff1681526020018467ffffffffffffffff1681526020014267ffffffffffffffff168152509050610a267f990d9992c4d4a8f5a8abf955698a79d5b6c740951b750391c3c55e53781cf6ab6001026126bb565b610a527f7c31a36311582fc4496e6edbffe2e1ee402a59b48d04a06ac0fed8bc63c2e2706001026126bb565b610a5c86826129df565b505050505050565b6000610a927f3af23e3c10b240c6e950d3cccf3bde20e053aa14d112d2bd98ab8c20e02f6e13600102612d9e565b610abe7fd71f93a6e5e885fbf8a6b95b1558452a2f405b07285782b36a8c38e088be5c40600102612d9e565b610aea7f70104cb81506d70bc1898d6ee645fbe2bf75e053ede2cf4b74e160ce2c58a630600102612d9e565b610b167f30286fdf59faf1ac201a29589caa2685d7069400fc8a9ac9cc71adb64868f6ed600102612d9e565b6000809054906101000a900473ffffffffffffffffffffffffffffffffffffffff1673ffffffffffffffffffffffffffffffffffffffff163373ffffffffffffffffffffffffffffffffffffffff16141515610b7157600080fd5b610b9d7fc04ec288ea82711e4e6a99b105673225e355980eb2b06d007afcc414dbda29b8600102612d9e565b610bc97f1acad9309e7178f3f3e3a5bbe218d30c8348ad888087bf91d422030a82a85371600102612d9e565b610bf57f6f426389066b9bfcb1aff3d7f93983488ac972b4cc625f427e3b03397610d8b96001026126b8565b610c217ff79b4446a72ccd95c0b7a56b1ba6f16b05f4e60b564e5ebb56db3deff18b1eec6001026126b8565b610c4d7ff675a56cd6a5976d177a9acf8e426c674401ae7d8bcc40e9ea9c5ec13e6ff38a6001026126b8565b610c797fed366b4a6b96d852b5d27ad4d90172dd8db199312652f736a43557bc0ac16a496001026126b8565b600060149054906101000a900460ff161515610c9457600080fd5b610cc07f781701e834097f78cc6122aba9ca17ef67cdcc8ed4a909a4d7ae1ca293725d626001026126b8565b610cec7fed95f215ba75b75ba8d71b6daa903bc793758b871e544f172fc0caa2ac01ffd86001026126b8565b610d187f0168bbbd3e1789ec7a49c882d0c4dcf8bb0679ebe1674db15e8dd425ba09f9eb6001026126b8565b610d447f39566854fca5f38e7ed5d353e110def3bb8b327e668443a915dbd2574f3383346001026126b8565b610d707f178f47d7700d30b1a9c4f53ea5905ecbfc650604844311967caea4afa77f10cc6001026126b8565b60008060146101000a81548160ff021916908315150217905550610db67fee76f799fabd2800a49ea54093b79abe56d498ab802dee534d1add586bab8b766001026126b8565b610de27f162692e779983efdeb32bcee6b0b6a22e1c389b555b77c61dc12d7f8523ce24e6001026126b8565b7f7805862f689e2f13df9f062ff482ad3ad112aca9e0847911ed832e158c525b3360405160405180910390a1610e3a7f7e32acd99e8bb91875a8795d10f9eca838b4b8070486a8ea52d6e5688368412c6001026126b8565b610e667f2c0b62f3750beb2a32800fc152535b2aae7174e0cba2aa608e60aca99a689c696001026126b8565b6001905090565b610e997fbe58eebb92eb883773e29b7762ec4934b6ea7a02e32781ce65b2618dd7cc15a36001026126b8565b610ec57f2d19d859830746fe55b6b40ed45709585922e9464b96259cd1792cb99bce49c96001026126b8565b610ef17fc55d784e4ee7927ddddd424ac23ba7d722e078290cf70ba66cf978c9d9c9ccae6001026126b8565b610f1d7fd4ceb1e409ca88a3c9c3e455853ddc5156589bbd45c3cf64700915b67a2e91566001026126b8565b600060149054906101000a900460ff16151515610f3957600080fd5b610f657f56096fba84bb591301d35380713828d102bd55f1e32b801fbfc60adffa98eeea6001026126b8565b610f917f9860ccde9c00f67c72d4cd658a3e86188d504fbb1ee2946961eca701acfb98c26001026126b8565b610fbd7f8a64b89192adf1a7885867f024b1a04b7bd63a9e639d801b9b012144b2f7a11a6001026126bb565b610fe97fb226ea178f33c24fe99164db313024888a9e9e2e8037b6d4aa79ec571a20f00d6001026126bb565b6110157f036ed97b5fba183e1aaec49dce2af024accae20663510c9088d4e3e606f083336001026126bb565b61101f8134612da1565b5061104c7f308980a91dc4b47f9ca3b2d6a59e6b05efe90cace92b46f455c06f59a4db12bf6001026126bb565b6110787f40633190adfc3a405985736c02e2c6cd2b3bfdfdb791e2e349edad2a45f526506001026126bb565b6110823382613593565b50565b600060149054906101000a900460ff1681565b6000806110c77f8bb718790f71d8268b8b02cf908d57c4844d4e30dcfbc15292f851533017fd8c6001026126bb565b6110f37ff5238708a3cf42d25ead6cab30d4ac690e2e463676cc04e2ccdfa77e3f492b516001026126bb565b61111f7f4616d895d2ee490b5a2a0dae3dda48c995817a635102fd3a366bc38667ff44d36001026126bb565b600160009054906101000a900473ffffffffffffffffffffffffffffffffffffffff1691506111707f4334833706043e0c85842af47b5e4f84db727c54017755eafaecb30b81c48e5b6001026126bb565b61119c7f010cee23367074e65446974cbdb06198d0877bd0f432da6d594965f99d48afa96001026126bb565b6111c87fbcf087a0d755bd68f2018f8541b5b7c22615e1e838404c2001401c6eb963fe186001026126bb565b6000809054906101000a900473ffffffffffffffffffffffffffffffffffffffff1673ffffffffffffffffffffffffffffffffffffffff163373ffffffffffffffffffffffffffffffffffffffff16148061124e57508173ffffffffffffffffffffffffffffffffffffffff163373ffffffffffffffffffffffffffffffffffffffff16145b151561125957600080fd5b6112857fdba454e168659e758982fdf8995125b7abcb92abd3bd876f1f618a7303de95f16001026126bb565b6112b17feb8a8ac2d3fcbaa08e9acead8a7ac0918c827083cefbf5752926a0aec031c5286001026126bb565b6112dd7f10c82473e958cc6238e8d05ddc9cb9915e698e47796abc0a29ab3609703a8a1d6001026126bb565b8173ffffffffffffffffffffffffffffffffffffffff166108fc3073ffffffffffffffffffffffffffffffffffffffff16319081150290604051600060405180830381858888f1935050505090505050565b6000806000806000806113647f0562ce2602d1684b7f66b47a2d03a0f75d227a016365f2fcc0169d2d729ec4536001026126bb565b6113907f5a88a950160c13f6112af1e543b2b40172fc75965661707f4b1fdab9d64f6e9b6001026126bb565b6113bc7fc972905323ba127c3b497d0c7c5f21b89c26d577b36dc23aef4270a877788f536001026126bb565b6003600088815260200190815260200160002090506113fd7fd4a9620194096c67952f0fad4417d179ab73abf442ec8aa1ff30a057b995f9786001026126bb565b6114297f1878ab856750f9f09abc69bc69498653805c1aa9461594fe9df5048ef8bd40766001026126bb565b6114557f76c3a02ad22a83a9f7adf60d7d4bf560a3b9d404dbd1f8ebc12b7bd6348225556001026126bb565b61145e816136f8565b151561146957600080fd5b6114957f829de5ae3b16a37921c75d1faa4adeea8e9a11a577ecb67d8489133c94bf34df6001026126bb565b6114c17faaf0e6cf60ab6350f468c61dfbceb51539cbc45e05729f080b7b8d03ba6fa94a6001026126bb565b6114ed7fcfe49ea9a3139f4c6b8dcec6c05c3c835ad20159c5cc3309c6d9473c04c541d76001026126bb565b8060000160009054906101000a900473ffffffffffffffffffffffffffffffffffffffff168160010160009054906101000a90046fffffffffffffffffffffffffffffffff168260010160109054906101000a90046fffffffffffffffffffffffffffffffff168360020160009054906101000a900467ffffffffffffffff168460020160089054906101000a900467ffffffffffffffff16836fffffffffffffffffffffffffffffffff169350826fffffffffffffffffffffffffffffffff1692508167ffffffffffffffff1691508067ffffffffffffffff169050955095509550955095505091939590929450565b60025481565b60006116127f3af23e3c10b240c6e950d3cccf3bde20e053aa14d112d2bd98ab8c20e02f6e13600102612d9e565b61163e7fd71f93a6e5e885fbf8a6b95b1558452a2f405b07285782b36a8c38e088be5c40600102612d9e565b61166a7f70104cb81506d70bc1898d6ee645fbe2bf75e053ede2cf4b74e160ce2c58a630600102612d9e565b6116967f30286fdf59faf1ac201a29589caa2685d7069400fc8a9ac9cc71adb64868f6ed600102612d9e565b6000809054906101000a900473ffffffffffffffffffffffffffffffffffffffff1673ffffffffffffffffffffffffffffffffffffffff163373ffffffffffffffffffffffffffffffffffffffff161415156116f157600080fd5b61171d7fc04ec288ea82711e4e6a99b105673225e355980eb2b06d007afcc414dbda29b8600102612d9e565b6117497f1acad9309e7178f3f3e3a5bbe218d30c8348ad888087bf91d422030a82a85371600102612d9e565b6117757fbe58eebb92eb883773e29b7762ec4934b6ea7a02e32781ce65b2618dd7cc15a36001026126b8565b6117a17f2d19d859830746fe55b6b40ed45709585922e9464b96259cd1792cb99bce49c96001026126b8565b6117cd7fc55d784e4ee7927ddddd424ac23ba7d722e078290cf70ba66cf978c9d9c9ccae6001026126b8565b6117f97fd4ceb1e409ca88a3c9c3e455853ddc5156589bbd45c3cf64700915b67a2e91566001026126b8565b600060149054906101000a900460ff1615151561181557600080fd5b6118417f56096fba84bb591301d35380713828d102bd55f1e32b801fbfc60adffa98eeea6001026126b8565b61186d7f9860ccde9c00f67c72d4cd658a3e86188d504fbb1ee2946961eca701acfb98c26001026126b8565b6118997fedf587d938915592678647808f0b9f7903b8a9c79cedf06e6bb4b875c79507696001026126b8565b6118c57f4c2acfb0103e7545fc4526d049e77f76743ac4978f4c40fcadb8d0b483732b906001026126b8565b6118f17f3da88813166c08be0b70d2da3b419e2e0dd46cbe6ca1a417c8982344e0e1144b6001026126b8565b6001600060146101000a81548160ff0219169083151502179055506119387f4a021c48cc3cd84afb1a60032a0cb39e3ca37eee5f9001682df1fab0ae5379616001026126b8565b6119647fb9148225311cf489f9ba3758785528e6c743bbfb94ab44df3a3d2f935c901c5c6001026126b8565b7f6985a02210a168e66602d3235cb6db0e70f92b3ba4d376a33c0f3d9434bff62560405160405180910390a16119bc7fd48053f45cecab97da2e90044886327da4e6241ad49ee8dbc69df6eecca100556001026126b8565b6119e87f25e79472825041fbaa144fb89f6ca3e91d44a39344d12bfb64b4f23bff3c472a6001026126b8565b6001905090565b6000611a1d7f6f426389066b9bfcb1aff3d7f93983488ac972b4cc625f427e3b03397610d8b96001026126b8565b611a497ff79b4446a72ccd95c0b7a56b1ba6f16b05f4e60b564e5ebb56db3deff18b1eec6001026126b8565b611a757ff675a56cd6a5976d177a9acf8e426c674401ae7d8bcc40e9ea9c5ec13e6ff38a6001026126b8565b611aa17fed366b4a6b96d852b5d27ad4d90172dd8db199312652f736a43557bc0ac16a496001026126b8565b600060149054906101000a900460ff161515611abc57600080fd5b611ae87f781701e834097f78cc6122aba9ca17ef67cdcc8ed4a909a4d7ae1ca293725d626001026126b8565b611b147fed95f215ba75b75ba8d71b6daa903bc793758b871e544f172fc0caa2ac01ffd86001026126b8565b611b407f3af23e3c10b240c6e950d3cccf3bde20e053aa14d112d2bd98ab8c20e02f6e13600102612d9e565b611b6c7fd71f93a6e5e885fbf8a6b95b1558452a2f405b07285782b36a8c38e088be5c40600102612d9e565b611b987f70104cb81506d70bc1898d6ee645fbe2bf75e053ede2cf4b74e160ce2c58a630600102612d9e565b611bc47f30286fdf59faf1ac201a29589caa2685d7069400fc8a9ac9cc71adb64868f6ed600102612d9e565b6000809054906101000a900473ffffffffffffffffffffffffffffffffffffffff1673ffffffffffffffffffffffffffffffffffffffff163373ffffffffffffffffffffffffffffffffffffffff16141515611c1f57600080fd5b611c4b7fc04ec288ea82711e4e6a99b105673225e355980eb2b06d007afcc414dbda29b8600102612d9e565b611c777f1acad9309e7178f3f3e3a5bbe218d30c8348ad888087bf91d422030a82a85371600102612d9e565b611ca37f2e1d26878e5cf23380aa9bd3996577eb519f58d8a0f8dd95157035ff7fa7ff006001026126bb565b611ccf7f951f61f9fa103e683c90b2d796f28d37c3d590382558cbb88b748dc22e5187fd6001026126bb565b611cfb7f71f73a2bb793eb5be1888e29d56b0e53c0f815732b3160eb8573173782e039ac6001026126bb565b600360008381526020019081526020016000209050611d3c7f129287c24b5380d616c622897ab28ffc13a99f821556d58a8daa352154ebba8e6001026126bb565b611d687f55db4ce9bb640b4d26f16b2ee89785e5a470f49fe8bce91c9ec7f0ae42a7c0eb6001026126bb565b611d947fe13850a4814f0cc58c24878a47d5b2c6df295b962db098a74495c22169074e276001026126bb565b611d9d816136f8565b1515611da857600080fd5b611dd47f67ae2c31aef268057114534ade5ec4fa47c3ae7e8128533587c60d86dc44ca266001026126bb565b611e007f4a2628a67fd3e474384df0c5b70fbc62f2337477a866235768e3b6854e60af226001026126bb565b611e2c7f19528b29bf91362fd9041e622a08034a8aadb0510afdeb545cb8fdc9c3b16de06001026126bb565b611e5a828260000160009054906101000a900473ffffffffffffffffffffffffffffffffffffffff166137ab565b5050565b6000809054906101000a900473ffffffffffffffffffffffffffffffffffffffff1681565b600080611eb27f509be30d6593ce83b99f1b20fd594a616a2704181d3f1b66fa258b8c6cf0427f6001026126bb565b611ede7fcf24fa73d88529c5172dae3608a7f54306ba019871d7dc9d1b762a7cbc801d4a6001026126bb565b611f0a7f6282d864c24010098c9faa78af9667d53604b27270e8076464d926cddca0ad406001026126bb565b600360008481526020019081526020016000209150611f4b7f7b0b3f1f303d6f963c68db45ac8378423628714a593a02394760a98e7e31bbca6001026126bb565b611f777f6c88ad474b5db54374a11d0455aca5caf4639a6602bfc030b53c60b99ae793316001026126bb565b611fa37f9ecb764f8a2e559ffa58ef9e193249c2d38f47f16105149cd8cf7dad61437f566001026126bb565b611fac826136f8565b1515611fb757600080fd5b611fe37f2015bd8cf839a94d9b6262d2e9dbd7da059ab57db276b39e49a04a6f20c87b2f6001026126bb565b61200f7f531cd48cbe86e35c409b27ebcd541eda23b9a8e5d0db51b7eb6852e970ef73936001026126bb565b61203b7fc5273ee9887f8da7ee21220e2431677fd243a7b6b85d94082b11fbbebcc82e656001026126bb565b8160000160009054906101000a900473ffffffffffffffffffffffffffffffffffffffff16905061208e7f9e363f7c408c7d7c9d666eea084a27aa8b0a98e598304f96feffb5a06afac6756001026126bb565b6120ba7f15bf964398009a92c177bef06a16aac2d05d4d557c48c725467fc1bbc83854d36001026126bb565b6120e67f7c97838a19f7b45e185fc81bf568e8cc355bcc68603712b9df7def493f11ad566001026126bb565b8073ffffffffffffffffffffffffffffffffffffffff163373ffffffffffffffffffffffffffffffffffffffff1614151561212057600080fd5b61214c7f24cff2a15e5f8d7bf62f1ebf991a4d81a4f44216effc90e1a8a062d931f92cff6001026126bb565b6121787f2f6da66deeb0934b2fac2f152648618b7a98cf8421b8875e8bb43612236fe0ea6001026126bb565b6121a47f287e265e3090d8c713a4344539b51d04fbfc82cfa99403c90f20e4fb61989a6d6001026126bb565b6121ae83826137ab565b505050565b6000806121e27fa965b6600f275775ae0813a1e0e0b59d81bfda810178d36c93fa384e04872a8c6001026126bb565b61220e7ffcb83f0c826633ef1e0fdc15b81b172144c8bc8762cf5848d4c9b308a28f71116001026126bb565b61223a7ff40d8f3782c285237dafca8227b0b143df1d24f20638a01df7742b3b22d4ed946001026126bb565b60036000848152602001908152602001600020905061227b7f38839fd99aaf5483c7f8b791c166ed91cea3f543e6e9bf023b5d69afbeedc4196001026126bb565b6122a77fc9cbcc48a0765b43e21ed0162b06eca5491c84465fb16627cb66b2771d9cf36f6001026126bb565b6122d37ffa8a879b7b80504d50871abce8637b8f32edcedc950b3de508e4905ee692aa766001026126bb565b6122dc816136f8565b15156122e757600080fd5b6123137f0904ab2be551c8171719f51ad07643ccf17e69dce06b4c039dce1a0b11f07cde6001026126bb565b61233f7fa34c363998c79721fef2b6471d4430358c972626801996481de60abe1461613d6001026126bb565b61236b7fa0b22be558ce7f76359a39d53711e62ec5c828109220b2dfc10f8f308a22831b6001026126bb565b61237481613969565b915050919050565b600160009054906101000a900473ffffffffffffffffffffffffffffffffffffffff1681565b6123ce7f3af23e3c10b240c6e950d3cccf3bde20e053aa14d112d2bd98ab8c20e02f6e13600102612d9e565b6123fa7fd71f93a6e5e885fbf8a6b95b1558452a2f405b07285782b36a8c38e088be5c40600102612d9e565b6124267f70104cb81506d70bc1898d6ee645fbe2bf75e053ede2cf4b74e160ce2c58a630600102612d9e565b6124527f30286fdf59faf1ac201a29589caa2685d7069400fc8a9ac9cc71adb64868f6ed600102612d9e565b6000809054906101000a900473ffffffffffffffffffffffffffffffffffffffff1673ffffffffffffffffffffffffffffffffffffffff163373ffffffffffffffffffffffffffffffffffffffff161415156124ad57600080fd5b6124d97fc04ec288ea82711e4e6a99b105673225e355980eb2b06d007afcc414dbda29b8600102612d9e565b6125057f1acad9309e7178f3f3e3a5bbe218d30c8348ad888087bf91d422030a82a85371600102612d9e565b6125317f3da3041bee5c96395c6945509c18086e60c9be17c79655ec94bc76742468f5d4600102612d9e565b61255d7fd0cda83544c7641d84a8bac269f9281732b7bef56cc5779f4b624c89f722f80d600102612d9e565b6125897fe4326208aaecc705f810ae48bc5a15eec688dde9d59b36eaf160d8d48b5336a7600102612d9e565b600073ffffffffffffffffffffffffffffffffffffffff168173ffffffffffffffffffffffffffffffffffffffff16141515612688576125eb7f282a1d704d9f3ec62fe6726ea5bc3137d0cdf87f2c1a6859f9475a921910d65a600102612d9e565b6126177f24928a8924b02c2f0b1081816df56a3762dc80b63139e53ad52a6e170fd2fc43600102612d9e565b6126437ff1aa7d0b9e9a2eb0a08651f720d99cba79e9e019953d3e94236f86e86aec8c5e600102612d9e565b806000806101000a81548173ffffffffffffffffffffffffffffffffffffffff021916908373ffffffffffffffffffffffffffffffffffffffff1602179055506126b5565b6126b47f3354cf083f2c57306162cb88f65d37c6ec066bb9020e54e01cf36fa1337426ea600102612d9e565b5b50565b50565b50565b60006126ec7f9360b6aaae9e41133da4a81fe9a4021cb7776635aae6bec8214e3768f6c47fe6600102613c45565b6127187fbd8fbf5086c4298dceb910dff0dcd5f37422722e88a99473e5268ee4ff0a745c600102613c45565b6127447f209f38f71dd075072c9fb7428b37b9ff00c6c171c899104c3d219156fdde2de9600102613c45565b8273ffffffffffffffffffffffffffffffffffffffff16600160009054906101000a900473ffffffffffffffffffffffffffffffffffffffff1673ffffffffffffffffffffffffffffffffffffffff16636352211e846040518263ffffffff167c010000000000000000000000000000000000000000000000000000000002815260040180828152602001915050602060405180830381600087803b1580156127ec57600080fd5b505af1158015612800573d6000803e3d6000fd5b505050506040513d602081101561281657600080fd5b810190808051906020019092919050505073ffffffffffffffffffffffffffffffffffffffff1614905092915050565b6128727ff8b0885d8166ffcce17fd7b92ade3cd1cdf5fef82f41e3ce9e6635967d6352b1600102613c45565b61289e7fe007a060bf98f3d61b3df5c010ada1c7f98f878efc9caf10c388e8164e5347ec600102613c45565b6128ca7ffececef83b1329b453b9d2057baa7b0ecf209bd07a8e9d3ef6ed75f541095c68600102613c45565b600160009054906101000a900473ffffffffffffffffffffffffffffffffffffffff1673ffffffffffffffffffffffffffffffffffffffff166323b872dd8330846040518463ffffffff167c0100000000000000000000000000000000000000000000000000000000028152600401808473ffffffffffffffffffffffffffffffffffffffff1673ffffffffffffffffffffffffffffffffffffffff1681526020018373ffffffffffffffffffffffffffffffffffffffff1673ffffffffffffffffffffffffffffffffffffffff1681526020018281526020019350505050600060405180830381600087803b1580156129c357600080fd5b505af11580156129d7573d6000803e3d6000fd5b505050505050565b612a0b7fdbc62094ba1ef0723e22d47df145d9c504185f42ff8156facc71de62f3e2e305600102613c45565b612a377fb404b50fa01ced859a899788607a4caa71018c14d852785f40b5707b65384808600102613c45565b612a637fc1a727bf620a42532ba29cbb27faab168d6ce548f0c5bae8ba51be35ac4eeb08600102613c45565b612a8f7f59e2a856a876c813a7d28adc4cf6f3aa0a638742002ad4b6adde8eebb2d36a07600102613c45565b603c816060015167ffffffffffffffff1610151515612aad57600080fd5b612ad97f2858aef1fbc0c3efdf898cadded68c15a15bca7414a03ae44183ebe51351866c600102613c45565b612b057f55d4c0d6df3e92e2d0863c4b72d5ce23bc8814ab5b59b8d5f7dacee29c434447600102613c45565b612b317f6810552fb1f50cec938486ecec765c8fec441c561244a1c29daa68d6a311a689600102613c45565b806003600084815260200190815260200160002060008201518160000160006101000a81548173ffffffffffffffffffffffffffffffffffffffff021916908373ffffffffffffffffffffffffffffffffffffffff16021790555060208201518160010160006101000a8154816fffffffffffffffffffffffffffffffff02191690836fffffffffffffffffffffffffffffffff16021790555060408201518160010160106101000a8154816fffffffffffffffffffffffffffffffff02191690836fffffffffffffffffffffffffffffffff16021790555060608201518160020160006101000a81548167ffffffffffffffff021916908367ffffffffffffffff16021790555060808201518160020160086101000a81548167ffffffffffffffff021916908367ffffffffffffffff160217905550905050612c977f79b7117434ea030772fa2d4f1d9f2381aa42fa8331d277a56e6fc910d0a6ac94600102613c45565b612cc37fe0e22e5ba4c0e0d098889e0b9674d97a79310723d6cd7292cba4b3fec874291b600102613c45565b7fabdd2430f9e10eb5db384c1218c42f980dd5fcda760a680a0d95ec506f0963cb81600001518383602001516fffffffffffffffffffffffffffffffff1684604001516fffffffffffffffffffffffffffffffff16856080015167ffffffffffffffff16866060015167ffffffffffffffff16604051808773ffffffffffffffffffffffffffffffffffffffff1673ffffffffffffffffffffffffffffffffffffffff168152602001868152602001858152602001848152602001838152602001828152602001965050505050505060405180910390a15050565b50565b6000806000806000806000612dd87fa8a0bdc9ba25dc45d0ac53357911d8d22d3d6f94dd7c73b95bfdc3fbe7cf7f24600102613c45565b612e047f591d6394955449dd8427ff7132c223bc2423ac70193d05daa3ba76410b171956600102613c45565b612e307f31eda19b07d9f2949439806ff03c1870c94dabf3d8a3f6f5348c452df45e9d9e600102613c45565b600360008a81526020019081526020016000209550612e717f9340a40d714dcba2fc673bb938af0a79667805c7fe72134d40444e4d803a5346600102613c45565b612e9d7f3604cbd47cb60aae69c9e04a883c6cf1cec662cdaa5f990339202ffac9e73628600102613c45565b612ec97f4e22ed36f8c069bb49e9faa36d11c4a8e2c5636332bbf41ea2da68f21b1aa64d600102613c45565b612ed2866136f8565b1515612edd57600080fd5b612f097fc03b70d4fd2315bb1570b951e9a092dd681598d0d9c0aeea1e2503eb8a6392a2600102613c45565b612f357f61d3a56de6fa7f0c252b4c8f4f4abcb148305455f16d25ba0289dc822bf6c284600102613c45565b612f617f6e14646facb5dc8985094905e1daee573ca8085b47ec759f52ae53cc94fa84ad600102613c45565b612f6a86613969565b9450612f987f05058c448d923b955c60123845901d2f20682b949d7da65fef6250b866e79a32600102613c45565b612fc47f8df0d7eb19790c949c6d53ac1447fa5398f4e16bb6617bd7121dc9a886b1f938600102613c45565b612ff07f8d1ea7a73959d984d4176b1c8c500d290cd8b54a5698f18e104bd475abe360e8600102613c45565b848810151515612fff57600080fd5b61302b7fae8037ffe3bd58da40524937a98403d01fb59ab25dd5486b47b4269322c46616600102613c45565b6130577f343ec7f1de6268152f343350866e77009676d6ba90d4160a94a0f5fc61f866a5600102613c45565b6130837fdb31a7c14a650dfef2a37772e3528df962c81888bfbae35eb3a1c2e55b6411db600102613c45565b8560000160009054906101000a900473ffffffffffffffffffffffffffffffffffffffff1693506130d67f8466ac37d3ad03a9d8abe14368e8c75673e5309769e54d3e40ed4a4dd65e2ae2600102613c45565b6131027f0e41aa8fce31aecf08b3879eee1ae0a2f32a3fe34707b9a04ad2f1fd60402250600102613c45565b61310b89613c48565b6131377f908f4fbe1c1bf53cf5467872f6ae12611f98679f42bee83cd703b10e2f0e5aea600102613c45565b6131637f5a3a5cae046d8f1d61b659373d0a386fdfd869722703854f2c18ff2e22d9b68a600102613c45565b60008511156132fc576131987f056fba43f5d8f2e85bff6a8bcf39e00ed2f8fadecdeb28a188363921cf996f07600102613c45565b6131c47f70429298c83ab3d38fc7bf580649fa83bdbe9e5f94f30f2f89e6c8943db72f0f600102613c45565b6131f07f7c19aec90ebd83069f0d6161452b83bb19f7b0894843eb22c7add68f20d0b2ee600102613c45565b6131f985613d5c565b92506132277fa46ec0b7ac46aab767eed72f7e6b5f07be4b7838e5c95e6622256132a258d6a2600102613c45565b6132537fb68bbc2f543c706e1dd1bfad956f7a76cf81374651f3ddb13145243f91380fce600102613c45565b82850391506132847f8a0ae4f38cc22666bfce83d518b660576fe83ba2c09b5e42d149e55856cb9ad6600102613c45565b6132b07f2879c4e4790e5111f823fde38ac1b707bec6fa28ef415154b8459f93a700ae6e600102613c45565b8373ffffffffffffffffffffffffffffffffffffffff166108fc839081150290604051600060405180830381858888f193505050501580156132f6573d6000803e3d6000fd5b50613329565b6133287f5324c09af256d86dba5a01ba9753d3a892a8fc8211e78e414907b68beedb4357600102613c45565b5b6133557fef0a922340a44eda5ba65fb5f677f5c6d1db64fff4b7d19101db4debc815a981600102613c45565b6133817f9d26c2b45ad5e0ee76cdda980aefd38b160afb0f0cd0f2c71c598553fb6e6f47600102613c45565b84880390506133b27f5078b4b6a87e61352882f3c83b969c3178c0648d6b05d19637804098a06781cd600102613c45565b6133de7fd2cc6552d5f93f317c148a0d708e4627ed75174e064722f832ce9707a63da6eb600102613c45565b3373ffffffffffffffffffffffffffffffffffffffff166108fc829081150290604051600060405180830381858888f19350505050158015613424573d6000803e3d6000fd5b506134517fc575ea812a4dec6b0264d1a60c86082348135292e0366737aa4ddc6cc6c41e15600102613c45565b61347d7f7cc1eaadc7143172196145cb8c8757f0a1216610dc3a0c15dc5ea2ee6eff5da5600102613c45565b7fc2a394cb356728b3540b84dee72ea6de41f44fd94de223565258efe1549ee06f8986863342604051808681526020018581526020018473ffffffffffffffffffffffffffffffffffffffff1673ffffffffffffffffffffffffffffffffffffffff1681526020018373ffffffffffffffffffffffffffffffffffffffff1673ffffffffffffffffffffffffffffffffffffffff1681526020018281526020019550505050505060405180910390a16135587f4f56af37a327bbee363ab46c43f54ceddc8eb392e03aff07fd4265f8e10876ab600102613c45565b6135847f608b48106628570506333bf2cdb03c339ae2f2c4ed68667048339303e6d7ad05600102613c45565b84965050505050505092915050565b6135bf7f8c729022d5edadf62403d44ca4eb2603b62cb436803881f23fad86990cfc00a8600102613c45565b6135eb7f03cbf1e9d5c1a1c12f267cc19b94f4f1c5ef452e14d63ebba968304580ab7b82600102613c45565b6136177fe213ed01c45166ecd91bffcba0b753a5516cbb29b53be13e114cf6afa47ad93a600102613c45565b600160009054906101000a900473ffffffffffffffffffffffffffffffffffffffff1673ffffffffffffffffffffffffffffffffffffffff1663a9059cbb83836040518363ffffffff167c0100000000000000000000000000000000000000000000000000000000028152600401808373ffffffffffffffffffffffffffffffffffffffff1673ffffffffffffffffffffffffffffffffffffffff16815260200182815260200192505050600060405180830381600087803b1580156136dc57600080fd5b505af11580156136f0573d6000803e3d6000fd5b505050505050565b60006137267f6cadd72e4e54158d469d0a9d385f8733f6c3f5c65f3c5f042b8ee9db9856d3ee600102613c45565b6137527fcf0c8e9240fc16cdbef73a63b0c784b30795ab79558f757d45418797911237a6600102613c45565b61377e7f9eae081e84a9be77309cc3b320c47d2a43e79991dc10e6294310d7a4aee9e2fa600102613c45565b60008260020160089054906101000a900467ffffffffffffffff1667ffffffffffffffff16119050919050565b6137d77f1533a5573e0695e409b4918028a8a6336fee829f4e3791724bdefbede2606e0e600102613c45565b6138037f311820e553f8b376cd83e53c5541e36cafc950808c08ea6da486bacc297c1ebe600102613c45565b61382f7ff3d8ac2f1acfd3cb73dfdcbb98365b101c2f85d07f853594f1beb655ee0aca12600102613c45565b61383882613c48565b6138647f6f4517ed56a64aa00163865e1009f4b5ab08d340d47830a5c04adc9801936529600102613c45565b6138907f3ec9a111154b2bfe16bf6deb7cf9e6686deb34019bccd679a435de0dbf0811ea600102613c45565b61389a8183613593565b6138c67fee4db020004925ba669ef36621f68acaebfe06a6f2c1cbb9823f136a9608c80a600102613c45565b6138f27fad8f7ba9c40608e0f2878033e46de55bb8114ed532753e0fd11fead3f3b0df2e600102613c45565b7f6a3d5a07d548e27ae884a742682e9b929c0a0e4040990bc28c04637c5c077104828242604051808481526020018373ffffffffffffffffffffffffffffffffffffffff1673ffffffffffffffffffffffffffffffffffffffff168152602001828152602001935050505060405180910390a15050565b6000806139987f77a0264a83574523c26b6f44fc80f4f50615571f08ce4c370a380e971ed73a19600102613c45565b6139c47f5525b4ba0cc75e0cf9b6e66987d860c0a7a3e23560137a7c2dc47286d55ad268600102613c45565b6139f07f83e52570082786d592ed21e8f5d2958000db5d8e43a2fbbc3af855b7279023c2600102613c45565b60009050613a207fc0071c49cbcd5d7fa91cc839704f83d5eb2f2b3068c35de36a5fcc7c47b90898600102613c45565b613a4c7fe6d8fd964cfbc7d59f9a681bf5850b357a2a583213f9aefa0627f75a3efb49a7600102613c45565b8260020160089054906101000a900467ffffffffffffffff1667ffffffffffffffff16421115613b2657613aa27f05812439daba1737f3a6892a88bd1661f233d3c70667cbd3d2620d90161e6ff4600102613c45565b613ace7f4d0c1fb85e39d26683154737f03e527d1dc47f3f9db1a6ebd7749479ea3bfa65600102613c45565b613afa7f160ff84389cd6a60e31a57ba42ac27063e8a27c1e05c7a4997188076d438f83b600102613c45565b8260020160089054906101000a900467ffffffffffffffff1667ffffffffffffffff1642039050613b53565b613b527fdfcaa0917136e601ff73cd2fbcffe8337483fc618d497574915b0bf84142c11f600102613c45565b5b613b7f7f4998c8aaba6d2f5935db2374dab039dcb9020ad8976e4e7e67f0336f5ec03714600102613c45565b613bab7ffbec789e371c8bf3767cfdcbbd0de7142c438b7b5dd9728b3a2bdfb4f0de313e600102613c45565b613c3d8360010160009054906101000a90046fffffffffffffffffffffffffffffffff166fffffffffffffffffffffffffffffffff168460010160109054906101000a90046fffffffffffffffffffffffffffffffff166fffffffffffffffffffffffffffffffff168560020160009054906101000a900467ffffffffffffffff1667ffffffffffffffff1684613dfb565b915050919050565b50565b613c747f6d67a2bb66ecdee13fff36ca8a7e5556e561fc39ca5a608a2747452e08f910f9600102613c45565b613ca07faa2225c45f35dc911b6ade5a9a188f0d11c6d713b62bdbc0698ee05432a6a0f8600102613c45565b60036000828152602001908152602001600020600080820160006101000a81549073ffffffffffffffffffffffffffffffffffffffff02191690556001820160006101000a8154906fffffffffffffffffffffffffffffffff02191690556001820160106101000a8154906fffffffffffffffffffffffffffffffff02191690556002820160006101000a81549067ffffffffffffffff02191690556002820160086101000a81549067ffffffffffffffff0219169055505050565b6000613d8a7f42c352bc07e9d182a1889447e5eba95e320c801420c01a93aa88a92d9bb47307600102613c45565b613db67f49955a8bcf3044a8a3787525f3f5bbce99c2dd1dcf971d04d5d5b68dfc6e9ede600102613c45565b613de27f929a6e4ae75123b2008d132251932640e2db1a5b9947bc8a73b537784799ffbd600102613c45565b6127106002548302811515613df357fe5b049050919050565b600080600080613e2d7ffe3be9cb39ab4e4ddb0969665fde90bdc74bdfec348d1d5861b599f5d81e5419600102613c45565b613e597f044c767a25812e6af82df1627cee6412854bdb37cb020050dbe78d2bbc9b4b60600102613c45565b613e857fa35d3581ad6c92b0961ed54dbcd22706e9491fb470e37f8eacd12926a66acf40600102613c45565b8585101515613f1a57613eba7ff59fb3dece579282404df794f0a69ee13efa0421e05ff228532221b95757514b600102613c45565b613ee67fb1f267194a0cdf7a145b96bf106a51e985fbd99d60c77412c0d8b6b5d64db401600102613c45565b613f127ff55de78ea6af20abfa016ebf0293bcb4d718d925f1db2b249791a92769ceaa21600102613c45565b8693506140c4565b613f467f309bef6a89fa4e9c2d4d6daf7f0656db8e7fb89922c9ecca28484bc510861b38600102613c45565b613f727fdf999d9f067541622c65a61d5ebe6e5cacd181d4d99000e6ba167f380bdfd3d1600102613c45565b613f9e7ff9ca719a084bb7bb23a8545e1340bd9aeb1a054f20b6f9ba31c8357e26b75cbd600102613c45565b8787039250613fcf7f19057dce4d7369d1ad297ad10c8c99c87350b12de1300d50077a8bcb9e82f242600102613c45565b613ffb7f29ea8871c9f02e2034580826544522453652dd7b5f92374ae086cf3bd6a23ff0600102613c45565b8585840281151561400857fe5b0591506140377f29b5ef8cceb6a010a76e4c180e40e373b30b3c804c7c9d6d1f06bdd788068bff600102613c45565b6140637f1c8b0630a41448f374e9a6c5a9c540489e20750f68b02256e99f13d7faeb3092600102613c45565b81880190506140947f583cdb4678fb2cbbe1e7d3870833b2743d93809fe1f22d2294a8843596cc4833600102613c45565b6140c07f60254bb059b068a6f27d7362c474c382facb09c2fff980d0d776b8be82a7a4e8600102613c45565b8093505b505050949350505050565b60a060405190810160405280600073ffffffffffffffffffffffffffffffffffffffff16815260200160006fffffffffffffffffffffffffffffffff16815260200160006fffffffffffffffffffffffffffffffff168152602001600067ffffffffffffffff168152602001600067ffffffffffffffff16815250905600a165627a7a7230582055ba23e6c9f03705090eae614373f81c01de8db82a745d5b20206f866f7444a50029",
  "linkReferences": {},
  "deployedLinkReferences": {}
}