{
  "_format": "hh-sol-artifact-1",
  "contractName": "Pausable",
  "sourceName": "contracts/BotCore.sol",
  "abi": [
    {
      "constant": false,
      "inputs": [],
      "name": "unpause",
      "outputs": [
        {
          "name": "",
          "type": "bool"
        }
      ],
      "payable": false,
      "stateMutability": "nonpayable",
      "type": "function"
    },
    {
      "constant": true,
      "inputs": [],
      "name": "paused",
      "outputs": [
        {
          "name": "",
          "type": "bool"
        }
      ],
      "payable": false,
      "stateMutability": "view",
      "type": "function"
    },
    {
      "constant": false,
      "inputs": [],
      "name": "pause",
      "outputs": [
        {
          "name": "",
          "type": "bool"
        }
      ],
      "payable": false,
      "stateMutability": "nonpayable",
      "type": "function"
    },
    {
      "constant": true,
      "inputs": [],
      "name": "owner",
      "outputs": [
        {
          "name": "",
          "type": "address"
        }
      ],
      "payable": false,
      "stateMutability": "view",
      "type": "function"
    },
    {
      "constant": false,
      "inputs": [
        {
          "name": "newOwner",
          "type": "address"
        }
      ],
      "name": "transferOwnership",
      "outputs": [],
      "payable": false,
      "stateMutability": "nonpayable",
      "type": "function"
    },
    {
      "anonymous": false,
      "inputs": [],
      "name": "Pause",
      "type": "event"
    },
    {
      "anonymous": false,
      "inputs": [],
      "name": "Unpause",
      "type": "event"
    }
  ],
  "bytecode": "0x608060405260008060146101000a81548160ff0219169083151502179055506100597f1c7c81618d485a82a0eb836daf1d7932e252ea257d6abf0727169125ec0685d5600102610114640100000000026401000000009004565b6100947f310da8f2d16de3dca4307cb51d39c6f82419dc11c783d45ee9e0c07979b207f9600102610114640100000000026401000000009004565b6100cf7f317f2b584da14ed23829134c3bac9977fd09a004ef066188bd9a44a50f9253cb600102610114640100000000026401000000009004565b336000806101000a81548173ffffffffffffffffffffffffffffffffffffffff021916908373ffffffffffffffffffffffffffffffffffffffff160217905550610117565b50565b610d2d806101266000396000f30060806040526004361061006d576000357c0100000000000000000000000000000000000000000000000000000000900463ffffffff1680633f4ba83a146100725780635c975abb146100a15780638456cb59146100d05780638da5cb5b146100ff578063f2fde38b14610156575b600080fd5b34801561007e57600080fd5b50610087610199565b604051808215151515815260200191505060405180910390f35b3480156100ad57600080fd5b506100b66105a2565b604051808215151515815260200191505060405180910390f35b3480156100dc57600080fd5b506100e56105b5565b604051808215151515815260200191505060405180910390f35b34801561010b57600080fd5b506101146109c0565b604051808273ffffffffffffffffffffffffffffffffffffffff1673ffffffffffffffffffffffffffffffffffffffff16815260200191505060405180910390f35b34801561016257600080fd5b50610197600480360381019080803573ffffffffffffffffffffffffffffffffffffffff1690602001909291905050506109e5565b005b60006101c77f3af23e3c10b240c6e950d3cccf3bde20e053aa14d112d2bd98ab8c20e02f6e13600102610cfb565b6101f37fd71f93a6e5e885fbf8a6b95b1558452a2f405b07285782b36a8c38e088be5c40600102610cfb565b61021f7f70104cb81506d70bc1898d6ee645fbe2bf75e053ede2cf4b74e160ce2c58a630600102610cfb565b61024b7f30286fdf59faf1ac201a29589caa2685d7069400fc8a9ac9cc71adb64868f6ed600102610cfb565b6000809054906101000a900473ffffffffffffffffffffffffffffffffffffffff1673ffffffffffffffffffffffffffffffffffffffff163373ffffffffffffffffffffffffffffffffffffffff161415156102a657600080fd5b6102d27fc04ec288ea82711e4e6a99b105673225e355980eb2b06d007afcc414dbda29b8600102610cfb565b6102fe7f1acad9309e7178f3f3e3a5bbe218d30c8348ad888087bf91d422030a82a85371600102610cfb565b61032a7f6f426389066b9bfcb1aff3d7f93983488ac972b4cc625f427e3b03397610d8b9600102610cfe565b6103567ff79b4446a72ccd95c0b7a56b1ba6f16b05f4e60b564e5ebb56db3deff18b1eec600102610cfe565b6103827ff675a56cd6a5976d177a9acf8e426c674401ae7d8bcc40e9ea9c5ec13e6ff38a600102610cfe565b6103ae7fed366b4a6b96d852b5d27ad4d90172dd8db199312652f736a43557bc0ac16a49600102610cfe565b600060149054906101000a900460ff1615156103c957600080fd5b6103f57f781701e834097f78cc6122aba9ca17ef67cdcc8ed4a909a4d7ae1ca293725d62600102610cfe565b6104217fed95f215ba75b75ba8d71b6daa903bc793758b871e544f172fc0caa2ac01ffd8600102610cfe565b61044d7f0168bbbd3e1789ec7a49c882d0c4dcf8bb0679ebe1674db15e8dd425ba09f9eb600102610cfe565b6104797f39566854fca5f38e7ed5d353e110def3bb8b327e668443a915dbd2574f338334600102610cfe565b6104a57f178f47d7700d30b1a9c4f53ea5905ecbfc650604844311967caea4afa77f10cc600102610cfe565b60008060146101000a81548160ff0219169083151502179055506104eb7fee76f799fabd2800a49ea54093b79abe56d498ab802dee534d1add586bab8b76600102610cfe565b6105177f162692e779983efdeb32bcee6b0b6a22e1c389b555b77c61dc12d7f8523ce24e600102610cfe565b7f7805862f689e2f13df9f062ff482ad3ad112aca9e0847911ed832e158c525b3360405160405180910390a161056f7f7e32acd99e8bb91875a8795d10f9eca838b4b8070486a8ea52d6e5688368412c600102610cfe565b61059b7f2c0b62f3750beb2a32800fc152535b2aae7174e0cba2aa608e60aca99a689c69600102610cfe565b6001905090565b600060149054906101000a900460ff1681565b60006105e37f3af23e3c10b240c6e950d3cccf3bde20e053aa14d112d2bd98ab8c20e02f6e13600102610cfb565b61060f7fd71f93a6e5e885fbf8a6b95b1558452a2f405b07285782b36a8c38e088be5c40600102610cfb565b61063b7f70104cb81506d70bc1898d6ee645fbe2bf75e053ede2cf4b74e160ce2c58a630600102610cfb565b6106677f30286fdf59faf1ac201a29589caa2685d7069400fc8a9ac9cc71adb64868f6ed600102610cfb565b6000809054906101000a900473ffffffffffffffffffffffffffffffffffffffff1673ffffffffffffffffffffffffffffffffffffffff163373ffffffffffffffffffffffffffffffffffffffff161415156106c257600080fd5b6106ee7fc04ec288ea82711e4e6a99b105673225e355980eb2b06d007afcc414dbda29b8600102610cfb565b61071a7f1acad9309e7178f3f3e3a5bbe218d30c8348ad888087bf91d422030a82a85371600102610cfb565b6107467fbe58eebb92eb883773e29b7762ec4934b6ea7a02e32781ce65b2618dd7cc15a3600102610cfe565b6107727f2d19d859830746fe55b6b40ed45709585922e9464b96259cd1792cb99bce49c9600102610cfe565b61079e7fc55d784e4ee7927ddddd424ac23ba7d722e078290cf70ba66cf978c9d9c9ccae600102610cfe565b6107ca7fd4ceb1e409ca88a3c9c3e455853ddc5156589bbd45c3cf64700915b67a2e9156600102610cfe565b600060149054906101000a900460ff161515156107e657600080fd5b6108127f56096fba84bb591301d35380713828d102bd55f1e32b801fbfc60adffa98eeea600102610cfe565b61083e7f9860ccde9c00f67c72d4cd658a3e86188d504fbb1ee2946961eca701acfb98c2600102610cfe565b61086a7fedf587d938915592678647808f0b9f7903b8a9c79cedf06e6bb4b875c7950769600102610cfe565b6108967f4c2acfb0103e7545fc4526d049e77f76743ac4978f4c40fcadb8d0b483732b90600102610cfe565b6108c27f3da88813166c08be0b70d2da3b419e2e0dd46cbe6ca1a417c8982344e0e1144b600102610cfe565b6001600060146101000a81548160ff0219169083151502179055506109097f4a021c48cc3cd84afb1a60032a0cb39e3ca37eee5f9001682df1fab0ae537961600102610cfe565b6109357fb9148225311cf489f9ba3758785528e6c743bbfb94ab44df3a3d2f935c901c5c600102610cfe565b7f6985a02210a168e66602d3235cb6db0e70f92b3ba4d376a33c0f3d9434bff62560405160405180910390a161098d7fd48053f45cecab97da2e90044886327da4e6241ad49ee8dbc69df6eecca10055600102610cfe565b6109b97f25e79472825041fbaa144fb89f6ca3e91d44a39344d12bfb64b4f23bff3c472a600102610cfe565b6001905090565b6000809054906101000a900473ffffffffffffffffffffffffffffffffffffffff1681565b610a117f3af23e3c10b240c6e950d3cccf3bde20e053aa14d112d2bd98ab8c20e02f6e13600102610cfb565b610a3d7fd71f93a6e5e885fbf8a6b95b1558452a2f405b07285782b36a8c38e088be5c40600102610cfb565b610a697f70104cb81506d70bc1898d6ee645fbe2bf75e053ede2cf4b74e160ce2c58a630600102610cfb565b610a957f30286fdf59faf1ac201a29589caa2685d7069400fc8a9ac9cc71adb64868f6ed600102610cfb565b6000809054906101000a900473ffffffffffffffffffffffffffffffffffffffff1673ffffffffffffffffffffffffffffffffffffffff163373ffffffffffffffffffffffffffffffffffffffff16141515610af057600080fd5b610b1c7fc04ec288ea82711e4e6a99b105673225e355980eb2b06d007afcc414dbda29b8600102610cfb565b610b487f1acad9309e7178f3f3e3a5bbe218d30c8348ad888087bf91d422030a82a85371600102610cfb565b610b747f3da3041bee5c96395c6945509c18086e60c9be17c79655ec94bc76742468f5d4600102610cfb565b610ba07fd0cda83544c7641d84a8bac269f9281732b7bef56cc5779f4b624c89f722f80d600102610cfb565b610bcc7fe4326208aaecc705f810ae48bc5a15eec688dde9d59b36eaf160d8d48b5336a7600102610cfb565b600073ffffffffffffffffffffffffffffffffffffffff168173ffffffffffffffffffffffffffffffffffffffff16141515610ccb57610c2e7f282a1d704d9f3ec62fe6726ea5bc3137d0cdf87f2c1a6859f9475a921910d65a600102610cfb565b610c5a7f24928a8924b02c2f0b1081816df56a3762dc80b63139e53ad52a6e170fd2fc43600102610cfb565b610c867ff1aa7d0b9e9a2eb0a08651f720d99cba79e9e019953d3e94236f86e86aec8c5e600102610cfb565b806000806101000a81548173ffffffffffffffffffffffffffffffffffffffff021916908373ffffffffffffffffffffffffffffffffffffffff160217905550610cf8565b610cf77f3354cf083f2c57306162cb88f65d37c6ec066bb9020e54e01cf36fa1337426ea600102610cfb565b5b50565b50565b505600a165627a7a72305820769fbdcdd5b54823155d6835c7011a47b026e5d9d9bac1cec1d25682eff43a520029",
  "linkReferences": {},
  "deployedLinkReferences": {}
}