{
  "_format": "hh-sol-artifact-1",
  "contractName": "SaleClockAuction",
  "sourceName": "contracts/BotCore.sol",
  "abi": [
    {
      "constant": false,
      "inputs": [
        {
          "name": "_tokenId",
          "type": "uint256"
        },
        {
          "name": "_startingPrice",
          "type": "uint256"
        },
        {
          "name": "_endingPrice",
          "type": "uint256"
        },
        {
          "name": "_duration",
          "type": "uint256"
        },
        {
          "name": "_seller",
          "type": "address"
        }
      ],
      "name": "createAuction",
      "outputs": [],
      "payable": false,
      "stateMutability": "nonpayable",
      "type": "function"
    },
    {
      "constant": false,
      "inputs": [],
      "name": "unpause",
      "outputs": [
        {
          "name": "",
          "type": "bool"
        }
      ],
      "payable": false,
      "stateMutability": "nonpayable",
      "type": "function"
    },
    {
      "constant": false,
      "inputs": [
        {
          "name": "_tokenId",
          "type": "uint256"
        }
      ],
      "name": "bid",
      "outputs": [],
      "payable": true,
      "stateMutability": "payable",
      "type": "function"
    },
    {
      "constant": true,
      "inputs": [
        {
          "name": "",
          "type": "uint256"
        }
      ],
      "name": "lastGen0SalePrices",
      "outputs": [
        {
          "name": "",
          "type": "uint256"
        }
      ],
      "payable": false,
      "stateMutability": "view",
      "type": "function"
    },
    {
      "constant": true,
      "inputs": [],
      "name": "paused",
      "outputs": [
        {
          "name": "",
          "type": "bool"
        }
      ],
      "payable": false,
      "stateMutability": "view",
      "type": "function"
    },
    {
      "constant": false,
      "inputs": [],
      "name": "withdrawBalance",
      "outputs": [],
      "payable": false,
      "stateMutability": "nonpayable",
      "type": "function"
    },
    {
      "constant": true,
      "inputs": [
        {
          "name": "_tokenId",
          "type": "uint256"
        }
      ],
      "name": "getAuction",
      "outputs": [
        {
          "name": "seller",
          "type": "address"
        },
        {
          "name": "startingPrice",
          "type": "uint256"
        },
        {
          "name": "endingPrice",
          "type": "uint256"
        },
        {
          "name": "duration",
          "type": "uint256"
        },
        {
          "name": "startedAt",
          "type": "uint256"
        }
      ],
      "payable": false,
      "stateMutability": "view",
      "type": "function"
    },
    {
      "constant": true,
      "inputs": [],
      "name": "ownerCut",
      "outputs": [
        {
          "name": "",
          "type": "uint256"
        }
      ],
      "payable": false,
      "stateMutability": "view",
      "type": "function"
    },
    {
      "constant": false,
      "inputs": [],
      "name": "pause",
      "outputs": [
        {
          "name": "",
          "type": "bool"
        }
      ],
      "payable": false,
      "stateMutability": "nonpayable",
      "type": "function"
    },
    {
      "constant": true,
      "inputs": [],
      "name": "isSaleClockAuction",
      "outputs": [
        {
          "name": "",
          "type": "bool"
        }
      ],
      "payable": false,
      "stateMutability": "view",
      "type": "function"
    },
    {
      "constant": false,
      "inputs": [
        {
          "name": "_tokenId",
          "type": "uint256"
        }
      ],
      "name": "cancelAuctionWhenPaused",
      "outputs": [],
      "payable": false,
      "stateMutability": "nonpayable",
      "type": "function"
    },
    {
      "constant": true,
      "inputs": [],
      "name": "gen0SaleCount",
      "outputs": [
        {
          "name": "",
          "type": "uint256"
        }
      ],
      "payable": false,
      "stateMutability": "view",
      "type": "function"
    },
    {
      "constant": true,
      "inputs": [],
      "name": "owner",
      "outputs": [
        {
          "name": "",
          "type": "address"
        }
      ],
      "payable": false,
      "stateMutability": "view",
      "type": "function"
    },
    {
      "constant": false,
      "inputs": [
        {
          "name": "_tokenId",
          "type": "uint256"
        }
      ],
      "name": "cancelAuction",
      "outputs": [],
      "payable": false,
      "stateMutability": "nonpayable",
      "type": "function"
    },
    {
      "constant": true,
      "inputs": [
        {
          "name": "_tokenId",
          "type": "uint256"
        }
      ],
      "name": "getCurrentPrice",
      "outputs": [
        {
          "name": "",
          "type": "uint256"
        }
      ],
      "payable": false,
      "stateMutability": "view",
      "type": "function"
    },
    {
      "constant": true,
      "inputs": [],
      "name": "nonFungibleContract",
      "outputs": [
        {
          "name": "",
          "type": "address"
        }
      ],
      "payable": false,
      "stateMutability": "view",
      "type": "function"
    },
    {
      "constant": true,
      "inputs": [],
      "name": "averageGen0SalePrice",
      "outputs": [
        {
          "name": "",
          "type": "uint256"
        }
      ],
      "payable": false,
      "stateMutability": "view",
      "type": "function"
    },
    {
      "constant": false,
      "inputs": [
        {
          "name": "newOwner",
          "type": "address"
        }
      ],
      "name": "transferOwnership",
      "outputs": [],
      "payable": false,
      "stateMutability": "nonpayable",
      "type": "function"
    },
    {
      "inputs": [
        {
          "name": "_nftAddr",
          "type": "address"
        },
        {
          "name": "_cut",
          "type": "uint256"
        }
      ],
      "payable": false,
      "stateMutability": "nonpayable",
      "type": "constructor"
    },
    {
      "anonymous": false,
      "inputs": [
        {
          "indexed": false,
          "name": "seller",
          "type": "address"
        },
        {
          "indexed": false,
          "name": "tokenId",
          "type": "uint256"
        },
        {
          "indexed": false,
          "name": "startingPrice",
          "type": "uint256"
        },
        {
          "indexed": false,
          "name": "endingPrice",
          "type": "uint256"
        },
        {
          "indexed": false,
          "name": "creationTime",
          "type": "uint256"
        },
        {
          "indexed": false,
          "name": "duration",
          "type": "uint256"
        }
      ],
      "name": "AuctionCreated",
      "type": "event"
    },
    {
      "anonymous": false,
      "inputs": [
        {
          "indexed": false,
          "name": "tokenId",
          "type": "uint256"
        },
        {
          "indexed": false,
          "name": "totalPrice",
          "type": "uint256"
        },
        {
          "indexed": false,
          "name": "seller",
          "type": "address"
        },
        {
          "indexed": false,
          "name": "winner",
          "type": "address"
        },
        {
          "indexed": false,
          "name": "time",
          "type": "uint256"
        }
      ],
      "name": "AuctionSuccessful",
      "type": "event"
    },
    {
      "anonymous": false,
      "inputs": [
        {
          "indexed": false,
          "name": "tokenId",
          "type": "uint256"
        },
        {
          "indexed": false,
          "name": "seller",
          "type": "address"
        },
        {
          "indexed": false,
          "name": "time",
          "type": "uint256"
        }
      ],
      "name": "AuctionCancelled",
      "type": "event"
    },
    {
      "anonymous": false,
      "inputs": [],
      "name": "Pause",
      "type": "event"
    },
    {
      "anonymous": false,
      "inputs": [],
      "name": "Unpause",
      "type": "event"
    }
  ],
  "bytecode": "0x608060405260008060146101000a81548160ff0219169083151502179055506001600460006101000a81548160ff0219169083151502179055503480156200004657600080fd5b5060405160408062004819833981018060405281019080805190602001909291908051906020019092919050505081816000620000b57f1c7c81618d485a82a0eb836daf1d7932e252ea257d6abf0727169125ec0685d5600102620004b3640100000000026401000000009004565b620000f27f310da8f2d16de3dca4307cb51d39c6f82419dc11c783d45ee9e0c07979b207f9600102620004b3640100000000026401000000009004565b6200012f7f317f2b584da14ed23829134c3bac9977fd09a004ef066188bd9a44a50f9253cb600102620004b3640100000000026401000000009004565b336000806101000a81548173ffffffffffffffffffffffffffffffffffffffff021916908373ffffffffffffffffffffffffffffffffffffffff160217905550620001ac7fb52068bfec1f5e5678a9c9b73e3387ebabb35f5efd338cdc13e966c745646d66600102620004b6640100000000026401000000009004565b620001e97fc11ade2fa01c2cde45c89f3656f76144ced3b7c796462340e2a62f9cc9239ad4600102620004b6640100000000026401000000009004565b620002267f12c4a9606d9299c98f4f3757d0ad62443f3f4c88860a337df7a6601fdeb59de4600102620004b6640100000000026401000000009004565b620002637f146141a554d41c32539cdddb0fad4b3afc8bda9ff735fdd999e9eda5dc50c460600102620004b6640100000000026401000000009004565b61271082111515156200027557600080fd5b620002b27f47aa7164b9bbe2f57458ee0113b5b563553b6f257026cf10218cd3f477b93312600102620004b6640100000000026401000000009004565b620002ef7fd9e6739eb215613f3de6151c279488d03871e1f9e0b0d194419ad2507588d84e600102620004b6640100000000026401000000009004565b6200032c7fe45f174a6db6752a741a82127a625bb405716905e29c0c1713c47bb505165f49600102620004b6640100000000026401000000009004565b81600281905550620003707faf8cefa9d2d433877d7dd777aca3360feeb8a0411dd73bcaad51c067c5d06d92600102620004b6640100000000026401000000009004565b620003ad7fd1bb9073ecb6bc43f4d3ce822b28f22b751db36e6594ce552360fef31996ee19600102620004b6640100000000026401000000009004565b829050620003ed7f510667022e2a6b7bff6cd0049d5c2aea55fe468487da8bd475d8c00237419acf600102620004b6640100000000026401000000009004565b6200042a7f48409cfb6ef7822c1168e235cec8c03de12358084af1da9ccc1c35ca0dcd4404600102620004b6640100000000026401000000009004565b80600160006101000a81548173ffffffffffffffffffffffffffffffffffffffff021916908373ffffffffffffffffffffffffffffffffffffffff160217905550505050620004ab7f045b1f83e2061993ee49fb6a2a99619cac57523fa06b1c2a6bd6d50bb870aa13600102620004b9640100000000026401000000009004565b5050620004bc565b50565b50565b50565b61434d80620004cc6000396000f3006080604052600436106100fc576000357c0100000000000000000000000000000000000000000000000000000000900463ffffffff16806327ebe40a146101015780633f4ba83a1461016c578063454a2ab31461019b578063484eccb4146101bb5780635c975abb146101fc5780635fd8c7101461022b57806378bd79351461024257806383b5ff8b146102cb5780638456cb59146102f657806385b8618814610325578063878eb368146103545780638a98a9cc146103815780638da5cb5b146103ac57806396b5a75514610403578063c55d0f5614610430578063dd1b7a0f14610471578063eac9d94c146104c8578063f2fde38b146104f3575b600080fd5b34801561010d57600080fd5b5061016a60048036038101908080359060200190929190803590602001909291908035906020019092919080359060200190929190803573ffffffffffffffffffffffffffffffffffffffff169060200190929190505050610536565b005b34801561017857600080fd5b50610181610a7a565b604051808215151515815260200191505060405180910390f35b6101b960048036038101908080359060200190929190505050610e83565b005b3480156101c757600080fd5b506101e6600480360381019080803590602001909291905050506111d2565b6040518082815260200191505060405180910390f35b34801561020857600080fd5b506102116111ec565b604051808215151515815260200191505060405180910390f35b34801561023757600080fd5b506102406111ff565b005b34801561024e57600080fd5b5061026d60048036038101908080359060200190929190505050611496565b604051808673ffffffffffffffffffffffffffffffffffffffff1673ffffffffffffffffffffffffffffffffffffffff1681526020018581526020018481526020018381526020018281526020019550505050505060405180910390f35b3480156102d757600080fd5b506102e0611745565b6040518082815260200191505060405180910390f35b34801561030257600080fd5b5061030b61174b565b604051808215151515815260200191505060405180910390f35b34801561033157600080fd5b5061033a611b56565b604051808215151515815260200191505060405180910390f35b34801561036057600080fd5b5061037f60048036038101908080359060200190929190505050611b69565b005b34801561038d57600080fd5b50610396611fd8565b6040518082815260200191505060405180910390f35b3480156103b857600080fd5b506103c1611fde565b604051808273ffffffffffffffffffffffffffffffffffffffff1673ffffffffffffffffffffffffffffffffffffffff16815260200191505060405180910390f35b34801561040f57600080fd5b5061042e60048036038101908080359060200190929190505050612003565b005b34801561043c57600080fd5b5061045b60048036038101908080359060200190929190505050612333565b6040518082815260200191505060405180910390f35b34801561047d57600080fd5b506104866124fc565b604051808273ffffffffffffffffffffffffffffffffffffffff1673ffffffffffffffffffffffffffffffffffffffff16815260200191505060405180910390f35b3480156104d457600080fd5b506104dd612522565b6040518082815260200191505060405180910390f35b3480156104ff57600080fd5b50610534600480360381019080803573ffffffffffffffffffffffffffffffffffffffff1690602001909291905050506126fb565b005b61053e6142a3565b61056a7fecd129ac3d455ec11c9bf15fcc14f0f1f5a9f8022532d91a57f95f4beb28ffad600102612a11565b6105967f9e40c385a8bd5be294367bff2cb97a7cf06c55bcbcc5112f0bee57a744a58eab600102612a11565b6105c27f7316c356d274347824ca4aa1b63e1abf4bbbe5fe656bb78442cc42471e746d38600102612a11565b6105ee7f40b976a2bf53be6c267ca728e8c7797cd39fcddb5d436ea68ff52fa25104bd22600102612a11565b846fffffffffffffffffffffffffffffffff168514151561060e57600080fd5b61063a7f64066a381722a1b0da2022a6dae87fd03f33b827cdf4c06bc02d58faaa4ab432600102612a11565b6106667fbff364130c72ac2c9cb6f0bf71a68084abd8099f4aeb06e29885d573b363cdb1600102612a11565b6106927ffef9758b5ab0750d41e7398ca00b74fe6c2020ef40f99b66c6146742fa598b73600102612a11565b6106be7f7a08486689c54ff67c56306b9ad59cd47cc2067bbf88577f4aeb6505d744b3b9600102612a11565b836fffffffffffffffffffffffffffffffff16841415156106de57600080fd5b61070a7f8e04834f5b29adbc10d27607b17eb84ee8a2bfe05031f05e803853760e664c96600102612a11565b6107367f807d07b1115ceeab78f2ff9b6c0a8bf9c4f63104d59e76ed55452130c5c8fbf1600102612a11565b6107627f3e7ce790ca366303ed0bc0f67da9db3ea880991566126ab32bcdc8cb8ecab7ad600102612a11565b61078e7f0ef3c59a40cd3b255c372c1744314d85c876fb3248a718e54bb529e18a03d147600102612a11565b8267ffffffffffffffff16831415156107a657600080fd5b6107d27f09cc4e68555edd09c80f1c46d6366429aab961747e74ad67f459b11409baea86600102612a11565b6107fe7fe548c7f44f18227da5d321c81e6dec9287bffb12d67c994e7ed11339c1b1942b600102612a11565b61082a7f6f2510bc5e092dc78d4a46a7b2abc751b04f0f083050024a5f71130e00c173f6600102612a11565b6108567ffeb0c91e59ba4be9cdb609cf57897b356b896e65e4788fd01c05d9491f027e60600102612a11565b600160009054906101000a900473ffffffffffffffffffffffffffffffffffffffff1673ffffffffffffffffffffffffffffffffffffffff163373ffffffffffffffffffffffffffffffffffffffff161415156108b257600080fd5b6108de7fab4622315a3b9f35e19f6ee7d54831123bcd60e384546ad195b6d43397861851600102612a11565b61090a7fc3e86feef23dfd17f68d16663e078756650391a6dea6722cb2fce46b21c0bcb6600102612a11565b6109367f966b29a2934ce10d403aa4a629e883565cb65a2e50e2395574572f8b69f11059600102612a11565b6109408287612a14565b61096c7f722ab45cc4b28acce4fd603ed554abdc0678542b314e35c2fd9fc6e8e5ca577f600102612a11565b6109987fe5dfc1a89c5865133547dd71ccd256183341e521230c7d204f6b4ada8f366f90600102612a11565b60a0604051908101604052808373ffffffffffffffffffffffffffffffffffffffff168152602001866fffffffffffffffffffffffffffffffff168152602001856fffffffffffffffffffffffffffffffff1681526020018467ffffffffffffffff1681526020014267ffffffffffffffff168152509050610a3c7ffd93ac16458c66cf1c62a3a6411467ec59ed6c55f43267cb25641cee7fb2322b600102612a11565b610a687f1fc650e494dd40ac518deb6d1702e077aa563ac99f34d83d7c73532108d6972f600102612a11565b610a728682612bad565b505050505050565b6000610aa87f3af23e3c10b240c6e950d3cccf3bde20e053aa14d112d2bd98ab8c20e02f6e13600102612f6c565b610ad47fd71f93a6e5e885fbf8a6b95b1558452a2f405b07285782b36a8c38e088be5c40600102612f6c565b610b007f70104cb81506d70bc1898d6ee645fbe2bf75e053ede2cf4b74e160ce2c58a630600102612f6c565b610b2c7f30286fdf59faf1ac201a29589caa2685d7069400fc8a9ac9cc71adb64868f6ed600102612f6c565b6000809054906101000a900473ffffffffffffffffffffffffffffffffffffffff1673ffffffffffffffffffffffffffffffffffffffff163373ffffffffffffffffffffffffffffffffffffffff16141515610b8757600080fd5b610bb37fc04ec288ea82711e4e6a99b105673225e355980eb2b06d007afcc414dbda29b8600102612f6c565b610bdf7f1acad9309e7178f3f3e3a5bbe218d30c8348ad888087bf91d422030a82a85371600102612f6c565b610c0b7f6f426389066b9bfcb1aff3d7f93983488ac972b4cc625f427e3b03397610d8b9600102612f6f565b610c377ff79b4446a72ccd95c0b7a56b1ba6f16b05f4e60b564e5ebb56db3deff18b1eec600102612f6f565b610c637ff675a56cd6a5976d177a9acf8e426c674401ae7d8bcc40e9ea9c5ec13e6ff38a600102612f6f565b610c8f7fed366b4a6b96d852b5d27ad4d90172dd8db199312652f736a43557bc0ac16a49600102612f6f565b600060149054906101000a900460ff161515610caa57600080fd5b610cd67f781701e834097f78cc6122aba9ca17ef67cdcc8ed4a909a4d7ae1ca293725d62600102612f6f565b610d027fed95f215ba75b75ba8d71b6daa903bc793758b871e544f172fc0caa2ac01ffd8600102612f6f565b610d2e7f0168bbbd3e1789ec7a49c882d0c4dcf8bb0679ebe1674db15e8dd425ba09f9eb600102612f6f565b610d5a7f39566854fca5f38e7ed5d353e110def3bb8b327e668443a915dbd2574f338334600102612f6f565b610d867f178f47d7700d30b1a9c4f53ea5905ecbfc650604844311967caea4afa77f10cc600102612f6f565b60008060146101000a81548160ff021916908315150217905550610dcc7fee76f799fabd2800a49ea54093b79abe56d498ab802dee534d1add586bab8b76600102612f6f565b610df87f162692e779983efdeb32bcee6b0b6a22e1c389b555b77c61dc12d7f8523ce24e600102612f6f565b7f7805862f689e2f13df9f062ff482ad3ad112aca9e0847911ed832e158c525b3360405160405180910390a1610e507f7e32acd99e8bb91875a8795d10f9eca838b4b8070486a8ea52d6e5688368412c600102612f6f565b610e7c7f2c0b62f3750beb2a32800fc152535b2aae7174e0cba2aa608e60aca99a689c69600102612f6f565b6001905090565b600080610eb27feaf30365b7e23b69502317edeba9a8be06b82c8869fef9a78103ff63451012c1600102612a11565b610ede7f0ebfcf847f8a0e4983561625ce14bfd965bd22f85be245e93b466cd677968441600102612a11565b610f0a7f1fd0ea35b6c2f06819aba2486d4d30732a990c953ae54ca23745999343a53db4600102612a11565b6003600084815260200190815260200160002060000160009054906101000a900473ffffffffffffffffffffffffffffffffffffffff169150610f6f7f0faeb03d557cee010bd6e92bfead158c66ed39d2a3222b5f271de74e62313c30600102612a11565b610f9b7fc84e69fb3cc6dbb68abec8bfeebfde75fb50d51c8fa9d09f4f88f446fde4fd75600102612a11565b610fa58334612f72565b9050610fd37f52104c8e602beefdc91339858864f658c0358f2c73bda32d52f0b13e7de330f4600102612a11565b610fff7fe4922444e2bd991320ef74a198b724571c7eb8a5620166c93cfcb92428c11a07600102612a11565b6110093384613764565b6110357fa05a457e3e0cdad34a249503549a65e80f62aa319c8a88fe7fedc3c9293c23c2600102612a11565b6110617f6bbfd839b4649bde145e8294bbf7f9405e781c7bf61671c5f80ad436b77a71da600102612a11565b600160009054906101000a900473ffffffffffffffffffffffffffffffffffffffff1673ffffffffffffffffffffffffffffffffffffffff168273ffffffffffffffffffffffffffffffffffffffff1614156111a0576110e37f2e453346e7691564d13092f1199d13f09b60d79b1b4b2f973d2ba328eabfe859600102612a11565b61110f7fb26bba9f10cf4057e3bef9d836b2f68fc5668b962d09a3e38b093566e518f316600102612a11565b61113b7f6bce9a3d677447da62547e89d864edd1a4e3e565ec3e555344fc0991f9c28220600102612a11565b8060066005805481151561114b57fe5b0660058110151561115857fe5b01819055506111897f5c6375181bbf344c32e058234d4d35b558178e8dafb414d778a9422702b02d1e600102612a11565b6005600081548092919060010191905055506111cd565b6111cc7fdb573cc98e6d370177b9b647ca33faf59e79643b471579b1c6636514b0bb2fcf600102612a11565b5b505050565b6006816005811015156111e157fe5b016000915090505481565b600060149054906101000a900460ff1681565b60008061122e7f8bb718790f71d8268b8b02cf908d57c4844d4e30dcfbc15292f851533017fd8c6001026138c9565b61125a7ff5238708a3cf42d25ead6cab30d4ac690e2e463676cc04e2ccdfa77e3f492b516001026138c9565b6112867f4616d895d2ee490b5a2a0dae3dda48c995817a635102fd3a366bc38667ff44d36001026138c9565b600160009054906101000a900473ffffffffffffffffffffffffffffffffffffffff1691506112d77f4334833706043e0c85842af47b5e4f84db727c54017755eafaecb30b81c48e5b6001026138c9565b6113037f010cee23367074e65446974cbdb06198d0877bd0f432da6d594965f99d48afa96001026138c9565b61132f7fbcf087a0d755bd68f2018f8541b5b7c22615e1e838404c2001401c6eb963fe186001026138c9565b6000809054906101000a900473ffffffffffffffffffffffffffffffffffffffff1673ffffffffffffffffffffffffffffffffffffffff163373ffffffffffffffffffffffffffffffffffffffff1614806113b557508173ffffffffffffffffffffffffffffffffffffffff163373ffffffffffffffffffffffffffffffffffffffff16145b15156113c057600080fd5b6113ec7fdba454e168659e758982fdf8995125b7abcb92abd3bd876f1f618a7303de95f16001026138c9565b6114187feb8a8ac2d3fcbaa08e9acead8a7ac0918c827083cefbf5752926a0aec031c5286001026138c9565b6114447f10c82473e958cc6238e8d05ddc9cb9915e698e47796abc0a29ab3609703a8a1d6001026138c9565b8173ffffffffffffffffffffffffffffffffffffffff166108fc3073ffffffffffffffffffffffffffffffffffffffff16319081150290604051600060405180830381858888f1935050505090505050565b6000806000806000806114cb7f0562ce2602d1684b7f66b47a2d03a0f75d227a016365f2fcc0169d2d729ec4536001026138c9565b6114f77f5a88a950160c13f6112af1e543b2b40172fc75965661707f4b1fdab9d64f6e9b6001026138c9565b6115237fc972905323ba127c3b497d0c7c5f21b89c26d577b36dc23aef4270a877788f536001026138c9565b6003600088815260200190815260200160002090506115647fd4a9620194096c67952f0fad4417d179ab73abf442ec8aa1ff30a057b995f9786001026138c9565b6115907f1878ab856750f9f09abc69bc69498653805c1aa9461594fe9df5048ef8bd40766001026138c9565b6115bc7f76c3a02ad22a83a9f7adf60d7d4bf560a3b9d404dbd1f8ebc12b7bd6348225556001026138c9565b6115c5816138cc565b15156115d057600080fd5b6115fc7f829de5ae3b16a37921c75d1faa4adeea8e9a11a577ecb67d8489133c94bf34df6001026138c9565b6116287faaf0e6cf60ab6350f468c61dfbceb51539cbc45e05729f080b7b8d03ba6fa94a6001026138c9565b6116547fcfe49ea9a3139f4c6b8dcec6c05c3c835ad20159c5cc3309c6d9473c04c541d76001026138c9565b8060000160009054906101000a900473ffffffffffffffffffffffffffffffffffffffff168160010160009054906101000a90046fffffffffffffffffffffffffffffffff168260010160109054906101000a90046fffffffffffffffffffffffffffffffff168360020160009054906101000a900467ffffffffffffffff168460020160089054906101000a900467ffffffffffffffff16836fffffffffffffffffffffffffffffffff169350826fffffffffffffffffffffffffffffffff1692508167ffffffffffffffff1691508067ffffffffffffffff169050955095509550955095505091939590929450565b60025481565b60006117797f3af23e3c10b240c6e950d3cccf3bde20e053aa14d112d2bd98ab8c20e02f6e13600102612f6c565b6117a57fd71f93a6e5e885fbf8a6b95b1558452a2f405b07285782b36a8c38e088be5c40600102612f6c565b6117d17f70104cb81506d70bc1898d6ee645fbe2bf75e053ede2cf4b74e160ce2c58a630600102612f6c565b6117fd7f30286fdf59faf1ac201a29589caa2685d7069400fc8a9ac9cc71adb64868f6ed600102612f6c565b6000809054906101000a900473ffffffffffffffffffffffffffffffffffffffff1673ffffffffffffffffffffffffffffffffffffffff163373ffffffffffffffffffffffffffffffffffffffff1614151561185857600080fd5b6118847fc04ec288ea82711e4e6a99b105673225e355980eb2b06d007afcc414dbda29b8600102612f6c565b6118b07f1acad9309e7178f3f3e3a5bbe218d30c8348ad888087bf91d422030a82a85371600102612f6c565b6118dc7fbe58eebb92eb883773e29b7762ec4934b6ea7a02e32781ce65b2618dd7cc15a3600102612f6f565b6119087f2d19d859830746fe55b6b40ed45709585922e9464b96259cd1792cb99bce49c9600102612f6f565b6119347fc55d784e4ee7927ddddd424ac23ba7d722e078290cf70ba66cf978c9d9c9ccae600102612f6f565b6119607fd4ceb1e409ca88a3c9c3e455853ddc5156589bbd45c3cf64700915b67a2e9156600102612f6f565b600060149054906101000a900460ff1615151561197c57600080fd5b6119a87f56096fba84bb591301d35380713828d102bd55f1e32b801fbfc60adffa98eeea600102612f6f565b6119d47f9860ccde9c00f67c72d4cd658a3e86188d504fbb1ee2946961eca701acfb98c2600102612f6f565b611a007fedf587d938915592678647808f0b9f7903b8a9c79cedf06e6bb4b875c7950769600102612f6f565b611a2c7f4c2acfb0103e7545fc4526d049e77f76743ac4978f4c40fcadb8d0b483732b90600102612f6f565b611a587f3da88813166c08be0b70d2da3b419e2e0dd46cbe6ca1a417c8982344e0e1144b600102612f6f565b6001600060146101000a81548160ff021916908315150217905550611a9f7f4a021c48cc3cd84afb1a60032a0cb39e3ca37eee5f9001682df1fab0ae537961600102612f6f565b611acb7fb9148225311cf489f9ba3758785528e6c743bbfb94ab44df3a3d2f935c901c5c600102612f6f565b7f6985a02210a168e66602d3235cb6db0e70f92b3ba4d376a33c0f3d9434bff62560405160405180910390a1611b237fd48053f45cecab97da2e90044886327da4e6241ad49ee8dbc69df6eecca10055600102612f6f565b611b4f7f25e79472825041fbaa144fb89f6ca3e91d44a39344d12bfb64b4f23bff3c472a600102612f6f565b6001905090565b600460009054906101000a900460ff1681565b6000611b977f6f426389066b9bfcb1aff3d7f93983488ac972b4cc625f427e3b03397610d8b9600102612f6f565b611bc37ff79b4446a72ccd95c0b7a56b1ba6f16b05f4e60b564e5ebb56db3deff18b1eec600102612f6f565b611bef7ff675a56cd6a5976d177a9acf8e426c674401ae7d8bcc40e9ea9c5ec13e6ff38a600102612f6f565b611c1b7fed366b4a6b96d852b5d27ad4d90172dd8db199312652f736a43557bc0ac16a49600102612f6f565b600060149054906101000a900460ff161515611c3657600080fd5b611c627f781701e834097f78cc6122aba9ca17ef67cdcc8ed4a909a4d7ae1ca293725d62600102612f6f565b611c8e7fed95f215ba75b75ba8d71b6daa903bc793758b871e544f172fc0caa2ac01ffd8600102612f6f565b611cba7f3af23e3c10b240c6e950d3cccf3bde20e053aa14d112d2bd98ab8c20e02f6e13600102612f6c565b611ce67fd71f93a6e5e885fbf8a6b95b1558452a2f405b07285782b36a8c38e088be5c40600102612f6c565b611d127f70104cb81506d70bc1898d6ee645fbe2bf75e053ede2cf4b74e160ce2c58a630600102612f6c565b611d3e7f30286fdf59faf1ac201a29589caa2685d7069400fc8a9ac9cc71adb64868f6ed600102612f6c565b6000809054906101000a900473ffffffffffffffffffffffffffffffffffffffff1673ffffffffffffffffffffffffffffffffffffffff163373ffffffffffffffffffffffffffffffffffffffff16141515611d9957600080fd5b611dc57fc04ec288ea82711e4e6a99b105673225e355980eb2b06d007afcc414dbda29b8600102612f6c565b611df17f1acad9309e7178f3f3e3a5bbe218d30c8348ad888087bf91d422030a82a85371600102612f6c565b611e1d7f2e1d26878e5cf23380aa9bd3996577eb519f58d8a0f8dd95157035ff7fa7ff006001026138c9565b611e497f951f61f9fa103e683c90b2d796f28d37c3d590382558cbb88b748dc22e5187fd6001026138c9565b611e757f71f73a2bb793eb5be1888e29d56b0e53c0f815732b3160eb8573173782e039ac6001026138c9565b600360008381526020019081526020016000209050611eb67f129287c24b5380d616c622897ab28ffc13a99f821556d58a8daa352154ebba8e6001026138c9565b611ee27f55db4ce9bb640b4d26f16b2ee89785e5a470f49fe8bce91c9ec7f0ae42a7c0eb6001026138c9565b611f0e7fe13850a4814f0cc58c24878a47d5b2c6df295b962db098a74495c22169074e276001026138c9565b611f17816138cc565b1515611f2257600080fd5b611f4e7f67ae2c31aef268057114534ade5ec4fa47c3ae7e8128533587c60d86dc44ca266001026138c9565b611f7a7f4a2628a67fd3e474384df0c5b70fbc62f2337477a866235768e3b6854e60af226001026138c9565b611fa67f19528b29bf91362fd9041e622a08034a8aadb0510afdeb545cb8fdc9c3b16de06001026138c9565b611fd4828260000160009054906101000a900473ffffffffffffffffffffffffffffffffffffffff1661397f565b5050565b60055481565b6000809054906101000a900473ffffffffffffffffffffffffffffffffffffffff1681565b6000806120327f509be30d6593ce83b99f1b20fd594a616a2704181d3f1b66fa258b8c6cf0427f6001026138c9565b61205e7fcf24fa73d88529c5172dae3608a7f54306ba019871d7dc9d1b762a7cbc801d4a6001026138c9565b61208a7f6282d864c24010098c9faa78af9667d53604b27270e8076464d926cddca0ad406001026138c9565b6003600084815260200190815260200160002091506120cb7f7b0b3f1f303d6f963c68db45ac8378423628714a593a02394760a98e7e31bbca6001026138c9565b6120f77f6c88ad474b5db54374a11d0455aca5caf4639a6602bfc030b53c60b99ae793316001026138c9565b6121237f9ecb764f8a2e559ffa58ef9e193249c2d38f47f16105149cd8cf7dad61437f566001026138c9565b61212c826138cc565b151561213757600080fd5b6121637f2015bd8cf839a94d9b6262d2e9dbd7da059ab57db276b39e49a04a6f20c87b2f6001026138c9565b61218f7f531cd48cbe86e35c409b27ebcd541eda23b9a8e5d0db51b7eb6852e970ef73936001026138c9565b6121bb7fc5273ee9887f8da7ee21220e2431677fd243a7b6b85d94082b11fbbebcc82e656001026138c9565b8160000160009054906101000a900473ffffffffffffffffffffffffffffffffffffffff16905061220e7f9e363f7c408c7d7c9d666eea084a27aa8b0a98e598304f96feffb5a06afac6756001026138c9565b61223a7f15bf964398009a92c177bef06a16aac2d05d4d557c48c725467fc1bbc83854d36001026138c9565b6122667f7c97838a19f7b45e185fc81bf568e8cc355bcc68603712b9df7def493f11ad566001026138c9565b8073ffffffffffffffffffffffffffffffffffffffff163373ffffffffffffffffffffffffffffffffffffffff161415156122a057600080fd5b6122cc7f24cff2a15e5f8d7bf62f1ebf991a4d81a4f44216effc90e1a8a062d931f92cff6001026138c9565b6122f87f2f6da66deeb0934b2fac2f152648618b7a98cf8421b8875e8bb43612236fe0ea6001026138c9565b6123247f287e265e3090d8c713a4344539b51d04fbfc82cfa99403c90f20e4fb61989a6d6001026138c9565b61232e838261397f565b505050565b6000806123627fa965b6600f275775ae0813a1e0e0b59d81bfda810178d36c93fa384e04872a8c6001026138c9565b61238e7ffcb83f0c826633ef1e0fdc15b81b172144c8bc8762cf5848d4c9b308a28f71116001026138c9565b6123ba7ff40d8f3782c285237dafca8227b0b143df1d24f20638a01df7742b3b22d4ed946001026138c9565b6003600084815260200190815260200160002090506123fb7f38839fd99aaf5483c7f8b791c166ed91cea3f543e6e9bf023b5d69afbeedc4196001026138c9565b6124277fc9cbcc48a0765b43e21ed0162b06eca5491c84465fb16627cb66b2771d9cf36f6001026138c9565b6124537ffa8a879b7b80504d50871abce8637b8f32edcedc950b3de508e4905ee692aa766001026138c9565b61245c816138cc565b151561246757600080fd5b6124937f0904ab2be551c8171719f51ad07643ccf17e69dce06b4c039dce1a0b11f07cde6001026138c9565b6124bf7fa34c363998c79721fef2b6471d4430358c972626801996481de60abe1461613d6001026138c9565b6124eb7fa0b22be558ce7f76359a39d53711e62ec5c828109220b2dfc10f8f308a22831b6001026138c9565b6124f481613b3d565b915050919050565b600160009054906101000a900473ffffffffffffffffffffffffffffffffffffffff1681565b60008060006125537f840a19cfdc20a891d4345584f37662f9da92dfcd06db596829837ba74f99c596600102612a11565b61257f7f89e173f562bf7f66fff22e7c11e8b186d5cf634e7a097a8f07b7a6f58801261c600102612a11565b6125ab7f785a09bc50f389da1479bf45ca732a02324dcbb858532823adee138499d4ff62600102612a11565b600091506125db7fb8e8e1081f2d9464a8da7bcc457d66d0741112b9259a1b82fd2e56b64dc82c90600102612a11565b6126077fd28d408ab772a2633d89ed2ae554bf8592ff82cd5ad160b5f304bf855bf72667600102612a11565b600090505b600581101561268f576126417fd9211bd4bef368184aa9ed682381e333c2aa540918f905663388c77ffc817d6f600102612a11565b61266d7ffe968c21d897ca80216514a817756f57852569081d15c29f61cc7a5d6fbcda07600102612a11565b60068160058110151561267c57fe5b015482019150808060010191505061260c565b6126bb7f63ec623fef957c2ccc61137d908a8d8a5ebdf018964eab0e5dbec3c0892827ee600102612a11565b6126e77fa8fc127791760fbeebf15584d74b481b42924c4a109eb6ae97c4247c36d9bfc8600102612a11565b6005828115156126f357fe5b049250505090565b6127277f3af23e3c10b240c6e950d3cccf3bde20e053aa14d112d2bd98ab8c20e02f6e13600102612f6c565b6127537fd71f93a6e5e885fbf8a6b95b1558452a2f405b07285782b36a8c38e088be5c40600102612f6c565b61277f7f70104cb81506d70bc1898d6ee645fbe2bf75e053ede2cf4b74e160ce2c58a630600102612f6c565b6127ab7f30286fdf59faf1ac201a29589caa2685d7069400fc8a9ac9cc71adb64868f6ed600102612f6c565b6000809054906101000a900473ffffffffffffffffffffffffffffffffffffffff1673ffffffffffffffffffffffffffffffffffffffff163373ffffffffffffffffffffffffffffffffffffffff1614151561280657600080fd5b6128327fc04ec288ea82711e4e6a99b105673225e355980eb2b06d007afcc414dbda29b8600102612f6c565b61285e7f1acad9309e7178f3f3e3a5bbe218d30c8348ad888087bf91d422030a82a85371600102612f6c565b61288a7f3da3041bee5c96395c6945509c18086e60c9be17c79655ec94bc76742468f5d4600102612f6c565b6128b67fd0cda83544c7641d84a8bac269f9281732b7bef56cc5779f4b624c89f722f80d600102612f6c565b6128e27fe4326208aaecc705f810ae48bc5a15eec688dde9d59b36eaf160d8d48b5336a7600102612f6c565b600073ffffffffffffffffffffffffffffffffffffffff168173ffffffffffffffffffffffffffffffffffffffff161415156129e1576129447f282a1d704d9f3ec62fe6726ea5bc3137d0cdf87f2c1a6859f9475a921910d65a600102612f6c565b6129707f24928a8924b02c2f0b1081816df56a3762dc80b63139e53ad52a6e170fd2fc43600102612f6c565b61299c7ff1aa7d0b9e9a2eb0a08651f720d99cba79e9e019953d3e94236f86e86aec8c5e600102612f6c565b806000806101000a81548173ffffffffffffffffffffffffffffffffffffffff021916908373ffffffffffffffffffffffffffffffffffffffff160217905550612a0e565b612a0d7f3354cf083f2c57306162cb88f65d37c6ec066bb9020e54e01cf36fa1337426ea600102612f6c565b5b50565b50565b612a407ff8b0885d8166ffcce17fd7b92ade3cd1cdf5fef82f41e3ce9e6635967d6352b1600102613e19565b612a6c7fe007a060bf98f3d61b3df5c010ada1c7f98f878efc9caf10c388e8164e5347ec600102613e19565b612a987ffececef83b1329b453b9d2057baa7b0ecf209bd07a8e9d3ef6ed75f541095c68600102613e19565b600160009054906101000a900473ffffffffffffffffffffffffffffffffffffffff1673ffffffffffffffffffffffffffffffffffffffff166323b872dd8330846040518463ffffffff167c0100000000000000000000000000000000000000000000000000000000028152600401808473ffffffffffffffffffffffffffffffffffffffff1673ffffffffffffffffffffffffffffffffffffffff1681526020018373ffffffffffffffffffffffffffffffffffffffff1673ffffffffffffffffffffffffffffffffffffffff1681526020018281526020019350505050600060405180830381600087803b158015612b9157600080fd5b505af1158015612ba5573d6000803e3d6000fd5b505050505050565b612bd97fdbc62094ba1ef0723e22d47df145d9c504185f42ff8156facc71de62f3e2e305600102613e19565b612c057fb404b50fa01ced859a899788607a4caa71018c14d852785f40b5707b65384808600102613e19565b612c317fc1a727bf620a42532ba29cbb27faab168d6ce548f0c5bae8ba51be35ac4eeb08600102613e19565b612c5d7f59e2a856a876c813a7d28adc4cf6f3aa0a638742002ad4b6adde8eebb2d36a07600102613e19565b603c816060015167ffffffffffffffff1610151515612c7b57600080fd5b612ca77f2858aef1fbc0c3efdf898cadded68c15a15bca7414a03ae44183ebe51351866c600102613e19565b612cd37f55d4c0d6df3e92e2d0863c4b72d5ce23bc8814ab5b59b8d5f7dacee29c434447600102613e19565b612cff7f6810552fb1f50cec938486ecec765c8fec441c561244a1c29daa68d6a311a689600102613e19565b806003600084815260200190815260200160002060008201518160000160006101000a81548173ffffffffffffffffffffffffffffffffffffffff021916908373ffffffffffffffffffffffffffffffffffffffff16021790555060208201518160010160006101000a8154816fffffffffffffffffffffffffffffffff02191690836fffffffffffffffffffffffffffffffff16021790555060408201518160010160106101000a8154816fffffffffffffffffffffffffffffffff02191690836fffffffffffffffffffffffffffffffff16021790555060608201518160020160006101000a81548167ffffffffffffffff021916908367ffffffffffffffff16021790555060808201518160020160086101000a81548167ffffffffffffffff021916908367ffffffffffffffff160217905550905050612e657f79b7117434ea030772fa2d4f1d9f2381aa42fa8331d277a56e6fc910d0a6ac94600102613e19565b612e917fe0e22e5ba4c0e0d098889e0b9674d97a79310723d6cd7292cba4b3fec874291b600102613e19565b7fabdd2430f9e10eb5db384c1218c42f980dd5fcda760a680a0d95ec506f0963cb81600001518383602001516fffffffffffffffffffffffffffffffff1684604001516fffffffffffffffffffffffffffffffff16856080015167ffffffffffffffff16866060015167ffffffffffffffff16604051808773ffffffffffffffffffffffffffffffffffffffff1673ffffffffffffffffffffffffffffffffffffffff168152602001868152602001858152602001848152602001838152602001828152602001965050505050505060405180910390a15050565b50565b50565b6000806000806000806000612fa97fa8a0bdc9ba25dc45d0ac53357911d8d22d3d6f94dd7c73b95bfdc3fbe7cf7f24600102613e19565b612fd57f591d6394955449dd8427ff7132c223bc2423ac70193d05daa3ba76410b171956600102613e19565b6130017f31eda19b07d9f2949439806ff03c1870c94dabf3d8a3f6f5348c452df45e9d9e600102613e19565b600360008a815260200190815260200160002095506130427f9340a40d714dcba2fc673bb938af0a79667805c7fe72134d40444e4d803a5346600102613e19565b61306e7f3604cbd47cb60aae69c9e04a883c6cf1cec662cdaa5f990339202ffac9e73628600102613e19565b61309a7f4e22ed36f8c069bb49e9faa36d11c4a8e2c5636332bbf41ea2da68f21b1aa64d600102613e19565b6130a3866138cc565b15156130ae57600080fd5b6130da7fc03b70d4fd2315bb1570b951e9a092dd681598d0d9c0aeea1e2503eb8a6392a2600102613e19565b6131067f61d3a56de6fa7f0c252b4c8f4f4abcb148305455f16d25ba0289dc822bf6c284600102613e19565b6131327f6e14646facb5dc8985094905e1daee573ca8085b47ec759f52ae53cc94fa84ad600102613e19565b61313b86613b3d565b94506131697f05058c448d923b955c60123845901d2f20682b949d7da65fef6250b866e79a32600102613e19565b6131957f8df0d7eb19790c949c6d53ac1447fa5398f4e16bb6617bd7121dc9a886b1f938600102613e19565b6131c17f8d1ea7a73959d984d4176b1c8c500d290cd8b54a5698f18e104bd475abe360e8600102613e19565b8488101515156131d057600080fd5b6131fc7fae8037ffe3bd58da40524937a98403d01fb59ab25dd5486b47b4269322c46616600102613e19565b6132287f343ec7f1de6268152f343350866e77009676d6ba90d4160a94a0f5fc61f866a5600102613e19565b6132547fdb31a7c14a650dfef2a37772e3528df962c81888bfbae35eb3a1c2e55b6411db600102613e19565b8560000160009054906101000a900473ffffffffffffffffffffffffffffffffffffffff1693506132a77f8466ac37d3ad03a9d8abe14368e8c75673e5309769e54d3e40ed4a4dd65e2ae2600102613e19565b6132d37f0e41aa8fce31aecf08b3879eee1ae0a2f32a3fe34707b9a04ad2f1fd60402250600102613e19565b6132dc89613e1c565b6133087f908f4fbe1c1bf53cf5467872f6ae12611f98679f42bee83cd703b10e2f0e5aea600102613e19565b6133347f5a3a5cae046d8f1d61b659373d0a386fdfd869722703854f2c18ff2e22d9b68a600102613e19565b60008511156134cd576133697f056fba43f5d8f2e85bff6a8bcf39e00ed2f8fadecdeb28a188363921cf996f07600102613e19565b6133957f70429298c83ab3d38fc7bf580649fa83bdbe9e5f94f30f2f89e6c8943db72f0f600102613e19565b6133c17f7c19aec90ebd83069f0d6161452b83bb19f7b0894843eb22c7add68f20d0b2ee600102613e19565b6133ca85613f30565b92506133f87fa46ec0b7ac46aab767eed72f7e6b5f07be4b7838e5c95e6622256132a258d6a2600102613e19565b6134247fb68bbc2f543c706e1dd1bfad956f7a76cf81374651f3ddb13145243f91380fce600102613e19565b82850391506134557f8a0ae4f38cc22666bfce83d518b660576fe83ba2c09b5e42d149e55856cb9ad6600102613e19565b6134817f2879c4e4790e5111f823fde38ac1b707bec6fa28ef415154b8459f93a700ae6e600102613e19565b8373ffffffffffffffffffffffffffffffffffffffff166108fc839081150290604051600060405180830381858888f193505050501580156134c7573d6000803e3d6000fd5b506134fa565b6134f97f5324c09af256d86dba5a01ba9753d3a892a8fc8211e78e414907b68beedb4357600102613e19565b5b6135267fef0a922340a44eda5ba65fb5f677f5c6d1db64fff4b7d19101db4debc815a981600102613e19565b6135527f9d26c2b45ad5e0ee76cdda980aefd38b160afb0f0cd0f2c71c598553fb6e6f47600102613e19565b84880390506135837f5078b4b6a87e61352882f3c83b969c3178c0648d6b05d19637804098a06781cd600102613e19565b6135af7fd2cc6552d5f93f317c148a0d708e4627ed75174e064722f832ce9707a63da6eb600102613e19565b3373ffffffffffffffffffffffffffffffffffffffff166108fc829081150290604051600060405180830381858888f193505050501580156135f5573d6000803e3d6000fd5b506136227fc575ea812a4dec6b0264d1a60c86082348135292e0366737aa4ddc6cc6c41e15600102613e19565b61364e7f7cc1eaadc7143172196145cb8c8757f0a1216610dc3a0c15dc5ea2ee6eff5da5600102613e19565b7fc2a394cb356728b3540b84dee72ea6de41f44fd94de223565258efe1549ee06f8986863342604051808681526020018581526020018473ffffffffffffffffffffffffffffffffffffffff1673ffffffffffffffffffffffffffffffffffffffff1681526020018373ffffffffffffffffffffffffffffffffffffffff1673ffffffffffffffffffffffffffffffffffffffff1681526020018281526020019550505050505060405180910390a16137297f4f56af37a327bbee363ab46c43f54ceddc8eb392e03aff07fd4265f8e10876ab600102613e19565b6137557f608b48106628570506333bf2cdb03c339ae2f2c4ed68667048339303e6d7ad05600102613e19565b84965050505050505092915050565b6137907f8c729022d5edadf62403d44ca4eb2603b62cb436803881f23fad86990cfc00a8600102613e19565b6137bc7f03cbf1e9d5c1a1c12f267cc19b94f4f1c5ef452e14d63ebba968304580ab7b82600102613e19565b6137e87fe213ed01c45166ecd91bffcba0b753a5516cbb29b53be13e114cf6afa47ad93a600102613e19565b600160009054906101000a900473ffffffffffffffffffffffffffffffffffffffff1673ffffffffffffffffffffffffffffffffffffffff1663a9059cbb83836040518363ffffffff167c0100000000000000000000000000000000000000000000000000000000028152600401808373ffffffffffffffffffffffffffffffffffffffff1673ffffffffffffffffffffffffffffffffffffffff16815260200182815260200192505050600060405180830381600087803b1580156138ad57600080fd5b505af11580156138c1573d6000803e3d6000fd5b505050505050565b50565b60006138fa7f6cadd72e4e54158d469d0a9d385f8733f6c3f5c65f3c5f042b8ee9db9856d3ee600102613e19565b6139267fcf0c8e9240fc16cdbef73a63b0c784b30795ab79558f757d45418797911237a6600102613e19565b6139527f9eae081e84a9be77309cc3b320c47d2a43e79991dc10e6294310d7a4aee9e2fa600102613e19565b60008260020160089054906101000a900467ffffffffffffffff1667ffffffffffffffff16119050919050565b6139ab7f1533a5573e0695e409b4918028a8a6336fee829f4e3791724bdefbede2606e0e600102613e19565b6139d77f311820e553f8b376cd83e53c5541e36cafc950808c08ea6da486bacc297c1ebe600102613e19565b613a037ff3d8ac2f1acfd3cb73dfdcbb98365b101c2f85d07f853594f1beb655ee0aca12600102613e19565b613a0c82613e1c565b613a387f6f4517ed56a64aa00163865e1009f4b5ab08d340d47830a5c04adc9801936529600102613e19565b613a647f3ec9a111154b2bfe16bf6deb7cf9e6686deb34019bccd679a435de0dbf0811ea600102613e19565b613a6e8183613764565b613a9a7fee4db020004925ba669ef36621f68acaebfe06a6f2c1cbb9823f136a9608c80a600102613e19565b613ac67fad8f7ba9c40608e0f2878033e46de55bb8114ed532753e0fd11fead3f3b0df2e600102613e19565b7f6a3d5a07d548e27ae884a742682e9b929c0a0e4040990bc28c04637c5c077104828242604051808481526020018373ffffffffffffffffffffffffffffffffffffffff1673ffffffffffffffffffffffffffffffffffffffff168152602001828152602001935050505060405180910390a15050565b600080613b6c7f77a0264a83574523c26b6f44fc80f4f50615571f08ce4c370a380e971ed73a19600102613e19565b613b987f5525b4ba0cc75e0cf9b6e66987d860c0a7a3e23560137a7c2dc47286d55ad268600102613e19565b613bc47f83e52570082786d592ed21e8f5d2958000db5d8e43a2fbbc3af855b7279023c2600102613e19565b60009050613bf47fc0071c49cbcd5d7fa91cc839704f83d5eb2f2b3068c35de36a5fcc7c47b90898600102613e19565b613c207fe6d8fd964cfbc7d59f9a681bf5850b357a2a583213f9aefa0627f75a3efb49a7600102613e19565b8260020160089054906101000a900467ffffffffffffffff1667ffffffffffffffff16421115613cfa57613c767f05812439daba1737f3a6892a88bd1661f233d3c70667cbd3d2620d90161e6ff4600102613e19565b613ca27f4d0c1fb85e39d26683154737f03e527d1dc47f3f9db1a6ebd7749479ea3bfa65600102613e19565b613cce7f160ff84389cd6a60e31a57ba42ac27063e8a27c1e05c7a4997188076d438f83b600102613e19565b8260020160089054906101000a900467ffffffffffffffff1667ffffffffffffffff1642039050613d27565b613d267fdfcaa0917136e601ff73cd2fbcffe8337483fc618d497574915b0bf84142c11f600102613e19565b5b613d537f4998c8aaba6d2f5935db2374dab039dcb9020ad8976e4e7e67f0336f5ec03714600102613e19565b613d7f7ffbec789e371c8bf3767cfdcbbd0de7142c438b7b5dd9728b3a2bdfb4f0de313e600102613e19565b613e118360010160009054906101000a90046fffffffffffffffffffffffffffffffff166fffffffffffffffffffffffffffffffff168460010160109054906101000a90046fffffffffffffffffffffffffffffffff166fffffffffffffffffffffffffffffffff168560020160009054906101000a900467ffffffffffffffff1667ffffffffffffffff1684613fcf565b915050919050565b50565b613e487f6d67a2bb66ecdee13fff36ca8a7e5556e561fc39ca5a608a2747452e08f910f9600102613e19565b613e747faa2225c45f35dc911b6ade5a9a188f0d11c6d713b62bdbc0698ee05432a6a0f8600102613e19565b60036000828152602001908152602001600020600080820160006101000a81549073ffffffffffffffffffffffffffffffffffffffff02191690556001820160006101000a8154906fffffffffffffffffffffffffffffffff02191690556001820160106101000a8154906fffffffffffffffffffffffffffffffff02191690556002820160006101000a81549067ffffffffffffffff02191690556002820160086101000a81549067ffffffffffffffff0219169055505050565b6000613f5e7f42c352bc07e9d182a1889447e5eba95e320c801420c01a93aa88a92d9bb47307600102613e19565b613f8a7f49955a8bcf3044a8a3787525f3f5bbce99c2dd1dcf971d04d5d5b68dfc6e9ede600102613e19565b613fb67f929a6e4ae75123b2008d132251932640e2db1a5b9947bc8a73b537784799ffbd600102613e19565b6127106002548302811515613fc757fe5b049050919050565b6000806000806140017ffe3be9cb39ab4e4ddb0969665fde90bdc74bdfec348d1d5861b599f5d81e5419600102613e19565b61402d7f044c767a25812e6af82df1627cee6412854bdb37cb020050dbe78d2bbc9b4b60600102613e19565b6140597fa35d3581ad6c92b0961ed54dbcd22706e9491fb470e37f8eacd12926a66acf40600102613e19565b85851015156140ee5761408e7ff59fb3dece579282404df794f0a69ee13efa0421e05ff228532221b95757514b600102613e19565b6140ba7fb1f267194a0cdf7a145b96bf106a51e985fbd99d60c77412c0d8b6b5d64db401600102613e19565b6140e67ff55de78ea6af20abfa016ebf0293bcb4d718d925f1db2b249791a92769ceaa21600102613e19565b869350614298565b61411a7f309bef6a89fa4e9c2d4d6daf7f0656db8e7fb89922c9ecca28484bc510861b38600102613e19565b6141467fdf999d9f067541622c65a61d5ebe6e5cacd181d4d99000e6ba167f380bdfd3d1600102613e19565b6141727ff9ca719a084bb7bb23a8545e1340bd9aeb1a054f20b6f9ba31c8357e26b75cbd600102613e19565b87870392506141a37f19057dce4d7369d1ad297ad10c8c99c87350b12de1300d50077a8bcb9e82f242600102613e19565b6141cf7f29ea8871c9f02e2034580826544522453652dd7b5f92374ae086cf3bd6a23ff0600102613e19565b858584028115156141dc57fe5b05915061420b7f29b5ef8cceb6a010a76e4c180e40e373b30b3c804c7c9d6d1f06bdd788068bff600102613e19565b6142377f1c8b0630a41448f374e9a6c5a9c540489e20750f68b02256e99f13d7faeb3092600102613e19565b81880190506142687f583cdb4678fb2cbbe1e7d3870833b2743d93809fe1f22d2294a8843596cc4833600102613e19565b6142947f60254bb059b068a6f27d7362c474c382facb09c2fff980d0d776b8be82a7a4e8600102613e19565b8093505b505050949350505050565b60a060405190810160405280600073ffffffffffffffffffffffffffffffffffffffff16815260200160006fffffffffffffffffffffffffffffffff16815260200160006fffffffffffffffffffffffffffffffff168152602001600067ffffffffffffffff168152602001600067ffffffffffffffff16815250905600a165627a7a72305820ddf92d05a21082435aa646ed34ca0f7ff73643150621b06a3ab7a07ffcbc96bb0029",
  "linkReferences": {},
  "deployedLinkReferences": {}
}