{
  "_format": "hh-sol-artifact-1",
  "contractName": "SiringClockAuction",
  "sourceName": "contracts/BotCore.sol",
  "abi": [
    {
      "constant": false,
      "inputs": [
        {
          "name": "_tokenId",
          "type": "uint256"
        },
        {
          "name": "_startingPrice",
          "type": "uint256"
        },
        {
          "name": "_endingPrice",
          "type": "uint256"
        },
        {
          "name": "_duration",
          "type": "uint256"
        },
        {
          "name": "_seller",
          "type": "address"
        }
      ],
      "name": "createAuction",
      "outputs": [],
      "payable": false,
      "stateMutability": "nonpayable",
      "type": "function"
    },
    {
      "constant": false,
      "inputs": [],
      "name": "unpause",
      "outputs": [
        {
          "name": "",
          "type": "bool"
        }
      ],
      "payable": false,
      "stateMutability": "nonpayable",
      "type": "function"
    },
    {
      "constant": false,
      "inputs": [
        {
          "name": "_tokenId",
          "type": "uint256"
        }
      ],
      "name": "bid",
      "outputs": [],
      "payable": true,
      "stateMutability": "payable",
      "type": "function"
    },
    {
      "constant": true,
      "inputs": [],
      "name": "paused",
      "outputs": [
        {
          "name": "",
          "type": "bool"
        }
      ],
      "payable": false,
      "stateMutability": "view",
      "type": "function"
    },
    {
      "constant": false,
      "inputs": [],
      "name": "withdrawBalance",
      "outputs": [],
      "payable": false,
      "stateMutability": "nonpayable",
      "type": "function"
    },
    {
      "constant": true,
      "inputs": [],
      "name": "isSiringClockAuction",
      "outputs": [
        {
          "name": "",
          "type": "bool"
        }
      ],
      "payable": false,
      "stateMutability": "view",
      "type": "function"
    },
    {
      "constant": true,
      "inputs": [
        {
          "name": "_tokenId",
          "type": "uint256"
        }
      ],
      "name": "getAuction",
      "outputs": [
        {
          "name": "seller",
          "type": "address"
        },
        {
          "name": "startingPrice",
          "type": "uint256"
        },
        {
          "name": "endingPrice",
          "type": "uint256"
        },
        {
          "name": "duration",
          "type": "uint256"
        },
        {
          "name": "startedAt",
          "type": "uint256"
        }
      ],
      "payable": false,
      "stateMutability": "view",
      "type": "function"
    },
    {
      "constant": true,
      "inputs": [],
      "name": "ownerCut",
      "outputs": [
        {
          "name": "",
          "type": "uint256"
        }
      ],
      "payable": false,
      "stateMutability": "view",
      "type": "function"
    },
    {
      "constant": false,
      "inputs": [],
      "name": "pause",
      "outputs": [
        {
          "name": "",
          "type": "bool"
        }
      ],
      "payable": false,
      "stateMutability": "nonpayable",
      "type": "function"
    },
    {
      "constant": false,
      "inputs": [
        {
          "name": "_tokenId",
          "type": "uint256"
        }
      ],
      "name": "cancelAuctionWhenPaused",
      "outputs": [],
      "payable": false,
      "stateMutability": "nonpayable",
      "type": "function"
    },
    {
      "constant": true,
      "inputs": [],
      "name": "owner",
      "outputs": [
        {
          "name": "",
          "type": "address"
        }
      ],
      "payable": false,
      "stateMutability": "view",
      "type": "function"
    },
    {
      "constant": false,
      "inputs": [
        {
          "name": "_tokenId",
          "type": "uint256"
        }
      ],
      "name": "cancelAuction",
      "outputs": [],
      "payable": false,
      "stateMutability": "nonpayable",
      "type": "function"
    },
    {
      "constant": true,
      "inputs": [
        {
          "name": "_tokenId",
          "type": "uint256"
        }
      ],
      "name": "getCurrentPrice",
      "outputs": [
        {
          "name": "",
          "type": "uint256"
        }
      ],
      "payable": false,
      "stateMutability": "view",
      "type": "function"
    },
    {
      "constant": true,
      "inputs": [],
      "name": "nonFungibleContract",
      "outputs": [
        {
          "name": "",
          "type": "address"
        }
      ],
      "payable": false,
      "stateMutability": "view",
      "type": "function"
    },
    {
      "constant": false,
      "inputs": [
        {
          "name": "newOwner",
          "type": "address"
        }
      ],
      "name": "transferOwnership",
      "outputs": [],
      "payable": false,
      "stateMutability": "nonpayable",
      "type": "function"
    },
    {
      "inputs": [
        {
          "name": "_nftAddr",
          "type": "address"
        },
        {
          "name": "_cut",
          "type": "uint256"
        }
      ],
      "payable": false,
      "stateMutability": "nonpayable",
      "type": "constructor"
    },
    {
      "anonymous": false,
      "inputs": [
        {
          "indexed": false,
          "name": "seller",
          "type": "address"
        },
        {
          "indexed": false,
          "name": "tokenId",
          "type": "uint256"
        },
        {
          "indexed": false,
          "name": "startingPrice",
          "type": "uint256"
        },
        {
          "indexed": false,
          "name": "endingPrice",
          "type": "uint256"
        },
        {
          "indexed": false,
          "name": "creationTime",
          "type": "uint256"
        },
        {
          "indexed": false,
          "name": "duration",
          "type": "uint256"
        }
      ],
      "name": "AuctionCreated",
      "type": "event"
    },
    {
      "anonymous": false,
      "inputs": [
        {
          "indexed": false,
          "name": "tokenId",
          "type": "uint256"
        },
        {
          "indexed": false,
          "name": "totalPrice",
          "type": "uint256"
        },
        {
          "indexed": false,
          "name": "seller",
          "type": "address"
        },
        {
          "indexed": false,
          "name": "winner",
          "type": "address"
        },
        {
          "indexed": false,
          "name": "time",
          "type": "uint256"
        }
      ],
      "name": "AuctionSuccessful",
      "type": "event"
    },
    {
      "anonymous": false,
      "inputs": [
        {
          "indexed": false,
          "name": "tokenId",
          "type": "uint256"
        },
        {
          "indexed": false,
          "name": "seller",
          "type": "address"
        },
        {
          "indexed": false,
          "name": "time",
          "type": "uint256"
        }
      ],
      "name": "AuctionCancelled",
      "type": "event"
    },
    {
      "anonymous": false,
      "inputs": [],
      "name": "Pause",
      "type": "event"
    },
    {
      "anonymous": false,
      "inputs": [],
      "name": "Unpause",
      "type": "event"
    }
  ],
  "bytecode": "0x608060405260008060146101000a81548160ff0219169083151502179055506001600460006101000a81548160ff0219169083151502179055503480156200004657600080fd5b50604051604080620044ad833981018060405281019080805190602001909291908051906020019092919050505081816000620000b57f1c7c81618d485a82a0eb836daf1d7932e252ea257d6abf0727169125ec0685d5600102620004b3640100000000026401000000009004565b620000f27f310da8f2d16de3dca4307cb51d39c6f82419dc11c783d45ee9e0c07979b207f9600102620004b3640100000000026401000000009004565b6200012f7f317f2b584da14ed23829134c3bac9977fd09a004ef066188bd9a44a50f9253cb600102620004b3640100000000026401000000009004565b336000806101000a81548173ffffffffffffffffffffffffffffffffffffffff021916908373ffffffffffffffffffffffffffffffffffffffff160217905550620001ac7fb52068bfec1f5e5678a9c9b73e3387ebabb35f5efd338cdc13e966c745646d66600102620004b6640100000000026401000000009004565b620001e97fc11ade2fa01c2cde45c89f3656f76144ced3b7c796462340e2a62f9cc9239ad4600102620004b6640100000000026401000000009004565b620002267f12c4a9606d9299c98f4f3757d0ad62443f3f4c88860a337df7a6601fdeb59de4600102620004b6640100000000026401000000009004565b620002637f146141a554d41c32539cdddb0fad4b3afc8bda9ff735fdd999e9eda5dc50c460600102620004b6640100000000026401000000009004565b61271082111515156200027557600080fd5b620002b27f47aa7164b9bbe2f57458ee0113b5b563553b6f257026cf10218cd3f477b93312600102620004b6640100000000026401000000009004565b620002ef7fd9e6739eb215613f3de6151c279488d03871e1f9e0b0d194419ad2507588d84e600102620004b6640100000000026401000000009004565b6200032c7fe45f174a6db6752a741a82127a625bb405716905e29c0c1713c47bb505165f49600102620004b6640100000000026401000000009004565b81600281905550620003707faf8cefa9d2d433877d7dd777aca3360feeb8a0411dd73bcaad51c067c5d06d92600102620004b6640100000000026401000000009004565b620003ad7fd1bb9073ecb6bc43f4d3ce822b28f22b751db36e6594ce552360fef31996ee19600102620004b6640100000000026401000000009004565b829050620003ed7f510667022e2a6b7bff6cd0049d5c2aea55fe468487da8bd475d8c00237419acf600102620004b6640100000000026401000000009004565b6200042a7f48409cfb6ef7822c1168e235cec8c03de12358084af1da9ccc1c35ca0dcd4404600102620004b6640100000000026401000000009004565b80600160006101000a81548173ffffffffffffffffffffffffffffffffffffffff021916908373ffffffffffffffffffffffffffffffffffffffff160217905550505050620004ab7fde9c9ee09cd6f5f06b6470779d51ad7a85ed2ddc08ebd9733dddc932e99fd742600102620004b9640100000000026401000000009004565b5050620004bc565b50565b50565b50565b613fe180620004cc6000396000f3006080604052600436106100db576000357c0100000000000000000000000000000000000000000000000000000000900463ffffffff16806327ebe40a146100e05780633f4ba83a1461014b578063454a2ab31461017a5780635c975abb1461019a5780635fd8c710146101c957806376190f8f146101e057806378bd79351461020f57806383b5ff8b146102985780638456cb59146102c3578063878eb368146102f25780638da5cb5b1461031f57806396b5a75514610376578063c55d0f56146103a3578063dd1b7a0f146103e4578063f2fde38b1461043b575b600080fd5b3480156100ec57600080fd5b5061014960048036038101908080359060200190929190803590602001909291908035906020019092919080359060200190929190803573ffffffffffffffffffffffffffffffffffffffff16906020019092919050505061047e565b005b34801561015757600080fd5b506101606109c2565b604051808215151515815260200191505060405180910390f35b61019860048036038101908080359060200190929190505050610dcb565b005b3480156101a657600080fd5b506101af61105f565b604051808215151515815260200191505060405180910390f35b3480156101d557600080fd5b506101de611072565b005b3480156101ec57600080fd5b506101f5611309565b604051808215151515815260200191505060405180910390f35b34801561021b57600080fd5b5061023a6004803603810190808035906020019092919050505061131c565b604051808673ffffffffffffffffffffffffffffffffffffffff1673ffffffffffffffffffffffffffffffffffffffff1681526020018581526020018481526020018381526020018281526020019550505050505060405180910390f35b3480156102a457600080fd5b506102ad6115cb565b6040518082815260200191505060405180910390f35b3480156102cf57600080fd5b506102d86115d1565b604051808215151515815260200191505060405180910390f35b3480156102fe57600080fd5b5061031d600480360381019080803590602001909291905050506119dc565b005b34801561032b57600080fd5b50610334611e4b565b604051808273ffffffffffffffffffffffffffffffffffffffff1673ffffffffffffffffffffffffffffffffffffffff16815260200191505060405180910390f35b34801561038257600080fd5b506103a160048036038101908080359060200190929190505050611e70565b005b3480156103af57600080fd5b506103ce600480360381019080803590602001909291905050506121a0565b6040518082815260200191505060405180910390f35b3480156103f057600080fd5b506103f9612369565b604051808273ffffffffffffffffffffffffffffffffffffffff1673ffffffffffffffffffffffffffffffffffffffff16815260200191505060405180910390f35b34801561044757600080fd5b5061047c600480360381019080803573ffffffffffffffffffffffffffffffffffffffff16906020019092919050505061238f565b005b610486613f37565b6104b27f1f95a73a5b254e45c8356ec0ee21a3dd831dd1d89494300ecc1000f91c6878c06001026126a5565b6104de7f528c64e770873d9dea23de3d8e6e21865e46f1506e229cdfcfb31ebfc869a49b6001026126a5565b61050a7fcaba2a3277b676b7be6c78a1e439901237a3a6a82375a609b99c057ebd9c88776001026126a5565b6105367f86b2f5353bb9ba8b1070db8aa8cf86e732ef2689ccc9e250acd8462b51a9f5676001026126a5565b846fffffffffffffffffffffffffffffffff168514151561055657600080fd5b6105827f6e9087e9bd519e4af89b4ab3f4c381e2c269754ee0063d50fe54dd33697384426001026126a5565b6105ae7ffec1e6ac0a5b06928e4b34b45ea1bd4020ab32503b4bb8e468eeff0ded34bff26001026126a5565b6105da7f88527d32403f6a7b5ffe1120dec488c5eb16e164fa8673c1d17c0673e920e0d06001026126a5565b6106067f3d4781adec9f89682270fa67c71e06de63ba217831964e3c02497a2cc26e9b946001026126a5565b836fffffffffffffffffffffffffffffffff168414151561062657600080fd5b6106527fb587cda6ba0e44856625b2eb03a6af40128e267ca76223f91eb5604af0488ce96001026126a5565b61067e7f7d0bec8d5d982b69d671ac0b920511a7f73451d3f6b510d2857dda31c78fbea56001026126a5565b6106aa7f7763e162135eae6a5c60177b3a548f858a669e7fa61df45bbb453eb0dfca8d156001026126a5565b6106d67fdf7fec34856ae603bac54ebc8f218ebaa9ccc091a336718d32cd385698ae10206001026126a5565b8267ffffffffffffffff16831415156106ee57600080fd5b61071a7fa13e7c05c532eb37ab390b2a3451e220460a7aeb0345571f6fa86670195bc8956001026126a5565b6107467f651ae1db9a835b835bfa86bcdddee483c7423785964803f4585e2d4b6ab0792d6001026126a5565b6107727f40a17943223977481fbef197812f9ed1b97d36b0657fb3c0dabf38e39bb4b6e36001026126a5565b61079e7f7211eb464c8e41d4420497dfcb836fd9048b5a95867a04fcbcfc06ea595258c76001026126a5565b600160009054906101000a900473ffffffffffffffffffffffffffffffffffffffff1673ffffffffffffffffffffffffffffffffffffffff163373ffffffffffffffffffffffffffffffffffffffff161415156107fa57600080fd5b6108267fbe357fd456a6e3b8d2191cfbd2cfab4f2cbb276df0fcf78f88dd37392f9cd9d16001026126a5565b6108527f0c62f164dfed7ef8410e0928203100384cefaf8190379387f51ee9fdafbf3cf06001026126a5565b61087e7fa48b7e14d74256d86f45096272b1f48197819e3c3be98c72654aa7048b3585766001026126a5565b61088882876126a8565b6108b47f5347097869f20c0996e49f0119a1ca609aa68ca6c1161381ea9b5ed05939ddd66001026126a5565b6108e07f07c74268fda19c08b352027b0659c8f2a1373dbe5de43035305eca960877b6dc6001026126a5565b60a0604051908101604052808373ffffffffffffffffffffffffffffffffffffffff168152602001866fffffffffffffffffffffffffffffffff168152602001856fffffffffffffffffffffffffffffffff1681526020018467ffffffffffffffff1681526020014267ffffffffffffffff1681525090506109847f85d75aa748ef0a5e479546c2eb7a2295334f49d912075f2664b099dfeb28681c6001026126a5565b6109b07f0a63fdf8a5a3cec32820f4d9dfcb5397256102fb9ef10d16438dbb8f67cf2d726001026126a5565b6109ba8682612841565b505050505050565b60006109f07f3af23e3c10b240c6e950d3cccf3bde20e053aa14d112d2bd98ab8c20e02f6e13600102612c00565b610a1c7fd71f93a6e5e885fbf8a6b95b1558452a2f405b07285782b36a8c38e088be5c40600102612c00565b610a487f70104cb81506d70bc1898d6ee645fbe2bf75e053ede2cf4b74e160ce2c58a630600102612c00565b610a747f30286fdf59faf1ac201a29589caa2685d7069400fc8a9ac9cc71adb64868f6ed600102612c00565b6000809054906101000a900473ffffffffffffffffffffffffffffffffffffffff1673ffffffffffffffffffffffffffffffffffffffff163373ffffffffffffffffffffffffffffffffffffffff16141515610acf57600080fd5b610afb7fc04ec288ea82711e4e6a99b105673225e355980eb2b06d007afcc414dbda29b8600102612c00565b610b277f1acad9309e7178f3f3e3a5bbe218d30c8348ad888087bf91d422030a82a85371600102612c00565b610b537f6f426389066b9bfcb1aff3d7f93983488ac972b4cc625f427e3b03397610d8b9600102612c03565b610b7f7ff79b4446a72ccd95c0b7a56b1ba6f16b05f4e60b564e5ebb56db3deff18b1eec600102612c03565b610bab7ff675a56cd6a5976d177a9acf8e426c674401ae7d8bcc40e9ea9c5ec13e6ff38a600102612c03565b610bd77fed366b4a6b96d852b5d27ad4d90172dd8db199312652f736a43557bc0ac16a49600102612c03565b600060149054906101000a900460ff161515610bf257600080fd5b610c1e7f781701e834097f78cc6122aba9ca17ef67cdcc8ed4a909a4d7ae1ca293725d62600102612c03565b610c4a7fed95f215ba75b75ba8d71b6daa903bc793758b871e544f172fc0caa2ac01ffd8600102612c03565b610c767f0168bbbd3e1789ec7a49c882d0c4dcf8bb0679ebe1674db15e8dd425ba09f9eb600102612c03565b610ca27f39566854fca5f38e7ed5d353e110def3bb8b327e668443a915dbd2574f338334600102612c03565b610cce7f178f47d7700d30b1a9c4f53ea5905ecbfc650604844311967caea4afa77f10cc600102612c03565b60008060146101000a81548160ff021916908315150217905550610d147fee76f799fabd2800a49ea54093b79abe56d498ab802dee534d1add586bab8b76600102612c03565b610d407f162692e779983efdeb32bcee6b0b6a22e1c389b555b77c61dc12d7f8523ce24e600102612c03565b7f7805862f689e2f13df9f062ff482ad3ad112aca9e0847911ed832e158c525b3360405160405180910390a1610d987f7e32acd99e8bb91875a8795d10f9eca838b4b8070486a8ea52d6e5688368412c600102612c03565b610dc47f2c0b62f3750beb2a32800fc152535b2aae7174e0cba2aa608e60aca99a689c69600102612c03565b6001905090565b6000610df97f418928e47eebd8ba852e0bfe7c6ae5f3d5f2028a7f3f74b28a094080c565e6526001026126a5565b610e257fd5ffdcb6b1e4896f566b0f4157ede4d8b3616b9555be3afe64f9807bb234a8d86001026126a5565b610e517f6218408ce01a9f7b6e4e9be799bdeabc6cfe5f3791e37be820a98331dd7c4e436001026126a5565b610e7d7fcb9cbd3def06cc3c61653cc2391a42aa5331893a3d1180782a3e0271bea2fea36001026126a5565b600160009054906101000a900473ffffffffffffffffffffffffffffffffffffffff1673ffffffffffffffffffffffffffffffffffffffff163373ffffffffffffffffffffffffffffffffffffffff16141515610ed957600080fd5b610f057f26b261e1de2a51f0108f69c8f5678a3b4cbf846e5ad0c2631c52e068fab960226001026126a5565b610f317f9f9bc0dd71b8399a99adde87743ba5fb4d1542bec3e9db6c3c486b3739dc2cac6001026126a5565b610f5d7fc72cbc9fe9b4629c3e722c94c8acbf3bb18ec47e6c8813b20b0809bc13a68bdb6001026126a5565b6003600083815260200190815260200160002060000160009054906101000a900473ffffffffffffffffffffffffffffffffffffffff169050610fc27fd24c0f5497f80613f9daca87f9aa3deecc13048e4c55136563fcde515a30e0f56001026126a5565b610fee7fdaa63a77bf11f08c93ff8debac5abd0820e3185038c7faa4db6c25c9c57b762a6001026126a5565b610ff88234612c06565b506110257f8d4fe26a5b4036eacbbf574c8669413de9698654fbdc3da3a0534e1668750c346001026126a5565b6110517f61a914f31e602f0aa630773151ba407ef10e4659ac9ffdd32f3a487365a33ac26001026126a5565b61105b81836133f8565b5050565b600060149054906101000a900460ff1681565b6000806110a17f8bb718790f71d8268b8b02cf908d57c4844d4e30dcfbc15292f851533017fd8c60010261355d565b6110cd7ff5238708a3cf42d25ead6cab30d4ac690e2e463676cc04e2ccdfa77e3f492b5160010261355d565b6110f97f4616d895d2ee490b5a2a0dae3dda48c995817a635102fd3a366bc38667ff44d360010261355d565b600160009054906101000a900473ffffffffffffffffffffffffffffffffffffffff16915061114a7f4334833706043e0c85842af47b5e4f84db727c54017755eafaecb30b81c48e5b60010261355d565b6111767f010cee23367074e65446974cbdb06198d0877bd0f432da6d594965f99d48afa960010261355d565b6111a27fbcf087a0d755bd68f2018f8541b5b7c22615e1e838404c2001401c6eb963fe1860010261355d565b6000809054906101000a900473ffffffffffffffffffffffffffffffffffffffff1673ffffffffffffffffffffffffffffffffffffffff163373ffffffffffffffffffffffffffffffffffffffff16148061122857508173ffffffffffffffffffffffffffffffffffffffff163373ffffffffffffffffffffffffffffffffffffffff16145b151561123357600080fd5b61125f7fdba454e168659e758982fdf8995125b7abcb92abd3bd876f1f618a7303de95f160010261355d565b61128b7feb8a8ac2d3fcbaa08e9acead8a7ac0918c827083cefbf5752926a0aec031c52860010261355d565b6112b77f10c82473e958cc6238e8d05ddc9cb9915e698e47796abc0a29ab3609703a8a1d60010261355d565b8173ffffffffffffffffffffffffffffffffffffffff166108fc3073ffffffffffffffffffffffffffffffffffffffff16319081150290604051600060405180830381858888f1935050505090505050565b600460009054906101000a900460ff1681565b6000806000806000806113517f0562ce2602d1684b7f66b47a2d03a0f75d227a016365f2fcc0169d2d729ec45360010261355d565b61137d7f5a88a950160c13f6112af1e543b2b40172fc75965661707f4b1fdab9d64f6e9b60010261355d565b6113a97fc972905323ba127c3b497d0c7c5f21b89c26d577b36dc23aef4270a877788f5360010261355d565b6003600088815260200190815260200160002090506113ea7fd4a9620194096c67952f0fad4417d179ab73abf442ec8aa1ff30a057b995f97860010261355d565b6114167f1878ab856750f9f09abc69bc69498653805c1aa9461594fe9df5048ef8bd407660010261355d565b6114427f76c3a02ad22a83a9f7adf60d7d4bf560a3b9d404dbd1f8ebc12b7bd63482255560010261355d565b61144b81613560565b151561145657600080fd5b6114827f829de5ae3b16a37921c75d1faa4adeea8e9a11a577ecb67d8489133c94bf34df60010261355d565b6114ae7faaf0e6cf60ab6350f468c61dfbceb51539cbc45e05729f080b7b8d03ba6fa94a60010261355d565b6114da7fcfe49ea9a3139f4c6b8dcec6c05c3c835ad20159c5cc3309c6d9473c04c541d760010261355d565b8060000160009054906101000a900473ffffffffffffffffffffffffffffffffffffffff168160010160009054906101000a90046fffffffffffffffffffffffffffffffff168260010160109054906101000a90046fffffffffffffffffffffffffffffffff168360020160009054906101000a900467ffffffffffffffff168460020160089054906101000a900467ffffffffffffffff16836fffffffffffffffffffffffffffffffff169350826fffffffffffffffffffffffffffffffff1692508167ffffffffffffffff1691508067ffffffffffffffff169050955095509550955095505091939590929450565b60025481565b60006115ff7f3af23e3c10b240c6e950d3cccf3bde20e053aa14d112d2bd98ab8c20e02f6e13600102612c00565b61162b7fd71f93a6e5e885fbf8a6b95b1558452a2f405b07285782b36a8c38e088be5c40600102612c00565b6116577f70104cb81506d70bc1898d6ee645fbe2bf75e053ede2cf4b74e160ce2c58a630600102612c00565b6116837f30286fdf59faf1ac201a29589caa2685d7069400fc8a9ac9cc71adb64868f6ed600102612c00565b6000809054906101000a900473ffffffffffffffffffffffffffffffffffffffff1673ffffffffffffffffffffffffffffffffffffffff163373ffffffffffffffffffffffffffffffffffffffff161415156116de57600080fd5b61170a7fc04ec288ea82711e4e6a99b105673225e355980eb2b06d007afcc414dbda29b8600102612c00565b6117367f1acad9309e7178f3f3e3a5bbe218d30c8348ad888087bf91d422030a82a85371600102612c00565b6117627fbe58eebb92eb883773e29b7762ec4934b6ea7a02e32781ce65b2618dd7cc15a3600102612c03565b61178e7f2d19d859830746fe55b6b40ed45709585922e9464b96259cd1792cb99bce49c9600102612c03565b6117ba7fc55d784e4ee7927ddddd424ac23ba7d722e078290cf70ba66cf978c9d9c9ccae600102612c03565b6117e67fd4ceb1e409ca88a3c9c3e455853ddc5156589bbd45c3cf64700915b67a2e9156600102612c03565b600060149054906101000a900460ff1615151561180257600080fd5b61182e7f56096fba84bb591301d35380713828d102bd55f1e32b801fbfc60adffa98eeea600102612c03565b61185a7f9860ccde9c00f67c72d4cd658a3e86188d504fbb1ee2946961eca701acfb98c2600102612c03565b6118867fedf587d938915592678647808f0b9f7903b8a9c79cedf06e6bb4b875c7950769600102612c03565b6118b27f4c2acfb0103e7545fc4526d049e77f76743ac4978f4c40fcadb8d0b483732b90600102612c03565b6118de7f3da88813166c08be0b70d2da3b419e2e0dd46cbe6ca1a417c8982344e0e1144b600102612c03565b6001600060146101000a81548160ff0219169083151502179055506119257f4a021c48cc3cd84afb1a60032a0cb39e3ca37eee5f9001682df1fab0ae537961600102612c03565b6119517fb9148225311cf489f9ba3758785528e6c743bbfb94ab44df3a3d2f935c901c5c600102612c03565b7f6985a02210a168e66602d3235cb6db0e70f92b3ba4d376a33c0f3d9434bff62560405160405180910390a16119a97fd48053f45cecab97da2e90044886327da4e6241ad49ee8dbc69df6eecca10055600102612c03565b6119d57f25e79472825041fbaa144fb89f6ca3e91d44a39344d12bfb64b4f23bff3c472a600102612c03565b6001905090565b6000611a0a7f6f426389066b9bfcb1aff3d7f93983488ac972b4cc625f427e3b03397610d8b9600102612c03565b611a367ff79b4446a72ccd95c0b7a56b1ba6f16b05f4e60b564e5ebb56db3deff18b1eec600102612c03565b611a627ff675a56cd6a5976d177a9acf8e426c674401ae7d8bcc40e9ea9c5ec13e6ff38a600102612c03565b611a8e7fed366b4a6b96d852b5d27ad4d90172dd8db199312652f736a43557bc0ac16a49600102612c03565b600060149054906101000a900460ff161515611aa957600080fd5b611ad57f781701e834097f78cc6122aba9ca17ef67cdcc8ed4a909a4d7ae1ca293725d62600102612c03565b611b017fed95f215ba75b75ba8d71b6daa903bc793758b871e544f172fc0caa2ac01ffd8600102612c03565b611b2d7f3af23e3c10b240c6e950d3cccf3bde20e053aa14d112d2bd98ab8c20e02f6e13600102612c00565b611b597fd71f93a6e5e885fbf8a6b95b1558452a2f405b07285782b36a8c38e088be5c40600102612c00565b611b857f70104cb81506d70bc1898d6ee645fbe2bf75e053ede2cf4b74e160ce2c58a630600102612c00565b611bb17f30286fdf59faf1ac201a29589caa2685d7069400fc8a9ac9cc71adb64868f6ed600102612c00565b6000809054906101000a900473ffffffffffffffffffffffffffffffffffffffff1673ffffffffffffffffffffffffffffffffffffffff163373ffffffffffffffffffffffffffffffffffffffff16141515611c0c57600080fd5b611c387fc04ec288ea82711e4e6a99b105673225e355980eb2b06d007afcc414dbda29b8600102612c00565b611c647f1acad9309e7178f3f3e3a5bbe218d30c8348ad888087bf91d422030a82a85371600102612c00565b611c907f2e1d26878e5cf23380aa9bd3996577eb519f58d8a0f8dd95157035ff7fa7ff0060010261355d565b611cbc7f951f61f9fa103e683c90b2d796f28d37c3d590382558cbb88b748dc22e5187fd60010261355d565b611ce87f71f73a2bb793eb5be1888e29d56b0e53c0f815732b3160eb8573173782e039ac60010261355d565b600360008381526020019081526020016000209050611d297f129287c24b5380d616c622897ab28ffc13a99f821556d58a8daa352154ebba8e60010261355d565b611d557f55db4ce9bb640b4d26f16b2ee89785e5a470f49fe8bce91c9ec7f0ae42a7c0eb60010261355d565b611d817fe13850a4814f0cc58c24878a47d5b2c6df295b962db098a74495c22169074e2760010261355d565b611d8a81613560565b1515611d9557600080fd5b611dc17f67ae2c31aef268057114534ade5ec4fa47c3ae7e8128533587c60d86dc44ca2660010261355d565b611ded7f4a2628a67fd3e474384df0c5b70fbc62f2337477a866235768e3b6854e60af2260010261355d565b611e197f19528b29bf91362fd9041e622a08034a8aadb0510afdeb545cb8fdc9c3b16de060010261355d565b611e47828260000160009054906101000a900473ffffffffffffffffffffffffffffffffffffffff16613613565b5050565b6000809054906101000a900473ffffffffffffffffffffffffffffffffffffffff1681565b600080611e9f7f509be30d6593ce83b99f1b20fd594a616a2704181d3f1b66fa258b8c6cf0427f60010261355d565b611ecb7fcf24fa73d88529c5172dae3608a7f54306ba019871d7dc9d1b762a7cbc801d4a60010261355d565b611ef77f6282d864c24010098c9faa78af9667d53604b27270e8076464d926cddca0ad4060010261355d565b600360008481526020019081526020016000209150611f387f7b0b3f1f303d6f963c68db45ac8378423628714a593a02394760a98e7e31bbca60010261355d565b611f647f6c88ad474b5db54374a11d0455aca5caf4639a6602bfc030b53c60b99ae7933160010261355d565b611f907f9ecb764f8a2e559ffa58ef9e193249c2d38f47f16105149cd8cf7dad61437f5660010261355d565b611f9982613560565b1515611fa457600080fd5b611fd07f2015bd8cf839a94d9b6262d2e9dbd7da059ab57db276b39e49a04a6f20c87b2f60010261355d565b611ffc7f531cd48cbe86e35c409b27ebcd541eda23b9a8e5d0db51b7eb6852e970ef739360010261355d565b6120287fc5273ee9887f8da7ee21220e2431677fd243a7b6b85d94082b11fbbebcc82e6560010261355d565b8160000160009054906101000a900473ffffffffffffffffffffffffffffffffffffffff16905061207b7f9e363f7c408c7d7c9d666eea084a27aa8b0a98e598304f96feffb5a06afac67560010261355d565b6120a77f15bf964398009a92c177bef06a16aac2d05d4d557c48c725467fc1bbc83854d360010261355d565b6120d37f7c97838a19f7b45e185fc81bf568e8cc355bcc68603712b9df7def493f11ad5660010261355d565b8073ffffffffffffffffffffffffffffffffffffffff163373ffffffffffffffffffffffffffffffffffffffff1614151561210d57600080fd5b6121397f24cff2a15e5f8d7bf62f1ebf991a4d81a4f44216effc90e1a8a062d931f92cff60010261355d565b6121657f2f6da66deeb0934b2fac2f152648618b7a98cf8421b8875e8bb43612236fe0ea60010261355d565b6121917f287e265e3090d8c713a4344539b51d04fbfc82cfa99403c90f20e4fb61989a6d60010261355d565b61219b8382613613565b505050565b6000806121cf7fa965b6600f275775ae0813a1e0e0b59d81bfda810178d36c93fa384e04872a8c60010261355d565b6121fb7ffcb83f0c826633ef1e0fdc15b81b172144c8bc8762cf5848d4c9b308a28f711160010261355d565b6122277ff40d8f3782c285237dafca8227b0b143df1d24f20638a01df7742b3b22d4ed9460010261355d565b6003600084815260200190815260200160002090506122687f38839fd99aaf5483c7f8b791c166ed91cea3f543e6e9bf023b5d69afbeedc41960010261355d565b6122947fc9cbcc48a0765b43e21ed0162b06eca5491c84465fb16627cb66b2771d9cf36f60010261355d565b6122c07ffa8a879b7b80504d50871abce8637b8f32edcedc950b3de508e4905ee692aa7660010261355d565b6122c981613560565b15156122d457600080fd5b6123007f0904ab2be551c8171719f51ad07643ccf17e69dce06b4c039dce1a0b11f07cde60010261355d565b61232c7fa34c363998c79721fef2b6471d4430358c972626801996481de60abe1461613d60010261355d565b6123587fa0b22be558ce7f76359a39d53711e62ec5c828109220b2dfc10f8f308a22831b60010261355d565b612361816137d1565b915050919050565b600160009054906101000a900473ffffffffffffffffffffffffffffffffffffffff1681565b6123bb7f3af23e3c10b240c6e950d3cccf3bde20e053aa14d112d2bd98ab8c20e02f6e13600102612c00565b6123e77fd71f93a6e5e885fbf8a6b95b1558452a2f405b07285782b36a8c38e088be5c40600102612c00565b6124137f70104cb81506d70bc1898d6ee645fbe2bf75e053ede2cf4b74e160ce2c58a630600102612c00565b61243f7f30286fdf59faf1ac201a29589caa2685d7069400fc8a9ac9cc71adb64868f6ed600102612c00565b6000809054906101000a900473ffffffffffffffffffffffffffffffffffffffff1673ffffffffffffffffffffffffffffffffffffffff163373ffffffffffffffffffffffffffffffffffffffff1614151561249a57600080fd5b6124c67fc04ec288ea82711e4e6a99b105673225e355980eb2b06d007afcc414dbda29b8600102612c00565b6124f27f1acad9309e7178f3f3e3a5bbe218d30c8348ad888087bf91d422030a82a85371600102612c00565b61251e7f3da3041bee5c96395c6945509c18086e60c9be17c79655ec94bc76742468f5d4600102612c00565b61254a7fd0cda83544c7641d84a8bac269f9281732b7bef56cc5779f4b624c89f722f80d600102612c00565b6125767fe4326208aaecc705f810ae48bc5a15eec688dde9d59b36eaf160d8d48b5336a7600102612c00565b600073ffffffffffffffffffffffffffffffffffffffff168173ffffffffffffffffffffffffffffffffffffffff16141515612675576125d87f282a1d704d9f3ec62fe6726ea5bc3137d0cdf87f2c1a6859f9475a921910d65a600102612c00565b6126047f24928a8924b02c2f0b1081816df56a3762dc80b63139e53ad52a6e170fd2fc43600102612c00565b6126307ff1aa7d0b9e9a2eb0a08651f720d99cba79e9e019953d3e94236f86e86aec8c5e600102612c00565b806000806101000a81548173ffffffffffffffffffffffffffffffffffffffff021916908373ffffffffffffffffffffffffffffffffffffffff1602179055506126a2565b6126a17f3354cf083f2c57306162cb88f65d37c6ec066bb9020e54e01cf36fa1337426ea600102612c00565b5b50565b50565b6126d47ff8b0885d8166ffcce17fd7b92ade3cd1cdf5fef82f41e3ce9e6635967d6352b1600102613aad565b6127007fe007a060bf98f3d61b3df5c010ada1c7f98f878efc9caf10c388e8164e5347ec600102613aad565b61272c7ffececef83b1329b453b9d2057baa7b0ecf209bd07a8e9d3ef6ed75f541095c68600102613aad565b600160009054906101000a900473ffffffffffffffffffffffffffffffffffffffff1673ffffffffffffffffffffffffffffffffffffffff166323b872dd8330846040518463ffffffff167c0100000000000000000000000000000000000000000000000000000000028152600401808473ffffffffffffffffffffffffffffffffffffffff1673ffffffffffffffffffffffffffffffffffffffff1681526020018373ffffffffffffffffffffffffffffffffffffffff1673ffffffffffffffffffffffffffffffffffffffff1681526020018281526020019350505050600060405180830381600087803b15801561282557600080fd5b505af1158015612839573d6000803e3d6000fd5b505050505050565b61286d7fdbc62094ba1ef0723e22d47df145d9c504185f42ff8156facc71de62f3e2e305600102613aad565b6128997fb404b50fa01ced859a899788607a4caa71018c14d852785f40b5707b65384808600102613aad565b6128c57fc1a727bf620a42532ba29cbb27faab168d6ce548f0c5bae8ba51be35ac4eeb08600102613aad565b6128f17f59e2a856a876c813a7d28adc4cf6f3aa0a638742002ad4b6adde8eebb2d36a07600102613aad565b603c816060015167ffffffffffffffff161015151561290f57600080fd5b61293b7f2858aef1fbc0c3efdf898cadded68c15a15bca7414a03ae44183ebe51351866c600102613aad565b6129677f55d4c0d6df3e92e2d0863c4b72d5ce23bc8814ab5b59b8d5f7dacee29c434447600102613aad565b6129937f6810552fb1f50cec938486ecec765c8fec441c561244a1c29daa68d6a311a689600102613aad565b806003600084815260200190815260200160002060008201518160000160006101000a81548173ffffffffffffffffffffffffffffffffffffffff021916908373ffffffffffffffffffffffffffffffffffffffff16021790555060208201518160010160006101000a8154816fffffffffffffffffffffffffffffffff02191690836fffffffffffffffffffffffffffffffff16021790555060408201518160010160106101000a8154816fffffffffffffffffffffffffffffffff02191690836fffffffffffffffffffffffffffffffff16021790555060608201518160020160006101000a81548167ffffffffffffffff021916908367ffffffffffffffff16021790555060808201518160020160086101000a81548167ffffffffffffffff021916908367ffffffffffffffff160217905550905050612af97f79b7117434ea030772fa2d4f1d9f2381aa42fa8331d277a56e6fc910d0a6ac94600102613aad565b612b257fe0e22e5ba4c0e0d098889e0b9674d97a79310723d6cd7292cba4b3fec874291b600102613aad565b7fabdd2430f9e10eb5db384c1218c42f980dd5fcda760a680a0d95ec506f0963cb81600001518383602001516fffffffffffffffffffffffffffffffff1684604001516fffffffffffffffffffffffffffffffff16856080015167ffffffffffffffff16866060015167ffffffffffffffff16604051808773ffffffffffffffffffffffffffffffffffffffff1673ffffffffffffffffffffffffffffffffffffffff168152602001868152602001858152602001848152602001838152602001828152602001965050505050505060405180910390a15050565b50565b50565b6000806000806000806000612c3d7fa8a0bdc9ba25dc45d0ac53357911d8d22d3d6f94dd7c73b95bfdc3fbe7cf7f24600102613aad565b612c697f591d6394955449dd8427ff7132c223bc2423ac70193d05daa3ba76410b171956600102613aad565b612c957f31eda19b07d9f2949439806ff03c1870c94dabf3d8a3f6f5348c452df45e9d9e600102613aad565b600360008a81526020019081526020016000209550612cd67f9340a40d714dcba2fc673bb938af0a79667805c7fe72134d40444e4d803a5346600102613aad565b612d027f3604cbd47cb60aae69c9e04a883c6cf1cec662cdaa5f990339202ffac9e73628600102613aad565b612d2e7f4e22ed36f8c069bb49e9faa36d11c4a8e2c5636332bbf41ea2da68f21b1aa64d600102613aad565b612d3786613560565b1515612d4257600080fd5b612d6e7fc03b70d4fd2315bb1570b951e9a092dd681598d0d9c0aeea1e2503eb8a6392a2600102613aad565b612d9a7f61d3a56de6fa7f0c252b4c8f4f4abcb148305455f16d25ba0289dc822bf6c284600102613aad565b612dc67f6e14646facb5dc8985094905e1daee573ca8085b47ec759f52ae53cc94fa84ad600102613aad565b612dcf866137d1565b9450612dfd7f05058c448d923b955c60123845901d2f20682b949d7da65fef6250b866e79a32600102613aad565b612e297f8df0d7eb19790c949c6d53ac1447fa5398f4e16bb6617bd7121dc9a886b1f938600102613aad565b612e557f8d1ea7a73959d984d4176b1c8c500d290cd8b54a5698f18e104bd475abe360e8600102613aad565b848810151515612e6457600080fd5b612e907fae8037ffe3bd58da40524937a98403d01fb59ab25dd5486b47b4269322c46616600102613aad565b612ebc7f343ec7f1de6268152f343350866e77009676d6ba90d4160a94a0f5fc61f866a5600102613aad565b612ee87fdb31a7c14a650dfef2a37772e3528df962c81888bfbae35eb3a1c2e55b6411db600102613aad565b8560000160009054906101000a900473ffffffffffffffffffffffffffffffffffffffff169350612f3b7f8466ac37d3ad03a9d8abe14368e8c75673e5309769e54d3e40ed4a4dd65e2ae2600102613aad565b612f677f0e41aa8fce31aecf08b3879eee1ae0a2f32a3fe34707b9a04ad2f1fd60402250600102613aad565b612f7089613ab0565b612f9c7f908f4fbe1c1bf53cf5467872f6ae12611f98679f42bee83cd703b10e2f0e5aea600102613aad565b612fc87f5a3a5cae046d8f1d61b659373d0a386fdfd869722703854f2c18ff2e22d9b68a600102613aad565b600085111561316157612ffd7f056fba43f5d8f2e85bff6a8bcf39e00ed2f8fadecdeb28a188363921cf996f07600102613aad565b6130297f70429298c83ab3d38fc7bf580649fa83bdbe9e5f94f30f2f89e6c8943db72f0f600102613aad565b6130557f7c19aec90ebd83069f0d6161452b83bb19f7b0894843eb22c7add68f20d0b2ee600102613aad565b61305e85613bc4565b925061308c7fa46ec0b7ac46aab767eed72f7e6b5f07be4b7838e5c95e6622256132a258d6a2600102613aad565b6130b87fb68bbc2f543c706e1dd1bfad956f7a76cf81374651f3ddb13145243f91380fce600102613aad565b82850391506130e97f8a0ae4f38cc22666bfce83d518b660576fe83ba2c09b5e42d149e55856cb9ad6600102613aad565b6131157f2879c4e4790e5111f823fde38ac1b707bec6fa28ef415154b8459f93a700ae6e600102613aad565b8373ffffffffffffffffffffffffffffffffffffffff166108fc839081150290604051600060405180830381858888f1935050505015801561315b573d6000803e3d6000fd5b5061318e565b61318d7f5324c09af256d86dba5a01ba9753d3a892a8fc8211e78e414907b68beedb4357600102613aad565b5b6131ba7fef0a922340a44eda5ba65fb5f677f5c6d1db64fff4b7d19101db4debc815a981600102613aad565b6131e67f9d26c2b45ad5e0ee76cdda980aefd38b160afb0f0cd0f2c71c598553fb6e6f47600102613aad565b84880390506132177f5078b4b6a87e61352882f3c83b969c3178c0648d6b05d19637804098a06781cd600102613aad565b6132437fd2cc6552d5f93f317c148a0d708e4627ed75174e064722f832ce9707a63da6eb600102613aad565b3373ffffffffffffffffffffffffffffffffffffffff166108fc829081150290604051600060405180830381858888f19350505050158015613289573d6000803e3d6000fd5b506132b67fc575ea812a4dec6b0264d1a60c86082348135292e0366737aa4ddc6cc6c41e15600102613aad565b6132e27f7cc1eaadc7143172196145cb8c8757f0a1216610dc3a0c15dc5ea2ee6eff5da5600102613aad565b7fc2a394cb356728b3540b84dee72ea6de41f44fd94de223565258efe1549ee06f8986863342604051808681526020018581526020018473ffffffffffffffffffffffffffffffffffffffff1673ffffffffffffffffffffffffffffffffffffffff1681526020018373ffffffffffffffffffffffffffffffffffffffff1673ffffffffffffffffffffffffffffffffffffffff1681526020018281526020019550505050505060405180910390a16133bd7f4f56af37a327bbee363ab46c43f54ceddc8eb392e03aff07fd4265f8e10876ab600102613aad565b6133e97f608b48106628570506333bf2cdb03c339ae2f2c4ed68667048339303e6d7ad05600102613aad565b84965050505050505092915050565b6134247f8c729022d5edadf62403d44ca4eb2603b62cb436803881f23fad86990cfc00a8600102613aad565b6134507f03cbf1e9d5c1a1c12f267cc19b94f4f1c5ef452e14d63ebba968304580ab7b82600102613aad565b61347c7fe213ed01c45166ecd91bffcba0b753a5516cbb29b53be13e114cf6afa47ad93a600102613aad565b600160009054906101000a900473ffffffffffffffffffffffffffffffffffffffff1673ffffffffffffffffffffffffffffffffffffffff1663a9059cbb83836040518363ffffffff167c0100000000000000000000000000000000000000000000000000000000028152600401808373ffffffffffffffffffffffffffffffffffffffff1673ffffffffffffffffffffffffffffffffffffffff16815260200182815260200192505050600060405180830381600087803b15801561354157600080fd5b505af1158015613555573d6000803e3d6000fd5b505050505050565b50565b600061358e7f6cadd72e4e54158d469d0a9d385f8733f6c3f5c65f3c5f042b8ee9db9856d3ee600102613aad565b6135ba7fcf0c8e9240fc16cdbef73a63b0c784b30795ab79558f757d45418797911237a6600102613aad565b6135e67f9eae081e84a9be77309cc3b320c47d2a43e79991dc10e6294310d7a4aee9e2fa600102613aad565b60008260020160089054906101000a900467ffffffffffffffff1667ffffffffffffffff16119050919050565b61363f7f1533a5573e0695e409b4918028a8a6336fee829f4e3791724bdefbede2606e0e600102613aad565b61366b7f311820e553f8b376cd83e53c5541e36cafc950808c08ea6da486bacc297c1ebe600102613aad565b6136977ff3d8ac2f1acfd3cb73dfdcbb98365b101c2f85d07f853594f1beb655ee0aca12600102613aad565b6136a082613ab0565b6136cc7f6f4517ed56a64aa00163865e1009f4b5ab08d340d47830a5c04adc9801936529600102613aad565b6136f87f3ec9a111154b2bfe16bf6deb7cf9e6686deb34019bccd679a435de0dbf0811ea600102613aad565b61370281836133f8565b61372e7fee4db020004925ba669ef36621f68acaebfe06a6f2c1cbb9823f136a9608c80a600102613aad565b61375a7fad8f7ba9c40608e0f2878033e46de55bb8114ed532753e0fd11fead3f3b0df2e600102613aad565b7f6a3d5a07d548e27ae884a742682e9b929c0a0e4040990bc28c04637c5c077104828242604051808481526020018373ffffffffffffffffffffffffffffffffffffffff1673ffffffffffffffffffffffffffffffffffffffff168152602001828152602001935050505060405180910390a15050565b6000806138007f77a0264a83574523c26b6f44fc80f4f50615571f08ce4c370a380e971ed73a19600102613aad565b61382c7f5525b4ba0cc75e0cf9b6e66987d860c0a7a3e23560137a7c2dc47286d55ad268600102613aad565b6138587f83e52570082786d592ed21e8f5d2958000db5d8e43a2fbbc3af855b7279023c2600102613aad565b600090506138887fc0071c49cbcd5d7fa91cc839704f83d5eb2f2b3068c35de36a5fcc7c47b90898600102613aad565b6138b47fe6d8fd964cfbc7d59f9a681bf5850b357a2a583213f9aefa0627f75a3efb49a7600102613aad565b8260020160089054906101000a900467ffffffffffffffff1667ffffffffffffffff1642111561398e5761390a7f05812439daba1737f3a6892a88bd1661f233d3c70667cbd3d2620d90161e6ff4600102613aad565b6139367f4d0c1fb85e39d26683154737f03e527d1dc47f3f9db1a6ebd7749479ea3bfa65600102613aad565b6139627f160ff84389cd6a60e31a57ba42ac27063e8a27c1e05c7a4997188076d438f83b600102613aad565b8260020160089054906101000a900467ffffffffffffffff1667ffffffffffffffff16420390506139bb565b6139ba7fdfcaa0917136e601ff73cd2fbcffe8337483fc618d497574915b0bf84142c11f600102613aad565b5b6139e77f4998c8aaba6d2f5935db2374dab039dcb9020ad8976e4e7e67f0336f5ec03714600102613aad565b613a137ffbec789e371c8bf3767cfdcbbd0de7142c438b7b5dd9728b3a2bdfb4f0de313e600102613aad565b613aa58360010160009054906101000a90046fffffffffffffffffffffffffffffffff166fffffffffffffffffffffffffffffffff168460010160109054906101000a90046fffffffffffffffffffffffffffffffff166fffffffffffffffffffffffffffffffff168560020160009054906101000a900467ffffffffffffffff1667ffffffffffffffff1684613c63565b915050919050565b50565b613adc7f6d67a2bb66ecdee13fff36ca8a7e5556e561fc39ca5a608a2747452e08f910f9600102613aad565b613b087faa2225c45f35dc911b6ade5a9a188f0d11c6d713b62bdbc0698ee05432a6a0f8600102613aad565b60036000828152602001908152602001600020600080820160006101000a81549073ffffffffffffffffffffffffffffffffffffffff02191690556001820160006101000a8154906fffffffffffffffffffffffffffffffff02191690556001820160106101000a8154906fffffffffffffffffffffffffffffffff02191690556002820160006101000a81549067ffffffffffffffff02191690556002820160086101000a81549067ffffffffffffffff0219169055505050565b6000613bf27f42c352bc07e9d182a1889447e5eba95e320c801420c01a93aa88a92d9bb47307600102613aad565b613c1e7f49955a8bcf3044a8a3787525f3f5bbce99c2dd1dcf971d04d5d5b68dfc6e9ede600102613aad565b613c4a7f929a6e4ae75123b2008d132251932640e2db1a5b9947bc8a73b537784799ffbd600102613aad565b6127106002548302811515613c5b57fe5b049050919050565b600080600080613c957ffe3be9cb39ab4e4ddb0969665fde90bdc74bdfec348d1d5861b599f5d81e5419600102613aad565b613cc17f044c767a25812e6af82df1627cee6412854bdb37cb020050dbe78d2bbc9b4b60600102613aad565b613ced7fa35d3581ad6c92b0961ed54dbcd22706e9491fb470e37f8eacd12926a66acf40600102613aad565b8585101515613d8257613d227ff59fb3dece579282404df794f0a69ee13efa0421e05ff228532221b95757514b600102613aad565b613d4e7fb1f267194a0cdf7a145b96bf106a51e985fbd99d60c77412c0d8b6b5d64db401600102613aad565b613d7a7ff55de78ea6af20abfa016ebf0293bcb4d718d925f1db2b249791a92769ceaa21600102613aad565b869350613f2c565b613dae7f309bef6a89fa4e9c2d4d6daf7f0656db8e7fb89922c9ecca28484bc510861b38600102613aad565b613dda7fdf999d9f067541622c65a61d5ebe6e5cacd181d4d99000e6ba167f380bdfd3d1600102613aad565b613e067ff9ca719a084bb7bb23a8545e1340bd9aeb1a054f20b6f9ba31c8357e26b75cbd600102613aad565b8787039250613e377f19057dce4d7369d1ad297ad10c8c99c87350b12de1300d50077a8bcb9e82f242600102613aad565b613e637f29ea8871c9f02e2034580826544522453652dd7b5f92374ae086cf3bd6a23ff0600102613aad565b85858402811515613e7057fe5b059150613e9f7f29b5ef8cceb6a010a76e4c180e40e373b30b3c804c7c9d6d1f06bdd788068bff600102613aad565b613ecb7f1c8b0630a41448f374e9a6c5a9c540489e20750f68b02256e99f13d7faeb3092600102613aad565b8188019050613efc7f583cdb4678fb2cbbe1e7d3870833b2743d93809fe1f22d2294a8843596cc4833600102613aad565b613f287f60254bb059b068a6f27d7362c474c382facb09c2fff980d0d776b8be82a7a4e8600102613aad565b8093505b505050949350505050565b60a060405190810160405280600073ffffffffffffffffffffffffffffffffffffffff16815260200160006fffffffffffffffffffffffffffffffff16815260200160006fffffffffffffffffffffffffffffffff168152602001600067ffffffffffffffff168152602001600067ffffffffffffffff16815250905600a165627a7a72305820edd033d0e8c77f8c7f0e6f68105412242fd3bf8f01dcddcb88ff1288dcfba3c40029",
  "linkReferences": {},
  "deployedLinkReferences": {}
}