{
  "_format": "hh-sol-artifact-1",
  "contractName": "NFTWrapper",
  "sourceName": "contracts/Wrapper.sol",
  "abi": [
    {
      "inputs": [
        {
          "internalType": "address",
          "name": "botCoreAddress",
          "type": "address"
        },
        {
          "internalType": "string",
          "name": "baseURI",
          "type": "string"
        },
        {
          "internalType": "string",
          "name": "contractURI",
          "type": "string"
        }
      ],
      "stateMutability": "nonpayable",
      "type": "constructor"
    },
    {
      "anonymous": false,
      "inputs": [
        {
          "indexed": true,
          "internalType": "address",
          "name": "owner",
          "type": "address"
        },
        {
          "indexed": true,
          "internalType": "address",
          "name": "approved",
          "type": "address"
        },
        {
          "indexed": true,
          "internalType": "uint256",
          "name": "tokenId",
          "type": "uint256"
        }
      ],
      "name": "Approval",
      "type": "event"
    },
    {
      "anonymous": false,
      "inputs": [
        {
          "indexed": true,
          "internalType": "address",
          "name": "owner",
          "type": "address"
        },
        {
          "indexed": true,
          "internalType": "address",
          "name": "operator",
          "type": "address"
        },
        {
          "indexed": false,
          "internalType": "bool",
          "name": "approved",
          "type": "bool"
        }
      ],
      "name": "ApprovalForAll",
      "type": "event"
    },
    {
      "anonymous": false,
      "inputs": [
        {
          "indexed": false,
          "internalType": "string",
          "name": "value",
          "type": "string"
        }
      ],
      "name": "BaseURISet",
      "type": "event"
    },
    {
      "anonymous": false,
      "inputs": [
        {
          "indexed": false,
          "internalType": "string",
          "name": "value",
          "type": "string"
        }
      ],
      "name": "ContractURISet",
      "type": "event"
    },
    {
      "anonymous": false,
      "inputs": [
        {
          "indexed": true,
          "internalType": "address",
          "name": "previousOwner",
          "type": "address"
        },
        {
          "indexed": true,
          "internalType": "address",
          "name": "newOwner",
          "type": "address"
        }
      ],
      "name": "OwnershipTransferred",
      "type": "event"
    },
    {
      "anonymous": false,
      "inputs": [
        {
          "indexed": true,
          "internalType": "address",
          "name": "from",
          "type": "address"
        },
        {
          "indexed": true,
          "internalType": "address",
          "name": "to",
          "type": "address"
        },
        {
          "indexed": true,
          "internalType": "uint256",
          "name": "tokenId",
          "type": "uint256"
        }
      ],
      "name": "Transfer",
      "type": "event"
    },
    {
      "inputs": [
        {
          "internalType": "address",
          "name": "to",
          "type": "address"
        },
        {
          "internalType": "uint256",
          "name": "tokenId",
          "type": "uint256"
        }
      ],
      "name": "approve",
      "outputs": [],
      "stateMutability": "nonpayable",
      "type": "function"
    },
    {
      "inputs": [
        {
          "internalType": "address",
          "name": "owner",
          "type": "address"
        }
      ],
      "name": "balanceOf",
      "outputs": [
        {
          "internalType": "uint256",
          "name": "",
          "type": "uint256"
        }
      ],
      "stateMutability": "view",
      "type": "function"
    },
    {
      "inputs": [],
      "name": "botCore",
      "outputs": [
        {
          "internalType": "contract IBotCore",
          "name": "",
          "type": "address"
        }
      ],
      "stateMutability": "view",
      "type": "function"
    },
    {
      "inputs": [
        {
          "internalType": "uint256",
          "name": "tokenId",
          "type": "uint256"
        }
      ],
      "name": "getApproved",
      "outputs": [
        {
          "internalType": "address",
          "name": "",
          "type": "address"
        }
      ],
      "stateMutability": "view",
      "type": "function"
    },
    {
      "inputs": [
        {
          "internalType": "uint256",
          "name": "_id",
          "type": "uint256"
        }
      ],
      "name": "getBot",
      "outputs": [
        {
          "internalType": "bool",
          "name": "isGestating",
          "type": "bool"
        },
        {
          "internalType": "bool",
          "name": "isReady",
          "type": "bool"
        },
        {
          "internalType": "uint256",
          "name": "cooldownIndex",
          "type": "uint256"
        },
        {
          "internalType": "uint256",
          "name": "nextActionAt",
          "type": "uint256"
        },
        {
          "internalType": "uint256",
          "name": "siringWithId",
          "type": "uint256"
        },
        {
          "internalType": "uint256",
          "name": "birthTime",
          "type": "uint256"
        },
        {
          "internalType": "uint256",
          "name": "matronId",
          "type": "uint256"
        },
        {
          "internalType": "uint256",
          "name": "sireId",
          "type": "uint256"
        },
        {
          "internalType": "uint256",
          "name": "generation",
          "type": "uint256"
        },
        {
          "internalType": "uint256",
          "name": "genes",
          "type": "uint256"
        }
      ],
      "stateMutability": "view",
      "type": "function"
    },
    {
      "inputs": [
        {
          "internalType": "address",
          "name": "owner",
          "type": "address"
        },
        {
          "internalType": "address",
          "name": "operator",
          "type": "address"
        }
      ],
      "name": "isApprovedForAll",
      "outputs": [
        {
          "internalType": "bool",
          "name": "",
          "type": "bool"
        }
      ],
      "stateMutability": "view",
      "type": "function"
    },
    {
      "inputs": [],
      "name": "name",
      "outputs": [
        {
          "internalType": "string",
          "name": "",
          "type": "string"
        }
      ],
      "stateMutability": "view",
      "type": "function"
    },
    {
      "inputs": [],
      "name": "owner",
      "outputs": [
        {
          "internalType": "address",
          "name": "",
          "type": "address"
        }
      ],
      "stateMutability": "view",
      "type": "function"
    },
    {
      "inputs": [
        {
          "internalType": "uint256",
          "name": "tokenId",
          "type": "uint256"
        }
      ],
      "name": "ownerOf",
      "outputs": [
        {
          "internalType": "address",
          "name": "",
          "type": "address"
        }
      ],
      "stateMutability": "view",
      "type": "function"
    },
    {
      "inputs": [],
      "name": "renounceOwnership",
      "outputs": [],
      "stateMutability": "nonpayable",
      "type": "function"
    },
    {
      "inputs": [
        {
          "internalType": "address",
          "name": "from",
          "type": "address"
        },
        {
          "internalType": "address",
          "name": "to",
          "type": "address"
        },
        {
          "internalType": "uint256",
          "name": "tokenId",
          "type": "uint256"
        }
      ],
      "name": "safeTransferFrom",
      "outputs": [],
      "stateMutability": "nonpayable",
      "type": "function"
    },
    {
      "inputs": [
        {
          "internalType": "address",
          "name": "from",
          "type": "address"
        },
        {
          "internalType": "address",
          "name": "to",
          "type": "address"
        },
        {
          "internalType": "uint256",
          "name": "tokenId",
          "type": "uint256"
        },
        {
          "internalType": "bytes",
          "name": "_data",
          "type": "bytes"
        }
      ],
      "name": "safeTransferFrom",
      "outputs": [],
      "stateMutability": "nonpayable",
      "type": "function"
    },
    {
      "inputs": [
        {
          "internalType": "address",
          "name": "operator",
          "type": "address"
        },
        {
          "internalType": "bool",
          "name": "approved",
          "type": "bool"
        }
      ],
      "name": "setApprovalForAll",
      "outputs": [],
      "stateMutability": "nonpayable",
      "type": "function"
    },
    {
      "inputs": [
        {
          "internalType": "string",
          "name": "baseURI",
          "type": "string"
        }
      ],
      "name": "setBaseURI",
      "outputs": [],
      "stateMutability": "nonpayable",
      "type": "function"
    },
    {
      "inputs": [
        {
          "internalType": "string",
          "name": "contractURI",
          "type": "string"
        }
      ],
      "name": "setContractURI",
      "outputs": [],
      "stateMutability": "nonpayable",
      "type": "function"
    },
    {
      "inputs": [],
      "name": "showBaseURI",
      "outputs": [
        {
          "internalType": "string",
          "name": "",
          "type": "string"
        }
      ],
      "stateMutability": "view",
      "type": "function"
    },
    {
      "inputs": [],
      "name": "showcontractURI",
      "outputs": [
        {
          "internalType": "string",
          "name": "",
          "type": "string"
        }
      ],
      "stateMutability": "view",
      "type": "function"
    },
    {
      "inputs": [
        {
          "internalType": "bytes4",
          "name": "interfaceId",
          "type": "bytes4"
        }
      ],
      "name": "supportsInterface",
      "outputs": [
        {
          "internalType": "bool",
          "name": "",
          "type": "bool"
        }
      ],
      "stateMutability": "view",
      "type": "function"
    },
    {
      "inputs": [],
      "name": "symbol",
      "outputs": [
        {
          "internalType": "string",
          "name": "",
          "type": "string"
        }
      ],
      "stateMutability": "view",
      "type": "function"
    },
    {
      "inputs": [
        {
          "internalType": "uint256",
          "name": "tokenId",
          "type": "uint256"
        }
      ],
      "name": "tokenURI",
      "outputs": [
        {
          "internalType": "string",
          "name": "",
          "type": "string"
        }
      ],
      "stateMutability": "view",
      "type": "function"
    },
    {
      "inputs": [
        {
          "internalType": "address",
          "name": "from",
          "type": "address"
        },
        {
          "internalType": "address",
          "name": "to",
          "type": "address"
        },
        {
          "internalType": "uint256",
          "name": "tokenId",
          "type": "uint256"
        }
      ],
      "name": "transferFrom",
      "outputs": [],
      "stateMutability": "nonpayable",
      "type": "function"
    },
    {
      "inputs": [
        {
          "internalType": "address",
          "name": "newOwner",
          "type": "address"
        }
      ],
      "name": "transferOwnership",
      "outputs": [],
      "stateMutability": "nonpayable",
      "type": "function"
    },
    {
      "inputs": [
        {
          "internalType": "uint256",
          "name": "tokenId",
          "type": "uint256"
        }
      ],
      "name": "unwrap",
      "outputs": [],
      "stateMutability": "nonpayable",
      "type": "function"
    },
    {
      "inputs": [
        {
          "internalType": "uint256[]",
          "name": "tokenIds",
          "type": "uint256[]"
        }
      ],
      "name": "unwrapMany",
      "outputs": [],
      "stateMutability": "nonpayable",
      "type": "function"
    },
    {
      "inputs": [
        {
          "internalType": "uint256",
          "name": "tokenId",
          "type": "uint256"
        }
      ],
      "name": "wrap",
      "outputs": [],
      "stateMutability": "nonpayable",
      "type": "function"
    },
    {
      "inputs": [
        {
          "internalType": "uint256[]",
          "name": "tokenIds",
          "type": "uint256[]"
        }
      ],
      "name": "wrapMany",
      "outputs": [],
      "stateMutability": "nonpayable",
      "type": "function"
    }
  ],
  "bytecode": "0x60a06040523480156200001157600080fd5b506040516200523a3803806200523a83398181016040528101906200003791906200077a565b6040518060400160405280601181526020017f5772617070656443727970746f426f74730000000000000000000000000000008152506040518060400160405280601181526020017f5772617070656443727970746f426f74730000000000000000000000000000008152506001600081905550620000cb620000bf6200056460201b60201c565b6200056c60201b60201c565b8160029080519060200190620000e392919062000635565b508060039080519060200190620000fc92919062000635565b505050620001337f72b88ecbed2d42e80a0d5b94fbd49725f91f729011ae60a2d2f5329811eb258460001b6200063260201b60201c565b620001677fe80634b79157aef6d29691ac148a82040dbdd6fcd9f08151b89489955e02ca4760001b6200063260201b60201c565b6200019b7fd1a33fe0046a2d6968f0f790cc7d252ea7fa480e1aa8b92940854cbee660291360001b6200063260201b60201c565b620001cf7fcd8e2474ac4fbabc5acfda5962ead043253f66672b21f2c598e4a3c9e52089bc60001b6200063260201b60201c565b600073ffffffffffffffffffffffffffffffffffffffff168373ffffffffffffffffffffffffffffffffffffffff16141562000242576040517f08c379a00000000000000000000000000000000000000000000000000000000081526004016200023990620008eb565b60405180910390fd5b620002767f4cf5aea989d487215a1a7b5517dcdf864a05136101b3212e694312011c68a38f60001b6200063260201b60201c565b620002aa7f590f81e3e6fee8a651bfa59097992d04990e9ccaaad9e17cffa97561996788af60001b6200063260201b60201c565b620002de7f6fcddb6715bb06892fff7418dfa028c2ff658000d1fa27cabb9ef4e9951e64ee60001b6200063260201b60201c565b8273ffffffffffffffffffffffffffffffffffffffff1660808173ffffffffffffffffffffffffffffffffffffffff1660601b81525050620003497fb0a6d8624241c77101a2fb177ece1f48bc27b9c1530d1cd273d8ee1464ece9d860001b6200063260201b60201c565b6200037d7f083db325f90a75f2a61d6d9c6eef3c92967dbe34a63323fd6ddde56ab61635a960001b6200063260201b60201c565b81600890805190602001906200039592919062000635565b50620003ca7f5a2275d0525fd4339a73d2bdff5b3672d176c1051df195bbe321ad4e40e7d0c160001b6200063260201b60201c565b620003fe7f0eb98829b17f6e4c803fad25cae0fcdb110caf868cd5afea1fc589d03c1f61b960001b6200063260201b60201c565b7ff9c7803e94e0d3c02900d8a90893a6d5e90dd04d32a4cfe825520f82bf9f32f66008604051620004309190620008c7565b60405180910390a16200046c7f7e0d32c21840ca64ea0607556b637f66955236a572ca094bfef7a022d5de5ed760001b6200063260201b60201c565b620004a07fe565a98711d3032a9f07f5f95243e76e9f276eb1a19a97039773bb77caf09fcb60001b6200063260201b60201c565b8060099080519060200190620004b892919062000635565b50620004ed7f1527b1343dd5a885577ba0a9d21e38369efc43862e3f496c3f055d56c9cb2d6a60001b6200063260201b60201c565b620005217f81450742c474e00356b71e5bcf982be41eab43492f389d55314203d277368a3d60001b6200063260201b60201c565b7faf497693a87db12ca89131a31edbb3db4bb5702dfb284e8ae7427d185f09112d6008604051620005539190620008c7565b60405180910390a150505062000b2e565b600033905090565b6000600160009054906101000a900473ffffffffffffffffffffffffffffffffffffffff16905081600160006101000a81548173ffffffffffffffffffffffffffffffffffffffff021916908373ffffffffffffffffffffffffffffffffffffffff1602179055508173ffffffffffffffffffffffffffffffffffffffff168173ffffffffffffffffffffffffffffffffffffffff167f8be0079c531659141344cd1fd0a4f28419497f9722a3daafe3b4186f6b6457e060405160405180910390a35050565b50565b8280546200064390620009fc565b90600052602060002090601f016020900481019282620006675760008555620006b3565b82601f106200068257805160ff1916838001178555620006b3565b82800160010185558215620006b3579182015b82811115620006b257825182559160200191906001019062000695565b5b509050620006c29190620006c6565b5090565b5b80821115620006e1576000816000905550600101620006c7565b5090565b6000620006fc620006f68462000936565b6200090d565b9050828152602081018484840111156200071b576200071a62000acb565b5b62000728848285620009c6565b509392505050565b600081519050620007418162000b14565b92915050565b600082601f8301126200075f576200075e62000ac6565b5b815162000771848260208601620006e5565b91505092915050565b60008060006060848603121562000796576200079562000ad5565b5b6000620007a68682870162000730565b935050602084015167ffffffffffffffff811115620007ca57620007c962000ad0565b5b620007d88682870162000747565b925050604084015167ffffffffffffffff811115620007fc57620007fb62000ad0565b5b6200080a8682870162000747565b9150509250925092565b600081546200082381620009fc565b6200082f818662000981565b945060018216600081146200084d5760018114620008605762000897565b60ff198316865260208601935062000897565b6200086b856200096c565b60005b838110156200088f578154818901526001820191506020810190506200086e565b808801955050505b50505092915050565b6000620008af600c8362000981565b9150620008bc8262000aeb565b602082019050919050565b60006020820190508181036000830152620008e3818462000814565b905092915050565b600060208201905081810360008301526200090681620008a0565b9050919050565b6000620009196200092c565b905062000927828262000a32565b919050565b6000604051905090565b600067ffffffffffffffff82111562000954576200095362000a97565b5b6200095f8262000ada565b9050602081019050919050565b60008190508160005260206000209050919050565b600082825260208201905092915050565b60006200099f82620009a6565b9050919050565b600073ffffffffffffffffffffffffffffffffffffffff82169050919050565b60005b83811015620009e6578082015181840152602081019050620009c9565b83811115620009f6576000848401525b50505050565b6000600282049050600182168062000a1557607f821691505b6020821081141562000a2c5762000a2b62000a68565b5b50919050565b62000a3d8262000ada565b810181811067ffffffffffffffff8211171562000a5f5762000a5e62000a97565b5b80604052505050565b7f4e487b7100000000000000000000000000000000000000000000000000000000600052602260045260246000fd5b7f4e487b7100000000000000000000000000000000000000000000000000000000600052604160045260246000fd5b600080fd5b600080fd5b600080fd5b600080fd5b6000601f19601f8301169050919050565b7f7a65726f20616464726573730000000000000000000000000000000000000000600082015250565b62000b1f8162000992565b811462000b2b57600080fd5b50565b60805160601c6146ca62000b70600039600081816109a301528181610c00015281816115e201528181611a9b01528181611c9b0152611ecf01526146ca6000f3fe608060405234801561001057600080fd5b506004361061018e5760003560e01c80638da5cb5b116100de578063c1dcd13811610097578063e985e9c511610071578063e985e9c514610476578063ea598cb0146104a6578063ef7441a4146104c2578063f2fde38b146104de5761018e565b8063c1dcd1381461040e578063c87b56dd1461042a578063de0e9a3e1461045a5761018e565b80638da5cb5b14610360578063938e3d7b1461037e57806395d89b411461039a578063a22cb465146103b8578063a3498661146103d4578063b88d4fde146103f25761018e565b806342842e0e1161014b5780635f70d9ac116101255780635f70d9ac146102bd5780636352211e146102f657806370a0823114610326578063715018a6146103565761018e565b806342842e0e146102675780634b47741f1461028357806355f804b3146102a15761018e565b806301ffc9a71461019357806306fdde03146101c3578063081812fc146101e1578063095ea7b31461021157806323b872dd1461022d578063268e161e14610249575b600080fd5b6101ad60048036038101906101a891906133d3565b6104fa565b6040516101ba91906139bd565b60405180910390f35b6101cb6105dc565b6040516101d89190613a8f565b60405180910390f35b6101fb60048036038101906101f6919061347a565b61066e565b604051610208919061391f565b60405180910390f35b61022b60048036038101906102269190613267565b6106f3565b005b61024760048036038101906102429190613151565b61080b565b005b61025161086b565b60405161025e9190613a8f565b60405180910390f35b610281600480360381019061027c9190613151565b610981565b005b61028b6109a1565b6040516102989190613a74565b60405180910390f35b6102bb60048036038101906102b6919061342d565b6109c5565b005b6102d760048036038101906102d2919061347a565b610b6b565b6040516102ed9a999897969594939291906139d8565b60405180910390f35b610310600480360381019061030b919061347a565b610cc9565b60405161031d919061391f565b60405180910390f35b610340600480360381019061033b91906130e4565b610d7b565b60405161034d9190613d13565b60405180910390f35b61035e610e33565b005b610368610ebb565b604051610375919061391f565b60405180910390f35b6103986004803603810190610393919061342d565b610ee5565b005b6103a261108b565b6040516103af9190613a8f565b60405180910390f35b6103d260048036038101906103cd9190613227565b61111d565b005b6103dc611133565b6040516103e99190613a8f565b60405180910390f35b61040c600480360381019061040791906131a4565b611249565b005b610428600480360381019061042391906132a7565b6112ab565b005b610444600480360381019061043f919061347a565b611690565b6040516104519190613a8f565b60405180910390f35b610474600480360381019061046f919061347a565b611840565b005b610490600480360381019061048b9190613111565b611b33565b60405161049d91906139bd565b60405180910390f35b6104c060048036038101906104bb919061347a565b611bc7565b005b6104dc60048036038101906104d791906132a7565b611d95565b005b6104f860048036038101906104f391906130e4565b612010565b005b60007f80ac58cd000000000000000000000000000000000000000000000000000000007bffffffffffffffffffffffffffffffffffffffffffffffffffffffff1916827bffffffffffffffffffffffffffffffffffffffffffffffffffffffff191614806105c557507f5b5e139f000000000000000000000000000000000000000000000000000000007bffffffffffffffffffffffffffffffffffffffffffffffffffffffff1916827bffffffffffffffffffffffffffffffffffffffffffffffffffffffff1916145b806105d557506105d482612108565b5b9050919050565b6060600280546105eb90613f71565b80601f016020809104026020016040519081016040528092919081815260200182805461061790613f71565b80156106645780601f1061063957610100808354040283529160200191610664565b820191906000526020600020905b81548152906001019060200180831161064757829003601f168201915b5050505050905090565b600061067982612172565b6106b8576040517f08c379a00000000000000000000000000000000000000000000000000000000081526004016106af90613c53565b60405180910390fd5b6006600083815260200190815260200160002060009054906101000a900473ffffffffffffffffffffffffffffffffffffffff169050919050565b60006106fe82610cc9565b90508073ffffffffffffffffffffffffffffffffffffffff168373ffffffffffffffffffffffffffffffffffffffff16141561076f576040517f08c379a000000000000000000000000000000000000000000000000000000000815260040161076690613cb3565b60405180910390fd5b8073ffffffffffffffffffffffffffffffffffffffff1661078e6121de565b73ffffffffffffffffffffffffffffffffffffffff1614806107bd57506107bc816107b76121de565b611b33565b5b6107fc576040517f08c379a00000000000000000000000000000000000000000000000000000000081526004016107f390613bd3565b60405180910390fd5b61080683836121e6565b505050565b61081c6108166121de565b8261229f565b61085b576040517f08c379a000000000000000000000000000000000000000000000000000000000815260040161085290613cd3565b60405180910390fd5b61086683838361237d565b505050565b60606108997fb9564e35bdec9d8dde337663600666f8b19e650beed5ae3686d75fe68c1de1cb60001b6125e4565b6108c57fc549192f37d1c48fc23dcc0f343b5dcc0c06c46728735922dda8e02d5f99401b60001b6125e4565b6108f17f8f9f236a9a18f9f15cf9e29513b95e652586e6242867bb8fa596ec2cd1cf230960001b6125e4565b600980546108fe90613f71565b80601f016020809104026020016040519081016040528092919081815260200182805461092a90613f71565b80156109775780601f1061094c57610100808354040283529160200191610977565b820191906000526020600020905b81548152906001019060200180831161095a57829003601f168201915b5050505050905090565b61099c83838360405180602001604052806000815250611249565b505050565b7f000000000000000000000000000000000000000000000000000000000000000081565b6109cd6121de565b73ffffffffffffffffffffffffffffffffffffffff166109eb610ebb565b73ffffffffffffffffffffffffffffffffffffffff1614610a41576040517f08c379a0000000000000000000000000000000000000000000000000000000008152600401610a3890613c73565b60405180910390fd5b610a6d7f85de52bbe7372b852478725c91e168e4fbe76f7a575e469eb1cb8266572c0c3760001b6125e4565b610a997f5cb11e7969f06283ccf9dda1d5a78558565d47fcf9afe7765f6af94909b3c3bf60001b6125e4565b610ac57f5018f9e07e6f2dcc56281b2deeab67b51ae8cd06516fc5c18a278820f8b643b160001b6125e4565b818160089190610ad6929190612e92565b50610b037f71a5552ec3a33eb4c6041d45c1941f19095a836b1f05e08f3f3927b7442719ae60001b6125e4565b610b2f7f560f65ec1c2d2cea11e4e23d2f9fae0f85a690b2365410d26234d554beb24bd260001b6125e4565b7ff9c7803e94e0d3c02900d8a90893a6d5e90dd04d32a4cfe825520f82bf9f32f66008604051610b5f9190613ab1565b60405180910390a15050565b600080600080600080600080600080610ba67f37c520a7866598be94af4a5e0a85169e826f5ae23e9448f2b813bcab424bf2e160001b6125e4565b610bd27f1357448ac7ba5d314b7d02687a1b7b506f2a09f4e8e9765c6e55bebeb0c4c35160001b6125e4565b610bfe7fff91ddea6805baef380b7c0b6e871a175e0a24cee672cdb2c85d4f29af8ef40160001b6125e4565b7f000000000000000000000000000000000000000000000000000000000000000073ffffffffffffffffffffffffffffffffffffffff16635f70d9ac8c6040518263ffffffff1660e01b8152600401610c579190613d13565b6101406040518083038186803b158015610c7057600080fd5b505afa158015610c84573d6000803e3d6000fd5b505050506040513d601f19601f82011682018060405250810190610ca891906132f4565b99509950995099509950995099509950995099509193959799509193959799565b6000806004600084815260200190815260200160002060009054906101000a900473ffffffffffffffffffffffffffffffffffffffff169050600073ffffffffffffffffffffffffffffffffffffffff168173ffffffffffffffffffffffffffffffffffffffff161415610d72576040517f08c379a0000000000000000000000000000000000000000000000000000000008152600401610d6990613c13565b60405180910390fd5b80915050919050565b60008073ffffffffffffffffffffffffffffffffffffffff168273ffffffffffffffffffffffffffffffffffffffff161415610dec576040517f08c379a0000000000000000000000000000000000000000000000000000000008152600401610de390613bf3565b60405180910390fd5b600560008373ffffffffffffffffffffffffffffffffffffffff1673ffffffffffffffffffffffffffffffffffffffff168152602001908152602001600020549050919050565b610e3b6121de565b73ffffffffffffffffffffffffffffffffffffffff16610e59610ebb565b73ffffffffffffffffffffffffffffffffffffffff1614610eaf576040517f08c379a0000000000000000000000000000000000000000000000000000000008152600401610ea690613c73565b60405180910390fd5b610eb960006125e7565b565b6000600160009054906101000a900473ffffffffffffffffffffffffffffffffffffffff16905090565b610eed6121de565b73ffffffffffffffffffffffffffffffffffffffff16610f0b610ebb565b73ffffffffffffffffffffffffffffffffffffffff1614610f61576040517f08c379a0000000000000000000000000000000000000000000000000000000008152600401610f5890613c73565b60405180910390fd5b610f8d7f6bd15b3b683e074c9992b7192e172ceb823a1b0eedad5e96aeb6092e62e308db60001b6125e4565b610fb97f9c0b74f00c4974b9daa3414011e22eb3b705e46eb6c320c5b8686c727129d53360001b6125e4565b610fe57f1505fb93f174263de255d2e5b1a3c3c2582cd64565cf7ab7dacb3dddd25776e560001b6125e4565b818160099190610ff6929190612e92565b506110237fc73d3f8fbb1f999a54563618f53d4a2e0b9a382c3bab021843d715566c9eff7360001b6125e4565b61104f7f0bd822eb08f126e5b73b1ae2cde94964a2d03cf348c54852ba1e14a8381da8df60001b6125e4565b7faf497693a87db12ca89131a31edbb3db4bb5702dfb284e8ae7427d185f09112d600860405161107f9190613ab1565b60405180910390a15050565b60606003805461109a90613f71565b80601f01602080910402602001604051908101604052809291908181526020018280546110c690613f71565b80156111135780601f106110e857610100808354040283529160200191611113565b820191906000526020600020905b8154815290600101906020018083116110f657829003601f168201915b5050505050905090565b61112f6111286121de565b83836126ad565b5050565b60606111617f1372d6487f748222613dbc7d3781a1fc30f7fe0043b0009d7b8446f398b1f64660001b6125e4565b61118d7f2a449ca518340a5faf2b0d63e08ddced479f1d036ad5cacae729f785a0c6579e60001b6125e4565b6111b97f2ee5ef57287802a3637b8b4675733cf5d4355c9d2adc3f18914198a0e088257b60001b6125e4565b600880546111c690613f71565b80601f01602080910402602001604051908101604052809291908181526020018280546111f290613f71565b801561123f5780601f106112145761010080835404028352916020019161123f565b820191906000526020600020905b81548152906001019060200180831161122257829003601f168201915b5050505050905090565b61125a6112546121de565b8361229f565b611299576040517f08c379a000000000000000000000000000000000000000000000000000000000815260040161129090613cd3565b60405180910390fd5b6112a58484848461281a565b50505050565b600260005414156112f1576040517f08c379a00000000000000000000000000000000000000000000000000000000081526004016112e890613cf3565b60405180910390fd5b60026000819055506113257f15f620a57df0a5b7801c4e5cfb11228d01cdabf97437cc5a627b6567740eb01160001b6125e4565b6113517f3b3c70d6a1bf3ac8bf4406b97bab1a25720d5a3cdf1f4cab1224ed7ddac69a5860001b6125e4565b61137d7fef5392f4617f54bd692438ce59040743a8d4196a4de7048694d665e3d73e1cc460001b6125e4565b60005b82829050811015611683576113b77fd8729f9961a420bc2abfdf43f0d3e8bb9975247f9f7ca2430d5b040d1fc38d5f60001b6125e4565b6113e37f3be9eb87506938abd129ee425f0997d0a040b154a2b76960414769fe8f11c31160001b6125e4565b60008383838181106113f8576113f76140db565b5b90506020020135905061142d7f0165693be7ae918f6944ed65ae017233475762b2380b4d15b436be85094d8c6f60001b6125e4565b6114597f9959ba2dec992fbb8feb4297514fa59dbdd1aac69179de01ad83679b4031c9da60001b6125e4565b6114857fea598b6fa07532a85104704a723c7aaa6c91147da8f09eb90f6c817db279c1e460001b6125e4565b3373ffffffffffffffffffffffffffffffffffffffff166114a582610cc9565b73ffffffffffffffffffffffffffffffffffffffff16146114fb576040517f08c379a00000000000000000000000000000000000000000000000000000000081526004016114f290613b53565b60405180910390fd5b6115277f6ed3461eb5a9a5bb0e5fbfe79a090c70ae8d81573160ac32759e277a67ea0ae560001b6125e4565b6115537f0187cbe3006acaecf4065ac177a1579abe9b3a079305853d4806fdbec0781ee260001b6125e4565b61157f7f9d4913f8c260c905e596a159d0b4d8b3e7930514f66e662862747ba77b0820dc60001b6125e4565b61158881612876565b6115b47fa002a85a2d25c1fccd3f3e5b5d4e83ab34a4c052dd454f14cb117aeb49ea7ce360001b6125e4565b6115e07f80eedca3cd9f4ac384022f78d46adc25d535dfb77fd019db4d232463b54352c660001b6125e4565b7f000000000000000000000000000000000000000000000000000000000000000073ffffffffffffffffffffffffffffffffffffffff166323b872dd3033846040518463ffffffff1660e01b815260040161163d9392919061393a565b600060405180830381600087803b15801561165757600080fd5b505af115801561166b573d6000803e3d6000fd5b5050505050808061167b90613fd4565b915050611380565b5060016000819055505050565b60606116be7f1b06cf6fc224bcb2d049d8006b08577b321b4a4c91d0f5bf0c9835782e9a222260001b6125e4565b6116ea7fadbcaba612e3ceff0bb26809ce4640396b993d3fe9b99e3b59aff42d5491e71f60001b6125e4565b6117167f4562b5ade5b6777aea64ebe6c1da27dc33aed1fa9f4d3456107a416964c7d57460001b6125e4565b6117427fd3abf04696ffb413f0716c2e46b3e423d71fb5b006c220df675aca8c83ef3ea060001b6125e4565b61174b82612172565b61178a576040517f08c379a000000000000000000000000000000000000000000000000000000000815260040161178190613c93565b60405180910390fd5b6117b67f5b4dfb114269dca9fc1889498c64eec260251abf122cefc1305358dad1cc75d960001b6125e4565b6117e27f7266e6b807337630470f2ca035288fcbdf796f05b5ed77504e5951e470511fbd60001b6125e4565b61180e7fc492ff2ebc34042e55c6bdb78d97cbb24b4351c92519a003fc327c63d43a584260001b6125e4565b600861181983612993565b60405160200161182a9291906138fb565b6040516020818303038152906040529050919050565b60026000541415611886576040517f08c379a000000000000000000000000000000000000000000000000000000000815260040161187d90613cf3565b60405180910390fd5b60026000819055506118ba7fcfd9d96f5e0515c4a7e895b51928367b46b4344038a8f332b57f4ca6823073d160001b6125e4565b6118e67f318d3767c822469c94a35045037ca8f8aaf264c40df016a167ddbe1f4686031260001b6125e4565b6119127f484189f5d29bafb5616382783721353de8097f6a9f23951be5a4bd0efb100bac60001b6125e4565b61193e7f70db06bee62973536e90c0d91109865577a68ef7d86b35565cf0a058165e7c2c60001b6125e4565b3373ffffffffffffffffffffffffffffffffffffffff1661195e82610cc9565b73ffffffffffffffffffffffffffffffffffffffff16146119b4576040517f08c379a00000000000000000000000000000000000000000000000000000000081526004016119ab90613b53565b60405180910390fd5b6119e07f55acc63e129c7987f2fbca0e6e237ae3bd8525ea093cbd1206d10a02ec93c7f760001b6125e4565b611a0c7fc47bb483c7505f274613041b29fb6ee3a4e0654eb6b8f40b6fa01a6a53e7aa6260001b6125e4565b611a387ffb00de91dcecd6af430b8f97a2498b6ac4a9bb1e61f5c6de3cff74c6326c039f60001b6125e4565b611a4181612876565b611a6d7f42ae73662e5945fb8a361a0edbe2eff4a90378694805b45357775f64fddd6b7c60001b6125e4565b611a997fd70c812a827b3eadf0894a8838d75b762462f0342d3b57898a2fa5b136d6c16960001b6125e4565b7f000000000000000000000000000000000000000000000000000000000000000073ffffffffffffffffffffffffffffffffffffffff166323b872dd3033846040518463ffffffff1660e01b8152600401611af69392919061393a565b600060405180830381600087803b158015611b1057600080fd5b505af1158015611b24573d6000803e3d6000fd5b50505050600160008190555050565b6000600760008473ffffffffffffffffffffffffffffffffffffffff1673ffffffffffffffffffffffffffffffffffffffff16815260200190815260200160002060008373ffffffffffffffffffffffffffffffffffffffff1673ffffffffffffffffffffffffffffffffffffffff16815260200190815260200160002060009054906101000a900460ff16905092915050565b60026000541415611c0d576040517f08c379a0000000000000000000000000000000000000000000000000000000008152600401611c0490613cf3565b60405180910390fd5b6002600081905550611c417f469c2e494b665a6cefabe6d643467dd4af0a3f5f49bc9b4f18abcf5acee1753860001b6125e4565b611c6d7ff07a3c55b982461f6c4e3153ffea14c1cc949878f231f2b6e2a34cb55a3d035060001b6125e4565b611c997f78c83d09bbd895b8e87066769bf4e61ebeefd26aaa51a116693f40c9fdf22a0160001b6125e4565b7f000000000000000000000000000000000000000000000000000000000000000073ffffffffffffffffffffffffffffffffffffffff166323b872dd3330846040518463ffffffff1660e01b8152600401611cf69392919061393a565b600060405180830381600087803b158015611d1057600080fd5b505af1158015611d24573d6000803e3d6000fd5b50505050611d547f3b62738ebbfc75cf5d56aecc7ce1c293483defe8ddfba5ce57333da852a157a060001b6125e4565b611d807fdcc4de5866b7e9b9179affd8c25cec00d5147a1293761f57f79a2e39a01011c360001b6125e4565b611d8a3382612af4565b600160008190555050565b60026000541415611ddb576040517f08c379a0000000000000000000000000000000000000000000000000000000008152600401611dd290613cf3565b60405180910390fd5b6002600081905550611e0f7f6f484a7597f4bc4bf730817e5c37c2fbc12102f2c027e0b72bf5fc823d73bb6860001b6125e4565b611e3b7fd3e697485fd32f174888846f06e803234d83adf2ae131434035a9a63547da8b460001b6125e4565b611e677fc45a154b4c10d5f276ac12be818161b279f58fae3514a461364cda06a85af50560001b6125e4565b60005b8282905081101561200357611ea17fd2cc0797cb909bd4b14843ad1fb100ce854ea86eea71054b06e9393196a3359560001b6125e4565b611ecd7ffb6813d71ab04afa4000c6ee11e2c878cdbf997c9c4976a9bff85a122387d1ba60001b6125e4565b7f000000000000000000000000000000000000000000000000000000000000000073ffffffffffffffffffffffffffffffffffffffff166323b872dd3330868686818110611f1e57611f1d6140db565b5b905060200201356040518463ffffffff1660e01b8152600401611f439392919061393a565b600060405180830381600087803b158015611f5d57600080fd5b505af1158015611f71573d6000803e3d6000fd5b50505050611fa17fe7ca886f426d2844674ab50365fa198087d309889e9a2ae1153163b816fae72e60001b6125e4565b611fcd7fc15f88c843d6c55b28c32e47d3332d813038f84e0fe7542bc4d6693dbd0c3faf60001b6125e4565b611ff033848484818110611fe457611fe36140db565b5b90506020020135612af4565b8080611ffb90613fd4565b915050611e6a565b5060016000819055505050565b6120186121de565b73ffffffffffffffffffffffffffffffffffffffff16612036610ebb565b73ffffffffffffffffffffffffffffffffffffffff161461208c576040517f08c379a000000000000000000000000000000000000000000000000000000000815260040161208390613c73565b60405180910390fd5b600073ffffffffffffffffffffffffffffffffffffffff168173ffffffffffffffffffffffffffffffffffffffff1614156120fc576040517f08c379a00000000000000000000000000000000000000000000000000000000081526004016120f390613af3565b60405180910390fd5b612105816125e7565b50565b60007f01ffc9a7000000000000000000000000000000000000000000000000000000007bffffffffffffffffffffffffffffffffffffffffffffffffffffffff1916827bffffffffffffffffffffffffffffffffffffffffffffffffffffffff1916149050919050565b60008073ffffffffffffffffffffffffffffffffffffffff166004600084815260200190815260200160002060009054906101000a900473ffffffffffffffffffffffffffffffffffffffff1673ffffffffffffffffffffffffffffffffffffffff1614159050919050565b600033905090565b816006600083815260200190815260200160002060006101000a81548173ffffffffffffffffffffffffffffffffffffffff021916908373ffffffffffffffffffffffffffffffffffffffff160217905550808273ffffffffffffffffffffffffffffffffffffffff1661225983610cc9565b73ffffffffffffffffffffffffffffffffffffffff167f8c5be1e5ebec7d5bd14f71427d1e84f3dd0314c0f7b2291e5b200ac8c7c3b92560405160405180910390a45050565b60006122aa82612172565b6122e9576040517f08c379a00000000000000000000000000000000000000000000000000000000081526004016122e090613bb3565b60405180910390fd5b60006122f483610cc9565b90508073ffffffffffffffffffffffffffffffffffffffff168473ffffffffffffffffffffffffffffffffffffffff16148061236357508373ffffffffffffffffffffffffffffffffffffffff1661234b8461066e565b73ffffffffffffffffffffffffffffffffffffffff16145b8061237457506123738185611b33565b5b91505092915050565b8273ffffffffffffffffffffffffffffffffffffffff1661239d82610cc9565b73ffffffffffffffffffffffffffffffffffffffff16146123f3576040517f08c379a00000000000000000000000000000000000000000000000000000000081526004016123ea90613b13565b60405180910390fd5b600073ffffffffffffffffffffffffffffffffffffffff168273ffffffffffffffffffffffffffffffffffffffff161415612463576040517f08c379a000000000000000000000000000000000000000000000000000000000815260040161245a90613b73565b60405180910390fd5b61246e838383612cce565b6124796000826121e6565b6001600560008573ffffffffffffffffffffffffffffffffffffffff1673ffffffffffffffffffffffffffffffffffffffff16815260200190815260200160002060008282546124c99190613e63565b925050819055506001600560008473ffffffffffffffffffffffffffffffffffffffff1673ffffffffffffffffffffffffffffffffffffffff16815260200190815260200160002060008282546125209190613ddc565b92505081905550816004600083815260200190815260200160002060006101000a81548173ffffffffffffffffffffffffffffffffffffffff021916908373ffffffffffffffffffffffffffffffffffffffff160217905550808273ffffffffffffffffffffffffffffffffffffffff168473ffffffffffffffffffffffffffffffffffffffff167fddf252ad1be2c89b69c2b068fc378daa952ba7f163c4a11628f55a4df523b3ef60405160405180910390a46125df838383612cd3565b505050565b50565b6000600160009054906101000a900473ffffffffffffffffffffffffffffffffffffffff16905081600160006101000a81548173ffffffffffffffffffffffffffffffffffffffff021916908373ffffffffffffffffffffffffffffffffffffffff1602179055508173ffffffffffffffffffffffffffffffffffffffff168173ffffffffffffffffffffffffffffffffffffffff167f8be0079c531659141344cd1fd0a4f28419497f9722a3daafe3b4186f6b6457e060405160405180910390a35050565b8173ffffffffffffffffffffffffffffffffffffffff168373ffffffffffffffffffffffffffffffffffffffff16141561271c576040517f08c379a000000000000000000000000000000000000000000000000000000000815260040161271390613b93565b60405180910390fd5b80600760008573ffffffffffffffffffffffffffffffffffffffff1673ffffffffffffffffffffffffffffffffffffffff16815260200190815260200160002060008473ffffffffffffffffffffffffffffffffffffffff1673ffffffffffffffffffffffffffffffffffffffff16815260200190815260200160002060006101000a81548160ff0219169083151502179055508173ffffffffffffffffffffffffffffffffffffffff168373ffffffffffffffffffffffffffffffffffffffff167f17307eab39ab6107e8899845ad3d59bd9653f200f220920489ca2b5937696c318360405161280d91906139bd565b60405180910390a3505050565b61282584848461237d565b61283184848484612cd8565b612870576040517f08c379a000000000000000000000000000000000000000000000000000000000815260040161286790613ad3565b60405180910390fd5b50505050565b600061288182610cc9565b905061288f81600084612cce565b61289a6000836121e6565b6001600560008373ffffffffffffffffffffffffffffffffffffffff1673ffffffffffffffffffffffffffffffffffffffff16815260200190815260200160002060008282546128ea9190613e63565b925050819055506004600083815260200190815260200160002060006101000a81549073ffffffffffffffffffffffffffffffffffffffff021916905581600073ffffffffffffffffffffffffffffffffffffffff168273ffffffffffffffffffffffffffffffffffffffff167fddf252ad1be2c89b69c2b068fc378daa952ba7f163c4a11628f55a4df523b3ef60405160405180910390a461298f81600084612cd3565b5050565b606060008214156129db576040518060400160405280600181526020017f30000000000000000000000000000000000000000000000000000000000000008152509050612aef565b600082905060005b60008214612a0d5780806129f690613fd4565b915050600a82612a069190613e32565b91506129e3565b60008167ffffffffffffffff811115612a2957612a2861410a565b5b6040519080825280601f01601f191660200182016040528015612a5b5781602001600182028036833780820191505090505b5090505b60008514612ae857600182612a749190613e63565b9150600a85612a83919061401d565b6030612a8f9190613ddc565b60f81b818381518110612aa557612aa46140db565b5b60200101907effffffffffffffffffffffffffffffffffffffffffffffffffffffffffffff1916908160001a905350600a85612ae19190613e32565b9450612a5f565b8093505050505b919050565b600073ffffffffffffffffffffffffffffffffffffffff168273ffffffffffffffffffffffffffffffffffffffff161415612b64576040517f08c379a0000000000000000000000000000000000000000000000000000000008152600401612b5b90613c33565b60405180910390fd5b612b6d81612172565b15612bad576040517f08c379a0000000000000000000000000000000000000000000000000000000008152600401612ba490613b33565b60405180910390fd5b612bb960008383612cce565b6001600560008473ffffffffffffffffffffffffffffffffffffffff1673ffffffffffffffffffffffffffffffffffffffff1681526020019081526020016000206000828254612c099190613ddc565b92505081905550816004600083815260200190815260200160002060006101000a81548173ffffffffffffffffffffffffffffffffffffffff021916908373ffffffffffffffffffffffffffffffffffffffff160217905550808273ffffffffffffffffffffffffffffffffffffffff16600073ffffffffffffffffffffffffffffffffffffffff167fddf252ad1be2c89b69c2b068fc378daa952ba7f163c4a11628f55a4df523b3ef60405160405180910390a4612cca60008383612cd3565b5050565b505050565b505050565b6000612cf98473ffffffffffffffffffffffffffffffffffffffff16612e6f565b15612e62578373ffffffffffffffffffffffffffffffffffffffff1663150b7a02612d226121de565b8786866040518563ffffffff1660e01b8152600401612d449493929190613971565b602060405180830381600087803b158015612d5e57600080fd5b505af1925050508015612d8f57506040513d601f19601f82011682018060405250810190612d8c9190613400565b60015b612e12573d8060008114612dbf576040519150601f19603f3d011682016040523d82523d6000602084013e612dc4565b606091505b50600081511415612e0a576040517f08c379a0000000000000000000000000000000000000000000000000000000008152600401612e0190613ad3565b60405180910390fd5b805181602001fd5b63150b7a0260e01b7bffffffffffffffffffffffffffffffffffffffffffffffffffffffff1916817bffffffffffffffffffffffffffffffffffffffffffffffffffffffff191614915050612e67565b600190505b949350505050565b6000808273ffffffffffffffffffffffffffffffffffffffff163b119050919050565b828054612e9e90613f71565b90600052602060002090601f016020900481019282612ec05760008555612f07565b82601f10612ed957803560ff1916838001178555612f07565b82800160010185558215612f07579182015b82811115612f06578235825591602001919060010190612eeb565b5b509050612f149190612f18565b5090565b5b80821115612f31576000816000905550600101612f19565b5090565b6000612f48612f4384613d53565b613d2e565b905082815260208101848484011115612f6457612f63614148565b5b612f6f848285613f2f565b509392505050565b600081359050612f8681614638565b92915050565b60008083601f840112612fa257612fa161413e565b5b8235905067ffffffffffffffff811115612fbf57612fbe614139565b5b602083019150836020820283011115612fdb57612fda614143565b5b9250929050565b600081359050612ff18161464f565b92915050565b6000815190506130068161464f565b92915050565b60008135905061301b81614666565b92915050565b60008151905061303081614666565b92915050565b600082601f83011261304b5761304a61413e565b5b813561305b848260208601612f35565b91505092915050565b60008083601f84011261307a5761307961413e565b5b8235905067ffffffffffffffff81111561309757613096614139565b5b6020830191508360018202830111156130b3576130b2614143565b5b9250929050565b6000813590506130c98161467d565b92915050565b6000815190506130de8161467d565b92915050565b6000602082840312156130fa576130f9614152565b5b600061310884828501612f77565b91505092915050565b6000806040838503121561312857613127614152565b5b600061313685828601612f77565b925050602061314785828601612f77565b9150509250929050565b60008060006060848603121561316a57613169614152565b5b600061317886828701612f77565b935050602061318986828701612f77565b925050604061319a868287016130ba565b9150509250925092565b600080600080608085870312156131be576131bd614152565b5b60006131cc87828801612f77565b94505060206131dd87828801612f77565b93505060406131ee878288016130ba565b925050606085013567ffffffffffffffff81111561320f5761320e61414d565b5b61321b87828801613036565b91505092959194509250565b6000806040838503121561323e5761323d614152565b5b600061324c85828601612f77565b925050602061325d85828601612fe2565b9150509250929050565b6000806040838503121561327e5761327d614152565b5b600061328c85828601612f77565b925050602061329d858286016130ba565b9150509250929050565b600080602083850312156132be576132bd614152565b5b600083013567ffffffffffffffff8111156132dc576132db61414d565b5b6132e885828601612f8c565b92509250509250929050565b6000806000806000806000806000806101408b8d03121561331857613317614152565b5b60006133268d828e01612ff7565b9a505060206133378d828e01612ff7565b99505060406133488d828e016130cf565b98505060606133598d828e016130cf565b975050608061336a8d828e016130cf565b96505060a061337b8d828e016130cf565b95505060c061338c8d828e016130cf565b94505060e061339d8d828e016130cf565b9350506101006133af8d828e016130cf565b9250506101206133c18d828e016130cf565b9150509295989b9194979a5092959850565b6000602082840312156133e9576133e8614152565b5b60006133f78482850161300c565b91505092915050565b60006020828403121561341657613415614152565b5b600061342484828501613021565b91505092915050565b6000806020838503121561344457613443614152565b5b600083013567ffffffffffffffff8111156134625761346161414d565b5b61346e85828601613064565b92509250509250929050565b6000602082840312156134905761348f614152565b5b600061349e848285016130ba565b91505092915050565b6134b081613e97565b82525050565b6134bf81613ea9565b82525050565b60006134d082613d99565b6134da8185613daf565b93506134ea818560208601613f3e565b6134f381614157565b840191505092915050565b61350781613f0b565b82525050565b600061351882613da4565b6135228185613dc0565b9350613532818560208601613f3e565b61353b81614157565b840191505092915050565b600061355182613da4565b61355b8185613dd1565b935061356b818560208601613f3e565b80840191505092915050565b6000815461358481613f71565b61358e8186613dc0565b945060018216600081146135a957600181146135bb576135ee565b60ff19831686526020860193506135ee565b6135c485613d84565b60005b838110156135e6578154818901526001820191506020810190506135c7565b808801955050505b50505092915050565b6000815461360481613f71565b61360e8186613dd1565b94506001821660008114613629576001811461363a5761366d565b60ff1983168652818601935061366d565b61364385613d84565b60005b8381101561366557815481890152600182019150602081019050613646565b838801955050505b50505092915050565b6000613683603283613dc0565b915061368e82614168565b604082019050919050565b60006136a6602683613dc0565b91506136b1826141b7565b604082019050919050565b60006136c9602583613dc0565b91506136d482614206565b604082019050919050565b60006136ec601c83613dc0565b91506136f782614255565b602082019050919050565b600061370f602783613dc0565b915061371a8261427e565b604082019050919050565b6000613732602483613dc0565b915061373d826142cd565b604082019050919050565b6000613755601983613dc0565b91506137608261431c565b602082019050919050565b6000613778602c83613dc0565b915061378382614345565b604082019050919050565b600061379b603883613dc0565b91506137a682614394565b604082019050919050565b60006137be602a83613dc0565b91506137c9826143e3565b604082019050919050565b60006137e1602983613dc0565b91506137ec82614432565b604082019050919050565b6000613804602083613dc0565b915061380f82614481565b602082019050919050565b6000613827602c83613dc0565b9150613832826144aa565b604082019050919050565b600061384a602083613dc0565b9150613855826144f9565b602082019050919050565b600061386d602f83613dc0565b915061387882614522565b604082019050919050565b6000613890602183613dc0565b915061389b82614571565b604082019050919050565b60006138b3603183613dc0565b91506138be826145c0565b604082019050919050565b60006138d6601f83613dc0565b91506138e18261460f565b602082019050919050565b6138f581613f01565b82525050565b600061390782856135f7565b91506139138284613546565b91508190509392505050565b600060208201905061393460008301846134a7565b92915050565b600060608201905061394f60008301866134a7565b61395c60208301856134a7565b61396960408301846138ec565b949350505050565b600060808201905061398660008301876134a7565b61399360208301866134a7565b6139a060408301856138ec565b81810360608301526139b281846134c5565b905095945050505050565b60006020820190506139d260008301846134b6565b92915050565b6000610140820190506139ee600083018d6134b6565b6139fb602083018c6134b6565b613a08604083018b6138ec565b613a15606083018a6138ec565b613a2260808301896138ec565b613a2f60a08301886138ec565b613a3c60c08301876138ec565b613a4960e08301866138ec565b613a576101008301856138ec565b613a656101208301846138ec565b9b9a5050505050505050505050565b6000602082019050613a8960008301846134fe565b92915050565b60006020820190508181036000830152613aa9818461350d565b905092915050565b60006020820190508181036000830152613acb8184613577565b905092915050565b60006020820190508181036000830152613aec81613676565b9050919050565b60006020820190508181036000830152613b0c81613699565b9050919050565b60006020820190508181036000830152613b2c816136bc565b9050919050565b60006020820190508181036000830152613b4c816136df565b9050919050565b60006020820190508181036000830152613b6c81613702565b9050919050565b60006020820190508181036000830152613b8c81613725565b9050919050565b60006020820190508181036000830152613bac81613748565b9050919050565b60006020820190508181036000830152613bcc8161376b565b9050919050565b60006020820190508181036000830152613bec8161378e565b9050919050565b60006020820190508181036000830152613c0c816137b1565b9050919050565b60006020820190508181036000830152613c2c816137d4565b9050919050565b60006020820190508181036000830152613c4c816137f7565b9050919050565b60006020820190508181036000830152613c6c8161381a565b9050919050565b60006020820190508181036000830152613c8c8161383d565b9050919050565b60006020820190508181036000830152613cac81613860565b9050919050565b60006020820190508181036000830152613ccc81613883565b9050919050565b60006020820190508181036000830152613cec816138a6565b9050919050565b60006020820190508181036000830152613d0c816138c9565b9050919050565b6000602082019050613d2860008301846138ec565b92915050565b6000613d38613d49565b9050613d448282613fa3565b919050565b6000604051905090565b600067ffffffffffffffff821115613d6e57613d6d61410a565b5b613d7782614157565b9050602081019050919050565b60008190508160005260206000209050919050565b600081519050919050565b600081519050919050565b600082825260208201905092915050565b600082825260208201905092915050565b600081905092915050565b6000613de782613f01565b9150613df283613f01565b9250827fffffffffffffffffffffffffffffffffffffffffffffffffffffffffffffffff03821115613e2757613e2661404e565b5b828201905092915050565b6000613e3d82613f01565b9150613e4883613f01565b925082613e5857613e5761407d565b5b828204905092915050565b6000613e6e82613f01565b9150613e7983613f01565b925082821015613e8c57613e8b61404e565b5b828203905092915050565b6000613ea282613ee1565b9050919050565b60008115159050919050565b60007fffffffff0000000000000000000000000000000000000000000000000000000082169050919050565b600073ffffffffffffffffffffffffffffffffffffffff82169050919050565b6000819050919050565b6000613f1682613f1d565b9050919050565b6000613f2882613ee1565b9050919050565b82818337600083830152505050565b60005b83811015613f5c578082015181840152602081019050613f41565b83811115613f6b576000848401525b50505050565b60006002820490506001821680613f8957607f821691505b60208210811415613f9d57613f9c6140ac565b5b50919050565b613fac82614157565b810181811067ffffffffffffffff82111715613fcb57613fca61410a565b5b80604052505050565b6000613fdf82613f01565b91507fffffffffffffffffffffffffffffffffffffffffffffffffffffffffffffffff8214156140125761401161404e565b5b600182019050919050565b600061402882613f01565b915061403383613f01565b9250826140435761404261407d565b5b828206905092915050565b7f4e487b7100000000000000000000000000000000000000000000000000000000600052601160045260246000fd5b7f4e487b7100000000000000000000000000000000000000000000000000000000600052601260045260246000fd5b7f4e487b7100000000000000000000000000000000000000000000000000000000600052602260045260246000fd5b7f4e487b7100000000000000000000000000000000000000000000000000000000600052603260045260246000fd5b7f4e487b7100000000000000000000000000000000000000000000000000000000600052604160045260246000fd5b600080fd5b600080fd5b600080fd5b600080fd5b600080fd5b600080fd5b6000601f19601f8301169050919050565b7f4552433732313a207472616e7366657220746f206e6f6e20455243373231526560008201527f63656976657220696d706c656d656e7465720000000000000000000000000000602082015250565b7f4f776e61626c653a206e6577206f776e657220697320746865207a65726f206160008201527f6464726573730000000000000000000000000000000000000000000000000000602082015250565b7f4552433732313a207472616e736665722066726f6d20696e636f72726563742060008201527f6f776e6572000000000000000000000000000000000000000000000000000000602082015250565b7f4552433732313a20746f6b656e20616c7265616479206d696e74656400000000600082015250565b7f4e4654577261707065723a20756e777261702066726f6d20696e636f7272656360008201527f74206f776e657200000000000000000000000000000000000000000000000000602082015250565b7f4552433732313a207472616e7366657220746f20746865207a65726f2061646460008201527f7265737300000000000000000000000000000000000000000000000000000000602082015250565b7f4552433732313a20617070726f766520746f2063616c6c657200000000000000600082015250565b7f4552433732313a206f70657261746f7220717565727920666f72206e6f6e657860008201527f697374656e7420746f6b656e0000000000000000000000000000000000000000602082015250565b7f4552433732313a20617070726f76652063616c6c6572206973206e6f74206f7760008201527f6e6572206e6f7220617070726f76656420666f7220616c6c0000000000000000602082015250565b7f4552433732313a2062616c616e636520717565727920666f7220746865207a6560008201527f726f206164647265737300000000000000000000000000000000000000000000602082015250565b7f4552433732313a206f776e657220717565727920666f72206e6f6e657869737460008201527f656e7420746f6b656e0000000000000000000000000000000000000000000000602082015250565b7f4552433732313a206d696e7420746f20746865207a65726f2061646472657373600082015250565b7f4552433732313a20617070726f76656420717565727920666f72206e6f6e657860008201527f697374656e7420746f6b656e0000000000000000000000000000000000000000602082015250565b7f4f776e61626c653a2063616c6c6572206973206e6f7420746865206f776e6572600082015250565b7f4552433732314d657461646174613a2055524920717565727920666f72206e6f60008201527f6e6578697374656e7420746f6b656e0000000000000000000000000000000000602082015250565b7f4552433732313a20617070726f76616c20746f2063757272656e74206f776e6560008201527f7200000000000000000000000000000000000000000000000000000000000000602082015250565b7f4552433732313a207472616e736665722063616c6c6572206973206e6f74206f60008201527f776e6572206e6f7220617070726f766564000000000000000000000000000000602082015250565b7f5265656e7472616e637947756172643a207265656e7472616e742063616c6c00600082015250565b61464181613e97565b811461464c57600080fd5b50565b61465881613ea9565b811461466357600080fd5b50565b61466f81613eb5565b811461467a57600080fd5b50565b61468681613f01565b811461469157600080fd5b5056fea264697066735822122084edf0f34525828a5b8772a3af4eb42b8aee009eb0ea549ebf69ceb8ad761bed64736f6c63430008060033",
  "linkReferences": {},
  "deployedLinkReferences": {}
}